{
	"Crowd.sol": {
		"crowdFunding": {
			"abi": [
				{
					"inputs": [
						{
							"internalType": "uint256",
							"name": "_target",
							"type": "uint256"
						},
						{
							"internalType": "uint256",
							"name": "_deadline",
							"type": "uint256"
						}
					],
					"stateMutability": "nonpayable",
					"type": "constructor"
				},
				{
					"inputs": [
						{
							"internalType": "address",
							"name": "",
							"type": "address"
						}
					],
					"name": "contributors",
					"outputs": [
						{
							"internalType": "uint256",
							"name": "",
							"type": "uint256"
						}
					],
					"stateMutability": "view",
					"type": "function"
				},
				{
					"inputs": [
						{
							"internalType": "string",
							"name": "_discription",
							"type": "string"
						},
						{
							"internalType": "address payable",
							"name": "_recipant",
							"type": "address"
						},
						{
							"internalType": "uint256",
							"name": "_value",
							"type": "uint256"
						}
					],
					"name": "createRequest",
					"outputs": [],
					"stateMutability": "nonpayable",
					"type": "function"
				},
				{
					"inputs": [],
					"name": "deadline",
					"outputs": [
						{
							"internalType": "uint256",
							"name": "",
							"type": "uint256"
						}
					],
					"stateMutability": "view",
					"type": "function"
				},
				{
					"inputs": [],
					"name": "getBalance",
					"outputs": [
						{
							"internalType": "uint256",
							"name": "",
							"type": "uint256"
						}
					],
					"stateMutability": "view",
					"type": "function"
				},
				{
					"inputs": [],
					"name": "manager",
					"outputs": [
						{
							"internalType": "address",
							"name": "",
							"type": "address"
						}
					],
					"stateMutability": "view",
					"type": "function"
				},
				{
					"inputs": [],
					"name": "miniContribution",
					"outputs": [
						{
							"internalType": "uint256",
							"name": "",
							"type": "uint256"
						}
					],
					"stateMutability": "view",
					"type": "function"
				},
				{
					"inputs": [],
					"name": "noOfContributor",
					"outputs": [
						{
							"internalType": "uint256",
							"name": "",
							"type": "uint256"
						}
					],
					"stateMutability": "view",
					"type": "function"
				},
				{
					"inputs": [],
					"name": "numRequest",
					"outputs": [
						{
							"internalType": "uint256",
							"name": "",
							"type": "uint256"
						}
					],
					"stateMutability": "view",
					"type": "function"
				},
				{
					"inputs": [],
					"name": "raisedAmount",
					"outputs": [
						{
							"internalType": "uint256",
							"name": "",
							"type": "uint256"
						}
					],
					"stateMutability": "view",
					"type": "function"
				},
				{
					"inputs": [],
					"name": "refund",
					"outputs": [],
					"stateMutability": "payable",
					"type": "function"
				},
				{
					"inputs": [
						{
							"internalType": "uint256",
							"name": "",
							"type": "uint256"
						}
					],
					"name": "request",
					"outputs": [
						{
							"internalType": "string",
							"name": "discription",
							"type": "string"
						},
						{
							"internalType": "address payable",
							"name": "recipant",
							"type": "address"
						},
						{
							"internalType": "uint256",
							"name": "value",
							"type": "uint256"
						},
						{
							"internalType": "bool",
							"name": "completed",
							"type": "bool"
						},
						{
							"internalType": "uint256",
							"name": "noOfVoters",
							"type": "uint256"
						}
					],
					"stateMutability": "view",
					"type": "function"
				},
				{
					"inputs": [
						{
							"internalType": "uint256",
							"name": "_request",
							"type": "uint256"
						}
					],
					"name": "requestAccept",
					"outputs": [],
					"stateMutability": "payable",
					"type": "function"
				},
				{
					"inputs": [],
					"name": "sendEth",
					"outputs": [],
					"stateMutability": "payable",
					"type": "function"
				},
				{
					"inputs": [],
					"name": "target",
					"outputs": [
						{
							"internalType": "uint256",
							"name": "",
							"type": "uint256"
						}
					],
					"stateMutability": "view",
					"type": "function"
				},
				{
					"inputs": [
						{
							"internalType": "uint256",
							"name": "_request",
							"type": "uint256"
						}
					],
					"name": "voteRequest",
					"outputs": [],
					"stateMutability": "nonpayable",
					"type": "function"
				}
			],
			"devdoc": {
				"kind": "dev",
				"methods": {},
				"version": 1
			},
			"evm": {
				"assembly": "    /* \"Crowd.sol\":74:2861  contract crowdFunding... */\n  mstore(0x40, 0x80)\n    /* \"Crowd.sol\":620:809  constructor (uint _target,uint _deadline)... */\n  callvalue\n  dup1\n  iszero\n  tag_1\n  jumpi\n  0x00\n  dup1\n  revert\ntag_1:\n  pop\n  mload(0x40)\n  sub(codesize, bytecodeSize)\n  dup1\n  bytecodeSize\n  dup4\n  codecopy\n  dup2\n  dup2\n  add\n  0x40\n  mstore\n  dup2\n  add\n  swap1\n  tag_2\n  swap2\n  swap1\n  tag_3\n  jump\t// in\ntag_2:\n    /* \"Crowd.sol\":685:692  _target */\n  dup2\n    /* \"Crowd.sol\":678:684  target */\n  0x02\n    /* \"Crowd.sol\":678:692  target=_target */\n  dup2\n  swap1\n  sstore\n  pop\n    /* \"Crowd.sol\":728:737  _deadline */\n  dup1\n    /* \"Crowd.sol\":712:727  block.timestamp */\n  timestamp\n    /* \"Crowd.sol\":712:737  block.timestamp+_deadline */\n  tag_6\n  swap2\n  swap1\n  tag_7\n  jump\t// in\ntag_6:\n    /* \"Crowd.sol\":703:711  deadline */\n  0x04\n    /* \"Crowd.sol\":703:737  deadline=block.timestamp+_deadline */\n  dup2\n  swap1\n  sstore\n  pop\n    /* \"Crowd.sol\":765:772  100 wei */\n  0x64\n    /* \"Crowd.sol\":748:764  miniContribution */\n  0x03\n    /* \"Crowd.sol\":748:772  miniContribution=100 wei */\n  dup2\n  swap1\n  sstore\n  pop\n    /* \"Crowd.sol\":791:801  msg.sender */\n  caller\n    /* \"Crowd.sol\":783:790  manager */\n  0x01\n  0x00\n    /* \"Crowd.sol\":783:801  manager=msg.sender */\n  0x0100\n  exp\n  dup2\n  sload\n  dup2\n  0xffffffffffffffffffffffffffffffffffffffff\n  mul\n  not\n  and\n  swap1\n  dup4\n  0xffffffffffffffffffffffffffffffffffffffff\n  and\n  mul\n  or\n  swap1\n  sstore\n  pop\n    /* \"Crowd.sol\":620:809  constructor (uint _target,uint _deadline)... */\n  pop\n  pop\n    /* \"Crowd.sol\":74:2861  contract crowdFunding... */\n  jump(tag_8)\n    /* \"#utility.yul\":88:205   */\ntag_10:\n    /* \"#utility.yul\":197:198   */\n  0x00\n    /* \"#utility.yul\":194:195   */\n  dup1\n    /* \"#utility.yul\":187:199   */\n  revert\n    /* \"#utility.yul\":334:411   */\ntag_12:\n    /* \"#utility.yul\":371:378   */\n  0x00\n    /* \"#utility.yul\":400:405   */\n  dup2\n    /* \"#utility.yul\":389:405   */\n  swap1\n  pop\n    /* \"#utility.yul\":334:411   */\n  swap2\n  swap1\n  pop\n  jump\t// out\n    /* \"#utility.yul\":417:539   */\ntag_13:\n    /* \"#utility.yul\":490:514   */\n  tag_22\n    /* \"#utility.yul\":508:513   */\n  dup2\n    /* \"#utility.yul\":490:514   */\n  tag_12\n  jump\t// in\ntag_22:\n    /* \"#utility.yul\":483:488   */\n  dup2\n    /* \"#utility.yul\":480:515   */\n  eq\n    /* \"#utility.yul\":470:533   */\n  tag_23\n  jumpi\n    /* \"#utility.yul\":529:530   */\n  0x00\n    /* \"#utility.yul\":526:527   */\n  dup1\n    /* \"#utility.yul\":519:531   */\n  revert\n    /* \"#utility.yul\":470:533   */\ntag_23:\n    /* \"#utility.yul\":417:539   */\n  pop\n  jump\t// out\n    /* \"#utility.yul\":545:688   */\ntag_14:\n    /* \"#utility.yul\":602:607   */\n  0x00\n    /* \"#utility.yul\":633:639   */\n  dup2\n    /* \"#utility.yul\":627:640   */\n  mload\n    /* \"#utility.yul\":618:640   */\n  swap1\n  pop\n    /* \"#utility.yul\":649:682   */\n  tag_25\n    /* \"#utility.yul\":676:681   */\n  dup2\n    /* \"#utility.yul\":649:682   */\n  tag_13\n  jump\t// in\ntag_25:\n    /* \"#utility.yul\":545:688   */\n  swap3\n  swap2\n  pop\n  pop\n  jump\t// out\n    /* \"#utility.yul\":694:1201   */\ntag_3:\n    /* \"#utility.yul\":773:779   */\n  0x00\n    /* \"#utility.yul\":781:787   */\n  dup1\n    /* \"#utility.yul\":830:832   */\n  0x40\n    /* \"#utility.yul\":818:827   */\n  dup4\n    /* \"#utility.yul\":809:816   */\n  dup6\n    /* \"#utility.yul\":805:828   */\n  sub\n    /* \"#utility.yul\":801:833   */\n  slt\n    /* \"#utility.yul\":798:917   */\n  iszero\n  tag_27\n  jumpi\n    /* \"#utility.yul\":836:915   */\n  tag_28\n  tag_10\n  jump\t// in\ntag_28:\n    /* \"#utility.yul\":798:917   */\ntag_27:\n    /* \"#utility.yul\":956:957   */\n  0x00\n    /* \"#utility.yul\":981:1045   */\n  tag_29\n    /* \"#utility.yul\":1037:1044   */\n  dup6\n    /* \"#utility.yul\":1028:1034   */\n  dup3\n    /* \"#utility.yul\":1017:1026   */\n  dup7\n    /* \"#utility.yul\":1013:1035   */\n  add\n    /* \"#utility.yul\":981:1045   */\n  tag_14\n  jump\t// in\ntag_29:\n    /* \"#utility.yul\":971:1045   */\n  swap3\n  pop\n    /* \"#utility.yul\":927:1055   */\n  pop\n    /* \"#utility.yul\":1094:1096   */\n  0x20\n    /* \"#utility.yul\":1120:1184   */\n  tag_30\n    /* \"#utility.yul\":1176:1183   */\n  dup6\n    /* \"#utility.yul\":1167:1173   */\n  dup3\n    /* \"#utility.yul\":1156:1165   */\n  dup7\n    /* \"#utility.yul\":1152:1174   */\n  add\n    /* \"#utility.yul\":1120:1184   */\n  tag_14\n  jump\t// in\ntag_30:\n    /* \"#utility.yul\":1110:1184   */\n  swap2\n  pop\n    /* \"#utility.yul\":1065:1194   */\n  pop\n    /* \"#utility.yul\":694:1201   */\n  swap3\n  pop\n  swap3\n  swap1\n  pop\n  jump\t// out\n    /* \"#utility.yul\":1207:1387   */\ntag_15:\n    /* \"#utility.yul\":1255:1332   */\n  0x4e487b7100000000000000000000000000000000000000000000000000000000\n    /* \"#utility.yul\":1252:1253   */\n  0x00\n    /* \"#utility.yul\":1245:1333   */\n  mstore\n    /* \"#utility.yul\":1352:1356   */\n  0x11\n    /* \"#utility.yul\":1349:1350   */\n  0x04\n    /* \"#utility.yul\":1342:1357   */\n  mstore\n    /* \"#utility.yul\":1376:1380   */\n  0x24\n    /* \"#utility.yul\":1373:1374   */\n  0x00\n    /* \"#utility.yul\":1366:1381   */\n  revert\n    /* \"#utility.yul\":1393:1584   */\ntag_7:\n    /* \"#utility.yul\":1433:1436   */\n  0x00\n    /* \"#utility.yul\":1452:1472   */\n  tag_33\n    /* \"#utility.yul\":1470:1471   */\n  dup3\n    /* \"#utility.yul\":1452:1472   */\n  tag_12\n  jump\t// in\ntag_33:\n    /* \"#utility.yul\":1447:1472   */\n  swap2\n  pop\n    /* \"#utility.yul\":1486:1506   */\n  tag_34\n    /* \"#utility.yul\":1504:1505   */\n  dup4\n    /* \"#utility.yul\":1486:1506   */\n  tag_12\n  jump\t// in\ntag_34:\n    /* \"#utility.yul\":1481:1506   */\n  swap3\n  pop\n    /* \"#utility.yul\":1529:1530   */\n  dup3\n    /* \"#utility.yul\":1526:1527   */\n  dup3\n    /* \"#utility.yul\":1522:1531   */\n  add\n    /* \"#utility.yul\":1515:1531   */\n  swap1\n  pop\n    /* \"#utility.yul\":1550:1553   */\n  dup1\n    /* \"#utility.yul\":1547:1548   */\n  dup3\n    /* \"#utility.yul\":1544:1554   */\n  gt\n    /* \"#utility.yul\":1541:1577   */\n  iszero\n  tag_35\n  jumpi\n    /* \"#utility.yul\":1557:1575   */\n  tag_36\n  tag_15\n  jump\t// in\ntag_36:\n    /* \"#utility.yul\":1541:1577   */\ntag_35:\n    /* \"#utility.yul\":1393:1584   */\n  swap3\n  swap2\n  pop\n  pop\n  jump\t// out\n    /* \"Crowd.sol\":74:2861  contract crowdFunding... */\ntag_8:\n  dataSize(sub_0)\n  dup1\n  dataOffset(sub_0)\n  0x00\n  codecopy\n  0x00\n  return\nstop\n\nsub_0: assembly {\n        /* \"Crowd.sol\":74:2861  contract crowdFunding... */\n      mstore(0x40, 0x80)\n      jumpi(tag_1, lt(calldatasize, 0x04))\n      shr(0xe0, calldataload(0x00))\n      dup1\n      0x4cb6f4a5\n      gt\n      tag_17\n      jumpi\n      dup1\n      0xb1b16431\n      gt\n      tag_18\n      jumpi\n      dup1\n      0xb1b16431\n      eq\n      tag_13\n      jumpi\n      dup1\n      0xc59ee1dc\n      eq\n      tag_14\n      jumpi\n      dup1\n      0xd4b83992\n      eq\n      tag_15\n      jumpi\n      dup1\n      0xd845a4b3\n      eq\n      tag_16\n      jumpi\n      jump(tag_1)\n    tag_18:\n      dup1\n      0x4cb6f4a5\n      eq\n      tag_9\n      jumpi\n      dup1\n      0x590e1ae3\n      eq\n      tag_10\n      jumpi\n      dup1\n      0x8c9ffd40\n      eq\n      tag_11\n      jumpi\n      dup1\n      0xa6a78c94\n      eq\n      tag_12\n      jumpi\n      jump(tag_1)\n    tag_17:\n      dup1\n      0x1b16bb5c\n      gt\n      tag_19\n      jumpi\n      dup1\n      0x1b16bb5c\n      eq\n      tag_5\n      jumpi\n      dup1\n      0x1f6d4942\n      eq\n      tag_6\n      jumpi\n      dup1\n      0x29dcb0cf\n      eq\n      tag_7\n      jumpi\n      dup1\n      0x481c6a75\n      eq\n      tag_8\n      jumpi\n      jump(tag_1)\n    tag_19:\n      dup1\n      0x05759b4d\n      eq\n      tag_2\n      jumpi\n      dup1\n      0x06e99fef\n      eq\n      tag_3\n      jumpi\n      dup1\n      0x12065fe0\n      eq\n      tag_4\n      jumpi\n    tag_1:\n      0x00\n      dup1\n      revert\n        /* \"Crowd.sol\":207:235  uint public miniContribution */\n    tag_2:\n      callvalue\n      dup1\n      iszero\n      tag_20\n      jumpi\n      0x00\n      dup1\n      revert\n    tag_20:\n      pop\n      tag_21\n      tag_22\n      jump\t// in\n    tag_21:\n      mload(0x40)\n      tag_23\n      swap2\n      swap1\n      tag_24\n      jump\t// in\n    tag_23:\n      mload(0x40)\n      dup1\n      swap2\n      sub\n      swap1\n      return\n        /* \"Crowd.sol\":817:1175  function sendEth() public payable ... */\n    tag_3:\n      tag_25\n      tag_26\n      jump\t// in\n    tag_25:\n      stop\n        /* \"Crowd.sol\":1183:1277  function getBalance() public view returns(uint){... */\n    tag_4:\n      callvalue\n      dup1\n      iszero\n      tag_27\n      jumpi\n      0x00\n      dup1\n      revert\n    tag_27:\n      pop\n      tag_28\n      tag_29\n      jump\t// in\n    tag_28:\n      mload(0x40)\n      tag_30\n      swap2\n      swap1\n      tag_24\n      jump\t// in\n    tag_30:\n      mload(0x40)\n      dup1\n      swap2\n      sub\n      swap1\n      return\n        /* \"Crowd.sol\":1743:2134  function createRequest(string memory _discription,address payable _recipant,uint _value) public onlyManager... */\n    tag_5:\n      callvalue\n      dup1\n      iszero\n      tag_31\n      jumpi\n      0x00\n      dup1\n      revert\n    tag_31:\n      pop\n      tag_32\n      0x04\n      dup1\n      calldatasize\n      sub\n      dup2\n      add\n      swap1\n      tag_33\n      swap2\n      swap1\n      tag_34\n      jump\t// in\n    tag_33:\n      tag_35\n      jump\t// in\n    tag_32:\n      stop\n        /* \"Crowd.sol\":104:146  mapping(address=>uint) public contributors */\n    tag_6:\n      callvalue\n      dup1\n      iszero\n      tag_36\n      jumpi\n      0x00\n      dup1\n      revert\n    tag_36:\n      pop\n      tag_37\n      0x04\n      dup1\n      calldatasize\n      sub\n      dup2\n      add\n      swap1\n      tag_38\n      swap2\n      swap1\n      tag_39\n      jump\t// in\n    tag_38:\n      tag_40\n      jump\t// in\n    tag_37:\n      mload(0x40)\n      tag_41\n      swap2\n      swap1\n      tag_24\n      jump\t// in\n    tag_41:\n      mload(0x40)\n      dup1\n      swap2\n      sub\n      swap1\n      return\n        /* \"Crowd.sol\":242:262  uint public deadline */\n    tag_7:\n      callvalue\n      dup1\n      iszero\n      tag_42\n      jumpi\n      0x00\n      dup1\n      revert\n    tag_42:\n      pop\n      tag_43\n      tag_44\n      jump\t// in\n    tag_43:\n      mload(0x40)\n      tag_45\n      swap2\n      swap1\n      tag_24\n      jump\t// in\n    tag_45:\n      mload(0x40)\n      dup1\n      swap2\n      sub\n      swap1\n      return\n        /* \"Crowd.sol\":153:175  address public manager */\n    tag_8:\n      callvalue\n      dup1\n      iszero\n      tag_46\n      jumpi\n      0x00\n      dup1\n      revert\n    tag_46:\n      pop\n      tag_47\n      tag_48\n      jump\t// in\n    tag_47:\n      mload(0x40)\n      tag_49\n      swap2\n      swap1\n      tag_50\n      jump\t// in\n    tag_49:\n      mload(0x40)\n      dup1\n      swap2\n      sub\n      swap1\n      return\n        /* \"Crowd.sol\":2143:2459  function voteRequest(uint _request) public ... */\n    tag_9:\n      callvalue\n      dup1\n      iszero\n      tag_51\n      jumpi\n      0x00\n      dup1\n      revert\n    tag_51:\n      pop\n      tag_52\n      0x04\n      dup1\n      calldatasize\n      sub\n      dup2\n      add\n      swap1\n      tag_53\n      swap2\n      swap1\n      tag_54\n      jump\t// in\n    tag_53:\n      tag_55\n      jump\t// in\n    tag_52:\n      stop\n        /* \"Crowd.sol\":1283:1614  function refund() public payable... */\n    tag_10:\n      tag_56\n      tag_57\n      jump\t// in\n    tag_56:\n      stop\n        /* \"Crowd.sol\":269:296  uint public noOfContributor */\n    tag_11:\n      callvalue\n      dup1\n      iszero\n      tag_58\n      jumpi\n      0x00\n      dup1\n      revert\n    tag_58:\n      pop\n      tag_59\n      tag_60\n      jump\t// in\n    tag_59:\n      mload(0x40)\n      tag_61\n      swap2\n      swap1\n      tag_24\n      jump\t// in\n    tag_61:\n      mload(0x40)\n      dup1\n      swap2\n      sub\n      swap1\n      return\n        /* \"Crowd.sol\":2467:2858  function requestAccept(uint _request) public payable onlyManager... */\n    tag_12:\n      tag_62\n      0x04\n      dup1\n      calldatasize\n      sub\n      dup2\n      add\n      swap1\n      tag_63\n      swap2\n      swap1\n      tag_54\n      jump\t// in\n    tag_63:\n      tag_64\n      jump\t// in\n    tag_62:\n      stop\n        /* \"Crowd.sol\":589:611  uint public numRequest */\n    tag_13:\n      callvalue\n      dup1\n      iszero\n      tag_65\n      jumpi\n      0x00\n      dup1\n      revert\n    tag_65:\n      pop\n      tag_66\n      tag_67\n      jump\t// in\n    tag_66:\n      mload(0x40)\n      tag_68\n      swap2\n      swap1\n      tag_24\n      jump\t// in\n    tag_68:\n      mload(0x40)\n      dup1\n      swap2\n      sub\n      swap1\n      return\n        /* \"Crowd.sol\":303:327  uint public raisedAmount */\n    tag_14:\n      callvalue\n      dup1\n      iszero\n      tag_69\n      jumpi\n      0x00\n      dup1\n      revert\n    tag_69:\n      pop\n      tag_70\n      tag_71\n      jump\t// in\n    tag_70:\n      mload(0x40)\n      tag_72\n      swap2\n      swap1\n      tag_24\n      jump\t// in\n    tag_72:\n      mload(0x40)\n      dup1\n      swap2\n      sub\n      swap1\n      return\n        /* \"Crowd.sol\":182:200  uint public target */\n    tag_15:\n      callvalue\n      dup1\n      iszero\n      tag_73\n      jumpi\n      0x00\n      dup1\n      revert\n    tag_73:\n      pop\n      tag_74\n      tag_75\n      jump\t// in\n    tag_74:\n      mload(0x40)\n      tag_76\n      swap2\n      swap1\n      tag_24\n      jump\t// in\n    tag_76:\n      mload(0x40)\n      dup1\n      swap2\n      sub\n      swap1\n      return\n        /* \"Crowd.sol\":545:582  mapping(uint=>Request) public request */\n    tag_16:\n      callvalue\n      dup1\n      iszero\n      tag_77\n      jumpi\n      0x00\n      dup1\n      revert\n    tag_77:\n      pop\n      tag_78\n      0x04\n      dup1\n      calldatasize\n      sub\n      dup2\n      add\n      swap1\n      tag_79\n      swap2\n      swap1\n      tag_54\n      jump\t// in\n    tag_79:\n      tag_80\n      jump\t// in\n    tag_78:\n      mload(0x40)\n      tag_81\n      swap6\n      swap5\n      swap4\n      swap3\n      swap2\n      swap1\n      tag_82\n      jump\t// in\n    tag_81:\n      mload(0x40)\n      dup1\n      swap2\n      sub\n      swap1\n      return\n        /* \"Crowd.sol\":207:235  uint public miniContribution */\n    tag_22:\n      sload(0x03)\n      dup2\n      jump\t// out\n        /* \"Crowd.sol\":817:1175  function sendEth() public payable ... */\n    tag_26:\n        /* \"Crowd.sol\":892:900  deadline */\n      sload(0x04)\n        /* \"Crowd.sol\":876:891  block.timestamp */\n      timestamp\n        /* \"Crowd.sol\":876:900  block.timestamp<deadline */\n      lt\n        /* \"Crowd.sol\":868:924  require(block.timestamp<deadline,\"Dealine were missing\") */\n      tag_84\n      jumpi\n      mload(0x40)\n      0x08c379a000000000000000000000000000000000000000000000000000000000\n      dup2\n      mstore\n      0x04\n      add\n      tag_85\n      swap1\n      tag_86\n      jump\t// in\n    tag_85:\n      mload(0x40)\n      dup1\n      swap2\n      sub\n      swap1\n      revert\n    tag_84:\n        /* \"Crowd.sol\":955:971  miniContribution */\n      sload(0x03)\n        /* \"Crowd.sol\":943:952  msg.value */\n      callvalue\n        /* \"Crowd.sol\":943:971  msg.value >=miniContribution */\n      lt\n      iszero\n        /* \"Crowd.sol\":935:999  require(msg.value >=miniContribution,\"You were not be eligible\") */\n      tag_87\n      jumpi\n      mload(0x40)\n      0x08c379a000000000000000000000000000000000000000000000000000000000\n      dup2\n      mstore\n      0x04\n      add\n      tag_88\n      swap1\n      tag_89\n      jump\t// in\n    tag_88:\n      mload(0x40)\n      dup1\n      swap2\n      sub\n      swap1\n      revert\n    tag_87:\n        /* \"Crowd.sol\":1042:1043  0 */\n      0x00\n        /* \"Crowd.sol\":1016:1028  contributors */\n      dup1\n        /* \"Crowd.sol\":1016:1040  contributors[msg.sender] */\n      0x00\n        /* \"Crowd.sol\":1029:1039  msg.sender */\n      caller\n        /* \"Crowd.sol\":1016:1040  contributors[msg.sender] */\n      0xffffffffffffffffffffffffffffffffffffffff\n      and\n      0xffffffffffffffffffffffffffffffffffffffff\n      and\n      dup2\n      mstore\n      0x20\n      add\n      swap1\n      dup2\n      mstore\n      0x20\n      add\n      0x00\n      keccak256\n      sload\n        /* \"Crowd.sol\":1016:1043  contributors[msg.sender]==0 */\n      sub\n        /* \"Crowd.sol\":1012:1088  if (contributors[msg.sender]==0){... */\n      tag_90\n      jumpi\n        /* \"Crowd.sol\":1059:1074  noOfContributor */\n      0x05\n      0x00\n        /* \"Crowd.sol\":1059:1076  noOfContributor++ */\n      dup2\n      sload\n      dup1\n      swap3\n      swap2\n      swap1\n      tag_91\n      swap1\n      tag_92\n      jump\t// in\n    tag_91:\n      swap2\n      swap1\n      pop\n      sstore\n      pop\n        /* \"Crowd.sol\":1012:1088  if (contributors[msg.sender]==0){... */\n    tag_90:\n        /* \"Crowd.sol\":1124:1133  msg.value */\n      callvalue\n        /* \"Crowd.sol\":1098:1110  contributors */\n      0x00\n        /* \"Crowd.sol\":1098:1122  contributors[msg.sender] */\n      dup1\n        /* \"Crowd.sol\":1111:1121  msg.sender */\n      caller\n        /* \"Crowd.sol\":1098:1122  contributors[msg.sender] */\n      0xffffffffffffffffffffffffffffffffffffffff\n      and\n      0xffffffffffffffffffffffffffffffffffffffff\n      and\n      dup2\n      mstore\n      0x20\n      add\n      swap1\n      dup2\n      mstore\n      0x20\n      add\n      0x00\n      keccak256\n      0x00\n        /* \"Crowd.sol\":1098:1133  contributors[msg.sender]+=msg.value */\n      dup3\n      dup3\n      sload\n      tag_93\n      swap2\n      swap1\n      tag_94\n      jump\t// in\n    tag_93:\n      swap3\n      pop\n      pop\n      dup2\n      swap1\n      sstore\n      pop\n        /* \"Crowd.sol\":1158:1167  msg.value */\n      callvalue\n        /* \"Crowd.sol\":1144:1156  raisedAmount */\n      0x06\n      0x00\n        /* \"Crowd.sol\":1144:1167  raisedAmount+=msg.value */\n      dup3\n      dup3\n      sload\n      tag_95\n      swap2\n      swap1\n      tag_94\n      jump\t// in\n    tag_95:\n      swap3\n      pop\n      pop\n      dup2\n      swap1\n      sstore\n      pop\n        /* \"Crowd.sol\":817:1175  function sendEth() public payable ... */\n      jump\t// out\n        /* \"Crowd.sol\":1183:1277  function getBalance() public view returns(uint){... */\n    tag_29:\n        /* \"Crowd.sol\":1225:1229  uint */\n      0x00\n        /* \"Crowd.sol\":1248:1269  address(this).balance */\n      selfbalance\n        /* \"Crowd.sol\":1241:1269  return address(this).balance */\n      swap1\n      pop\n        /* \"Crowd.sol\":1183:1277  function getBalance() public view returns(uint){... */\n      swap1\n      jump\t// out\n        /* \"Crowd.sol\":1743:2134  function createRequest(string memory _discription,address payable _recipant,uint _value) public onlyManager... */\n    tag_35:\n        /* \"Crowd.sol\":1676:1683  manager */\n      0x01\n      0x00\n      swap1\n      sload\n      swap1\n      0x0100\n      exp\n      swap1\n      div\n      0xffffffffffffffffffffffffffffffffffffffff\n      and\n        /* \"Crowd.sol\":1664:1683  msg.sender==manager */\n      0xffffffffffffffffffffffffffffffffffffffff\n      and\n        /* \"Crowd.sol\":1664:1674  msg.sender */\n      caller\n        /* \"Crowd.sol\":1664:1683  msg.sender==manager */\n      0xffffffffffffffffffffffffffffffffffffffff\n      and\n      eq\n        /* \"Crowd.sol\":1655:1715  require (msg.sender==manager,\"Only can Access the Function\") */\n      tag_98\n      jumpi\n      mload(0x40)\n      0x08c379a000000000000000000000000000000000000000000000000000000000\n      dup2\n      mstore\n      0x04\n      add\n      tag_99\n      swap1\n      tag_100\n      jump\t// in\n    tag_99:\n      mload(0x40)\n      dup1\n      swap2\n      sub\n      swap1\n      revert\n    tag_98:\n        /* \"Crowd.sol\":1867:1893  Request storage newRequest */\n      0x00\n        /* \"Crowd.sol\":1894:1901  request */\n      0x07\n        /* \"Crowd.sol\":1894:1913  request[numRequest] */\n      0x00\n        /* \"Crowd.sol\":1902:1912  numRequest */\n      sload(0x08)\n        /* \"Crowd.sol\":1894:1913  request[numRequest] */\n      dup2\n      mstore\n      0x20\n      add\n      swap1\n      dup2\n      mstore\n      0x20\n      add\n      0x00\n      keccak256\n        /* \"Crowd.sol\":1867:1913  Request storage newRequest=request[numRequest] */\n      swap1\n      pop\n        /* \"Crowd.sol\":1924:1934  numRequest */\n      0x08\n      0x00\n        /* \"Crowd.sol\":1924:1936  numRequest++ */\n      dup2\n      sload\n      dup1\n      swap3\n      swap2\n      swap1\n      tag_102\n      swap1\n      tag_92\n      jump\t// in\n    tag_102:\n      swap2\n      swap1\n      pop\n      sstore\n      pop\n        /* \"Crowd.sol\":1970:1982  _discription */\n      dup4\n        /* \"Crowd.sol\":1947:1957  newRequest */\n      dup2\n        /* \"Crowd.sol\":1947:1969  newRequest.discription */\n      0x00\n      add\n        /* \"Crowd.sol\":1947:1982  newRequest.discription=_discription */\n      swap1\n      dup2\n      tag_103\n      swap2\n      swap1\n      tag_104\n      jump\t// in\n    tag_103:\n      pop\n        /* \"Crowd.sol\":2013:2022  _recipant */\n      dup3\n        /* \"Crowd.sol\":1993:2003  newRequest */\n      dup2\n        /* \"Crowd.sol\":1993:2012  newRequest.recipant */\n      0x01\n      add\n      0x00\n        /* \"Crowd.sol\":1993:2022  newRequest.recipant=_recipant */\n      0x0100\n      exp\n      dup2\n      sload\n      dup2\n      0xffffffffffffffffffffffffffffffffffffffff\n      mul\n      not\n      and\n      swap1\n      dup4\n      0xffffffffffffffffffffffffffffffffffffffff\n      and\n      mul\n      or\n      swap1\n      sstore\n      pop\n        /* \"Crowd.sol\":2050:2056  _value */\n      dup2\n        /* \"Crowd.sol\":2033:2043  newRequest */\n      dup2\n        /* \"Crowd.sol\":2033:2049  newRequest.value */\n      0x02\n      add\n        /* \"Crowd.sol\":2033:2056  newRequest.value=_value */\n      dup2\n      swap1\n      sstore\n      pop\n        /* \"Crowd.sol\":2088:2092  true */\n      0x01\n        /* \"Crowd.sol\":2067:2077  newRequest */\n      dup2\n        /* \"Crowd.sol\":2067:2087  newRequest.completed */\n      0x03\n      add\n      0x00\n        /* \"Crowd.sol\":2067:2092  newRequest.completed=true */\n      0x0100\n      exp\n      dup2\n      sload\n      dup2\n      0xff\n      mul\n      not\n      and\n      swap1\n      dup4\n      iszero\n      iszero\n      mul\n      or\n      swap1\n      sstore\n      pop\n        /* \"Crowd.sol\":2125:2126  0 */\n      0x00\n        /* \"Crowd.sol\":2103:2113  newRequest */\n      dup2\n        /* \"Crowd.sol\":2103:2124  newRequest.noOfVoters */\n      0x04\n      add\n        /* \"Crowd.sol\":2103:2126  newRequest.noOfVoters=0 */\n      dup2\n      swap1\n      sstore\n      pop\n        /* \"Crowd.sol\":1856:2134  {... */\n      pop\n        /* \"Crowd.sol\":1743:2134  function createRequest(string memory _discription,address payable _recipant,uint _value) public onlyManager... */\n      pop\n      pop\n      pop\n      jump\t// out\n        /* \"Crowd.sol\":104:146  mapping(address=>uint) public contributors */\n    tag_40:\n      mstore(0x20, 0x00)\n      dup1\n      0x00\n      mstore\n      keccak256(0x00, 0x40)\n      0x00\n      swap2\n      pop\n      swap1\n      pop\n      sload\n      dup2\n      jump\t// out\n        /* \"Crowd.sol\":242:262  uint public deadline */\n    tag_44:\n      sload(0x04)\n      dup2\n      jump\t// out\n        /* \"Crowd.sol\":153:175  address public manager */\n    tag_48:\n      0x01\n      0x00\n      swap1\n      sload\n      swap1\n      0x0100\n      exp\n      swap1\n      div\n      0xffffffffffffffffffffffffffffffffffffffff\n      and\n      dup2\n      jump\t// out\n        /* \"Crowd.sol\":2143:2459  function voteRequest(uint _request) public ... */\n    tag_55:\n        /* \"Crowd.sol\":2236:2237  0 */\n      0x00\n        /* \"Crowd.sol\":2211:2223  contributors */\n      dup1\n        /* \"Crowd.sol\":2211:2235  contributors[msg.sender] */\n      0x00\n        /* \"Crowd.sol\":2224:2234  msg.sender */\n      caller\n        /* \"Crowd.sol\":2211:2235  contributors[msg.sender] */\n      0xffffffffffffffffffffffffffffffffffffffff\n      and\n      0xffffffffffffffffffffffffffffffffffffffff\n      and\n      dup2\n      mstore\n      0x20\n      add\n      swap1\n      dup2\n      mstore\n      0x20\n      add\n      0x00\n      keccak256\n      sload\n        /* \"Crowd.sol\":2211:2237  contributors[msg.sender]<0 */\n      lt\n        /* \"Crowd.sol\":2203:2238  require(contributors[msg.sender]<0) */\n      tag_106\n      jumpi\n      0x00\n      dup1\n      revert\n    tag_106:\n        /* \"Crowd.sol\":2249:2276  Request storage thisRequest */\n      0x00\n        /* \"Crowd.sol\":2277:2284  request */\n      0x07\n        /* \"Crowd.sol\":2277:2294  request[_request] */\n      0x00\n        /* \"Crowd.sol\":2285:2293  _request */\n      dup4\n        /* \"Crowd.sol\":2277:2294  request[_request] */\n      dup2\n      mstore\n      0x20\n      add\n      swap1\n      dup2\n      mstore\n      0x20\n      add\n      0x00\n      keccak256\n        /* \"Crowd.sol\":2249:2294  Request storage thisRequest=request[_request] */\n      swap1\n      pop\n        /* \"Crowd.sol\":2344:2349  false */\n      0x00\n        /* \"Crowd.sol\":2313:2349  thisRequest.voter[msg.sender]==false */\n      iszero\n      iszero\n        /* \"Crowd.sol\":2313:2324  thisRequest */\n      dup2\n        /* \"Crowd.sol\":2313:2330  thisRequest.voter */\n      0x05\n      add\n        /* \"Crowd.sol\":2313:2342  thisRequest.voter[msg.sender] */\n      0x00\n        /* \"Crowd.sol\":2331:2341  msg.sender */\n      caller\n        /* \"Crowd.sol\":2313:2342  thisRequest.voter[msg.sender] */\n      0xffffffffffffffffffffffffffffffffffffffff\n      and\n      0xffffffffffffffffffffffffffffffffffffffff\n      and\n      dup2\n      mstore\n      0x20\n      add\n      swap1\n      dup2\n      mstore\n      0x20\n      add\n      0x00\n      keccak256\n      0x00\n      swap1\n      sload\n      swap1\n      0x0100\n      exp\n      swap1\n      div\n      0xff\n      and\n        /* \"Crowd.sol\":2313:2349  thisRequest.voter[msg.sender]==false */\n      iszero\n      iszero\n      eq\n        /* \"Crowd.sol\":2305:2371  require(thisRequest.voter[msg.sender]==false,\"Actually you voted\") */\n      tag_107\n      jumpi\n      mload(0x40)\n      0x08c379a000000000000000000000000000000000000000000000000000000000\n      dup2\n      mstore\n      0x04\n      add\n      tag_108\n      swap1\n      tag_109\n      jump\t// in\n    tag_108:\n      mload(0x40)\n      dup1\n      swap2\n      sub\n      swap1\n      revert\n    tag_107:\n        /* \"Crowd.sol\":2412:2416  true */\n      0x01\n        /* \"Crowd.sol\":2382:2393  thisRequest */\n      dup2\n        /* \"Crowd.sol\":2382:2399  thisRequest.voter */\n      0x05\n      add\n        /* \"Crowd.sol\":2382:2411  thisRequest.voter[msg.sender] */\n      0x00\n        /* \"Crowd.sol\":2400:2410  msg.sender */\n      caller\n        /* \"Crowd.sol\":2382:2411  thisRequest.voter[msg.sender] */\n      0xffffffffffffffffffffffffffffffffffffffff\n      and\n      0xffffffffffffffffffffffffffffffffffffffff\n      and\n      dup2\n      mstore\n      0x20\n      add\n      swap1\n      dup2\n      mstore\n      0x20\n      add\n      0x00\n      keccak256\n      0x00\n        /* \"Crowd.sol\":2382:2416  thisRequest.voter[msg.sender]=true */\n      0x0100\n      exp\n      dup2\n      sload\n      dup2\n      0xff\n      mul\n      not\n      and\n      swap1\n      dup4\n      iszero\n      iszero\n      mul\n      or\n      swap1\n      sstore\n      pop\n        /* \"Crowd.sol\":2427:2438  thisRequest */\n      dup1\n        /* \"Crowd.sol\":2427:2449  thisRequest.noOfVoters */\n      0x04\n      add\n      0x00\n        /* \"Crowd.sol\":2427:2451  thisRequest.noOfVoters++ */\n      dup2\n      sload\n      dup1\n      swap3\n      swap2\n      swap1\n      tag_110\n      swap1\n      tag_92\n      jump\t// in\n    tag_110:\n      swap2\n      swap1\n      pop\n      sstore\n      pop\n        /* \"Crowd.sol\":2192:2459  {... */\n      pop\n        /* \"Crowd.sol\":2143:2459  function voteRequest(uint _request) public ... */\n      pop\n      jump\t// out\n        /* \"Crowd.sol\":1283:1614  function refund() public payable... */\n    tag_57:\n        /* \"Crowd.sol\":1353:1359  target */\n      sload(0x02)\n        /* \"Crowd.sol\":1340:1352  raisedAmount */\n      sload(0x06)\n        /* \"Crowd.sol\":1340:1359  raisedAmount<target */\n      lt\n        /* \"Crowd.sol\":1340:1387  raisedAmount<target && block.timestamp>deadline */\n      dup1\n      iszero\n      tag_112\n      jumpi\n      pop\n        /* \"Crowd.sol\":1379:1387  deadline */\n      sload(0x04)\n        /* \"Crowd.sol\":1363:1378  block.timestamp */\n      timestamp\n        /* \"Crowd.sol\":1363:1387  block.timestamp>deadline */\n      gt\n        /* \"Crowd.sol\":1340:1387  raisedAmount<target && block.timestamp>deadline */\n    tag_112:\n        /* \"Crowd.sol\":1332:1388  require(raisedAmount<target && block.timestamp>deadline) */\n      tag_113\n      jumpi\n      0x00\n      dup1\n      revert\n    tag_113:\n        /* \"Crowd.sol\":1432:1433  0 */\n      0x00\n        /* \"Crowd.sol\":1407:1419  contributors */\n      dup1\n        /* \"Crowd.sol\":1407:1431  contributors[msg.sender] */\n      0x00\n        /* \"Crowd.sol\":1420:1430  msg.sender */\n      caller\n        /* \"Crowd.sol\":1407:1431  contributors[msg.sender] */\n      0xffffffffffffffffffffffffffffffffffffffff\n      and\n      0xffffffffffffffffffffffffffffffffffffffff\n      and\n      dup2\n      mstore\n      0x20\n      add\n      swap1\n      dup2\n      mstore\n      0x20\n      add\n      0x00\n      keccak256\n      sload\n        /* \"Crowd.sol\":1407:1433  contributors[msg.sender]<0 */\n      lt\n        /* \"Crowd.sol\":1399:1468  require(contributors[msg.sender]<0,\"You were Not elgible in Funding\") */\n      tag_114\n      jumpi\n      mload(0x40)\n      0x08c379a000000000000000000000000000000000000000000000000000000000\n      dup2\n      mstore\n      0x04\n      add\n      tag_115\n      swap1\n      tag_116\n      jump\t// in\n    tag_115:\n      mload(0x40)\n      dup1\n      swap2\n      sub\n      swap1\n      revert\n    tag_114:\n        /* \"Crowd.sol\":1479:1499  address payable user */\n      0x00\n        /* \"Crowd.sol\":1508:1518  msg.sender */\n      caller\n        /* \"Crowd.sol\":1479:1519  address payable user=payable(msg.sender) */\n      swap1\n      pop\n        /* \"Crowd.sol\":1530:1534  user */\n      dup1\n        /* \"Crowd.sol\":1530:1543  user.transfer */\n      0xffffffffffffffffffffffffffffffffffffffff\n      and\n        /* \"Crowd.sol\":1530:1569  user.transfer(contributors[msg.sender]) */\n      0x08fc\n        /* \"Crowd.sol\":1544:1556  contributors */\n      0x00\n        /* \"Crowd.sol\":1544:1568  contributors[msg.sender] */\n      dup1\n        /* \"Crowd.sol\":1557:1567  msg.sender */\n      caller\n        /* \"Crowd.sol\":1544:1568  contributors[msg.sender] */\n      0xffffffffffffffffffffffffffffffffffffffff\n      and\n      0xffffffffffffffffffffffffffffffffffffffff\n      and\n      dup2\n      mstore\n      0x20\n      add\n      swap1\n      dup2\n      mstore\n      0x20\n      add\n      0x00\n      keccak256\n      sload\n        /* \"Crowd.sol\":1530:1569  user.transfer(contributors[msg.sender]) */\n      swap1\n      dup2\n      iszero\n      mul\n      swap1\n      mload(0x40)\n      0x00\n      mload(0x40)\n      dup1\n      dup4\n      sub\n      dup2\n      dup6\n      dup9\n      dup9\n      call\n      swap4\n      pop\n      pop\n      pop\n      pop\n      iszero\n      dup1\n      iszero\n      tag_118\n      jumpi\n      returndatasize\n      0x00\n      dup1\n      returndatacopy\n      revert(0x00, returndatasize)\n    tag_118:\n      pop\n        /* \"Crowd.sol\":1605:1606  0 */\n      0x00\n        /* \"Crowd.sol\":1580:1592  contributors */\n      dup1\n        /* \"Crowd.sol\":1580:1604  contributors[msg.sender] */\n      0x00\n        /* \"Crowd.sol\":1593:1603  msg.sender */\n      caller\n        /* \"Crowd.sol\":1580:1604  contributors[msg.sender] */\n      0xffffffffffffffffffffffffffffffffffffffff\n      and\n      0xffffffffffffffffffffffffffffffffffffffff\n      and\n      dup2\n      mstore\n      0x20\n      add\n      swap1\n      dup2\n      mstore\n      0x20\n      add\n      0x00\n      keccak256\n        /* \"Crowd.sol\":1580:1606  contributors[msg.sender]=0 */\n      dup2\n      swap1\n      sstore\n      pop\n        /* \"Crowd.sol\":1321:1614  {... */\n      pop\n        /* \"Crowd.sol\":1283:1614  function refund() public payable... */\n      jump\t// out\n        /* \"Crowd.sol\":269:296  uint public noOfContributor */\n    tag_60:\n      sload(0x05)\n      dup2\n      jump\t// out\n        /* \"Crowd.sol\":2467:2858  function requestAccept(uint _request) public payable onlyManager... */\n    tag_64:\n        /* \"Crowd.sol\":1676:1683  manager */\n      0x01\n      0x00\n      swap1\n      sload\n      swap1\n      0x0100\n      exp\n      swap1\n      div\n      0xffffffffffffffffffffffffffffffffffffffff\n      and\n        /* \"Crowd.sol\":1664:1683  msg.sender==manager */\n      0xffffffffffffffffffffffffffffffffffffffff\n      and\n        /* \"Crowd.sol\":1664:1674  msg.sender */\n      caller\n        /* \"Crowd.sol\":1664:1683  msg.sender==manager */\n      0xffffffffffffffffffffffffffffffffffffffff\n      and\n      eq\n        /* \"Crowd.sol\":1655:1715  require (msg.sender==manager,\"Only can Access the Function\") */\n      tag_120\n      jumpi\n      mload(0x40)\n      0x08c379a000000000000000000000000000000000000000000000000000000000\n      dup2\n      mstore\n      0x04\n      add\n      tag_121\n      swap1\n      tag_100\n      jump\t// in\n    tag_121:\n      mload(0x40)\n      dup1\n      swap2\n      sub\n      swap1\n      revert\n    tag_120:\n        /* \"Crowd.sol\":2570:2576  target */\n      sload(0x02)\n        /* \"Crowd.sol\":2556:2568  raisedAmount */\n      sload(0x06)\n        /* \"Crowd.sol\":2556:2576  raisedAmount<=target */\n      gt\n      iszero\n        /* \"Crowd.sol\":2548:2577  require(raisedAmount<=target) */\n      tag_123\n      jumpi\n      0x00\n      dup1\n      revert\n    tag_123:\n        /* \"Crowd.sol\":2588:2615  Request storage thisRequest */\n      0x00\n        /* \"Crowd.sol\":2616:2623  request */\n      0x07\n        /* \"Crowd.sol\":2616:2633  request[_request] */\n      0x00\n        /* \"Crowd.sol\":2624:2632  _request */\n      dup4\n        /* \"Crowd.sol\":2616:2633  request[_request] */\n      dup2\n      mstore\n      0x20\n      add\n      swap1\n      dup2\n      mstore\n      0x20\n      add\n      0x00\n      keccak256\n        /* \"Crowd.sol\":2588:2633  Request storage thisRequest=request[_request] */\n      swap1\n      pop\n        /* \"Crowd.sol\":2674:2679  false */\n      0x00\n        /* \"Crowd.sol\":2652:2663  thisRequest */\n      dup2\n        /* \"Crowd.sol\":2652:2673  thisRequest.completed */\n      0x03\n      add\n      0x00\n        /* \"Crowd.sol\":2652:2679  thisRequest.completed=false */\n      0x0100\n      exp\n      dup2\n      sload\n      dup2\n      0xff\n      mul\n      not\n      and\n      swap1\n      dup4\n      iszero\n      iszero\n      mul\n      or\n      swap1\n      sstore\n        /* \"Crowd.sol\":2644:2699  require(thisRequest.completed=false,\"it has completed\") */\n      tag_124\n      jumpi\n      mload(0x40)\n      0x08c379a000000000000000000000000000000000000000000000000000000000\n      dup2\n      mstore\n      0x04\n      add\n      tag_125\n      swap1\n      tag_126\n      jump\t// in\n    tag_125:\n      mload(0x40)\n      dup1\n      swap2\n      sub\n      swap1\n      revert\n    tag_124:\n        /* \"Crowd.sol\":2757:2758  2 */\n      0x02\n        /* \"Crowd.sol\":2741:2756  noOfContributor */\n      sload(0x05)\n        /* \"Crowd.sol\":2741:2758  noOfContributor/2 */\n      tag_127\n      swap2\n      swap1\n      tag_128\n      jump\t// in\n    tag_127:\n        /* \"Crowd.sol\":2718:2729  thisRequest */\n      dup2\n        /* \"Crowd.sol\":2718:2740  thisRequest.noOfVoters */\n      0x04\n      add\n      sload\n        /* \"Crowd.sol\":2718:2758  thisRequest.noOfVoters>noOfContributor/2 */\n      gt\n        /* \"Crowd.sol\":2710:2787  require(thisRequest.noOfVoters>noOfContributor/2,\"Majority does not support\") */\n      tag_129\n      jumpi\n      mload(0x40)\n      0x08c379a000000000000000000000000000000000000000000000000000000000\n      dup2\n      mstore\n      0x04\n      add\n      tag_130\n      swap1\n      tag_131\n      jump\t// in\n    tag_130:\n      mload(0x40)\n      dup1\n      swap2\n      sub\n      swap1\n      revert\n    tag_129:\n        /* \"Crowd.sol\":2798:2809  thisRequest */\n      dup1\n        /* \"Crowd.sol\":2798:2818  thisRequest.recipant */\n      0x01\n      add\n      0x00\n      swap1\n      sload\n      swap1\n      0x0100\n      exp\n      swap1\n      div\n      0xffffffffffffffffffffffffffffffffffffffff\n      and\n        /* \"Crowd.sol\":2798:2827  thisRequest.recipant.transfer */\n      0xffffffffffffffffffffffffffffffffffffffff\n      and\n        /* \"Crowd.sol\":2798:2846  thisRequest.recipant.transfer(thisRequest.value) */\n      0x08fc\n        /* \"Crowd.sol\":2828:2839  thisRequest */\n      dup3\n        /* \"Crowd.sol\":2828:2845  thisRequest.value */\n      0x02\n      add\n      sload\n        /* \"Crowd.sol\":2798:2846  thisRequest.recipant.transfer(thisRequest.value) */\n      swap1\n      dup2\n      iszero\n      mul\n      swap1\n      mload(0x40)\n      0x00\n      mload(0x40)\n      dup1\n      dup4\n      sub\n      dup2\n      dup6\n      dup9\n      dup9\n      call\n      swap4\n      pop\n      pop\n      pop\n      pop\n      iszero\n      dup1\n      iszero\n      tag_133\n      jumpi\n      returndatasize\n      0x00\n      dup1\n      returndatacopy\n      revert(0x00, returndatasize)\n    tag_133:\n      pop\n        /* \"Crowd.sol\":2537:2858  {... */\n      pop\n        /* \"Crowd.sol\":2467:2858  function requestAccept(uint _request) public payable onlyManager... */\n      pop\n      jump\t// out\n        /* \"Crowd.sol\":589:611  uint public numRequest */\n    tag_67:\n      sload(0x08)\n      dup2\n      jump\t// out\n        /* \"Crowd.sol\":303:327  uint public raisedAmount */\n    tag_71:\n      sload(0x06)\n      dup2\n      jump\t// out\n        /* \"Crowd.sol\":182:200  uint public target */\n    tag_75:\n      sload(0x02)\n      dup2\n      jump\t// out\n        /* \"Crowd.sol\":545:582  mapping(uint=>Request) public request */\n    tag_80:\n      mstore(0x20, 0x07)\n      dup1\n      0x00\n      mstore\n      keccak256(0x00, 0x40)\n      0x00\n      swap2\n      pop\n      swap1\n      pop\n      dup1\n      0x00\n      add\n      dup1\n      sload\n      tag_134\n      swap1\n      tag_135\n      jump\t// in\n    tag_134:\n      dup1\n      0x1f\n      add\n      0x20\n      dup1\n      swap2\n      div\n      mul\n      0x20\n      add\n      mload(0x40)\n      swap1\n      dup2\n      add\n      0x40\n      mstore\n      dup1\n      swap3\n      swap2\n      swap1\n      dup2\n      dup2\n      mstore\n      0x20\n      add\n      dup3\n      dup1\n      sload\n      tag_136\n      swap1\n      tag_135\n      jump\t// in\n    tag_136:\n      dup1\n      iszero\n      tag_137\n      jumpi\n      dup1\n      0x1f\n      lt\n      tag_138\n      jumpi\n      0x0100\n      dup1\n      dup4\n      sload\n      div\n      mul\n      dup4\n      mstore\n      swap2\n      0x20\n      add\n      swap2\n      jump(tag_137)\n    tag_138:\n      dup3\n      add\n      swap2\n      swap1\n      0x00\n      mstore\n      keccak256(0x00, 0x20)\n      swap1\n    tag_139:\n      dup2\n      sload\n      dup2\n      mstore\n      swap1\n      0x01\n      add\n      swap1\n      0x20\n      add\n      dup1\n      dup4\n      gt\n      tag_139\n      jumpi\n      dup3\n      swap1\n      sub\n      0x1f\n      and\n      dup3\n      add\n      swap2\n    tag_137:\n      pop\n      pop\n      pop\n      pop\n      pop\n      swap1\n      dup1\n      0x01\n      add\n      0x00\n      swap1\n      sload\n      swap1\n      0x0100\n      exp\n      swap1\n      div\n      0xffffffffffffffffffffffffffffffffffffffff\n      and\n      swap1\n      dup1\n      0x02\n      add\n      sload\n      swap1\n      dup1\n      0x03\n      add\n      0x00\n      swap1\n      sload\n      swap1\n      0x0100\n      exp\n      swap1\n      div\n      0xff\n      and\n      swap1\n      dup1\n      0x04\n      add\n      sload\n      swap1\n      pop\n      dup6\n      jump\t// out\n        /* \"#utility.yul\":7:84   */\n    tag_140:\n        /* \"#utility.yul\":44:51   */\n      0x00\n        /* \"#utility.yul\":73:78   */\n      dup2\n        /* \"#utility.yul\":62:78   */\n      swap1\n      pop\n        /* \"#utility.yul\":7:84   */\n      swap2\n      swap1\n      pop\n      jump\t// out\n        /* \"#utility.yul\":90:208   */\n    tag_141:\n        /* \"#utility.yul\":177:201   */\n      tag_207\n        /* \"#utility.yul\":195:200   */\n      dup2\n        /* \"#utility.yul\":177:201   */\n      tag_140\n      jump\t// in\n    tag_207:\n        /* \"#utility.yul\":172:175   */\n      dup3\n        /* \"#utility.yul\":165:202   */\n      mstore\n        /* \"#utility.yul\":90:208   */\n      pop\n      pop\n      jump\t// out\n        /* \"#utility.yul\":214:436   */\n    tag_24:\n        /* \"#utility.yul\":307:311   */\n      0x00\n        /* \"#utility.yul\":345:347   */\n      0x20\n        /* \"#utility.yul\":334:343   */\n      dup3\n        /* \"#utility.yul\":330:348   */\n      add\n        /* \"#utility.yul\":322:348   */\n      swap1\n      pop\n        /* \"#utility.yul\":358:429   */\n      tag_209\n        /* \"#utility.yul\":426:427   */\n      0x00\n        /* \"#utility.yul\":415:424   */\n      dup4\n        /* \"#utility.yul\":411:428   */\n      add\n        /* \"#utility.yul\":402:408   */\n      dup5\n        /* \"#utility.yul\":358:429   */\n      tag_141\n      jump\t// in\n    tag_209:\n        /* \"#utility.yul\":214:436   */\n      swap3\n      swap2\n      pop\n      pop\n      jump\t// out\n        /* \"#utility.yul\":442:517   */\n    tag_142:\n        /* \"#utility.yul\":475:481   */\n      0x00\n        /* \"#utility.yul\":508:510   */\n      0x40\n        /* \"#utility.yul\":502:511   */\n      mload\n        /* \"#utility.yul\":492:511   */\n      swap1\n      pop\n        /* \"#utility.yul\":442:517   */\n      swap1\n      jump\t// out\n        /* \"#utility.yul\":523:640   */\n    tag_143:\n        /* \"#utility.yul\":632:633   */\n      0x00\n        /* \"#utility.yul\":629:630   */\n      dup1\n        /* \"#utility.yul\":622:634   */\n      revert\n        /* \"#utility.yul\":646:763   */\n    tag_144:\n        /* \"#utility.yul\":755:756   */\n      0x00\n        /* \"#utility.yul\":752:753   */\n      dup1\n        /* \"#utility.yul\":745:757   */\n      revert\n        /* \"#utility.yul\":769:886   */\n    tag_145:\n        /* \"#utility.yul\":878:879   */\n      0x00\n        /* \"#utility.yul\":875:876   */\n      dup1\n        /* \"#utility.yul\":868:880   */\n      revert\n        /* \"#utility.yul\":892:1009   */\n    tag_146:\n        /* \"#utility.yul\":1001:1002   */\n      0x00\n        /* \"#utility.yul\":998:999   */\n      dup1\n        /* \"#utility.yul\":991:1003   */\n      revert\n        /* \"#utility.yul\":1015:1117   */\n    tag_147:\n        /* \"#utility.yul\":1056:1062   */\n      0x00\n        /* \"#utility.yul\":1107:1109   */\n      0x1f\n        /* \"#utility.yul\":1103:1110   */\n      not\n        /* \"#utility.yul\":1098:1100   */\n      0x1f\n        /* \"#utility.yul\":1091:1096   */\n      dup4\n        /* \"#utility.yul\":1087:1101   */\n      add\n        /* \"#utility.yul\":1083:1111   */\n      and\n        /* \"#utility.yul\":1073:1111   */\n      swap1\n      pop\n        /* \"#utility.yul\":1015:1117   */\n      swap2\n      swap1\n      pop\n      jump\t// out\n        /* \"#utility.yul\":1123:1303   */\n    tag_148:\n        /* \"#utility.yul\":1171:1248   */\n      0x4e487b7100000000000000000000000000000000000000000000000000000000\n        /* \"#utility.yul\":1168:1169   */\n      0x00\n        /* \"#utility.yul\":1161:1249   */\n      mstore\n        /* \"#utility.yul\":1268:1272   */\n      0x41\n        /* \"#utility.yul\":1265:1266   */\n      0x04\n        /* \"#utility.yul\":1258:1273   */\n      mstore\n        /* \"#utility.yul\":1292:1296   */\n      0x24\n        /* \"#utility.yul\":1289:1290   */\n      0x00\n        /* \"#utility.yul\":1282:1297   */\n      revert\n        /* \"#utility.yul\":1309:1590   */\n    tag_149:\n        /* \"#utility.yul\":1392:1419   */\n      tag_218\n        /* \"#utility.yul\":1414:1418   */\n      dup3\n        /* \"#utility.yul\":1392:1419   */\n      tag_147\n      jump\t// in\n    tag_218:\n        /* \"#utility.yul\":1384:1390   */\n      dup2\n        /* \"#utility.yul\":1380:1420   */\n      add\n        /* \"#utility.yul\":1522:1528   */\n      dup2\n        /* \"#utility.yul\":1510:1520   */\n      dup2\n        /* \"#utility.yul\":1507:1529   */\n      lt\n        /* \"#utility.yul\":1486:1504   */\n      0xffffffffffffffff\n        /* \"#utility.yul\":1474:1484   */\n      dup3\n        /* \"#utility.yul\":1471:1505   */\n      gt\n        /* \"#utility.yul\":1468:1530   */\n      or\n        /* \"#utility.yul\":1465:1553   */\n      iszero\n      tag_219\n      jumpi\n        /* \"#utility.yul\":1533:1551   */\n      tag_220\n      tag_148\n      jump\t// in\n    tag_220:\n        /* \"#utility.yul\":1465:1553   */\n    tag_219:\n        /* \"#utility.yul\":1573:1583   */\n      dup1\n        /* \"#utility.yul\":1569:1571   */\n      0x40\n        /* \"#utility.yul\":1562:1584   */\n      mstore\n        /* \"#utility.yul\":1352:1590   */\n      pop\n        /* \"#utility.yul\":1309:1590   */\n      pop\n      pop\n      jump\t// out\n        /* \"#utility.yul\":1596:1725   */\n    tag_150:\n        /* \"#utility.yul\":1630:1636   */\n      0x00\n        /* \"#utility.yul\":1657:1677   */\n      tag_222\n      tag_142\n      jump\t// in\n    tag_222:\n        /* \"#utility.yul\":1647:1677   */\n      swap1\n      pop\n        /* \"#utility.yul\":1686:1719   */\n      tag_223\n        /* \"#utility.yul\":1714:1718   */\n      dup3\n        /* \"#utility.yul\":1706:1712   */\n      dup3\n        /* \"#utility.yul\":1686:1719   */\n      tag_149\n      jump\t// in\n    tag_223:\n        /* \"#utility.yul\":1596:1725   */\n      swap2\n      swap1\n      pop\n      jump\t// out\n        /* \"#utility.yul\":1731:2039   */\n    tag_151:\n        /* \"#utility.yul\":1793:1797   */\n      0x00\n        /* \"#utility.yul\":1883:1901   */\n      0xffffffffffffffff\n        /* \"#utility.yul\":1875:1881   */\n      dup3\n        /* \"#utility.yul\":1872:1902   */\n      gt\n        /* \"#utility.yul\":1869:1925   */\n      iszero\n      tag_225\n      jumpi\n        /* \"#utility.yul\":1905:1923   */\n      tag_226\n      tag_148\n      jump\t// in\n    tag_226:\n        /* \"#utility.yul\":1869:1925   */\n    tag_225:\n        /* \"#utility.yul\":1943:1972   */\n      tag_227\n        /* \"#utility.yul\":1965:1971   */\n      dup3\n        /* \"#utility.yul\":1943:1972   */\n      tag_147\n      jump\t// in\n    tag_227:\n        /* \"#utility.yul\":1935:1972   */\n      swap1\n      pop\n        /* \"#utility.yul\":2027:2031   */\n      0x20\n        /* \"#utility.yul\":2021:2025   */\n      dup2\n        /* \"#utility.yul\":2017:2032   */\n      add\n        /* \"#utility.yul\":2009:2032   */\n      swap1\n      pop\n        /* \"#utility.yul\":1731:2039   */\n      swap2\n      swap1\n      pop\n      jump\t// out\n        /* \"#utility.yul\":2045:2191   */\n    tag_152:\n        /* \"#utility.yul\":2142:2148   */\n      dup3\n        /* \"#utility.yul\":2137:2140   */\n      dup2\n        /* \"#utility.yul\":2132:2135   */\n      dup4\n        /* \"#utility.yul\":2119:2149   */\n      calldatacopy\n        /* \"#utility.yul\":2183:2184   */\n      0x00\n        /* \"#utility.yul\":2174:2180   */\n      dup4\n        /* \"#utility.yul\":2169:2172   */\n      dup4\n        /* \"#utility.yul\":2165:2181   */\n      add\n        /* \"#utility.yul\":2158:2185   */\n      mstore\n        /* \"#utility.yul\":2045:2191   */\n      pop\n      pop\n      pop\n      jump\t// out\n        /* \"#utility.yul\":2197:2622   */\n    tag_153:\n        /* \"#utility.yul\":2275:2280   */\n      0x00\n        /* \"#utility.yul\":2300:2366   */\n      tag_230\n        /* \"#utility.yul\":2316:2365   */\n      tag_231\n        /* \"#utility.yul\":2358:2364   */\n      dup5\n        /* \"#utility.yul\":2316:2365   */\n      tag_151\n      jump\t// in\n    tag_231:\n        /* \"#utility.yul\":2300:2366   */\n      tag_150\n      jump\t// in\n    tag_230:\n        /* \"#utility.yul\":2291:2366   */\n      swap1\n      pop\n        /* \"#utility.yul\":2389:2395   */\n      dup3\n        /* \"#utility.yul\":2382:2387   */\n      dup2\n        /* \"#utility.yul\":2375:2396   */\n      mstore\n        /* \"#utility.yul\":2427:2431   */\n      0x20\n        /* \"#utility.yul\":2420:2425   */\n      dup2\n        /* \"#utility.yul\":2416:2432   */\n      add\n        /* \"#utility.yul\":2465:2468   */\n      dup5\n        /* \"#utility.yul\":2456:2462   */\n      dup5\n        /* \"#utility.yul\":2451:2454   */\n      dup5\n        /* \"#utility.yul\":2447:2463   */\n      add\n        /* \"#utility.yul\":2444:2469   */\n      gt\n        /* \"#utility.yul\":2441:2553   */\n      iszero\n      tag_232\n      jumpi\n        /* \"#utility.yul\":2472:2551   */\n      tag_233\n      tag_146\n      jump\t// in\n    tag_233:\n        /* \"#utility.yul\":2441:2553   */\n    tag_232:\n        /* \"#utility.yul\":2562:2616   */\n      tag_234\n        /* \"#utility.yul\":2609:2615   */\n      dup5\n        /* \"#utility.yul\":2604:2607   */\n      dup3\n        /* \"#utility.yul\":2599:2602   */\n      dup6\n        /* \"#utility.yul\":2562:2616   */\n      tag_152\n      jump\t// in\n    tag_234:\n        /* \"#utility.yul\":2281:2622   */\n      pop\n        /* \"#utility.yul\":2197:2622   */\n      swap4\n      swap3\n      pop\n      pop\n      pop\n      jump\t// out\n        /* \"#utility.yul\":2642:2982   */\n    tag_154:\n        /* \"#utility.yul\":2698:2703   */\n      0x00\n        /* \"#utility.yul\":2747:2750   */\n      dup3\n        /* \"#utility.yul\":2740:2744   */\n      0x1f\n        /* \"#utility.yul\":2732:2738   */\n      dup4\n        /* \"#utility.yul\":2728:2745   */\n      add\n        /* \"#utility.yul\":2724:2751   */\n      slt\n        /* \"#utility.yul\":2714:2836   */\n      tag_236\n      jumpi\n        /* \"#utility.yul\":2755:2834   */\n      tag_237\n      tag_145\n      jump\t// in\n    tag_237:\n        /* \"#utility.yul\":2714:2836   */\n    tag_236:\n        /* \"#utility.yul\":2872:2878   */\n      dup2\n        /* \"#utility.yul\":2859:2879   */\n      calldataload\n        /* \"#utility.yul\":2897:2976   */\n      tag_238\n        /* \"#utility.yul\":2972:2975   */\n      dup5\n        /* \"#utility.yul\":2964:2970   */\n      dup3\n        /* \"#utility.yul\":2957:2961   */\n      0x20\n        /* \"#utility.yul\":2949:2955   */\n      dup7\n        /* \"#utility.yul\":2945:2962   */\n      add\n        /* \"#utility.yul\":2897:2976   */\n      tag_153\n      jump\t// in\n    tag_238:\n        /* \"#utility.yul\":2888:2976   */\n      swap2\n      pop\n        /* \"#utility.yul\":2704:2982   */\n      pop\n        /* \"#utility.yul\":2642:2982   */\n      swap3\n      swap2\n      pop\n      pop\n      jump\t// out\n        /* \"#utility.yul\":2988:3114   */\n    tag_155:\n        /* \"#utility.yul\":3025:3032   */\n      0x00\n        /* \"#utility.yul\":3065:3107   */\n      0xffffffffffffffffffffffffffffffffffffffff\n        /* \"#utility.yul\":3058:3063   */\n      dup3\n        /* \"#utility.yul\":3054:3108   */\n      and\n        /* \"#utility.yul\":3043:3108   */\n      swap1\n      pop\n        /* \"#utility.yul\":2988:3114   */\n      swap2\n      swap1\n      pop\n      jump\t// out\n        /* \"#utility.yul\":3120:3224   */\n    tag_156:\n        /* \"#utility.yul\":3165:3172   */\n      0x00\n        /* \"#utility.yul\":3194:3218   */\n      tag_241\n        /* \"#utility.yul\":3212:3217   */\n      dup3\n        /* \"#utility.yul\":3194:3218   */\n      tag_155\n      jump\t// in\n    tag_241:\n        /* \"#utility.yul\":3183:3218   */\n      swap1\n      pop\n        /* \"#utility.yul\":3120:3224   */\n      swap2\n      swap1\n      pop\n      jump\t// out\n        /* \"#utility.yul\":3230:3368   */\n    tag_157:\n        /* \"#utility.yul\":3311:3343   */\n      tag_243\n        /* \"#utility.yul\":3337:3342   */\n      dup2\n        /* \"#utility.yul\":3311:3343   */\n      tag_156\n      jump\t// in\n    tag_243:\n        /* \"#utility.yul\":3304:3309   */\n      dup2\n        /* \"#utility.yul\":3301:3344   */\n      eq\n        /* \"#utility.yul\":3291:3362   */\n      tag_244\n      jumpi\n        /* \"#utility.yul\":3358:3359   */\n      0x00\n        /* \"#utility.yul\":3355:3356   */\n      dup1\n        /* \"#utility.yul\":3348:3360   */\n      revert\n        /* \"#utility.yul\":3291:3362   */\n    tag_244:\n        /* \"#utility.yul\":3230:3368   */\n      pop\n      jump\t// out\n        /* \"#utility.yul\":3374:3529   */\n    tag_158:\n        /* \"#utility.yul\":3428:3433   */\n      0x00\n        /* \"#utility.yul\":3466:3472   */\n      dup2\n        /* \"#utility.yul\":3453:3473   */\n      calldataload\n        /* \"#utility.yul\":3444:3473   */\n      swap1\n      pop\n        /* \"#utility.yul\":3482:3523   */\n      tag_246\n        /* \"#utility.yul\":3517:3522   */\n      dup2\n        /* \"#utility.yul\":3482:3523   */\n      tag_157\n      jump\t// in\n    tag_246:\n        /* \"#utility.yul\":3374:3529   */\n      swap3\n      swap2\n      pop\n      pop\n      jump\t// out\n        /* \"#utility.yul\":3535:3657   */\n    tag_159:\n        /* \"#utility.yul\":3608:3632   */\n      tag_248\n        /* \"#utility.yul\":3626:3631   */\n      dup2\n        /* \"#utility.yul\":3608:3632   */\n      tag_140\n      jump\t// in\n    tag_248:\n        /* \"#utility.yul\":3601:3606   */\n      dup2\n        /* \"#utility.yul\":3598:3633   */\n      eq\n        /* \"#utility.yul\":3588:3651   */\n      tag_249\n      jumpi\n        /* \"#utility.yul\":3647:3648   */\n      0x00\n        /* \"#utility.yul\":3644:3645   */\n      dup1\n        /* \"#utility.yul\":3637:3649   */\n      revert\n        /* \"#utility.yul\":3588:3651   */\n    tag_249:\n        /* \"#utility.yul\":3535:3657   */\n      pop\n      jump\t// out\n        /* \"#utility.yul\":3663:3802   */\n    tag_160:\n        /* \"#utility.yul\":3709:3714   */\n      0x00\n        /* \"#utility.yul\":3747:3753   */\n      dup2\n        /* \"#utility.yul\":3734:3754   */\n      calldataload\n        /* \"#utility.yul\":3725:3754   */\n      swap1\n      pop\n        /* \"#utility.yul\":3763:3796   */\n      tag_251\n        /* \"#utility.yul\":3790:3795   */\n      dup2\n        /* \"#utility.yul\":3763:3796   */\n      tag_159\n      jump\t// in\n    tag_251:\n        /* \"#utility.yul\":3663:3802   */\n      swap3\n      swap2\n      pop\n      pop\n      jump\t// out\n        /* \"#utility.yul\":3808:4623   */\n    tag_34:\n        /* \"#utility.yul\":3903:3909   */\n      0x00\n        /* \"#utility.yul\":3911:3917   */\n      dup1\n        /* \"#utility.yul\":3919:3925   */\n      0x00\n        /* \"#utility.yul\":3968:3970   */\n      0x60\n        /* \"#utility.yul\":3956:3965   */\n      dup5\n        /* \"#utility.yul\":3947:3954   */\n      dup7\n        /* \"#utility.yul\":3943:3966   */\n      sub\n        /* \"#utility.yul\":3939:3971   */\n      slt\n        /* \"#utility.yul\":3936:4055   */\n      iszero\n      tag_253\n      jumpi\n        /* \"#utility.yul\":3974:4053   */\n      tag_254\n      tag_143\n      jump\t// in\n    tag_254:\n        /* \"#utility.yul\":3936:4055   */\n    tag_253:\n        /* \"#utility.yul\":4122:4123   */\n      0x00\n        /* \"#utility.yul\":4111:4120   */\n      dup5\n        /* \"#utility.yul\":4107:4124   */\n      add\n        /* \"#utility.yul\":4094:4125   */\n      calldataload\n        /* \"#utility.yul\":4152:4170   */\n      0xffffffffffffffff\n        /* \"#utility.yul\":4144:4150   */\n      dup2\n        /* \"#utility.yul\":4141:4171   */\n      gt\n        /* \"#utility.yul\":4138:4255   */\n      iszero\n      tag_255\n      jumpi\n        /* \"#utility.yul\":4174:4253   */\n      tag_256\n      tag_144\n      jump\t// in\n    tag_256:\n        /* \"#utility.yul\":4138:4255   */\n    tag_255:\n        /* \"#utility.yul\":4279:4342   */\n      tag_257\n        /* \"#utility.yul\":4334:4341   */\n      dup7\n        /* \"#utility.yul\":4325:4331   */\n      dup3\n        /* \"#utility.yul\":4314:4323   */\n      dup8\n        /* \"#utility.yul\":4310:4332   */\n      add\n        /* \"#utility.yul\":4279:4342   */\n      tag_154\n      jump\t// in\n    tag_257:\n        /* \"#utility.yul\":4269:4342   */\n      swap4\n      pop\n        /* \"#utility.yul\":4065:4352   */\n      pop\n        /* \"#utility.yul\":4391:4393   */\n      0x20\n        /* \"#utility.yul\":4417:4478   */\n      tag_258\n        /* \"#utility.yul\":4470:4477   */\n      dup7\n        /* \"#utility.yul\":4461:4467   */\n      dup3\n        /* \"#utility.yul\":4450:4459   */\n      dup8\n        /* \"#utility.yul\":4446:4468   */\n      add\n        /* \"#utility.yul\":4417:4478   */\n      tag_158\n      jump\t// in\n    tag_258:\n        /* \"#utility.yul\":4407:4478   */\n      swap3\n      pop\n        /* \"#utility.yul\":4362:4488   */\n      pop\n        /* \"#utility.yul\":4527:4529   */\n      0x40\n        /* \"#utility.yul\":4553:4606   */\n      tag_259\n        /* \"#utility.yul\":4598:4605   */\n      dup7\n        /* \"#utility.yul\":4589:4595   */\n      dup3\n        /* \"#utility.yul\":4578:4587   */\n      dup8\n        /* \"#utility.yul\":4574:4596   */\n      add\n        /* \"#utility.yul\":4553:4606   */\n      tag_160\n      jump\t// in\n    tag_259:\n        /* \"#utility.yul\":4543:4606   */\n      swap2\n      pop\n        /* \"#utility.yul\":4498:4616   */\n      pop\n        /* \"#utility.yul\":3808:4623   */\n      swap3\n      pop\n      swap3\n      pop\n      swap3\n      jump\t// out\n        /* \"#utility.yul\":4629:4725   */\n    tag_161:\n        /* \"#utility.yul\":4666:4673   */\n      0x00\n        /* \"#utility.yul\":4695:4719   */\n      tag_261\n        /* \"#utility.yul\":4713:4718   */\n      dup3\n        /* \"#utility.yul\":4695:4719   */\n      tag_155\n      jump\t// in\n    tag_261:\n        /* \"#utility.yul\":4684:4719   */\n      swap1\n      pop\n        /* \"#utility.yul\":4629:4725   */\n      swap2\n      swap1\n      pop\n      jump\t// out\n        /* \"#utility.yul\":4731:4853   */\n    tag_162:\n        /* \"#utility.yul\":4804:4828   */\n      tag_263\n        /* \"#utility.yul\":4822:4827   */\n      dup2\n        /* \"#utility.yul\":4804:4828   */\n      tag_161\n      jump\t// in\n    tag_263:\n        /* \"#utility.yul\":4797:4802   */\n      dup2\n        /* \"#utility.yul\":4794:4829   */\n      eq\n        /* \"#utility.yul\":4784:4847   */\n      tag_264\n      jumpi\n        /* \"#utility.yul\":4843:4844   */\n      0x00\n        /* \"#utility.yul\":4840:4841   */\n      dup1\n        /* \"#utility.yul\":4833:4845   */\n      revert\n        /* \"#utility.yul\":4784:4847   */\n    tag_264:\n        /* \"#utility.yul\":4731:4853   */\n      pop\n      jump\t// out\n        /* \"#utility.yul\":4859:4998   */\n    tag_163:\n        /* \"#utility.yul\":4905:4910   */\n      0x00\n        /* \"#utility.yul\":4943:4949   */\n      dup2\n        /* \"#utility.yul\":4930:4950   */\n      calldataload\n        /* \"#utility.yul\":4921:4950   */\n      swap1\n      pop\n        /* \"#utility.yul\":4959:4992   */\n      tag_266\n        /* \"#utility.yul\":4986:4991   */\n      dup2\n        /* \"#utility.yul\":4959:4992   */\n      tag_162\n      jump\t// in\n    tag_266:\n        /* \"#utility.yul\":4859:4998   */\n      swap3\n      swap2\n      pop\n      pop\n      jump\t// out\n        /* \"#utility.yul\":5004:5333   */\n    tag_39:\n        /* \"#utility.yul\":5063:5069   */\n      0x00\n        /* \"#utility.yul\":5112:5114   */\n      0x20\n        /* \"#utility.yul\":5100:5109   */\n      dup3\n        /* \"#utility.yul\":5091:5098   */\n      dup5\n        /* \"#utility.yul\":5087:5110   */\n      sub\n        /* \"#utility.yul\":5083:5115   */\n      slt\n        /* \"#utility.yul\":5080:5199   */\n      iszero\n      tag_268\n      jumpi\n        /* \"#utility.yul\":5118:5197   */\n      tag_269\n      tag_143\n      jump\t// in\n    tag_269:\n        /* \"#utility.yul\":5080:5199   */\n    tag_268:\n        /* \"#utility.yul\":5238:5239   */\n      0x00\n        /* \"#utility.yul\":5263:5316   */\n      tag_270\n        /* \"#utility.yul\":5308:5315   */\n      dup5\n        /* \"#utility.yul\":5299:5305   */\n      dup3\n        /* \"#utility.yul\":5288:5297   */\n      dup6\n        /* \"#utility.yul\":5284:5306   */\n      add\n        /* \"#utility.yul\":5263:5316   */\n      tag_163\n      jump\t// in\n    tag_270:\n        /* \"#utility.yul\":5253:5316   */\n      swap2\n      pop\n        /* \"#utility.yul\":5209:5326   */\n      pop\n        /* \"#utility.yul\":5004:5333   */\n      swap3\n      swap2\n      pop\n      pop\n      jump\t// out\n        /* \"#utility.yul\":5339:5457   */\n    tag_164:\n        /* \"#utility.yul\":5426:5450   */\n      tag_272\n        /* \"#utility.yul\":5444:5449   */\n      dup2\n        /* \"#utility.yul\":5426:5450   */\n      tag_161\n      jump\t// in\n    tag_272:\n        /* \"#utility.yul\":5421:5424   */\n      dup3\n        /* \"#utility.yul\":5414:5451   */\n      mstore\n        /* \"#utility.yul\":5339:5457   */\n      pop\n      pop\n      jump\t// out\n        /* \"#utility.yul\":5463:5685   */\n    tag_50:\n        /* \"#utility.yul\":5556:5560   */\n      0x00\n        /* \"#utility.yul\":5594:5596   */\n      0x20\n        /* \"#utility.yul\":5583:5592   */\n      dup3\n        /* \"#utility.yul\":5579:5597   */\n      add\n        /* \"#utility.yul\":5571:5597   */\n      swap1\n      pop\n        /* \"#utility.yul\":5607:5678   */\n      tag_274\n        /* \"#utility.yul\":5675:5676   */\n      0x00\n        /* \"#utility.yul\":5664:5673   */\n      dup4\n        /* \"#utility.yul\":5660:5677   */\n      add\n        /* \"#utility.yul\":5651:5657   */\n      dup5\n        /* \"#utility.yul\":5607:5678   */\n      tag_164\n      jump\t// in\n    tag_274:\n        /* \"#utility.yul\":5463:5685   */\n      swap3\n      swap2\n      pop\n      pop\n      jump\t// out\n        /* \"#utility.yul\":5691:6020   */\n    tag_54:\n        /* \"#utility.yul\":5750:5756   */\n      0x00\n        /* \"#utility.yul\":5799:5801   */\n      0x20\n        /* \"#utility.yul\":5787:5796   */\n      dup3\n        /* \"#utility.yul\":5778:5785   */\n      dup5\n        /* \"#utility.yul\":5774:5797   */\n      sub\n        /* \"#utility.yul\":5770:5802   */\n      slt\n        /* \"#utility.yul\":5767:5886   */\n      iszero\n      tag_276\n      jumpi\n        /* \"#utility.yul\":5805:5884   */\n      tag_277\n      tag_143\n      jump\t// in\n    tag_277:\n        /* \"#utility.yul\":5767:5886   */\n    tag_276:\n        /* \"#utility.yul\":5925:5926   */\n      0x00\n        /* \"#utility.yul\":5950:6003   */\n      tag_278\n        /* \"#utility.yul\":5995:6002   */\n      dup5\n        /* \"#utility.yul\":5986:5992   */\n      dup3\n        /* \"#utility.yul\":5975:5984   */\n      dup6\n        /* \"#utility.yul\":5971:5993   */\n      add\n        /* \"#utility.yul\":5950:6003   */\n      tag_160\n      jump\t// in\n    tag_278:\n        /* \"#utility.yul\":5940:6003   */\n      swap2\n      pop\n        /* \"#utility.yul\":5896:6013   */\n      pop\n        /* \"#utility.yul\":5691:6020   */\n      swap3\n      swap2\n      pop\n      pop\n      jump\t// out\n        /* \"#utility.yul\":6026:6125   */\n    tag_165:\n        /* \"#utility.yul\":6078:6084   */\n      0x00\n        /* \"#utility.yul\":6112:6117   */\n      dup2\n        /* \"#utility.yul\":6106:6118   */\n      mload\n        /* \"#utility.yul\":6096:6118   */\n      swap1\n      pop\n        /* \"#utility.yul\":6026:6125   */\n      swap2\n      swap1\n      pop\n      jump\t// out\n        /* \"#utility.yul\":6131:6300   */\n    tag_166:\n        /* \"#utility.yul\":6215:6226   */\n      0x00\n        /* \"#utility.yul\":6249:6255   */\n      dup3\n        /* \"#utility.yul\":6244:6247   */\n      dup3\n        /* \"#utility.yul\":6237:6256   */\n      mstore\n        /* \"#utility.yul\":6289:6293   */\n      0x20\n        /* \"#utility.yul\":6284:6287   */\n      dup3\n        /* \"#utility.yul\":6280:6294   */\n      add\n        /* \"#utility.yul\":6265:6294   */\n      swap1\n      pop\n        /* \"#utility.yul\":6131:6300   */\n      swap3\n      swap2\n      pop\n      pop\n      jump\t// out\n        /* \"#utility.yul\":6306:6552   */\n    tag_167:\n        /* \"#utility.yul\":6387:6388   */\n      0x00\n        /* \"#utility.yul\":6397:6510   */\n    tag_282:\n        /* \"#utility.yul\":6411:6417   */\n      dup4\n        /* \"#utility.yul\":6408:6409   */\n      dup2\n        /* \"#utility.yul\":6405:6418   */\n      lt\n        /* \"#utility.yul\":6397:6510   */\n      iszero\n      tag_284\n      jumpi\n        /* \"#utility.yul\":6496:6497   */\n      dup1\n        /* \"#utility.yul\":6491:6494   */\n      dup3\n        /* \"#utility.yul\":6487:6498   */\n      add\n        /* \"#utility.yul\":6481:6499   */\n      mload\n        /* \"#utility.yul\":6477:6478   */\n      dup2\n        /* \"#utility.yul\":6472:6475   */\n      dup5\n        /* \"#utility.yul\":6468:6479   */\n      add\n        /* \"#utility.yul\":6461:6500   */\n      mstore\n        /* \"#utility.yul\":6433:6435   */\n      0x20\n        /* \"#utility.yul\":6430:6431   */\n      dup2\n        /* \"#utility.yul\":6426:6436   */\n      add\n        /* \"#utility.yul\":6421:6436   */\n      swap1\n      pop\n        /* \"#utility.yul\":6397:6510   */\n      jump(tag_282)\n    tag_284:\n        /* \"#utility.yul\":6544:6545   */\n      0x00\n        /* \"#utility.yul\":6535:6541   */\n      dup5\n        /* \"#utility.yul\":6530:6533   */\n      dup5\n        /* \"#utility.yul\":6526:6542   */\n      add\n        /* \"#utility.yul\":6519:6546   */\n      mstore\n        /* \"#utility.yul\":6368:6552   */\n      pop\n        /* \"#utility.yul\":6306:6552   */\n      pop\n      pop\n      pop\n      jump\t// out\n        /* \"#utility.yul\":6558:6935   */\n    tag_168:\n        /* \"#utility.yul\":6646:6649   */\n      0x00\n        /* \"#utility.yul\":6674:6713   */\n      tag_286\n        /* \"#utility.yul\":6707:6712   */\n      dup3\n        /* \"#utility.yul\":6674:6713   */\n      tag_165\n      jump\t// in\n    tag_286:\n        /* \"#utility.yul\":6729:6800   */\n      tag_287\n        /* \"#utility.yul\":6793:6799   */\n      dup2\n        /* \"#utility.yul\":6788:6791   */\n      dup6\n        /* \"#utility.yul\":6729:6800   */\n      tag_166\n      jump\t// in\n    tag_287:\n        /* \"#utility.yul\":6722:6800   */\n      swap4\n      pop\n        /* \"#utility.yul\":6809:6874   */\n      tag_288\n        /* \"#utility.yul\":6867:6873   */\n      dup2\n        /* \"#utility.yul\":6862:6865   */\n      dup6\n        /* \"#utility.yul\":6855:6859   */\n      0x20\n        /* \"#utility.yul\":6848:6853   */\n      dup7\n        /* \"#utility.yul\":6844:6860   */\n      add\n        /* \"#utility.yul\":6809:6874   */\n      tag_167\n      jump\t// in\n    tag_288:\n        /* \"#utility.yul\":6899:6928   */\n      tag_289\n        /* \"#utility.yul\":6921:6927   */\n      dup2\n        /* \"#utility.yul\":6899:6928   */\n      tag_147\n      jump\t// in\n    tag_289:\n        /* \"#utility.yul\":6894:6897   */\n      dup5\n        /* \"#utility.yul\":6890:6929   */\n      add\n        /* \"#utility.yul\":6883:6929   */\n      swap2\n      pop\n        /* \"#utility.yul\":6650:6935   */\n      pop\n        /* \"#utility.yul\":6558:6935   */\n      swap3\n      swap2\n      pop\n      pop\n      jump\t// out\n        /* \"#utility.yul\":6941:7083   */\n    tag_169:\n        /* \"#utility.yul\":7044:7076   */\n      tag_291\n        /* \"#utility.yul\":7070:7075   */\n      dup2\n        /* \"#utility.yul\":7044:7076   */\n      tag_156\n      jump\t// in\n    tag_291:\n        /* \"#utility.yul\":7039:7042   */\n      dup3\n        /* \"#utility.yul\":7032:7077   */\n      mstore\n        /* \"#utility.yul\":6941:7083   */\n      pop\n      pop\n      jump\t// out\n        /* \"#utility.yul\":7089:7179   */\n    tag_170:\n        /* \"#utility.yul\":7123:7130   */\n      0x00\n        /* \"#utility.yul\":7166:7171   */\n      dup2\n        /* \"#utility.yul\":7159:7172   */\n      iszero\n        /* \"#utility.yul\":7152:7173   */\n      iszero\n        /* \"#utility.yul\":7141:7173   */\n      swap1\n      pop\n        /* \"#utility.yul\":7089:7179   */\n      swap2\n      swap1\n      pop\n      jump\t// out\n        /* \"#utility.yul\":7185:7294   */\n    tag_171:\n        /* \"#utility.yul\":7266:7287   */\n      tag_294\n        /* \"#utility.yul\":7281:7286   */\n      dup2\n        /* \"#utility.yul\":7266:7287   */\n      tag_170\n      jump\t// in\n    tag_294:\n        /* \"#utility.yul\":7261:7264   */\n      dup3\n        /* \"#utility.yul\":7254:7288   */\n      mstore\n        /* \"#utility.yul\":7185:7294   */\n      pop\n      pop\n      jump\t// out\n        /* \"#utility.yul\":7300:8075   */\n    tag_82:\n        /* \"#utility.yul\":7535:7539   */\n      0x00\n        /* \"#utility.yul\":7573:7576   */\n      0xa0\n        /* \"#utility.yul\":7562:7571   */\n      dup3\n        /* \"#utility.yul\":7558:7577   */\n      add\n        /* \"#utility.yul\":7550:7577   */\n      swap1\n      pop\n        /* \"#utility.yul\":7623:7632   */\n      dup2\n        /* \"#utility.yul\":7617:7621   */\n      dup2\n        /* \"#utility.yul\":7613:7633   */\n      sub\n        /* \"#utility.yul\":7609:7610   */\n      0x00\n        /* \"#utility.yul\":7598:7607   */\n      dup4\n        /* \"#utility.yul\":7594:7611   */\n      add\n        /* \"#utility.yul\":7587:7634   */\n      mstore\n        /* \"#utility.yul\":7651:7729   */\n      tag_296\n        /* \"#utility.yul\":7724:7728   */\n      dup2\n        /* \"#utility.yul\":7715:7721   */\n      dup9\n        /* \"#utility.yul\":7651:7729   */\n      tag_168\n      jump\t// in\n    tag_296:\n        /* \"#utility.yul\":7643:7729   */\n      swap1\n      pop\n        /* \"#utility.yul\":7739:7827   */\n      tag_297\n        /* \"#utility.yul\":7823:7825   */\n      0x20\n        /* \"#utility.yul\":7812:7821   */\n      dup4\n        /* \"#utility.yul\":7808:7826   */\n      add\n        /* \"#utility.yul\":7799:7805   */\n      dup8\n        /* \"#utility.yul\":7739:7827   */\n      tag_169\n      jump\t// in\n    tag_297:\n        /* \"#utility.yul\":7837:7909   */\n      tag_298\n        /* \"#utility.yul\":7905:7907   */\n      0x40\n        /* \"#utility.yul\":7894:7903   */\n      dup4\n        /* \"#utility.yul\":7890:7908   */\n      add\n        /* \"#utility.yul\":7881:7887   */\n      dup7\n        /* \"#utility.yul\":7837:7909   */\n      tag_141\n      jump\t// in\n    tag_298:\n        /* \"#utility.yul\":7919:7985   */\n      tag_299\n        /* \"#utility.yul\":7981:7983   */\n      0x60\n        /* \"#utility.yul\":7970:7979   */\n      dup4\n        /* \"#utility.yul\":7966:7984   */\n      add\n        /* \"#utility.yul\":7957:7963   */\n      dup6\n        /* \"#utility.yul\":7919:7985   */\n      tag_171\n      jump\t// in\n    tag_299:\n        /* \"#utility.yul\":7995:8068   */\n      tag_300\n        /* \"#utility.yul\":8063:8066   */\n      0x80\n        /* \"#utility.yul\":8052:8061   */\n      dup4\n        /* \"#utility.yul\":8048:8067   */\n      add\n        /* \"#utility.yul\":8039:8045   */\n      dup5\n        /* \"#utility.yul\":7995:8068   */\n      tag_141\n      jump\t// in\n    tag_300:\n        /* \"#utility.yul\":7300:8075   */\n      swap7\n      swap6\n      pop\n      pop\n      pop\n      pop\n      pop\n      pop\n      jump\t// out\n        /* \"#utility.yul\":8081:8251   */\n    tag_172:\n        /* \"#utility.yul\":8221:8243   */\n      0x4465616c696e652077657265206d697373696e67000000000000000000000000\n        /* \"#utility.yul\":8217:8218   */\n      0x00\n        /* \"#utility.yul\":8209:8215   */\n      dup3\n        /* \"#utility.yul\":8205:8219   */\n      add\n        /* \"#utility.yul\":8198:8244   */\n      mstore\n        /* \"#utility.yul\":8081:8251   */\n      pop\n      jump\t// out\n        /* \"#utility.yul\":8257:8623   */\n    tag_173:\n        /* \"#utility.yul\":8399:8402   */\n      0x00\n        /* \"#utility.yul\":8420:8487   */\n      tag_303\n        /* \"#utility.yul\":8484:8486   */\n      0x14\n        /* \"#utility.yul\":8479:8482   */\n      dup4\n        /* \"#utility.yul\":8420:8487   */\n      tag_166\n      jump\t// in\n    tag_303:\n        /* \"#utility.yul\":8413:8487   */\n      swap2\n      pop\n        /* \"#utility.yul\":8496:8589   */\n      tag_304\n        /* \"#utility.yul\":8585:8588   */\n      dup3\n        /* \"#utility.yul\":8496:8589   */\n      tag_172\n      jump\t// in\n    tag_304:\n        /* \"#utility.yul\":8614:8616   */\n      0x20\n        /* \"#utility.yul\":8609:8612   */\n      dup3\n        /* \"#utility.yul\":8605:8617   */\n      add\n        /* \"#utility.yul\":8598:8617   */\n      swap1\n      pop\n        /* \"#utility.yul\":8257:8623   */\n      swap2\n      swap1\n      pop\n      jump\t// out\n        /* \"#utility.yul\":8629:9048   */\n    tag_86:\n        /* \"#utility.yul\":8795:8799   */\n      0x00\n        /* \"#utility.yul\":8833:8835   */\n      0x20\n        /* \"#utility.yul\":8822:8831   */\n      dup3\n        /* \"#utility.yul\":8818:8836   */\n      add\n        /* \"#utility.yul\":8810:8836   */\n      swap1\n      pop\n        /* \"#utility.yul\":8882:8891   */\n      dup2\n        /* \"#utility.yul\":8876:8880   */\n      dup2\n        /* \"#utility.yul\":8872:8892   */\n      sub\n        /* \"#utility.yul\":8868:8869   */\n      0x00\n        /* \"#utility.yul\":8857:8866   */\n      dup4\n        /* \"#utility.yul\":8853:8870   */\n      add\n        /* \"#utility.yul\":8846:8893   */\n      mstore\n        /* \"#utility.yul\":8910:9041   */\n      tag_306\n        /* \"#utility.yul\":9036:9040   */\n      dup2\n        /* \"#utility.yul\":8910:9041   */\n      tag_173\n      jump\t// in\n    tag_306:\n        /* \"#utility.yul\":8902:9041   */\n      swap1\n      pop\n        /* \"#utility.yul\":8629:9048   */\n      swap2\n      swap1\n      pop\n      jump\t// out\n        /* \"#utility.yul\":9054:9228   */\n    tag_174:\n        /* \"#utility.yul\":9194:9220   */\n      0x596f752077657265206e6f7420626520656c696769626c650000000000000000\n        /* \"#utility.yul\":9190:9191   */\n      0x00\n        /* \"#utility.yul\":9182:9188   */\n      dup3\n        /* \"#utility.yul\":9178:9192   */\n      add\n        /* \"#utility.yul\":9171:9221   */\n      mstore\n        /* \"#utility.yul\":9054:9228   */\n      pop\n      jump\t// out\n        /* \"#utility.yul\":9234:9600   */\n    tag_175:\n        /* \"#utility.yul\":9376:9379   */\n      0x00\n        /* \"#utility.yul\":9397:9464   */\n      tag_309\n        /* \"#utility.yul\":9461:9463   */\n      0x18\n        /* \"#utility.yul\":9456:9459   */\n      dup4\n        /* \"#utility.yul\":9397:9464   */\n      tag_166\n      jump\t// in\n    tag_309:\n        /* \"#utility.yul\":9390:9464   */\n      swap2\n      pop\n        /* \"#utility.yul\":9473:9566   */\n      tag_310\n        /* \"#utility.yul\":9562:9565   */\n      dup3\n        /* \"#utility.yul\":9473:9566   */\n      tag_174\n      jump\t// in\n    tag_310:\n        /* \"#utility.yul\":9591:9593   */\n      0x20\n        /* \"#utility.yul\":9586:9589   */\n      dup3\n        /* \"#utility.yul\":9582:9594   */\n      add\n        /* \"#utility.yul\":9575:9594   */\n      swap1\n      pop\n        /* \"#utility.yul\":9234:9600   */\n      swap2\n      swap1\n      pop\n      jump\t// out\n        /* \"#utility.yul\":9606:10025   */\n    tag_89:\n        /* \"#utility.yul\":9772:9776   */\n      0x00\n        /* \"#utility.yul\":9810:9812   */\n      0x20\n        /* \"#utility.yul\":9799:9808   */\n      dup3\n        /* \"#utility.yul\":9795:9813   */\n      add\n        /* \"#utility.yul\":9787:9813   */\n      swap1\n      pop\n        /* \"#utility.yul\":9859:9868   */\n      dup2\n        /* \"#utility.yul\":9853:9857   */\n      dup2\n        /* \"#utility.yul\":9849:9869   */\n      sub\n        /* \"#utility.yul\":9845:9846   */\n      0x00\n        /* \"#utility.yul\":9834:9843   */\n      dup4\n        /* \"#utility.yul\":9830:9847   */\n      add\n        /* \"#utility.yul\":9823:9870   */\n      mstore\n        /* \"#utility.yul\":9887:10018   */\n      tag_312\n        /* \"#utility.yul\":10013:10017   */\n      dup2\n        /* \"#utility.yul\":9887:10018   */\n      tag_175\n      jump\t// in\n    tag_312:\n        /* \"#utility.yul\":9879:10018   */\n      swap1\n      pop\n        /* \"#utility.yul\":9606:10025   */\n      swap2\n      swap1\n      pop\n      jump\t// out\n        /* \"#utility.yul\":10031:10211   */\n    tag_176:\n        /* \"#utility.yul\":10079:10156   */\n      0x4e487b7100000000000000000000000000000000000000000000000000000000\n        /* \"#utility.yul\":10076:10077   */\n      0x00\n        /* \"#utility.yul\":10069:10157   */\n      mstore\n        /* \"#utility.yul\":10176:10180   */\n      0x11\n        /* \"#utility.yul\":10173:10174   */\n      0x04\n        /* \"#utility.yul\":10166:10181   */\n      mstore\n        /* \"#utility.yul\":10200:10204   */\n      0x24\n        /* \"#utility.yul\":10197:10198   */\n      0x00\n        /* \"#utility.yul\":10190:10205   */\n      revert\n        /* \"#utility.yul\":10217:10450   */\n    tag_92:\n        /* \"#utility.yul\":10256:10259   */\n      0x00\n        /* \"#utility.yul\":10279:10303   */\n      tag_315\n        /* \"#utility.yul\":10297:10302   */\n      dup3\n        /* \"#utility.yul\":10279:10303   */\n      tag_140\n      jump\t// in\n    tag_315:\n        /* \"#utility.yul\":10270:10303   */\n      swap2\n      pop\n        /* \"#utility.yul\":10325:10391   */\n      0xffffffffffffffffffffffffffffffffffffffffffffffffffffffffffffffff\n        /* \"#utility.yul\":10318:10323   */\n      dup3\n        /* \"#utility.yul\":10315:10392   */\n      sub\n        /* \"#utility.yul\":10312:10415   */\n      tag_316\n      jumpi\n        /* \"#utility.yul\":10395:10413   */\n      tag_317\n      tag_176\n      jump\t// in\n    tag_317:\n        /* \"#utility.yul\":10312:10415   */\n    tag_316:\n        /* \"#utility.yul\":10442:10443   */\n      0x01\n        /* \"#utility.yul\":10435:10440   */\n      dup3\n        /* \"#utility.yul\":10431:10444   */\n      add\n        /* \"#utility.yul\":10424:10444   */\n      swap1\n      pop\n        /* \"#utility.yul\":10217:10450   */\n      swap2\n      swap1\n      pop\n      jump\t// out\n        /* \"#utility.yul\":10456:10647   */\n    tag_94:\n        /* \"#utility.yul\":10496:10499   */\n      0x00\n        /* \"#utility.yul\":10515:10535   */\n      tag_319\n        /* \"#utility.yul\":10533:10534   */\n      dup3\n        /* \"#utility.yul\":10515:10535   */\n      tag_140\n      jump\t// in\n    tag_319:\n        /* \"#utility.yul\":10510:10535   */\n      swap2\n      pop\n        /* \"#utility.yul\":10549:10569   */\n      tag_320\n        /* \"#utility.yul\":10567:10568   */\n      dup4\n        /* \"#utility.yul\":10549:10569   */\n      tag_140\n      jump\t// in\n    tag_320:\n        /* \"#utility.yul\":10544:10569   */\n      swap3\n      pop\n        /* \"#utility.yul\":10592:10593   */\n      dup3\n        /* \"#utility.yul\":10589:10590   */\n      dup3\n        /* \"#utility.yul\":10585:10594   */\n      add\n        /* \"#utility.yul\":10578:10594   */\n      swap1\n      pop\n        /* \"#utility.yul\":10613:10616   */\n      dup1\n        /* \"#utility.yul\":10610:10611   */\n      dup3\n        /* \"#utility.yul\":10607:10617   */\n      gt\n        /* \"#utility.yul\":10604:10640   */\n      iszero\n      tag_321\n      jumpi\n        /* \"#utility.yul\":10620:10638   */\n      tag_322\n      tag_176\n      jump\t// in\n    tag_322:\n        /* \"#utility.yul\":10604:10640   */\n    tag_321:\n        /* \"#utility.yul\":10456:10647   */\n      swap3\n      swap2\n      pop\n      pop\n      jump\t// out\n        /* \"#utility.yul\":10653:10831   */\n    tag_177:\n        /* \"#utility.yul\":10793:10823   */\n      0x4f6e6c792063616e20416363657373207468652046756e6374696f6e00000000\n        /* \"#utility.yul\":10789:10790   */\n      0x00\n        /* \"#utility.yul\":10781:10787   */\n      dup3\n        /* \"#utility.yul\":10777:10791   */\n      add\n        /* \"#utility.yul\":10770:10824   */\n      mstore\n        /* \"#utility.yul\":10653:10831   */\n      pop\n      jump\t// out\n        /* \"#utility.yul\":10837:11203   */\n    tag_178:\n        /* \"#utility.yul\":10979:10982   */\n      0x00\n        /* \"#utility.yul\":11000:11067   */\n      tag_325\n        /* \"#utility.yul\":11064:11066   */\n      0x1c\n        /* \"#utility.yul\":11059:11062   */\n      dup4\n        /* \"#utility.yul\":11000:11067   */\n      tag_166\n      jump\t// in\n    tag_325:\n        /* \"#utility.yul\":10993:11067   */\n      swap2\n      pop\n        /* \"#utility.yul\":11076:11169   */\n      tag_326\n        /* \"#utility.yul\":11165:11168   */\n      dup3\n        /* \"#utility.yul\":11076:11169   */\n      tag_177\n      jump\t// in\n    tag_326:\n        /* \"#utility.yul\":11194:11196   */\n      0x20\n        /* \"#utility.yul\":11189:11192   */\n      dup3\n        /* \"#utility.yul\":11185:11197   */\n      add\n        /* \"#utility.yul\":11178:11197   */\n      swap1\n      pop\n        /* \"#utility.yul\":10837:11203   */\n      swap2\n      swap1\n      pop\n      jump\t// out\n        /* \"#utility.yul\":11209:11628   */\n    tag_100:\n        /* \"#utility.yul\":11375:11379   */\n      0x00\n        /* \"#utility.yul\":11413:11415   */\n      0x20\n        /* \"#utility.yul\":11402:11411   */\n      dup3\n        /* \"#utility.yul\":11398:11416   */\n      add\n        /* \"#utility.yul\":11390:11416   */\n      swap1\n      pop\n        /* \"#utility.yul\":11462:11471   */\n      dup2\n        /* \"#utility.yul\":11456:11460   */\n      dup2\n        /* \"#utility.yul\":11452:11472   */\n      sub\n        /* \"#utility.yul\":11448:11449   */\n      0x00\n        /* \"#utility.yul\":11437:11446   */\n      dup4\n        /* \"#utility.yul\":11433:11450   */\n      add\n        /* \"#utility.yul\":11426:11473   */\n      mstore\n        /* \"#utility.yul\":11490:11621   */\n      tag_328\n        /* \"#utility.yul\":11616:11620   */\n      dup2\n        /* \"#utility.yul\":11490:11621   */\n      tag_178\n      jump\t// in\n    tag_328:\n        /* \"#utility.yul\":11482:11621   */\n      swap1\n      pop\n        /* \"#utility.yul\":11209:11628   */\n      swap2\n      swap1\n      pop\n      jump\t// out\n        /* \"#utility.yul\":11634:11814   */\n    tag_179:\n        /* \"#utility.yul\":11682:11759   */\n      0x4e487b7100000000000000000000000000000000000000000000000000000000\n        /* \"#utility.yul\":11679:11680   */\n      0x00\n        /* \"#utility.yul\":11672:11760   */\n      mstore\n        /* \"#utility.yul\":11779:11783   */\n      0x22\n        /* \"#utility.yul\":11776:11777   */\n      0x04\n        /* \"#utility.yul\":11769:11784   */\n      mstore\n        /* \"#utility.yul\":11803:11807   */\n      0x24\n        /* \"#utility.yul\":11800:11801   */\n      0x00\n        /* \"#utility.yul\":11793:11808   */\n      revert\n        /* \"#utility.yul\":11820:12140   */\n    tag_135:\n        /* \"#utility.yul\":11864:11870   */\n      0x00\n        /* \"#utility.yul\":11901:11902   */\n      0x02\n        /* \"#utility.yul\":11895:11899   */\n      dup3\n        /* \"#utility.yul\":11891:11903   */\n      div\n        /* \"#utility.yul\":11881:11903   */\n      swap1\n      pop\n        /* \"#utility.yul\":11948:11949   */\n      0x01\n        /* \"#utility.yul\":11942:11946   */\n      dup3\n        /* \"#utility.yul\":11938:11950   */\n      and\n        /* \"#utility.yul\":11969:11987   */\n      dup1\n        /* \"#utility.yul\":11959:12040   */\n      tag_331\n      jumpi\n        /* \"#utility.yul\":12025:12029   */\n      0x7f\n        /* \"#utility.yul\":12017:12023   */\n      dup3\n        /* \"#utility.yul\":12013:12030   */\n      and\n        /* \"#utility.yul\":12003:12030   */\n      swap2\n      pop\n        /* \"#utility.yul\":11959:12040   */\n    tag_331:\n        /* \"#utility.yul\":12087:12089   */\n      0x20\n        /* \"#utility.yul\":12079:12085   */\n      dup3\n        /* \"#utility.yul\":12076:12090   */\n      lt\n        /* \"#utility.yul\":12056:12074   */\n      dup2\n        /* \"#utility.yul\":12053:12091   */\n      sub\n        /* \"#utility.yul\":12050:12134   */\n      tag_332\n      jumpi\n        /* \"#utility.yul\":12106:12124   */\n      tag_333\n      tag_179\n      jump\t// in\n    tag_333:\n        /* \"#utility.yul\":12050:12134   */\n    tag_332:\n        /* \"#utility.yul\":11871:12140   */\n      pop\n        /* \"#utility.yul\":11820:12140   */\n      swap2\n      swap1\n      pop\n      jump\t// out\n        /* \"#utility.yul\":12146:12287   */\n    tag_180:\n        /* \"#utility.yul\":12195:12199   */\n      0x00\n        /* \"#utility.yul\":12218:12221   */\n      dup2\n        /* \"#utility.yul\":12210:12221   */\n      swap1\n      pop\n        /* \"#utility.yul\":12241:12244   */\n      dup2\n        /* \"#utility.yul\":12238:12239   */\n      0x00\n        /* \"#utility.yul\":12231:12245   */\n      mstore\n        /* \"#utility.yul\":12275:12279   */\n      0x20\n        /* \"#utility.yul\":12272:12273   */\n      0x00\n        /* \"#utility.yul\":12262:12280   */\n      keccak256\n        /* \"#utility.yul\":12254:12280   */\n      swap1\n      pop\n        /* \"#utility.yul\":12146:12287   */\n      swap2\n      swap1\n      pop\n      jump\t// out\n        /* \"#utility.yul\":12293:12386   */\n    tag_181:\n        /* \"#utility.yul\":12330:12336   */\n      0x00\n        /* \"#utility.yul\":12377:12379   */\n      0x20\n        /* \"#utility.yul\":12372:12374   */\n      0x1f\n        /* \"#utility.yul\":12365:12370   */\n      dup4\n        /* \"#utility.yul\":12361:12375   */\n      add\n        /* \"#utility.yul\":12357:12380   */\n      div\n        /* \"#utility.yul\":12347:12380   */\n      swap1\n      pop\n        /* \"#utility.yul\":12293:12386   */\n      swap2\n      swap1\n      pop\n      jump\t// out\n        /* \"#utility.yul\":12392:12499   */\n    tag_182:\n        /* \"#utility.yul\":12436:12444   */\n      0x00\n        /* \"#utility.yul\":12486:12491   */\n      dup3\n        /* \"#utility.yul\":12480:12484   */\n      dup3\n        /* \"#utility.yul\":12476:12492   */\n      shl\n        /* \"#utility.yul\":12455:12492   */\n      swap1\n      pop\n        /* \"#utility.yul\":12392:12499   */\n      swap3\n      swap2\n      pop\n      pop\n      jump\t// out\n        /* \"#utility.yul\":12505:12898   */\n    tag_183:\n        /* \"#utility.yul\":12574:12580   */\n      0x00\n        /* \"#utility.yul\":12624:12625   */\n      0x08\n        /* \"#utility.yul\":12612:12622   */\n      dup4\n        /* \"#utility.yul\":12608:12626   */\n      mul\n        /* \"#utility.yul\":12647:12744   */\n      tag_338\n        /* \"#utility.yul\":12677:12743   */\n      0xffffffffffffffffffffffffffffffffffffffffffffffffffffffffffffffff\n        /* \"#utility.yul\":12666:12675   */\n      dup3\n        /* \"#utility.yul\":12647:12744   */\n      tag_182\n      jump\t// in\n    tag_338:\n        /* \"#utility.yul\":12765:12804   */\n      tag_339\n        /* \"#utility.yul\":12795:12803   */\n      dup7\n        /* \"#utility.yul\":12784:12793   */\n      dup4\n        /* \"#utility.yul\":12765:12804   */\n      tag_182\n      jump\t// in\n    tag_339:\n        /* \"#utility.yul\":12753:12804   */\n      swap6\n      pop\n        /* \"#utility.yul\":12837:12841   */\n      dup1\n        /* \"#utility.yul\":12833:12842   */\n      not\n        /* \"#utility.yul\":12826:12831   */\n      dup5\n        /* \"#utility.yul\":12822:12843   */\n      and\n        /* \"#utility.yul\":12813:12843   */\n      swap4\n      pop\n        /* \"#utility.yul\":12886:12890   */\n      dup1\n        /* \"#utility.yul\":12876:12884   */\n      dup7\n        /* \"#utility.yul\":12872:12891   */\n      and\n        /* \"#utility.yul\":12865:12870   */\n      dup5\n        /* \"#utility.yul\":12862:12892   */\n      or\n        /* \"#utility.yul\":12852:12892   */\n      swap3\n      pop\n        /* \"#utility.yul\":12581:12898   */\n      pop\n      pop\n        /* \"#utility.yul\":12505:12898   */\n      swap4\n      swap3\n      pop\n      pop\n      pop\n      jump\t// out\n        /* \"#utility.yul\":12904:12964   */\n    tag_184:\n        /* \"#utility.yul\":12932:12935   */\n      0x00\n        /* \"#utility.yul\":12953:12958   */\n      dup2\n        /* \"#utility.yul\":12946:12958   */\n      swap1\n      pop\n        /* \"#utility.yul\":12904:12964   */\n      swap2\n      swap1\n      pop\n      jump\t// out\n        /* \"#utility.yul\":12970:13112   */\n    tag_185:\n        /* \"#utility.yul\":13020:13029   */\n      0x00\n        /* \"#utility.yul\":13053:13106   */\n      tag_342\n        /* \"#utility.yul\":13071:13105   */\n      tag_343\n        /* \"#utility.yul\":13080:13104   */\n      tag_344\n        /* \"#utility.yul\":13098:13103   */\n      dup5\n        /* \"#utility.yul\":13080:13104   */\n      tag_140\n      jump\t// in\n    tag_344:\n        /* \"#utility.yul\":13071:13105   */\n      tag_184\n      jump\t// in\n    tag_343:\n        /* \"#utility.yul\":13053:13106   */\n      tag_140\n      jump\t// in\n    tag_342:\n        /* \"#utility.yul\":13040:13106   */\n      swap1\n      pop\n        /* \"#utility.yul\":12970:13112   */\n      swap2\n      swap1\n      pop\n      jump\t// out\n        /* \"#utility.yul\":13118:13193   */\n    tag_186:\n        /* \"#utility.yul\":13161:13164   */\n      0x00\n        /* \"#utility.yul\":13182:13187   */\n      dup2\n        /* \"#utility.yul\":13175:13187   */\n      swap1\n      pop\n        /* \"#utility.yul\":13118:13193   */\n      swap2\n      swap1\n      pop\n      jump\t// out\n        /* \"#utility.yul\":13199:13468   */\n    tag_187:\n        /* \"#utility.yul\":13309:13348   */\n      tag_347\n        /* \"#utility.yul\":13340:13347   */\n      dup4\n        /* \"#utility.yul\":13309:13348   */\n      tag_185\n      jump\t// in\n    tag_347:\n        /* \"#utility.yul\":13370:13461   */\n      tag_348\n        /* \"#utility.yul\":13419:13460   */\n      tag_349\n        /* \"#utility.yul\":13443:13459   */\n      dup3\n        /* \"#utility.yul\":13419:13460   */\n      tag_186\n      jump\t// in\n    tag_349:\n        /* \"#utility.yul\":13411:13417   */\n      dup5\n        /* \"#utility.yul\":13404:13408   */\n      dup5\n        /* \"#utility.yul\":13398:13409   */\n      sload\n        /* \"#utility.yul\":13370:13461   */\n      tag_183\n      jump\t// in\n    tag_348:\n        /* \"#utility.yul\":13364:13368   */\n      dup3\n        /* \"#utility.yul\":13357:13462   */\n      sstore\n        /* \"#utility.yul\":13275:13468   */\n      pop\n        /* \"#utility.yul\":13199:13468   */\n      pop\n      pop\n      pop\n      jump\t// out\n        /* \"#utility.yul\":13474:13547   */\n    tag_188:\n        /* \"#utility.yul\":13519:13522   */\n      0x00\n        /* \"#utility.yul\":13474:13547   */\n      swap1\n      jump\t// out\n        /* \"#utility.yul\":13553:13742   */\n    tag_189:\n        /* \"#utility.yul\":13630:13662   */\n      tag_352\n      tag_188\n      jump\t// in\n    tag_352:\n        /* \"#utility.yul\":13671:13736   */\n      tag_353\n        /* \"#utility.yul\":13729:13735   */\n      dup2\n        /* \"#utility.yul\":13721:13727   */\n      dup5\n        /* \"#utility.yul\":13715:13719   */\n      dup5\n        /* \"#utility.yul\":13671:13736   */\n      tag_187\n      jump\t// in\n    tag_353:\n        /* \"#utility.yul\":13606:13742   */\n      pop\n        /* \"#utility.yul\":13553:13742   */\n      pop\n      pop\n      jump\t// out\n        /* \"#utility.yul\":13748:13934   */\n    tag_190:\n        /* \"#utility.yul\":13808:13928   */\n    tag_355:\n        /* \"#utility.yul\":13825:13828   */\n      dup2\n        /* \"#utility.yul\":13818:13823   */\n      dup2\n        /* \"#utility.yul\":13815:13829   */\n      lt\n        /* \"#utility.yul\":13808:13928   */\n      iszero\n      tag_357\n      jumpi\n        /* \"#utility.yul\":13879:13918   */\n      tag_358\n        /* \"#utility.yul\":13916:13917   */\n      0x00\n        /* \"#utility.yul\":13909:13914   */\n      dup3\n        /* \"#utility.yul\":13879:13918   */\n      tag_189\n      jump\t// in\n    tag_358:\n        /* \"#utility.yul\":13852:13853   */\n      0x01\n        /* \"#utility.yul\":13845:13850   */\n      dup2\n        /* \"#utility.yul\":13841:13854   */\n      add\n        /* \"#utility.yul\":13832:13854   */\n      swap1\n      pop\n        /* \"#utility.yul\":13808:13928   */\n      jump(tag_355)\n    tag_357:\n        /* \"#utility.yul\":13748:13934   */\n      pop\n      pop\n      jump\t// out\n        /* \"#utility.yul\":13940:14483   */\n    tag_191:\n        /* \"#utility.yul\":14041:14043   */\n      0x1f\n        /* \"#utility.yul\":14036:14039   */\n      dup3\n        /* \"#utility.yul\":14033:14044   */\n      gt\n        /* \"#utility.yul\":14030:14476   */\n      iszero\n      tag_360\n      jumpi\n        /* \"#utility.yul\":14075:14113   */\n      tag_361\n        /* \"#utility.yul\":14107:14112   */\n      dup2\n        /* \"#utility.yul\":14075:14113   */\n      tag_180\n      jump\t// in\n    tag_361:\n        /* \"#utility.yul\":14159:14188   */\n      tag_362\n        /* \"#utility.yul\":14177:14187   */\n      dup5\n        /* \"#utility.yul\":14159:14188   */\n      tag_181\n      jump\t// in\n    tag_362:\n        /* \"#utility.yul\":14149:14157   */\n      dup2\n        /* \"#utility.yul\":14145:14189   */\n      add\n        /* \"#utility.yul\":14342:14344   */\n      0x20\n        /* \"#utility.yul\":14330:14340   */\n      dup6\n        /* \"#utility.yul\":14327:14345   */\n      lt\n        /* \"#utility.yul\":14324:14373   */\n      iszero\n      tag_363\n      jumpi\n        /* \"#utility.yul\":14363:14371   */\n      dup2\n        /* \"#utility.yul\":14348:14371   */\n      swap1\n      pop\n        /* \"#utility.yul\":14324:14373   */\n    tag_363:\n        /* \"#utility.yul\":14386:14466   */\n      tag_364\n        /* \"#utility.yul\":14442:14464   */\n      tag_365\n        /* \"#utility.yul\":14460:14463   */\n      dup6\n        /* \"#utility.yul\":14442:14464   */\n      tag_181\n      jump\t// in\n    tag_365:\n        /* \"#utility.yul\":14432:14440   */\n      dup4\n        /* \"#utility.yul\":14428:14465   */\n      add\n        /* \"#utility.yul\":14415:14426   */\n      dup3\n        /* \"#utility.yul\":14386:14466   */\n      tag_190\n      jump\t// in\n    tag_364:\n        /* \"#utility.yul\":14045:14476   */\n      pop\n      pop\n        /* \"#utility.yul\":14030:14476   */\n    tag_360:\n        /* \"#utility.yul\":13940:14483   */\n      pop\n      pop\n      pop\n      jump\t// out\n        /* \"#utility.yul\":14489:14606   */\n    tag_192:\n        /* \"#utility.yul\":14543:14551   */\n      0x00\n        /* \"#utility.yul\":14593:14598   */\n      dup3\n        /* \"#utility.yul\":14587:14591   */\n      dup3\n        /* \"#utility.yul\":14583:14599   */\n      shr\n        /* \"#utility.yul\":14562:14599   */\n      swap1\n      pop\n        /* \"#utility.yul\":14489:14606   */\n      swap3\n      swap2\n      pop\n      pop\n      jump\t// out\n        /* \"#utility.yul\":14612:14781   */\n    tag_193:\n        /* \"#utility.yul\":14656:14662   */\n      0x00\n        /* \"#utility.yul\":14689:14740   */\n      tag_368\n        /* \"#utility.yul\":14737:14738   */\n      0x00\n        /* \"#utility.yul\":14733:14739   */\n      not\n        /* \"#utility.yul\":14725:14730   */\n      dup5\n        /* \"#utility.yul\":14722:14723   */\n      0x08\n        /* \"#utility.yul\":14718:14731   */\n      mul\n        /* \"#utility.yul\":14689:14740   */\n      tag_192\n      jump\t// in\n    tag_368:\n        /* \"#utility.yul\":14685:14741   */\n      not\n        /* \"#utility.yul\":14770:14774   */\n      dup1\n        /* \"#utility.yul\":14764:14768   */\n      dup4\n        /* \"#utility.yul\":14760:14775   */\n      and\n        /* \"#utility.yul\":14750:14775   */\n      swap2\n      pop\n        /* \"#utility.yul\":14663:14781   */\n      pop\n        /* \"#utility.yul\":14612:14781   */\n      swap3\n      swap2\n      pop\n      pop\n      jump\t// out\n        /* \"#utility.yul\":14786:15081   */\n    tag_194:\n        /* \"#utility.yul\":14862:14866   */\n      0x00\n        /* \"#utility.yul\":15008:15037   */\n      tag_370\n        /* \"#utility.yul\":15033:15036   */\n      dup4\n        /* \"#utility.yul\":15027:15031   */\n      dup4\n        /* \"#utility.yul\":15008:15037   */\n      tag_193\n      jump\t// in\n    tag_370:\n        /* \"#utility.yul\":15000:15037   */\n      swap2\n      pop\n        /* \"#utility.yul\":15070:15073   */\n      dup3\n        /* \"#utility.yul\":15067:15068   */\n      0x02\n        /* \"#utility.yul\":15063:15074   */\n      mul\n        /* \"#utility.yul\":15057:15061   */\n      dup3\n        /* \"#utility.yul\":15054:15075   */\n      or\n        /* \"#utility.yul\":15046:15075   */\n      swap1\n      pop\n        /* \"#utility.yul\":14786:15081   */\n      swap3\n      swap2\n      pop\n      pop\n      jump\t// out\n        /* \"#utility.yul\":15086:16481   */\n    tag_104:\n        /* \"#utility.yul\":15203:15240   */\n      tag_372\n        /* \"#utility.yul\":15236:15239   */\n      dup3\n        /* \"#utility.yul\":15203:15240   */\n      tag_165\n      jump\t// in\n    tag_372:\n        /* \"#utility.yul\":15305:15323   */\n      0xffffffffffffffff\n        /* \"#utility.yul\":15297:15303   */\n      dup2\n        /* \"#utility.yul\":15294:15324   */\n      gt\n        /* \"#utility.yul\":15291:15347   */\n      iszero\n      tag_373\n      jumpi\n        /* \"#utility.yul\":15327:15345   */\n      tag_374\n      tag_148\n      jump\t// in\n    tag_374:\n        /* \"#utility.yul\":15291:15347   */\n    tag_373:\n        /* \"#utility.yul\":15371:15409   */\n      tag_375\n        /* \"#utility.yul\":15403:15407   */\n      dup3\n        /* \"#utility.yul\":15397:15408   */\n      sload\n        /* \"#utility.yul\":15371:15409   */\n      tag_135\n      jump\t// in\n    tag_375:\n        /* \"#utility.yul\":15456:15523   */\n      tag_376\n        /* \"#utility.yul\":15516:15522   */\n      dup3\n        /* \"#utility.yul\":15508:15514   */\n      dup3\n        /* \"#utility.yul\":15502:15506   */\n      dup6\n        /* \"#utility.yul\":15456:15523   */\n      tag_191\n      jump\t// in\n    tag_376:\n        /* \"#utility.yul\":15550:15551   */\n      0x00\n        /* \"#utility.yul\":15574:15578   */\n      0x20\n        /* \"#utility.yul\":15561:15578   */\n      swap1\n      pop\n        /* \"#utility.yul\":15606:15608   */\n      0x1f\n        /* \"#utility.yul\":15598:15604   */\n      dup4\n        /* \"#utility.yul\":15595:15609   */\n      gt\n        /* \"#utility.yul\":15623:15624   */\n      0x01\n        /* \"#utility.yul\":15618:16236   */\n      dup2\n      eq\n      tag_378\n      jumpi\n        /* \"#utility.yul\":16280:16281   */\n      0x00\n        /* \"#utility.yul\":16297:16303   */\n      dup5\n        /* \"#utility.yul\":16294:16371   */\n      iszero\n      tag_379\n      jumpi\n        /* \"#utility.yul\":16346:16355   */\n      dup3\n        /* \"#utility.yul\":16341:16344   */\n      dup8\n        /* \"#utility.yul\":16337:16356   */\n      add\n        /* \"#utility.yul\":16331:16357   */\n      mload\n        /* \"#utility.yul\":16322:16357   */\n      swap1\n      pop\n        /* \"#utility.yul\":16294:16371   */\n    tag_379:\n        /* \"#utility.yul\":16397:16464   */\n      tag_380\n        /* \"#utility.yul\":16457:16463   */\n      dup6\n        /* \"#utility.yul\":16450:16455   */\n      dup3\n        /* \"#utility.yul\":16397:16464   */\n      tag_194\n      jump\t// in\n    tag_380:\n        /* \"#utility.yul\":16391:16395   */\n      dup7\n        /* \"#utility.yul\":16384:16465   */\n      sstore\n        /* \"#utility.yul\":16253:16475   */\n      pop\n        /* \"#utility.yul\":15588:16475   */\n      jump(tag_377)\n        /* \"#utility.yul\":15618:16236   */\n    tag_378:\n        /* \"#utility.yul\":15670:15674   */\n      0x1f\n        /* \"#utility.yul\":15666:15675   */\n      not\n        /* \"#utility.yul\":15658:15664   */\n      dup5\n        /* \"#utility.yul\":15654:15676   */\n      and\n        /* \"#utility.yul\":15704:15741   */\n      tag_381\n        /* \"#utility.yul\":15736:15740   */\n      dup7\n        /* \"#utility.yul\":15704:15741   */\n      tag_180\n      jump\t// in\n    tag_381:\n        /* \"#utility.yul\":15763:15764   */\n      0x00\n        /* \"#utility.yul\":15777:15985   */\n    tag_382:\n        /* \"#utility.yul\":15791:15798   */\n      dup3\n        /* \"#utility.yul\":15788:15789   */\n      dup2\n        /* \"#utility.yul\":15785:15799   */\n      lt\n        /* \"#utility.yul\":15777:15985   */\n      iszero\n      tag_384\n      jumpi\n        /* \"#utility.yul\":15870:15879   */\n      dup5\n        /* \"#utility.yul\":15865:15868   */\n      dup10\n        /* \"#utility.yul\":15861:15880   */\n      add\n        /* \"#utility.yul\":15855:15881   */\n      mload\n        /* \"#utility.yul\":15847:15853   */\n      dup3\n        /* \"#utility.yul\":15840:15882   */\n      sstore\n        /* \"#utility.yul\":15921:15922   */\n      0x01\n        /* \"#utility.yul\":15913:15919   */\n      dup3\n        /* \"#utility.yul\":15909:15923   */\n      add\n        /* \"#utility.yul\":15899:15923   */\n      swap2\n      pop\n        /* \"#utility.yul\":15968:15970   */\n      0x20\n        /* \"#utility.yul\":15957:15966   */\n      dup6\n        /* \"#utility.yul\":15953:15971   */\n      add\n        /* \"#utility.yul\":15940:15971   */\n      swap5\n      pop\n        /* \"#utility.yul\":15814:15818   */\n      0x20\n        /* \"#utility.yul\":15811:15812   */\n      dup2\n        /* \"#utility.yul\":15807:15819   */\n      add\n        /* \"#utility.yul\":15802:15819   */\n      swap1\n      pop\n        /* \"#utility.yul\":15777:15985   */\n      jump(tag_382)\n    tag_384:\n        /* \"#utility.yul\":16013:16019   */\n      dup7\n        /* \"#utility.yul\":16004:16011   */\n      dup4\n        /* \"#utility.yul\":16001:16020   */\n      lt\n        /* \"#utility.yul\":15998:16177   */\n      iszero\n      tag_385\n      jumpi\n        /* \"#utility.yul\":16071:16080   */\n      dup5\n        /* \"#utility.yul\":16066:16069   */\n      dup10\n        /* \"#utility.yul\":16062:16081   */\n      add\n        /* \"#utility.yul\":16056:16082   */\n      mload\n        /* \"#utility.yul\":16114:16162   */\n      tag_386\n        /* \"#utility.yul\":16156:16160   */\n      0x1f\n        /* \"#utility.yul\":16148:16154   */\n      dup10\n        /* \"#utility.yul\":16144:16161   */\n      and\n        /* \"#utility.yul\":16133:16142   */\n      dup3\n        /* \"#utility.yul\":16114:16162   */\n      tag_193\n      jump\t// in\n    tag_386:\n        /* \"#utility.yul\":16106:16112   */\n      dup4\n        /* \"#utility.yul\":16099:16163   */\n      sstore\n        /* \"#utility.yul\":16021:16177   */\n      pop\n        /* \"#utility.yul\":15998:16177   */\n    tag_385:\n        /* \"#utility.yul\":16223:16224   */\n      0x01\n        /* \"#utility.yul\":16219:16220   */\n      0x02\n        /* \"#utility.yul\":16211:16217   */\n      dup9\n        /* \"#utility.yul\":16207:16221   */\n      mul\n        /* \"#utility.yul\":16203:16225   */\n      add\n        /* \"#utility.yul\":16197:16201   */\n      dup9\n        /* \"#utility.yul\":16190:16226   */\n      sstore\n        /* \"#utility.yul\":15625:16236   */\n      pop\n      pop\n      pop\n        /* \"#utility.yul\":15588:16475   */\n    tag_377:\n      pop\n        /* \"#utility.yul\":15178:16481   */\n      pop\n      pop\n      pop\n        /* \"#utility.yul\":15086:16481   */\n      pop\n      pop\n      jump\t// out\n        /* \"#utility.yul\":16487:16655   */\n    tag_195:\n        /* \"#utility.yul\":16627:16647   */\n      0x41637475616c6c7920796f7520766f7465640000000000000000000000000000\n        /* \"#utility.yul\":16623:16624   */\n      0x00\n        /* \"#utility.yul\":16615:16621   */\n      dup3\n        /* \"#utility.yul\":16611:16625   */\n      add\n        /* \"#utility.yul\":16604:16648   */\n      mstore\n        /* \"#utility.yul\":16487:16655   */\n      pop\n      jump\t// out\n        /* \"#utility.yul\":16661:17027   */\n    tag_196:\n        /* \"#utility.yul\":16803:16806   */\n      0x00\n        /* \"#utility.yul\":16824:16891   */\n      tag_389\n        /* \"#utility.yul\":16888:16890   */\n      0x12\n        /* \"#utility.yul\":16883:16886   */\n      dup4\n        /* \"#utility.yul\":16824:16891   */\n      tag_166\n      jump\t// in\n    tag_389:\n        /* \"#utility.yul\":16817:16891   */\n      swap2\n      pop\n        /* \"#utility.yul\":16900:16993   */\n      tag_390\n        /* \"#utility.yul\":16989:16992   */\n      dup3\n        /* \"#utility.yul\":16900:16993   */\n      tag_195\n      jump\t// in\n    tag_390:\n        /* \"#utility.yul\":17018:17020   */\n      0x20\n        /* \"#utility.yul\":17013:17016   */\n      dup3\n        /* \"#utility.yul\":17009:17021   */\n      add\n        /* \"#utility.yul\":17002:17021   */\n      swap1\n      pop\n        /* \"#utility.yul\":16661:17027   */\n      swap2\n      swap1\n      pop\n      jump\t// out\n        /* \"#utility.yul\":17033:17452   */\n    tag_109:\n        /* \"#utility.yul\":17199:17203   */\n      0x00\n        /* \"#utility.yul\":17237:17239   */\n      0x20\n        /* \"#utility.yul\":17226:17235   */\n      dup3\n        /* \"#utility.yul\":17222:17240   */\n      add\n        /* \"#utility.yul\":17214:17240   */\n      swap1\n      pop\n        /* \"#utility.yul\":17286:17295   */\n      dup2\n        /* \"#utility.yul\":17280:17284   */\n      dup2\n        /* \"#utility.yul\":17276:17296   */\n      sub\n        /* \"#utility.yul\":17272:17273   */\n      0x00\n        /* \"#utility.yul\":17261:17270   */\n      dup4\n        /* \"#utility.yul\":17257:17274   */\n      add\n        /* \"#utility.yul\":17250:17297   */\n      mstore\n        /* \"#utility.yul\":17314:17445   */\n      tag_392\n        /* \"#utility.yul\":17440:17444   */\n      dup2\n        /* \"#utility.yul\":17314:17445   */\n      tag_196\n      jump\t// in\n    tag_392:\n        /* \"#utility.yul\":17306:17445   */\n      swap1\n      pop\n        /* \"#utility.yul\":17033:17452   */\n      swap2\n      swap1\n      pop\n      jump\t// out\n        /* \"#utility.yul\":17458:17639   */\n    tag_197:\n        /* \"#utility.yul\":17598:17631   */\n      0x596f752077657265204e6f7420656c6769626c6520696e2046756e64696e6700\n        /* \"#utility.yul\":17594:17595   */\n      0x00\n        /* \"#utility.yul\":17586:17592   */\n      dup3\n        /* \"#utility.yul\":17582:17596   */\n      add\n        /* \"#utility.yul\":17575:17632   */\n      mstore\n        /* \"#utility.yul\":17458:17639   */\n      pop\n      jump\t// out\n        /* \"#utility.yul\":17645:18011   */\n    tag_198:\n        /* \"#utility.yul\":17787:17790   */\n      0x00\n        /* \"#utility.yul\":17808:17875   */\n      tag_395\n        /* \"#utility.yul\":17872:17874   */\n      0x1f\n        /* \"#utility.yul\":17867:17870   */\n      dup4\n        /* \"#utility.yul\":17808:17875   */\n      tag_166\n      jump\t// in\n    tag_395:\n        /* \"#utility.yul\":17801:17875   */\n      swap2\n      pop\n        /* \"#utility.yul\":17884:17977   */\n      tag_396\n        /* \"#utility.yul\":17973:17976   */\n      dup3\n        /* \"#utility.yul\":17884:17977   */\n      tag_197\n      jump\t// in\n    tag_396:\n        /* \"#utility.yul\":18002:18004   */\n      0x20\n        /* \"#utility.yul\":17997:18000   */\n      dup3\n        /* \"#utility.yul\":17993:18005   */\n      add\n        /* \"#utility.yul\":17986:18005   */\n      swap1\n      pop\n        /* \"#utility.yul\":17645:18011   */\n      swap2\n      swap1\n      pop\n      jump\t// out\n        /* \"#utility.yul\":18017:18436   */\n    tag_116:\n        /* \"#utility.yul\":18183:18187   */\n      0x00\n        /* \"#utility.yul\":18221:18223   */\n      0x20\n        /* \"#utility.yul\":18210:18219   */\n      dup3\n        /* \"#utility.yul\":18206:18224   */\n      add\n        /* \"#utility.yul\":18198:18224   */\n      swap1\n      pop\n        /* \"#utility.yul\":18270:18279   */\n      dup2\n        /* \"#utility.yul\":18264:18268   */\n      dup2\n        /* \"#utility.yul\":18260:18280   */\n      sub\n        /* \"#utility.yul\":18256:18257   */\n      0x00\n        /* \"#utility.yul\":18245:18254   */\n      dup4\n        /* \"#utility.yul\":18241:18258   */\n      add\n        /* \"#utility.yul\":18234:18281   */\n      mstore\n        /* \"#utility.yul\":18298:18429   */\n      tag_398\n        /* \"#utility.yul\":18424:18428   */\n      dup2\n        /* \"#utility.yul\":18298:18429   */\n      tag_198\n      jump\t// in\n    tag_398:\n        /* \"#utility.yul\":18290:18429   */\n      swap1\n      pop\n        /* \"#utility.yul\":18017:18436   */\n      swap2\n      swap1\n      pop\n      jump\t// out\n        /* \"#utility.yul\":18442:18608   */\n    tag_199:\n        /* \"#utility.yul\":18582:18600   */\n      0x69742068617320636f6d706c6574656400000000000000000000000000000000\n        /* \"#utility.yul\":18578:18579   */\n      0x00\n        /* \"#utility.yul\":18570:18576   */\n      dup3\n        /* \"#utility.yul\":18566:18580   */\n      add\n        /* \"#utility.yul\":18559:18601   */\n      mstore\n        /* \"#utility.yul\":18442:18608   */\n      pop\n      jump\t// out\n        /* \"#utility.yul\":18614:18980   */\n    tag_200:\n        /* \"#utility.yul\":18756:18759   */\n      0x00\n        /* \"#utility.yul\":18777:18844   */\n      tag_401\n        /* \"#utility.yul\":18841:18843   */\n      0x10\n        /* \"#utility.yul\":18836:18839   */\n      dup4\n        /* \"#utility.yul\":18777:18844   */\n      tag_166\n      jump\t// in\n    tag_401:\n        /* \"#utility.yul\":18770:18844   */\n      swap2\n      pop\n        /* \"#utility.yul\":18853:18946   */\n      tag_402\n        /* \"#utility.yul\":18942:18945   */\n      dup3\n        /* \"#utility.yul\":18853:18946   */\n      tag_199\n      jump\t// in\n    tag_402:\n        /* \"#utility.yul\":18971:18973   */\n      0x20\n        /* \"#utility.yul\":18966:18969   */\n      dup3\n        /* \"#utility.yul\":18962:18974   */\n      add\n        /* \"#utility.yul\":18955:18974   */\n      swap1\n      pop\n        /* \"#utility.yul\":18614:18980   */\n      swap2\n      swap1\n      pop\n      jump\t// out\n        /* \"#utility.yul\":18986:19405   */\n    tag_126:\n        /* \"#utility.yul\":19152:19156   */\n      0x00\n        /* \"#utility.yul\":19190:19192   */\n      0x20\n        /* \"#utility.yul\":19179:19188   */\n      dup3\n        /* \"#utility.yul\":19175:19193   */\n      add\n        /* \"#utility.yul\":19167:19193   */\n      swap1\n      pop\n        /* \"#utility.yul\":19239:19248   */\n      dup2\n        /* \"#utility.yul\":19233:19237   */\n      dup2\n        /* \"#utility.yul\":19229:19249   */\n      sub\n        /* \"#utility.yul\":19225:19226   */\n      0x00\n        /* \"#utility.yul\":19214:19223   */\n      dup4\n        /* \"#utility.yul\":19210:19227   */\n      add\n        /* \"#utility.yul\":19203:19250   */\n      mstore\n        /* \"#utility.yul\":19267:19398   */\n      tag_404\n        /* \"#utility.yul\":19393:19397   */\n      dup2\n        /* \"#utility.yul\":19267:19398   */\n      tag_200\n      jump\t// in\n    tag_404:\n        /* \"#utility.yul\":19259:19398   */\n      swap1\n      pop\n        /* \"#utility.yul\":18986:19405   */\n      swap2\n      swap1\n      pop\n      jump\t// out\n        /* \"#utility.yul\":19411:19591   */\n    tag_201:\n        /* \"#utility.yul\":19459:19536   */\n      0x4e487b7100000000000000000000000000000000000000000000000000000000\n        /* \"#utility.yul\":19456:19457   */\n      0x00\n        /* \"#utility.yul\":19449:19537   */\n      mstore\n        /* \"#utility.yul\":19556:19560   */\n      0x12\n        /* \"#utility.yul\":19553:19554   */\n      0x04\n        /* \"#utility.yul\":19546:19561   */\n      mstore\n        /* \"#utility.yul\":19580:19584   */\n      0x24\n        /* \"#utility.yul\":19577:19578   */\n      0x00\n        /* \"#utility.yul\":19570:19585   */\n      revert\n        /* \"#utility.yul\":19597:19782   */\n    tag_128:\n        /* \"#utility.yul\":19637:19638   */\n      0x00\n        /* \"#utility.yul\":19654:19674   */\n      tag_407\n        /* \"#utility.yul\":19672:19673   */\n      dup3\n        /* \"#utility.yul\":19654:19674   */\n      tag_140\n      jump\t// in\n    tag_407:\n        /* \"#utility.yul\":19649:19674   */\n      swap2\n      pop\n        /* \"#utility.yul\":19688:19708   */\n      tag_408\n        /* \"#utility.yul\":19706:19707   */\n      dup4\n        /* \"#utility.yul\":19688:19708   */\n      tag_140\n      jump\t// in\n    tag_408:\n        /* \"#utility.yul\":19683:19708   */\n      swap3\n      pop\n        /* \"#utility.yul\":19727:19728   */\n      dup3\n        /* \"#utility.yul\":19717:19752   */\n      tag_409\n      jumpi\n        /* \"#utility.yul\":19732:19750   */\n      tag_410\n      tag_201\n      jump\t// in\n    tag_410:\n        /* \"#utility.yul\":19717:19752   */\n    tag_409:\n        /* \"#utility.yul\":19774:19775   */\n      dup3\n        /* \"#utility.yul\":19771:19772   */\n      dup3\n        /* \"#utility.yul\":19767:19776   */\n      div\n        /* \"#utility.yul\":19762:19776   */\n      swap1\n      pop\n        /* \"#utility.yul\":19597:19782   */\n      swap3\n      swap2\n      pop\n      pop\n      jump\t// out\n        /* \"#utility.yul\":19788:19963   */\n    tag_202:\n        /* \"#utility.yul\":19928:19955   */\n      0x4d616a6f7269747920646f6573206e6f7420737570706f727400000000000000\n        /* \"#utility.yul\":19924:19925   */\n      0x00\n        /* \"#utility.yul\":19916:19922   */\n      dup3\n        /* \"#utility.yul\":19912:19926   */\n      add\n        /* \"#utility.yul\":19905:19956   */\n      mstore\n        /* \"#utility.yul\":19788:19963   */\n      pop\n      jump\t// out\n        /* \"#utility.yul\":19969:20335   */\n    tag_203:\n        /* \"#utility.yul\":20111:20114   */\n      0x00\n        /* \"#utility.yul\":20132:20199   */\n      tag_413\n        /* \"#utility.yul\":20196:20198   */\n      0x19\n        /* \"#utility.yul\":20191:20194   */\n      dup4\n        /* \"#utility.yul\":20132:20199   */\n      tag_166\n      jump\t// in\n    tag_413:\n        /* \"#utility.yul\":20125:20199   */\n      swap2\n      pop\n        /* \"#utility.yul\":20208:20301   */\n      tag_414\n        /* \"#utility.yul\":20297:20300   */\n      dup3\n        /* \"#utility.yul\":20208:20301   */\n      tag_202\n      jump\t// in\n    tag_414:\n        /* \"#utility.yul\":20326:20328   */\n      0x20\n        /* \"#utility.yul\":20321:20324   */\n      dup3\n        /* \"#utility.yul\":20317:20329   */\n      add\n        /* \"#utility.yul\":20310:20329   */\n      swap1\n      pop\n        /* \"#utility.yul\":19969:20335   */\n      swap2\n      swap1\n      pop\n      jump\t// out\n        /* \"#utility.yul\":20341:20760   */\n    tag_131:\n        /* \"#utility.yul\":20507:20511   */\n      0x00\n        /* \"#utility.yul\":20545:20547   */\n      0x20\n        /* \"#utility.yul\":20534:20543   */\n      dup3\n        /* \"#utility.yul\":20530:20548   */\n      add\n        /* \"#utility.yul\":20522:20548   */\n      swap1\n      pop\n        /* \"#utility.yul\":20594:20603   */\n      dup2\n        /* \"#utility.yul\":20588:20592   */\n      dup2\n        /* \"#utility.yul\":20584:20604   */\n      sub\n        /* \"#utility.yul\":20580:20581   */\n      0x00\n        /* \"#utility.yul\":20569:20578   */\n      dup4\n        /* \"#utility.yul\":20565:20582   */\n      add\n        /* \"#utility.yul\":20558:20605   */\n      mstore\n        /* \"#utility.yul\":20622:20753   */\n      tag_416\n        /* \"#utility.yul\":20748:20752   */\n      dup2\n        /* \"#utility.yul\":20622:20753   */\n      tag_203\n      jump\t// in\n    tag_416:\n        /* \"#utility.yul\":20614:20753   */\n      swap1\n      pop\n        /* \"#utility.yul\":20341:20760   */\n      swap2\n      swap1\n      pop\n      jump\t// out\n\n    auxdata: 0xa26469706673582212207c466df02eb5742ec45bc557b2df4e12c185f92a8b67e3a08c38b7fb7ce9b85164736f6c63430008110033\n}\n",
				"bytecode": {
					"linkReferences": {},
					"object": "60806040523480156200001157600080fd5b50604051620018f9380380620018f98339818101604052810190620000379190620000e3565b8160028190555080426200004c919062000159565b600481905550606460038190555033600160006101000a81548173ffffffffffffffffffffffffffffffffffffffff021916908373ffffffffffffffffffffffffffffffffffffffff160217905550505062000194565b600080fd5b6000819050919050565b620000bd81620000a8565b8114620000c957600080fd5b50565b600081519050620000dd81620000b2565b92915050565b60008060408385031215620000fd57620000fc620000a3565b5b60006200010d85828601620000cc565b92505060206200012085828601620000cc565b9150509250929050565b7f4e487b7100000000000000000000000000000000000000000000000000000000600052601160045260246000fd5b60006200016682620000a8565b91506200017383620000a8565b92508282019050808211156200018e576200018d6200012a565b5b92915050565b61175580620001a46000396000f3fe6080604052600436106100e85760003560e01c80634cb6f4a51161008a578063b1b1643111610059578063b1b1643114610283578063c59ee1dc146102ae578063d4b83992146102d9578063d845a4b314610304576100e8565b80634cb6f4a514610209578063590e1ae3146102325780638c9ffd401461023c578063a6a78c9414610267576100e8565b80631b16bb5c116100c65780631b16bb5c1461014d5780631f6d49421461017657806329dcb0cf146101b3578063481c6a75146101de576100e8565b806305759b4d146100ed57806306e99fef1461011857806312065fe014610122575b600080fd5b3480156100f957600080fd5b50610102610345565b60405161010f9190610c0f565b60405180910390f35b61012061034b565b005b34801561012e57600080fd5b506101376104a3565b6040516101449190610c0f565b60405180910390f35b34801561015957600080fd5b50610174600480360381019061016f9190610e0e565b6104ab565b005b34801561018257600080fd5b5061019d60048036038101906101989190610ebb565b6105f7565b6040516101aa9190610c0f565b60405180910390f35b3480156101bf57600080fd5b506101c861060f565b6040516101d59190610c0f565b60405180910390f35b3480156101ea57600080fd5b506101f3610615565b6040516102009190610ef7565b60405180910390f35b34801561021557600080fd5b50610230600480360381019061022b9190610f12565b61063b565b005b61023a6107aa565b005b34801561024857600080fd5b50610251610919565b60405161025e9190610c0f565b60405180910390f35b610281600480360381019061027c9190610f12565b61091f565b005b34801561028f57600080fd5b50610298610af9565b6040516102a59190610c0f565b60405180910390f35b3480156102ba57600080fd5b506102c3610aff565b6040516102d09190610c0f565b60405180910390f35b3480156102e557600080fd5b506102ee610b05565b6040516102fb9190610c0f565b60405180910390f35b34801561031057600080fd5b5061032b60048036038101906103269190610f12565b610b0b565b60405161033c959493929190610fe8565b60405180910390f35b60035481565b600454421061038f576040517f08c379a00000000000000000000000000000000000000000000000000000000081526004016103869061108e565b60405180910390fd5b6003543410156103d4576040517f08c379a00000000000000000000000000000000000000000000000000000000081526004016103cb906110fa565b60405180910390fd5b60008060003373ffffffffffffffffffffffffffffffffffffffff1673ffffffffffffffffffffffffffffffffffffffff1681526020019081526020016000205403610433576005600081548092919061042d90611149565b91905055505b346000803373ffffffffffffffffffffffffffffffffffffffff1673ffffffffffffffffffffffffffffffffffffffff16815260200190815260200160002060008282546104819190611191565b92505081905550346006600082825461049a9190611191565b92505081905550565b600047905090565b600160009054906101000a900473ffffffffffffffffffffffffffffffffffffffff1673ffffffffffffffffffffffffffffffffffffffff163373ffffffffffffffffffffffffffffffffffffffff161461053b576040517f08c379a000000000000000000000000000000000000000000000000000000000815260040161053290611211565b60405180910390fd5b600060076000600854815260200190815260200160002090506008600081548092919061056790611149565b91905055508381600001908161057d919061143d565b50828160010160006101000a81548173ffffffffffffffffffffffffffffffffffffffff021916908373ffffffffffffffffffffffffffffffffffffffff16021790555081816002018190555060018160030160006101000a81548160ff0219169083151502179055506000816004018190555050505050565b60006020528060005260406000206000915090505481565b60045481565b600160009054906101000a900473ffffffffffffffffffffffffffffffffffffffff1681565b60008060003373ffffffffffffffffffffffffffffffffffffffff1673ffffffffffffffffffffffffffffffffffffffff168152602001908152602001600020541061068657600080fd5b6000600760008381526020019081526020016000209050600015158160050160003373ffffffffffffffffffffffffffffffffffffffff1673ffffffffffffffffffffffffffffffffffffffff16815260200190815260200160002060009054906101000a900460ff16151514610732576040517f08c379a00000000000000000000000000000000000000000000000000000000081526004016107299061155b565b60405180910390fd5b60018160050160003373ffffffffffffffffffffffffffffffffffffffff1673ffffffffffffffffffffffffffffffffffffffff16815260200190815260200160002060006101000a81548160ff0219169083151502179055508060040160008154809291906107a190611149565b91905055505050565b6002546006541080156107be575060045442115b6107c757600080fd5b60008060003373ffffffffffffffffffffffffffffffffffffffff1673ffffffffffffffffffffffffffffffffffffffff1681526020019081526020016000205410610848576040517f08c379a000000000000000000000000000000000000000000000000000000000815260040161083f906115c7565b60405180910390fd5b60003390508073ffffffffffffffffffffffffffffffffffffffff166108fc6000803373ffffffffffffffffffffffffffffffffffffffff1673ffffffffffffffffffffffffffffffffffffffff168152602001908152602001600020549081150290604051600060405180830381858888f193505050501580156108d1573d6000803e3d6000fd5b5060008060003373ffffffffffffffffffffffffffffffffffffffff1673ffffffffffffffffffffffffffffffffffffffff1681526020019081526020016000208190555050565b60055481565b600160009054906101000a900473ffffffffffffffffffffffffffffffffffffffff1673ffffffffffffffffffffffffffffffffffffffff163373ffffffffffffffffffffffffffffffffffffffff16146109af576040517f08c379a00000000000000000000000000000000000000000000000000000000081526004016109a690611211565b60405180910390fd5b60025460065411156109c057600080fd5b600060076000838152602001908152602001600020905060008160030160006101000a81548160ff0219169083151502179055610a32576040517f08c379a0000000000000000000000000000000000000000000000000000000008152600401610a2990611633565b60405180910390fd5b6002600554610a419190611682565b816004015411610a86576040517f08c379a0000000000000000000000000000000000000000000000000000000008152600401610a7d906116ff565b60405180910390fd5b8060010160009054906101000a900473ffffffffffffffffffffffffffffffffffffffff1673ffffffffffffffffffffffffffffffffffffffff166108fc82600201549081150290604051600060405180830381858888f19350505050158015610af4573d6000803e3d6000fd5b505050565b60085481565b60065481565b60025481565b6007602052806000526040600020600091509050806000018054610b2e90611260565b80601f0160208091040260200160405190810160405280929190818152602001828054610b5a90611260565b8015610ba75780601f10610b7c57610100808354040283529160200191610ba7565b820191906000526020600020905b815481529060010190602001808311610b8a57829003601f168201915b5050505050908060010160009054906101000a900473ffffffffffffffffffffffffffffffffffffffff16908060020154908060030160009054906101000a900460ff16908060040154905085565b6000819050919050565b610c0981610bf6565b82525050565b6000602082019050610c246000830184610c00565b92915050565b6000604051905090565b600080fd5b600080fd5b600080fd5b600080fd5b6000601f19601f8301169050919050565b7f4e487b7100000000000000000000000000000000000000000000000000000000600052604160045260246000fd5b610c9182610c48565b810181811067ffffffffffffffff82111715610cb057610caf610c59565b5b80604052505050565b6000610cc3610c2a565b9050610ccf8282610c88565b919050565b600067ffffffffffffffff821115610cef57610cee610c59565b5b610cf882610c48565b9050602081019050919050565b82818337600083830152505050565b6000610d27610d2284610cd4565b610cb9565b905082815260208101848484011115610d4357610d42610c43565b5b610d4e848285610d05565b509392505050565b600082601f830112610d6b57610d6a610c3e565b5b8135610d7b848260208601610d14565b91505092915050565b600073ffffffffffffffffffffffffffffffffffffffff82169050919050565b6000610daf82610d84565b9050919050565b610dbf81610da4565b8114610dca57600080fd5b50565b600081359050610ddc81610db6565b92915050565b610deb81610bf6565b8114610df657600080fd5b50565b600081359050610e0881610de2565b92915050565b600080600060608486031215610e2757610e26610c34565b5b600084013567ffffffffffffffff811115610e4557610e44610c39565b5b610e5186828701610d56565b9350506020610e6286828701610dcd565b9250506040610e7386828701610df9565b9150509250925092565b6000610e8882610d84565b9050919050565b610e9881610e7d565b8114610ea357600080fd5b50565b600081359050610eb581610e8f565b92915050565b600060208284031215610ed157610ed0610c34565b5b6000610edf84828501610ea6565b91505092915050565b610ef181610e7d565b82525050565b6000602082019050610f0c6000830184610ee8565b92915050565b600060208284031215610f2857610f27610c34565b5b6000610f3684828501610df9565b91505092915050565b600081519050919050565b600082825260208201905092915050565b60005b83811015610f79578082015181840152602081019050610f5e565b60008484015250505050565b6000610f9082610f3f565b610f9a8185610f4a565b9350610faa818560208601610f5b565b610fb381610c48565b840191505092915050565b610fc781610da4565b82525050565b60008115159050919050565b610fe281610fcd565b82525050565b600060a08201905081810360008301526110028188610f85565b90506110116020830187610fbe565b61101e6040830186610c00565b61102b6060830185610fd9565b6110386080830184610c00565b9695505050505050565b7f4465616c696e652077657265206d697373696e67000000000000000000000000600082015250565b6000611078601483610f4a565b915061108382611042565b602082019050919050565b600060208201905081810360008301526110a78161106b565b9050919050565b7f596f752077657265206e6f7420626520656c696769626c650000000000000000600082015250565b60006110e4601883610f4a565b91506110ef826110ae565b602082019050919050565b60006020820190508181036000830152611113816110d7565b9050919050565b7f4e487b7100000000000000000000000000000000000000000000000000000000600052601160045260246000fd5b600061115482610bf6565b91507fffffffffffffffffffffffffffffffffffffffffffffffffffffffffffffffff82036111865761118561111a565b5b600182019050919050565b600061119c82610bf6565b91506111a783610bf6565b92508282019050808211156111bf576111be61111a565b5b92915050565b7f4f6e6c792063616e20416363657373207468652046756e6374696f6e00000000600082015250565b60006111fb601c83610f4a565b9150611206826111c5565b602082019050919050565b6000602082019050818103600083015261122a816111ee565b9050919050565b7f4e487b7100000000000000000000000000000000000000000000000000000000600052602260045260246000fd5b6000600282049050600182168061127857607f821691505b60208210810361128b5761128a611231565b5b50919050565b60008190508160005260206000209050919050565b60006020601f8301049050919050565b600082821b905092915050565b6000600883026112f37fffffffffffffffffffffffffffffffffffffffffffffffffffffffffffffffff826112b6565b6112fd86836112b6565b95508019841693508086168417925050509392505050565b6000819050919050565b600061133a61133561133084610bf6565b611315565b610bf6565b9050919050565b6000819050919050565b6113548361131f565b61136861136082611341565b8484546112c3565b825550505050565b600090565b61137d611370565b61138881848461134b565b505050565b5b818110156113ac576113a1600082611375565b60018101905061138e565b5050565b601f8211156113f1576113c281611291565b6113cb846112a6565b810160208510156113da578190505b6113ee6113e6856112a6565b83018261138d565b50505b505050565b600082821c905092915050565b6000611414600019846008026113f6565b1980831691505092915050565b600061142d8383611403565b9150826002028217905092915050565b61144682610f3f565b67ffffffffffffffff81111561145f5761145e610c59565b5b6114698254611260565b6114748282856113b0565b600060209050601f8311600181146114a75760008415611495578287015190505b61149f8582611421565b865550611507565b601f1984166114b586611291565b60005b828110156114dd578489015182556001820191506020850194506020810190506114b8565b868310156114fa57848901516114f6601f891682611403565b8355505b6001600288020188555050505b505050505050565b7f41637475616c6c7920796f7520766f7465640000000000000000000000000000600082015250565b6000611545601283610f4a565b91506115508261150f565b602082019050919050565b6000602082019050818103600083015261157481611538565b9050919050565b7f596f752077657265204e6f7420656c6769626c6520696e2046756e64696e6700600082015250565b60006115b1601f83610f4a565b91506115bc8261157b565b602082019050919050565b600060208201905081810360008301526115e0816115a4565b9050919050565b7f69742068617320636f6d706c6574656400000000000000000000000000000000600082015250565b600061161d601083610f4a565b9150611628826115e7565b602082019050919050565b6000602082019050818103600083015261164c81611610565b9050919050565b7f4e487b7100000000000000000000000000000000000000000000000000000000600052601260045260246000fd5b600061168d82610bf6565b915061169883610bf6565b9250826116a8576116a7611653565b5b828204905092915050565b7f4d616a6f7269747920646f6573206e6f7420737570706f727400000000000000600082015250565b60006116e9601983610f4a565b91506116f4826116b3565b602082019050919050565b60006020820190508181036000830152611718816116dc565b905091905056fea26469706673582212207c466df02eb5742ec45bc557b2df4e12c185f92a8b67e3a08c38b7fb7ce9b85164736f6c63430008110033",
					"opcodes": "PUSH1 0x80 PUSH1 0x40 MSTORE CALLVALUE DUP1 ISZERO PUSH3 0x11 JUMPI PUSH1 0x0 DUP1 REVERT JUMPDEST POP PUSH1 0x40 MLOAD PUSH3 0x18F9 CODESIZE SUB DUP1 PUSH3 0x18F9 DUP4 CODECOPY DUP2 DUP2 ADD PUSH1 0x40 MSTORE DUP2 ADD SWAP1 PUSH3 0x37 SWAP2 SWAP1 PUSH3 0xE3 JUMP JUMPDEST DUP2 PUSH1 0x2 DUP2 SWAP1 SSTORE POP DUP1 TIMESTAMP PUSH3 0x4C SWAP2 SWAP1 PUSH3 0x159 JUMP JUMPDEST PUSH1 0x4 DUP2 SWAP1 SSTORE POP PUSH1 0x64 PUSH1 0x3 DUP2 SWAP1 SSTORE POP CALLER PUSH1 0x1 PUSH1 0x0 PUSH2 0x100 EXP DUP2 SLOAD DUP2 PUSH20 0xFFFFFFFFFFFFFFFFFFFFFFFFFFFFFFFFFFFFFFFF MUL NOT AND SWAP1 DUP4 PUSH20 0xFFFFFFFFFFFFFFFFFFFFFFFFFFFFFFFFFFFFFFFF AND MUL OR SWAP1 SSTORE POP POP POP PUSH3 0x194 JUMP JUMPDEST PUSH1 0x0 DUP1 REVERT JUMPDEST PUSH1 0x0 DUP2 SWAP1 POP SWAP2 SWAP1 POP JUMP JUMPDEST PUSH3 0xBD DUP2 PUSH3 0xA8 JUMP JUMPDEST DUP2 EQ PUSH3 0xC9 JUMPI PUSH1 0x0 DUP1 REVERT JUMPDEST POP JUMP JUMPDEST PUSH1 0x0 DUP2 MLOAD SWAP1 POP PUSH3 0xDD DUP2 PUSH3 0xB2 JUMP JUMPDEST SWAP3 SWAP2 POP POP JUMP JUMPDEST PUSH1 0x0 DUP1 PUSH1 0x40 DUP4 DUP6 SUB SLT ISZERO PUSH3 0xFD JUMPI PUSH3 0xFC PUSH3 0xA3 JUMP JUMPDEST JUMPDEST PUSH1 0x0 PUSH3 0x10D DUP6 DUP3 DUP7 ADD PUSH3 0xCC JUMP JUMPDEST SWAP3 POP POP PUSH1 0x20 PUSH3 0x120 DUP6 DUP3 DUP7 ADD PUSH3 0xCC JUMP JUMPDEST SWAP2 POP POP SWAP3 POP SWAP3 SWAP1 POP JUMP JUMPDEST PUSH32 0x4E487B7100000000000000000000000000000000000000000000000000000000 PUSH1 0x0 MSTORE PUSH1 0x11 PUSH1 0x4 MSTORE PUSH1 0x24 PUSH1 0x0 REVERT JUMPDEST PUSH1 0x0 PUSH3 0x166 DUP3 PUSH3 0xA8 JUMP JUMPDEST SWAP2 POP PUSH3 0x173 DUP4 PUSH3 0xA8 JUMP JUMPDEST SWAP3 POP DUP3 DUP3 ADD SWAP1 POP DUP1 DUP3 GT ISZERO PUSH3 0x18E JUMPI PUSH3 0x18D PUSH3 0x12A JUMP JUMPDEST JUMPDEST SWAP3 SWAP2 POP POP JUMP JUMPDEST PUSH2 0x1755 DUP1 PUSH3 0x1A4 PUSH1 0x0 CODECOPY PUSH1 0x0 RETURN INVALID PUSH1 0x80 PUSH1 0x40 MSTORE PUSH1 0x4 CALLDATASIZE LT PUSH2 0xE8 JUMPI PUSH1 0x0 CALLDATALOAD PUSH1 0xE0 SHR DUP1 PUSH4 0x4CB6F4A5 GT PUSH2 0x8A JUMPI DUP1 PUSH4 0xB1B16431 GT PUSH2 0x59 JUMPI DUP1 PUSH4 0xB1B16431 EQ PUSH2 0x283 JUMPI DUP1 PUSH4 0xC59EE1DC EQ PUSH2 0x2AE JUMPI DUP1 PUSH4 0xD4B83992 EQ PUSH2 0x2D9 JUMPI DUP1 PUSH4 0xD845A4B3 EQ PUSH2 0x304 JUMPI PUSH2 0xE8 JUMP JUMPDEST DUP1 PUSH4 0x4CB6F4A5 EQ PUSH2 0x209 JUMPI DUP1 PUSH4 0x590E1AE3 EQ PUSH2 0x232 JUMPI DUP1 PUSH4 0x8C9FFD40 EQ PUSH2 0x23C JUMPI DUP1 PUSH4 0xA6A78C94 EQ PUSH2 0x267 JUMPI PUSH2 0xE8 JUMP JUMPDEST DUP1 PUSH4 0x1B16BB5C GT PUSH2 0xC6 JUMPI DUP1 PUSH4 0x1B16BB5C EQ PUSH2 0x14D JUMPI DUP1 PUSH4 0x1F6D4942 EQ PUSH2 0x176 JUMPI DUP1 PUSH4 0x29DCB0CF EQ PUSH2 0x1B3 JUMPI DUP1 PUSH4 0x481C6A75 EQ PUSH2 0x1DE JUMPI PUSH2 0xE8 JUMP JUMPDEST DUP1 PUSH4 0x5759B4D EQ PUSH2 0xED JUMPI DUP1 PUSH4 0x6E99FEF EQ PUSH2 0x118 JUMPI DUP1 PUSH4 0x12065FE0 EQ PUSH2 0x122 JUMPI JUMPDEST PUSH1 0x0 DUP1 REVERT JUMPDEST CALLVALUE DUP1 ISZERO PUSH2 0xF9 JUMPI PUSH1 0x0 DUP1 REVERT JUMPDEST POP PUSH2 0x102 PUSH2 0x345 JUMP JUMPDEST PUSH1 0x40 MLOAD PUSH2 0x10F SWAP2 SWAP1 PUSH2 0xC0F JUMP JUMPDEST PUSH1 0x40 MLOAD DUP1 SWAP2 SUB SWAP1 RETURN JUMPDEST PUSH2 0x120 PUSH2 0x34B JUMP JUMPDEST STOP JUMPDEST CALLVALUE DUP1 ISZERO PUSH2 0x12E JUMPI PUSH1 0x0 DUP1 REVERT JUMPDEST POP PUSH2 0x137 PUSH2 0x4A3 JUMP JUMPDEST PUSH1 0x40 MLOAD PUSH2 0x144 SWAP2 SWAP1 PUSH2 0xC0F JUMP JUMPDEST PUSH1 0x40 MLOAD DUP1 SWAP2 SUB SWAP1 RETURN JUMPDEST CALLVALUE DUP1 ISZERO PUSH2 0x159 JUMPI PUSH1 0x0 DUP1 REVERT JUMPDEST POP PUSH2 0x174 PUSH1 0x4 DUP1 CALLDATASIZE SUB DUP2 ADD SWAP1 PUSH2 0x16F SWAP2 SWAP1 PUSH2 0xE0E JUMP JUMPDEST PUSH2 0x4AB JUMP JUMPDEST STOP JUMPDEST CALLVALUE DUP1 ISZERO PUSH2 0x182 JUMPI PUSH1 0x0 DUP1 REVERT JUMPDEST POP PUSH2 0x19D PUSH1 0x4 DUP1 CALLDATASIZE SUB DUP2 ADD SWAP1 PUSH2 0x198 SWAP2 SWAP1 PUSH2 0xEBB JUMP JUMPDEST PUSH2 0x5F7 JUMP JUMPDEST PUSH1 0x40 MLOAD PUSH2 0x1AA SWAP2 SWAP1 PUSH2 0xC0F JUMP JUMPDEST PUSH1 0x40 MLOAD DUP1 SWAP2 SUB SWAP1 RETURN JUMPDEST CALLVALUE DUP1 ISZERO PUSH2 0x1BF JUMPI PUSH1 0x0 DUP1 REVERT JUMPDEST POP PUSH2 0x1C8 PUSH2 0x60F JUMP JUMPDEST PUSH1 0x40 MLOAD PUSH2 0x1D5 SWAP2 SWAP1 PUSH2 0xC0F JUMP JUMPDEST PUSH1 0x40 MLOAD DUP1 SWAP2 SUB SWAP1 RETURN JUMPDEST CALLVALUE DUP1 ISZERO PUSH2 0x1EA JUMPI PUSH1 0x0 DUP1 REVERT JUMPDEST POP PUSH2 0x1F3 PUSH2 0x615 JUMP JUMPDEST PUSH1 0x40 MLOAD PUSH2 0x200 SWAP2 SWAP1 PUSH2 0xEF7 JUMP JUMPDEST PUSH1 0x40 MLOAD DUP1 SWAP2 SUB SWAP1 RETURN JUMPDEST CALLVALUE DUP1 ISZERO PUSH2 0x215 JUMPI PUSH1 0x0 DUP1 REVERT JUMPDEST POP PUSH2 0x230 PUSH1 0x4 DUP1 CALLDATASIZE SUB DUP2 ADD SWAP1 PUSH2 0x22B SWAP2 SWAP1 PUSH2 0xF12 JUMP JUMPDEST PUSH2 0x63B JUMP JUMPDEST STOP JUMPDEST PUSH2 0x23A PUSH2 0x7AA JUMP JUMPDEST STOP JUMPDEST CALLVALUE DUP1 ISZERO PUSH2 0x248 JUMPI PUSH1 0x0 DUP1 REVERT JUMPDEST POP PUSH2 0x251 PUSH2 0x919 JUMP JUMPDEST PUSH1 0x40 MLOAD PUSH2 0x25E SWAP2 SWAP1 PUSH2 0xC0F JUMP JUMPDEST PUSH1 0x40 MLOAD DUP1 SWAP2 SUB SWAP1 RETURN JUMPDEST PUSH2 0x281 PUSH1 0x4 DUP1 CALLDATASIZE SUB DUP2 ADD SWAP1 PUSH2 0x27C SWAP2 SWAP1 PUSH2 0xF12 JUMP JUMPDEST PUSH2 0x91F JUMP JUMPDEST STOP JUMPDEST CALLVALUE DUP1 ISZERO PUSH2 0x28F JUMPI PUSH1 0x0 DUP1 REVERT JUMPDEST POP PUSH2 0x298 PUSH2 0xAF9 JUMP JUMPDEST PUSH1 0x40 MLOAD PUSH2 0x2A5 SWAP2 SWAP1 PUSH2 0xC0F JUMP JUMPDEST PUSH1 0x40 MLOAD DUP1 SWAP2 SUB SWAP1 RETURN JUMPDEST CALLVALUE DUP1 ISZERO PUSH2 0x2BA JUMPI PUSH1 0x0 DUP1 REVERT JUMPDEST POP PUSH2 0x2C3 PUSH2 0xAFF JUMP JUMPDEST PUSH1 0x40 MLOAD PUSH2 0x2D0 SWAP2 SWAP1 PUSH2 0xC0F JUMP JUMPDEST PUSH1 0x40 MLOAD DUP1 SWAP2 SUB SWAP1 RETURN JUMPDEST CALLVALUE DUP1 ISZERO PUSH2 0x2E5 JUMPI PUSH1 0x0 DUP1 REVERT JUMPDEST POP PUSH2 0x2EE PUSH2 0xB05 JUMP JUMPDEST PUSH1 0x40 MLOAD PUSH2 0x2FB SWAP2 SWAP1 PUSH2 0xC0F JUMP JUMPDEST PUSH1 0x40 MLOAD DUP1 SWAP2 SUB SWAP1 RETURN JUMPDEST CALLVALUE DUP1 ISZERO PUSH2 0x310 JUMPI PUSH1 0x0 DUP1 REVERT JUMPDEST POP PUSH2 0x32B PUSH1 0x4 DUP1 CALLDATASIZE SUB DUP2 ADD SWAP1 PUSH2 0x326 SWAP2 SWAP1 PUSH2 0xF12 JUMP JUMPDEST PUSH2 0xB0B JUMP JUMPDEST PUSH1 0x40 MLOAD PUSH2 0x33C SWAP6 SWAP5 SWAP4 SWAP3 SWAP2 SWAP1 PUSH2 0xFE8 JUMP JUMPDEST PUSH1 0x40 MLOAD DUP1 SWAP2 SUB SWAP1 RETURN JUMPDEST PUSH1 0x3 SLOAD DUP2 JUMP JUMPDEST PUSH1 0x4 SLOAD TIMESTAMP LT PUSH2 0x38F JUMPI PUSH1 0x40 MLOAD PUSH32 0x8C379A000000000000000000000000000000000000000000000000000000000 DUP2 MSTORE PUSH1 0x4 ADD PUSH2 0x386 SWAP1 PUSH2 0x108E JUMP JUMPDEST PUSH1 0x40 MLOAD DUP1 SWAP2 SUB SWAP1 REVERT JUMPDEST PUSH1 0x3 SLOAD CALLVALUE LT ISZERO PUSH2 0x3D4 JUMPI PUSH1 0x40 MLOAD PUSH32 0x8C379A000000000000000000000000000000000000000000000000000000000 DUP2 MSTORE PUSH1 0x4 ADD PUSH2 0x3CB SWAP1 PUSH2 0x10FA JUMP JUMPDEST PUSH1 0x40 MLOAD DUP1 SWAP2 SUB SWAP1 REVERT JUMPDEST PUSH1 0x0 DUP1 PUSH1 0x0 CALLER PUSH20 0xFFFFFFFFFFFFFFFFFFFFFFFFFFFFFFFFFFFFFFFF AND PUSH20 0xFFFFFFFFFFFFFFFFFFFFFFFFFFFFFFFFFFFFFFFF AND DUP2 MSTORE PUSH1 0x20 ADD SWAP1 DUP2 MSTORE PUSH1 0x20 ADD PUSH1 0x0 KECCAK256 SLOAD SUB PUSH2 0x433 JUMPI PUSH1 0x5 PUSH1 0x0 DUP2 SLOAD DUP1 SWAP3 SWAP2 SWAP1 PUSH2 0x42D SWAP1 PUSH2 0x1149 JUMP JUMPDEST SWAP2 SWAP1 POP SSTORE POP JUMPDEST CALLVALUE PUSH1 0x0 DUP1 CALLER PUSH20 0xFFFFFFFFFFFFFFFFFFFFFFFFFFFFFFFFFFFFFFFF AND PUSH20 0xFFFFFFFFFFFFFFFFFFFFFFFFFFFFFFFFFFFFFFFF AND DUP2 MSTORE PUSH1 0x20 ADD SWAP1 DUP2 MSTORE PUSH1 0x20 ADD PUSH1 0x0 KECCAK256 PUSH1 0x0 DUP3 DUP3 SLOAD PUSH2 0x481 SWAP2 SWAP1 PUSH2 0x1191 JUMP JUMPDEST SWAP3 POP POP DUP2 SWAP1 SSTORE POP CALLVALUE PUSH1 0x6 PUSH1 0x0 DUP3 DUP3 SLOAD PUSH2 0x49A SWAP2 SWAP1 PUSH2 0x1191 JUMP JUMPDEST SWAP3 POP POP DUP2 SWAP1 SSTORE POP JUMP JUMPDEST PUSH1 0x0 SELFBALANCE SWAP1 POP SWAP1 JUMP JUMPDEST PUSH1 0x1 PUSH1 0x0 SWAP1 SLOAD SWAP1 PUSH2 0x100 EXP SWAP1 DIV PUSH20 0xFFFFFFFFFFFFFFFFFFFFFFFFFFFFFFFFFFFFFFFF AND PUSH20 0xFFFFFFFFFFFFFFFFFFFFFFFFFFFFFFFFFFFFFFFF AND CALLER PUSH20 0xFFFFFFFFFFFFFFFFFFFFFFFFFFFFFFFFFFFFFFFF AND EQ PUSH2 0x53B JUMPI PUSH1 0x40 MLOAD PUSH32 0x8C379A000000000000000000000000000000000000000000000000000000000 DUP2 MSTORE PUSH1 0x4 ADD PUSH2 0x532 SWAP1 PUSH2 0x1211 JUMP JUMPDEST PUSH1 0x40 MLOAD DUP1 SWAP2 SUB SWAP1 REVERT JUMPDEST PUSH1 0x0 PUSH1 0x7 PUSH1 0x0 PUSH1 0x8 SLOAD DUP2 MSTORE PUSH1 0x20 ADD SWAP1 DUP2 MSTORE PUSH1 0x20 ADD PUSH1 0x0 KECCAK256 SWAP1 POP PUSH1 0x8 PUSH1 0x0 DUP2 SLOAD DUP1 SWAP3 SWAP2 SWAP1 PUSH2 0x567 SWAP1 PUSH2 0x1149 JUMP JUMPDEST SWAP2 SWAP1 POP SSTORE POP DUP4 DUP2 PUSH1 0x0 ADD SWAP1 DUP2 PUSH2 0x57D SWAP2 SWAP1 PUSH2 0x143D JUMP JUMPDEST POP DUP3 DUP2 PUSH1 0x1 ADD PUSH1 0x0 PUSH2 0x100 EXP DUP2 SLOAD DUP2 PUSH20 0xFFFFFFFFFFFFFFFFFFFFFFFFFFFFFFFFFFFFFFFF MUL NOT AND SWAP1 DUP4 PUSH20 0xFFFFFFFFFFFFFFFFFFFFFFFFFFFFFFFFFFFFFFFF AND MUL OR SWAP1 SSTORE POP DUP2 DUP2 PUSH1 0x2 ADD DUP2 SWAP1 SSTORE POP PUSH1 0x1 DUP2 PUSH1 0x3 ADD PUSH1 0x0 PUSH2 0x100 EXP DUP2 SLOAD DUP2 PUSH1 0xFF MUL NOT AND SWAP1 DUP4 ISZERO ISZERO MUL OR SWAP1 SSTORE POP PUSH1 0x0 DUP2 PUSH1 0x4 ADD DUP2 SWAP1 SSTORE POP POP POP POP POP JUMP JUMPDEST PUSH1 0x0 PUSH1 0x20 MSTORE DUP1 PUSH1 0x0 MSTORE PUSH1 0x40 PUSH1 0x0 KECCAK256 PUSH1 0x0 SWAP2 POP SWAP1 POP SLOAD DUP2 JUMP JUMPDEST PUSH1 0x4 SLOAD DUP2 JUMP JUMPDEST PUSH1 0x1 PUSH1 0x0 SWAP1 SLOAD SWAP1 PUSH2 0x100 EXP SWAP1 DIV PUSH20 0xFFFFFFFFFFFFFFFFFFFFFFFFFFFFFFFFFFFFFFFF AND DUP2 JUMP JUMPDEST PUSH1 0x0 DUP1 PUSH1 0x0 CALLER PUSH20 0xFFFFFFFFFFFFFFFFFFFFFFFFFFFFFFFFFFFFFFFF AND PUSH20 0xFFFFFFFFFFFFFFFFFFFFFFFFFFFFFFFFFFFFFFFF AND DUP2 MSTORE PUSH1 0x20 ADD SWAP1 DUP2 MSTORE PUSH1 0x20 ADD PUSH1 0x0 KECCAK256 SLOAD LT PUSH2 0x686 JUMPI PUSH1 0x0 DUP1 REVERT JUMPDEST PUSH1 0x0 PUSH1 0x7 PUSH1 0x0 DUP4 DUP2 MSTORE PUSH1 0x20 ADD SWAP1 DUP2 MSTORE PUSH1 0x20 ADD PUSH1 0x0 KECCAK256 SWAP1 POP PUSH1 0x0 ISZERO ISZERO DUP2 PUSH1 0x5 ADD PUSH1 0x0 CALLER PUSH20 0xFFFFFFFFFFFFFFFFFFFFFFFFFFFFFFFFFFFFFFFF AND PUSH20 0xFFFFFFFFFFFFFFFFFFFFFFFFFFFFFFFFFFFFFFFF AND DUP2 MSTORE PUSH1 0x20 ADD SWAP1 DUP2 MSTORE PUSH1 0x20 ADD PUSH1 0x0 KECCAK256 PUSH1 0x0 SWAP1 SLOAD SWAP1 PUSH2 0x100 EXP SWAP1 DIV PUSH1 0xFF AND ISZERO ISZERO EQ PUSH2 0x732 JUMPI PUSH1 0x40 MLOAD PUSH32 0x8C379A000000000000000000000000000000000000000000000000000000000 DUP2 MSTORE PUSH1 0x4 ADD PUSH2 0x729 SWAP1 PUSH2 0x155B JUMP JUMPDEST PUSH1 0x40 MLOAD DUP1 SWAP2 SUB SWAP1 REVERT JUMPDEST PUSH1 0x1 DUP2 PUSH1 0x5 ADD PUSH1 0x0 CALLER PUSH20 0xFFFFFFFFFFFFFFFFFFFFFFFFFFFFFFFFFFFFFFFF AND PUSH20 0xFFFFFFFFFFFFFFFFFFFFFFFFFFFFFFFFFFFFFFFF AND DUP2 MSTORE PUSH1 0x20 ADD SWAP1 DUP2 MSTORE PUSH1 0x20 ADD PUSH1 0x0 KECCAK256 PUSH1 0x0 PUSH2 0x100 EXP DUP2 SLOAD DUP2 PUSH1 0xFF MUL NOT AND SWAP1 DUP4 ISZERO ISZERO MUL OR SWAP1 SSTORE POP DUP1 PUSH1 0x4 ADD PUSH1 0x0 DUP2 SLOAD DUP1 SWAP3 SWAP2 SWAP1 PUSH2 0x7A1 SWAP1 PUSH2 0x1149 JUMP JUMPDEST SWAP2 SWAP1 POP SSTORE POP POP POP JUMP JUMPDEST PUSH1 0x2 SLOAD PUSH1 0x6 SLOAD LT DUP1 ISZERO PUSH2 0x7BE JUMPI POP PUSH1 0x4 SLOAD TIMESTAMP GT JUMPDEST PUSH2 0x7C7 JUMPI PUSH1 0x0 DUP1 REVERT JUMPDEST PUSH1 0x0 DUP1 PUSH1 0x0 CALLER PUSH20 0xFFFFFFFFFFFFFFFFFFFFFFFFFFFFFFFFFFFFFFFF AND PUSH20 0xFFFFFFFFFFFFFFFFFFFFFFFFFFFFFFFFFFFFFFFF AND DUP2 MSTORE PUSH1 0x20 ADD SWAP1 DUP2 MSTORE PUSH1 0x20 ADD PUSH1 0x0 KECCAK256 SLOAD LT PUSH2 0x848 JUMPI PUSH1 0x40 MLOAD PUSH32 0x8C379A000000000000000000000000000000000000000000000000000000000 DUP2 MSTORE PUSH1 0x4 ADD PUSH2 0x83F SWAP1 PUSH2 0x15C7 JUMP JUMPDEST PUSH1 0x40 MLOAD DUP1 SWAP2 SUB SWAP1 REVERT JUMPDEST PUSH1 0x0 CALLER SWAP1 POP DUP1 PUSH20 0xFFFFFFFFFFFFFFFFFFFFFFFFFFFFFFFFFFFFFFFF AND PUSH2 0x8FC PUSH1 0x0 DUP1 CALLER PUSH20 0xFFFFFFFFFFFFFFFFFFFFFFFFFFFFFFFFFFFFFFFF AND PUSH20 0xFFFFFFFFFFFFFFFFFFFFFFFFFFFFFFFFFFFFFFFF AND DUP2 MSTORE PUSH1 0x20 ADD SWAP1 DUP2 MSTORE PUSH1 0x20 ADD PUSH1 0x0 KECCAK256 SLOAD SWAP1 DUP2 ISZERO MUL SWAP1 PUSH1 0x40 MLOAD PUSH1 0x0 PUSH1 0x40 MLOAD DUP1 DUP4 SUB DUP2 DUP6 DUP9 DUP9 CALL SWAP4 POP POP POP POP ISZERO DUP1 ISZERO PUSH2 0x8D1 JUMPI RETURNDATASIZE PUSH1 0x0 DUP1 RETURNDATACOPY RETURNDATASIZE PUSH1 0x0 REVERT JUMPDEST POP PUSH1 0x0 DUP1 PUSH1 0x0 CALLER PUSH20 0xFFFFFFFFFFFFFFFFFFFFFFFFFFFFFFFFFFFFFFFF AND PUSH20 0xFFFFFFFFFFFFFFFFFFFFFFFFFFFFFFFFFFFFFFFF AND DUP2 MSTORE PUSH1 0x20 ADD SWAP1 DUP2 MSTORE PUSH1 0x20 ADD PUSH1 0x0 KECCAK256 DUP2 SWAP1 SSTORE POP POP JUMP JUMPDEST PUSH1 0x5 SLOAD DUP2 JUMP JUMPDEST PUSH1 0x1 PUSH1 0x0 SWAP1 SLOAD SWAP1 PUSH2 0x100 EXP SWAP1 DIV PUSH20 0xFFFFFFFFFFFFFFFFFFFFFFFFFFFFFFFFFFFFFFFF AND PUSH20 0xFFFFFFFFFFFFFFFFFFFFFFFFFFFFFFFFFFFFFFFF AND CALLER PUSH20 0xFFFFFFFFFFFFFFFFFFFFFFFFFFFFFFFFFFFFFFFF AND EQ PUSH2 0x9AF JUMPI PUSH1 0x40 MLOAD PUSH32 0x8C379A000000000000000000000000000000000000000000000000000000000 DUP2 MSTORE PUSH1 0x4 ADD PUSH2 0x9A6 SWAP1 PUSH2 0x1211 JUMP JUMPDEST PUSH1 0x40 MLOAD DUP1 SWAP2 SUB SWAP1 REVERT JUMPDEST PUSH1 0x2 SLOAD PUSH1 0x6 SLOAD GT ISZERO PUSH2 0x9C0 JUMPI PUSH1 0x0 DUP1 REVERT JUMPDEST PUSH1 0x0 PUSH1 0x7 PUSH1 0x0 DUP4 DUP2 MSTORE PUSH1 0x20 ADD SWAP1 DUP2 MSTORE PUSH1 0x20 ADD PUSH1 0x0 KECCAK256 SWAP1 POP PUSH1 0x0 DUP2 PUSH1 0x3 ADD PUSH1 0x0 PUSH2 0x100 EXP DUP2 SLOAD DUP2 PUSH1 0xFF MUL NOT AND SWAP1 DUP4 ISZERO ISZERO MUL OR SWAP1 SSTORE PUSH2 0xA32 JUMPI PUSH1 0x40 MLOAD PUSH32 0x8C379A000000000000000000000000000000000000000000000000000000000 DUP2 MSTORE PUSH1 0x4 ADD PUSH2 0xA29 SWAP1 PUSH2 0x1633 JUMP JUMPDEST PUSH1 0x40 MLOAD DUP1 SWAP2 SUB SWAP1 REVERT JUMPDEST PUSH1 0x2 PUSH1 0x5 SLOAD PUSH2 0xA41 SWAP2 SWAP1 PUSH2 0x1682 JUMP JUMPDEST DUP2 PUSH1 0x4 ADD SLOAD GT PUSH2 0xA86 JUMPI PUSH1 0x40 MLOAD PUSH32 0x8C379A000000000000000000000000000000000000000000000000000000000 DUP2 MSTORE PUSH1 0x4 ADD PUSH2 0xA7D SWAP1 PUSH2 0x16FF JUMP JUMPDEST PUSH1 0x40 MLOAD DUP1 SWAP2 SUB SWAP1 REVERT JUMPDEST DUP1 PUSH1 0x1 ADD PUSH1 0x0 SWAP1 SLOAD SWAP1 PUSH2 0x100 EXP SWAP1 DIV PUSH20 0xFFFFFFFFFFFFFFFFFFFFFFFFFFFFFFFFFFFFFFFF AND PUSH20 0xFFFFFFFFFFFFFFFFFFFFFFFFFFFFFFFFFFFFFFFF AND PUSH2 0x8FC DUP3 PUSH1 0x2 ADD SLOAD SWAP1 DUP2 ISZERO MUL SWAP1 PUSH1 0x40 MLOAD PUSH1 0x0 PUSH1 0x40 MLOAD DUP1 DUP4 SUB DUP2 DUP6 DUP9 DUP9 CALL SWAP4 POP POP POP POP ISZERO DUP1 ISZERO PUSH2 0xAF4 JUMPI RETURNDATASIZE PUSH1 0x0 DUP1 RETURNDATACOPY RETURNDATASIZE PUSH1 0x0 REVERT JUMPDEST POP POP POP JUMP JUMPDEST PUSH1 0x8 SLOAD DUP2 JUMP JUMPDEST PUSH1 0x6 SLOAD DUP2 JUMP JUMPDEST PUSH1 0x2 SLOAD DUP2 JUMP JUMPDEST PUSH1 0x7 PUSH1 0x20 MSTORE DUP1 PUSH1 0x0 MSTORE PUSH1 0x40 PUSH1 0x0 KECCAK256 PUSH1 0x0 SWAP2 POP SWAP1 POP DUP1 PUSH1 0x0 ADD DUP1 SLOAD PUSH2 0xB2E SWAP1 PUSH2 0x1260 JUMP JUMPDEST DUP1 PUSH1 0x1F ADD PUSH1 0x20 DUP1 SWAP2 DIV MUL PUSH1 0x20 ADD PUSH1 0x40 MLOAD SWAP1 DUP2 ADD PUSH1 0x40 MSTORE DUP1 SWAP3 SWAP2 SWAP1 DUP2 DUP2 MSTORE PUSH1 0x20 ADD DUP3 DUP1 SLOAD PUSH2 0xB5A SWAP1 PUSH2 0x1260 JUMP JUMPDEST DUP1 ISZERO PUSH2 0xBA7 JUMPI DUP1 PUSH1 0x1F LT PUSH2 0xB7C JUMPI PUSH2 0x100 DUP1 DUP4 SLOAD DIV MUL DUP4 MSTORE SWAP2 PUSH1 0x20 ADD SWAP2 PUSH2 0xBA7 JUMP JUMPDEST DUP3 ADD SWAP2 SWAP1 PUSH1 0x0 MSTORE PUSH1 0x20 PUSH1 0x0 KECCAK256 SWAP1 JUMPDEST DUP2 SLOAD DUP2 MSTORE SWAP1 PUSH1 0x1 ADD SWAP1 PUSH1 0x20 ADD DUP1 DUP4 GT PUSH2 0xB8A JUMPI DUP3 SWAP1 SUB PUSH1 0x1F AND DUP3 ADD SWAP2 JUMPDEST POP POP POP POP POP SWAP1 DUP1 PUSH1 0x1 ADD PUSH1 0x0 SWAP1 SLOAD SWAP1 PUSH2 0x100 EXP SWAP1 DIV PUSH20 0xFFFFFFFFFFFFFFFFFFFFFFFFFFFFFFFFFFFFFFFF AND SWAP1 DUP1 PUSH1 0x2 ADD SLOAD SWAP1 DUP1 PUSH1 0x3 ADD PUSH1 0x0 SWAP1 SLOAD SWAP1 PUSH2 0x100 EXP SWAP1 DIV PUSH1 0xFF AND SWAP1 DUP1 PUSH1 0x4 ADD SLOAD SWAP1 POP DUP6 JUMP JUMPDEST PUSH1 0x0 DUP2 SWAP1 POP SWAP2 SWAP1 POP JUMP JUMPDEST PUSH2 0xC09 DUP2 PUSH2 0xBF6 JUMP JUMPDEST DUP3 MSTORE POP POP JUMP JUMPDEST PUSH1 0x0 PUSH1 0x20 DUP3 ADD SWAP1 POP PUSH2 0xC24 PUSH1 0x0 DUP4 ADD DUP5 PUSH2 0xC00 JUMP JUMPDEST SWAP3 SWAP2 POP POP JUMP JUMPDEST PUSH1 0x0 PUSH1 0x40 MLOAD SWAP1 POP SWAP1 JUMP JUMPDEST PUSH1 0x0 DUP1 REVERT JUMPDEST PUSH1 0x0 DUP1 REVERT JUMPDEST PUSH1 0x0 DUP1 REVERT JUMPDEST PUSH1 0x0 DUP1 REVERT JUMPDEST PUSH1 0x0 PUSH1 0x1F NOT PUSH1 0x1F DUP4 ADD AND SWAP1 POP SWAP2 SWAP1 POP JUMP JUMPDEST PUSH32 0x4E487B7100000000000000000000000000000000000000000000000000000000 PUSH1 0x0 MSTORE PUSH1 0x41 PUSH1 0x4 MSTORE PUSH1 0x24 PUSH1 0x0 REVERT JUMPDEST PUSH2 0xC91 DUP3 PUSH2 0xC48 JUMP JUMPDEST DUP2 ADD DUP2 DUP2 LT PUSH8 0xFFFFFFFFFFFFFFFF DUP3 GT OR ISZERO PUSH2 0xCB0 JUMPI PUSH2 0xCAF PUSH2 0xC59 JUMP JUMPDEST JUMPDEST DUP1 PUSH1 0x40 MSTORE POP POP POP JUMP JUMPDEST PUSH1 0x0 PUSH2 0xCC3 PUSH2 0xC2A JUMP JUMPDEST SWAP1 POP PUSH2 0xCCF DUP3 DUP3 PUSH2 0xC88 JUMP JUMPDEST SWAP2 SWAP1 POP JUMP JUMPDEST PUSH1 0x0 PUSH8 0xFFFFFFFFFFFFFFFF DUP3 GT ISZERO PUSH2 0xCEF JUMPI PUSH2 0xCEE PUSH2 0xC59 JUMP JUMPDEST JUMPDEST PUSH2 0xCF8 DUP3 PUSH2 0xC48 JUMP JUMPDEST SWAP1 POP PUSH1 0x20 DUP2 ADD SWAP1 POP SWAP2 SWAP1 POP JUMP JUMPDEST DUP3 DUP2 DUP4 CALLDATACOPY PUSH1 0x0 DUP4 DUP4 ADD MSTORE POP POP POP JUMP JUMPDEST PUSH1 0x0 PUSH2 0xD27 PUSH2 0xD22 DUP5 PUSH2 0xCD4 JUMP JUMPDEST PUSH2 0xCB9 JUMP JUMPDEST SWAP1 POP DUP3 DUP2 MSTORE PUSH1 0x20 DUP2 ADD DUP5 DUP5 DUP5 ADD GT ISZERO PUSH2 0xD43 JUMPI PUSH2 0xD42 PUSH2 0xC43 JUMP JUMPDEST JUMPDEST PUSH2 0xD4E DUP5 DUP3 DUP6 PUSH2 0xD05 JUMP JUMPDEST POP SWAP4 SWAP3 POP POP POP JUMP JUMPDEST PUSH1 0x0 DUP3 PUSH1 0x1F DUP4 ADD SLT PUSH2 0xD6B JUMPI PUSH2 0xD6A PUSH2 0xC3E JUMP JUMPDEST JUMPDEST DUP2 CALLDATALOAD PUSH2 0xD7B DUP5 DUP3 PUSH1 0x20 DUP7 ADD PUSH2 0xD14 JUMP JUMPDEST SWAP2 POP POP SWAP3 SWAP2 POP POP JUMP JUMPDEST PUSH1 0x0 PUSH20 0xFFFFFFFFFFFFFFFFFFFFFFFFFFFFFFFFFFFFFFFF DUP3 AND SWAP1 POP SWAP2 SWAP1 POP JUMP JUMPDEST PUSH1 0x0 PUSH2 0xDAF DUP3 PUSH2 0xD84 JUMP JUMPDEST SWAP1 POP SWAP2 SWAP1 POP JUMP JUMPDEST PUSH2 0xDBF DUP2 PUSH2 0xDA4 JUMP JUMPDEST DUP2 EQ PUSH2 0xDCA JUMPI PUSH1 0x0 DUP1 REVERT JUMPDEST POP JUMP JUMPDEST PUSH1 0x0 DUP2 CALLDATALOAD SWAP1 POP PUSH2 0xDDC DUP2 PUSH2 0xDB6 JUMP JUMPDEST SWAP3 SWAP2 POP POP JUMP JUMPDEST PUSH2 0xDEB DUP2 PUSH2 0xBF6 JUMP JUMPDEST DUP2 EQ PUSH2 0xDF6 JUMPI PUSH1 0x0 DUP1 REVERT JUMPDEST POP JUMP JUMPDEST PUSH1 0x0 DUP2 CALLDATALOAD SWAP1 POP PUSH2 0xE08 DUP2 PUSH2 0xDE2 JUMP JUMPDEST SWAP3 SWAP2 POP POP JUMP JUMPDEST PUSH1 0x0 DUP1 PUSH1 0x0 PUSH1 0x60 DUP5 DUP7 SUB SLT ISZERO PUSH2 0xE27 JUMPI PUSH2 0xE26 PUSH2 0xC34 JUMP JUMPDEST JUMPDEST PUSH1 0x0 DUP5 ADD CALLDATALOAD PUSH8 0xFFFFFFFFFFFFFFFF DUP2 GT ISZERO PUSH2 0xE45 JUMPI PUSH2 0xE44 PUSH2 0xC39 JUMP JUMPDEST JUMPDEST PUSH2 0xE51 DUP7 DUP3 DUP8 ADD PUSH2 0xD56 JUMP JUMPDEST SWAP4 POP POP PUSH1 0x20 PUSH2 0xE62 DUP7 DUP3 DUP8 ADD PUSH2 0xDCD JUMP JUMPDEST SWAP3 POP POP PUSH1 0x40 PUSH2 0xE73 DUP7 DUP3 DUP8 ADD PUSH2 0xDF9 JUMP JUMPDEST SWAP2 POP POP SWAP3 POP SWAP3 POP SWAP3 JUMP JUMPDEST PUSH1 0x0 PUSH2 0xE88 DUP3 PUSH2 0xD84 JUMP JUMPDEST SWAP1 POP SWAP2 SWAP1 POP JUMP JUMPDEST PUSH2 0xE98 DUP2 PUSH2 0xE7D JUMP JUMPDEST DUP2 EQ PUSH2 0xEA3 JUMPI PUSH1 0x0 DUP1 REVERT JUMPDEST POP JUMP JUMPDEST PUSH1 0x0 DUP2 CALLDATALOAD SWAP1 POP PUSH2 0xEB5 DUP2 PUSH2 0xE8F JUMP JUMPDEST SWAP3 SWAP2 POP POP JUMP JUMPDEST PUSH1 0x0 PUSH1 0x20 DUP3 DUP5 SUB SLT ISZERO PUSH2 0xED1 JUMPI PUSH2 0xED0 PUSH2 0xC34 JUMP JUMPDEST JUMPDEST PUSH1 0x0 PUSH2 0xEDF DUP5 DUP3 DUP6 ADD PUSH2 0xEA6 JUMP JUMPDEST SWAP2 POP POP SWAP3 SWAP2 POP POP JUMP JUMPDEST PUSH2 0xEF1 DUP2 PUSH2 0xE7D JUMP JUMPDEST DUP3 MSTORE POP POP JUMP JUMPDEST PUSH1 0x0 PUSH1 0x20 DUP3 ADD SWAP1 POP PUSH2 0xF0C PUSH1 0x0 DUP4 ADD DUP5 PUSH2 0xEE8 JUMP JUMPDEST SWAP3 SWAP2 POP POP JUMP JUMPDEST PUSH1 0x0 PUSH1 0x20 DUP3 DUP5 SUB SLT ISZERO PUSH2 0xF28 JUMPI PUSH2 0xF27 PUSH2 0xC34 JUMP JUMPDEST JUMPDEST PUSH1 0x0 PUSH2 0xF36 DUP5 DUP3 DUP6 ADD PUSH2 0xDF9 JUMP JUMPDEST SWAP2 POP POP SWAP3 SWAP2 POP POP JUMP JUMPDEST PUSH1 0x0 DUP2 MLOAD SWAP1 POP SWAP2 SWAP1 POP JUMP JUMPDEST PUSH1 0x0 DUP3 DUP3 MSTORE PUSH1 0x20 DUP3 ADD SWAP1 POP SWAP3 SWAP2 POP POP JUMP JUMPDEST PUSH1 0x0 JUMPDEST DUP4 DUP2 LT ISZERO PUSH2 0xF79 JUMPI DUP1 DUP3 ADD MLOAD DUP2 DUP5 ADD MSTORE PUSH1 0x20 DUP2 ADD SWAP1 POP PUSH2 0xF5E JUMP JUMPDEST PUSH1 0x0 DUP5 DUP5 ADD MSTORE POP POP POP POP JUMP JUMPDEST PUSH1 0x0 PUSH2 0xF90 DUP3 PUSH2 0xF3F JUMP JUMPDEST PUSH2 0xF9A DUP2 DUP6 PUSH2 0xF4A JUMP JUMPDEST SWAP4 POP PUSH2 0xFAA DUP2 DUP6 PUSH1 0x20 DUP7 ADD PUSH2 0xF5B JUMP JUMPDEST PUSH2 0xFB3 DUP2 PUSH2 0xC48 JUMP JUMPDEST DUP5 ADD SWAP2 POP POP SWAP3 SWAP2 POP POP JUMP JUMPDEST PUSH2 0xFC7 DUP2 PUSH2 0xDA4 JUMP JUMPDEST DUP3 MSTORE POP POP JUMP JUMPDEST PUSH1 0x0 DUP2 ISZERO ISZERO SWAP1 POP SWAP2 SWAP1 POP JUMP JUMPDEST PUSH2 0xFE2 DUP2 PUSH2 0xFCD JUMP JUMPDEST DUP3 MSTORE POP POP JUMP JUMPDEST PUSH1 0x0 PUSH1 0xA0 DUP3 ADD SWAP1 POP DUP2 DUP2 SUB PUSH1 0x0 DUP4 ADD MSTORE PUSH2 0x1002 DUP2 DUP9 PUSH2 0xF85 JUMP JUMPDEST SWAP1 POP PUSH2 0x1011 PUSH1 0x20 DUP4 ADD DUP8 PUSH2 0xFBE JUMP JUMPDEST PUSH2 0x101E PUSH1 0x40 DUP4 ADD DUP7 PUSH2 0xC00 JUMP JUMPDEST PUSH2 0x102B PUSH1 0x60 DUP4 ADD DUP6 PUSH2 0xFD9 JUMP JUMPDEST PUSH2 0x1038 PUSH1 0x80 DUP4 ADD DUP5 PUSH2 0xC00 JUMP JUMPDEST SWAP7 SWAP6 POP POP POP POP POP POP JUMP JUMPDEST PUSH32 0x4465616C696E652077657265206D697373696E67000000000000000000000000 PUSH1 0x0 DUP3 ADD MSTORE POP JUMP JUMPDEST PUSH1 0x0 PUSH2 0x1078 PUSH1 0x14 DUP4 PUSH2 0xF4A JUMP JUMPDEST SWAP2 POP PUSH2 0x1083 DUP3 PUSH2 0x1042 JUMP JUMPDEST PUSH1 0x20 DUP3 ADD SWAP1 POP SWAP2 SWAP1 POP JUMP JUMPDEST PUSH1 0x0 PUSH1 0x20 DUP3 ADD SWAP1 POP DUP2 DUP2 SUB PUSH1 0x0 DUP4 ADD MSTORE PUSH2 0x10A7 DUP2 PUSH2 0x106B JUMP JUMPDEST SWAP1 POP SWAP2 SWAP1 POP JUMP JUMPDEST PUSH32 0x596F752077657265206E6F7420626520656C696769626C650000000000000000 PUSH1 0x0 DUP3 ADD MSTORE POP JUMP JUMPDEST PUSH1 0x0 PUSH2 0x10E4 PUSH1 0x18 DUP4 PUSH2 0xF4A JUMP JUMPDEST SWAP2 POP PUSH2 0x10EF DUP3 PUSH2 0x10AE JUMP JUMPDEST PUSH1 0x20 DUP3 ADD SWAP1 POP SWAP2 SWAP1 POP JUMP JUMPDEST PUSH1 0x0 PUSH1 0x20 DUP3 ADD SWAP1 POP DUP2 DUP2 SUB PUSH1 0x0 DUP4 ADD MSTORE PUSH2 0x1113 DUP2 PUSH2 0x10D7 JUMP JUMPDEST SWAP1 POP SWAP2 SWAP1 POP JUMP JUMPDEST PUSH32 0x4E487B7100000000000000000000000000000000000000000000000000000000 PUSH1 0x0 MSTORE PUSH1 0x11 PUSH1 0x4 MSTORE PUSH1 0x24 PUSH1 0x0 REVERT JUMPDEST PUSH1 0x0 PUSH2 0x1154 DUP3 PUSH2 0xBF6 JUMP JUMPDEST SWAP2 POP PUSH32 0xFFFFFFFFFFFFFFFFFFFFFFFFFFFFFFFFFFFFFFFFFFFFFFFFFFFFFFFFFFFFFFFF DUP3 SUB PUSH2 0x1186 JUMPI PUSH2 0x1185 PUSH2 0x111A JUMP JUMPDEST JUMPDEST PUSH1 0x1 DUP3 ADD SWAP1 POP SWAP2 SWAP1 POP JUMP JUMPDEST PUSH1 0x0 PUSH2 0x119C DUP3 PUSH2 0xBF6 JUMP JUMPDEST SWAP2 POP PUSH2 0x11A7 DUP4 PUSH2 0xBF6 JUMP JUMPDEST SWAP3 POP DUP3 DUP3 ADD SWAP1 POP DUP1 DUP3 GT ISZERO PUSH2 0x11BF JUMPI PUSH2 0x11BE PUSH2 0x111A JUMP JUMPDEST JUMPDEST SWAP3 SWAP2 POP POP JUMP JUMPDEST PUSH32 0x4F6E6C792063616E20416363657373207468652046756E6374696F6E00000000 PUSH1 0x0 DUP3 ADD MSTORE POP JUMP JUMPDEST PUSH1 0x0 PUSH2 0x11FB PUSH1 0x1C DUP4 PUSH2 0xF4A JUMP JUMPDEST SWAP2 POP PUSH2 0x1206 DUP3 PUSH2 0x11C5 JUMP JUMPDEST PUSH1 0x20 DUP3 ADD SWAP1 POP SWAP2 SWAP1 POP JUMP JUMPDEST PUSH1 0x0 PUSH1 0x20 DUP3 ADD SWAP1 POP DUP2 DUP2 SUB PUSH1 0x0 DUP4 ADD MSTORE PUSH2 0x122A DUP2 PUSH2 0x11EE JUMP JUMPDEST SWAP1 POP SWAP2 SWAP1 POP JUMP JUMPDEST PUSH32 0x4E487B7100000000000000000000000000000000000000000000000000000000 PUSH1 0x0 MSTORE PUSH1 0x22 PUSH1 0x4 MSTORE PUSH1 0x24 PUSH1 0x0 REVERT JUMPDEST PUSH1 0x0 PUSH1 0x2 DUP3 DIV SWAP1 POP PUSH1 0x1 DUP3 AND DUP1 PUSH2 0x1278 JUMPI PUSH1 0x7F DUP3 AND SWAP2 POP JUMPDEST PUSH1 0x20 DUP3 LT DUP2 SUB PUSH2 0x128B JUMPI PUSH2 0x128A PUSH2 0x1231 JUMP JUMPDEST JUMPDEST POP SWAP2 SWAP1 POP JUMP JUMPDEST PUSH1 0x0 DUP2 SWAP1 POP DUP2 PUSH1 0x0 MSTORE PUSH1 0x20 PUSH1 0x0 KECCAK256 SWAP1 POP SWAP2 SWAP1 POP JUMP JUMPDEST PUSH1 0x0 PUSH1 0x20 PUSH1 0x1F DUP4 ADD DIV SWAP1 POP SWAP2 SWAP1 POP JUMP JUMPDEST PUSH1 0x0 DUP3 DUP3 SHL SWAP1 POP SWAP3 SWAP2 POP POP JUMP JUMPDEST PUSH1 0x0 PUSH1 0x8 DUP4 MUL PUSH2 0x12F3 PUSH32 0xFFFFFFFFFFFFFFFFFFFFFFFFFFFFFFFFFFFFFFFFFFFFFFFFFFFFFFFFFFFFFFFF DUP3 PUSH2 0x12B6 JUMP JUMPDEST PUSH2 0x12FD DUP7 DUP4 PUSH2 0x12B6 JUMP JUMPDEST SWAP6 POP DUP1 NOT DUP5 AND SWAP4 POP DUP1 DUP7 AND DUP5 OR SWAP3 POP POP POP SWAP4 SWAP3 POP POP POP JUMP JUMPDEST PUSH1 0x0 DUP2 SWAP1 POP SWAP2 SWAP1 POP JUMP JUMPDEST PUSH1 0x0 PUSH2 0x133A PUSH2 0x1335 PUSH2 0x1330 DUP5 PUSH2 0xBF6 JUMP JUMPDEST PUSH2 0x1315 JUMP JUMPDEST PUSH2 0xBF6 JUMP JUMPDEST SWAP1 POP SWAP2 SWAP1 POP JUMP JUMPDEST PUSH1 0x0 DUP2 SWAP1 POP SWAP2 SWAP1 POP JUMP JUMPDEST PUSH2 0x1354 DUP4 PUSH2 0x131F JUMP JUMPDEST PUSH2 0x1368 PUSH2 0x1360 DUP3 PUSH2 0x1341 JUMP JUMPDEST DUP5 DUP5 SLOAD PUSH2 0x12C3 JUMP JUMPDEST DUP3 SSTORE POP POP POP POP JUMP JUMPDEST PUSH1 0x0 SWAP1 JUMP JUMPDEST PUSH2 0x137D PUSH2 0x1370 JUMP JUMPDEST PUSH2 0x1388 DUP2 DUP5 DUP5 PUSH2 0x134B JUMP JUMPDEST POP POP POP JUMP JUMPDEST JUMPDEST DUP2 DUP2 LT ISZERO PUSH2 0x13AC JUMPI PUSH2 0x13A1 PUSH1 0x0 DUP3 PUSH2 0x1375 JUMP JUMPDEST PUSH1 0x1 DUP2 ADD SWAP1 POP PUSH2 0x138E JUMP JUMPDEST POP POP JUMP JUMPDEST PUSH1 0x1F DUP3 GT ISZERO PUSH2 0x13F1 JUMPI PUSH2 0x13C2 DUP2 PUSH2 0x1291 JUMP JUMPDEST PUSH2 0x13CB DUP5 PUSH2 0x12A6 JUMP JUMPDEST DUP2 ADD PUSH1 0x20 DUP6 LT ISZERO PUSH2 0x13DA JUMPI DUP2 SWAP1 POP JUMPDEST PUSH2 0x13EE PUSH2 0x13E6 DUP6 PUSH2 0x12A6 JUMP JUMPDEST DUP4 ADD DUP3 PUSH2 0x138D JUMP JUMPDEST POP POP JUMPDEST POP POP POP JUMP JUMPDEST PUSH1 0x0 DUP3 DUP3 SHR SWAP1 POP SWAP3 SWAP2 POP POP JUMP JUMPDEST PUSH1 0x0 PUSH2 0x1414 PUSH1 0x0 NOT DUP5 PUSH1 0x8 MUL PUSH2 0x13F6 JUMP JUMPDEST NOT DUP1 DUP4 AND SWAP2 POP POP SWAP3 SWAP2 POP POP JUMP JUMPDEST PUSH1 0x0 PUSH2 0x142D DUP4 DUP4 PUSH2 0x1403 JUMP JUMPDEST SWAP2 POP DUP3 PUSH1 0x2 MUL DUP3 OR SWAP1 POP SWAP3 SWAP2 POP POP JUMP JUMPDEST PUSH2 0x1446 DUP3 PUSH2 0xF3F JUMP JUMPDEST PUSH8 0xFFFFFFFFFFFFFFFF DUP2 GT ISZERO PUSH2 0x145F JUMPI PUSH2 0x145E PUSH2 0xC59 JUMP JUMPDEST JUMPDEST PUSH2 0x1469 DUP3 SLOAD PUSH2 0x1260 JUMP JUMPDEST PUSH2 0x1474 DUP3 DUP3 DUP6 PUSH2 0x13B0 JUMP JUMPDEST PUSH1 0x0 PUSH1 0x20 SWAP1 POP PUSH1 0x1F DUP4 GT PUSH1 0x1 DUP2 EQ PUSH2 0x14A7 JUMPI PUSH1 0x0 DUP5 ISZERO PUSH2 0x1495 JUMPI DUP3 DUP8 ADD MLOAD SWAP1 POP JUMPDEST PUSH2 0x149F DUP6 DUP3 PUSH2 0x1421 JUMP JUMPDEST DUP7 SSTORE POP PUSH2 0x1507 JUMP JUMPDEST PUSH1 0x1F NOT DUP5 AND PUSH2 0x14B5 DUP7 PUSH2 0x1291 JUMP JUMPDEST PUSH1 0x0 JUMPDEST DUP3 DUP2 LT ISZERO PUSH2 0x14DD JUMPI DUP5 DUP10 ADD MLOAD DUP3 SSTORE PUSH1 0x1 DUP3 ADD SWAP2 POP PUSH1 0x20 DUP6 ADD SWAP5 POP PUSH1 0x20 DUP2 ADD SWAP1 POP PUSH2 0x14B8 JUMP JUMPDEST DUP7 DUP4 LT ISZERO PUSH2 0x14FA JUMPI DUP5 DUP10 ADD MLOAD PUSH2 0x14F6 PUSH1 0x1F DUP10 AND DUP3 PUSH2 0x1403 JUMP JUMPDEST DUP4 SSTORE POP JUMPDEST PUSH1 0x1 PUSH1 0x2 DUP9 MUL ADD DUP9 SSTORE POP POP POP JUMPDEST POP POP POP POP POP POP JUMP JUMPDEST PUSH32 0x41637475616C6C7920796F7520766F7465640000000000000000000000000000 PUSH1 0x0 DUP3 ADD MSTORE POP JUMP JUMPDEST PUSH1 0x0 PUSH2 0x1545 PUSH1 0x12 DUP4 PUSH2 0xF4A JUMP JUMPDEST SWAP2 POP PUSH2 0x1550 DUP3 PUSH2 0x150F JUMP JUMPDEST PUSH1 0x20 DUP3 ADD SWAP1 POP SWAP2 SWAP1 POP JUMP JUMPDEST PUSH1 0x0 PUSH1 0x20 DUP3 ADD SWAP1 POP DUP2 DUP2 SUB PUSH1 0x0 DUP4 ADD MSTORE PUSH2 0x1574 DUP2 PUSH2 0x1538 JUMP JUMPDEST SWAP1 POP SWAP2 SWAP1 POP JUMP JUMPDEST PUSH32 0x596F752077657265204E6F7420656C6769626C6520696E2046756E64696E6700 PUSH1 0x0 DUP3 ADD MSTORE POP JUMP JUMPDEST PUSH1 0x0 PUSH2 0x15B1 PUSH1 0x1F DUP4 PUSH2 0xF4A JUMP JUMPDEST SWAP2 POP PUSH2 0x15BC DUP3 PUSH2 0x157B JUMP JUMPDEST PUSH1 0x20 DUP3 ADD SWAP1 POP SWAP2 SWAP1 POP JUMP JUMPDEST PUSH1 0x0 PUSH1 0x20 DUP3 ADD SWAP1 POP DUP2 DUP2 SUB PUSH1 0x0 DUP4 ADD MSTORE PUSH2 0x15E0 DUP2 PUSH2 0x15A4 JUMP JUMPDEST SWAP1 POP SWAP2 SWAP1 POP JUMP JUMPDEST PUSH32 0x69742068617320636F6D706C6574656400000000000000000000000000000000 PUSH1 0x0 DUP3 ADD MSTORE POP JUMP JUMPDEST PUSH1 0x0 PUSH2 0x161D PUSH1 0x10 DUP4 PUSH2 0xF4A JUMP JUMPDEST SWAP2 POP PUSH2 0x1628 DUP3 PUSH2 0x15E7 JUMP JUMPDEST PUSH1 0x20 DUP3 ADD SWAP1 POP SWAP2 SWAP1 POP JUMP JUMPDEST PUSH1 0x0 PUSH1 0x20 DUP3 ADD SWAP1 POP DUP2 DUP2 SUB PUSH1 0x0 DUP4 ADD MSTORE PUSH2 0x164C DUP2 PUSH2 0x1610 JUMP JUMPDEST SWAP1 POP SWAP2 SWAP1 POP JUMP JUMPDEST PUSH32 0x4E487B7100000000000000000000000000000000000000000000000000000000 PUSH1 0x0 MSTORE PUSH1 0x12 PUSH1 0x4 MSTORE PUSH1 0x24 PUSH1 0x0 REVERT JUMPDEST PUSH1 0x0 PUSH2 0x168D DUP3 PUSH2 0xBF6 JUMP JUMPDEST SWAP2 POP PUSH2 0x1698 DUP4 PUSH2 0xBF6 JUMP JUMPDEST SWAP3 POP DUP3 PUSH2 0x16A8 JUMPI PUSH2 0x16A7 PUSH2 0x1653 JUMP JUMPDEST JUMPDEST DUP3 DUP3 DIV SWAP1 POP SWAP3 SWAP2 POP POP JUMP JUMPDEST PUSH32 0x4D616A6F7269747920646F6573206E6F7420737570706F727400000000000000 PUSH1 0x0 DUP3 ADD MSTORE POP JUMP JUMPDEST PUSH1 0x0 PUSH2 0x16E9 PUSH1 0x19 DUP4 PUSH2 0xF4A JUMP JUMPDEST SWAP2 POP PUSH2 0x16F4 DUP3 PUSH2 0x16B3 JUMP JUMPDEST PUSH1 0x20 DUP3 ADD SWAP1 POP SWAP2 SWAP1 POP JUMP JUMPDEST PUSH1 0x0 PUSH1 0x20 DUP3 ADD SWAP1 POP DUP2 DUP2 SUB PUSH1 0x0 DUP4 ADD MSTORE PUSH2 0x1718 DUP2 PUSH2 0x16DC JUMP JUMPDEST SWAP1 POP SWAP2 SWAP1 POP JUMP INVALID LOG2 PUSH5 0x6970667358 0x22 SLT KECCAK256 PUSH29 0x466DF02EB5742EC45BC557B2DF4E12C185F92A8B67E3A08C38B7FB7CE9 0xB8 MLOAD PUSH5 0x736F6C6343 STOP ADDMOD GT STOP CALLER "
				},
				"gasEstimates": {
					"creation": {
						"codeDepositCost": "1194600",
						"executionCost": "infinite",
						"totalCost": "infinite"
					},
					"external": {
						"contributors(address)": "2859",
						"createRequest(string,address,uint256)": "infinite",
						"deadline()": "2496",
						"getBalance()": "407",
						"manager()": "2603",
						"miniContribution()": "2453",
						"noOfContributor()": "2496",
						"numRequest()": "2451",
						"raisedAmount()": "2473",
						"refund()": "9019",
						"request(uint256)": "infinite",
						"requestAccept(uint256)": "31528",
						"sendEth()": "infinite",
						"target()": "2495",
						"voteRequest(uint256)": "2635"
					}
				},
				"methodIdentifiers": {
					"contributors(address)": "1f6d4942",
					"createRequest(string,address,uint256)": "1b16bb5c",
					"deadline()": "29dcb0cf",
					"getBalance()": "12065fe0",
					"manager()": "481c6a75",
					"miniContribution()": "05759b4d",
					"noOfContributor()": "8c9ffd40",
					"numRequest()": "b1b16431",
					"raisedAmount()": "c59ee1dc",
					"refund()": "590e1ae3",
					"request(uint256)": "d845a4b3",
					"requestAccept(uint256)": "a6a78c94",
					"sendEth()": "06e99fef",
					"target()": "d4b83992",
					"voteRequest(uint256)": "4cb6f4a5"
				}
			},
			"storageLayout": {
				"storage": [
					{
						"astId": 5,
						"contract": "Crowd.sol:crowdFunding",
						"label": "contributors",
						"offset": 0,
						"slot": "0",
						"type": "t_mapping(t_address,t_uint256)"
					},
					{
						"astId": 7,
						"contract": "Crowd.sol:crowdFunding",
						"label": "manager",
						"offset": 0,
						"slot": "1",
						"type": "t_address"
					},
					{
						"astId": 9,
						"contract": "Crowd.sol:crowdFunding",
						"label": "target",
						"offset": 0,
						"slot": "2",
						"type": "t_uint256"
					},
					{
						"astId": 11,
						"contract": "Crowd.sol:crowdFunding",
						"label": "miniContribution",
						"offset": 0,
						"slot": "3",
						"type": "t_uint256"
					},
					{
						"astId": 13,
						"contract": "Crowd.sol:crowdFunding",
						"label": "deadline",
						"offset": 0,
						"slot": "4",
						"type": "t_uint256"
					},
					{
						"astId": 15,
						"contract": "Crowd.sol:crowdFunding",
						"label": "noOfContributor",
						"offset": 0,
						"slot": "5",
						"type": "t_uint256"
					},
					{
						"astId": 17,
						"contract": "Crowd.sol:crowdFunding",
						"label": "raisedAmount",
						"offset": 0,
						"slot": "6",
						"type": "t_uint256"
					},
					{
						"astId": 37,
						"contract": "Crowd.sol:crowdFunding",
						"label": "request",
						"offset": 0,
						"slot": "7",
						"type": "t_mapping(t_uint256,t_struct(Request)32_storage)"
					},
					{
						"astId": 39,
						"contract": "Crowd.sol:crowdFunding",
						"label": "numRequest",
						"offset": 0,
						"slot": "8",
						"type": "t_uint256"
					}
				],
				"types": {
					"t_address": {
						"encoding": "inplace",
						"label": "address",
						"numberOfBytes": "20"
					},
					"t_address_payable": {
						"encoding": "inplace",
						"label": "address payable",
						"numberOfBytes": "20"
					},
					"t_bool": {
						"encoding": "inplace",
						"label": "bool",
						"numberOfBytes": "1"
					},
					"t_mapping(t_address,t_bool)": {
						"encoding": "mapping",
						"key": "t_address",
						"label": "mapping(address => bool)",
						"numberOfBytes": "32",
						"value": "t_bool"
					},
					"t_mapping(t_address,t_uint256)": {
						"encoding": "mapping",
						"key": "t_address",
						"label": "mapping(address => uint256)",
						"numberOfBytes": "32",
						"value": "t_uint256"
					},
					"t_mapping(t_uint256,t_struct(Request)32_storage)": {
						"encoding": "mapping",
						"key": "t_uint256",
						"label": "mapping(uint256 => struct crowdFunding.Request)",
						"numberOfBytes": "32",
						"value": "t_struct(Request)32_storage"
					},
					"t_string_storage": {
						"encoding": "bytes",
						"label": "string",
						"numberOfBytes": "32"
					},
					"t_struct(Request)32_storage": {
						"encoding": "inplace",
						"label": "struct crowdFunding.Request",
						"members": [
							{
								"astId": 19,
								"contract": "Crowd.sol:crowdFunding",
								"label": "discription",
								"offset": 0,
								"slot": "0",
								"type": "t_string_storage"
							},
							{
								"astId": 21,
								"contract": "Crowd.sol:crowdFunding",
								"label": "recipant",
								"offset": 0,
								"slot": "1",
								"type": "t_address_payable"
							},
							{
								"astId": 23,
								"contract": "Crowd.sol:crowdFunding",
								"label": "value",
								"offset": 0,
								"slot": "2",
								"type": "t_uint256"
							},
							{
								"astId": 25,
								"contract": "Crowd.sol:crowdFunding",
								"label": "completed",
								"offset": 0,
								"slot": "3",
								"type": "t_bool"
							},
							{
								"astId": 27,
								"contract": "Crowd.sol:crowdFunding",
								"label": "noOfVoters",
								"offset": 0,
								"slot": "4",
								"type": "t_uint256"
							},
							{
								"astId": 31,
								"contract": "Crowd.sol:crowdFunding",
								"label": "voter",
								"offset": 0,
								"slot": "5",
								"type": "t_mapping(t_address,t_bool)"
							}
						],
						"numberOfBytes": "192"
					},
					"t_uint256": {
						"encoding": "inplace",
						"label": "uint256",
						"numberOfBytes": "32"
					}
				}
			},
			"userdoc": {
				"kind": "user",
				"methods": {},
				"version": 1
			}
		}
	}
}