{
	"Event.sol": {
		"OrganizingEvent": {
			"abi": [
				{
					"inputs": [
						{
							"internalType": "uint256",
							"name": "id",
							"type": "uint256"
						},
						{
							"internalType": "uint256",
							"name": "quantity",
							"type": "uint256"
						}
					],
					"name": "buyTicket",
					"outputs": [],
					"stateMutability": "payable",
					"type": "function"
				},
				{
					"inputs": [
						{
							"internalType": "string",
							"name": "_name",
							"type": "string"
						},
						{
							"internalType": "uint256",
							"name": "_date",
							"type": "uint256"
						},
						{
							"internalType": "uint256",
							"name": "_price",
							"type": "uint256"
						},
						{
							"internalType": "uint256",
							"name": "_ticketOpen",
							"type": "uint256"
						}
					],
					"name": "createEvent",
					"outputs": [],
					"stateMutability": "nonpayable",
					"type": "function"
				},
				{
					"inputs": [
						{
							"internalType": "uint256",
							"name": "",
							"type": "uint256"
						}
					],
					"name": "events",
					"outputs": [
						{
							"internalType": "address",
							"name": "organizer",
							"type": "address"
						},
						{
							"internalType": "string",
							"name": "name",
							"type": "string"
						},
						{
							"internalType": "uint256",
							"name": "date",
							"type": "uint256"
						},
						{
							"internalType": "uint256",
							"name": "price",
							"type": "uint256"
						},
						{
							"internalType": "uint256",
							"name": "ticketOpen",
							"type": "uint256"
						},
						{
							"internalType": "uint256",
							"name": "ticketRemain",
							"type": "uint256"
						}
					],
					"stateMutability": "view",
					"type": "function"
				},
				{
					"inputs": [
						{
							"internalType": "address",
							"name": "",
							"type": "address"
						},
						{
							"internalType": "uint256",
							"name": "",
							"type": "uint256"
						}
					],
					"name": "ticket",
					"outputs": [
						{
							"internalType": "uint256",
							"name": "",
							"type": "uint256"
						}
					],
					"stateMutability": "view",
					"type": "function"
				},
				{
					"inputs": [
						{
							"internalType": "uint256",
							"name": "id",
							"type": "uint256"
						},
						{
							"internalType": "uint256",
							"name": "quantity",
							"type": "uint256"
						},
						{
							"internalType": "address",
							"name": "to",
							"type": "address"
						}
					],
					"name": "transferTicket",
					"outputs": [],
					"stateMutability": "nonpayable",
					"type": "function"
				}
			],
			"devdoc": {
				"kind": "dev",
				"methods": {},
				"version": 1
			},
			"evm": {
				"assembly": "    /* \"Event.sol\":74:1418  contract OrganizingEvent{... */\n  mstore(0x40, 0x80)\n  callvalue\n  dup1\n  iszero\n  tag_1\n  jumpi\n  0x00\n  dup1\n  revert\ntag_1:\n  pop\n  dataSize(sub_0)\n  dup1\n  dataOffset(sub_0)\n  0x00\n  codecopy\n  0x00\n  return\nstop\n\nsub_0: assembly {\n        /* \"Event.sol\":74:1418  contract OrganizingEvent{... */\n      mstore(0x40, 0x80)\n      jumpi(tag_1, lt(calldatasize, 0x04))\n      shr(0xe0, calldataload(0x00))\n      dup1\n      0x0374ab0b\n      eq\n      tag_2\n      jumpi\n      dup1\n      0x0b791430\n      eq\n      tag_3\n      jumpi\n      dup1\n      0x298ec208\n      eq\n      tag_4\n      jumpi\n      dup1\n      0xe11bb64d\n      eq\n      tag_5\n      jumpi\n      dup1\n      0xf086a09b\n      eq\n      tag_6\n      jumpi\n    tag_1:\n      0x00\n      dup1\n      revert\n        /* \"Event.sol\":397:721  function createEvent(string memory _name,uint _date,uint _price,uint _ticketOpen) public {... */\n    tag_2:\n      callvalue\n      dup1\n      iszero\n      tag_7\n      jumpi\n      0x00\n      dup1\n      revert\n    tag_7:\n      pop\n      tag_8\n      0x04\n      dup1\n      calldatasize\n      sub\n      dup2\n      add\n      swap1\n      tag_9\n      swap2\n      swap1\n      tag_10\n      jump\t// in\n    tag_9:\n      tag_11\n      jump\t// in\n    tag_8:\n      stop\n        /* \"Event.sol\":278:312  mapping(uint=>Event) public events */\n    tag_3:\n      callvalue\n      dup1\n      iszero\n      tag_12\n      jumpi\n      0x00\n      dup1\n      revert\n    tag_12:\n      pop\n      tag_13\n      0x04\n      dup1\n      calldatasize\n      sub\n      dup2\n      add\n      swap1\n      tag_14\n      swap2\n      swap1\n      tag_15\n      jump\t// in\n    tag_14:\n      tag_16\n      jump\t// in\n    tag_13:\n      mload(0x40)\n      tag_17\n      swap7\n      swap6\n      swap5\n      swap4\n      swap3\n      swap2\n      swap1\n      tag_18\n      jump\t// in\n    tag_17:\n      mload(0x40)\n      dup1\n      swap2\n      sub\n      swap1\n      return\n        /* \"Event.sol\":729:1195  function buyTicket(uint id,uint quantity) public payable  {... */\n    tag_4:\n      tag_19\n      0x04\n      dup1\n      calldatasize\n      sub\n      dup2\n      add\n      swap1\n      tag_20\n      swap2\n      swap1\n      tag_21\n      jump\t// in\n    tag_20:\n      tag_22\n      jump\t// in\n    tag_19:\n      stop\n        /* \"Event.sol\":319:370  mapping(address=>mapping(uint=>uint)) public ticket */\n    tag_5:\n      callvalue\n      dup1\n      iszero\n      tag_23\n      jumpi\n      0x00\n      dup1\n      revert\n    tag_23:\n      pop\n      tag_24\n      0x04\n      dup1\n      calldatasize\n      sub\n      dup2\n      add\n      swap1\n      tag_25\n      swap2\n      swap1\n      tag_26\n      jump\t// in\n    tag_25:\n      tag_27\n      jump\t// in\n    tag_24:\n      mload(0x40)\n      tag_28\n      swap2\n      swap1\n      tag_29\n      jump\t// in\n    tag_28:\n      mload(0x40)\n      dup1\n      swap2\n      sub\n      swap1\n      return\n        /* \"Event.sol\":1203:1407  function transferTicket(uint id,uint quantity,address to) public {... */\n    tag_6:\n      callvalue\n      dup1\n      iszero\n      tag_30\n      jumpi\n      0x00\n      dup1\n      revert\n    tag_30:\n      pop\n      tag_31\n      0x04\n      dup1\n      calldatasize\n      sub\n      dup2\n      add\n      swap1\n      tag_32\n      swap2\n      swap1\n      tag_33\n      jump\t// in\n    tag_32:\n      tag_34\n      jump\t// in\n    tag_31:\n      stop\n        /* \"Event.sol\":397:721  function createEvent(string memory _name,uint _date,uint _price,uint _ticketOpen) public {... */\n    tag_11:\n        /* \"Event.sol\":511:526  block.timestamp */\n      timestamp\n        /* \"Event.sol\":505:510  _date */\n      dup4\n        /* \"Event.sol\":505:526  _date>block.timestamp */\n      gt\n        /* \"Event.sol\":497:548  require(_date>block.timestamp,\"The Event has over\") */\n      tag_36\n      jumpi\n      mload(0x40)\n      0x08c379a000000000000000000000000000000000000000000000000000000000\n      dup2\n      mstore\n      0x04\n      add\n      tag_37\n      swap1\n      tag_38\n      jump\t// in\n    tag_37:\n      mload(0x40)\n      dup1\n      swap2\n      sub\n      swap1\n      revert\n    tag_36:\n        /* \"Event.sol\":579:580  0 */\n      0x00\n        /* \"Event.sol\":567:578  _ticketOpen */\n      dup2\n        /* \"Event.sol\":567:580  _ticketOpen>0 */\n      gt\n        /* \"Event.sol\":559:606  require(_ticketOpen>0,\"you can Run the Events\") */\n      tag_39\n      jumpi\n      mload(0x40)\n      0x08c379a000000000000000000000000000000000000000000000000000000000\n      dup2\n      mstore\n      0x04\n      add\n      tag_40\n      swap1\n      tag_41\n      jump\t// in\n    tag_40:\n      mload(0x40)\n      dup1\n      swap2\n      sub\n      swap1\n      revert\n    tag_39:\n        /* \"Event.sol\":634:694  Event(msg.sender,_name,_date,_price,_ticketOpen,_ticketOpen) */\n      mload(0x40)\n      dup1\n      0xc0\n      add\n      0x40\n      mstore\n      dup1\n        /* \"Event.sol\":640:650  msg.sender */\n      caller\n        /* \"Event.sol\":634:694  Event(msg.sender,_name,_date,_price,_ticketOpen,_ticketOpen) */\n      0xffffffffffffffffffffffffffffffffffffffff\n      and\n      dup2\n      mstore\n      0x20\n      add\n        /* \"Event.sol\":651:656  _name */\n      dup6\n        /* \"Event.sol\":634:694  Event(msg.sender,_name,_date,_price,_ticketOpen,_ticketOpen) */\n      dup2\n      mstore\n      0x20\n      add\n        /* \"Event.sol\":657:662  _date */\n      dup5\n        /* \"Event.sol\":634:694  Event(msg.sender,_name,_date,_price,_ticketOpen,_ticketOpen) */\n      dup2\n      mstore\n      0x20\n      add\n        /* \"Event.sol\":663:669  _price */\n      dup4\n        /* \"Event.sol\":634:694  Event(msg.sender,_name,_date,_price,_ticketOpen,_ticketOpen) */\n      dup2\n      mstore\n      0x20\n      add\n        /* \"Event.sol\":670:681  _ticketOpen */\n      dup3\n        /* \"Event.sol\":634:694  Event(msg.sender,_name,_date,_price,_ticketOpen,_ticketOpen) */\n      dup2\n      mstore\n      0x20\n      add\n        /* \"Event.sol\":682:693  _ticketOpen */\n      dup3\n        /* \"Event.sol\":634:694  Event(msg.sender,_name,_date,_price,_ticketOpen,_ticketOpen) */\n      dup2\n      mstore\n      pop\n        /* \"Event.sol\":619:625  events */\n      0x00\n        /* \"Event.sol\":619:633  events[nextId] */\n      dup1\n        /* \"Event.sol\":626:632  nextId */\n      sload(0x02)\n        /* \"Event.sol\":619:633  events[nextId] */\n      dup2\n      mstore\n      0x20\n      add\n      swap1\n      dup2\n      mstore\n      0x20\n      add\n      0x00\n      keccak256\n        /* \"Event.sol\":619:694  events[nextId]=Event(msg.sender,_name,_date,_price,_ticketOpen,_ticketOpen) */\n      0x00\n      dup3\n      add\n      mload\n      dup2\n      0x00\n      add\n      exp(0x0100, 0x00)\n      dup2\n      sload\n      dup2\n      0xffffffffffffffffffffffffffffffffffffffff\n      mul\n      not\n      and\n      swap1\n      dup4\n      0xffffffffffffffffffffffffffffffffffffffff\n      and\n      mul\n      or\n      swap1\n      sstore\n      pop\n      0x20\n      dup3\n      add\n      mload\n      dup2\n      0x01\n      add\n      swap1\n      dup2\n      tag_42\n      swap2\n      swap1\n      tag_43\n      jump\t// in\n    tag_42:\n      pop\n      0x40\n      dup3\n      add\n      mload\n      dup2\n      0x02\n      add\n      sstore\n      0x60\n      dup3\n      add\n      mload\n      dup2\n      0x03\n      add\n      sstore\n      0x80\n      dup3\n      add\n      mload\n      dup2\n      0x04\n      add\n      sstore\n      0xa0\n      dup3\n      add\n      mload\n      dup2\n      0x05\n      add\n      sstore\n      swap1\n      pop\n      pop\n        /* \"Event.sol\":705:711  nextId */\n      0x02\n      0x00\n        /* \"Event.sol\":705:713  nextId++ */\n      dup2\n      sload\n      dup1\n      swap3\n      swap2\n      swap1\n      tag_44\n      swap1\n      tag_45\n      jump\t// in\n    tag_44:\n      swap2\n      swap1\n      pop\n      sstore\n      pop\n        /* \"Event.sol\":397:721  function createEvent(string memory _name,uint _date,uint _price,uint _ticketOpen) public {... */\n      pop\n      pop\n      pop\n      pop\n      jump\t// out\n        /* \"Event.sol\":278:312  mapping(uint=>Event) public events */\n    tag_16:\n      mstore(0x20, 0x00)\n      dup1\n      0x00\n      mstore\n      keccak256(0x00, 0x40)\n      0x00\n      swap2\n      pop\n      swap1\n      pop\n      dup1\n      0x00\n      add\n      0x00\n      swap1\n      sload\n      swap1\n      0x0100\n      exp\n      swap1\n      div\n      0xffffffffffffffffffffffffffffffffffffffff\n      and\n      swap1\n      dup1\n      0x01\n      add\n      dup1\n      sload\n      tag_46\n      swap1\n      tag_47\n      jump\t// in\n    tag_46:\n      dup1\n      0x1f\n      add\n      0x20\n      dup1\n      swap2\n      div\n      mul\n      0x20\n      add\n      mload(0x40)\n      swap1\n      dup2\n      add\n      0x40\n      mstore\n      dup1\n      swap3\n      swap2\n      swap1\n      dup2\n      dup2\n      mstore\n      0x20\n      add\n      dup3\n      dup1\n      sload\n      tag_48\n      swap1\n      tag_47\n      jump\t// in\n    tag_48:\n      dup1\n      iszero\n      tag_49\n      jumpi\n      dup1\n      0x1f\n      lt\n      tag_50\n      jumpi\n      0x0100\n      dup1\n      dup4\n      sload\n      div\n      mul\n      dup4\n      mstore\n      swap2\n      0x20\n      add\n      swap2\n      jump(tag_49)\n    tag_50:\n      dup3\n      add\n      swap2\n      swap1\n      0x00\n      mstore\n      keccak256(0x00, 0x20)\n      swap1\n    tag_51:\n      dup2\n      sload\n      dup2\n      mstore\n      swap1\n      0x01\n      add\n      swap1\n      0x20\n      add\n      dup1\n      dup4\n      gt\n      tag_51\n      jumpi\n      dup3\n      swap1\n      sub\n      0x1f\n      and\n      dup3\n      add\n      swap2\n    tag_49:\n      pop\n      pop\n      pop\n      pop\n      pop\n      swap1\n      dup1\n      0x02\n      add\n      sload\n      swap1\n      dup1\n      0x03\n      add\n      sload\n      swap1\n      dup1\n      0x04\n      add\n      sload\n      swap1\n      dup1\n      0x05\n      add\n      sload\n      swap1\n      pop\n      dup7\n      jump\t// out\n        /* \"Event.sol\":729:1195  function buyTicket(uint id,uint quantity) public payable  {... */\n    tag_22:\n        /* \"Event.sol\":822:837  block.timestamp */\n      timestamp\n        /* \"Event.sol\":806:812  events */\n      0x00\n        /* \"Event.sol\":806:816  events[id] */\n      dup1\n        /* \"Event.sol\":813:815  id */\n      dup5\n        /* \"Event.sol\":806:816  events[id] */\n      dup2\n      mstore\n      0x20\n      add\n      swap1\n      dup2\n      mstore\n      0x20\n      add\n      0x00\n      keccak256\n        /* \"Event.sol\":806:821  events[id].date */\n      0x02\n      add\n      sload\n        /* \"Event.sol\":806:837  events[id].date>block.timestamp */\n      gt\n        /* \"Event.sol\":798:858  require(events[id].date>block.timestamp,\"The time has loss\") */\n      tag_53\n      jumpi\n      mload(0x40)\n      0x08c379a000000000000000000000000000000000000000000000000000000000\n      dup2\n      mstore\n      0x04\n      add\n      tag_54\n      swap1\n      tag_55\n      jump\t// in\n    tag_54:\n      mload(0x40)\n      dup1\n      swap2\n      sub\n      swap1\n      revert\n    tag_53:\n        /* \"Event.sol\":894:895  0 */\n      0x00\n        /* \"Event.sol\":877:883  events */\n      dup1\n        /* \"Event.sol\":877:887  events[id] */\n      0x00\n        /* \"Event.sol\":884:886  id */\n      dup5\n        /* \"Event.sol\":877:887  events[id] */\n      dup2\n      mstore\n      0x20\n      add\n      swap1\n      dup2\n      mstore\n      0x20\n      add\n      0x00\n      keccak256\n        /* \"Event.sol\":877:892  events[id].date */\n      0x02\n      add\n      sload\n        /* \"Event.sol\":877:895  events[id].date!=0 */\n      sub\n        /* \"Event.sol\":869:918  require(events[id].date!=0,\"the ticket has loss\") */\n      tag_56\n      jumpi\n      mload(0x40)\n      0x08c379a000000000000000000000000000000000000000000000000000000000\n      dup2\n      mstore\n      0x04\n      add\n      tag_57\n      swap1\n      tag_58\n      jump\t// in\n    tag_57:\n      mload(0x40)\n      dup1\n      swap2\n      sub\n      swap1\n      revert\n    tag_56:\n        /* \"Event.sol\":929:949  Event storage _event */\n      0x00\n        /* \"Event.sol\":950:956  events */\n      dup1\n        /* \"Event.sol\":950:960  events[id] */\n      0x00\n        /* \"Event.sol\":957:959  id */\n      dup5\n        /* \"Event.sol\":950:960  events[id] */\n      dup2\n      mstore\n      0x20\n      add\n      swap1\n      dup2\n      mstore\n      0x20\n      add\n      0x00\n      keccak256\n        /* \"Event.sol\":929:960  Event storage _event=events[id] */\n      swap1\n      pop\n        /* \"Event.sol\":1004:1012  quantity */\n      dup2\n        /* \"Event.sol\":991:997  _event */\n      dup2\n        /* \"Event.sol\":991:1003  _event.price */\n      0x03\n      add\n      sload\n        /* \"Event.sol\":991:1012  _event.price*quantity */\n      tag_59\n      swap2\n      swap1\n      tag_60\n      jump\t// in\n    tag_59:\n        /* \"Event.sol\":979:988  msg.value */\n      callvalue\n        /* \"Event.sol\":979:1013  msg.value==(_event.price*quantity) */\n      eq\n        /* \"Event.sol\":971:1041  require(msg.value==(_event.price*quantity),\"Your not abble to access\") */\n      tag_61\n      jumpi\n      mload(0x40)\n      0x08c379a000000000000000000000000000000000000000000000000000000000\n      dup2\n      mstore\n      0x04\n      add\n      tag_62\n      swap1\n      tag_63\n      jump\t// in\n    tag_62:\n      mload(0x40)\n      dup1\n      swap2\n      sub\n      swap1\n      revert\n    tag_61:\n        /* \"Event.sol\":1085:1093  quantity */\n      dup2\n        /* \"Event.sol\":1060:1066  events */\n      0x00\n        /* \"Event.sol\":1060:1070  events[id] */\n      dup1\n        /* \"Event.sol\":1067:1069  id */\n      dup6\n        /* \"Event.sol\":1060:1070  events[id] */\n      dup2\n      mstore\n      0x20\n      add\n      swap1\n      dup2\n      mstore\n      0x20\n      add\n      0x00\n      keccak256\n        /* \"Event.sol\":1060:1083  events[id].ticketRemain */\n      0x05\n      add\n      sload\n        /* \"Event.sol\":1060:1093  events[id].ticketRemain>=quantity */\n      lt\n      iszero\n        /* \"Event.sol\":1052:1104  require(events[id].ticketRemain>=quantity,\"Nothing\") */\n      tag_64\n      jumpi\n      mload(0x40)\n      0x08c379a000000000000000000000000000000000000000000000000000000000\n      dup2\n      mstore\n      0x04\n      add\n      tag_65\n      swap1\n      tag_66\n      jump\t// in\n    tag_65:\n      mload(0x40)\n      dup1\n      swap2\n      sub\n      swap1\n      revert\n    tag_64:\n        /* \"Event.sol\":1136:1144  quantity */\n      dup2\n        /* \"Event.sol\":1115:1121  _event */\n      dup2\n        /* \"Event.sol\":1115:1134  _event.ticketRemain */\n      0x05\n      add\n      0x00\n        /* \"Event.sol\":1115:1144  _event.ticketRemain-=quantity */\n      dup3\n      dup3\n      sload\n      tag_67\n      swap2\n      swap1\n      tag_68\n      jump\t// in\n    tag_67:\n      swap3\n      pop\n      pop\n      dup2\n      swap1\n      sstore\n      pop\n        /* \"Event.sol\":1179:1187  quantity */\n      dup2\n        /* \"Event.sol\":1155:1161  ticket */\n      0x01\n        /* \"Event.sol\":1155:1173  ticket[msg.sender] */\n      0x00\n        /* \"Event.sol\":1162:1172  msg.sender */\n      caller\n        /* \"Event.sol\":1155:1173  ticket[msg.sender] */\n      0xffffffffffffffffffffffffffffffffffffffff\n      and\n      0xffffffffffffffffffffffffffffffffffffffff\n      and\n      dup2\n      mstore\n      0x20\n      add\n      swap1\n      dup2\n      mstore\n      0x20\n      add\n      0x00\n      keccak256\n        /* \"Event.sol\":1155:1177  ticket[msg.sender][id] */\n      0x00\n        /* \"Event.sol\":1174:1176  id */\n      dup6\n        /* \"Event.sol\":1155:1177  ticket[msg.sender][id] */\n      dup2\n      mstore\n      0x20\n      add\n      swap1\n      dup2\n      mstore\n      0x20\n      add\n      0x00\n      keccak256\n      0x00\n        /* \"Event.sol\":1155:1187  ticket[msg.sender][id]+=quantity */\n      dup3\n      dup3\n      sload\n      tag_69\n      swap2\n      swap1\n      tag_70\n      jump\t// in\n    tag_69:\n      swap3\n      pop\n      pop\n      dup2\n      swap1\n      sstore\n      pop\n        /* \"Event.sol\":787:1195  {... */\n      pop\n        /* \"Event.sol\":729:1195  function buyTicket(uint id,uint quantity) public payable  {... */\n      pop\n      pop\n      jump\t// out\n        /* \"Event.sol\":319:370  mapping(address=>mapping(uint=>uint)) public ticket */\n    tag_27:\n      mstore(0x20, 0x01)\n      dup2\n      0x00\n      mstore\n      mstore(0x20, keccak256(0x00, 0x40))\n      dup1\n      0x00\n      mstore\n      keccak256(0x00, 0x40)\n      0x00\n      swap2\n      pop\n      swap2\n      pop\n      pop\n      sload\n      dup2\n      jump\t// out\n        /* \"Event.sol\":1203:1407  function transferTicket(uint id,uint quantity,address to) public {... */\n    tag_34:\n        /* \"Event.sol\":1303:1318  block.timestamp */\n      timestamp\n        /* \"Event.sol\":1287:1293  events */\n      0x00\n        /* \"Event.sol\":1287:1297  events[id] */\n      dup1\n        /* \"Event.sol\":1294:1296  id */\n      dup6\n        /* \"Event.sol\":1287:1297  events[id] */\n      dup2\n      mstore\n      0x20\n      add\n      swap1\n      dup2\n      mstore\n      0x20\n      add\n      0x00\n      keccak256\n        /* \"Event.sol\":1287:1302  events[id].date */\n      0x02\n      add\n      sload\n        /* \"Event.sol\":1287:1318  events[id].date>block.timestamp */\n      gt\n        /* \"Event.sol\":1279:1339  require(events[id].date>block.timestamp,\"The time has loss\") */\n      tag_72\n      jumpi\n      mload(0x40)\n      0x08c379a000000000000000000000000000000000000000000000000000000000\n      dup2\n      mstore\n      0x04\n      add\n      tag_73\n      swap1\n      tag_55\n      jump\t// in\n    tag_73:\n      mload(0x40)\n      dup1\n      swap2\n      sub\n      swap1\n      revert\n    tag_72:\n        /* \"Event.sol\":1375:1376  0 */\n      0x00\n        /* \"Event.sol\":1358:1364  events */\n      dup1\n        /* \"Event.sol\":1358:1368  events[id] */\n      0x00\n        /* \"Event.sol\":1365:1367  id */\n      dup6\n        /* \"Event.sol\":1358:1368  events[id] */\n      dup2\n      mstore\n      0x20\n      add\n      swap1\n      dup2\n      mstore\n      0x20\n      add\n      0x00\n      keccak256\n        /* \"Event.sol\":1358:1373  events[id].date */\n      0x02\n      add\n      sload\n        /* \"Event.sol\":1358:1376  events[id].date!=0 */\n      sub\n        /* \"Event.sol\":1350:1399  require(events[id].date!=0,\"the ticket has loss\") */\n      tag_74\n      jumpi\n      mload(0x40)\n      0x08c379a000000000000000000000000000000000000000000000000000000000\n      dup2\n      mstore\n      0x04\n      add\n      tag_75\n      swap1\n      tag_58\n      jump\t// in\n    tag_75:\n      mload(0x40)\n      dup1\n      swap2\n      sub\n      swap1\n      revert\n    tag_74:\n        /* \"Event.sol\":1203:1407  function transferTicket(uint id,uint quantity,address to) public {... */\n      pop\n      pop\n      pop\n      jump\t// out\n        /* \"#utility.yul\":7:82   */\n    tag_76:\n        /* \"#utility.yul\":40:46   */\n      0x00\n        /* \"#utility.yul\":73:75   */\n      0x40\n        /* \"#utility.yul\":67:76   */\n      mload\n        /* \"#utility.yul\":57:76   */\n      swap1\n      pop\n        /* \"#utility.yul\":7:82   */\n      swap1\n      jump\t// out\n        /* \"#utility.yul\":88:205   */\n    tag_77:\n        /* \"#utility.yul\":197:198   */\n      0x00\n        /* \"#utility.yul\":194:195   */\n      dup1\n        /* \"#utility.yul\":187:199   */\n      revert\n        /* \"#utility.yul\":211:328   */\n    tag_78:\n        /* \"#utility.yul\":320:321   */\n      0x00\n        /* \"#utility.yul\":317:318   */\n      dup1\n        /* \"#utility.yul\":310:322   */\n      revert\n        /* \"#utility.yul\":334:451   */\n    tag_79:\n        /* \"#utility.yul\":443:444   */\n      0x00\n        /* \"#utility.yul\":440:441   */\n      dup1\n        /* \"#utility.yul\":433:445   */\n      revert\n        /* \"#utility.yul\":457:574   */\n    tag_80:\n        /* \"#utility.yul\":566:567   */\n      0x00\n        /* \"#utility.yul\":563:564   */\n      dup1\n        /* \"#utility.yul\":556:568   */\n      revert\n        /* \"#utility.yul\":580:682   */\n    tag_81:\n        /* \"#utility.yul\":621:627   */\n      0x00\n        /* \"#utility.yul\":672:674   */\n      0x1f\n        /* \"#utility.yul\":668:675   */\n      not\n        /* \"#utility.yul\":663:665   */\n      0x1f\n        /* \"#utility.yul\":656:661   */\n      dup4\n        /* \"#utility.yul\":652:666   */\n      add\n        /* \"#utility.yul\":648:676   */\n      and\n        /* \"#utility.yul\":638:676   */\n      swap1\n      pop\n        /* \"#utility.yul\":580:682   */\n      swap2\n      swap1\n      pop\n      jump\t// out\n        /* \"#utility.yul\":688:868   */\n    tag_82:\n        /* \"#utility.yul\":736:813   */\n      0x4e487b7100000000000000000000000000000000000000000000000000000000\n        /* \"#utility.yul\":733:734   */\n      0x00\n        /* \"#utility.yul\":726:814   */\n      mstore\n        /* \"#utility.yul\":833:837   */\n      0x41\n        /* \"#utility.yul\":830:831   */\n      0x04\n        /* \"#utility.yul\":823:838   */\n      mstore\n        /* \"#utility.yul\":857:861   */\n      0x24\n        /* \"#utility.yul\":854:855   */\n      0x00\n        /* \"#utility.yul\":847:862   */\n      revert\n        /* \"#utility.yul\":874:1155   */\n    tag_83:\n        /* \"#utility.yul\":957:984   */\n      tag_140\n        /* \"#utility.yul\":979:983   */\n      dup3\n        /* \"#utility.yul\":957:984   */\n      tag_81\n      jump\t// in\n    tag_140:\n        /* \"#utility.yul\":949:955   */\n      dup2\n        /* \"#utility.yul\":945:985   */\n      add\n        /* \"#utility.yul\":1087:1093   */\n      dup2\n        /* \"#utility.yul\":1075:1085   */\n      dup2\n        /* \"#utility.yul\":1072:1094   */\n      lt\n        /* \"#utility.yul\":1051:1069   */\n      0xffffffffffffffff\n        /* \"#utility.yul\":1039:1049   */\n      dup3\n        /* \"#utility.yul\":1036:1070   */\n      gt\n        /* \"#utility.yul\":1033:1095   */\n      or\n        /* \"#utility.yul\":1030:1118   */\n      iszero\n      tag_141\n      jumpi\n        /* \"#utility.yul\":1098:1116   */\n      tag_142\n      tag_82\n      jump\t// in\n    tag_142:\n        /* \"#utility.yul\":1030:1118   */\n    tag_141:\n        /* \"#utility.yul\":1138:1148   */\n      dup1\n        /* \"#utility.yul\":1134:1136   */\n      0x40\n        /* \"#utility.yul\":1127:1149   */\n      mstore\n        /* \"#utility.yul\":917:1155   */\n      pop\n        /* \"#utility.yul\":874:1155   */\n      pop\n      pop\n      jump\t// out\n        /* \"#utility.yul\":1161:1290   */\n    tag_84:\n        /* \"#utility.yul\":1195:1201   */\n      0x00\n        /* \"#utility.yul\":1222:1242   */\n      tag_144\n      tag_76\n      jump\t// in\n    tag_144:\n        /* \"#utility.yul\":1212:1242   */\n      swap1\n      pop\n        /* \"#utility.yul\":1251:1284   */\n      tag_145\n        /* \"#utility.yul\":1279:1283   */\n      dup3\n        /* \"#utility.yul\":1271:1277   */\n      dup3\n        /* \"#utility.yul\":1251:1284   */\n      tag_83\n      jump\t// in\n    tag_145:\n        /* \"#utility.yul\":1161:1290   */\n      swap2\n      swap1\n      pop\n      jump\t// out\n        /* \"#utility.yul\":1296:1604   */\n    tag_85:\n        /* \"#utility.yul\":1358:1362   */\n      0x00\n        /* \"#utility.yul\":1448:1466   */\n      0xffffffffffffffff\n        /* \"#utility.yul\":1440:1446   */\n      dup3\n        /* \"#utility.yul\":1437:1467   */\n      gt\n        /* \"#utility.yul\":1434:1490   */\n      iszero\n      tag_147\n      jumpi\n        /* \"#utility.yul\":1470:1488   */\n      tag_148\n      tag_82\n      jump\t// in\n    tag_148:\n        /* \"#utility.yul\":1434:1490   */\n    tag_147:\n        /* \"#utility.yul\":1508:1537   */\n      tag_149\n        /* \"#utility.yul\":1530:1536   */\n      dup3\n        /* \"#utility.yul\":1508:1537   */\n      tag_81\n      jump\t// in\n    tag_149:\n        /* \"#utility.yul\":1500:1537   */\n      swap1\n      pop\n        /* \"#utility.yul\":1592:1596   */\n      0x20\n        /* \"#utility.yul\":1586:1590   */\n      dup2\n        /* \"#utility.yul\":1582:1597   */\n      add\n        /* \"#utility.yul\":1574:1597   */\n      swap1\n      pop\n        /* \"#utility.yul\":1296:1604   */\n      swap2\n      swap1\n      pop\n      jump\t// out\n        /* \"#utility.yul\":1610:1756   */\n    tag_86:\n        /* \"#utility.yul\":1707:1713   */\n      dup3\n        /* \"#utility.yul\":1702:1705   */\n      dup2\n        /* \"#utility.yul\":1697:1700   */\n      dup4\n        /* \"#utility.yul\":1684:1714   */\n      calldatacopy\n        /* \"#utility.yul\":1748:1749   */\n      0x00\n        /* \"#utility.yul\":1739:1745   */\n      dup4\n        /* \"#utility.yul\":1734:1737   */\n      dup4\n        /* \"#utility.yul\":1730:1746   */\n      add\n        /* \"#utility.yul\":1723:1750   */\n      mstore\n        /* \"#utility.yul\":1610:1756   */\n      pop\n      pop\n      pop\n      jump\t// out\n        /* \"#utility.yul\":1762:2187   */\n    tag_87:\n        /* \"#utility.yul\":1840:1845   */\n      0x00\n        /* \"#utility.yul\":1865:1931   */\n      tag_152\n        /* \"#utility.yul\":1881:1930   */\n      tag_153\n        /* \"#utility.yul\":1923:1929   */\n      dup5\n        /* \"#utility.yul\":1881:1930   */\n      tag_85\n      jump\t// in\n    tag_153:\n        /* \"#utility.yul\":1865:1931   */\n      tag_84\n      jump\t// in\n    tag_152:\n        /* \"#utility.yul\":1856:1931   */\n      swap1\n      pop\n        /* \"#utility.yul\":1954:1960   */\n      dup3\n        /* \"#utility.yul\":1947:1952   */\n      dup2\n        /* \"#utility.yul\":1940:1961   */\n      mstore\n        /* \"#utility.yul\":1992:1996   */\n      0x20\n        /* \"#utility.yul\":1985:1990   */\n      dup2\n        /* \"#utility.yul\":1981:1997   */\n      add\n        /* \"#utility.yul\":2030:2033   */\n      dup5\n        /* \"#utility.yul\":2021:2027   */\n      dup5\n        /* \"#utility.yul\":2016:2019   */\n      dup5\n        /* \"#utility.yul\":2012:2028   */\n      add\n        /* \"#utility.yul\":2009:2034   */\n      gt\n        /* \"#utility.yul\":2006:2118   */\n      iszero\n      tag_154\n      jumpi\n        /* \"#utility.yul\":2037:2116   */\n      tag_155\n      tag_80\n      jump\t// in\n    tag_155:\n        /* \"#utility.yul\":2006:2118   */\n    tag_154:\n        /* \"#utility.yul\":2127:2181   */\n      tag_156\n        /* \"#utility.yul\":2174:2180   */\n      dup5\n        /* \"#utility.yul\":2169:2172   */\n      dup3\n        /* \"#utility.yul\":2164:2167   */\n      dup6\n        /* \"#utility.yul\":2127:2181   */\n      tag_86\n      jump\t// in\n    tag_156:\n        /* \"#utility.yul\":1846:2187   */\n      pop\n        /* \"#utility.yul\":1762:2187   */\n      swap4\n      swap3\n      pop\n      pop\n      pop\n      jump\t// out\n        /* \"#utility.yul\":2207:2547   */\n    tag_88:\n        /* \"#utility.yul\":2263:2268   */\n      0x00\n        /* \"#utility.yul\":2312:2315   */\n      dup3\n        /* \"#utility.yul\":2305:2309   */\n      0x1f\n        /* \"#utility.yul\":2297:2303   */\n      dup4\n        /* \"#utility.yul\":2293:2310   */\n      add\n        /* \"#utility.yul\":2289:2316   */\n      slt\n        /* \"#utility.yul\":2279:2401   */\n      tag_158\n      jumpi\n        /* \"#utility.yul\":2320:2399   */\n      tag_159\n      tag_79\n      jump\t// in\n    tag_159:\n        /* \"#utility.yul\":2279:2401   */\n    tag_158:\n        /* \"#utility.yul\":2437:2443   */\n      dup2\n        /* \"#utility.yul\":2424:2444   */\n      calldataload\n        /* \"#utility.yul\":2462:2541   */\n      tag_160\n        /* \"#utility.yul\":2537:2540   */\n      dup5\n        /* \"#utility.yul\":2529:2535   */\n      dup3\n        /* \"#utility.yul\":2522:2526   */\n      0x20\n        /* \"#utility.yul\":2514:2520   */\n      dup7\n        /* \"#utility.yul\":2510:2527   */\n      add\n        /* \"#utility.yul\":2462:2541   */\n      tag_87\n      jump\t// in\n    tag_160:\n        /* \"#utility.yul\":2453:2541   */\n      swap2\n      pop\n        /* \"#utility.yul\":2269:2547   */\n      pop\n        /* \"#utility.yul\":2207:2547   */\n      swap3\n      swap2\n      pop\n      pop\n      jump\t// out\n        /* \"#utility.yul\":2553:2630   */\n    tag_89:\n        /* \"#utility.yul\":2590:2597   */\n      0x00\n        /* \"#utility.yul\":2619:2624   */\n      dup2\n        /* \"#utility.yul\":2608:2624   */\n      swap1\n      pop\n        /* \"#utility.yul\":2553:2630   */\n      swap2\n      swap1\n      pop\n      jump\t// out\n        /* \"#utility.yul\":2636:2758   */\n    tag_90:\n        /* \"#utility.yul\":2709:2733   */\n      tag_163\n        /* \"#utility.yul\":2727:2732   */\n      dup2\n        /* \"#utility.yul\":2709:2733   */\n      tag_89\n      jump\t// in\n    tag_163:\n        /* \"#utility.yul\":2702:2707   */\n      dup2\n        /* \"#utility.yul\":2699:2734   */\n      eq\n        /* \"#utility.yul\":2689:2752   */\n      tag_164\n      jumpi\n        /* \"#utility.yul\":2748:2749   */\n      0x00\n        /* \"#utility.yul\":2745:2746   */\n      dup1\n        /* \"#utility.yul\":2738:2750   */\n      revert\n        /* \"#utility.yul\":2689:2752   */\n    tag_164:\n        /* \"#utility.yul\":2636:2758   */\n      pop\n      jump\t// out\n        /* \"#utility.yul\":2764:2903   */\n    tag_91:\n        /* \"#utility.yul\":2810:2815   */\n      0x00\n        /* \"#utility.yul\":2848:2854   */\n      dup2\n        /* \"#utility.yul\":2835:2855   */\n      calldataload\n        /* \"#utility.yul\":2826:2855   */\n      swap1\n      pop\n        /* \"#utility.yul\":2864:2897   */\n      tag_166\n        /* \"#utility.yul\":2891:2896   */\n      dup2\n        /* \"#utility.yul\":2864:2897   */\n      tag_90\n      jump\t// in\n    tag_166:\n        /* \"#utility.yul\":2764:2903   */\n      swap3\n      swap2\n      pop\n      pop\n      jump\t// out\n        /* \"#utility.yul\":2909:3854   */\n    tag_10:\n        /* \"#utility.yul\":3005:3011   */\n      0x00\n        /* \"#utility.yul\":3013:3019   */\n      dup1\n        /* \"#utility.yul\":3021:3027   */\n      0x00\n        /* \"#utility.yul\":3029:3035   */\n      dup1\n        /* \"#utility.yul\":3078:3081   */\n      0x80\n        /* \"#utility.yul\":3066:3075   */\n      dup6\n        /* \"#utility.yul\":3057:3064   */\n      dup8\n        /* \"#utility.yul\":3053:3076   */\n      sub\n        /* \"#utility.yul\":3049:3082   */\n      slt\n        /* \"#utility.yul\":3046:3166   */\n      iszero\n      tag_168\n      jumpi\n        /* \"#utility.yul\":3085:3164   */\n      tag_169\n      tag_77\n      jump\t// in\n    tag_169:\n        /* \"#utility.yul\":3046:3166   */\n    tag_168:\n        /* \"#utility.yul\":3233:3234   */\n      0x00\n        /* \"#utility.yul\":3222:3231   */\n      dup6\n        /* \"#utility.yul\":3218:3235   */\n      add\n        /* \"#utility.yul\":3205:3236   */\n      calldataload\n        /* \"#utility.yul\":3263:3281   */\n      0xffffffffffffffff\n        /* \"#utility.yul\":3255:3261   */\n      dup2\n        /* \"#utility.yul\":3252:3282   */\n      gt\n        /* \"#utility.yul\":3249:3366   */\n      iszero\n      tag_170\n      jumpi\n        /* \"#utility.yul\":3285:3364   */\n      tag_171\n      tag_78\n      jump\t// in\n    tag_171:\n        /* \"#utility.yul\":3249:3366   */\n    tag_170:\n        /* \"#utility.yul\":3390:3453   */\n      tag_172\n        /* \"#utility.yul\":3445:3452   */\n      dup8\n        /* \"#utility.yul\":3436:3442   */\n      dup3\n        /* \"#utility.yul\":3425:3434   */\n      dup9\n        /* \"#utility.yul\":3421:3443   */\n      add\n        /* \"#utility.yul\":3390:3453   */\n      tag_88\n      jump\t// in\n    tag_172:\n        /* \"#utility.yul\":3380:3453   */\n      swap5\n      pop\n        /* \"#utility.yul\":3176:3463   */\n      pop\n        /* \"#utility.yul\":3502:3504   */\n      0x20\n        /* \"#utility.yul\":3528:3581   */\n      tag_173\n        /* \"#utility.yul\":3573:3580   */\n      dup8\n        /* \"#utility.yul\":3564:3570   */\n      dup3\n        /* \"#utility.yul\":3553:3562   */\n      dup9\n        /* \"#utility.yul\":3549:3571   */\n      add\n        /* \"#utility.yul\":3528:3581   */\n      tag_91\n      jump\t// in\n    tag_173:\n        /* \"#utility.yul\":3518:3581   */\n      swap4\n      pop\n        /* \"#utility.yul\":3473:3591   */\n      pop\n        /* \"#utility.yul\":3630:3632   */\n      0x40\n        /* \"#utility.yul\":3656:3709   */\n      tag_174\n        /* \"#utility.yul\":3701:3708   */\n      dup8\n        /* \"#utility.yul\":3692:3698   */\n      dup3\n        /* \"#utility.yul\":3681:3690   */\n      dup9\n        /* \"#utility.yul\":3677:3699   */\n      add\n        /* \"#utility.yul\":3656:3709   */\n      tag_91\n      jump\t// in\n    tag_174:\n        /* \"#utility.yul\":3646:3709   */\n      swap3\n      pop\n        /* \"#utility.yul\":3601:3719   */\n      pop\n        /* \"#utility.yul\":3758:3760   */\n      0x60\n        /* \"#utility.yul\":3784:3837   */\n      tag_175\n        /* \"#utility.yul\":3829:3836   */\n      dup8\n        /* \"#utility.yul\":3820:3826   */\n      dup3\n        /* \"#utility.yul\":3809:3818   */\n      dup9\n        /* \"#utility.yul\":3805:3827   */\n      add\n        /* \"#utility.yul\":3784:3837   */\n      tag_91\n      jump\t// in\n    tag_175:\n        /* \"#utility.yul\":3774:3837   */\n      swap2\n      pop\n        /* \"#utility.yul\":3729:3847   */\n      pop\n        /* \"#utility.yul\":2909:3854   */\n      swap3\n      swap6\n      swap2\n      swap5\n      pop\n      swap3\n      pop\n      jump\t// out\n        /* \"#utility.yul\":3860:4189   */\n    tag_15:\n        /* \"#utility.yul\":3919:3925   */\n      0x00\n        /* \"#utility.yul\":3968:3970   */\n      0x20\n        /* \"#utility.yul\":3956:3965   */\n      dup3\n        /* \"#utility.yul\":3947:3954   */\n      dup5\n        /* \"#utility.yul\":3943:3966   */\n      sub\n        /* \"#utility.yul\":3939:3971   */\n      slt\n        /* \"#utility.yul\":3936:4055   */\n      iszero\n      tag_177\n      jumpi\n        /* \"#utility.yul\":3974:4053   */\n      tag_178\n      tag_77\n      jump\t// in\n    tag_178:\n        /* \"#utility.yul\":3936:4055   */\n    tag_177:\n        /* \"#utility.yul\":4094:4095   */\n      0x00\n        /* \"#utility.yul\":4119:4172   */\n      tag_179\n        /* \"#utility.yul\":4164:4171   */\n      dup5\n        /* \"#utility.yul\":4155:4161   */\n      dup3\n        /* \"#utility.yul\":4144:4153   */\n      dup6\n        /* \"#utility.yul\":4140:4162   */\n      add\n        /* \"#utility.yul\":4119:4172   */\n      tag_91\n      jump\t// in\n    tag_179:\n        /* \"#utility.yul\":4109:4172   */\n      swap2\n      pop\n        /* \"#utility.yul\":4065:4182   */\n      pop\n        /* \"#utility.yul\":3860:4189   */\n      swap3\n      swap2\n      pop\n      pop\n      jump\t// out\n        /* \"#utility.yul\":4195:4321   */\n    tag_92:\n        /* \"#utility.yul\":4232:4239   */\n      0x00\n        /* \"#utility.yul\":4272:4314   */\n      0xffffffffffffffffffffffffffffffffffffffff\n        /* \"#utility.yul\":4265:4270   */\n      dup3\n        /* \"#utility.yul\":4261:4315   */\n      and\n        /* \"#utility.yul\":4250:4315   */\n      swap1\n      pop\n        /* \"#utility.yul\":4195:4321   */\n      swap2\n      swap1\n      pop\n      jump\t// out\n        /* \"#utility.yul\":4327:4423   */\n    tag_93:\n        /* \"#utility.yul\":4364:4371   */\n      0x00\n        /* \"#utility.yul\":4393:4417   */\n      tag_182\n        /* \"#utility.yul\":4411:4416   */\n      dup3\n        /* \"#utility.yul\":4393:4417   */\n      tag_92\n      jump\t// in\n    tag_182:\n        /* \"#utility.yul\":4382:4417   */\n      swap1\n      pop\n        /* \"#utility.yul\":4327:4423   */\n      swap2\n      swap1\n      pop\n      jump\t// out\n        /* \"#utility.yul\":4429:4547   */\n    tag_94:\n        /* \"#utility.yul\":4516:4540   */\n      tag_184\n        /* \"#utility.yul\":4534:4539   */\n      dup2\n        /* \"#utility.yul\":4516:4540   */\n      tag_93\n      jump\t// in\n    tag_184:\n        /* \"#utility.yul\":4511:4514   */\n      dup3\n        /* \"#utility.yul\":4504:4541   */\n      mstore\n        /* \"#utility.yul\":4429:4547   */\n      pop\n      pop\n      jump\t// out\n        /* \"#utility.yul\":4553:4652   */\n    tag_95:\n        /* \"#utility.yul\":4605:4611   */\n      0x00\n        /* \"#utility.yul\":4639:4644   */\n      dup2\n        /* \"#utility.yul\":4633:4645   */\n      mload\n        /* \"#utility.yul\":4623:4645   */\n      swap1\n      pop\n        /* \"#utility.yul\":4553:4652   */\n      swap2\n      swap1\n      pop\n      jump\t// out\n        /* \"#utility.yul\":4658:4827   */\n    tag_96:\n        /* \"#utility.yul\":4742:4753   */\n      0x00\n        /* \"#utility.yul\":4776:4782   */\n      dup3\n        /* \"#utility.yul\":4771:4774   */\n      dup3\n        /* \"#utility.yul\":4764:4783   */\n      mstore\n        /* \"#utility.yul\":4816:4820   */\n      0x20\n        /* \"#utility.yul\":4811:4814   */\n      dup3\n        /* \"#utility.yul\":4807:4821   */\n      add\n        /* \"#utility.yul\":4792:4821   */\n      swap1\n      pop\n        /* \"#utility.yul\":4658:4827   */\n      swap3\n      swap2\n      pop\n      pop\n      jump\t// out\n        /* \"#utility.yul\":4833:5079   */\n    tag_97:\n        /* \"#utility.yul\":4914:4915   */\n      0x00\n        /* \"#utility.yul\":4924:5037   */\n    tag_188:\n        /* \"#utility.yul\":4938:4944   */\n      dup4\n        /* \"#utility.yul\":4935:4936   */\n      dup2\n        /* \"#utility.yul\":4932:4945   */\n      lt\n        /* \"#utility.yul\":4924:5037   */\n      iszero\n      tag_190\n      jumpi\n        /* \"#utility.yul\":5023:5024   */\n      dup1\n        /* \"#utility.yul\":5018:5021   */\n      dup3\n        /* \"#utility.yul\":5014:5025   */\n      add\n        /* \"#utility.yul\":5008:5026   */\n      mload\n        /* \"#utility.yul\":5004:5005   */\n      dup2\n        /* \"#utility.yul\":4999:5002   */\n      dup5\n        /* \"#utility.yul\":4995:5006   */\n      add\n        /* \"#utility.yul\":4988:5027   */\n      mstore\n        /* \"#utility.yul\":4960:4962   */\n      0x20\n        /* \"#utility.yul\":4957:4958   */\n      dup2\n        /* \"#utility.yul\":4953:4963   */\n      add\n        /* \"#utility.yul\":4948:4963   */\n      swap1\n      pop\n        /* \"#utility.yul\":4924:5037   */\n      jump(tag_188)\n    tag_190:\n        /* \"#utility.yul\":5071:5072   */\n      0x00\n        /* \"#utility.yul\":5062:5068   */\n      dup5\n        /* \"#utility.yul\":5057:5060   */\n      dup5\n        /* \"#utility.yul\":5053:5069   */\n      add\n        /* \"#utility.yul\":5046:5073   */\n      mstore\n        /* \"#utility.yul\":4895:5079   */\n      pop\n        /* \"#utility.yul\":4833:5079   */\n      pop\n      pop\n      pop\n      jump\t// out\n        /* \"#utility.yul\":5085:5462   */\n    tag_98:\n        /* \"#utility.yul\":5173:5176   */\n      0x00\n        /* \"#utility.yul\":5201:5240   */\n      tag_192\n        /* \"#utility.yul\":5234:5239   */\n      dup3\n        /* \"#utility.yul\":5201:5240   */\n      tag_95\n      jump\t// in\n    tag_192:\n        /* \"#utility.yul\":5256:5327   */\n      tag_193\n        /* \"#utility.yul\":5320:5326   */\n      dup2\n        /* \"#utility.yul\":5315:5318   */\n      dup6\n        /* \"#utility.yul\":5256:5327   */\n      tag_96\n      jump\t// in\n    tag_193:\n        /* \"#utility.yul\":5249:5327   */\n      swap4\n      pop\n        /* \"#utility.yul\":5336:5401   */\n      tag_194\n        /* \"#utility.yul\":5394:5400   */\n      dup2\n        /* \"#utility.yul\":5389:5392   */\n      dup6\n        /* \"#utility.yul\":5382:5386   */\n      0x20\n        /* \"#utility.yul\":5375:5380   */\n      dup7\n        /* \"#utility.yul\":5371:5387   */\n      add\n        /* \"#utility.yul\":5336:5401   */\n      tag_97\n      jump\t// in\n    tag_194:\n        /* \"#utility.yul\":5426:5455   */\n      tag_195\n        /* \"#utility.yul\":5448:5454   */\n      dup2\n        /* \"#utility.yul\":5426:5455   */\n      tag_81\n      jump\t// in\n    tag_195:\n        /* \"#utility.yul\":5421:5424   */\n      dup5\n        /* \"#utility.yul\":5417:5456   */\n      add\n        /* \"#utility.yul\":5410:5456   */\n      swap2\n      pop\n        /* \"#utility.yul\":5177:5462   */\n      pop\n        /* \"#utility.yul\":5085:5462   */\n      swap3\n      swap2\n      pop\n      pop\n      jump\t// out\n        /* \"#utility.yul\":5468:5586   */\n    tag_99:\n        /* \"#utility.yul\":5555:5579   */\n      tag_197\n        /* \"#utility.yul\":5573:5578   */\n      dup2\n        /* \"#utility.yul\":5555:5579   */\n      tag_89\n      jump\t// in\n    tag_197:\n        /* \"#utility.yul\":5550:5553   */\n      dup3\n        /* \"#utility.yul\":5543:5580   */\n      mstore\n        /* \"#utility.yul\":5468:5586   */\n      pop\n      pop\n      jump\t// out\n        /* \"#utility.yul\":5592:6458   */\n    tag_18:\n        /* \"#utility.yul\":5845:5849   */\n      0x00\n        /* \"#utility.yul\":5883:5886   */\n      0xc0\n        /* \"#utility.yul\":5872:5881   */\n      dup3\n        /* \"#utility.yul\":5868:5887   */\n      add\n        /* \"#utility.yul\":5860:5887   */\n      swap1\n      pop\n        /* \"#utility.yul\":5897:5968   */\n      tag_199\n        /* \"#utility.yul\":5965:5966   */\n      0x00\n        /* \"#utility.yul\":5954:5963   */\n      dup4\n        /* \"#utility.yul\":5950:5967   */\n      add\n        /* \"#utility.yul\":5941:5947   */\n      dup10\n        /* \"#utility.yul\":5897:5968   */\n      tag_94\n      jump\t// in\n    tag_199:\n        /* \"#utility.yul\":6015:6024   */\n      dup2\n        /* \"#utility.yul\":6009:6013   */\n      dup2\n        /* \"#utility.yul\":6005:6025   */\n      sub\n        /* \"#utility.yul\":6000:6002   */\n      0x20\n        /* \"#utility.yul\":5989:5998   */\n      dup4\n        /* \"#utility.yul\":5985:6003   */\n      add\n        /* \"#utility.yul\":5978:6026   */\n      mstore\n        /* \"#utility.yul\":6043:6121   */\n      tag_200\n        /* \"#utility.yul\":6116:6120   */\n      dup2\n        /* \"#utility.yul\":6107:6113   */\n      dup9\n        /* \"#utility.yul\":6043:6121   */\n      tag_98\n      jump\t// in\n    tag_200:\n        /* \"#utility.yul\":6035:6121   */\n      swap1\n      pop\n        /* \"#utility.yul\":6131:6203   */\n      tag_201\n        /* \"#utility.yul\":6199:6201   */\n      0x40\n        /* \"#utility.yul\":6188:6197   */\n      dup4\n        /* \"#utility.yul\":6184:6202   */\n      add\n        /* \"#utility.yul\":6175:6181   */\n      dup8\n        /* \"#utility.yul\":6131:6203   */\n      tag_99\n      jump\t// in\n    tag_201:\n        /* \"#utility.yul\":6213:6285   */\n      tag_202\n        /* \"#utility.yul\":6281:6283   */\n      0x60\n        /* \"#utility.yul\":6270:6279   */\n      dup4\n        /* \"#utility.yul\":6266:6284   */\n      add\n        /* \"#utility.yul\":6257:6263   */\n      dup7\n        /* \"#utility.yul\":6213:6285   */\n      tag_99\n      jump\t// in\n    tag_202:\n        /* \"#utility.yul\":6295:6368   */\n      tag_203\n        /* \"#utility.yul\":6363:6366   */\n      0x80\n        /* \"#utility.yul\":6352:6361   */\n      dup4\n        /* \"#utility.yul\":6348:6367   */\n      add\n        /* \"#utility.yul\":6339:6345   */\n      dup6\n        /* \"#utility.yul\":6295:6368   */\n      tag_99\n      jump\t// in\n    tag_203:\n        /* \"#utility.yul\":6378:6451   */\n      tag_204\n        /* \"#utility.yul\":6446:6449   */\n      0xa0\n        /* \"#utility.yul\":6435:6444   */\n      dup4\n        /* \"#utility.yul\":6431:6450   */\n      add\n        /* \"#utility.yul\":6422:6428   */\n      dup5\n        /* \"#utility.yul\":6378:6451   */\n      tag_99\n      jump\t// in\n    tag_204:\n        /* \"#utility.yul\":5592:6458   */\n      swap8\n      swap7\n      pop\n      pop\n      pop\n      pop\n      pop\n      pop\n      pop\n      jump\t// out\n        /* \"#utility.yul\":6464:6938   */\n    tag_21:\n        /* \"#utility.yul\":6532:6538   */\n      0x00\n        /* \"#utility.yul\":6540:6546   */\n      dup1\n        /* \"#utility.yul\":6589:6591   */\n      0x40\n        /* \"#utility.yul\":6577:6586   */\n      dup4\n        /* \"#utility.yul\":6568:6575   */\n      dup6\n        /* \"#utility.yul\":6564:6587   */\n      sub\n        /* \"#utility.yul\":6560:6592   */\n      slt\n        /* \"#utility.yul\":6557:6676   */\n      iszero\n      tag_206\n      jumpi\n        /* \"#utility.yul\":6595:6674   */\n      tag_207\n      tag_77\n      jump\t// in\n    tag_207:\n        /* \"#utility.yul\":6557:6676   */\n    tag_206:\n        /* \"#utility.yul\":6715:6716   */\n      0x00\n        /* \"#utility.yul\":6740:6793   */\n      tag_208\n        /* \"#utility.yul\":6785:6792   */\n      dup6\n        /* \"#utility.yul\":6776:6782   */\n      dup3\n        /* \"#utility.yul\":6765:6774   */\n      dup7\n        /* \"#utility.yul\":6761:6783   */\n      add\n        /* \"#utility.yul\":6740:6793   */\n      tag_91\n      jump\t// in\n    tag_208:\n        /* \"#utility.yul\":6730:6793   */\n      swap3\n      pop\n        /* \"#utility.yul\":6686:6803   */\n      pop\n        /* \"#utility.yul\":6842:6844   */\n      0x20\n        /* \"#utility.yul\":6868:6921   */\n      tag_209\n        /* \"#utility.yul\":6913:6920   */\n      dup6\n        /* \"#utility.yul\":6904:6910   */\n      dup3\n        /* \"#utility.yul\":6893:6902   */\n      dup7\n        /* \"#utility.yul\":6889:6911   */\n      add\n        /* \"#utility.yul\":6868:6921   */\n      tag_91\n      jump\t// in\n    tag_209:\n        /* \"#utility.yul\":6858:6921   */\n      swap2\n      pop\n        /* \"#utility.yul\":6813:6931   */\n      pop\n        /* \"#utility.yul\":6464:6938   */\n      swap3\n      pop\n      swap3\n      swap1\n      pop\n      jump\t// out\n        /* \"#utility.yul\":6944:7066   */\n    tag_100:\n        /* \"#utility.yul\":7017:7041   */\n      tag_211\n        /* \"#utility.yul\":7035:7040   */\n      dup2\n        /* \"#utility.yul\":7017:7041   */\n      tag_93\n      jump\t// in\n    tag_211:\n        /* \"#utility.yul\":7010:7015   */\n      dup2\n        /* \"#utility.yul\":7007:7042   */\n      eq\n        /* \"#utility.yul\":6997:7060   */\n      tag_212\n      jumpi\n        /* \"#utility.yul\":7056:7057   */\n      0x00\n        /* \"#utility.yul\":7053:7054   */\n      dup1\n        /* \"#utility.yul\":7046:7058   */\n      revert\n        /* \"#utility.yul\":6997:7060   */\n    tag_212:\n        /* \"#utility.yul\":6944:7066   */\n      pop\n      jump\t// out\n        /* \"#utility.yul\":7072:7211   */\n    tag_101:\n        /* \"#utility.yul\":7118:7123   */\n      0x00\n        /* \"#utility.yul\":7156:7162   */\n      dup2\n        /* \"#utility.yul\":7143:7163   */\n      calldataload\n        /* \"#utility.yul\":7134:7163   */\n      swap1\n      pop\n        /* \"#utility.yul\":7172:7205   */\n      tag_214\n        /* \"#utility.yul\":7199:7204   */\n      dup2\n        /* \"#utility.yul\":7172:7205   */\n      tag_100\n      jump\t// in\n    tag_214:\n        /* \"#utility.yul\":7072:7211   */\n      swap3\n      swap2\n      pop\n      pop\n      jump\t// out\n        /* \"#utility.yul\":7217:7691   */\n    tag_26:\n        /* \"#utility.yul\":7285:7291   */\n      0x00\n        /* \"#utility.yul\":7293:7299   */\n      dup1\n        /* \"#utility.yul\":7342:7344   */\n      0x40\n        /* \"#utility.yul\":7330:7339   */\n      dup4\n        /* \"#utility.yul\":7321:7328   */\n      dup6\n        /* \"#utility.yul\":7317:7340   */\n      sub\n        /* \"#utility.yul\":7313:7345   */\n      slt\n        /* \"#utility.yul\":7310:7429   */\n      iszero\n      tag_216\n      jumpi\n        /* \"#utility.yul\":7348:7427   */\n      tag_217\n      tag_77\n      jump\t// in\n    tag_217:\n        /* \"#utility.yul\":7310:7429   */\n    tag_216:\n        /* \"#utility.yul\":7468:7469   */\n      0x00\n        /* \"#utility.yul\":7493:7546   */\n      tag_218\n        /* \"#utility.yul\":7538:7545   */\n      dup6\n        /* \"#utility.yul\":7529:7535   */\n      dup3\n        /* \"#utility.yul\":7518:7527   */\n      dup7\n        /* \"#utility.yul\":7514:7536   */\n      add\n        /* \"#utility.yul\":7493:7546   */\n      tag_101\n      jump\t// in\n    tag_218:\n        /* \"#utility.yul\":7483:7546   */\n      swap3\n      pop\n        /* \"#utility.yul\":7439:7556   */\n      pop\n        /* \"#utility.yul\":7595:7597   */\n      0x20\n        /* \"#utility.yul\":7621:7674   */\n      tag_219\n        /* \"#utility.yul\":7666:7673   */\n      dup6\n        /* \"#utility.yul\":7657:7663   */\n      dup3\n        /* \"#utility.yul\":7646:7655   */\n      dup7\n        /* \"#utility.yul\":7642:7664   */\n      add\n        /* \"#utility.yul\":7621:7674   */\n      tag_91\n      jump\t// in\n    tag_219:\n        /* \"#utility.yul\":7611:7674   */\n      swap2\n      pop\n        /* \"#utility.yul\":7566:7684   */\n      pop\n        /* \"#utility.yul\":7217:7691   */\n      swap3\n      pop\n      swap3\n      swap1\n      pop\n      jump\t// out\n        /* \"#utility.yul\":7697:7919   */\n    tag_29:\n        /* \"#utility.yul\":7790:7794   */\n      0x00\n        /* \"#utility.yul\":7828:7830   */\n      0x20\n        /* \"#utility.yul\":7817:7826   */\n      dup3\n        /* \"#utility.yul\":7813:7831   */\n      add\n        /* \"#utility.yul\":7805:7831   */\n      swap1\n      pop\n        /* \"#utility.yul\":7841:7912   */\n      tag_221\n        /* \"#utility.yul\":7909:7910   */\n      0x00\n        /* \"#utility.yul\":7898:7907   */\n      dup4\n        /* \"#utility.yul\":7894:7911   */\n      add\n        /* \"#utility.yul\":7885:7891   */\n      dup5\n        /* \"#utility.yul\":7841:7912   */\n      tag_99\n      jump\t// in\n    tag_221:\n        /* \"#utility.yul\":7697:7919   */\n      swap3\n      swap2\n      pop\n      pop\n      jump\t// out\n        /* \"#utility.yul\":7925:8544   */\n    tag_33:\n        /* \"#utility.yul\":8002:8008   */\n      0x00\n        /* \"#utility.yul\":8010:8016   */\n      dup1\n        /* \"#utility.yul\":8018:8024   */\n      0x00\n        /* \"#utility.yul\":8067:8069   */\n      0x60\n        /* \"#utility.yul\":8055:8064   */\n      dup5\n        /* \"#utility.yul\":8046:8053   */\n      dup7\n        /* \"#utility.yul\":8042:8065   */\n      sub\n        /* \"#utility.yul\":8038:8070   */\n      slt\n        /* \"#utility.yul\":8035:8154   */\n      iszero\n      tag_223\n      jumpi\n        /* \"#utility.yul\":8073:8152   */\n      tag_224\n      tag_77\n      jump\t// in\n    tag_224:\n        /* \"#utility.yul\":8035:8154   */\n    tag_223:\n        /* \"#utility.yul\":8193:8194   */\n      0x00\n        /* \"#utility.yul\":8218:8271   */\n      tag_225\n        /* \"#utility.yul\":8263:8270   */\n      dup7\n        /* \"#utility.yul\":8254:8260   */\n      dup3\n        /* \"#utility.yul\":8243:8252   */\n      dup8\n        /* \"#utility.yul\":8239:8261   */\n      add\n        /* \"#utility.yul\":8218:8271   */\n      tag_91\n      jump\t// in\n    tag_225:\n        /* \"#utility.yul\":8208:8271   */\n      swap4\n      pop\n        /* \"#utility.yul\":8164:8281   */\n      pop\n        /* \"#utility.yul\":8320:8322   */\n      0x20\n        /* \"#utility.yul\":8346:8399   */\n      tag_226\n        /* \"#utility.yul\":8391:8398   */\n      dup7\n        /* \"#utility.yul\":8382:8388   */\n      dup3\n        /* \"#utility.yul\":8371:8380   */\n      dup8\n        /* \"#utility.yul\":8367:8389   */\n      add\n        /* \"#utility.yul\":8346:8399   */\n      tag_91\n      jump\t// in\n    tag_226:\n        /* \"#utility.yul\":8336:8399   */\n      swap3\n      pop\n        /* \"#utility.yul\":8291:8409   */\n      pop\n        /* \"#utility.yul\":8448:8450   */\n      0x40\n        /* \"#utility.yul\":8474:8527   */\n      tag_227\n        /* \"#utility.yul\":8519:8526   */\n      dup7\n        /* \"#utility.yul\":8510:8516   */\n      dup3\n        /* \"#utility.yul\":8499:8508   */\n      dup8\n        /* \"#utility.yul\":8495:8517   */\n      add\n        /* \"#utility.yul\":8474:8527   */\n      tag_101\n      jump\t// in\n    tag_227:\n        /* \"#utility.yul\":8464:8527   */\n      swap2\n      pop\n        /* \"#utility.yul\":8419:8537   */\n      pop\n        /* \"#utility.yul\":7925:8544   */\n      swap3\n      pop\n      swap3\n      pop\n      swap3\n      jump\t// out\n        /* \"#utility.yul\":8550:8718   */\n    tag_102:\n        /* \"#utility.yul\":8690:8710   */\n      0x546865204576656e7420686173206f7665720000000000000000000000000000\n        /* \"#utility.yul\":8686:8687   */\n      0x00\n        /* \"#utility.yul\":8678:8684   */\n      dup3\n        /* \"#utility.yul\":8674:8688   */\n      add\n        /* \"#utility.yul\":8667:8711   */\n      mstore\n        /* \"#utility.yul\":8550:8718   */\n      pop\n      jump\t// out\n        /* \"#utility.yul\":8724:9090   */\n    tag_103:\n        /* \"#utility.yul\":8866:8869   */\n      0x00\n        /* \"#utility.yul\":8887:8954   */\n      tag_230\n        /* \"#utility.yul\":8951:8953   */\n      0x12\n        /* \"#utility.yul\":8946:8949   */\n      dup4\n        /* \"#utility.yul\":8887:8954   */\n      tag_96\n      jump\t// in\n    tag_230:\n        /* \"#utility.yul\":8880:8954   */\n      swap2\n      pop\n        /* \"#utility.yul\":8963:9056   */\n      tag_231\n        /* \"#utility.yul\":9052:9055   */\n      dup3\n        /* \"#utility.yul\":8963:9056   */\n      tag_102\n      jump\t// in\n    tag_231:\n        /* \"#utility.yul\":9081:9083   */\n      0x20\n        /* \"#utility.yul\":9076:9079   */\n      dup3\n        /* \"#utility.yul\":9072:9084   */\n      add\n        /* \"#utility.yul\":9065:9084   */\n      swap1\n      pop\n        /* \"#utility.yul\":8724:9090   */\n      swap2\n      swap1\n      pop\n      jump\t// out\n        /* \"#utility.yul\":9096:9515   */\n    tag_38:\n        /* \"#utility.yul\":9262:9266   */\n      0x00\n        /* \"#utility.yul\":9300:9302   */\n      0x20\n        /* \"#utility.yul\":9289:9298   */\n      dup3\n        /* \"#utility.yul\":9285:9303   */\n      add\n        /* \"#utility.yul\":9277:9303   */\n      swap1\n      pop\n        /* \"#utility.yul\":9349:9358   */\n      dup2\n        /* \"#utility.yul\":9343:9347   */\n      dup2\n        /* \"#utility.yul\":9339:9359   */\n      sub\n        /* \"#utility.yul\":9335:9336   */\n      0x00\n        /* \"#utility.yul\":9324:9333   */\n      dup4\n        /* \"#utility.yul\":9320:9337   */\n      add\n        /* \"#utility.yul\":9313:9360   */\n      mstore\n        /* \"#utility.yul\":9377:9508   */\n      tag_233\n        /* \"#utility.yul\":9503:9507   */\n      dup2\n        /* \"#utility.yul\":9377:9508   */\n      tag_103\n      jump\t// in\n    tag_233:\n        /* \"#utility.yul\":9369:9508   */\n      swap1\n      pop\n        /* \"#utility.yul\":9096:9515   */\n      swap2\n      swap1\n      pop\n      jump\t// out\n        /* \"#utility.yul\":9521:9693   */\n    tag_104:\n        /* \"#utility.yul\":9661:9685   */\n      0x796f752063616e2052756e20746865204576656e747300000000000000000000\n        /* \"#utility.yul\":9657:9658   */\n      0x00\n        /* \"#utility.yul\":9649:9655   */\n      dup3\n        /* \"#utility.yul\":9645:9659   */\n      add\n        /* \"#utility.yul\":9638:9686   */\n      mstore\n        /* \"#utility.yul\":9521:9693   */\n      pop\n      jump\t// out\n        /* \"#utility.yul\":9699:10065   */\n    tag_105:\n        /* \"#utility.yul\":9841:9844   */\n      0x00\n        /* \"#utility.yul\":9862:9929   */\n      tag_236\n        /* \"#utility.yul\":9926:9928   */\n      0x16\n        /* \"#utility.yul\":9921:9924   */\n      dup4\n        /* \"#utility.yul\":9862:9929   */\n      tag_96\n      jump\t// in\n    tag_236:\n        /* \"#utility.yul\":9855:9929   */\n      swap2\n      pop\n        /* \"#utility.yul\":9938:10031   */\n      tag_237\n        /* \"#utility.yul\":10027:10030   */\n      dup3\n        /* \"#utility.yul\":9938:10031   */\n      tag_104\n      jump\t// in\n    tag_237:\n        /* \"#utility.yul\":10056:10058   */\n      0x20\n        /* \"#utility.yul\":10051:10054   */\n      dup3\n        /* \"#utility.yul\":10047:10059   */\n      add\n        /* \"#utility.yul\":10040:10059   */\n      swap1\n      pop\n        /* \"#utility.yul\":9699:10065   */\n      swap2\n      swap1\n      pop\n      jump\t// out\n        /* \"#utility.yul\":10071:10490   */\n    tag_41:\n        /* \"#utility.yul\":10237:10241   */\n      0x00\n        /* \"#utility.yul\":10275:10277   */\n      0x20\n        /* \"#utility.yul\":10264:10273   */\n      dup3\n        /* \"#utility.yul\":10260:10278   */\n      add\n        /* \"#utility.yul\":10252:10278   */\n      swap1\n      pop\n        /* \"#utility.yul\":10324:10333   */\n      dup2\n        /* \"#utility.yul\":10318:10322   */\n      dup2\n        /* \"#utility.yul\":10314:10334   */\n      sub\n        /* \"#utility.yul\":10310:10311   */\n      0x00\n        /* \"#utility.yul\":10299:10308   */\n      dup4\n        /* \"#utility.yul\":10295:10312   */\n      add\n        /* \"#utility.yul\":10288:10335   */\n      mstore\n        /* \"#utility.yul\":10352:10483   */\n      tag_239\n        /* \"#utility.yul\":10478:10482   */\n      dup2\n        /* \"#utility.yul\":10352:10483   */\n      tag_105\n      jump\t// in\n    tag_239:\n        /* \"#utility.yul\":10344:10483   */\n      swap1\n      pop\n        /* \"#utility.yul\":10071:10490   */\n      swap2\n      swap1\n      pop\n      jump\t// out\n        /* \"#utility.yul\":10496:10676   */\n    tag_106:\n        /* \"#utility.yul\":10544:10621   */\n      0x4e487b7100000000000000000000000000000000000000000000000000000000\n        /* \"#utility.yul\":10541:10542   */\n      0x00\n        /* \"#utility.yul\":10534:10622   */\n      mstore\n        /* \"#utility.yul\":10641:10645   */\n      0x22\n        /* \"#utility.yul\":10638:10639   */\n      0x04\n        /* \"#utility.yul\":10631:10646   */\n      mstore\n        /* \"#utility.yul\":10665:10669   */\n      0x24\n        /* \"#utility.yul\":10662:10663   */\n      0x00\n        /* \"#utility.yul\":10655:10670   */\n      revert\n        /* \"#utility.yul\":10682:11002   */\n    tag_47:\n        /* \"#utility.yul\":10726:10732   */\n      0x00\n        /* \"#utility.yul\":10763:10764   */\n      0x02\n        /* \"#utility.yul\":10757:10761   */\n      dup3\n        /* \"#utility.yul\":10753:10765   */\n      div\n        /* \"#utility.yul\":10743:10765   */\n      swap1\n      pop\n        /* \"#utility.yul\":10810:10811   */\n      0x01\n        /* \"#utility.yul\":10804:10808   */\n      dup3\n        /* \"#utility.yul\":10800:10812   */\n      and\n        /* \"#utility.yul\":10831:10849   */\n      dup1\n        /* \"#utility.yul\":10821:10902   */\n      tag_242\n      jumpi\n        /* \"#utility.yul\":10887:10891   */\n      0x7f\n        /* \"#utility.yul\":10879:10885   */\n      dup3\n        /* \"#utility.yul\":10875:10892   */\n      and\n        /* \"#utility.yul\":10865:10892   */\n      swap2\n      pop\n        /* \"#utility.yul\":10821:10902   */\n    tag_242:\n        /* \"#utility.yul\":10949:10951   */\n      0x20\n        /* \"#utility.yul\":10941:10947   */\n      dup3\n        /* \"#utility.yul\":10938:10952   */\n      lt\n        /* \"#utility.yul\":10918:10936   */\n      dup2\n        /* \"#utility.yul\":10915:10953   */\n      sub\n        /* \"#utility.yul\":10912:10996   */\n      tag_243\n      jumpi\n        /* \"#utility.yul\":10968:10986   */\n      tag_244\n      tag_106\n      jump\t// in\n    tag_244:\n        /* \"#utility.yul\":10912:10996   */\n    tag_243:\n        /* \"#utility.yul\":10733:11002   */\n      pop\n        /* \"#utility.yul\":10682:11002   */\n      swap2\n      swap1\n      pop\n      jump\t// out\n        /* \"#utility.yul\":11008:11149   */\n    tag_107:\n        /* \"#utility.yul\":11057:11061   */\n      0x00\n        /* \"#utility.yul\":11080:11083   */\n      dup2\n        /* \"#utility.yul\":11072:11083   */\n      swap1\n      pop\n        /* \"#utility.yul\":11103:11106   */\n      dup2\n        /* \"#utility.yul\":11100:11101   */\n      0x00\n        /* \"#utility.yul\":11093:11107   */\n      mstore\n        /* \"#utility.yul\":11137:11141   */\n      0x20\n        /* \"#utility.yul\":11134:11135   */\n      0x00\n        /* \"#utility.yul\":11124:11142   */\n      keccak256\n        /* \"#utility.yul\":11116:11142   */\n      swap1\n      pop\n        /* \"#utility.yul\":11008:11149   */\n      swap2\n      swap1\n      pop\n      jump\t// out\n        /* \"#utility.yul\":11155:11248   */\n    tag_108:\n        /* \"#utility.yul\":11192:11198   */\n      0x00\n        /* \"#utility.yul\":11239:11241   */\n      0x20\n        /* \"#utility.yul\":11234:11236   */\n      0x1f\n        /* \"#utility.yul\":11227:11232   */\n      dup4\n        /* \"#utility.yul\":11223:11237   */\n      add\n        /* \"#utility.yul\":11219:11242   */\n      div\n        /* \"#utility.yul\":11209:11242   */\n      swap1\n      pop\n        /* \"#utility.yul\":11155:11248   */\n      swap2\n      swap1\n      pop\n      jump\t// out\n        /* \"#utility.yul\":11254:11361   */\n    tag_109:\n        /* \"#utility.yul\":11298:11306   */\n      0x00\n        /* \"#utility.yul\":11348:11353   */\n      dup3\n        /* \"#utility.yul\":11342:11346   */\n      dup3\n        /* \"#utility.yul\":11338:11354   */\n      shl\n        /* \"#utility.yul\":11317:11354   */\n      swap1\n      pop\n        /* \"#utility.yul\":11254:11361   */\n      swap3\n      swap2\n      pop\n      pop\n      jump\t// out\n        /* \"#utility.yul\":11367:11760   */\n    tag_110:\n        /* \"#utility.yul\":11436:11442   */\n      0x00\n        /* \"#utility.yul\":11486:11487   */\n      0x08\n        /* \"#utility.yul\":11474:11484   */\n      dup4\n        /* \"#utility.yul\":11470:11488   */\n      mul\n        /* \"#utility.yul\":11509:11606   */\n      tag_249\n        /* \"#utility.yul\":11539:11605   */\n      0xffffffffffffffffffffffffffffffffffffffffffffffffffffffffffffffff\n        /* \"#utility.yul\":11528:11537   */\n      dup3\n        /* \"#utility.yul\":11509:11606   */\n      tag_109\n      jump\t// in\n    tag_249:\n        /* \"#utility.yul\":11627:11666   */\n      tag_250\n        /* \"#utility.yul\":11657:11665   */\n      dup7\n        /* \"#utility.yul\":11646:11655   */\n      dup4\n        /* \"#utility.yul\":11627:11666   */\n      tag_109\n      jump\t// in\n    tag_250:\n        /* \"#utility.yul\":11615:11666   */\n      swap6\n      pop\n        /* \"#utility.yul\":11699:11703   */\n      dup1\n        /* \"#utility.yul\":11695:11704   */\n      not\n        /* \"#utility.yul\":11688:11693   */\n      dup5\n        /* \"#utility.yul\":11684:11705   */\n      and\n        /* \"#utility.yul\":11675:11705   */\n      swap4\n      pop\n        /* \"#utility.yul\":11748:11752   */\n      dup1\n        /* \"#utility.yul\":11738:11746   */\n      dup7\n        /* \"#utility.yul\":11734:11753   */\n      and\n        /* \"#utility.yul\":11727:11732   */\n      dup5\n        /* \"#utility.yul\":11724:11754   */\n      or\n        /* \"#utility.yul\":11714:11754   */\n      swap3\n      pop\n        /* \"#utility.yul\":11443:11760   */\n      pop\n      pop\n        /* \"#utility.yul\":11367:11760   */\n      swap4\n      swap3\n      pop\n      pop\n      pop\n      jump\t// out\n        /* \"#utility.yul\":11766:11826   */\n    tag_111:\n        /* \"#utility.yul\":11794:11797   */\n      0x00\n        /* \"#utility.yul\":11815:11820   */\n      dup2\n        /* \"#utility.yul\":11808:11820   */\n      swap1\n      pop\n        /* \"#utility.yul\":11766:11826   */\n      swap2\n      swap1\n      pop\n      jump\t// out\n        /* \"#utility.yul\":11832:11974   */\n    tag_112:\n        /* \"#utility.yul\":11882:11891   */\n      0x00\n        /* \"#utility.yul\":11915:11968   */\n      tag_253\n        /* \"#utility.yul\":11933:11967   */\n      tag_254\n        /* \"#utility.yul\":11942:11966   */\n      tag_255\n        /* \"#utility.yul\":11960:11965   */\n      dup5\n        /* \"#utility.yul\":11942:11966   */\n      tag_89\n      jump\t// in\n    tag_255:\n        /* \"#utility.yul\":11933:11967   */\n      tag_111\n      jump\t// in\n    tag_254:\n        /* \"#utility.yul\":11915:11968   */\n      tag_89\n      jump\t// in\n    tag_253:\n        /* \"#utility.yul\":11902:11968   */\n      swap1\n      pop\n        /* \"#utility.yul\":11832:11974   */\n      swap2\n      swap1\n      pop\n      jump\t// out\n        /* \"#utility.yul\":11980:12055   */\n    tag_113:\n        /* \"#utility.yul\":12023:12026   */\n      0x00\n        /* \"#utility.yul\":12044:12049   */\n      dup2\n        /* \"#utility.yul\":12037:12049   */\n      swap1\n      pop\n        /* \"#utility.yul\":11980:12055   */\n      swap2\n      swap1\n      pop\n      jump\t// out\n        /* \"#utility.yul\":12061:12330   */\n    tag_114:\n        /* \"#utility.yul\":12171:12210   */\n      tag_258\n        /* \"#utility.yul\":12202:12209   */\n      dup4\n        /* \"#utility.yul\":12171:12210   */\n      tag_112\n      jump\t// in\n    tag_258:\n        /* \"#utility.yul\":12232:12323   */\n      tag_259\n        /* \"#utility.yul\":12281:12322   */\n      tag_260\n        /* \"#utility.yul\":12305:12321   */\n      dup3\n        /* \"#utility.yul\":12281:12322   */\n      tag_113\n      jump\t// in\n    tag_260:\n        /* \"#utility.yul\":12273:12279   */\n      dup5\n        /* \"#utility.yul\":12266:12270   */\n      dup5\n        /* \"#utility.yul\":12260:12271   */\n      sload\n        /* \"#utility.yul\":12232:12323   */\n      tag_110\n      jump\t// in\n    tag_259:\n        /* \"#utility.yul\":12226:12230   */\n      dup3\n        /* \"#utility.yul\":12219:12324   */\n      sstore\n        /* \"#utility.yul\":12137:12330   */\n      pop\n        /* \"#utility.yul\":12061:12330   */\n      pop\n      pop\n      pop\n      jump\t// out\n        /* \"#utility.yul\":12336:12409   */\n    tag_115:\n        /* \"#utility.yul\":12381:12384   */\n      0x00\n        /* \"#utility.yul\":12336:12409   */\n      swap1\n      jump\t// out\n        /* \"#utility.yul\":12415:12604   */\n    tag_116:\n        /* \"#utility.yul\":12492:12524   */\n      tag_263\n      tag_115\n      jump\t// in\n    tag_263:\n        /* \"#utility.yul\":12533:12598   */\n      tag_264\n        /* \"#utility.yul\":12591:12597   */\n      dup2\n        /* \"#utility.yul\":12583:12589   */\n      dup5\n        /* \"#utility.yul\":12577:12581   */\n      dup5\n        /* \"#utility.yul\":12533:12598   */\n      tag_114\n      jump\t// in\n    tag_264:\n        /* \"#utility.yul\":12468:12604   */\n      pop\n        /* \"#utility.yul\":12415:12604   */\n      pop\n      pop\n      jump\t// out\n        /* \"#utility.yul\":12610:12796   */\n    tag_117:\n        /* \"#utility.yul\":12670:12790   */\n    tag_266:\n        /* \"#utility.yul\":12687:12690   */\n      dup2\n        /* \"#utility.yul\":12680:12685   */\n      dup2\n        /* \"#utility.yul\":12677:12691   */\n      lt\n        /* \"#utility.yul\":12670:12790   */\n      iszero\n      tag_268\n      jumpi\n        /* \"#utility.yul\":12741:12780   */\n      tag_269\n        /* \"#utility.yul\":12778:12779   */\n      0x00\n        /* \"#utility.yul\":12771:12776   */\n      dup3\n        /* \"#utility.yul\":12741:12780   */\n      tag_116\n      jump\t// in\n    tag_269:\n        /* \"#utility.yul\":12714:12715   */\n      0x01\n        /* \"#utility.yul\":12707:12712   */\n      dup2\n        /* \"#utility.yul\":12703:12716   */\n      add\n        /* \"#utility.yul\":12694:12716   */\n      swap1\n      pop\n        /* \"#utility.yul\":12670:12790   */\n      jump(tag_266)\n    tag_268:\n        /* \"#utility.yul\":12610:12796   */\n      pop\n      pop\n      jump\t// out\n        /* \"#utility.yul\":12802:13345   */\n    tag_118:\n        /* \"#utility.yul\":12903:12905   */\n      0x1f\n        /* \"#utility.yul\":12898:12901   */\n      dup3\n        /* \"#utility.yul\":12895:12906   */\n      gt\n        /* \"#utility.yul\":12892:13338   */\n      iszero\n      tag_271\n      jumpi\n        /* \"#utility.yul\":12937:12975   */\n      tag_272\n        /* \"#utility.yul\":12969:12974   */\n      dup2\n        /* \"#utility.yul\":12937:12975   */\n      tag_107\n      jump\t// in\n    tag_272:\n        /* \"#utility.yul\":13021:13050   */\n      tag_273\n        /* \"#utility.yul\":13039:13049   */\n      dup5\n        /* \"#utility.yul\":13021:13050   */\n      tag_108\n      jump\t// in\n    tag_273:\n        /* \"#utility.yul\":13011:13019   */\n      dup2\n        /* \"#utility.yul\":13007:13051   */\n      add\n        /* \"#utility.yul\":13204:13206   */\n      0x20\n        /* \"#utility.yul\":13192:13202   */\n      dup6\n        /* \"#utility.yul\":13189:13207   */\n      lt\n        /* \"#utility.yul\":13186:13235   */\n      iszero\n      tag_274\n      jumpi\n        /* \"#utility.yul\":13225:13233   */\n      dup2\n        /* \"#utility.yul\":13210:13233   */\n      swap1\n      pop\n        /* \"#utility.yul\":13186:13235   */\n    tag_274:\n        /* \"#utility.yul\":13248:13328   */\n      tag_275\n        /* \"#utility.yul\":13304:13326   */\n      tag_276\n        /* \"#utility.yul\":13322:13325   */\n      dup6\n        /* \"#utility.yul\":13304:13326   */\n      tag_108\n      jump\t// in\n    tag_276:\n        /* \"#utility.yul\":13294:13302   */\n      dup4\n        /* \"#utility.yul\":13290:13327   */\n      add\n        /* \"#utility.yul\":13277:13288   */\n      dup3\n        /* \"#utility.yul\":13248:13328   */\n      tag_117\n      jump\t// in\n    tag_275:\n        /* \"#utility.yul\":12907:13338   */\n      pop\n      pop\n        /* \"#utility.yul\":12892:13338   */\n    tag_271:\n        /* \"#utility.yul\":12802:13345   */\n      pop\n      pop\n      pop\n      jump\t// out\n        /* \"#utility.yul\":13351:13468   */\n    tag_119:\n        /* \"#utility.yul\":13405:13413   */\n      0x00\n        /* \"#utility.yul\":13455:13460   */\n      dup3\n        /* \"#utility.yul\":13449:13453   */\n      dup3\n        /* \"#utility.yul\":13445:13461   */\n      shr\n        /* \"#utility.yul\":13424:13461   */\n      swap1\n      pop\n        /* \"#utility.yul\":13351:13468   */\n      swap3\n      swap2\n      pop\n      pop\n      jump\t// out\n        /* \"#utility.yul\":13474:13643   */\n    tag_120:\n        /* \"#utility.yul\":13518:13524   */\n      0x00\n        /* \"#utility.yul\":13551:13602   */\n      tag_279\n        /* \"#utility.yul\":13599:13600   */\n      0x00\n        /* \"#utility.yul\":13595:13601   */\n      not\n        /* \"#utility.yul\":13587:13592   */\n      dup5\n        /* \"#utility.yul\":13584:13585   */\n      0x08\n        /* \"#utility.yul\":13580:13593   */\n      mul\n        /* \"#utility.yul\":13551:13602   */\n      tag_119\n      jump\t// in\n    tag_279:\n        /* \"#utility.yul\":13547:13603   */\n      not\n        /* \"#utility.yul\":13632:13636   */\n      dup1\n        /* \"#utility.yul\":13626:13630   */\n      dup4\n        /* \"#utility.yul\":13622:13637   */\n      and\n        /* \"#utility.yul\":13612:13637   */\n      swap2\n      pop\n        /* \"#utility.yul\":13525:13643   */\n      pop\n        /* \"#utility.yul\":13474:13643   */\n      swap3\n      swap2\n      pop\n      pop\n      jump\t// out\n        /* \"#utility.yul\":13648:13943   */\n    tag_121:\n        /* \"#utility.yul\":13724:13728   */\n      0x00\n        /* \"#utility.yul\":13870:13899   */\n      tag_281\n        /* \"#utility.yul\":13895:13898   */\n      dup4\n        /* \"#utility.yul\":13889:13893   */\n      dup4\n        /* \"#utility.yul\":13870:13899   */\n      tag_120\n      jump\t// in\n    tag_281:\n        /* \"#utility.yul\":13862:13899   */\n      swap2\n      pop\n        /* \"#utility.yul\":13932:13935   */\n      dup3\n        /* \"#utility.yul\":13929:13930   */\n      0x02\n        /* \"#utility.yul\":13925:13936   */\n      mul\n        /* \"#utility.yul\":13919:13923   */\n      dup3\n        /* \"#utility.yul\":13916:13937   */\n      or\n        /* \"#utility.yul\":13908:13937   */\n      swap1\n      pop\n        /* \"#utility.yul\":13648:13943   */\n      swap3\n      swap2\n      pop\n      pop\n      jump\t// out\n        /* \"#utility.yul\":13948:15343   */\n    tag_43:\n        /* \"#utility.yul\":14065:14102   */\n      tag_283\n        /* \"#utility.yul\":14098:14101   */\n      dup3\n        /* \"#utility.yul\":14065:14102   */\n      tag_95\n      jump\t// in\n    tag_283:\n        /* \"#utility.yul\":14167:14185   */\n      0xffffffffffffffff\n        /* \"#utility.yul\":14159:14165   */\n      dup2\n        /* \"#utility.yul\":14156:14186   */\n      gt\n        /* \"#utility.yul\":14153:14209   */\n      iszero\n      tag_284\n      jumpi\n        /* \"#utility.yul\":14189:14207   */\n      tag_285\n      tag_82\n      jump\t// in\n    tag_285:\n        /* \"#utility.yul\":14153:14209   */\n    tag_284:\n        /* \"#utility.yul\":14233:14271   */\n      tag_286\n        /* \"#utility.yul\":14265:14269   */\n      dup3\n        /* \"#utility.yul\":14259:14270   */\n      sload\n        /* \"#utility.yul\":14233:14271   */\n      tag_47\n      jump\t// in\n    tag_286:\n        /* \"#utility.yul\":14318:14385   */\n      tag_287\n        /* \"#utility.yul\":14378:14384   */\n      dup3\n        /* \"#utility.yul\":14370:14376   */\n      dup3\n        /* \"#utility.yul\":14364:14368   */\n      dup6\n        /* \"#utility.yul\":14318:14385   */\n      tag_118\n      jump\t// in\n    tag_287:\n        /* \"#utility.yul\":14412:14413   */\n      0x00\n        /* \"#utility.yul\":14436:14440   */\n      0x20\n        /* \"#utility.yul\":14423:14440   */\n      swap1\n      pop\n        /* \"#utility.yul\":14468:14470   */\n      0x1f\n        /* \"#utility.yul\":14460:14466   */\n      dup4\n        /* \"#utility.yul\":14457:14471   */\n      gt\n        /* \"#utility.yul\":14485:14486   */\n      0x01\n        /* \"#utility.yul\":14480:15098   */\n      dup2\n      eq\n      tag_289\n      jumpi\n        /* \"#utility.yul\":15142:15143   */\n      0x00\n        /* \"#utility.yul\":15159:15165   */\n      dup5\n        /* \"#utility.yul\":15156:15233   */\n      iszero\n      tag_290\n      jumpi\n        /* \"#utility.yul\":15208:15217   */\n      dup3\n        /* \"#utility.yul\":15203:15206   */\n      dup8\n        /* \"#utility.yul\":15199:15218   */\n      add\n        /* \"#utility.yul\":15193:15219   */\n      mload\n        /* \"#utility.yul\":15184:15219   */\n      swap1\n      pop\n        /* \"#utility.yul\":15156:15233   */\n    tag_290:\n        /* \"#utility.yul\":15259:15326   */\n      tag_291\n        /* \"#utility.yul\":15319:15325   */\n      dup6\n        /* \"#utility.yul\":15312:15317   */\n      dup3\n        /* \"#utility.yul\":15259:15326   */\n      tag_121\n      jump\t// in\n    tag_291:\n        /* \"#utility.yul\":15253:15257   */\n      dup7\n        /* \"#utility.yul\":15246:15327   */\n      sstore\n        /* \"#utility.yul\":15115:15337   */\n      pop\n        /* \"#utility.yul\":14450:15337   */\n      jump(tag_288)\n        /* \"#utility.yul\":14480:15098   */\n    tag_289:\n        /* \"#utility.yul\":14532:14536   */\n      0x1f\n        /* \"#utility.yul\":14528:14537   */\n      not\n        /* \"#utility.yul\":14520:14526   */\n      dup5\n        /* \"#utility.yul\":14516:14538   */\n      and\n        /* \"#utility.yul\":14566:14603   */\n      tag_292\n        /* \"#utility.yul\":14598:14602   */\n      dup7\n        /* \"#utility.yul\":14566:14603   */\n      tag_107\n      jump\t// in\n    tag_292:\n        /* \"#utility.yul\":14625:14626   */\n      0x00\n        /* \"#utility.yul\":14639:14847   */\n    tag_293:\n        /* \"#utility.yul\":14653:14660   */\n      dup3\n        /* \"#utility.yul\":14650:14651   */\n      dup2\n        /* \"#utility.yul\":14647:14661   */\n      lt\n        /* \"#utility.yul\":14639:14847   */\n      iszero\n      tag_295\n      jumpi\n        /* \"#utility.yul\":14732:14741   */\n      dup5\n        /* \"#utility.yul\":14727:14730   */\n      dup10\n        /* \"#utility.yul\":14723:14742   */\n      add\n        /* \"#utility.yul\":14717:14743   */\n      mload\n        /* \"#utility.yul\":14709:14715   */\n      dup3\n        /* \"#utility.yul\":14702:14744   */\n      sstore\n        /* \"#utility.yul\":14783:14784   */\n      0x01\n        /* \"#utility.yul\":14775:14781   */\n      dup3\n        /* \"#utility.yul\":14771:14785   */\n      add\n        /* \"#utility.yul\":14761:14785   */\n      swap2\n      pop\n        /* \"#utility.yul\":14830:14832   */\n      0x20\n        /* \"#utility.yul\":14819:14828   */\n      dup6\n        /* \"#utility.yul\":14815:14833   */\n      add\n        /* \"#utility.yul\":14802:14833   */\n      swap5\n      pop\n        /* \"#utility.yul\":14676:14680   */\n      0x20\n        /* \"#utility.yul\":14673:14674   */\n      dup2\n        /* \"#utility.yul\":14669:14681   */\n      add\n        /* \"#utility.yul\":14664:14681   */\n      swap1\n      pop\n        /* \"#utility.yul\":14639:14847   */\n      jump(tag_293)\n    tag_295:\n        /* \"#utility.yul\":14875:14881   */\n      dup7\n        /* \"#utility.yul\":14866:14873   */\n      dup4\n        /* \"#utility.yul\":14863:14882   */\n      lt\n        /* \"#utility.yul\":14860:15039   */\n      iszero\n      tag_296\n      jumpi\n        /* \"#utility.yul\":14933:14942   */\n      dup5\n        /* \"#utility.yul\":14928:14931   */\n      dup10\n        /* \"#utility.yul\":14924:14943   */\n      add\n        /* \"#utility.yul\":14918:14944   */\n      mload\n        /* \"#utility.yul\":14976:15024   */\n      tag_297\n        /* \"#utility.yul\":15018:15022   */\n      0x1f\n        /* \"#utility.yul\":15010:15016   */\n      dup10\n        /* \"#utility.yul\":15006:15023   */\n      and\n        /* \"#utility.yul\":14995:15004   */\n      dup3\n        /* \"#utility.yul\":14976:15024   */\n      tag_120\n      jump\t// in\n    tag_297:\n        /* \"#utility.yul\":14968:14974   */\n      dup4\n        /* \"#utility.yul\":14961:15025   */\n      sstore\n        /* \"#utility.yul\":14883:15039   */\n      pop\n        /* \"#utility.yul\":14860:15039   */\n    tag_296:\n        /* \"#utility.yul\":15085:15086   */\n      0x01\n        /* \"#utility.yul\":15081:15082   */\n      0x02\n        /* \"#utility.yul\":15073:15079   */\n      dup9\n        /* \"#utility.yul\":15069:15083   */\n      mul\n        /* \"#utility.yul\":15065:15087   */\n      add\n        /* \"#utility.yul\":15059:15063   */\n      dup9\n        /* \"#utility.yul\":15052:15088   */\n      sstore\n        /* \"#utility.yul\":14487:15098   */\n      pop\n      pop\n      pop\n        /* \"#utility.yul\":14450:15337   */\n    tag_288:\n      pop\n        /* \"#utility.yul\":14040:15343   */\n      pop\n      pop\n      pop\n        /* \"#utility.yul\":13948:15343   */\n      pop\n      pop\n      jump\t// out\n        /* \"#utility.yul\":15349:15529   */\n    tag_122:\n        /* \"#utility.yul\":15397:15474   */\n      0x4e487b7100000000000000000000000000000000000000000000000000000000\n        /* \"#utility.yul\":15394:15395   */\n      0x00\n        /* \"#utility.yul\":15387:15475   */\n      mstore\n        /* \"#utility.yul\":15494:15498   */\n      0x11\n        /* \"#utility.yul\":15491:15492   */\n      0x04\n        /* \"#utility.yul\":15484:15499   */\n      mstore\n        /* \"#utility.yul\":15518:15522   */\n      0x24\n        /* \"#utility.yul\":15515:15516   */\n      0x00\n        /* \"#utility.yul\":15508:15523   */\n      revert\n        /* \"#utility.yul\":15535:15768   */\n    tag_45:\n        /* \"#utility.yul\":15574:15577   */\n      0x00\n        /* \"#utility.yul\":15597:15621   */\n      tag_300\n        /* \"#utility.yul\":15615:15620   */\n      dup3\n        /* \"#utility.yul\":15597:15621   */\n      tag_89\n      jump\t// in\n    tag_300:\n        /* \"#utility.yul\":15588:15621   */\n      swap2\n      pop\n        /* \"#utility.yul\":15643:15709   */\n      0xffffffffffffffffffffffffffffffffffffffffffffffffffffffffffffffff\n        /* \"#utility.yul\":15636:15641   */\n      dup3\n        /* \"#utility.yul\":15633:15710   */\n      sub\n        /* \"#utility.yul\":15630:15733   */\n      tag_301\n      jumpi\n        /* \"#utility.yul\":15713:15731   */\n      tag_302\n      tag_122\n      jump\t// in\n    tag_302:\n        /* \"#utility.yul\":15630:15733   */\n    tag_301:\n        /* \"#utility.yul\":15760:15761   */\n      0x01\n        /* \"#utility.yul\":15753:15758   */\n      dup3\n        /* \"#utility.yul\":15749:15762   */\n      add\n        /* \"#utility.yul\":15742:15762   */\n      swap1\n      pop\n        /* \"#utility.yul\":15535:15768   */\n      swap2\n      swap1\n      pop\n      jump\t// out\n        /* \"#utility.yul\":15774:15941   */\n    tag_123:\n        /* \"#utility.yul\":15914:15933   */\n      0x5468652074696d6520686173206c6f7373000000000000000000000000000000\n        /* \"#utility.yul\":15910:15911   */\n      0x00\n        /* \"#utility.yul\":15902:15908   */\n      dup3\n        /* \"#utility.yul\":15898:15912   */\n      add\n        /* \"#utility.yul\":15891:15934   */\n      mstore\n        /* \"#utility.yul\":15774:15941   */\n      pop\n      jump\t// out\n        /* \"#utility.yul\":15947:16313   */\n    tag_124:\n        /* \"#utility.yul\":16089:16092   */\n      0x00\n        /* \"#utility.yul\":16110:16177   */\n      tag_305\n        /* \"#utility.yul\":16174:16176   */\n      0x11\n        /* \"#utility.yul\":16169:16172   */\n      dup4\n        /* \"#utility.yul\":16110:16177   */\n      tag_96\n      jump\t// in\n    tag_305:\n        /* \"#utility.yul\":16103:16177   */\n      swap2\n      pop\n        /* \"#utility.yul\":16186:16279   */\n      tag_306\n        /* \"#utility.yul\":16275:16278   */\n      dup3\n        /* \"#utility.yul\":16186:16279   */\n      tag_123\n      jump\t// in\n    tag_306:\n        /* \"#utility.yul\":16304:16306   */\n      0x20\n        /* \"#utility.yul\":16299:16302   */\n      dup3\n        /* \"#utility.yul\":16295:16307   */\n      add\n        /* \"#utility.yul\":16288:16307   */\n      swap1\n      pop\n        /* \"#utility.yul\":15947:16313   */\n      swap2\n      swap1\n      pop\n      jump\t// out\n        /* \"#utility.yul\":16319:16738   */\n    tag_55:\n        /* \"#utility.yul\":16485:16489   */\n      0x00\n        /* \"#utility.yul\":16523:16525   */\n      0x20\n        /* \"#utility.yul\":16512:16521   */\n      dup3\n        /* \"#utility.yul\":16508:16526   */\n      add\n        /* \"#utility.yul\":16500:16526   */\n      swap1\n      pop\n        /* \"#utility.yul\":16572:16581   */\n      dup2\n        /* \"#utility.yul\":16566:16570   */\n      dup2\n        /* \"#utility.yul\":16562:16582   */\n      sub\n        /* \"#utility.yul\":16558:16559   */\n      0x00\n        /* \"#utility.yul\":16547:16556   */\n      dup4\n        /* \"#utility.yul\":16543:16560   */\n      add\n        /* \"#utility.yul\":16536:16583   */\n      mstore\n        /* \"#utility.yul\":16600:16731   */\n      tag_308\n        /* \"#utility.yul\":16726:16730   */\n      dup2\n        /* \"#utility.yul\":16600:16731   */\n      tag_124\n      jump\t// in\n    tag_308:\n        /* \"#utility.yul\":16592:16731   */\n      swap1\n      pop\n        /* \"#utility.yul\":16319:16738   */\n      swap2\n      swap1\n      pop\n      jump\t// out\n        /* \"#utility.yul\":16744:16913   */\n    tag_125:\n        /* \"#utility.yul\":16884:16905   */\n      0x746865207469636b657420686173206c6f737300000000000000000000000000\n        /* \"#utility.yul\":16880:16881   */\n      0x00\n        /* \"#utility.yul\":16872:16878   */\n      dup3\n        /* \"#utility.yul\":16868:16882   */\n      add\n        /* \"#utility.yul\":16861:16906   */\n      mstore\n        /* \"#utility.yul\":16744:16913   */\n      pop\n      jump\t// out\n        /* \"#utility.yul\":16919:17285   */\n    tag_126:\n        /* \"#utility.yul\":17061:17064   */\n      0x00\n        /* \"#utility.yul\":17082:17149   */\n      tag_311\n        /* \"#utility.yul\":17146:17148   */\n      0x13\n        /* \"#utility.yul\":17141:17144   */\n      dup4\n        /* \"#utility.yul\":17082:17149   */\n      tag_96\n      jump\t// in\n    tag_311:\n        /* \"#utility.yul\":17075:17149   */\n      swap2\n      pop\n        /* \"#utility.yul\":17158:17251   */\n      tag_312\n        /* \"#utility.yul\":17247:17250   */\n      dup3\n        /* \"#utility.yul\":17158:17251   */\n      tag_125\n      jump\t// in\n    tag_312:\n        /* \"#utility.yul\":17276:17278   */\n      0x20\n        /* \"#utility.yul\":17271:17274   */\n      dup3\n        /* \"#utility.yul\":17267:17279   */\n      add\n        /* \"#utility.yul\":17260:17279   */\n      swap1\n      pop\n        /* \"#utility.yul\":16919:17285   */\n      swap2\n      swap1\n      pop\n      jump\t// out\n        /* \"#utility.yul\":17291:17710   */\n    tag_58:\n        /* \"#utility.yul\":17457:17461   */\n      0x00\n        /* \"#utility.yul\":17495:17497   */\n      0x20\n        /* \"#utility.yul\":17484:17493   */\n      dup3\n        /* \"#utility.yul\":17480:17498   */\n      add\n        /* \"#utility.yul\":17472:17498   */\n      swap1\n      pop\n        /* \"#utility.yul\":17544:17553   */\n      dup2\n        /* \"#utility.yul\":17538:17542   */\n      dup2\n        /* \"#utility.yul\":17534:17554   */\n      sub\n        /* \"#utility.yul\":17530:17531   */\n      0x00\n        /* \"#utility.yul\":17519:17528   */\n      dup4\n        /* \"#utility.yul\":17515:17532   */\n      add\n        /* \"#utility.yul\":17508:17555   */\n      mstore\n        /* \"#utility.yul\":17572:17703   */\n      tag_314\n        /* \"#utility.yul\":17698:17702   */\n      dup2\n        /* \"#utility.yul\":17572:17703   */\n      tag_126\n      jump\t// in\n    tag_314:\n        /* \"#utility.yul\":17564:17703   */\n      swap1\n      pop\n        /* \"#utility.yul\":17291:17710   */\n      swap2\n      swap1\n      pop\n      jump\t// out\n        /* \"#utility.yul\":17716:18126   */\n    tag_60:\n        /* \"#utility.yul\":17756:17763   */\n      0x00\n        /* \"#utility.yul\":17779:17799   */\n      tag_316\n        /* \"#utility.yul\":17797:17798   */\n      dup3\n        /* \"#utility.yul\":17779:17799   */\n      tag_89\n      jump\t// in\n    tag_316:\n        /* \"#utility.yul\":17774:17799   */\n      swap2\n      pop\n        /* \"#utility.yul\":17813:17833   */\n      tag_317\n        /* \"#utility.yul\":17831:17832   */\n      dup4\n        /* \"#utility.yul\":17813:17833   */\n      tag_89\n      jump\t// in\n    tag_317:\n        /* \"#utility.yul\":17808:17833   */\n      swap3\n      pop\n        /* \"#utility.yul\":17868:17869   */\n      dup3\n        /* \"#utility.yul\":17865:17866   */\n      dup3\n        /* \"#utility.yul\":17861:17870   */\n      mul\n        /* \"#utility.yul\":17890:17920   */\n      tag_318\n        /* \"#utility.yul\":17908:17919   */\n      dup2\n        /* \"#utility.yul\":17890:17920   */\n      tag_89\n      jump\t// in\n    tag_318:\n        /* \"#utility.yul\":17879:17920   */\n      swap2\n      pop\n        /* \"#utility.yul\":18069:18070   */\n      dup3\n        /* \"#utility.yul\":18060:18067   */\n      dup3\n        /* \"#utility.yul\":18056:18071   */\n      div\n        /* \"#utility.yul\":18053:18054   */\n      dup5\n        /* \"#utility.yul\":18050:18072   */\n      eq\n        /* \"#utility.yul\":18030:18031   */\n      dup4\n        /* \"#utility.yul\":18023:18032   */\n      iszero\n        /* \"#utility.yul\":18003:18086   */\n      or\n        /* \"#utility.yul\":17980:18119   */\n      tag_319\n      jumpi\n        /* \"#utility.yul\":18099:18117   */\n      tag_320\n      tag_122\n      jump\t// in\n    tag_320:\n        /* \"#utility.yul\":17980:18119   */\n    tag_319:\n        /* \"#utility.yul\":17764:18126   */\n      pop\n        /* \"#utility.yul\":17716:18126   */\n      swap3\n      swap2\n      pop\n      pop\n      jump\t// out\n        /* \"#utility.yul\":18132:18306   */\n    tag_127:\n        /* \"#utility.yul\":18272:18298   */\n      0x596f7572206e6f74206162626c6520746f206163636573730000000000000000\n        /* \"#utility.yul\":18268:18269   */\n      0x00\n        /* \"#utility.yul\":18260:18266   */\n      dup3\n        /* \"#utility.yul\":18256:18270   */\n      add\n        /* \"#utility.yul\":18249:18299   */\n      mstore\n        /* \"#utility.yul\":18132:18306   */\n      pop\n      jump\t// out\n        /* \"#utility.yul\":18312:18678   */\n    tag_128:\n        /* \"#utility.yul\":18454:18457   */\n      0x00\n        /* \"#utility.yul\":18475:18542   */\n      tag_323\n        /* \"#utility.yul\":18539:18541   */\n      0x18\n        /* \"#utility.yul\":18534:18537   */\n      dup4\n        /* \"#utility.yul\":18475:18542   */\n      tag_96\n      jump\t// in\n    tag_323:\n        /* \"#utility.yul\":18468:18542   */\n      swap2\n      pop\n        /* \"#utility.yul\":18551:18644   */\n      tag_324\n        /* \"#utility.yul\":18640:18643   */\n      dup3\n        /* \"#utility.yul\":18551:18644   */\n      tag_127\n      jump\t// in\n    tag_324:\n        /* \"#utility.yul\":18669:18671   */\n      0x20\n        /* \"#utility.yul\":18664:18667   */\n      dup3\n        /* \"#utility.yul\":18660:18672   */\n      add\n        /* \"#utility.yul\":18653:18672   */\n      swap1\n      pop\n        /* \"#utility.yul\":18312:18678   */\n      swap2\n      swap1\n      pop\n      jump\t// out\n        /* \"#utility.yul\":18684:19103   */\n    tag_63:\n        /* \"#utility.yul\":18850:18854   */\n      0x00\n        /* \"#utility.yul\":18888:18890   */\n      0x20\n        /* \"#utility.yul\":18877:18886   */\n      dup3\n        /* \"#utility.yul\":18873:18891   */\n      add\n        /* \"#utility.yul\":18865:18891   */\n      swap1\n      pop\n        /* \"#utility.yul\":18937:18946   */\n      dup2\n        /* \"#utility.yul\":18931:18935   */\n      dup2\n        /* \"#utility.yul\":18927:18947   */\n      sub\n        /* \"#utility.yul\":18923:18924   */\n      0x00\n        /* \"#utility.yul\":18912:18921   */\n      dup4\n        /* \"#utility.yul\":18908:18925   */\n      add\n        /* \"#utility.yul\":18901:18948   */\n      mstore\n        /* \"#utility.yul\":18965:19096   */\n      tag_326\n        /* \"#utility.yul\":19091:19095   */\n      dup2\n        /* \"#utility.yul\":18965:19096   */\n      tag_128\n      jump\t// in\n    tag_326:\n        /* \"#utility.yul\":18957:19096   */\n      swap1\n      pop\n        /* \"#utility.yul\":18684:19103   */\n      swap2\n      swap1\n      pop\n      jump\t// out\n        /* \"#utility.yul\":19109:19266   */\n    tag_129:\n        /* \"#utility.yul\":19249:19258   */\n      0x4e6f7468696e6700000000000000000000000000000000000000000000000000\n        /* \"#utility.yul\":19245:19246   */\n      0x00\n        /* \"#utility.yul\":19237:19243   */\n      dup3\n        /* \"#utility.yul\":19233:19247   */\n      add\n        /* \"#utility.yul\":19226:19259   */\n      mstore\n        /* \"#utility.yul\":19109:19266   */\n      pop\n      jump\t// out\n        /* \"#utility.yul\":19272:19637   */\n    tag_130:\n        /* \"#utility.yul\":19414:19417   */\n      0x00\n        /* \"#utility.yul\":19435:19501   */\n      tag_329\n        /* \"#utility.yul\":19499:19500   */\n      0x07\n        /* \"#utility.yul\":19494:19497   */\n      dup4\n        /* \"#utility.yul\":19435:19501   */\n      tag_96\n      jump\t// in\n    tag_329:\n        /* \"#utility.yul\":19428:19501   */\n      swap2\n      pop\n        /* \"#utility.yul\":19510:19603   */\n      tag_330\n        /* \"#utility.yul\":19599:19602   */\n      dup3\n        /* \"#utility.yul\":19510:19603   */\n      tag_129\n      jump\t// in\n    tag_330:\n        /* \"#utility.yul\":19628:19630   */\n      0x20\n        /* \"#utility.yul\":19623:19626   */\n      dup3\n        /* \"#utility.yul\":19619:19631   */\n      add\n        /* \"#utility.yul\":19612:19631   */\n      swap1\n      pop\n        /* \"#utility.yul\":19272:19637   */\n      swap2\n      swap1\n      pop\n      jump\t// out\n        /* \"#utility.yul\":19643:20062   */\n    tag_66:\n        /* \"#utility.yul\":19809:19813   */\n      0x00\n        /* \"#utility.yul\":19847:19849   */\n      0x20\n        /* \"#utility.yul\":19836:19845   */\n      dup3\n        /* \"#utility.yul\":19832:19850   */\n      add\n        /* \"#utility.yul\":19824:19850   */\n      swap1\n      pop\n        /* \"#utility.yul\":19896:19905   */\n      dup2\n        /* \"#utility.yul\":19890:19894   */\n      dup2\n        /* \"#utility.yul\":19886:19906   */\n      sub\n        /* \"#utility.yul\":19882:19883   */\n      0x00\n        /* \"#utility.yul\":19871:19880   */\n      dup4\n        /* \"#utility.yul\":19867:19884   */\n      add\n        /* \"#utility.yul\":19860:19907   */\n      mstore\n        /* \"#utility.yul\":19924:20055   */\n      tag_332\n        /* \"#utility.yul\":20050:20054   */\n      dup2\n        /* \"#utility.yul\":19924:20055   */\n      tag_130\n      jump\t// in\n    tag_332:\n        /* \"#utility.yul\":19916:20055   */\n      swap1\n      pop\n        /* \"#utility.yul\":19643:20062   */\n      swap2\n      swap1\n      pop\n      jump\t// out\n        /* \"#utility.yul\":20068:20262   */\n    tag_68:\n        /* \"#utility.yul\":20108:20112   */\n      0x00\n        /* \"#utility.yul\":20128:20148   */\n      tag_334\n        /* \"#utility.yul\":20146:20147   */\n      dup3\n        /* \"#utility.yul\":20128:20148   */\n      tag_89\n      jump\t// in\n    tag_334:\n        /* \"#utility.yul\":20123:20148   */\n      swap2\n      pop\n        /* \"#utility.yul\":20162:20182   */\n      tag_335\n        /* \"#utility.yul\":20180:20181   */\n      dup4\n        /* \"#utility.yul\":20162:20182   */\n      tag_89\n      jump\t// in\n    tag_335:\n        /* \"#utility.yul\":20157:20182   */\n      swap3\n      pop\n        /* \"#utility.yul\":20206:20207   */\n      dup3\n        /* \"#utility.yul\":20203:20204   */\n      dup3\n        /* \"#utility.yul\":20199:20208   */\n      sub\n        /* \"#utility.yul\":20191:20208   */\n      swap1\n      pop\n        /* \"#utility.yul\":20230:20231   */\n      dup2\n        /* \"#utility.yul\":20224:20228   */\n      dup2\n        /* \"#utility.yul\":20221:20232   */\n      gt\n        /* \"#utility.yul\":20218:20255   */\n      iszero\n      tag_336\n      jumpi\n        /* \"#utility.yul\":20235:20253   */\n      tag_337\n      tag_122\n      jump\t// in\n    tag_337:\n        /* \"#utility.yul\":20218:20255   */\n    tag_336:\n        /* \"#utility.yul\":20068:20262   */\n      swap3\n      swap2\n      pop\n      pop\n      jump\t// out\n        /* \"#utility.yul\":20268:20459   */\n    tag_70:\n        /* \"#utility.yul\":20308:20311   */\n      0x00\n        /* \"#utility.yul\":20327:20347   */\n      tag_339\n        /* \"#utility.yul\":20345:20346   */\n      dup3\n        /* \"#utility.yul\":20327:20347   */\n      tag_89\n      jump\t// in\n    tag_339:\n        /* \"#utility.yul\":20322:20347   */\n      swap2\n      pop\n        /* \"#utility.yul\":20361:20381   */\n      tag_340\n        /* \"#utility.yul\":20379:20380   */\n      dup4\n        /* \"#utility.yul\":20361:20381   */\n      tag_89\n      jump\t// in\n    tag_340:\n        /* \"#utility.yul\":20356:20381   */\n      swap3\n      pop\n        /* \"#utility.yul\":20404:20405   */\n      dup3\n        /* \"#utility.yul\":20401:20402   */\n      dup3\n        /* \"#utility.yul\":20397:20406   */\n      add\n        /* \"#utility.yul\":20390:20406   */\n      swap1\n      pop\n        /* \"#utility.yul\":20425:20428   */\n      dup1\n        /* \"#utility.yul\":20422:20423   */\n      dup3\n        /* \"#utility.yul\":20419:20429   */\n      gt\n        /* \"#utility.yul\":20416:20452   */\n      iszero\n      tag_341\n      jumpi\n        /* \"#utility.yul\":20432:20450   */\n      tag_342\n      tag_122\n      jump\t// in\n    tag_342:\n        /* \"#utility.yul\":20416:20452   */\n    tag_341:\n        /* \"#utility.yul\":20268:20459   */\n      swap3\n      swap2\n      pop\n      pop\n      jump\t// out\n\n    auxdata: 0xa2646970667358221220c0cf8ad2fa259c5af0cccd70afd4bcb29bdf725c01e864e4cb72e29c50f7ac1d64736f6c63430008110033\n}\n",
				"bytecode": {
					"linkReferences": {},
					"object": "608060405234801561001057600080fd5b506111be806100206000396000f3fe60806040526004361061004a5760003560e01c80630374ab0b1461004f5780630b79143014610078578063298ec208146100ba578063e11bb64d146100d6578063f086a09b14610113575b600080fd5b34801561005b57600080fd5b5061007660048036038101906100719190610800565b61013c565b005b34801561008457600080fd5b5061009f600480360381019061009a9190610883565b6102be565b6040516100b19695949392919061097f565b60405180910390f35b6100d460048036038101906100cf91906109e7565b6103a2565b005b3480156100e257600080fd5b506100fd60048036038101906100f89190610a53565b610597565b60405161010a9190610a93565b60405180910390f35b34801561011f57600080fd5b5061013a60048036038101906101359190610aae565b6105bc565b005b42831161017e576040517f08c379a000000000000000000000000000000000000000000000000000000000815260040161017590610b4d565b60405180910390fd5b600081116101c1576040517f08c379a00000000000000000000000000000000000000000000000000000000081526004016101b890610bb9565b60405180910390fd5b6040518060c001604052803373ffffffffffffffffffffffffffffffffffffffff16815260200185815260200184815260200183815260200182815260200182815250600080600254815260200190815260200160002060008201518160000160006101000a81548173ffffffffffffffffffffffffffffffffffffffff021916908373ffffffffffffffffffffffffffffffffffffffff16021790555060208201518160010190816102749190610de5565b5060408201518160020155606082015181600301556080820151816004015560a08201518160050155905050600260008154809291906102b390610ee6565b919050555050505050565b60006020528060005260406000206000915090508060000160009054906101000a900473ffffffffffffffffffffffffffffffffffffffff169080600101805461030790610c08565b80601f016020809104026020016040519081016040528092919081815260200182805461033390610c08565b80156103805780601f1061035557610100808354040283529160200191610380565b820191906000526020600020905b81548152906001019060200180831161036357829003601f168201915b5050505050908060020154908060030154908060040154908060050154905086565b4260008084815260200190815260200160002060020154116103f9576040517f08c379a00000000000000000000000000000000000000000000000000000000081526004016103f090610f7a565b60405180910390fd5b60008060008481526020019081526020016000206002015403610451576040517f08c379a000000000000000000000000000000000000000000000000000000000815260040161044890610fe6565b60405180910390fd5b600080600084815260200190815260200160002090508181600301546104779190611006565b34146104b8576040517f08c379a00000000000000000000000000000000000000000000000000000000081526004016104af90611094565b60405180910390fd5b81600080858152602001908152602001600020600501541015610510576040517f08c379a000000000000000000000000000000000000000000000000000000000815260040161050790611100565b60405180910390fd5b818160050160008282546105249190611120565b9250508190555081600160003373ffffffffffffffffffffffffffffffffffffffff1673ffffffffffffffffffffffffffffffffffffffff1681526020019081526020016000206000858152602001908152602001600020600082825461058b9190611154565b92505081905550505050565b6001602052816000526040600020602052806000526040600020600091509150505481565b426000808581526020019081526020016000206002015411610613576040517f08c379a000000000000000000000000000000000000000000000000000000000815260040161060a90610f7a565b60405180910390fd5b6000806000858152602001908152602001600020600201540361066b576040517f08c379a000000000000000000000000000000000000000000000000000000000815260040161066290610fe6565b60405180910390fd5b505050565b6000604051905090565b600080fd5b600080fd5b600080fd5b600080fd5b6000601f19601f8301169050919050565b7f4e487b7100000000000000000000000000000000000000000000000000000000600052604160045260246000fd5b6106d78261068e565b810181811067ffffffffffffffff821117156106f6576106f561069f565b5b80604052505050565b6000610709610670565b905061071582826106ce565b919050565b600067ffffffffffffffff8211156107355761073461069f565b5b61073e8261068e565b9050602081019050919050565b82818337600083830152505050565b600061076d6107688461071a565b6106ff565b90508281526020810184848401111561078957610788610689565b5b61079484828561074b565b509392505050565b600082601f8301126107b1576107b0610684565b5b81356107c184826020860161075a565b91505092915050565b6000819050919050565b6107dd816107ca565b81146107e857600080fd5b50565b6000813590506107fa816107d4565b92915050565b6000806000806080858703121561081a5761081961067a565b5b600085013567ffffffffffffffff8111156108385761083761067f565b5b6108448782880161079c565b9450506020610855878288016107eb565b9350506040610866878288016107eb565b9250506060610877878288016107eb565b91505092959194509250565b6000602082840312156108995761089861067a565b5b60006108a7848285016107eb565b91505092915050565b600073ffffffffffffffffffffffffffffffffffffffff82169050919050565b60006108db826108b0565b9050919050565b6108eb816108d0565b82525050565b600081519050919050565b600082825260208201905092915050565b60005b8381101561092b578082015181840152602081019050610910565b60008484015250505050565b6000610942826108f1565b61094c81856108fc565b935061095c81856020860161090d565b6109658161068e565b840191505092915050565b610979816107ca565b82525050565b600060c08201905061099460008301896108e2565b81810360208301526109a68188610937565b90506109b56040830187610970565b6109c26060830186610970565b6109cf6080830185610970565b6109dc60a0830184610970565b979650505050505050565b600080604083850312156109fe576109fd61067a565b5b6000610a0c858286016107eb565b9250506020610a1d858286016107eb565b9150509250929050565b610a30816108d0565b8114610a3b57600080fd5b50565b600081359050610a4d81610a27565b92915050565b60008060408385031215610a6a57610a6961067a565b5b6000610a7885828601610a3e565b9250506020610a89858286016107eb565b9150509250929050565b6000602082019050610aa86000830184610970565b92915050565b600080600060608486031215610ac757610ac661067a565b5b6000610ad5868287016107eb565b9350506020610ae6868287016107eb565b9250506040610af786828701610a3e565b9150509250925092565b7f546865204576656e7420686173206f7665720000000000000000000000000000600082015250565b6000610b376012836108fc565b9150610b4282610b01565b602082019050919050565b60006020820190508181036000830152610b6681610b2a565b9050919050565b7f796f752063616e2052756e20746865204576656e747300000000000000000000600082015250565b6000610ba36016836108fc565b9150610bae82610b6d565b602082019050919050565b60006020820190508181036000830152610bd281610b96565b9050919050565b7f4e487b7100000000000000000000000000000000000000000000000000000000600052602260045260246000fd5b60006002820490506001821680610c2057607f821691505b602082108103610c3357610c32610bd9565b5b50919050565b60008190508160005260206000209050919050565b60006020601f8301049050919050565b600082821b905092915050565b600060088302610c9b7fffffffffffffffffffffffffffffffffffffffffffffffffffffffffffffffff82610c5e565b610ca58683610c5e565b95508019841693508086168417925050509392505050565b6000819050919050565b6000610ce2610cdd610cd8846107ca565b610cbd565b6107ca565b9050919050565b6000819050919050565b610cfc83610cc7565b610d10610d0882610ce9565b848454610c6b565b825550505050565b600090565b610d25610d18565b610d30818484610cf3565b505050565b5b81811015610d5457610d49600082610d1d565b600181019050610d36565b5050565b601f821115610d9957610d6a81610c39565b610d7384610c4e565b81016020851015610d82578190505b610d96610d8e85610c4e565b830182610d35565b50505b505050565b600082821c905092915050565b6000610dbc60001984600802610d9e565b1980831691505092915050565b6000610dd58383610dab565b9150826002028217905092915050565b610dee826108f1565b67ffffffffffffffff811115610e0757610e0661069f565b5b610e118254610c08565b610e1c828285610d58565b600060209050601f831160018114610e4f5760008415610e3d578287015190505b610e478582610dc9565b865550610eaf565b601f198416610e5d86610c39565b60005b82811015610e8557848901518255600182019150602085019450602081019050610e60565b86831015610ea25784890151610e9e601f891682610dab565b8355505b6001600288020188555050505b505050505050565b7f4e487b7100000000000000000000000000000000000000000000000000000000600052601160045260246000fd5b6000610ef1826107ca565b91507fffffffffffffffffffffffffffffffffffffffffffffffffffffffffffffffff8203610f2357610f22610eb7565b5b600182019050919050565b7f5468652074696d6520686173206c6f7373000000000000000000000000000000600082015250565b6000610f646011836108fc565b9150610f6f82610f2e565b602082019050919050565b60006020820190508181036000830152610f9381610f57565b9050919050565b7f746865207469636b657420686173206c6f737300000000000000000000000000600082015250565b6000610fd06013836108fc565b9150610fdb82610f9a565b602082019050919050565b60006020820190508181036000830152610fff81610fc3565b9050919050565b6000611011826107ca565b915061101c836107ca565b925082820261102a816107ca565b9150828204841483151761104157611040610eb7565b5b5092915050565b7f596f7572206e6f74206162626c6520746f206163636573730000000000000000600082015250565b600061107e6018836108fc565b915061108982611048565b602082019050919050565b600060208201905081810360008301526110ad81611071565b9050919050565b7f4e6f7468696e6700000000000000000000000000000000000000000000000000600082015250565b60006110ea6007836108fc565b91506110f5826110b4565b602082019050919050565b60006020820190508181036000830152611119816110dd565b9050919050565b600061112b826107ca565b9150611136836107ca565b925082820390508181111561114e5761114d610eb7565b5b92915050565b600061115f826107ca565b915061116a836107ca565b925082820190508082111561118257611181610eb7565b5b9291505056fea2646970667358221220c0cf8ad2fa259c5af0cccd70afd4bcb29bdf725c01e864e4cb72e29c50f7ac1d64736f6c63430008110033",
					"opcodes": "PUSH1 0x80 PUSH1 0x40 MSTORE CALLVALUE DUP1 ISZERO PUSH2 0x10 JUMPI PUSH1 0x0 DUP1 REVERT JUMPDEST POP PUSH2 0x11BE DUP1 PUSH2 0x20 PUSH1 0x0 CODECOPY PUSH1 0x0 RETURN INVALID PUSH1 0x80 PUSH1 0x40 MSTORE PUSH1 0x4 CALLDATASIZE LT PUSH2 0x4A JUMPI PUSH1 0x0 CALLDATALOAD PUSH1 0xE0 SHR DUP1 PUSH4 0x374AB0B EQ PUSH2 0x4F JUMPI DUP1 PUSH4 0xB791430 EQ PUSH2 0x78 JUMPI DUP1 PUSH4 0x298EC208 EQ PUSH2 0xBA JUMPI DUP1 PUSH4 0xE11BB64D EQ PUSH2 0xD6 JUMPI DUP1 PUSH4 0xF086A09B EQ PUSH2 0x113 JUMPI JUMPDEST PUSH1 0x0 DUP1 REVERT JUMPDEST CALLVALUE DUP1 ISZERO PUSH2 0x5B JUMPI PUSH1 0x0 DUP1 REVERT JUMPDEST POP PUSH2 0x76 PUSH1 0x4 DUP1 CALLDATASIZE SUB DUP2 ADD SWAP1 PUSH2 0x71 SWAP2 SWAP1 PUSH2 0x800 JUMP JUMPDEST PUSH2 0x13C JUMP JUMPDEST STOP JUMPDEST CALLVALUE DUP1 ISZERO PUSH2 0x84 JUMPI PUSH1 0x0 DUP1 REVERT JUMPDEST POP PUSH2 0x9F PUSH1 0x4 DUP1 CALLDATASIZE SUB DUP2 ADD SWAP1 PUSH2 0x9A SWAP2 SWAP1 PUSH2 0x883 JUMP JUMPDEST PUSH2 0x2BE JUMP JUMPDEST PUSH1 0x40 MLOAD PUSH2 0xB1 SWAP7 SWAP6 SWAP5 SWAP4 SWAP3 SWAP2 SWAP1 PUSH2 0x97F JUMP JUMPDEST PUSH1 0x40 MLOAD DUP1 SWAP2 SUB SWAP1 RETURN JUMPDEST PUSH2 0xD4 PUSH1 0x4 DUP1 CALLDATASIZE SUB DUP2 ADD SWAP1 PUSH2 0xCF SWAP2 SWAP1 PUSH2 0x9E7 JUMP JUMPDEST PUSH2 0x3A2 JUMP JUMPDEST STOP JUMPDEST CALLVALUE DUP1 ISZERO PUSH2 0xE2 JUMPI PUSH1 0x0 DUP1 REVERT JUMPDEST POP PUSH2 0xFD PUSH1 0x4 DUP1 CALLDATASIZE SUB DUP2 ADD SWAP1 PUSH2 0xF8 SWAP2 SWAP1 PUSH2 0xA53 JUMP JUMPDEST PUSH2 0x597 JUMP JUMPDEST PUSH1 0x40 MLOAD PUSH2 0x10A SWAP2 SWAP1 PUSH2 0xA93 JUMP JUMPDEST PUSH1 0x40 MLOAD DUP1 SWAP2 SUB SWAP1 RETURN JUMPDEST CALLVALUE DUP1 ISZERO PUSH2 0x11F JUMPI PUSH1 0x0 DUP1 REVERT JUMPDEST POP PUSH2 0x13A PUSH1 0x4 DUP1 CALLDATASIZE SUB DUP2 ADD SWAP1 PUSH2 0x135 SWAP2 SWAP1 PUSH2 0xAAE JUMP JUMPDEST PUSH2 0x5BC JUMP JUMPDEST STOP JUMPDEST TIMESTAMP DUP4 GT PUSH2 0x17E JUMPI PUSH1 0x40 MLOAD PUSH32 0x8C379A000000000000000000000000000000000000000000000000000000000 DUP2 MSTORE PUSH1 0x4 ADD PUSH2 0x175 SWAP1 PUSH2 0xB4D JUMP JUMPDEST PUSH1 0x40 MLOAD DUP1 SWAP2 SUB SWAP1 REVERT JUMPDEST PUSH1 0x0 DUP2 GT PUSH2 0x1C1 JUMPI PUSH1 0x40 MLOAD PUSH32 0x8C379A000000000000000000000000000000000000000000000000000000000 DUP2 MSTORE PUSH1 0x4 ADD PUSH2 0x1B8 SWAP1 PUSH2 0xBB9 JUMP JUMPDEST PUSH1 0x40 MLOAD DUP1 SWAP2 SUB SWAP1 REVERT JUMPDEST PUSH1 0x40 MLOAD DUP1 PUSH1 0xC0 ADD PUSH1 0x40 MSTORE DUP1 CALLER PUSH20 0xFFFFFFFFFFFFFFFFFFFFFFFFFFFFFFFFFFFFFFFF AND DUP2 MSTORE PUSH1 0x20 ADD DUP6 DUP2 MSTORE PUSH1 0x20 ADD DUP5 DUP2 MSTORE PUSH1 0x20 ADD DUP4 DUP2 MSTORE PUSH1 0x20 ADD DUP3 DUP2 MSTORE PUSH1 0x20 ADD DUP3 DUP2 MSTORE POP PUSH1 0x0 DUP1 PUSH1 0x2 SLOAD DUP2 MSTORE PUSH1 0x20 ADD SWAP1 DUP2 MSTORE PUSH1 0x20 ADD PUSH1 0x0 KECCAK256 PUSH1 0x0 DUP3 ADD MLOAD DUP2 PUSH1 0x0 ADD PUSH1 0x0 PUSH2 0x100 EXP DUP2 SLOAD DUP2 PUSH20 0xFFFFFFFFFFFFFFFFFFFFFFFFFFFFFFFFFFFFFFFF MUL NOT AND SWAP1 DUP4 PUSH20 0xFFFFFFFFFFFFFFFFFFFFFFFFFFFFFFFFFFFFFFFF AND MUL OR SWAP1 SSTORE POP PUSH1 0x20 DUP3 ADD MLOAD DUP2 PUSH1 0x1 ADD SWAP1 DUP2 PUSH2 0x274 SWAP2 SWAP1 PUSH2 0xDE5 JUMP JUMPDEST POP PUSH1 0x40 DUP3 ADD MLOAD DUP2 PUSH1 0x2 ADD SSTORE PUSH1 0x60 DUP3 ADD MLOAD DUP2 PUSH1 0x3 ADD SSTORE PUSH1 0x80 DUP3 ADD MLOAD DUP2 PUSH1 0x4 ADD SSTORE PUSH1 0xA0 DUP3 ADD MLOAD DUP2 PUSH1 0x5 ADD SSTORE SWAP1 POP POP PUSH1 0x2 PUSH1 0x0 DUP2 SLOAD DUP1 SWAP3 SWAP2 SWAP1 PUSH2 0x2B3 SWAP1 PUSH2 0xEE6 JUMP JUMPDEST SWAP2 SWAP1 POP SSTORE POP POP POP POP POP JUMP JUMPDEST PUSH1 0x0 PUSH1 0x20 MSTORE DUP1 PUSH1 0x0 MSTORE PUSH1 0x40 PUSH1 0x0 KECCAK256 PUSH1 0x0 SWAP2 POP SWAP1 POP DUP1 PUSH1 0x0 ADD PUSH1 0x0 SWAP1 SLOAD SWAP1 PUSH2 0x100 EXP SWAP1 DIV PUSH20 0xFFFFFFFFFFFFFFFFFFFFFFFFFFFFFFFFFFFFFFFF AND SWAP1 DUP1 PUSH1 0x1 ADD DUP1 SLOAD PUSH2 0x307 SWAP1 PUSH2 0xC08 JUMP JUMPDEST DUP1 PUSH1 0x1F ADD PUSH1 0x20 DUP1 SWAP2 DIV MUL PUSH1 0x20 ADD PUSH1 0x40 MLOAD SWAP1 DUP2 ADD PUSH1 0x40 MSTORE DUP1 SWAP3 SWAP2 SWAP1 DUP2 DUP2 MSTORE PUSH1 0x20 ADD DUP3 DUP1 SLOAD PUSH2 0x333 SWAP1 PUSH2 0xC08 JUMP JUMPDEST DUP1 ISZERO PUSH2 0x380 JUMPI DUP1 PUSH1 0x1F LT PUSH2 0x355 JUMPI PUSH2 0x100 DUP1 DUP4 SLOAD DIV MUL DUP4 MSTORE SWAP2 PUSH1 0x20 ADD SWAP2 PUSH2 0x380 JUMP JUMPDEST DUP3 ADD SWAP2 SWAP1 PUSH1 0x0 MSTORE PUSH1 0x20 PUSH1 0x0 KECCAK256 SWAP1 JUMPDEST DUP2 SLOAD DUP2 MSTORE SWAP1 PUSH1 0x1 ADD SWAP1 PUSH1 0x20 ADD DUP1 DUP4 GT PUSH2 0x363 JUMPI DUP3 SWAP1 SUB PUSH1 0x1F AND DUP3 ADD SWAP2 JUMPDEST POP POP POP POP POP SWAP1 DUP1 PUSH1 0x2 ADD SLOAD SWAP1 DUP1 PUSH1 0x3 ADD SLOAD SWAP1 DUP1 PUSH1 0x4 ADD SLOAD SWAP1 DUP1 PUSH1 0x5 ADD SLOAD SWAP1 POP DUP7 JUMP JUMPDEST TIMESTAMP PUSH1 0x0 DUP1 DUP5 DUP2 MSTORE PUSH1 0x20 ADD SWAP1 DUP2 MSTORE PUSH1 0x20 ADD PUSH1 0x0 KECCAK256 PUSH1 0x2 ADD SLOAD GT PUSH2 0x3F9 JUMPI PUSH1 0x40 MLOAD PUSH32 0x8C379A000000000000000000000000000000000000000000000000000000000 DUP2 MSTORE PUSH1 0x4 ADD PUSH2 0x3F0 SWAP1 PUSH2 0xF7A JUMP JUMPDEST PUSH1 0x40 MLOAD DUP1 SWAP2 SUB SWAP1 REVERT JUMPDEST PUSH1 0x0 DUP1 PUSH1 0x0 DUP5 DUP2 MSTORE PUSH1 0x20 ADD SWAP1 DUP2 MSTORE PUSH1 0x20 ADD PUSH1 0x0 KECCAK256 PUSH1 0x2 ADD SLOAD SUB PUSH2 0x451 JUMPI PUSH1 0x40 MLOAD PUSH32 0x8C379A000000000000000000000000000000000000000000000000000000000 DUP2 MSTORE PUSH1 0x4 ADD PUSH2 0x448 SWAP1 PUSH2 0xFE6 JUMP JUMPDEST PUSH1 0x40 MLOAD DUP1 SWAP2 SUB SWAP1 REVERT JUMPDEST PUSH1 0x0 DUP1 PUSH1 0x0 DUP5 DUP2 MSTORE PUSH1 0x20 ADD SWAP1 DUP2 MSTORE PUSH1 0x20 ADD PUSH1 0x0 KECCAK256 SWAP1 POP DUP2 DUP2 PUSH1 0x3 ADD SLOAD PUSH2 0x477 SWAP2 SWAP1 PUSH2 0x1006 JUMP JUMPDEST CALLVALUE EQ PUSH2 0x4B8 JUMPI PUSH1 0x40 MLOAD PUSH32 0x8C379A000000000000000000000000000000000000000000000000000000000 DUP2 MSTORE PUSH1 0x4 ADD PUSH2 0x4AF SWAP1 PUSH2 0x1094 JUMP JUMPDEST PUSH1 0x40 MLOAD DUP1 SWAP2 SUB SWAP1 REVERT JUMPDEST DUP2 PUSH1 0x0 DUP1 DUP6 DUP2 MSTORE PUSH1 0x20 ADD SWAP1 DUP2 MSTORE PUSH1 0x20 ADD PUSH1 0x0 KECCAK256 PUSH1 0x5 ADD SLOAD LT ISZERO PUSH2 0x510 JUMPI PUSH1 0x40 MLOAD PUSH32 0x8C379A000000000000000000000000000000000000000000000000000000000 DUP2 MSTORE PUSH1 0x4 ADD PUSH2 0x507 SWAP1 PUSH2 0x1100 JUMP JUMPDEST PUSH1 0x40 MLOAD DUP1 SWAP2 SUB SWAP1 REVERT JUMPDEST DUP2 DUP2 PUSH1 0x5 ADD PUSH1 0x0 DUP3 DUP3 SLOAD PUSH2 0x524 SWAP2 SWAP1 PUSH2 0x1120 JUMP JUMPDEST SWAP3 POP POP DUP2 SWAP1 SSTORE POP DUP2 PUSH1 0x1 PUSH1 0x0 CALLER PUSH20 0xFFFFFFFFFFFFFFFFFFFFFFFFFFFFFFFFFFFFFFFF AND PUSH20 0xFFFFFFFFFFFFFFFFFFFFFFFFFFFFFFFFFFFFFFFF AND DUP2 MSTORE PUSH1 0x20 ADD SWAP1 DUP2 MSTORE PUSH1 0x20 ADD PUSH1 0x0 KECCAK256 PUSH1 0x0 DUP6 DUP2 MSTORE PUSH1 0x20 ADD SWAP1 DUP2 MSTORE PUSH1 0x20 ADD PUSH1 0x0 KECCAK256 PUSH1 0x0 DUP3 DUP3 SLOAD PUSH2 0x58B SWAP2 SWAP1 PUSH2 0x1154 JUMP JUMPDEST SWAP3 POP POP DUP2 SWAP1 SSTORE POP POP POP POP JUMP JUMPDEST PUSH1 0x1 PUSH1 0x20 MSTORE DUP2 PUSH1 0x0 MSTORE PUSH1 0x40 PUSH1 0x0 KECCAK256 PUSH1 0x20 MSTORE DUP1 PUSH1 0x0 MSTORE PUSH1 0x40 PUSH1 0x0 KECCAK256 PUSH1 0x0 SWAP2 POP SWAP2 POP POP SLOAD DUP2 JUMP JUMPDEST TIMESTAMP PUSH1 0x0 DUP1 DUP6 DUP2 MSTORE PUSH1 0x20 ADD SWAP1 DUP2 MSTORE PUSH1 0x20 ADD PUSH1 0x0 KECCAK256 PUSH1 0x2 ADD SLOAD GT PUSH2 0x613 JUMPI PUSH1 0x40 MLOAD PUSH32 0x8C379A000000000000000000000000000000000000000000000000000000000 DUP2 MSTORE PUSH1 0x4 ADD PUSH2 0x60A SWAP1 PUSH2 0xF7A JUMP JUMPDEST PUSH1 0x40 MLOAD DUP1 SWAP2 SUB SWAP1 REVERT JUMPDEST PUSH1 0x0 DUP1 PUSH1 0x0 DUP6 DUP2 MSTORE PUSH1 0x20 ADD SWAP1 DUP2 MSTORE PUSH1 0x20 ADD PUSH1 0x0 KECCAK256 PUSH1 0x2 ADD SLOAD SUB PUSH2 0x66B JUMPI PUSH1 0x40 MLOAD PUSH32 0x8C379A000000000000000000000000000000000000000000000000000000000 DUP2 MSTORE PUSH1 0x4 ADD PUSH2 0x662 SWAP1 PUSH2 0xFE6 JUMP JUMPDEST PUSH1 0x40 MLOAD DUP1 SWAP2 SUB SWAP1 REVERT JUMPDEST POP POP POP JUMP JUMPDEST PUSH1 0x0 PUSH1 0x40 MLOAD SWAP1 POP SWAP1 JUMP JUMPDEST PUSH1 0x0 DUP1 REVERT JUMPDEST PUSH1 0x0 DUP1 REVERT JUMPDEST PUSH1 0x0 DUP1 REVERT JUMPDEST PUSH1 0x0 DUP1 REVERT JUMPDEST PUSH1 0x0 PUSH1 0x1F NOT PUSH1 0x1F DUP4 ADD AND SWAP1 POP SWAP2 SWAP1 POP JUMP JUMPDEST PUSH32 0x4E487B7100000000000000000000000000000000000000000000000000000000 PUSH1 0x0 MSTORE PUSH1 0x41 PUSH1 0x4 MSTORE PUSH1 0x24 PUSH1 0x0 REVERT JUMPDEST PUSH2 0x6D7 DUP3 PUSH2 0x68E JUMP JUMPDEST DUP2 ADD DUP2 DUP2 LT PUSH8 0xFFFFFFFFFFFFFFFF DUP3 GT OR ISZERO PUSH2 0x6F6 JUMPI PUSH2 0x6F5 PUSH2 0x69F JUMP JUMPDEST JUMPDEST DUP1 PUSH1 0x40 MSTORE POP POP POP JUMP JUMPDEST PUSH1 0x0 PUSH2 0x709 PUSH2 0x670 JUMP JUMPDEST SWAP1 POP PUSH2 0x715 DUP3 DUP3 PUSH2 0x6CE JUMP JUMPDEST SWAP2 SWAP1 POP JUMP JUMPDEST PUSH1 0x0 PUSH8 0xFFFFFFFFFFFFFFFF DUP3 GT ISZERO PUSH2 0x735 JUMPI PUSH2 0x734 PUSH2 0x69F JUMP JUMPDEST JUMPDEST PUSH2 0x73E DUP3 PUSH2 0x68E JUMP JUMPDEST SWAP1 POP PUSH1 0x20 DUP2 ADD SWAP1 POP SWAP2 SWAP1 POP JUMP JUMPDEST DUP3 DUP2 DUP4 CALLDATACOPY PUSH1 0x0 DUP4 DUP4 ADD MSTORE POP POP POP JUMP JUMPDEST PUSH1 0x0 PUSH2 0x76D PUSH2 0x768 DUP5 PUSH2 0x71A JUMP JUMPDEST PUSH2 0x6FF JUMP JUMPDEST SWAP1 POP DUP3 DUP2 MSTORE PUSH1 0x20 DUP2 ADD DUP5 DUP5 DUP5 ADD GT ISZERO PUSH2 0x789 JUMPI PUSH2 0x788 PUSH2 0x689 JUMP JUMPDEST JUMPDEST PUSH2 0x794 DUP5 DUP3 DUP6 PUSH2 0x74B JUMP JUMPDEST POP SWAP4 SWAP3 POP POP POP JUMP JUMPDEST PUSH1 0x0 DUP3 PUSH1 0x1F DUP4 ADD SLT PUSH2 0x7B1 JUMPI PUSH2 0x7B0 PUSH2 0x684 JUMP JUMPDEST JUMPDEST DUP2 CALLDATALOAD PUSH2 0x7C1 DUP5 DUP3 PUSH1 0x20 DUP7 ADD PUSH2 0x75A JUMP JUMPDEST SWAP2 POP POP SWAP3 SWAP2 POP POP JUMP JUMPDEST PUSH1 0x0 DUP2 SWAP1 POP SWAP2 SWAP1 POP JUMP JUMPDEST PUSH2 0x7DD DUP2 PUSH2 0x7CA JUMP JUMPDEST DUP2 EQ PUSH2 0x7E8 JUMPI PUSH1 0x0 DUP1 REVERT JUMPDEST POP JUMP JUMPDEST PUSH1 0x0 DUP2 CALLDATALOAD SWAP1 POP PUSH2 0x7FA DUP2 PUSH2 0x7D4 JUMP JUMPDEST SWAP3 SWAP2 POP POP JUMP JUMPDEST PUSH1 0x0 DUP1 PUSH1 0x0 DUP1 PUSH1 0x80 DUP6 DUP8 SUB SLT ISZERO PUSH2 0x81A JUMPI PUSH2 0x819 PUSH2 0x67A JUMP JUMPDEST JUMPDEST PUSH1 0x0 DUP6 ADD CALLDATALOAD PUSH8 0xFFFFFFFFFFFFFFFF DUP2 GT ISZERO PUSH2 0x838 JUMPI PUSH2 0x837 PUSH2 0x67F JUMP JUMPDEST JUMPDEST PUSH2 0x844 DUP8 DUP3 DUP9 ADD PUSH2 0x79C JUMP JUMPDEST SWAP5 POP POP PUSH1 0x20 PUSH2 0x855 DUP8 DUP3 DUP9 ADD PUSH2 0x7EB JUMP JUMPDEST SWAP4 POP POP PUSH1 0x40 PUSH2 0x866 DUP8 DUP3 DUP9 ADD PUSH2 0x7EB JUMP JUMPDEST SWAP3 POP POP PUSH1 0x60 PUSH2 0x877 DUP8 DUP3 DUP9 ADD PUSH2 0x7EB JUMP JUMPDEST SWAP2 POP POP SWAP3 SWAP6 SWAP2 SWAP5 POP SWAP3 POP JUMP JUMPDEST PUSH1 0x0 PUSH1 0x20 DUP3 DUP5 SUB SLT ISZERO PUSH2 0x899 JUMPI PUSH2 0x898 PUSH2 0x67A JUMP JUMPDEST JUMPDEST PUSH1 0x0 PUSH2 0x8A7 DUP5 DUP3 DUP6 ADD PUSH2 0x7EB JUMP JUMPDEST SWAP2 POP POP SWAP3 SWAP2 POP POP JUMP JUMPDEST PUSH1 0x0 PUSH20 0xFFFFFFFFFFFFFFFFFFFFFFFFFFFFFFFFFFFFFFFF DUP3 AND SWAP1 POP SWAP2 SWAP1 POP JUMP JUMPDEST PUSH1 0x0 PUSH2 0x8DB DUP3 PUSH2 0x8B0 JUMP JUMPDEST SWAP1 POP SWAP2 SWAP1 POP JUMP JUMPDEST PUSH2 0x8EB DUP2 PUSH2 0x8D0 JUMP JUMPDEST DUP3 MSTORE POP POP JUMP JUMPDEST PUSH1 0x0 DUP2 MLOAD SWAP1 POP SWAP2 SWAP1 POP JUMP JUMPDEST PUSH1 0x0 DUP3 DUP3 MSTORE PUSH1 0x20 DUP3 ADD SWAP1 POP SWAP3 SWAP2 POP POP JUMP JUMPDEST PUSH1 0x0 JUMPDEST DUP4 DUP2 LT ISZERO PUSH2 0x92B JUMPI DUP1 DUP3 ADD MLOAD DUP2 DUP5 ADD MSTORE PUSH1 0x20 DUP2 ADD SWAP1 POP PUSH2 0x910 JUMP JUMPDEST PUSH1 0x0 DUP5 DUP5 ADD MSTORE POP POP POP POP JUMP JUMPDEST PUSH1 0x0 PUSH2 0x942 DUP3 PUSH2 0x8F1 JUMP JUMPDEST PUSH2 0x94C DUP2 DUP6 PUSH2 0x8FC JUMP JUMPDEST SWAP4 POP PUSH2 0x95C DUP2 DUP6 PUSH1 0x20 DUP7 ADD PUSH2 0x90D JUMP JUMPDEST PUSH2 0x965 DUP2 PUSH2 0x68E JUMP JUMPDEST DUP5 ADD SWAP2 POP POP SWAP3 SWAP2 POP POP JUMP JUMPDEST PUSH2 0x979 DUP2 PUSH2 0x7CA JUMP JUMPDEST DUP3 MSTORE POP POP JUMP JUMPDEST PUSH1 0x0 PUSH1 0xC0 DUP3 ADD SWAP1 POP PUSH2 0x994 PUSH1 0x0 DUP4 ADD DUP10 PUSH2 0x8E2 JUMP JUMPDEST DUP2 DUP2 SUB PUSH1 0x20 DUP4 ADD MSTORE PUSH2 0x9A6 DUP2 DUP9 PUSH2 0x937 JUMP JUMPDEST SWAP1 POP PUSH2 0x9B5 PUSH1 0x40 DUP4 ADD DUP8 PUSH2 0x970 JUMP JUMPDEST PUSH2 0x9C2 PUSH1 0x60 DUP4 ADD DUP7 PUSH2 0x970 JUMP JUMPDEST PUSH2 0x9CF PUSH1 0x80 DUP4 ADD DUP6 PUSH2 0x970 JUMP JUMPDEST PUSH2 0x9DC PUSH1 0xA0 DUP4 ADD DUP5 PUSH2 0x970 JUMP JUMPDEST SWAP8 SWAP7 POP POP POP POP POP POP POP JUMP JUMPDEST PUSH1 0x0 DUP1 PUSH1 0x40 DUP4 DUP6 SUB SLT ISZERO PUSH2 0x9FE JUMPI PUSH2 0x9FD PUSH2 0x67A JUMP JUMPDEST JUMPDEST PUSH1 0x0 PUSH2 0xA0C DUP6 DUP3 DUP7 ADD PUSH2 0x7EB JUMP JUMPDEST SWAP3 POP POP PUSH1 0x20 PUSH2 0xA1D DUP6 DUP3 DUP7 ADD PUSH2 0x7EB JUMP JUMPDEST SWAP2 POP POP SWAP3 POP SWAP3 SWAP1 POP JUMP JUMPDEST PUSH2 0xA30 DUP2 PUSH2 0x8D0 JUMP JUMPDEST DUP2 EQ PUSH2 0xA3B JUMPI PUSH1 0x0 DUP1 REVERT JUMPDEST POP JUMP JUMPDEST PUSH1 0x0 DUP2 CALLDATALOAD SWAP1 POP PUSH2 0xA4D DUP2 PUSH2 0xA27 JUMP JUMPDEST SWAP3 SWAP2 POP POP JUMP JUMPDEST PUSH1 0x0 DUP1 PUSH1 0x40 DUP4 DUP6 SUB SLT ISZERO PUSH2 0xA6A JUMPI PUSH2 0xA69 PUSH2 0x67A JUMP JUMPDEST JUMPDEST PUSH1 0x0 PUSH2 0xA78 DUP6 DUP3 DUP7 ADD PUSH2 0xA3E JUMP JUMPDEST SWAP3 POP POP PUSH1 0x20 PUSH2 0xA89 DUP6 DUP3 DUP7 ADD PUSH2 0x7EB JUMP JUMPDEST SWAP2 POP POP SWAP3 POP SWAP3 SWAP1 POP JUMP JUMPDEST PUSH1 0x0 PUSH1 0x20 DUP3 ADD SWAP1 POP PUSH2 0xAA8 PUSH1 0x0 DUP4 ADD DUP5 PUSH2 0x970 JUMP JUMPDEST SWAP3 SWAP2 POP POP JUMP JUMPDEST PUSH1 0x0 DUP1 PUSH1 0x0 PUSH1 0x60 DUP5 DUP7 SUB SLT ISZERO PUSH2 0xAC7 JUMPI PUSH2 0xAC6 PUSH2 0x67A JUMP JUMPDEST JUMPDEST PUSH1 0x0 PUSH2 0xAD5 DUP7 DUP3 DUP8 ADD PUSH2 0x7EB JUMP JUMPDEST SWAP4 POP POP PUSH1 0x20 PUSH2 0xAE6 DUP7 DUP3 DUP8 ADD PUSH2 0x7EB JUMP JUMPDEST SWAP3 POP POP PUSH1 0x40 PUSH2 0xAF7 DUP7 DUP3 DUP8 ADD PUSH2 0xA3E JUMP JUMPDEST SWAP2 POP POP SWAP3 POP SWAP3 POP SWAP3 JUMP JUMPDEST PUSH32 0x546865204576656E7420686173206F7665720000000000000000000000000000 PUSH1 0x0 DUP3 ADD MSTORE POP JUMP JUMPDEST PUSH1 0x0 PUSH2 0xB37 PUSH1 0x12 DUP4 PUSH2 0x8FC JUMP JUMPDEST SWAP2 POP PUSH2 0xB42 DUP3 PUSH2 0xB01 JUMP JUMPDEST PUSH1 0x20 DUP3 ADD SWAP1 POP SWAP2 SWAP1 POP JUMP JUMPDEST PUSH1 0x0 PUSH1 0x20 DUP3 ADD SWAP1 POP DUP2 DUP2 SUB PUSH1 0x0 DUP4 ADD MSTORE PUSH2 0xB66 DUP2 PUSH2 0xB2A JUMP JUMPDEST SWAP1 POP SWAP2 SWAP1 POP JUMP JUMPDEST PUSH32 0x796F752063616E2052756E20746865204576656E747300000000000000000000 PUSH1 0x0 DUP3 ADD MSTORE POP JUMP JUMPDEST PUSH1 0x0 PUSH2 0xBA3 PUSH1 0x16 DUP4 PUSH2 0x8FC JUMP JUMPDEST SWAP2 POP PUSH2 0xBAE DUP3 PUSH2 0xB6D JUMP JUMPDEST PUSH1 0x20 DUP3 ADD SWAP1 POP SWAP2 SWAP1 POP JUMP JUMPDEST PUSH1 0x0 PUSH1 0x20 DUP3 ADD SWAP1 POP DUP2 DUP2 SUB PUSH1 0x0 DUP4 ADD MSTORE PUSH2 0xBD2 DUP2 PUSH2 0xB96 JUMP JUMPDEST SWAP1 POP SWAP2 SWAP1 POP JUMP JUMPDEST PUSH32 0x4E487B7100000000000000000000000000000000000000000000000000000000 PUSH1 0x0 MSTORE PUSH1 0x22 PUSH1 0x4 MSTORE PUSH1 0x24 PUSH1 0x0 REVERT JUMPDEST PUSH1 0x0 PUSH1 0x2 DUP3 DIV SWAP1 POP PUSH1 0x1 DUP3 AND DUP1 PUSH2 0xC20 JUMPI PUSH1 0x7F DUP3 AND SWAP2 POP JUMPDEST PUSH1 0x20 DUP3 LT DUP2 SUB PUSH2 0xC33 JUMPI PUSH2 0xC32 PUSH2 0xBD9 JUMP JUMPDEST JUMPDEST POP SWAP2 SWAP1 POP JUMP JUMPDEST PUSH1 0x0 DUP2 SWAP1 POP DUP2 PUSH1 0x0 MSTORE PUSH1 0x20 PUSH1 0x0 KECCAK256 SWAP1 POP SWAP2 SWAP1 POP JUMP JUMPDEST PUSH1 0x0 PUSH1 0x20 PUSH1 0x1F DUP4 ADD DIV SWAP1 POP SWAP2 SWAP1 POP JUMP JUMPDEST PUSH1 0x0 DUP3 DUP3 SHL SWAP1 POP SWAP3 SWAP2 POP POP JUMP JUMPDEST PUSH1 0x0 PUSH1 0x8 DUP4 MUL PUSH2 0xC9B PUSH32 0xFFFFFFFFFFFFFFFFFFFFFFFFFFFFFFFFFFFFFFFFFFFFFFFFFFFFFFFFFFFFFFFF DUP3 PUSH2 0xC5E JUMP JUMPDEST PUSH2 0xCA5 DUP7 DUP4 PUSH2 0xC5E JUMP JUMPDEST SWAP6 POP DUP1 NOT DUP5 AND SWAP4 POP DUP1 DUP7 AND DUP5 OR SWAP3 POP POP POP SWAP4 SWAP3 POP POP POP JUMP JUMPDEST PUSH1 0x0 DUP2 SWAP1 POP SWAP2 SWAP1 POP JUMP JUMPDEST PUSH1 0x0 PUSH2 0xCE2 PUSH2 0xCDD PUSH2 0xCD8 DUP5 PUSH2 0x7CA JUMP JUMPDEST PUSH2 0xCBD JUMP JUMPDEST PUSH2 0x7CA JUMP JUMPDEST SWAP1 POP SWAP2 SWAP1 POP JUMP JUMPDEST PUSH1 0x0 DUP2 SWAP1 POP SWAP2 SWAP1 POP JUMP JUMPDEST PUSH2 0xCFC DUP4 PUSH2 0xCC7 JUMP JUMPDEST PUSH2 0xD10 PUSH2 0xD08 DUP3 PUSH2 0xCE9 JUMP JUMPDEST DUP5 DUP5 SLOAD PUSH2 0xC6B JUMP JUMPDEST DUP3 SSTORE POP POP POP POP JUMP JUMPDEST PUSH1 0x0 SWAP1 JUMP JUMPDEST PUSH2 0xD25 PUSH2 0xD18 JUMP JUMPDEST PUSH2 0xD30 DUP2 DUP5 DUP5 PUSH2 0xCF3 JUMP JUMPDEST POP POP POP JUMP JUMPDEST JUMPDEST DUP2 DUP2 LT ISZERO PUSH2 0xD54 JUMPI PUSH2 0xD49 PUSH1 0x0 DUP3 PUSH2 0xD1D JUMP JUMPDEST PUSH1 0x1 DUP2 ADD SWAP1 POP PUSH2 0xD36 JUMP JUMPDEST POP POP JUMP JUMPDEST PUSH1 0x1F DUP3 GT ISZERO PUSH2 0xD99 JUMPI PUSH2 0xD6A DUP2 PUSH2 0xC39 JUMP JUMPDEST PUSH2 0xD73 DUP5 PUSH2 0xC4E JUMP JUMPDEST DUP2 ADD PUSH1 0x20 DUP6 LT ISZERO PUSH2 0xD82 JUMPI DUP2 SWAP1 POP JUMPDEST PUSH2 0xD96 PUSH2 0xD8E DUP6 PUSH2 0xC4E JUMP JUMPDEST DUP4 ADD DUP3 PUSH2 0xD35 JUMP JUMPDEST POP POP JUMPDEST POP POP POP JUMP JUMPDEST PUSH1 0x0 DUP3 DUP3 SHR SWAP1 POP SWAP3 SWAP2 POP POP JUMP JUMPDEST PUSH1 0x0 PUSH2 0xDBC PUSH1 0x0 NOT DUP5 PUSH1 0x8 MUL PUSH2 0xD9E JUMP JUMPDEST NOT DUP1 DUP4 AND SWAP2 POP POP SWAP3 SWAP2 POP POP JUMP JUMPDEST PUSH1 0x0 PUSH2 0xDD5 DUP4 DUP4 PUSH2 0xDAB JUMP JUMPDEST SWAP2 POP DUP3 PUSH1 0x2 MUL DUP3 OR SWAP1 POP SWAP3 SWAP2 POP POP JUMP JUMPDEST PUSH2 0xDEE DUP3 PUSH2 0x8F1 JUMP JUMPDEST PUSH8 0xFFFFFFFFFFFFFFFF DUP2 GT ISZERO PUSH2 0xE07 JUMPI PUSH2 0xE06 PUSH2 0x69F JUMP JUMPDEST JUMPDEST PUSH2 0xE11 DUP3 SLOAD PUSH2 0xC08 JUMP JUMPDEST PUSH2 0xE1C DUP3 DUP3 DUP6 PUSH2 0xD58 JUMP JUMPDEST PUSH1 0x0 PUSH1 0x20 SWAP1 POP PUSH1 0x1F DUP4 GT PUSH1 0x1 DUP2 EQ PUSH2 0xE4F JUMPI PUSH1 0x0 DUP5 ISZERO PUSH2 0xE3D JUMPI DUP3 DUP8 ADD MLOAD SWAP1 POP JUMPDEST PUSH2 0xE47 DUP6 DUP3 PUSH2 0xDC9 JUMP JUMPDEST DUP7 SSTORE POP PUSH2 0xEAF JUMP JUMPDEST PUSH1 0x1F NOT DUP5 AND PUSH2 0xE5D DUP7 PUSH2 0xC39 JUMP JUMPDEST PUSH1 0x0 JUMPDEST DUP3 DUP2 LT ISZERO PUSH2 0xE85 JUMPI DUP5 DUP10 ADD MLOAD DUP3 SSTORE PUSH1 0x1 DUP3 ADD SWAP2 POP PUSH1 0x20 DUP6 ADD SWAP5 POP PUSH1 0x20 DUP2 ADD SWAP1 POP PUSH2 0xE60 JUMP JUMPDEST DUP7 DUP4 LT ISZERO PUSH2 0xEA2 JUMPI DUP5 DUP10 ADD MLOAD PUSH2 0xE9E PUSH1 0x1F DUP10 AND DUP3 PUSH2 0xDAB JUMP JUMPDEST DUP4 SSTORE POP JUMPDEST PUSH1 0x1 PUSH1 0x2 DUP9 MUL ADD DUP9 SSTORE POP POP POP JUMPDEST POP POP POP POP POP POP JUMP JUMPDEST PUSH32 0x4E487B7100000000000000000000000000000000000000000000000000000000 PUSH1 0x0 MSTORE PUSH1 0x11 PUSH1 0x4 MSTORE PUSH1 0x24 PUSH1 0x0 REVERT JUMPDEST PUSH1 0x0 PUSH2 0xEF1 DUP3 PUSH2 0x7CA JUMP JUMPDEST SWAP2 POP PUSH32 0xFFFFFFFFFFFFFFFFFFFFFFFFFFFFFFFFFFFFFFFFFFFFFFFFFFFFFFFFFFFFFFFF DUP3 SUB PUSH2 0xF23 JUMPI PUSH2 0xF22 PUSH2 0xEB7 JUMP JUMPDEST JUMPDEST PUSH1 0x1 DUP3 ADD SWAP1 POP SWAP2 SWAP1 POP JUMP JUMPDEST PUSH32 0x5468652074696D6520686173206C6F7373000000000000000000000000000000 PUSH1 0x0 DUP3 ADD MSTORE POP JUMP JUMPDEST PUSH1 0x0 PUSH2 0xF64 PUSH1 0x11 DUP4 PUSH2 0x8FC JUMP JUMPDEST SWAP2 POP PUSH2 0xF6F DUP3 PUSH2 0xF2E JUMP JUMPDEST PUSH1 0x20 DUP3 ADD SWAP1 POP SWAP2 SWAP1 POP JUMP JUMPDEST PUSH1 0x0 PUSH1 0x20 DUP3 ADD SWAP1 POP DUP2 DUP2 SUB PUSH1 0x0 DUP4 ADD MSTORE PUSH2 0xF93 DUP2 PUSH2 0xF57 JUMP JUMPDEST SWAP1 POP SWAP2 SWAP1 POP JUMP JUMPDEST PUSH32 0x746865207469636B657420686173206C6F737300000000000000000000000000 PUSH1 0x0 DUP3 ADD MSTORE POP JUMP JUMPDEST PUSH1 0x0 PUSH2 0xFD0 PUSH1 0x13 DUP4 PUSH2 0x8FC JUMP JUMPDEST SWAP2 POP PUSH2 0xFDB DUP3 PUSH2 0xF9A JUMP JUMPDEST PUSH1 0x20 DUP3 ADD SWAP1 POP SWAP2 SWAP1 POP JUMP JUMPDEST PUSH1 0x0 PUSH1 0x20 DUP3 ADD SWAP1 POP DUP2 DUP2 SUB PUSH1 0x0 DUP4 ADD MSTORE PUSH2 0xFFF DUP2 PUSH2 0xFC3 JUMP JUMPDEST SWAP1 POP SWAP2 SWAP1 POP JUMP JUMPDEST PUSH1 0x0 PUSH2 0x1011 DUP3 PUSH2 0x7CA JUMP JUMPDEST SWAP2 POP PUSH2 0x101C DUP4 PUSH2 0x7CA JUMP JUMPDEST SWAP3 POP DUP3 DUP3 MUL PUSH2 0x102A DUP2 PUSH2 0x7CA JUMP JUMPDEST SWAP2 POP DUP3 DUP3 DIV DUP5 EQ DUP4 ISZERO OR PUSH2 0x1041 JUMPI PUSH2 0x1040 PUSH2 0xEB7 JUMP JUMPDEST JUMPDEST POP SWAP3 SWAP2 POP POP JUMP JUMPDEST PUSH32 0x596F7572206E6F74206162626C6520746F206163636573730000000000000000 PUSH1 0x0 DUP3 ADD MSTORE POP JUMP JUMPDEST PUSH1 0x0 PUSH2 0x107E PUSH1 0x18 DUP4 PUSH2 0x8FC JUMP JUMPDEST SWAP2 POP PUSH2 0x1089 DUP3 PUSH2 0x1048 JUMP JUMPDEST PUSH1 0x20 DUP3 ADD SWAP1 POP SWAP2 SWAP1 POP JUMP JUMPDEST PUSH1 0x0 PUSH1 0x20 DUP3 ADD SWAP1 POP DUP2 DUP2 SUB PUSH1 0x0 DUP4 ADD MSTORE PUSH2 0x10AD DUP2 PUSH2 0x1071 JUMP JUMPDEST SWAP1 POP SWAP2 SWAP1 POP JUMP JUMPDEST PUSH32 0x4E6F7468696E6700000000000000000000000000000000000000000000000000 PUSH1 0x0 DUP3 ADD MSTORE POP JUMP JUMPDEST PUSH1 0x0 PUSH2 0x10EA PUSH1 0x7 DUP4 PUSH2 0x8FC JUMP JUMPDEST SWAP2 POP PUSH2 0x10F5 DUP3 PUSH2 0x10B4 JUMP JUMPDEST PUSH1 0x20 DUP3 ADD SWAP1 POP SWAP2 SWAP1 POP JUMP JUMPDEST PUSH1 0x0 PUSH1 0x20 DUP3 ADD SWAP1 POP DUP2 DUP2 SUB PUSH1 0x0 DUP4 ADD MSTORE PUSH2 0x1119 DUP2 PUSH2 0x10DD JUMP JUMPDEST SWAP1 POP SWAP2 SWAP1 POP JUMP JUMPDEST PUSH1 0x0 PUSH2 0x112B DUP3 PUSH2 0x7CA JUMP JUMPDEST SWAP2 POP PUSH2 0x1136 DUP4 PUSH2 0x7CA JUMP JUMPDEST SWAP3 POP DUP3 DUP3 SUB SWAP1 POP DUP2 DUP2 GT ISZERO PUSH2 0x114E JUMPI PUSH2 0x114D PUSH2 0xEB7 JUMP JUMPDEST JUMPDEST SWAP3 SWAP2 POP POP JUMP JUMPDEST PUSH1 0x0 PUSH2 0x115F DUP3 PUSH2 0x7CA JUMP JUMPDEST SWAP2 POP PUSH2 0x116A DUP4 PUSH2 0x7CA JUMP JUMPDEST SWAP3 POP DUP3 DUP3 ADD SWAP1 POP DUP1 DUP3 GT ISZERO PUSH2 0x1182 JUMPI PUSH2 0x1181 PUSH2 0xEB7 JUMP JUMPDEST JUMPDEST SWAP3 SWAP2 POP POP JUMP INVALID LOG2 PUSH5 0x6970667358 0x22 SLT KECCAK256 0xC0 0xCF DUP11 0xD2 STATICCALL 0x25 SWAP13 GAS CREATE 0xCC 0xCD PUSH17 0xAFD4BCB29BDF725C01E864E4CB72E29C50 0xF7 0xAC SAR PUSH5 0x736F6C6343 STOP ADDMOD GT STOP CALLER "
				},
				"gasEstimates": {
					"creation": {
						"codeDepositCost": "908400",
						"executionCost": "942",
						"totalCost": "909342"
					},
					"external": {
						"buyTicket(uint256,uint256)": "infinite",
						"createEvent(string,uint256,uint256,uint256)": "infinite",
						"events(uint256)": "infinite",
						"ticket(address,uint256)": "infinite",
						"transferTicket(uint256,uint256,address)": "infinite"
					}
				},
				"methodIdentifiers": {
					"buyTicket(uint256,uint256)": "298ec208",
					"createEvent(string,uint256,uint256,uint256)": "0374ab0b",
					"events(uint256)": "0b791430",
					"ticket(address,uint256)": "e11bb64d",
					"transferTicket(uint256,uint256,address)": "f086a09b"
				}
			},
			"storageLayout": {
				"storage": [
					{
						"astId": 19,
						"contract": "Event.sol:OrganizingEvent",
						"label": "events",
						"offset": 0,
						"slot": "0",
						"type": "t_mapping(t_uint256,t_struct(Event)14_storage)"
					},
					{
						"astId": 25,
						"contract": "Event.sol:OrganizingEvent",
						"label": "ticket",
						"offset": 0,
						"slot": "1",
						"type": "t_mapping(t_address,t_mapping(t_uint256,t_uint256))"
					},
					{
						"astId": 27,
						"contract": "Event.sol:OrganizingEvent",
						"label": "nextId",
						"offset": 0,
						"slot": "2",
						"type": "t_uint256"
					}
				],
				"types": {
					"t_address": {
						"encoding": "inplace",
						"label": "address",
						"numberOfBytes": "20"
					},
					"t_mapping(t_address,t_mapping(t_uint256,t_uint256))": {
						"encoding": "mapping",
						"key": "t_address",
						"label": "mapping(address => mapping(uint256 => uint256))",
						"numberOfBytes": "32",
						"value": "t_mapping(t_uint256,t_uint256)"
					},
					"t_mapping(t_uint256,t_struct(Event)14_storage)": {
						"encoding": "mapping",
						"key": "t_uint256",
						"label": "mapping(uint256 => struct OrganizingEvent.Event)",
						"numberOfBytes": "32",
						"value": "t_struct(Event)14_storage"
					},
					"t_mapping(t_uint256,t_uint256)": {
						"encoding": "mapping",
						"key": "t_uint256",
						"label": "mapping(uint256 => uint256)",
						"numberOfBytes": "32",
						"value": "t_uint256"
					},
					"t_string_storage": {
						"encoding": "bytes",
						"label": "string",
						"numberOfBytes": "32"
					},
					"t_struct(Event)14_storage": {
						"encoding": "inplace",
						"label": "struct OrganizingEvent.Event",
						"members": [
							{
								"astId": 3,
								"contract": "Event.sol:OrganizingEvent",
								"label": "organizer",
								"offset": 0,
								"slot": "0",
								"type": "t_address"
							},
							{
								"astId": 5,
								"contract": "Event.sol:OrganizingEvent",
								"label": "name",
								"offset": 0,
								"slot": "1",
								"type": "t_string_storage"
							},
							{
								"astId": 7,
								"contract": "Event.sol:OrganizingEvent",
								"label": "date",
								"offset": 0,
								"slot": "2",
								"type": "t_uint256"
							},
							{
								"astId": 9,
								"contract": "Event.sol:OrganizingEvent",
								"label": "price",
								"offset": 0,
								"slot": "3",
								"type": "t_uint256"
							},
							{
								"astId": 11,
								"contract": "Event.sol:OrganizingEvent",
								"label": "ticketOpen",
								"offset": 0,
								"slot": "4",
								"type": "t_uint256"
							},
							{
								"astId": 13,
								"contract": "Event.sol:OrganizingEvent",
								"label": "ticketRemain",
								"offset": 0,
								"slot": "5",
								"type": "t_uint256"
							}
						],
						"numberOfBytes": "192"
					},
					"t_uint256": {
						"encoding": "inplace",
						"label": "uint256",
						"numberOfBytes": "32"
					}
				}
			},
			"userdoc": {
				"kind": "user",
				"methods": {},
				"version": 1
			}
		}
	}
}