{
	"Event.sol": {
		"OrganizingEvent": {
			"abi": [
				{
					"inputs": [
						{
							"internalType": "uint256",
							"name": "id",
							"type": "uint256"
						},
						{
							"internalType": "uint256",
							"name": "quantity",
							"type": "uint256"
						}
					],
					"name": "buyTicket",
					"outputs": [],
					"stateMutability": "payable",
					"type": "function"
				},
				{
					"inputs": [
						{
							"internalType": "string",
							"name": "_name",
							"type": "string"
						},
						{
							"internalType": "uint256",
							"name": "_date",
							"type": "uint256"
						},
						{
							"internalType": "uint256",
							"name": "_price",
							"type": "uint256"
						},
						{
							"internalType": "uint256",
							"name": "_ticketOpen",
							"type": "uint256"
						}
					],
					"name": "createEvent",
					"outputs": [],
					"stateMutability": "nonpayable",
					"type": "function"
				},
				{
					"inputs": [
						{
							"internalType": "uint256",
							"name": "",
							"type": "uint256"
						}
					],
					"name": "events",
					"outputs": [
						{
							"internalType": "address",
							"name": "organizer",
							"type": "address"
						},
						{
							"internalType": "string",
							"name": "name",
							"type": "string"
						},
						{
							"internalType": "uint256",
							"name": "date",
							"type": "uint256"
						},
						{
							"internalType": "uint256",
							"name": "price",
							"type": "uint256"
						},
						{
							"internalType": "uint256",
							"name": "ticketOpen",
							"type": "uint256"
						},
						{
							"internalType": "uint256",
							"name": "ticketRemain",
							"type": "uint256"
						}
					],
					"stateMutability": "view",
					"type": "function"
				},
				{
					"inputs": [
						{
							"internalType": "address",
							"name": "",
							"type": "address"
						},
						{
							"internalType": "uint256",
							"name": "",
							"type": "uint256"
						}
					],
					"name": "ticket",
					"outputs": [
						{
							"internalType": "uint256",
							"name": "",
							"type": "uint256"
						}
					],
					"stateMutability": "view",
					"type": "function"
				}
			],
			"devdoc": {
				"kind": "dev",
				"methods": {},
				"version": 1
			},
			"evm": {
				"assembly": "    /* \"Event.sol\":74:1167  contract OrganizingEvent{... */\n  mstore(0x40, 0x80)\n  callvalue\n  dup1\n  iszero\n  tag_1\n  jumpi\n  0x00\n  dup1\n  revert\ntag_1:\n  pop\n  dataSize(sub_0)\n  dup1\n  dataOffset(sub_0)\n  0x00\n  codecopy\n  0x00\n  return\nstop\n\nsub_0: assembly {\n        /* \"Event.sol\":74:1167  contract OrganizingEvent{... */\n      mstore(0x40, 0x80)\n      jumpi(tag_1, lt(calldatasize, 0x04))\n      shr(0xe0, calldataload(0x00))\n      dup1\n      0x0374ab0b\n      eq\n      tag_2\n      jumpi\n      dup1\n      0x0b791430\n      eq\n      tag_3\n      jumpi\n      dup1\n      0x298ec208\n      eq\n      tag_4\n      jumpi\n      dup1\n      0xe11bb64d\n      eq\n      tag_5\n      jumpi\n    tag_1:\n      0x00\n      dup1\n      revert\n        /* \"Event.sol\":397:721  function createEvent(string memory _name,uint _date,uint _price,uint _ticketOpen) public {... */\n    tag_2:\n      callvalue\n      dup1\n      iszero\n      tag_6\n      jumpi\n      0x00\n      dup1\n      revert\n    tag_6:\n      pop\n      tag_7\n      0x04\n      dup1\n      calldatasize\n      sub\n      dup2\n      add\n      swap1\n      tag_8\n      swap2\n      swap1\n      tag_9\n      jump\t// in\n    tag_8:\n      tag_10\n      jump\t// in\n    tag_7:\n      stop\n        /* \"Event.sol\":278:312  mapping(uint=>Event) public events */\n    tag_3:\n      callvalue\n      dup1\n      iszero\n      tag_11\n      jumpi\n      0x00\n      dup1\n      revert\n    tag_11:\n      pop\n      tag_12\n      0x04\n      dup1\n      calldatasize\n      sub\n      dup2\n      add\n      swap1\n      tag_13\n      swap2\n      swap1\n      tag_14\n      jump\t// in\n    tag_13:\n      tag_15\n      jump\t// in\n    tag_12:\n      mload(0x40)\n      tag_16\n      swap7\n      swap6\n      swap5\n      swap4\n      swap3\n      swap2\n      swap1\n      tag_17\n      jump\t// in\n    tag_16:\n      mload(0x40)\n      dup1\n      swap2\n      sub\n      swap1\n      return\n        /* \"Event.sol\":729:1156  function buyTicket(uint id,uint quantity) public payable  {... */\n    tag_4:\n      tag_18\n      0x04\n      dup1\n      calldatasize\n      sub\n      dup2\n      add\n      swap1\n      tag_19\n      swap2\n      swap1\n      tag_20\n      jump\t// in\n    tag_19:\n      tag_21\n      jump\t// in\n    tag_18:\n      stop\n        /* \"Event.sol\":319:370  mapping(address=>mapping(uint=>uint)) public ticket */\n    tag_5:\n      callvalue\n      dup1\n      iszero\n      tag_22\n      jumpi\n      0x00\n      dup1\n      revert\n    tag_22:\n      pop\n      tag_23\n      0x04\n      dup1\n      calldatasize\n      sub\n      dup2\n      add\n      swap1\n      tag_24\n      swap2\n      swap1\n      tag_25\n      jump\t// in\n    tag_24:\n      tag_26\n      jump\t// in\n    tag_23:\n      mload(0x40)\n      tag_27\n      swap2\n      swap1\n      tag_28\n      jump\t// in\n    tag_27:\n      mload(0x40)\n      dup1\n      swap2\n      sub\n      swap1\n      return\n        /* \"Event.sol\":397:721  function createEvent(string memory _name,uint _date,uint _price,uint _ticketOpen) public {... */\n    tag_10:\n        /* \"Event.sol\":511:526  block.timestamp */\n      timestamp\n        /* \"Event.sol\":505:510  _date */\n      dup4\n        /* \"Event.sol\":505:526  _date>block.timestamp */\n      gt\n        /* \"Event.sol\":497:548  require(_date>block.timestamp,\"The Event has over\") */\n      tag_30\n      jumpi\n      mload(0x40)\n      0x08c379a000000000000000000000000000000000000000000000000000000000\n      dup2\n      mstore\n      0x04\n      add\n      tag_31\n      swap1\n      tag_32\n      jump\t// in\n    tag_31:\n      mload(0x40)\n      dup1\n      swap2\n      sub\n      swap1\n      revert\n    tag_30:\n        /* \"Event.sol\":579:580  0 */\n      0x00\n        /* \"Event.sol\":567:578  _ticketOpen */\n      dup2\n        /* \"Event.sol\":567:580  _ticketOpen>0 */\n      gt\n        /* \"Event.sol\":559:606  require(_ticketOpen>0,\"you can Run the Events\") */\n      tag_33\n      jumpi\n      mload(0x40)\n      0x08c379a000000000000000000000000000000000000000000000000000000000\n      dup2\n      mstore\n      0x04\n      add\n      tag_34\n      swap1\n      tag_35\n      jump\t// in\n    tag_34:\n      mload(0x40)\n      dup1\n      swap2\n      sub\n      swap1\n      revert\n    tag_33:\n        /* \"Event.sol\":634:694  Event(msg.sender,_name,_date,_price,_ticketOpen,_ticketOpen) */\n      mload(0x40)\n      dup1\n      0xc0\n      add\n      0x40\n      mstore\n      dup1\n        /* \"Event.sol\":640:650  msg.sender */\n      caller\n        /* \"Event.sol\":634:694  Event(msg.sender,_name,_date,_price,_ticketOpen,_ticketOpen) */\n      0xffffffffffffffffffffffffffffffffffffffff\n      and\n      dup2\n      mstore\n      0x20\n      add\n        /* \"Event.sol\":651:656  _name */\n      dup6\n        /* \"Event.sol\":634:694  Event(msg.sender,_name,_date,_price,_ticketOpen,_ticketOpen) */\n      dup2\n      mstore\n      0x20\n      add\n        /* \"Event.sol\":657:662  _date */\n      dup5\n        /* \"Event.sol\":634:694  Event(msg.sender,_name,_date,_price,_ticketOpen,_ticketOpen) */\n      dup2\n      mstore\n      0x20\n      add\n        /* \"Event.sol\":663:669  _price */\n      dup4\n        /* \"Event.sol\":634:694  Event(msg.sender,_name,_date,_price,_ticketOpen,_ticketOpen) */\n      dup2\n      mstore\n      0x20\n      add\n        /* \"Event.sol\":670:681  _ticketOpen */\n      dup3\n        /* \"Event.sol\":634:694  Event(msg.sender,_name,_date,_price,_ticketOpen,_ticketOpen) */\n      dup2\n      mstore\n      0x20\n      add\n        /* \"Event.sol\":682:693  _ticketOpen */\n      dup3\n        /* \"Event.sol\":634:694  Event(msg.sender,_name,_date,_price,_ticketOpen,_ticketOpen) */\n      dup2\n      mstore\n      pop\n        /* \"Event.sol\":619:625  events */\n      0x00\n        /* \"Event.sol\":619:633  events[nextId] */\n      dup1\n        /* \"Event.sol\":626:632  nextId */\n      sload(0x02)\n        /* \"Event.sol\":619:633  events[nextId] */\n      dup2\n      mstore\n      0x20\n      add\n      swap1\n      dup2\n      mstore\n      0x20\n      add\n      0x00\n      keccak256\n        /* \"Event.sol\":619:694  events[nextId]=Event(msg.sender,_name,_date,_price,_ticketOpen,_ticketOpen) */\n      0x00\n      dup3\n      add\n      mload\n      dup2\n      0x00\n      add\n      exp(0x0100, 0x00)\n      dup2\n      sload\n      dup2\n      0xffffffffffffffffffffffffffffffffffffffff\n      mul\n      not\n      and\n      swap1\n      dup4\n      0xffffffffffffffffffffffffffffffffffffffff\n      and\n      mul\n      or\n      swap1\n      sstore\n      pop\n      0x20\n      dup3\n      add\n      mload\n      dup2\n      0x01\n      add\n      swap1\n      dup2\n      tag_36\n      swap2\n      swap1\n      tag_37\n      jump\t// in\n    tag_36:\n      pop\n      0x40\n      dup3\n      add\n      mload\n      dup2\n      0x02\n      add\n      sstore\n      0x60\n      dup3\n      add\n      mload\n      dup2\n      0x03\n      add\n      sstore\n      0x80\n      dup3\n      add\n      mload\n      dup2\n      0x04\n      add\n      sstore\n      0xa0\n      dup3\n      add\n      mload\n      dup2\n      0x05\n      add\n      sstore\n      swap1\n      pop\n      pop\n        /* \"Event.sol\":705:711  nextId */\n      0x02\n      0x00\n        /* \"Event.sol\":705:713  nextId++ */\n      dup2\n      sload\n      dup1\n      swap3\n      swap2\n      swap1\n      tag_38\n      swap1\n      tag_39\n      jump\t// in\n    tag_38:\n      swap2\n      swap1\n      pop\n      sstore\n      pop\n        /* \"Event.sol\":397:721  function createEvent(string memory _name,uint _date,uint _price,uint _ticketOpen) public {... */\n      pop\n      pop\n      pop\n      pop\n      jump\t// out\n        /* \"Event.sol\":278:312  mapping(uint=>Event) public events */\n    tag_15:\n      mstore(0x20, 0x00)\n      dup1\n      0x00\n      mstore\n      keccak256(0x00, 0x40)\n      0x00\n      swap2\n      pop\n      swap1\n      pop\n      dup1\n      0x00\n      add\n      0x00\n      swap1\n      sload\n      swap1\n      0x0100\n      exp\n      swap1\n      div\n      0xffffffffffffffffffffffffffffffffffffffff\n      and\n      swap1\n      dup1\n      0x01\n      add\n      dup1\n      sload\n      tag_40\n      swap1\n      tag_41\n      jump\t// in\n    tag_40:\n      dup1\n      0x1f\n      add\n      0x20\n      dup1\n      swap2\n      div\n      mul\n      0x20\n      add\n      mload(0x40)\n      swap1\n      dup2\n      add\n      0x40\n      mstore\n      dup1\n      swap3\n      swap2\n      swap1\n      dup2\n      dup2\n      mstore\n      0x20\n      add\n      dup3\n      dup1\n      sload\n      tag_42\n      swap1\n      tag_41\n      jump\t// in\n    tag_42:\n      dup1\n      iszero\n      tag_43\n      jumpi\n      dup1\n      0x1f\n      lt\n      tag_44\n      jumpi\n      0x0100\n      dup1\n      dup4\n      sload\n      div\n      mul\n      dup4\n      mstore\n      swap2\n      0x20\n      add\n      swap2\n      jump(tag_43)\n    tag_44:\n      dup3\n      add\n      swap2\n      swap1\n      0x00\n      mstore\n      keccak256(0x00, 0x20)\n      swap1\n    tag_45:\n      dup2\n      sload\n      dup2\n      mstore\n      swap1\n      0x01\n      add\n      swap1\n      0x20\n      add\n      dup1\n      dup4\n      gt\n      tag_45\n      jumpi\n      dup3\n      swap1\n      sub\n      0x1f\n      and\n      dup3\n      add\n      swap2\n    tag_43:\n      pop\n      pop\n      pop\n      pop\n      pop\n      swap1\n      dup1\n      0x02\n      add\n      sload\n      swap1\n      dup1\n      0x03\n      add\n      sload\n      swap1\n      dup1\n      0x04\n      add\n      sload\n      swap1\n      dup1\n      0x05\n      add\n      sload\n      swap1\n      pop\n      dup7\n      jump\t// out\n        /* \"Event.sol\":729:1156  function buyTicket(uint id,uint quantity) public payable  {... */\n    tag_21:\n        /* \"Event.sol\":822:837  block.timestamp */\n      timestamp\n        /* \"Event.sol\":806:812  events */\n      0x00\n        /* \"Event.sol\":806:816  events[id] */\n      dup1\n        /* \"Event.sol\":813:815  id */\n      dup5\n        /* \"Event.sol\":806:816  events[id] */\n      dup2\n      mstore\n      0x20\n      add\n      swap1\n      dup2\n      mstore\n      0x20\n      add\n      0x00\n      keccak256\n        /* \"Event.sol\":806:821  events[id].date */\n      0x02\n      add\n      sload\n        /* \"Event.sol\":806:837  events[id].date>block.timestamp */\n      gt\n        /* \"Event.sol\":798:858  require(events[id].date>block.timestamp,\"The time has loss\") */\n      tag_47\n      jumpi\n      mload(0x40)\n      0x08c379a000000000000000000000000000000000000000000000000000000000\n      dup2\n      mstore\n      0x04\n      add\n      tag_48\n      swap1\n      tag_49\n      jump\t// in\n    tag_48:\n      mload(0x40)\n      dup1\n      swap2\n      sub\n      swap1\n      revert\n    tag_47:\n        /* \"Event.sol\":894:895  0 */\n      0x00\n        /* \"Event.sol\":877:883  events */\n      dup1\n        /* \"Event.sol\":877:887  events[id] */\n      0x00\n        /* \"Event.sol\":884:886  id */\n      dup5\n        /* \"Event.sol\":877:887  events[id] */\n      dup2\n      mstore\n      0x20\n      add\n      swap1\n      dup2\n      mstore\n      0x20\n      add\n      0x00\n      keccak256\n        /* \"Event.sol\":877:892  events[id].date */\n      0x02\n      add\n      sload\n        /* \"Event.sol\":877:895  events[id].date!=0 */\n      sub\n        /* \"Event.sol\":869:918  require(events[id].date!=0,\"the ticket has loss\") */\n      tag_50\n      jumpi\n      mload(0x40)\n      0x08c379a000000000000000000000000000000000000000000000000000000000\n      dup2\n      mstore\n      0x04\n      add\n      tag_51\n      swap1\n      tag_52\n      jump\t// in\n    tag_51:\n      mload(0x40)\n      dup1\n      swap2\n      sub\n      swap1\n      revert\n    tag_50:\n        /* \"Event.sol\":929:949  Event storage _event */\n      0x00\n        /* \"Event.sol\":950:956  events */\n      dup1\n        /* \"Event.sol\":950:960  events[id] */\n      0x00\n        /* \"Event.sol\":957:959  id */\n      dup5\n        /* \"Event.sol\":950:960  events[id] */\n      dup2\n      mstore\n      0x20\n      add\n      swap1\n      dup2\n      mstore\n      0x20\n      add\n      0x00\n      keccak256\n        /* \"Event.sol\":929:960  Event storage _event=events[id] */\n      swap1\n      pop\n        /* \"Event.sol\":1004:1012  quantity */\n      dup2\n        /* \"Event.sol\":991:997  _event */\n      dup2\n        /* \"Event.sol\":991:1003  _event.price */\n      0x03\n      add\n      sload\n        /* \"Event.sol\":991:1012  _event.price*quantity */\n      tag_53\n      swap2\n      swap1\n      tag_54\n      jump\t// in\n    tag_53:\n        /* \"Event.sol\":979:988  msg.value */\n      callvalue\n        /* \"Event.sol\":979:1013  msg.value>=(_event.price*quantity) */\n      lt\n      iszero\n        /* \"Event.sol\":971:1041  require(msg.value>=(_event.price*quantity),\"Your not abble to access\") */\n      tag_55\n      jumpi\n      mload(0x40)\n      0x08c379a000000000000000000000000000000000000000000000000000000000\n      dup2\n      mstore\n      0x04\n      add\n      tag_56\n      swap1\n      tag_57\n      jump\t// in\n    tag_56:\n      mload(0x40)\n      dup1\n      swap2\n      sub\n      swap1\n      revert\n    tag_55:\n        /* \"Event.sol\":1085:1093  quantity */\n      dup2\n        /* \"Event.sol\":1060:1066  events */\n      0x00\n        /* \"Event.sol\":1060:1070  events[id] */\n      dup1\n        /* \"Event.sol\":1067:1069  id */\n      dup6\n        /* \"Event.sol\":1060:1070  events[id] */\n      dup2\n      mstore\n      0x20\n      add\n      swap1\n      dup2\n      mstore\n      0x20\n      add\n      0x00\n      keccak256\n        /* \"Event.sol\":1060:1083  events[id].ticketRemain */\n      0x05\n      add\n      sload\n        /* \"Event.sol\":1060:1093  events[id].ticketRemain>=quantity */\n      lt\n      iszero\n        /* \"Event.sol\":1052:1104  require(events[id].ticketRemain>=quantity,\"Nothing\") */\n      tag_58\n      jumpi\n      mload(0x40)\n      0x08c379a000000000000000000000000000000000000000000000000000000000\n      dup2\n      mstore\n      0x04\n      add\n      tag_59\n      swap1\n      tag_60\n      jump\t// in\n    tag_59:\n      mload(0x40)\n      dup1\n      swap2\n      sub\n      swap1\n      revert\n    tag_58:\n        /* \"Event.sol\":787:1156  {... */\n      pop\n        /* \"Event.sol\":729:1156  function buyTicket(uint id,uint quantity) public payable  {... */\n      pop\n      pop\n      jump\t// out\n        /* \"Event.sol\":319:370  mapping(address=>mapping(uint=>uint)) public ticket */\n    tag_26:\n      mstore(0x20, 0x01)\n      dup2\n      0x00\n      mstore\n      mstore(0x20, keccak256(0x00, 0x40))\n      dup1\n      0x00\n      mstore\n      keccak256(0x00, 0x40)\n      0x00\n      swap2\n      pop\n      swap2\n      pop\n      pop\n      sload\n      dup2\n      jump\t// out\n        /* \"#utility.yul\":7:82   */\n    tag_61:\n        /* \"#utility.yul\":40:46   */\n      0x00\n        /* \"#utility.yul\":73:75   */\n      0x40\n        /* \"#utility.yul\":67:76   */\n      mload\n        /* \"#utility.yul\":57:76   */\n      swap1\n      pop\n        /* \"#utility.yul\":7:82   */\n      swap1\n      jump\t// out\n        /* \"#utility.yul\":88:205   */\n    tag_62:\n        /* \"#utility.yul\":197:198   */\n      0x00\n        /* \"#utility.yul\":194:195   */\n      dup1\n        /* \"#utility.yul\":187:199   */\n      revert\n        /* \"#utility.yul\":211:328   */\n    tag_63:\n        /* \"#utility.yul\":320:321   */\n      0x00\n        /* \"#utility.yul\":317:318   */\n      dup1\n        /* \"#utility.yul\":310:322   */\n      revert\n        /* \"#utility.yul\":334:451   */\n    tag_64:\n        /* \"#utility.yul\":443:444   */\n      0x00\n        /* \"#utility.yul\":440:441   */\n      dup1\n        /* \"#utility.yul\":433:445   */\n      revert\n        /* \"#utility.yul\":457:574   */\n    tag_65:\n        /* \"#utility.yul\":566:567   */\n      0x00\n        /* \"#utility.yul\":563:564   */\n      dup1\n        /* \"#utility.yul\":556:568   */\n      revert\n        /* \"#utility.yul\":580:682   */\n    tag_66:\n        /* \"#utility.yul\":621:627   */\n      0x00\n        /* \"#utility.yul\":672:674   */\n      0x1f\n        /* \"#utility.yul\":668:675   */\n      not\n        /* \"#utility.yul\":663:665   */\n      0x1f\n        /* \"#utility.yul\":656:661   */\n      dup4\n        /* \"#utility.yul\":652:666   */\n      add\n        /* \"#utility.yul\":648:676   */\n      and\n        /* \"#utility.yul\":638:676   */\n      swap1\n      pop\n        /* \"#utility.yul\":580:682   */\n      swap2\n      swap1\n      pop\n      jump\t// out\n        /* \"#utility.yul\":688:868   */\n    tag_67:\n        /* \"#utility.yul\":736:813   */\n      0x4e487b7100000000000000000000000000000000000000000000000000000000\n        /* \"#utility.yul\":733:734   */\n      0x00\n        /* \"#utility.yul\":726:814   */\n      mstore\n        /* \"#utility.yul\":833:837   */\n      0x41\n        /* \"#utility.yul\":830:831   */\n      0x04\n        /* \"#utility.yul\":823:838   */\n      mstore\n        /* \"#utility.yul\":857:861   */\n      0x24\n        /* \"#utility.yul\":854:855   */\n      0x00\n        /* \"#utility.yul\":847:862   */\n      revert\n        /* \"#utility.yul\":874:1155   */\n    tag_68:\n        /* \"#utility.yul\":957:984   */\n      tag_125\n        /* \"#utility.yul\":979:983   */\n      dup3\n        /* \"#utility.yul\":957:984   */\n      tag_66\n      jump\t// in\n    tag_125:\n        /* \"#utility.yul\":949:955   */\n      dup2\n        /* \"#utility.yul\":945:985   */\n      add\n        /* \"#utility.yul\":1087:1093   */\n      dup2\n        /* \"#utility.yul\":1075:1085   */\n      dup2\n        /* \"#utility.yul\":1072:1094   */\n      lt\n        /* \"#utility.yul\":1051:1069   */\n      0xffffffffffffffff\n        /* \"#utility.yul\":1039:1049   */\n      dup3\n        /* \"#utility.yul\":1036:1070   */\n      gt\n        /* \"#utility.yul\":1033:1095   */\n      or\n        /* \"#utility.yul\":1030:1118   */\n      iszero\n      tag_126\n      jumpi\n        /* \"#utility.yul\":1098:1116   */\n      tag_127\n      tag_67\n      jump\t// in\n    tag_127:\n        /* \"#utility.yul\":1030:1118   */\n    tag_126:\n        /* \"#utility.yul\":1138:1148   */\n      dup1\n        /* \"#utility.yul\":1134:1136   */\n      0x40\n        /* \"#utility.yul\":1127:1149   */\n      mstore\n        /* \"#utility.yul\":917:1155   */\n      pop\n        /* \"#utility.yul\":874:1155   */\n      pop\n      pop\n      jump\t// out\n        /* \"#utility.yul\":1161:1290   */\n    tag_69:\n        /* \"#utility.yul\":1195:1201   */\n      0x00\n        /* \"#utility.yul\":1222:1242   */\n      tag_129\n      tag_61\n      jump\t// in\n    tag_129:\n        /* \"#utility.yul\":1212:1242   */\n      swap1\n      pop\n        /* \"#utility.yul\":1251:1284   */\n      tag_130\n        /* \"#utility.yul\":1279:1283   */\n      dup3\n        /* \"#utility.yul\":1271:1277   */\n      dup3\n        /* \"#utility.yul\":1251:1284   */\n      tag_68\n      jump\t// in\n    tag_130:\n        /* \"#utility.yul\":1161:1290   */\n      swap2\n      swap1\n      pop\n      jump\t// out\n        /* \"#utility.yul\":1296:1604   */\n    tag_70:\n        /* \"#utility.yul\":1358:1362   */\n      0x00\n        /* \"#utility.yul\":1448:1466   */\n      0xffffffffffffffff\n        /* \"#utility.yul\":1440:1446   */\n      dup3\n        /* \"#utility.yul\":1437:1467   */\n      gt\n        /* \"#utility.yul\":1434:1490   */\n      iszero\n      tag_132\n      jumpi\n        /* \"#utility.yul\":1470:1488   */\n      tag_133\n      tag_67\n      jump\t// in\n    tag_133:\n        /* \"#utility.yul\":1434:1490   */\n    tag_132:\n        /* \"#utility.yul\":1508:1537   */\n      tag_134\n        /* \"#utility.yul\":1530:1536   */\n      dup3\n        /* \"#utility.yul\":1508:1537   */\n      tag_66\n      jump\t// in\n    tag_134:\n        /* \"#utility.yul\":1500:1537   */\n      swap1\n      pop\n        /* \"#utility.yul\":1592:1596   */\n      0x20\n        /* \"#utility.yul\":1586:1590   */\n      dup2\n        /* \"#utility.yul\":1582:1597   */\n      add\n        /* \"#utility.yul\":1574:1597   */\n      swap1\n      pop\n        /* \"#utility.yul\":1296:1604   */\n      swap2\n      swap1\n      pop\n      jump\t// out\n        /* \"#utility.yul\":1610:1756   */\n    tag_71:\n        /* \"#utility.yul\":1707:1713   */\n      dup3\n        /* \"#utility.yul\":1702:1705   */\n      dup2\n        /* \"#utility.yul\":1697:1700   */\n      dup4\n        /* \"#utility.yul\":1684:1714   */\n      calldatacopy\n        /* \"#utility.yul\":1748:1749   */\n      0x00\n        /* \"#utility.yul\":1739:1745   */\n      dup4\n        /* \"#utility.yul\":1734:1737   */\n      dup4\n        /* \"#utility.yul\":1730:1746   */\n      add\n        /* \"#utility.yul\":1723:1750   */\n      mstore\n        /* \"#utility.yul\":1610:1756   */\n      pop\n      pop\n      pop\n      jump\t// out\n        /* \"#utility.yul\":1762:2187   */\n    tag_72:\n        /* \"#utility.yul\":1840:1845   */\n      0x00\n        /* \"#utility.yul\":1865:1931   */\n      tag_137\n        /* \"#utility.yul\":1881:1930   */\n      tag_138\n        /* \"#utility.yul\":1923:1929   */\n      dup5\n        /* \"#utility.yul\":1881:1930   */\n      tag_70\n      jump\t// in\n    tag_138:\n        /* \"#utility.yul\":1865:1931   */\n      tag_69\n      jump\t// in\n    tag_137:\n        /* \"#utility.yul\":1856:1931   */\n      swap1\n      pop\n        /* \"#utility.yul\":1954:1960   */\n      dup3\n        /* \"#utility.yul\":1947:1952   */\n      dup2\n        /* \"#utility.yul\":1940:1961   */\n      mstore\n        /* \"#utility.yul\":1992:1996   */\n      0x20\n        /* \"#utility.yul\":1985:1990   */\n      dup2\n        /* \"#utility.yul\":1981:1997   */\n      add\n        /* \"#utility.yul\":2030:2033   */\n      dup5\n        /* \"#utility.yul\":2021:2027   */\n      dup5\n        /* \"#utility.yul\":2016:2019   */\n      dup5\n        /* \"#utility.yul\":2012:2028   */\n      add\n        /* \"#utility.yul\":2009:2034   */\n      gt\n        /* \"#utility.yul\":2006:2118   */\n      iszero\n      tag_139\n      jumpi\n        /* \"#utility.yul\":2037:2116   */\n      tag_140\n      tag_65\n      jump\t// in\n    tag_140:\n        /* \"#utility.yul\":2006:2118   */\n    tag_139:\n        /* \"#utility.yul\":2127:2181   */\n      tag_141\n        /* \"#utility.yul\":2174:2180   */\n      dup5\n        /* \"#utility.yul\":2169:2172   */\n      dup3\n        /* \"#utility.yul\":2164:2167   */\n      dup6\n        /* \"#utility.yul\":2127:2181   */\n      tag_71\n      jump\t// in\n    tag_141:\n        /* \"#utility.yul\":1846:2187   */\n      pop\n        /* \"#utility.yul\":1762:2187   */\n      swap4\n      swap3\n      pop\n      pop\n      pop\n      jump\t// out\n        /* \"#utility.yul\":2207:2547   */\n    tag_73:\n        /* \"#utility.yul\":2263:2268   */\n      0x00\n        /* \"#utility.yul\":2312:2315   */\n      dup3\n        /* \"#utility.yul\":2305:2309   */\n      0x1f\n        /* \"#utility.yul\":2297:2303   */\n      dup4\n        /* \"#utility.yul\":2293:2310   */\n      add\n        /* \"#utility.yul\":2289:2316   */\n      slt\n        /* \"#utility.yul\":2279:2401   */\n      tag_143\n      jumpi\n        /* \"#utility.yul\":2320:2399   */\n      tag_144\n      tag_64\n      jump\t// in\n    tag_144:\n        /* \"#utility.yul\":2279:2401   */\n    tag_143:\n        /* \"#utility.yul\":2437:2443   */\n      dup2\n        /* \"#utility.yul\":2424:2444   */\n      calldataload\n        /* \"#utility.yul\":2462:2541   */\n      tag_145\n        /* \"#utility.yul\":2537:2540   */\n      dup5\n        /* \"#utility.yul\":2529:2535   */\n      dup3\n        /* \"#utility.yul\":2522:2526   */\n      0x20\n        /* \"#utility.yul\":2514:2520   */\n      dup7\n        /* \"#utility.yul\":2510:2527   */\n      add\n        /* \"#utility.yul\":2462:2541   */\n      tag_72\n      jump\t// in\n    tag_145:\n        /* \"#utility.yul\":2453:2541   */\n      swap2\n      pop\n        /* \"#utility.yul\":2269:2547   */\n      pop\n        /* \"#utility.yul\":2207:2547   */\n      swap3\n      swap2\n      pop\n      pop\n      jump\t// out\n        /* \"#utility.yul\":2553:2630   */\n    tag_74:\n        /* \"#utility.yul\":2590:2597   */\n      0x00\n        /* \"#utility.yul\":2619:2624   */\n      dup2\n        /* \"#utility.yul\":2608:2624   */\n      swap1\n      pop\n        /* \"#utility.yul\":2553:2630   */\n      swap2\n      swap1\n      pop\n      jump\t// out\n        /* \"#utility.yul\":2636:2758   */\n    tag_75:\n        /* \"#utility.yul\":2709:2733   */\n      tag_148\n        /* \"#utility.yul\":2727:2732   */\n      dup2\n        /* \"#utility.yul\":2709:2733   */\n      tag_74\n      jump\t// in\n    tag_148:\n        /* \"#utility.yul\":2702:2707   */\n      dup2\n        /* \"#utility.yul\":2699:2734   */\n      eq\n        /* \"#utility.yul\":2689:2752   */\n      tag_149\n      jumpi\n        /* \"#utility.yul\":2748:2749   */\n      0x00\n        /* \"#utility.yul\":2745:2746   */\n      dup1\n        /* \"#utility.yul\":2738:2750   */\n      revert\n        /* \"#utility.yul\":2689:2752   */\n    tag_149:\n        /* \"#utility.yul\":2636:2758   */\n      pop\n      jump\t// out\n        /* \"#utility.yul\":2764:2903   */\n    tag_76:\n        /* \"#utility.yul\":2810:2815   */\n      0x00\n        /* \"#utility.yul\":2848:2854   */\n      dup2\n        /* \"#utility.yul\":2835:2855   */\n      calldataload\n        /* \"#utility.yul\":2826:2855   */\n      swap1\n      pop\n        /* \"#utility.yul\":2864:2897   */\n      tag_151\n        /* \"#utility.yul\":2891:2896   */\n      dup2\n        /* \"#utility.yul\":2864:2897   */\n      tag_75\n      jump\t// in\n    tag_151:\n        /* \"#utility.yul\":2764:2903   */\n      swap3\n      swap2\n      pop\n      pop\n      jump\t// out\n        /* \"#utility.yul\":2909:3854   */\n    tag_9:\n        /* \"#utility.yul\":3005:3011   */\n      0x00\n        /* \"#utility.yul\":3013:3019   */\n      dup1\n        /* \"#utility.yul\":3021:3027   */\n      0x00\n        /* \"#utility.yul\":3029:3035   */\n      dup1\n        /* \"#utility.yul\":3078:3081   */\n      0x80\n        /* \"#utility.yul\":3066:3075   */\n      dup6\n        /* \"#utility.yul\":3057:3064   */\n      dup8\n        /* \"#utility.yul\":3053:3076   */\n      sub\n        /* \"#utility.yul\":3049:3082   */\n      slt\n        /* \"#utility.yul\":3046:3166   */\n      iszero\n      tag_153\n      jumpi\n        /* \"#utility.yul\":3085:3164   */\n      tag_154\n      tag_62\n      jump\t// in\n    tag_154:\n        /* \"#utility.yul\":3046:3166   */\n    tag_153:\n        /* \"#utility.yul\":3233:3234   */\n      0x00\n        /* \"#utility.yul\":3222:3231   */\n      dup6\n        /* \"#utility.yul\":3218:3235   */\n      add\n        /* \"#utility.yul\":3205:3236   */\n      calldataload\n        /* \"#utility.yul\":3263:3281   */\n      0xffffffffffffffff\n        /* \"#utility.yul\":3255:3261   */\n      dup2\n        /* \"#utility.yul\":3252:3282   */\n      gt\n        /* \"#utility.yul\":3249:3366   */\n      iszero\n      tag_155\n      jumpi\n        /* \"#utility.yul\":3285:3364   */\n      tag_156\n      tag_63\n      jump\t// in\n    tag_156:\n        /* \"#utility.yul\":3249:3366   */\n    tag_155:\n        /* \"#utility.yul\":3390:3453   */\n      tag_157\n        /* \"#utility.yul\":3445:3452   */\n      dup8\n        /* \"#utility.yul\":3436:3442   */\n      dup3\n        /* \"#utility.yul\":3425:3434   */\n      dup9\n        /* \"#utility.yul\":3421:3443   */\n      add\n        /* \"#utility.yul\":3390:3453   */\n      tag_73\n      jump\t// in\n    tag_157:\n        /* \"#utility.yul\":3380:3453   */\n      swap5\n      pop\n        /* \"#utility.yul\":3176:3463   */\n      pop\n        /* \"#utility.yul\":3502:3504   */\n      0x20\n        /* \"#utility.yul\":3528:3581   */\n      tag_158\n        /* \"#utility.yul\":3573:3580   */\n      dup8\n        /* \"#utility.yul\":3564:3570   */\n      dup3\n        /* \"#utility.yul\":3553:3562   */\n      dup9\n        /* \"#utility.yul\":3549:3571   */\n      add\n        /* \"#utility.yul\":3528:3581   */\n      tag_76\n      jump\t// in\n    tag_158:\n        /* \"#utility.yul\":3518:3581   */\n      swap4\n      pop\n        /* \"#utility.yul\":3473:3591   */\n      pop\n        /* \"#utility.yul\":3630:3632   */\n      0x40\n        /* \"#utility.yul\":3656:3709   */\n      tag_159\n        /* \"#utility.yul\":3701:3708   */\n      dup8\n        /* \"#utility.yul\":3692:3698   */\n      dup3\n        /* \"#utility.yul\":3681:3690   */\n      dup9\n        /* \"#utility.yul\":3677:3699   */\n      add\n        /* \"#utility.yul\":3656:3709   */\n      tag_76\n      jump\t// in\n    tag_159:\n        /* \"#utility.yul\":3646:3709   */\n      swap3\n      pop\n        /* \"#utility.yul\":3601:3719   */\n      pop\n        /* \"#utility.yul\":3758:3760   */\n      0x60\n        /* \"#utility.yul\":3784:3837   */\n      tag_160\n        /* \"#utility.yul\":3829:3836   */\n      dup8\n        /* \"#utility.yul\":3820:3826   */\n      dup3\n        /* \"#utility.yul\":3809:3818   */\n      dup9\n        /* \"#utility.yul\":3805:3827   */\n      add\n        /* \"#utility.yul\":3784:3837   */\n      tag_76\n      jump\t// in\n    tag_160:\n        /* \"#utility.yul\":3774:3837   */\n      swap2\n      pop\n        /* \"#utility.yul\":3729:3847   */\n      pop\n        /* \"#utility.yul\":2909:3854   */\n      swap3\n      swap6\n      swap2\n      swap5\n      pop\n      swap3\n      pop\n      jump\t// out\n        /* \"#utility.yul\":3860:4189   */\n    tag_14:\n        /* \"#utility.yul\":3919:3925   */\n      0x00\n        /* \"#utility.yul\":3968:3970   */\n      0x20\n        /* \"#utility.yul\":3956:3965   */\n      dup3\n        /* \"#utility.yul\":3947:3954   */\n      dup5\n        /* \"#utility.yul\":3943:3966   */\n      sub\n        /* \"#utility.yul\":3939:3971   */\n      slt\n        /* \"#utility.yul\":3936:4055   */\n      iszero\n      tag_162\n      jumpi\n        /* \"#utility.yul\":3974:4053   */\n      tag_163\n      tag_62\n      jump\t// in\n    tag_163:\n        /* \"#utility.yul\":3936:4055   */\n    tag_162:\n        /* \"#utility.yul\":4094:4095   */\n      0x00\n        /* \"#utility.yul\":4119:4172   */\n      tag_164\n        /* \"#utility.yul\":4164:4171   */\n      dup5\n        /* \"#utility.yul\":4155:4161   */\n      dup3\n        /* \"#utility.yul\":4144:4153   */\n      dup6\n        /* \"#utility.yul\":4140:4162   */\n      add\n        /* \"#utility.yul\":4119:4172   */\n      tag_76\n      jump\t// in\n    tag_164:\n        /* \"#utility.yul\":4109:4172   */\n      swap2\n      pop\n        /* \"#utility.yul\":4065:4182   */\n      pop\n        /* \"#utility.yul\":3860:4189   */\n      swap3\n      swap2\n      pop\n      pop\n      jump\t// out\n        /* \"#utility.yul\":4195:4321   */\n    tag_77:\n        /* \"#utility.yul\":4232:4239   */\n      0x00\n        /* \"#utility.yul\":4272:4314   */\n      0xffffffffffffffffffffffffffffffffffffffff\n        /* \"#utility.yul\":4265:4270   */\n      dup3\n        /* \"#utility.yul\":4261:4315   */\n      and\n        /* \"#utility.yul\":4250:4315   */\n      swap1\n      pop\n        /* \"#utility.yul\":4195:4321   */\n      swap2\n      swap1\n      pop\n      jump\t// out\n        /* \"#utility.yul\":4327:4423   */\n    tag_78:\n        /* \"#utility.yul\":4364:4371   */\n      0x00\n        /* \"#utility.yul\":4393:4417   */\n      tag_167\n        /* \"#utility.yul\":4411:4416   */\n      dup3\n        /* \"#utility.yul\":4393:4417   */\n      tag_77\n      jump\t// in\n    tag_167:\n        /* \"#utility.yul\":4382:4417   */\n      swap1\n      pop\n        /* \"#utility.yul\":4327:4423   */\n      swap2\n      swap1\n      pop\n      jump\t// out\n        /* \"#utility.yul\":4429:4547   */\n    tag_79:\n        /* \"#utility.yul\":4516:4540   */\n      tag_169\n        /* \"#utility.yul\":4534:4539   */\n      dup2\n        /* \"#utility.yul\":4516:4540   */\n      tag_78\n      jump\t// in\n    tag_169:\n        /* \"#utility.yul\":4511:4514   */\n      dup3\n        /* \"#utility.yul\":4504:4541   */\n      mstore\n        /* \"#utility.yul\":4429:4547   */\n      pop\n      pop\n      jump\t// out\n        /* \"#utility.yul\":4553:4652   */\n    tag_80:\n        /* \"#utility.yul\":4605:4611   */\n      0x00\n        /* \"#utility.yul\":4639:4644   */\n      dup2\n        /* \"#utility.yul\":4633:4645   */\n      mload\n        /* \"#utility.yul\":4623:4645   */\n      swap1\n      pop\n        /* \"#utility.yul\":4553:4652   */\n      swap2\n      swap1\n      pop\n      jump\t// out\n        /* \"#utility.yul\":4658:4827   */\n    tag_81:\n        /* \"#utility.yul\":4742:4753   */\n      0x00\n        /* \"#utility.yul\":4776:4782   */\n      dup3\n        /* \"#utility.yul\":4771:4774   */\n      dup3\n        /* \"#utility.yul\":4764:4783   */\n      mstore\n        /* \"#utility.yul\":4816:4820   */\n      0x20\n        /* \"#utility.yul\":4811:4814   */\n      dup3\n        /* \"#utility.yul\":4807:4821   */\n      add\n        /* \"#utility.yul\":4792:4821   */\n      swap1\n      pop\n        /* \"#utility.yul\":4658:4827   */\n      swap3\n      swap2\n      pop\n      pop\n      jump\t// out\n        /* \"#utility.yul\":4833:5079   */\n    tag_82:\n        /* \"#utility.yul\":4914:4915   */\n      0x00\n        /* \"#utility.yul\":4924:5037   */\n    tag_173:\n        /* \"#utility.yul\":4938:4944   */\n      dup4\n        /* \"#utility.yul\":4935:4936   */\n      dup2\n        /* \"#utility.yul\":4932:4945   */\n      lt\n        /* \"#utility.yul\":4924:5037   */\n      iszero\n      tag_175\n      jumpi\n        /* \"#utility.yul\":5023:5024   */\n      dup1\n        /* \"#utility.yul\":5018:5021   */\n      dup3\n        /* \"#utility.yul\":5014:5025   */\n      add\n        /* \"#utility.yul\":5008:5026   */\n      mload\n        /* \"#utility.yul\":5004:5005   */\n      dup2\n        /* \"#utility.yul\":4999:5002   */\n      dup5\n        /* \"#utility.yul\":4995:5006   */\n      add\n        /* \"#utility.yul\":4988:5027   */\n      mstore\n        /* \"#utility.yul\":4960:4962   */\n      0x20\n        /* \"#utility.yul\":4957:4958   */\n      dup2\n        /* \"#utility.yul\":4953:4963   */\n      add\n        /* \"#utility.yul\":4948:4963   */\n      swap1\n      pop\n        /* \"#utility.yul\":4924:5037   */\n      jump(tag_173)\n    tag_175:\n        /* \"#utility.yul\":5071:5072   */\n      0x00\n        /* \"#utility.yul\":5062:5068   */\n      dup5\n        /* \"#utility.yul\":5057:5060   */\n      dup5\n        /* \"#utility.yul\":5053:5069   */\n      add\n        /* \"#utility.yul\":5046:5073   */\n      mstore\n        /* \"#utility.yul\":4895:5079   */\n      pop\n        /* \"#utility.yul\":4833:5079   */\n      pop\n      pop\n      pop\n      jump\t// out\n        /* \"#utility.yul\":5085:5462   */\n    tag_83:\n        /* \"#utility.yul\":5173:5176   */\n      0x00\n        /* \"#utility.yul\":5201:5240   */\n      tag_177\n        /* \"#utility.yul\":5234:5239   */\n      dup3\n        /* \"#utility.yul\":5201:5240   */\n      tag_80\n      jump\t// in\n    tag_177:\n        /* \"#utility.yul\":5256:5327   */\n      tag_178\n        /* \"#utility.yul\":5320:5326   */\n      dup2\n        /* \"#utility.yul\":5315:5318   */\n      dup6\n        /* \"#utility.yul\":5256:5327   */\n      tag_81\n      jump\t// in\n    tag_178:\n        /* \"#utility.yul\":5249:5327   */\n      swap4\n      pop\n        /* \"#utility.yul\":5336:5401   */\n      tag_179\n        /* \"#utility.yul\":5394:5400   */\n      dup2\n        /* \"#utility.yul\":5389:5392   */\n      dup6\n        /* \"#utility.yul\":5382:5386   */\n      0x20\n        /* \"#utility.yul\":5375:5380   */\n      dup7\n        /* \"#utility.yul\":5371:5387   */\n      add\n        /* \"#utility.yul\":5336:5401   */\n      tag_82\n      jump\t// in\n    tag_179:\n        /* \"#utility.yul\":5426:5455   */\n      tag_180\n        /* \"#utility.yul\":5448:5454   */\n      dup2\n        /* \"#utility.yul\":5426:5455   */\n      tag_66\n      jump\t// in\n    tag_180:\n        /* \"#utility.yul\":5421:5424   */\n      dup5\n        /* \"#utility.yul\":5417:5456   */\n      add\n        /* \"#utility.yul\":5410:5456   */\n      swap2\n      pop\n        /* \"#utility.yul\":5177:5462   */\n      pop\n        /* \"#utility.yul\":5085:5462   */\n      swap3\n      swap2\n      pop\n      pop\n      jump\t// out\n        /* \"#utility.yul\":5468:5586   */\n    tag_84:\n        /* \"#utility.yul\":5555:5579   */\n      tag_182\n        /* \"#utility.yul\":5573:5578   */\n      dup2\n        /* \"#utility.yul\":5555:5579   */\n      tag_74\n      jump\t// in\n    tag_182:\n        /* \"#utility.yul\":5550:5553   */\n      dup3\n        /* \"#utility.yul\":5543:5580   */\n      mstore\n        /* \"#utility.yul\":5468:5586   */\n      pop\n      pop\n      jump\t// out\n        /* \"#utility.yul\":5592:6458   */\n    tag_17:\n        /* \"#utility.yul\":5845:5849   */\n      0x00\n        /* \"#utility.yul\":5883:5886   */\n      0xc0\n        /* \"#utility.yul\":5872:5881   */\n      dup3\n        /* \"#utility.yul\":5868:5887   */\n      add\n        /* \"#utility.yul\":5860:5887   */\n      swap1\n      pop\n        /* \"#utility.yul\":5897:5968   */\n      tag_184\n        /* \"#utility.yul\":5965:5966   */\n      0x00\n        /* \"#utility.yul\":5954:5963   */\n      dup4\n        /* \"#utility.yul\":5950:5967   */\n      add\n        /* \"#utility.yul\":5941:5947   */\n      dup10\n        /* \"#utility.yul\":5897:5968   */\n      tag_79\n      jump\t// in\n    tag_184:\n        /* \"#utility.yul\":6015:6024   */\n      dup2\n        /* \"#utility.yul\":6009:6013   */\n      dup2\n        /* \"#utility.yul\":6005:6025   */\n      sub\n        /* \"#utility.yul\":6000:6002   */\n      0x20\n        /* \"#utility.yul\":5989:5998   */\n      dup4\n        /* \"#utility.yul\":5985:6003   */\n      add\n        /* \"#utility.yul\":5978:6026   */\n      mstore\n        /* \"#utility.yul\":6043:6121   */\n      tag_185\n        /* \"#utility.yul\":6116:6120   */\n      dup2\n        /* \"#utility.yul\":6107:6113   */\n      dup9\n        /* \"#utility.yul\":6043:6121   */\n      tag_83\n      jump\t// in\n    tag_185:\n        /* \"#utility.yul\":6035:6121   */\n      swap1\n      pop\n        /* \"#utility.yul\":6131:6203   */\n      tag_186\n        /* \"#utility.yul\":6199:6201   */\n      0x40\n        /* \"#utility.yul\":6188:6197   */\n      dup4\n        /* \"#utility.yul\":6184:6202   */\n      add\n        /* \"#utility.yul\":6175:6181   */\n      dup8\n        /* \"#utility.yul\":6131:6203   */\n      tag_84\n      jump\t// in\n    tag_186:\n        /* \"#utility.yul\":6213:6285   */\n      tag_187\n        /* \"#utility.yul\":6281:6283   */\n      0x60\n        /* \"#utility.yul\":6270:6279   */\n      dup4\n        /* \"#utility.yul\":6266:6284   */\n      add\n        /* \"#utility.yul\":6257:6263   */\n      dup7\n        /* \"#utility.yul\":6213:6285   */\n      tag_84\n      jump\t// in\n    tag_187:\n        /* \"#utility.yul\":6295:6368   */\n      tag_188\n        /* \"#utility.yul\":6363:6366   */\n      0x80\n        /* \"#utility.yul\":6352:6361   */\n      dup4\n        /* \"#utility.yul\":6348:6367   */\n      add\n        /* \"#utility.yul\":6339:6345   */\n      dup6\n        /* \"#utility.yul\":6295:6368   */\n      tag_84\n      jump\t// in\n    tag_188:\n        /* \"#utility.yul\":6378:6451   */\n      tag_189\n        /* \"#utility.yul\":6446:6449   */\n      0xa0\n        /* \"#utility.yul\":6435:6444   */\n      dup4\n        /* \"#utility.yul\":6431:6450   */\n      add\n        /* \"#utility.yul\":6422:6428   */\n      dup5\n        /* \"#utility.yul\":6378:6451   */\n      tag_84\n      jump\t// in\n    tag_189:\n        /* \"#utility.yul\":5592:6458   */\n      swap8\n      swap7\n      pop\n      pop\n      pop\n      pop\n      pop\n      pop\n      pop\n      jump\t// out\n        /* \"#utility.yul\":6464:6938   */\n    tag_20:\n        /* \"#utility.yul\":6532:6538   */\n      0x00\n        /* \"#utility.yul\":6540:6546   */\n      dup1\n        /* \"#utility.yul\":6589:6591   */\n      0x40\n        /* \"#utility.yul\":6577:6586   */\n      dup4\n        /* \"#utility.yul\":6568:6575   */\n      dup6\n        /* \"#utility.yul\":6564:6587   */\n      sub\n        /* \"#utility.yul\":6560:6592   */\n      slt\n        /* \"#utility.yul\":6557:6676   */\n      iszero\n      tag_191\n      jumpi\n        /* \"#utility.yul\":6595:6674   */\n      tag_192\n      tag_62\n      jump\t// in\n    tag_192:\n        /* \"#utility.yul\":6557:6676   */\n    tag_191:\n        /* \"#utility.yul\":6715:6716   */\n      0x00\n        /* \"#utility.yul\":6740:6793   */\n      tag_193\n        /* \"#utility.yul\":6785:6792   */\n      dup6\n        /* \"#utility.yul\":6776:6782   */\n      dup3\n        /* \"#utility.yul\":6765:6774   */\n      dup7\n        /* \"#utility.yul\":6761:6783   */\n      add\n        /* \"#utility.yul\":6740:6793   */\n      tag_76\n      jump\t// in\n    tag_193:\n        /* \"#utility.yul\":6730:6793   */\n      swap3\n      pop\n        /* \"#utility.yul\":6686:6803   */\n      pop\n        /* \"#utility.yul\":6842:6844   */\n      0x20\n        /* \"#utility.yul\":6868:6921   */\n      tag_194\n        /* \"#utility.yul\":6913:6920   */\n      dup6\n        /* \"#utility.yul\":6904:6910   */\n      dup3\n        /* \"#utility.yul\":6893:6902   */\n      dup7\n        /* \"#utility.yul\":6889:6911   */\n      add\n        /* \"#utility.yul\":6868:6921   */\n      tag_76\n      jump\t// in\n    tag_194:\n        /* \"#utility.yul\":6858:6921   */\n      swap2\n      pop\n        /* \"#utility.yul\":6813:6931   */\n      pop\n        /* \"#utility.yul\":6464:6938   */\n      swap3\n      pop\n      swap3\n      swap1\n      pop\n      jump\t// out\n        /* \"#utility.yul\":6944:7066   */\n    tag_85:\n        /* \"#utility.yul\":7017:7041   */\n      tag_196\n        /* \"#utility.yul\":7035:7040   */\n      dup2\n        /* \"#utility.yul\":7017:7041   */\n      tag_78\n      jump\t// in\n    tag_196:\n        /* \"#utility.yul\":7010:7015   */\n      dup2\n        /* \"#utility.yul\":7007:7042   */\n      eq\n        /* \"#utility.yul\":6997:7060   */\n      tag_197\n      jumpi\n        /* \"#utility.yul\":7056:7057   */\n      0x00\n        /* \"#utility.yul\":7053:7054   */\n      dup1\n        /* \"#utility.yul\":7046:7058   */\n      revert\n        /* \"#utility.yul\":6997:7060   */\n    tag_197:\n        /* \"#utility.yul\":6944:7066   */\n      pop\n      jump\t// out\n        /* \"#utility.yul\":7072:7211   */\n    tag_86:\n        /* \"#utility.yul\":7118:7123   */\n      0x00\n        /* \"#utility.yul\":7156:7162   */\n      dup2\n        /* \"#utility.yul\":7143:7163   */\n      calldataload\n        /* \"#utility.yul\":7134:7163   */\n      swap1\n      pop\n        /* \"#utility.yul\":7172:7205   */\n      tag_199\n        /* \"#utility.yul\":7199:7204   */\n      dup2\n        /* \"#utility.yul\":7172:7205   */\n      tag_85\n      jump\t// in\n    tag_199:\n        /* \"#utility.yul\":7072:7211   */\n      swap3\n      swap2\n      pop\n      pop\n      jump\t// out\n        /* \"#utility.yul\":7217:7691   */\n    tag_25:\n        /* \"#utility.yul\":7285:7291   */\n      0x00\n        /* \"#utility.yul\":7293:7299   */\n      dup1\n        /* \"#utility.yul\":7342:7344   */\n      0x40\n        /* \"#utility.yul\":7330:7339   */\n      dup4\n        /* \"#utility.yul\":7321:7328   */\n      dup6\n        /* \"#utility.yul\":7317:7340   */\n      sub\n        /* \"#utility.yul\":7313:7345   */\n      slt\n        /* \"#utility.yul\":7310:7429   */\n      iszero\n      tag_201\n      jumpi\n        /* \"#utility.yul\":7348:7427   */\n      tag_202\n      tag_62\n      jump\t// in\n    tag_202:\n        /* \"#utility.yul\":7310:7429   */\n    tag_201:\n        /* \"#utility.yul\":7468:7469   */\n      0x00\n        /* \"#utility.yul\":7493:7546   */\n      tag_203\n        /* \"#utility.yul\":7538:7545   */\n      dup6\n        /* \"#utility.yul\":7529:7535   */\n      dup3\n        /* \"#utility.yul\":7518:7527   */\n      dup7\n        /* \"#utility.yul\":7514:7536   */\n      add\n        /* \"#utility.yul\":7493:7546   */\n      tag_86\n      jump\t// in\n    tag_203:\n        /* \"#utility.yul\":7483:7546   */\n      swap3\n      pop\n        /* \"#utility.yul\":7439:7556   */\n      pop\n        /* \"#utility.yul\":7595:7597   */\n      0x20\n        /* \"#utility.yul\":7621:7674   */\n      tag_204\n        /* \"#utility.yul\":7666:7673   */\n      dup6\n        /* \"#utility.yul\":7657:7663   */\n      dup3\n        /* \"#utility.yul\":7646:7655   */\n      dup7\n        /* \"#utility.yul\":7642:7664   */\n      add\n        /* \"#utility.yul\":7621:7674   */\n      tag_76\n      jump\t// in\n    tag_204:\n        /* \"#utility.yul\":7611:7674   */\n      swap2\n      pop\n        /* \"#utility.yul\":7566:7684   */\n      pop\n        /* \"#utility.yul\":7217:7691   */\n      swap3\n      pop\n      swap3\n      swap1\n      pop\n      jump\t// out\n        /* \"#utility.yul\":7697:7919   */\n    tag_28:\n        /* \"#utility.yul\":7790:7794   */\n      0x00\n        /* \"#utility.yul\":7828:7830   */\n      0x20\n        /* \"#utility.yul\":7817:7826   */\n      dup3\n        /* \"#utility.yul\":7813:7831   */\n      add\n        /* \"#utility.yul\":7805:7831   */\n      swap1\n      pop\n        /* \"#utility.yul\":7841:7912   */\n      tag_206\n        /* \"#utility.yul\":7909:7910   */\n      0x00\n        /* \"#utility.yul\":7898:7907   */\n      dup4\n        /* \"#utility.yul\":7894:7911   */\n      add\n        /* \"#utility.yul\":7885:7891   */\n      dup5\n        /* \"#utility.yul\":7841:7912   */\n      tag_84\n      jump\t// in\n    tag_206:\n        /* \"#utility.yul\":7697:7919   */\n      swap3\n      swap2\n      pop\n      pop\n      jump\t// out\n        /* \"#utility.yul\":7925:8093   */\n    tag_87:\n        /* \"#utility.yul\":8065:8085   */\n      0x546865204576656e7420686173206f7665720000000000000000000000000000\n        /* \"#utility.yul\":8061:8062   */\n      0x00\n        /* \"#utility.yul\":8053:8059   */\n      dup3\n        /* \"#utility.yul\":8049:8063   */\n      add\n        /* \"#utility.yul\":8042:8086   */\n      mstore\n        /* \"#utility.yul\":7925:8093   */\n      pop\n      jump\t// out\n        /* \"#utility.yul\":8099:8465   */\n    tag_88:\n        /* \"#utility.yul\":8241:8244   */\n      0x00\n        /* \"#utility.yul\":8262:8329   */\n      tag_209\n        /* \"#utility.yul\":8326:8328   */\n      0x12\n        /* \"#utility.yul\":8321:8324   */\n      dup4\n        /* \"#utility.yul\":8262:8329   */\n      tag_81\n      jump\t// in\n    tag_209:\n        /* \"#utility.yul\":8255:8329   */\n      swap2\n      pop\n        /* \"#utility.yul\":8338:8431   */\n      tag_210\n        /* \"#utility.yul\":8427:8430   */\n      dup3\n        /* \"#utility.yul\":8338:8431   */\n      tag_87\n      jump\t// in\n    tag_210:\n        /* \"#utility.yul\":8456:8458   */\n      0x20\n        /* \"#utility.yul\":8451:8454   */\n      dup3\n        /* \"#utility.yul\":8447:8459   */\n      add\n        /* \"#utility.yul\":8440:8459   */\n      swap1\n      pop\n        /* \"#utility.yul\":8099:8465   */\n      swap2\n      swap1\n      pop\n      jump\t// out\n        /* \"#utility.yul\":8471:8890   */\n    tag_32:\n        /* \"#utility.yul\":8637:8641   */\n      0x00\n        /* \"#utility.yul\":8675:8677   */\n      0x20\n        /* \"#utility.yul\":8664:8673   */\n      dup3\n        /* \"#utility.yul\":8660:8678   */\n      add\n        /* \"#utility.yul\":8652:8678   */\n      swap1\n      pop\n        /* \"#utility.yul\":8724:8733   */\n      dup2\n        /* \"#utility.yul\":8718:8722   */\n      dup2\n        /* \"#utility.yul\":8714:8734   */\n      sub\n        /* \"#utility.yul\":8710:8711   */\n      0x00\n        /* \"#utility.yul\":8699:8708   */\n      dup4\n        /* \"#utility.yul\":8695:8712   */\n      add\n        /* \"#utility.yul\":8688:8735   */\n      mstore\n        /* \"#utility.yul\":8752:8883   */\n      tag_212\n        /* \"#utility.yul\":8878:8882   */\n      dup2\n        /* \"#utility.yul\":8752:8883   */\n      tag_88\n      jump\t// in\n    tag_212:\n        /* \"#utility.yul\":8744:8883   */\n      swap1\n      pop\n        /* \"#utility.yul\":8471:8890   */\n      swap2\n      swap1\n      pop\n      jump\t// out\n        /* \"#utility.yul\":8896:9068   */\n    tag_89:\n        /* \"#utility.yul\":9036:9060   */\n      0x796f752063616e2052756e20746865204576656e747300000000000000000000\n        /* \"#utility.yul\":9032:9033   */\n      0x00\n        /* \"#utility.yul\":9024:9030   */\n      dup3\n        /* \"#utility.yul\":9020:9034   */\n      add\n        /* \"#utility.yul\":9013:9061   */\n      mstore\n        /* \"#utility.yul\":8896:9068   */\n      pop\n      jump\t// out\n        /* \"#utility.yul\":9074:9440   */\n    tag_90:\n        /* \"#utility.yul\":9216:9219   */\n      0x00\n        /* \"#utility.yul\":9237:9304   */\n      tag_215\n        /* \"#utility.yul\":9301:9303   */\n      0x16\n        /* \"#utility.yul\":9296:9299   */\n      dup4\n        /* \"#utility.yul\":9237:9304   */\n      tag_81\n      jump\t// in\n    tag_215:\n        /* \"#utility.yul\":9230:9304   */\n      swap2\n      pop\n        /* \"#utility.yul\":9313:9406   */\n      tag_216\n        /* \"#utility.yul\":9402:9405   */\n      dup3\n        /* \"#utility.yul\":9313:9406   */\n      tag_89\n      jump\t// in\n    tag_216:\n        /* \"#utility.yul\":9431:9433   */\n      0x20\n        /* \"#utility.yul\":9426:9429   */\n      dup3\n        /* \"#utility.yul\":9422:9434   */\n      add\n        /* \"#utility.yul\":9415:9434   */\n      swap1\n      pop\n        /* \"#utility.yul\":9074:9440   */\n      swap2\n      swap1\n      pop\n      jump\t// out\n        /* \"#utility.yul\":9446:9865   */\n    tag_35:\n        /* \"#utility.yul\":9612:9616   */\n      0x00\n        /* \"#utility.yul\":9650:9652   */\n      0x20\n        /* \"#utility.yul\":9639:9648   */\n      dup3\n        /* \"#utility.yul\":9635:9653   */\n      add\n        /* \"#utility.yul\":9627:9653   */\n      swap1\n      pop\n        /* \"#utility.yul\":9699:9708   */\n      dup2\n        /* \"#utility.yul\":9693:9697   */\n      dup2\n        /* \"#utility.yul\":9689:9709   */\n      sub\n        /* \"#utility.yul\":9685:9686   */\n      0x00\n        /* \"#utility.yul\":9674:9683   */\n      dup4\n        /* \"#utility.yul\":9670:9687   */\n      add\n        /* \"#utility.yul\":9663:9710   */\n      mstore\n        /* \"#utility.yul\":9727:9858   */\n      tag_218\n        /* \"#utility.yul\":9853:9857   */\n      dup2\n        /* \"#utility.yul\":9727:9858   */\n      tag_90\n      jump\t// in\n    tag_218:\n        /* \"#utility.yul\":9719:9858   */\n      swap1\n      pop\n        /* \"#utility.yul\":9446:9865   */\n      swap2\n      swap1\n      pop\n      jump\t// out\n        /* \"#utility.yul\":9871:10051   */\n    tag_91:\n        /* \"#utility.yul\":9919:9996   */\n      0x4e487b7100000000000000000000000000000000000000000000000000000000\n        /* \"#utility.yul\":9916:9917   */\n      0x00\n        /* \"#utility.yul\":9909:9997   */\n      mstore\n        /* \"#utility.yul\":10016:10020   */\n      0x22\n        /* \"#utility.yul\":10013:10014   */\n      0x04\n        /* \"#utility.yul\":10006:10021   */\n      mstore\n        /* \"#utility.yul\":10040:10044   */\n      0x24\n        /* \"#utility.yul\":10037:10038   */\n      0x00\n        /* \"#utility.yul\":10030:10045   */\n      revert\n        /* \"#utility.yul\":10057:10377   */\n    tag_41:\n        /* \"#utility.yul\":10101:10107   */\n      0x00\n        /* \"#utility.yul\":10138:10139   */\n      0x02\n        /* \"#utility.yul\":10132:10136   */\n      dup3\n        /* \"#utility.yul\":10128:10140   */\n      div\n        /* \"#utility.yul\":10118:10140   */\n      swap1\n      pop\n        /* \"#utility.yul\":10185:10186   */\n      0x01\n        /* \"#utility.yul\":10179:10183   */\n      dup3\n        /* \"#utility.yul\":10175:10187   */\n      and\n        /* \"#utility.yul\":10206:10224   */\n      dup1\n        /* \"#utility.yul\":10196:10277   */\n      tag_221\n      jumpi\n        /* \"#utility.yul\":10262:10266   */\n      0x7f\n        /* \"#utility.yul\":10254:10260   */\n      dup3\n        /* \"#utility.yul\":10250:10267   */\n      and\n        /* \"#utility.yul\":10240:10267   */\n      swap2\n      pop\n        /* \"#utility.yul\":10196:10277   */\n    tag_221:\n        /* \"#utility.yul\":10324:10326   */\n      0x20\n        /* \"#utility.yul\":10316:10322   */\n      dup3\n        /* \"#utility.yul\":10313:10327   */\n      lt\n        /* \"#utility.yul\":10293:10311   */\n      dup2\n        /* \"#utility.yul\":10290:10328   */\n      sub\n        /* \"#utility.yul\":10287:10371   */\n      tag_222\n      jumpi\n        /* \"#utility.yul\":10343:10361   */\n      tag_223\n      tag_91\n      jump\t// in\n    tag_223:\n        /* \"#utility.yul\":10287:10371   */\n    tag_222:\n        /* \"#utility.yul\":10108:10377   */\n      pop\n        /* \"#utility.yul\":10057:10377   */\n      swap2\n      swap1\n      pop\n      jump\t// out\n        /* \"#utility.yul\":10383:10524   */\n    tag_92:\n        /* \"#utility.yul\":10432:10436   */\n      0x00\n        /* \"#utility.yul\":10455:10458   */\n      dup2\n        /* \"#utility.yul\":10447:10458   */\n      swap1\n      pop\n        /* \"#utility.yul\":10478:10481   */\n      dup2\n        /* \"#utility.yul\":10475:10476   */\n      0x00\n        /* \"#utility.yul\":10468:10482   */\n      mstore\n        /* \"#utility.yul\":10512:10516   */\n      0x20\n        /* \"#utility.yul\":10509:10510   */\n      0x00\n        /* \"#utility.yul\":10499:10517   */\n      keccak256\n        /* \"#utility.yul\":10491:10517   */\n      swap1\n      pop\n        /* \"#utility.yul\":10383:10524   */\n      swap2\n      swap1\n      pop\n      jump\t// out\n        /* \"#utility.yul\":10530:10623   */\n    tag_93:\n        /* \"#utility.yul\":10567:10573   */\n      0x00\n        /* \"#utility.yul\":10614:10616   */\n      0x20\n        /* \"#utility.yul\":10609:10611   */\n      0x1f\n        /* \"#utility.yul\":10602:10607   */\n      dup4\n        /* \"#utility.yul\":10598:10612   */\n      add\n        /* \"#utility.yul\":10594:10617   */\n      div\n        /* \"#utility.yul\":10584:10617   */\n      swap1\n      pop\n        /* \"#utility.yul\":10530:10623   */\n      swap2\n      swap1\n      pop\n      jump\t// out\n        /* \"#utility.yul\":10629:10736   */\n    tag_94:\n        /* \"#utility.yul\":10673:10681   */\n      0x00\n        /* \"#utility.yul\":10723:10728   */\n      dup3\n        /* \"#utility.yul\":10717:10721   */\n      dup3\n        /* \"#utility.yul\":10713:10729   */\n      shl\n        /* \"#utility.yul\":10692:10729   */\n      swap1\n      pop\n        /* \"#utility.yul\":10629:10736   */\n      swap3\n      swap2\n      pop\n      pop\n      jump\t// out\n        /* \"#utility.yul\":10742:11135   */\n    tag_95:\n        /* \"#utility.yul\":10811:10817   */\n      0x00\n        /* \"#utility.yul\":10861:10862   */\n      0x08\n        /* \"#utility.yul\":10849:10859   */\n      dup4\n        /* \"#utility.yul\":10845:10863   */\n      mul\n        /* \"#utility.yul\":10884:10981   */\n      tag_228\n        /* \"#utility.yul\":10914:10980   */\n      0xffffffffffffffffffffffffffffffffffffffffffffffffffffffffffffffff\n        /* \"#utility.yul\":10903:10912   */\n      dup3\n        /* \"#utility.yul\":10884:10981   */\n      tag_94\n      jump\t// in\n    tag_228:\n        /* \"#utility.yul\":11002:11041   */\n      tag_229\n        /* \"#utility.yul\":11032:11040   */\n      dup7\n        /* \"#utility.yul\":11021:11030   */\n      dup4\n        /* \"#utility.yul\":11002:11041   */\n      tag_94\n      jump\t// in\n    tag_229:\n        /* \"#utility.yul\":10990:11041   */\n      swap6\n      pop\n        /* \"#utility.yul\":11074:11078   */\n      dup1\n        /* \"#utility.yul\":11070:11079   */\n      not\n        /* \"#utility.yul\":11063:11068   */\n      dup5\n        /* \"#utility.yul\":11059:11080   */\n      and\n        /* \"#utility.yul\":11050:11080   */\n      swap4\n      pop\n        /* \"#utility.yul\":11123:11127   */\n      dup1\n        /* \"#utility.yul\":11113:11121   */\n      dup7\n        /* \"#utility.yul\":11109:11128   */\n      and\n        /* \"#utility.yul\":11102:11107   */\n      dup5\n        /* \"#utility.yul\":11099:11129   */\n      or\n        /* \"#utility.yul\":11089:11129   */\n      swap3\n      pop\n        /* \"#utility.yul\":10818:11135   */\n      pop\n      pop\n        /* \"#utility.yul\":10742:11135   */\n      swap4\n      swap3\n      pop\n      pop\n      pop\n      jump\t// out\n        /* \"#utility.yul\":11141:11201   */\n    tag_96:\n        /* \"#utility.yul\":11169:11172   */\n      0x00\n        /* \"#utility.yul\":11190:11195   */\n      dup2\n        /* \"#utility.yul\":11183:11195   */\n      swap1\n      pop\n        /* \"#utility.yul\":11141:11201   */\n      swap2\n      swap1\n      pop\n      jump\t// out\n        /* \"#utility.yul\":11207:11349   */\n    tag_97:\n        /* \"#utility.yul\":11257:11266   */\n      0x00\n        /* \"#utility.yul\":11290:11343   */\n      tag_232\n        /* \"#utility.yul\":11308:11342   */\n      tag_233\n        /* \"#utility.yul\":11317:11341   */\n      tag_234\n        /* \"#utility.yul\":11335:11340   */\n      dup5\n        /* \"#utility.yul\":11317:11341   */\n      tag_74\n      jump\t// in\n    tag_234:\n        /* \"#utility.yul\":11308:11342   */\n      tag_96\n      jump\t// in\n    tag_233:\n        /* \"#utility.yul\":11290:11343   */\n      tag_74\n      jump\t// in\n    tag_232:\n        /* \"#utility.yul\":11277:11343   */\n      swap1\n      pop\n        /* \"#utility.yul\":11207:11349   */\n      swap2\n      swap1\n      pop\n      jump\t// out\n        /* \"#utility.yul\":11355:11430   */\n    tag_98:\n        /* \"#utility.yul\":11398:11401   */\n      0x00\n        /* \"#utility.yul\":11419:11424   */\n      dup2\n        /* \"#utility.yul\":11412:11424   */\n      swap1\n      pop\n        /* \"#utility.yul\":11355:11430   */\n      swap2\n      swap1\n      pop\n      jump\t// out\n        /* \"#utility.yul\":11436:11705   */\n    tag_99:\n        /* \"#utility.yul\":11546:11585   */\n      tag_237\n        /* \"#utility.yul\":11577:11584   */\n      dup4\n        /* \"#utility.yul\":11546:11585   */\n      tag_97\n      jump\t// in\n    tag_237:\n        /* \"#utility.yul\":11607:11698   */\n      tag_238\n        /* \"#utility.yul\":11656:11697   */\n      tag_239\n        /* \"#utility.yul\":11680:11696   */\n      dup3\n        /* \"#utility.yul\":11656:11697   */\n      tag_98\n      jump\t// in\n    tag_239:\n        /* \"#utility.yul\":11648:11654   */\n      dup5\n        /* \"#utility.yul\":11641:11645   */\n      dup5\n        /* \"#utility.yul\":11635:11646   */\n      sload\n        /* \"#utility.yul\":11607:11698   */\n      tag_95\n      jump\t// in\n    tag_238:\n        /* \"#utility.yul\":11601:11605   */\n      dup3\n        /* \"#utility.yul\":11594:11699   */\n      sstore\n        /* \"#utility.yul\":11512:11705   */\n      pop\n        /* \"#utility.yul\":11436:11705   */\n      pop\n      pop\n      pop\n      jump\t// out\n        /* \"#utility.yul\":11711:11784   */\n    tag_100:\n        /* \"#utility.yul\":11756:11759   */\n      0x00\n        /* \"#utility.yul\":11711:11784   */\n      swap1\n      jump\t// out\n        /* \"#utility.yul\":11790:11979   */\n    tag_101:\n        /* \"#utility.yul\":11867:11899   */\n      tag_242\n      tag_100\n      jump\t// in\n    tag_242:\n        /* \"#utility.yul\":11908:11973   */\n      tag_243\n        /* \"#utility.yul\":11966:11972   */\n      dup2\n        /* \"#utility.yul\":11958:11964   */\n      dup5\n        /* \"#utility.yul\":11952:11956   */\n      dup5\n        /* \"#utility.yul\":11908:11973   */\n      tag_99\n      jump\t// in\n    tag_243:\n        /* \"#utility.yul\":11843:11979   */\n      pop\n        /* \"#utility.yul\":11790:11979   */\n      pop\n      pop\n      jump\t// out\n        /* \"#utility.yul\":11985:12171   */\n    tag_102:\n        /* \"#utility.yul\":12045:12165   */\n    tag_245:\n        /* \"#utility.yul\":12062:12065   */\n      dup2\n        /* \"#utility.yul\":12055:12060   */\n      dup2\n        /* \"#utility.yul\":12052:12066   */\n      lt\n        /* \"#utility.yul\":12045:12165   */\n      iszero\n      tag_247\n      jumpi\n        /* \"#utility.yul\":12116:12155   */\n      tag_248\n        /* \"#utility.yul\":12153:12154   */\n      0x00\n        /* \"#utility.yul\":12146:12151   */\n      dup3\n        /* \"#utility.yul\":12116:12155   */\n      tag_101\n      jump\t// in\n    tag_248:\n        /* \"#utility.yul\":12089:12090   */\n      0x01\n        /* \"#utility.yul\":12082:12087   */\n      dup2\n        /* \"#utility.yul\":12078:12091   */\n      add\n        /* \"#utility.yul\":12069:12091   */\n      swap1\n      pop\n        /* \"#utility.yul\":12045:12165   */\n      jump(tag_245)\n    tag_247:\n        /* \"#utility.yul\":11985:12171   */\n      pop\n      pop\n      jump\t// out\n        /* \"#utility.yul\":12177:12720   */\n    tag_103:\n        /* \"#utility.yul\":12278:12280   */\n      0x1f\n        /* \"#utility.yul\":12273:12276   */\n      dup3\n        /* \"#utility.yul\":12270:12281   */\n      gt\n        /* \"#utility.yul\":12267:12713   */\n      iszero\n      tag_250\n      jumpi\n        /* \"#utility.yul\":12312:12350   */\n      tag_251\n        /* \"#utility.yul\":12344:12349   */\n      dup2\n        /* \"#utility.yul\":12312:12350   */\n      tag_92\n      jump\t// in\n    tag_251:\n        /* \"#utility.yul\":12396:12425   */\n      tag_252\n        /* \"#utility.yul\":12414:12424   */\n      dup5\n        /* \"#utility.yul\":12396:12425   */\n      tag_93\n      jump\t// in\n    tag_252:\n        /* \"#utility.yul\":12386:12394   */\n      dup2\n        /* \"#utility.yul\":12382:12426   */\n      add\n        /* \"#utility.yul\":12579:12581   */\n      0x20\n        /* \"#utility.yul\":12567:12577   */\n      dup6\n        /* \"#utility.yul\":12564:12582   */\n      lt\n        /* \"#utility.yul\":12561:12610   */\n      iszero\n      tag_253\n      jumpi\n        /* \"#utility.yul\":12600:12608   */\n      dup2\n        /* \"#utility.yul\":12585:12608   */\n      swap1\n      pop\n        /* \"#utility.yul\":12561:12610   */\n    tag_253:\n        /* \"#utility.yul\":12623:12703   */\n      tag_254\n        /* \"#utility.yul\":12679:12701   */\n      tag_255\n        /* \"#utility.yul\":12697:12700   */\n      dup6\n        /* \"#utility.yul\":12679:12701   */\n      tag_93\n      jump\t// in\n    tag_255:\n        /* \"#utility.yul\":12669:12677   */\n      dup4\n        /* \"#utility.yul\":12665:12702   */\n      add\n        /* \"#utility.yul\":12652:12663   */\n      dup3\n        /* \"#utility.yul\":12623:12703   */\n      tag_102\n      jump\t// in\n    tag_254:\n        /* \"#utility.yul\":12282:12713   */\n      pop\n      pop\n        /* \"#utility.yul\":12267:12713   */\n    tag_250:\n        /* \"#utility.yul\":12177:12720   */\n      pop\n      pop\n      pop\n      jump\t// out\n        /* \"#utility.yul\":12726:12843   */\n    tag_104:\n        /* \"#utility.yul\":12780:12788   */\n      0x00\n        /* \"#utility.yul\":12830:12835   */\n      dup3\n        /* \"#utility.yul\":12824:12828   */\n      dup3\n        /* \"#utility.yul\":12820:12836   */\n      shr\n        /* \"#utility.yul\":12799:12836   */\n      swap1\n      pop\n        /* \"#utility.yul\":12726:12843   */\n      swap3\n      swap2\n      pop\n      pop\n      jump\t// out\n        /* \"#utility.yul\":12849:13018   */\n    tag_105:\n        /* \"#utility.yul\":12893:12899   */\n      0x00\n        /* \"#utility.yul\":12926:12977   */\n      tag_258\n        /* \"#utility.yul\":12974:12975   */\n      0x00\n        /* \"#utility.yul\":12970:12976   */\n      not\n        /* \"#utility.yul\":12962:12967   */\n      dup5\n        /* \"#utility.yul\":12959:12960   */\n      0x08\n        /* \"#utility.yul\":12955:12968   */\n      mul\n        /* \"#utility.yul\":12926:12977   */\n      tag_104\n      jump\t// in\n    tag_258:\n        /* \"#utility.yul\":12922:12978   */\n      not\n        /* \"#utility.yul\":13007:13011   */\n      dup1\n        /* \"#utility.yul\":13001:13005   */\n      dup4\n        /* \"#utility.yul\":12997:13012   */\n      and\n        /* \"#utility.yul\":12987:13012   */\n      swap2\n      pop\n        /* \"#utility.yul\":12900:13018   */\n      pop\n        /* \"#utility.yul\":12849:13018   */\n      swap3\n      swap2\n      pop\n      pop\n      jump\t// out\n        /* \"#utility.yul\":13023:13318   */\n    tag_106:\n        /* \"#utility.yul\":13099:13103   */\n      0x00\n        /* \"#utility.yul\":13245:13274   */\n      tag_260\n        /* \"#utility.yul\":13270:13273   */\n      dup4\n        /* \"#utility.yul\":13264:13268   */\n      dup4\n        /* \"#utility.yul\":13245:13274   */\n      tag_105\n      jump\t// in\n    tag_260:\n        /* \"#utility.yul\":13237:13274   */\n      swap2\n      pop\n        /* \"#utility.yul\":13307:13310   */\n      dup3\n        /* \"#utility.yul\":13304:13305   */\n      0x02\n        /* \"#utility.yul\":13300:13311   */\n      mul\n        /* \"#utility.yul\":13294:13298   */\n      dup3\n        /* \"#utility.yul\":13291:13312   */\n      or\n        /* \"#utility.yul\":13283:13312   */\n      swap1\n      pop\n        /* \"#utility.yul\":13023:13318   */\n      swap3\n      swap2\n      pop\n      pop\n      jump\t// out\n        /* \"#utility.yul\":13323:14718   */\n    tag_37:\n        /* \"#utility.yul\":13440:13477   */\n      tag_262\n        /* \"#utility.yul\":13473:13476   */\n      dup3\n        /* \"#utility.yul\":13440:13477   */\n      tag_80\n      jump\t// in\n    tag_262:\n        /* \"#utility.yul\":13542:13560   */\n      0xffffffffffffffff\n        /* \"#utility.yul\":13534:13540   */\n      dup2\n        /* \"#utility.yul\":13531:13561   */\n      gt\n        /* \"#utility.yul\":13528:13584   */\n      iszero\n      tag_263\n      jumpi\n        /* \"#utility.yul\":13564:13582   */\n      tag_264\n      tag_67\n      jump\t// in\n    tag_264:\n        /* \"#utility.yul\":13528:13584   */\n    tag_263:\n        /* \"#utility.yul\":13608:13646   */\n      tag_265\n        /* \"#utility.yul\":13640:13644   */\n      dup3\n        /* \"#utility.yul\":13634:13645   */\n      sload\n        /* \"#utility.yul\":13608:13646   */\n      tag_41\n      jump\t// in\n    tag_265:\n        /* \"#utility.yul\":13693:13760   */\n      tag_266\n        /* \"#utility.yul\":13753:13759   */\n      dup3\n        /* \"#utility.yul\":13745:13751   */\n      dup3\n        /* \"#utility.yul\":13739:13743   */\n      dup6\n        /* \"#utility.yul\":13693:13760   */\n      tag_103\n      jump\t// in\n    tag_266:\n        /* \"#utility.yul\":13787:13788   */\n      0x00\n        /* \"#utility.yul\":13811:13815   */\n      0x20\n        /* \"#utility.yul\":13798:13815   */\n      swap1\n      pop\n        /* \"#utility.yul\":13843:13845   */\n      0x1f\n        /* \"#utility.yul\":13835:13841   */\n      dup4\n        /* \"#utility.yul\":13832:13846   */\n      gt\n        /* \"#utility.yul\":13860:13861   */\n      0x01\n        /* \"#utility.yul\":13855:14473   */\n      dup2\n      eq\n      tag_268\n      jumpi\n        /* \"#utility.yul\":14517:14518   */\n      0x00\n        /* \"#utility.yul\":14534:14540   */\n      dup5\n        /* \"#utility.yul\":14531:14608   */\n      iszero\n      tag_269\n      jumpi\n        /* \"#utility.yul\":14583:14592   */\n      dup3\n        /* \"#utility.yul\":14578:14581   */\n      dup8\n        /* \"#utility.yul\":14574:14593   */\n      add\n        /* \"#utility.yul\":14568:14594   */\n      mload\n        /* \"#utility.yul\":14559:14594   */\n      swap1\n      pop\n        /* \"#utility.yul\":14531:14608   */\n    tag_269:\n        /* \"#utility.yul\":14634:14701   */\n      tag_270\n        /* \"#utility.yul\":14694:14700   */\n      dup6\n        /* \"#utility.yul\":14687:14692   */\n      dup3\n        /* \"#utility.yul\":14634:14701   */\n      tag_106\n      jump\t// in\n    tag_270:\n        /* \"#utility.yul\":14628:14632   */\n      dup7\n        /* \"#utility.yul\":14621:14702   */\n      sstore\n        /* \"#utility.yul\":14490:14712   */\n      pop\n        /* \"#utility.yul\":13825:14712   */\n      jump(tag_267)\n        /* \"#utility.yul\":13855:14473   */\n    tag_268:\n        /* \"#utility.yul\":13907:13911   */\n      0x1f\n        /* \"#utility.yul\":13903:13912   */\n      not\n        /* \"#utility.yul\":13895:13901   */\n      dup5\n        /* \"#utility.yul\":13891:13913   */\n      and\n        /* \"#utility.yul\":13941:13978   */\n      tag_271\n        /* \"#utility.yul\":13973:13977   */\n      dup7\n        /* \"#utility.yul\":13941:13978   */\n      tag_92\n      jump\t// in\n    tag_271:\n        /* \"#utility.yul\":14000:14001   */\n      0x00\n        /* \"#utility.yul\":14014:14222   */\n    tag_272:\n        /* \"#utility.yul\":14028:14035   */\n      dup3\n        /* \"#utility.yul\":14025:14026   */\n      dup2\n        /* \"#utility.yul\":14022:14036   */\n      lt\n        /* \"#utility.yul\":14014:14222   */\n      iszero\n      tag_274\n      jumpi\n        /* \"#utility.yul\":14107:14116   */\n      dup5\n        /* \"#utility.yul\":14102:14105   */\n      dup10\n        /* \"#utility.yul\":14098:14117   */\n      add\n        /* \"#utility.yul\":14092:14118   */\n      mload\n        /* \"#utility.yul\":14084:14090   */\n      dup3\n        /* \"#utility.yul\":14077:14119   */\n      sstore\n        /* \"#utility.yul\":14158:14159   */\n      0x01\n        /* \"#utility.yul\":14150:14156   */\n      dup3\n        /* \"#utility.yul\":14146:14160   */\n      add\n        /* \"#utility.yul\":14136:14160   */\n      swap2\n      pop\n        /* \"#utility.yul\":14205:14207   */\n      0x20\n        /* \"#utility.yul\":14194:14203   */\n      dup6\n        /* \"#utility.yul\":14190:14208   */\n      add\n        /* \"#utility.yul\":14177:14208   */\n      swap5\n      pop\n        /* \"#utility.yul\":14051:14055   */\n      0x20\n        /* \"#utility.yul\":14048:14049   */\n      dup2\n        /* \"#utility.yul\":14044:14056   */\n      add\n        /* \"#utility.yul\":14039:14056   */\n      swap1\n      pop\n        /* \"#utility.yul\":14014:14222   */\n      jump(tag_272)\n    tag_274:\n        /* \"#utility.yul\":14250:14256   */\n      dup7\n        /* \"#utility.yul\":14241:14248   */\n      dup4\n        /* \"#utility.yul\":14238:14257   */\n      lt\n        /* \"#utility.yul\":14235:14414   */\n      iszero\n      tag_275\n      jumpi\n        /* \"#utility.yul\":14308:14317   */\n      dup5\n        /* \"#utility.yul\":14303:14306   */\n      dup10\n        /* \"#utility.yul\":14299:14318   */\n      add\n        /* \"#utility.yul\":14293:14319   */\n      mload\n        /* \"#utility.yul\":14351:14399   */\n      tag_276\n        /* \"#utility.yul\":14393:14397   */\n      0x1f\n        /* \"#utility.yul\":14385:14391   */\n      dup10\n        /* \"#utility.yul\":14381:14398   */\n      and\n        /* \"#utility.yul\":14370:14379   */\n      dup3\n        /* \"#utility.yul\":14351:14399   */\n      tag_105\n      jump\t// in\n    tag_276:\n        /* \"#utility.yul\":14343:14349   */\n      dup4\n        /* \"#utility.yul\":14336:14400   */\n      sstore\n        /* \"#utility.yul\":14258:14414   */\n      pop\n        /* \"#utility.yul\":14235:14414   */\n    tag_275:\n        /* \"#utility.yul\":14460:14461   */\n      0x01\n        /* \"#utility.yul\":14456:14457   */\n      0x02\n        /* \"#utility.yul\":14448:14454   */\n      dup9\n        /* \"#utility.yul\":14444:14458   */\n      mul\n        /* \"#utility.yul\":14440:14462   */\n      add\n        /* \"#utility.yul\":14434:14438   */\n      dup9\n        /* \"#utility.yul\":14427:14463   */\n      sstore\n        /* \"#utility.yul\":13862:14473   */\n      pop\n      pop\n      pop\n        /* \"#utility.yul\":13825:14712   */\n    tag_267:\n      pop\n        /* \"#utility.yul\":13415:14718   */\n      pop\n      pop\n      pop\n        /* \"#utility.yul\":13323:14718   */\n      pop\n      pop\n      jump\t// out\n        /* \"#utility.yul\":14724:14904   */\n    tag_107:\n        /* \"#utility.yul\":14772:14849   */\n      0x4e487b7100000000000000000000000000000000000000000000000000000000\n        /* \"#utility.yul\":14769:14770   */\n      0x00\n        /* \"#utility.yul\":14762:14850   */\n      mstore\n        /* \"#utility.yul\":14869:14873   */\n      0x11\n        /* \"#utility.yul\":14866:14867   */\n      0x04\n        /* \"#utility.yul\":14859:14874   */\n      mstore\n        /* \"#utility.yul\":14893:14897   */\n      0x24\n        /* \"#utility.yul\":14890:14891   */\n      0x00\n        /* \"#utility.yul\":14883:14898   */\n      revert\n        /* \"#utility.yul\":14910:15143   */\n    tag_39:\n        /* \"#utility.yul\":14949:14952   */\n      0x00\n        /* \"#utility.yul\":14972:14996   */\n      tag_279\n        /* \"#utility.yul\":14990:14995   */\n      dup3\n        /* \"#utility.yul\":14972:14996   */\n      tag_74\n      jump\t// in\n    tag_279:\n        /* \"#utility.yul\":14963:14996   */\n      swap2\n      pop\n        /* \"#utility.yul\":15018:15084   */\n      0xffffffffffffffffffffffffffffffffffffffffffffffffffffffffffffffff\n        /* \"#utility.yul\":15011:15016   */\n      dup3\n        /* \"#utility.yul\":15008:15085   */\n      sub\n        /* \"#utility.yul\":15005:15108   */\n      tag_280\n      jumpi\n        /* \"#utility.yul\":15088:15106   */\n      tag_281\n      tag_107\n      jump\t// in\n    tag_281:\n        /* \"#utility.yul\":15005:15108   */\n    tag_280:\n        /* \"#utility.yul\":15135:15136   */\n      0x01\n        /* \"#utility.yul\":15128:15133   */\n      dup3\n        /* \"#utility.yul\":15124:15137   */\n      add\n        /* \"#utility.yul\":15117:15137   */\n      swap1\n      pop\n        /* \"#utility.yul\":14910:15143   */\n      swap2\n      swap1\n      pop\n      jump\t// out\n        /* \"#utility.yul\":15149:15316   */\n    tag_108:\n        /* \"#utility.yul\":15289:15308   */\n      0x5468652074696d6520686173206c6f7373000000000000000000000000000000\n        /* \"#utility.yul\":15285:15286   */\n      0x00\n        /* \"#utility.yul\":15277:15283   */\n      dup3\n        /* \"#utility.yul\":15273:15287   */\n      add\n        /* \"#utility.yul\":15266:15309   */\n      mstore\n        /* \"#utility.yul\":15149:15316   */\n      pop\n      jump\t// out\n        /* \"#utility.yul\":15322:15688   */\n    tag_109:\n        /* \"#utility.yul\":15464:15467   */\n      0x00\n        /* \"#utility.yul\":15485:15552   */\n      tag_284\n        /* \"#utility.yul\":15549:15551   */\n      0x11\n        /* \"#utility.yul\":15544:15547   */\n      dup4\n        /* \"#utility.yul\":15485:15552   */\n      tag_81\n      jump\t// in\n    tag_284:\n        /* \"#utility.yul\":15478:15552   */\n      swap2\n      pop\n        /* \"#utility.yul\":15561:15654   */\n      tag_285\n        /* \"#utility.yul\":15650:15653   */\n      dup3\n        /* \"#utility.yul\":15561:15654   */\n      tag_108\n      jump\t// in\n    tag_285:\n        /* \"#utility.yul\":15679:15681   */\n      0x20\n        /* \"#utility.yul\":15674:15677   */\n      dup3\n        /* \"#utility.yul\":15670:15682   */\n      add\n        /* \"#utility.yul\":15663:15682   */\n      swap1\n      pop\n        /* \"#utility.yul\":15322:15688   */\n      swap2\n      swap1\n      pop\n      jump\t// out\n        /* \"#utility.yul\":15694:16113   */\n    tag_49:\n        /* \"#utility.yul\":15860:15864   */\n      0x00\n        /* \"#utility.yul\":15898:15900   */\n      0x20\n        /* \"#utility.yul\":15887:15896   */\n      dup3\n        /* \"#utility.yul\":15883:15901   */\n      add\n        /* \"#utility.yul\":15875:15901   */\n      swap1\n      pop\n        /* \"#utility.yul\":15947:15956   */\n      dup2\n        /* \"#utility.yul\":15941:15945   */\n      dup2\n        /* \"#utility.yul\":15937:15957   */\n      sub\n        /* \"#utility.yul\":15933:15934   */\n      0x00\n        /* \"#utility.yul\":15922:15931   */\n      dup4\n        /* \"#utility.yul\":15918:15935   */\n      add\n        /* \"#utility.yul\":15911:15958   */\n      mstore\n        /* \"#utility.yul\":15975:16106   */\n      tag_287\n        /* \"#utility.yul\":16101:16105   */\n      dup2\n        /* \"#utility.yul\":15975:16106   */\n      tag_109\n      jump\t// in\n    tag_287:\n        /* \"#utility.yul\":15967:16106   */\n      swap1\n      pop\n        /* \"#utility.yul\":15694:16113   */\n      swap2\n      swap1\n      pop\n      jump\t// out\n        /* \"#utility.yul\":16119:16288   */\n    tag_110:\n        /* \"#utility.yul\":16259:16280   */\n      0x746865207469636b657420686173206c6f737300000000000000000000000000\n        /* \"#utility.yul\":16255:16256   */\n      0x00\n        /* \"#utility.yul\":16247:16253   */\n      dup3\n        /* \"#utility.yul\":16243:16257   */\n      add\n        /* \"#utility.yul\":16236:16281   */\n      mstore\n        /* \"#utility.yul\":16119:16288   */\n      pop\n      jump\t// out\n        /* \"#utility.yul\":16294:16660   */\n    tag_111:\n        /* \"#utility.yul\":16436:16439   */\n      0x00\n        /* \"#utility.yul\":16457:16524   */\n      tag_290\n        /* \"#utility.yul\":16521:16523   */\n      0x13\n        /* \"#utility.yul\":16516:16519   */\n      dup4\n        /* \"#utility.yul\":16457:16524   */\n      tag_81\n      jump\t// in\n    tag_290:\n        /* \"#utility.yul\":16450:16524   */\n      swap2\n      pop\n        /* \"#utility.yul\":16533:16626   */\n      tag_291\n        /* \"#utility.yul\":16622:16625   */\n      dup3\n        /* \"#utility.yul\":16533:16626   */\n      tag_110\n      jump\t// in\n    tag_291:\n        /* \"#utility.yul\":16651:16653   */\n      0x20\n        /* \"#utility.yul\":16646:16649   */\n      dup3\n        /* \"#utility.yul\":16642:16654   */\n      add\n        /* \"#utility.yul\":16635:16654   */\n      swap1\n      pop\n        /* \"#utility.yul\":16294:16660   */\n      swap2\n      swap1\n      pop\n      jump\t// out\n        /* \"#utility.yul\":16666:17085   */\n    tag_52:\n        /* \"#utility.yul\":16832:16836   */\n      0x00\n        /* \"#utility.yul\":16870:16872   */\n      0x20\n        /* \"#utility.yul\":16859:16868   */\n      dup3\n        /* \"#utility.yul\":16855:16873   */\n      add\n        /* \"#utility.yul\":16847:16873   */\n      swap1\n      pop\n        /* \"#utility.yul\":16919:16928   */\n      dup2\n        /* \"#utility.yul\":16913:16917   */\n      dup2\n        /* \"#utility.yul\":16909:16929   */\n      sub\n        /* \"#utility.yul\":16905:16906   */\n      0x00\n        /* \"#utility.yul\":16894:16903   */\n      dup4\n        /* \"#utility.yul\":16890:16907   */\n      add\n        /* \"#utility.yul\":16883:16930   */\n      mstore\n        /* \"#utility.yul\":16947:17078   */\n      tag_293\n        /* \"#utility.yul\":17073:17077   */\n      dup2\n        /* \"#utility.yul\":16947:17078   */\n      tag_111\n      jump\t// in\n    tag_293:\n        /* \"#utility.yul\":16939:17078   */\n      swap1\n      pop\n        /* \"#utility.yul\":16666:17085   */\n      swap2\n      swap1\n      pop\n      jump\t// out\n        /* \"#utility.yul\":17091:17501   */\n    tag_54:\n        /* \"#utility.yul\":17131:17138   */\n      0x00\n        /* \"#utility.yul\":17154:17174   */\n      tag_295\n        /* \"#utility.yul\":17172:17173   */\n      dup3\n        /* \"#utility.yul\":17154:17174   */\n      tag_74\n      jump\t// in\n    tag_295:\n        /* \"#utility.yul\":17149:17174   */\n      swap2\n      pop\n        /* \"#utility.yul\":17188:17208   */\n      tag_296\n        /* \"#utility.yul\":17206:17207   */\n      dup4\n        /* \"#utility.yul\":17188:17208   */\n      tag_74\n      jump\t// in\n    tag_296:\n        /* \"#utility.yul\":17183:17208   */\n      swap3\n      pop\n        /* \"#utility.yul\":17243:17244   */\n      dup3\n        /* \"#utility.yul\":17240:17241   */\n      dup3\n        /* \"#utility.yul\":17236:17245   */\n      mul\n        /* \"#utility.yul\":17265:17295   */\n      tag_297\n        /* \"#utility.yul\":17283:17294   */\n      dup2\n        /* \"#utility.yul\":17265:17295   */\n      tag_74\n      jump\t// in\n    tag_297:\n        /* \"#utility.yul\":17254:17295   */\n      swap2\n      pop\n        /* \"#utility.yul\":17444:17445   */\n      dup3\n        /* \"#utility.yul\":17435:17442   */\n      dup3\n        /* \"#utility.yul\":17431:17446   */\n      div\n        /* \"#utility.yul\":17428:17429   */\n      dup5\n        /* \"#utility.yul\":17425:17447   */\n      eq\n        /* \"#utility.yul\":17405:17406   */\n      dup4\n        /* \"#utility.yul\":17398:17407   */\n      iszero\n        /* \"#utility.yul\":17378:17461   */\n      or\n        /* \"#utility.yul\":17355:17494   */\n      tag_298\n      jumpi\n        /* \"#utility.yul\":17474:17492   */\n      tag_299\n      tag_107\n      jump\t// in\n    tag_299:\n        /* \"#utility.yul\":17355:17494   */\n    tag_298:\n        /* \"#utility.yul\":17139:17501   */\n      pop\n        /* \"#utility.yul\":17091:17501   */\n      swap3\n      swap2\n      pop\n      pop\n      jump\t// out\n        /* \"#utility.yul\":17507:17681   */\n    tag_112:\n        /* \"#utility.yul\":17647:17673   */\n      0x596f7572206e6f74206162626c6520746f206163636573730000000000000000\n        /* \"#utility.yul\":17643:17644   */\n      0x00\n        /* \"#utility.yul\":17635:17641   */\n      dup3\n        /* \"#utility.yul\":17631:17645   */\n      add\n        /* \"#utility.yul\":17624:17674   */\n      mstore\n        /* \"#utility.yul\":17507:17681   */\n      pop\n      jump\t// out\n        /* \"#utility.yul\":17687:18053   */\n    tag_113:\n        /* \"#utility.yul\":17829:17832   */\n      0x00\n        /* \"#utility.yul\":17850:17917   */\n      tag_302\n        /* \"#utility.yul\":17914:17916   */\n      0x18\n        /* \"#utility.yul\":17909:17912   */\n      dup4\n        /* \"#utility.yul\":17850:17917   */\n      tag_81\n      jump\t// in\n    tag_302:\n        /* \"#utility.yul\":17843:17917   */\n      swap2\n      pop\n        /* \"#utility.yul\":17926:18019   */\n      tag_303\n        /* \"#utility.yul\":18015:18018   */\n      dup3\n        /* \"#utility.yul\":17926:18019   */\n      tag_112\n      jump\t// in\n    tag_303:\n        /* \"#utility.yul\":18044:18046   */\n      0x20\n        /* \"#utility.yul\":18039:18042   */\n      dup3\n        /* \"#utility.yul\":18035:18047   */\n      add\n        /* \"#utility.yul\":18028:18047   */\n      swap1\n      pop\n        /* \"#utility.yul\":17687:18053   */\n      swap2\n      swap1\n      pop\n      jump\t// out\n        /* \"#utility.yul\":18059:18478   */\n    tag_57:\n        /* \"#utility.yul\":18225:18229   */\n      0x00\n        /* \"#utility.yul\":18263:18265   */\n      0x20\n        /* \"#utility.yul\":18252:18261   */\n      dup3\n        /* \"#utility.yul\":18248:18266   */\n      add\n        /* \"#utility.yul\":18240:18266   */\n      swap1\n      pop\n        /* \"#utility.yul\":18312:18321   */\n      dup2\n        /* \"#utility.yul\":18306:18310   */\n      dup2\n        /* \"#utility.yul\":18302:18322   */\n      sub\n        /* \"#utility.yul\":18298:18299   */\n      0x00\n        /* \"#utility.yul\":18287:18296   */\n      dup4\n        /* \"#utility.yul\":18283:18300   */\n      add\n        /* \"#utility.yul\":18276:18323   */\n      mstore\n        /* \"#utility.yul\":18340:18471   */\n      tag_305\n        /* \"#utility.yul\":18466:18470   */\n      dup2\n        /* \"#utility.yul\":18340:18471   */\n      tag_113\n      jump\t// in\n    tag_305:\n        /* \"#utility.yul\":18332:18471   */\n      swap1\n      pop\n        /* \"#utility.yul\":18059:18478   */\n      swap2\n      swap1\n      pop\n      jump\t// out\n        /* \"#utility.yul\":18484:18641   */\n    tag_114:\n        /* \"#utility.yul\":18624:18633   */\n      0x4e6f7468696e6700000000000000000000000000000000000000000000000000\n        /* \"#utility.yul\":18620:18621   */\n      0x00\n        /* \"#utility.yul\":18612:18618   */\n      dup3\n        /* \"#utility.yul\":18608:18622   */\n      add\n        /* \"#utility.yul\":18601:18634   */\n      mstore\n        /* \"#utility.yul\":18484:18641   */\n      pop\n      jump\t// out\n        /* \"#utility.yul\":18647:19012   */\n    tag_115:\n        /* \"#utility.yul\":18789:18792   */\n      0x00\n        /* \"#utility.yul\":18810:18876   */\n      tag_308\n        /* \"#utility.yul\":18874:18875   */\n      0x07\n        /* \"#utility.yul\":18869:18872   */\n      dup4\n        /* \"#utility.yul\":18810:18876   */\n      tag_81\n      jump\t// in\n    tag_308:\n        /* \"#utility.yul\":18803:18876   */\n      swap2\n      pop\n        /* \"#utility.yul\":18885:18978   */\n      tag_309\n        /* \"#utility.yul\":18974:18977   */\n      dup3\n        /* \"#utility.yul\":18885:18978   */\n      tag_114\n      jump\t// in\n    tag_309:\n        /* \"#utility.yul\":19003:19005   */\n      0x20\n        /* \"#utility.yul\":18998:19001   */\n      dup3\n        /* \"#utility.yul\":18994:19006   */\n      add\n        /* \"#utility.yul\":18987:19006   */\n      swap1\n      pop\n        /* \"#utility.yul\":18647:19012   */\n      swap2\n      swap1\n      pop\n      jump\t// out\n        /* \"#utility.yul\":19018:19437   */\n    tag_60:\n        /* \"#utility.yul\":19184:19188   */\n      0x00\n        /* \"#utility.yul\":19222:19224   */\n      0x20\n        /* \"#utility.yul\":19211:19220   */\n      dup3\n        /* \"#utility.yul\":19207:19225   */\n      add\n        /* \"#utility.yul\":19199:19225   */\n      swap1\n      pop\n        /* \"#utility.yul\":19271:19280   */\n      dup2\n        /* \"#utility.yul\":19265:19269   */\n      dup2\n        /* \"#utility.yul\":19261:19281   */\n      sub\n        /* \"#utility.yul\":19257:19258   */\n      0x00\n        /* \"#utility.yul\":19246:19255   */\n      dup4\n        /* \"#utility.yul\":19242:19259   */\n      add\n        /* \"#utility.yul\":19235:19282   */\n      mstore\n        /* \"#utility.yul\":19299:19430   */\n      tag_311\n        /* \"#utility.yul\":19425:19429   */\n      dup2\n        /* \"#utility.yul\":19299:19430   */\n      tag_115\n      jump\t// in\n    tag_311:\n        /* \"#utility.yul\":19291:19430   */\n      swap1\n      pop\n        /* \"#utility.yul\":19018:19437   */\n      swap2\n      swap1\n      pop\n      jump\t// out\n\n    auxdata: 0xa26469706673582212200f4cb69c657ad0a787b6811bfa0334a76e3da0413d81608c2b4e198bbd06970364736f6c63430008110033\n}\n",
				"bytecode": {
					"linkReferences": {},
					"object": "608060405234801561001057600080fd5b50610f9a806100206000396000f3fe60806040526004361061003f5760003560e01c80630374ab0b146100445780630b7914301461006d578063298ec208146100af578063e11bb64d146100cb575b600080fd5b34801561005057600080fd5b5061006b60048036038101906100669190610697565b610108565b005b34801561007957600080fd5b50610094600480360381019061008f919061071a565b61028a565b6040516100a696959493929190610816565b60405180910390f35b6100c960048036038101906100c4919061087e565b61036e565b005b3480156100d757600080fd5b506100f260048036038101906100ed91906108ea565b6104e2565b6040516100ff919061092a565b60405180910390f35b42831161014a576040517f08c379a000000000000000000000000000000000000000000000000000000000815260040161014190610991565b60405180910390fd5b6000811161018d576040517f08c379a0000000000000000000000000000000000000000000000000000000008152600401610184906109fd565b60405180910390fd5b6040518060c001604052803373ffffffffffffffffffffffffffffffffffffffff16815260200185815260200184815260200183815260200182815260200182815250600080600254815260200190815260200160002060008201518160000160006101000a81548173ffffffffffffffffffffffffffffffffffffffff021916908373ffffffffffffffffffffffffffffffffffffffff16021790555060208201518160010190816102409190610c29565b5060408201518160020155606082015181600301556080820151816004015560a082015181600501559050506002600081548092919061027f90610d2a565b919050555050505050565b60006020528060005260406000206000915090508060000160009054906101000a900473ffffffffffffffffffffffffffffffffffffffff16908060010180546102d390610a4c565b80601f01602080910402602001604051908101604052809291908181526020018280546102ff90610a4c565b801561034c5780601f106103215761010080835404028352916020019161034c565b820191906000526020600020905b81548152906001019060200180831161032f57829003601f168201915b5050505050908060020154908060030154908060040154908060050154905086565b4260008084815260200190815260200160002060020154116103c5576040517f08c379a00000000000000000000000000000000000000000000000000000000081526004016103bc90610dbe565b60405180910390fd5b6000806000848152602001908152602001600020600201540361041d576040517f08c379a000000000000000000000000000000000000000000000000000000000815260040161041490610e2a565b60405180910390fd5b600080600084815260200190815260200160002090508181600301546104439190610e4a565b341015610485576040517f08c379a000000000000000000000000000000000000000000000000000000000815260040161047c90610ed8565b60405180910390fd5b816000808581526020019081526020016000206005015410156104dd576040517f08c379a00000000000000000000000000000000000000000000000000000000081526004016104d490610f44565b60405180910390fd5b505050565b6001602052816000526040600020602052806000526040600020600091509150505481565b6000604051905090565b600080fd5b600080fd5b600080fd5b600080fd5b6000601f19601f8301169050919050565b7f4e487b7100000000000000000000000000000000000000000000000000000000600052604160045260246000fd5b61056e82610525565b810181811067ffffffffffffffff8211171561058d5761058c610536565b5b80604052505050565b60006105a0610507565b90506105ac8282610565565b919050565b600067ffffffffffffffff8211156105cc576105cb610536565b5b6105d582610525565b9050602081019050919050565b82818337600083830152505050565b60006106046105ff846105b1565b610596565b9050828152602081018484840111156106205761061f610520565b5b61062b8482856105e2565b509392505050565b600082601f8301126106485761064761051b565b5b81356106588482602086016105f1565b91505092915050565b6000819050919050565b61067481610661565b811461067f57600080fd5b50565b6000813590506106918161066b565b92915050565b600080600080608085870312156106b1576106b0610511565b5b600085013567ffffffffffffffff8111156106cf576106ce610516565b5b6106db87828801610633565b94505060206106ec87828801610682565b93505060406106fd87828801610682565b925050606061070e87828801610682565b91505092959194509250565b6000602082840312156107305761072f610511565b5b600061073e84828501610682565b91505092915050565b600073ffffffffffffffffffffffffffffffffffffffff82169050919050565b600061077282610747565b9050919050565b61078281610767565b82525050565b600081519050919050565b600082825260208201905092915050565b60005b838110156107c25780820151818401526020810190506107a7565b60008484015250505050565b60006107d982610788565b6107e38185610793565b93506107f38185602086016107a4565b6107fc81610525565b840191505092915050565b61081081610661565b82525050565b600060c08201905061082b6000830189610779565b818103602083015261083d81886107ce565b905061084c6040830187610807565b6108596060830186610807565b6108666080830185610807565b61087360a0830184610807565b979650505050505050565b6000806040838503121561089557610894610511565b5b60006108a385828601610682565b92505060206108b485828601610682565b9150509250929050565b6108c781610767565b81146108d257600080fd5b50565b6000813590506108e4816108be565b92915050565b6000806040838503121561090157610900610511565b5b600061090f858286016108d5565b925050602061092085828601610682565b9150509250929050565b600060208201905061093f6000830184610807565b92915050565b7f546865204576656e7420686173206f7665720000000000000000000000000000600082015250565b600061097b601283610793565b915061098682610945565b602082019050919050565b600060208201905081810360008301526109aa8161096e565b9050919050565b7f796f752063616e2052756e20746865204576656e747300000000000000000000600082015250565b60006109e7601683610793565b91506109f2826109b1565b602082019050919050565b60006020820190508181036000830152610a16816109da565b9050919050565b7f4e487b7100000000000000000000000000000000000000000000000000000000600052602260045260246000fd5b60006002820490506001821680610a6457607f821691505b602082108103610a7757610a76610a1d565b5b50919050565b60008190508160005260206000209050919050565b60006020601f8301049050919050565b600082821b905092915050565b600060088302610adf7fffffffffffffffffffffffffffffffffffffffffffffffffffffffffffffffff82610aa2565b610ae98683610aa2565b95508019841693508086168417925050509392505050565b6000819050919050565b6000610b26610b21610b1c84610661565b610b01565b610661565b9050919050565b6000819050919050565b610b4083610b0b565b610b54610b4c82610b2d565b848454610aaf565b825550505050565b600090565b610b69610b5c565b610b74818484610b37565b505050565b5b81811015610b9857610b8d600082610b61565b600181019050610b7a565b5050565b601f821115610bdd57610bae81610a7d565b610bb784610a92565b81016020851015610bc6578190505b610bda610bd285610a92565b830182610b79565b50505b505050565b600082821c905092915050565b6000610c0060001984600802610be2565b1980831691505092915050565b6000610c198383610bef565b9150826002028217905092915050565b610c3282610788565b67ffffffffffffffff811115610c4b57610c4a610536565b5b610c558254610a4c565b610c60828285610b9c565b600060209050601f831160018114610c935760008415610c81578287015190505b610c8b8582610c0d565b865550610cf3565b601f198416610ca186610a7d565b60005b82811015610cc957848901518255600182019150602085019450602081019050610ca4565b86831015610ce65784890151610ce2601f891682610bef565b8355505b6001600288020188555050505b505050505050565b7f4e487b7100000000000000000000000000000000000000000000000000000000600052601160045260246000fd5b6000610d3582610661565b91507fffffffffffffffffffffffffffffffffffffffffffffffffffffffffffffffff8203610d6757610d66610cfb565b5b600182019050919050565b7f5468652074696d6520686173206c6f7373000000000000000000000000000000600082015250565b6000610da8601183610793565b9150610db382610d72565b602082019050919050565b60006020820190508181036000830152610dd781610d9b565b9050919050565b7f746865207469636b657420686173206c6f737300000000000000000000000000600082015250565b6000610e14601383610793565b9150610e1f82610dde565b602082019050919050565b60006020820190508181036000830152610e4381610e07565b9050919050565b6000610e5582610661565b9150610e6083610661565b9250828202610e6e81610661565b91508282048414831517610e8557610e84610cfb565b5b5092915050565b7f596f7572206e6f74206162626c6520746f206163636573730000000000000000600082015250565b6000610ec2601883610793565b9150610ecd82610e8c565b602082019050919050565b60006020820190508181036000830152610ef181610eb5565b9050919050565b7f4e6f7468696e6700000000000000000000000000000000000000000000000000600082015250565b6000610f2e600783610793565b9150610f3982610ef8565b602082019050919050565b60006020820190508181036000830152610f5d81610f21565b905091905056fea26469706673582212200f4cb69c657ad0a787b6811bfa0334a76e3da0413d81608c2b4e198bbd06970364736f6c63430008110033",
					"opcodes": "PUSH1 0x80 PUSH1 0x40 MSTORE CALLVALUE DUP1 ISZERO PUSH2 0x10 JUMPI PUSH1 0x0 DUP1 REVERT JUMPDEST POP PUSH2 0xF9A DUP1 PUSH2 0x20 PUSH1 0x0 CODECOPY PUSH1 0x0 RETURN INVALID PUSH1 0x80 PUSH1 0x40 MSTORE PUSH1 0x4 CALLDATASIZE LT PUSH2 0x3F JUMPI PUSH1 0x0 CALLDATALOAD PUSH1 0xE0 SHR DUP1 PUSH4 0x374AB0B EQ PUSH2 0x44 JUMPI DUP1 PUSH4 0xB791430 EQ PUSH2 0x6D JUMPI DUP1 PUSH4 0x298EC208 EQ PUSH2 0xAF JUMPI DUP1 PUSH4 0xE11BB64D EQ PUSH2 0xCB JUMPI JUMPDEST PUSH1 0x0 DUP1 REVERT JUMPDEST CALLVALUE DUP1 ISZERO PUSH2 0x50 JUMPI PUSH1 0x0 DUP1 REVERT JUMPDEST POP PUSH2 0x6B PUSH1 0x4 DUP1 CALLDATASIZE SUB DUP2 ADD SWAP1 PUSH2 0x66 SWAP2 SWAP1 PUSH2 0x697 JUMP JUMPDEST PUSH2 0x108 JUMP JUMPDEST STOP JUMPDEST CALLVALUE DUP1 ISZERO PUSH2 0x79 JUMPI PUSH1 0x0 DUP1 REVERT JUMPDEST POP PUSH2 0x94 PUSH1 0x4 DUP1 CALLDATASIZE SUB DUP2 ADD SWAP1 PUSH2 0x8F SWAP2 SWAP1 PUSH2 0x71A JUMP JUMPDEST PUSH2 0x28A JUMP JUMPDEST PUSH1 0x40 MLOAD PUSH2 0xA6 SWAP7 SWAP6 SWAP5 SWAP4 SWAP3 SWAP2 SWAP1 PUSH2 0x816 JUMP JUMPDEST PUSH1 0x40 MLOAD DUP1 SWAP2 SUB SWAP1 RETURN JUMPDEST PUSH2 0xC9 PUSH1 0x4 DUP1 CALLDATASIZE SUB DUP2 ADD SWAP1 PUSH2 0xC4 SWAP2 SWAP1 PUSH2 0x87E JUMP JUMPDEST PUSH2 0x36E JUMP JUMPDEST STOP JUMPDEST CALLVALUE DUP1 ISZERO PUSH2 0xD7 JUMPI PUSH1 0x0 DUP1 REVERT JUMPDEST POP PUSH2 0xF2 PUSH1 0x4 DUP1 CALLDATASIZE SUB DUP2 ADD SWAP1 PUSH2 0xED SWAP2 SWAP1 PUSH2 0x8EA JUMP JUMPDEST PUSH2 0x4E2 JUMP JUMPDEST PUSH1 0x40 MLOAD PUSH2 0xFF SWAP2 SWAP1 PUSH2 0x92A JUMP JUMPDEST PUSH1 0x40 MLOAD DUP1 SWAP2 SUB SWAP1 RETURN JUMPDEST TIMESTAMP DUP4 GT PUSH2 0x14A JUMPI PUSH1 0x40 MLOAD PUSH32 0x8C379A000000000000000000000000000000000000000000000000000000000 DUP2 MSTORE PUSH1 0x4 ADD PUSH2 0x141 SWAP1 PUSH2 0x991 JUMP JUMPDEST PUSH1 0x40 MLOAD DUP1 SWAP2 SUB SWAP1 REVERT JUMPDEST PUSH1 0x0 DUP2 GT PUSH2 0x18D JUMPI PUSH1 0x40 MLOAD PUSH32 0x8C379A000000000000000000000000000000000000000000000000000000000 DUP2 MSTORE PUSH1 0x4 ADD PUSH2 0x184 SWAP1 PUSH2 0x9FD JUMP JUMPDEST PUSH1 0x40 MLOAD DUP1 SWAP2 SUB SWAP1 REVERT JUMPDEST PUSH1 0x40 MLOAD DUP1 PUSH1 0xC0 ADD PUSH1 0x40 MSTORE DUP1 CALLER PUSH20 0xFFFFFFFFFFFFFFFFFFFFFFFFFFFFFFFFFFFFFFFF AND DUP2 MSTORE PUSH1 0x20 ADD DUP6 DUP2 MSTORE PUSH1 0x20 ADD DUP5 DUP2 MSTORE PUSH1 0x20 ADD DUP4 DUP2 MSTORE PUSH1 0x20 ADD DUP3 DUP2 MSTORE PUSH1 0x20 ADD DUP3 DUP2 MSTORE POP PUSH1 0x0 DUP1 PUSH1 0x2 SLOAD DUP2 MSTORE PUSH1 0x20 ADD SWAP1 DUP2 MSTORE PUSH1 0x20 ADD PUSH1 0x0 KECCAK256 PUSH1 0x0 DUP3 ADD MLOAD DUP2 PUSH1 0x0 ADD PUSH1 0x0 PUSH2 0x100 EXP DUP2 SLOAD DUP2 PUSH20 0xFFFFFFFFFFFFFFFFFFFFFFFFFFFFFFFFFFFFFFFF MUL NOT AND SWAP1 DUP4 PUSH20 0xFFFFFFFFFFFFFFFFFFFFFFFFFFFFFFFFFFFFFFFF AND MUL OR SWAP1 SSTORE POP PUSH1 0x20 DUP3 ADD MLOAD DUP2 PUSH1 0x1 ADD SWAP1 DUP2 PUSH2 0x240 SWAP2 SWAP1 PUSH2 0xC29 JUMP JUMPDEST POP PUSH1 0x40 DUP3 ADD MLOAD DUP2 PUSH1 0x2 ADD SSTORE PUSH1 0x60 DUP3 ADD MLOAD DUP2 PUSH1 0x3 ADD SSTORE PUSH1 0x80 DUP3 ADD MLOAD DUP2 PUSH1 0x4 ADD SSTORE PUSH1 0xA0 DUP3 ADD MLOAD DUP2 PUSH1 0x5 ADD SSTORE SWAP1 POP POP PUSH1 0x2 PUSH1 0x0 DUP2 SLOAD DUP1 SWAP3 SWAP2 SWAP1 PUSH2 0x27F SWAP1 PUSH2 0xD2A JUMP JUMPDEST SWAP2 SWAP1 POP SSTORE POP POP POP POP POP JUMP JUMPDEST PUSH1 0x0 PUSH1 0x20 MSTORE DUP1 PUSH1 0x0 MSTORE PUSH1 0x40 PUSH1 0x0 KECCAK256 PUSH1 0x0 SWAP2 POP SWAP1 POP DUP1 PUSH1 0x0 ADD PUSH1 0x0 SWAP1 SLOAD SWAP1 PUSH2 0x100 EXP SWAP1 DIV PUSH20 0xFFFFFFFFFFFFFFFFFFFFFFFFFFFFFFFFFFFFFFFF AND SWAP1 DUP1 PUSH1 0x1 ADD DUP1 SLOAD PUSH2 0x2D3 SWAP1 PUSH2 0xA4C JUMP JUMPDEST DUP1 PUSH1 0x1F ADD PUSH1 0x20 DUP1 SWAP2 DIV MUL PUSH1 0x20 ADD PUSH1 0x40 MLOAD SWAP1 DUP2 ADD PUSH1 0x40 MSTORE DUP1 SWAP3 SWAP2 SWAP1 DUP2 DUP2 MSTORE PUSH1 0x20 ADD DUP3 DUP1 SLOAD PUSH2 0x2FF SWAP1 PUSH2 0xA4C JUMP JUMPDEST DUP1 ISZERO PUSH2 0x34C JUMPI DUP1 PUSH1 0x1F LT PUSH2 0x321 JUMPI PUSH2 0x100 DUP1 DUP4 SLOAD DIV MUL DUP4 MSTORE SWAP2 PUSH1 0x20 ADD SWAP2 PUSH2 0x34C JUMP JUMPDEST DUP3 ADD SWAP2 SWAP1 PUSH1 0x0 MSTORE PUSH1 0x20 PUSH1 0x0 KECCAK256 SWAP1 JUMPDEST DUP2 SLOAD DUP2 MSTORE SWAP1 PUSH1 0x1 ADD SWAP1 PUSH1 0x20 ADD DUP1 DUP4 GT PUSH2 0x32F JUMPI DUP3 SWAP1 SUB PUSH1 0x1F AND DUP3 ADD SWAP2 JUMPDEST POP POP POP POP POP SWAP1 DUP1 PUSH1 0x2 ADD SLOAD SWAP1 DUP1 PUSH1 0x3 ADD SLOAD SWAP1 DUP1 PUSH1 0x4 ADD SLOAD SWAP1 DUP1 PUSH1 0x5 ADD SLOAD SWAP1 POP DUP7 JUMP JUMPDEST TIMESTAMP PUSH1 0x0 DUP1 DUP5 DUP2 MSTORE PUSH1 0x20 ADD SWAP1 DUP2 MSTORE PUSH1 0x20 ADD PUSH1 0x0 KECCAK256 PUSH1 0x2 ADD SLOAD GT PUSH2 0x3C5 JUMPI PUSH1 0x40 MLOAD PUSH32 0x8C379A000000000000000000000000000000000000000000000000000000000 DUP2 MSTORE PUSH1 0x4 ADD PUSH2 0x3BC SWAP1 PUSH2 0xDBE JUMP JUMPDEST PUSH1 0x40 MLOAD DUP1 SWAP2 SUB SWAP1 REVERT JUMPDEST PUSH1 0x0 DUP1 PUSH1 0x0 DUP5 DUP2 MSTORE PUSH1 0x20 ADD SWAP1 DUP2 MSTORE PUSH1 0x20 ADD PUSH1 0x0 KECCAK256 PUSH1 0x2 ADD SLOAD SUB PUSH2 0x41D JUMPI PUSH1 0x40 MLOAD PUSH32 0x8C379A000000000000000000000000000000000000000000000000000000000 DUP2 MSTORE PUSH1 0x4 ADD PUSH2 0x414 SWAP1 PUSH2 0xE2A JUMP JUMPDEST PUSH1 0x40 MLOAD DUP1 SWAP2 SUB SWAP1 REVERT JUMPDEST PUSH1 0x0 DUP1 PUSH1 0x0 DUP5 DUP2 MSTORE PUSH1 0x20 ADD SWAP1 DUP2 MSTORE PUSH1 0x20 ADD PUSH1 0x0 KECCAK256 SWAP1 POP DUP2 DUP2 PUSH1 0x3 ADD SLOAD PUSH2 0x443 SWAP2 SWAP1 PUSH2 0xE4A JUMP JUMPDEST CALLVALUE LT ISZERO PUSH2 0x485 JUMPI PUSH1 0x40 MLOAD PUSH32 0x8C379A000000000000000000000000000000000000000000000000000000000 DUP2 MSTORE PUSH1 0x4 ADD PUSH2 0x47C SWAP1 PUSH2 0xED8 JUMP JUMPDEST PUSH1 0x40 MLOAD DUP1 SWAP2 SUB SWAP1 REVERT JUMPDEST DUP2 PUSH1 0x0 DUP1 DUP6 DUP2 MSTORE PUSH1 0x20 ADD SWAP1 DUP2 MSTORE PUSH1 0x20 ADD PUSH1 0x0 KECCAK256 PUSH1 0x5 ADD SLOAD LT ISZERO PUSH2 0x4DD JUMPI PUSH1 0x40 MLOAD PUSH32 0x8C379A000000000000000000000000000000000000000000000000000000000 DUP2 MSTORE PUSH1 0x4 ADD PUSH2 0x4D4 SWAP1 PUSH2 0xF44 JUMP JUMPDEST PUSH1 0x40 MLOAD DUP1 SWAP2 SUB SWAP1 REVERT JUMPDEST POP POP POP JUMP JUMPDEST PUSH1 0x1 PUSH1 0x20 MSTORE DUP2 PUSH1 0x0 MSTORE PUSH1 0x40 PUSH1 0x0 KECCAK256 PUSH1 0x20 MSTORE DUP1 PUSH1 0x0 MSTORE PUSH1 0x40 PUSH1 0x0 KECCAK256 PUSH1 0x0 SWAP2 POP SWAP2 POP POP SLOAD DUP2 JUMP JUMPDEST PUSH1 0x0 PUSH1 0x40 MLOAD SWAP1 POP SWAP1 JUMP JUMPDEST PUSH1 0x0 DUP1 REVERT JUMPDEST PUSH1 0x0 DUP1 REVERT JUMPDEST PUSH1 0x0 DUP1 REVERT JUMPDEST PUSH1 0x0 DUP1 REVERT JUMPDEST PUSH1 0x0 PUSH1 0x1F NOT PUSH1 0x1F DUP4 ADD AND SWAP1 POP SWAP2 SWAP1 POP JUMP JUMPDEST PUSH32 0x4E487B7100000000000000000000000000000000000000000000000000000000 PUSH1 0x0 MSTORE PUSH1 0x41 PUSH1 0x4 MSTORE PUSH1 0x24 PUSH1 0x0 REVERT JUMPDEST PUSH2 0x56E DUP3 PUSH2 0x525 JUMP JUMPDEST DUP2 ADD DUP2 DUP2 LT PUSH8 0xFFFFFFFFFFFFFFFF DUP3 GT OR ISZERO PUSH2 0x58D JUMPI PUSH2 0x58C PUSH2 0x536 JUMP JUMPDEST JUMPDEST DUP1 PUSH1 0x40 MSTORE POP POP POP JUMP JUMPDEST PUSH1 0x0 PUSH2 0x5A0 PUSH2 0x507 JUMP JUMPDEST SWAP1 POP PUSH2 0x5AC DUP3 DUP3 PUSH2 0x565 JUMP JUMPDEST SWAP2 SWAP1 POP JUMP JUMPDEST PUSH1 0x0 PUSH8 0xFFFFFFFFFFFFFFFF DUP3 GT ISZERO PUSH2 0x5CC JUMPI PUSH2 0x5CB PUSH2 0x536 JUMP JUMPDEST JUMPDEST PUSH2 0x5D5 DUP3 PUSH2 0x525 JUMP JUMPDEST SWAP1 POP PUSH1 0x20 DUP2 ADD SWAP1 POP SWAP2 SWAP1 POP JUMP JUMPDEST DUP3 DUP2 DUP4 CALLDATACOPY PUSH1 0x0 DUP4 DUP4 ADD MSTORE POP POP POP JUMP JUMPDEST PUSH1 0x0 PUSH2 0x604 PUSH2 0x5FF DUP5 PUSH2 0x5B1 JUMP JUMPDEST PUSH2 0x596 JUMP JUMPDEST SWAP1 POP DUP3 DUP2 MSTORE PUSH1 0x20 DUP2 ADD DUP5 DUP5 DUP5 ADD GT ISZERO PUSH2 0x620 JUMPI PUSH2 0x61F PUSH2 0x520 JUMP JUMPDEST JUMPDEST PUSH2 0x62B DUP5 DUP3 DUP6 PUSH2 0x5E2 JUMP JUMPDEST POP SWAP4 SWAP3 POP POP POP JUMP JUMPDEST PUSH1 0x0 DUP3 PUSH1 0x1F DUP4 ADD SLT PUSH2 0x648 JUMPI PUSH2 0x647 PUSH2 0x51B JUMP JUMPDEST JUMPDEST DUP2 CALLDATALOAD PUSH2 0x658 DUP5 DUP3 PUSH1 0x20 DUP7 ADD PUSH2 0x5F1 JUMP JUMPDEST SWAP2 POP POP SWAP3 SWAP2 POP POP JUMP JUMPDEST PUSH1 0x0 DUP2 SWAP1 POP SWAP2 SWAP1 POP JUMP JUMPDEST PUSH2 0x674 DUP2 PUSH2 0x661 JUMP JUMPDEST DUP2 EQ PUSH2 0x67F JUMPI PUSH1 0x0 DUP1 REVERT JUMPDEST POP JUMP JUMPDEST PUSH1 0x0 DUP2 CALLDATALOAD SWAP1 POP PUSH2 0x691 DUP2 PUSH2 0x66B JUMP JUMPDEST SWAP3 SWAP2 POP POP JUMP JUMPDEST PUSH1 0x0 DUP1 PUSH1 0x0 DUP1 PUSH1 0x80 DUP6 DUP8 SUB SLT ISZERO PUSH2 0x6B1 JUMPI PUSH2 0x6B0 PUSH2 0x511 JUMP JUMPDEST JUMPDEST PUSH1 0x0 DUP6 ADD CALLDATALOAD PUSH8 0xFFFFFFFFFFFFFFFF DUP2 GT ISZERO PUSH2 0x6CF JUMPI PUSH2 0x6CE PUSH2 0x516 JUMP JUMPDEST JUMPDEST PUSH2 0x6DB DUP8 DUP3 DUP9 ADD PUSH2 0x633 JUMP JUMPDEST SWAP5 POP POP PUSH1 0x20 PUSH2 0x6EC DUP8 DUP3 DUP9 ADD PUSH2 0x682 JUMP JUMPDEST SWAP4 POP POP PUSH1 0x40 PUSH2 0x6FD DUP8 DUP3 DUP9 ADD PUSH2 0x682 JUMP JUMPDEST SWAP3 POP POP PUSH1 0x60 PUSH2 0x70E DUP8 DUP3 DUP9 ADD PUSH2 0x682 JUMP JUMPDEST SWAP2 POP POP SWAP3 SWAP6 SWAP2 SWAP5 POP SWAP3 POP JUMP JUMPDEST PUSH1 0x0 PUSH1 0x20 DUP3 DUP5 SUB SLT ISZERO PUSH2 0x730 JUMPI PUSH2 0x72F PUSH2 0x511 JUMP JUMPDEST JUMPDEST PUSH1 0x0 PUSH2 0x73E DUP5 DUP3 DUP6 ADD PUSH2 0x682 JUMP JUMPDEST SWAP2 POP POP SWAP3 SWAP2 POP POP JUMP JUMPDEST PUSH1 0x0 PUSH20 0xFFFFFFFFFFFFFFFFFFFFFFFFFFFFFFFFFFFFFFFF DUP3 AND SWAP1 POP SWAP2 SWAP1 POP JUMP JUMPDEST PUSH1 0x0 PUSH2 0x772 DUP3 PUSH2 0x747 JUMP JUMPDEST SWAP1 POP SWAP2 SWAP1 POP JUMP JUMPDEST PUSH2 0x782 DUP2 PUSH2 0x767 JUMP JUMPDEST DUP3 MSTORE POP POP JUMP JUMPDEST PUSH1 0x0 DUP2 MLOAD SWAP1 POP SWAP2 SWAP1 POP JUMP JUMPDEST PUSH1 0x0 DUP3 DUP3 MSTORE PUSH1 0x20 DUP3 ADD SWAP1 POP SWAP3 SWAP2 POP POP JUMP JUMPDEST PUSH1 0x0 JUMPDEST DUP4 DUP2 LT ISZERO PUSH2 0x7C2 JUMPI DUP1 DUP3 ADD MLOAD DUP2 DUP5 ADD MSTORE PUSH1 0x20 DUP2 ADD SWAP1 POP PUSH2 0x7A7 JUMP JUMPDEST PUSH1 0x0 DUP5 DUP5 ADD MSTORE POP POP POP POP JUMP JUMPDEST PUSH1 0x0 PUSH2 0x7D9 DUP3 PUSH2 0x788 JUMP JUMPDEST PUSH2 0x7E3 DUP2 DUP6 PUSH2 0x793 JUMP JUMPDEST SWAP4 POP PUSH2 0x7F3 DUP2 DUP6 PUSH1 0x20 DUP7 ADD PUSH2 0x7A4 JUMP JUMPDEST PUSH2 0x7FC DUP2 PUSH2 0x525 JUMP JUMPDEST DUP5 ADD SWAP2 POP POP SWAP3 SWAP2 POP POP JUMP JUMPDEST PUSH2 0x810 DUP2 PUSH2 0x661 JUMP JUMPDEST DUP3 MSTORE POP POP JUMP JUMPDEST PUSH1 0x0 PUSH1 0xC0 DUP3 ADD SWAP1 POP PUSH2 0x82B PUSH1 0x0 DUP4 ADD DUP10 PUSH2 0x779 JUMP JUMPDEST DUP2 DUP2 SUB PUSH1 0x20 DUP4 ADD MSTORE PUSH2 0x83D DUP2 DUP9 PUSH2 0x7CE JUMP JUMPDEST SWAP1 POP PUSH2 0x84C PUSH1 0x40 DUP4 ADD DUP8 PUSH2 0x807 JUMP JUMPDEST PUSH2 0x859 PUSH1 0x60 DUP4 ADD DUP7 PUSH2 0x807 JUMP JUMPDEST PUSH2 0x866 PUSH1 0x80 DUP4 ADD DUP6 PUSH2 0x807 JUMP JUMPDEST PUSH2 0x873 PUSH1 0xA0 DUP4 ADD DUP5 PUSH2 0x807 JUMP JUMPDEST SWAP8 SWAP7 POP POP POP POP POP POP POP JUMP JUMPDEST PUSH1 0x0 DUP1 PUSH1 0x40 DUP4 DUP6 SUB SLT ISZERO PUSH2 0x895 JUMPI PUSH2 0x894 PUSH2 0x511 JUMP JUMPDEST JUMPDEST PUSH1 0x0 PUSH2 0x8A3 DUP6 DUP3 DUP7 ADD PUSH2 0x682 JUMP JUMPDEST SWAP3 POP POP PUSH1 0x20 PUSH2 0x8B4 DUP6 DUP3 DUP7 ADD PUSH2 0x682 JUMP JUMPDEST SWAP2 POP POP SWAP3 POP SWAP3 SWAP1 POP JUMP JUMPDEST PUSH2 0x8C7 DUP2 PUSH2 0x767 JUMP JUMPDEST DUP2 EQ PUSH2 0x8D2 JUMPI PUSH1 0x0 DUP1 REVERT JUMPDEST POP JUMP JUMPDEST PUSH1 0x0 DUP2 CALLDATALOAD SWAP1 POP PUSH2 0x8E4 DUP2 PUSH2 0x8BE JUMP JUMPDEST SWAP3 SWAP2 POP POP JUMP JUMPDEST PUSH1 0x0 DUP1 PUSH1 0x40 DUP4 DUP6 SUB SLT ISZERO PUSH2 0x901 JUMPI PUSH2 0x900 PUSH2 0x511 JUMP JUMPDEST JUMPDEST PUSH1 0x0 PUSH2 0x90F DUP6 DUP3 DUP7 ADD PUSH2 0x8D5 JUMP JUMPDEST SWAP3 POP POP PUSH1 0x20 PUSH2 0x920 DUP6 DUP3 DUP7 ADD PUSH2 0x682 JUMP JUMPDEST SWAP2 POP POP SWAP3 POP SWAP3 SWAP1 POP JUMP JUMPDEST PUSH1 0x0 PUSH1 0x20 DUP3 ADD SWAP1 POP PUSH2 0x93F PUSH1 0x0 DUP4 ADD DUP5 PUSH2 0x807 JUMP JUMPDEST SWAP3 SWAP2 POP POP JUMP JUMPDEST PUSH32 0x546865204576656E7420686173206F7665720000000000000000000000000000 PUSH1 0x0 DUP3 ADD MSTORE POP JUMP JUMPDEST PUSH1 0x0 PUSH2 0x97B PUSH1 0x12 DUP4 PUSH2 0x793 JUMP JUMPDEST SWAP2 POP PUSH2 0x986 DUP3 PUSH2 0x945 JUMP JUMPDEST PUSH1 0x20 DUP3 ADD SWAP1 POP SWAP2 SWAP1 POP JUMP JUMPDEST PUSH1 0x0 PUSH1 0x20 DUP3 ADD SWAP1 POP DUP2 DUP2 SUB PUSH1 0x0 DUP4 ADD MSTORE PUSH2 0x9AA DUP2 PUSH2 0x96E JUMP JUMPDEST SWAP1 POP SWAP2 SWAP1 POP JUMP JUMPDEST PUSH32 0x796F752063616E2052756E20746865204576656E747300000000000000000000 PUSH1 0x0 DUP3 ADD MSTORE POP JUMP JUMPDEST PUSH1 0x0 PUSH2 0x9E7 PUSH1 0x16 DUP4 PUSH2 0x793 JUMP JUMPDEST SWAP2 POP PUSH2 0x9F2 DUP3 PUSH2 0x9B1 JUMP JUMPDEST PUSH1 0x20 DUP3 ADD SWAP1 POP SWAP2 SWAP1 POP JUMP JUMPDEST PUSH1 0x0 PUSH1 0x20 DUP3 ADD SWAP1 POP DUP2 DUP2 SUB PUSH1 0x0 DUP4 ADD MSTORE PUSH2 0xA16 DUP2 PUSH2 0x9DA JUMP JUMPDEST SWAP1 POP SWAP2 SWAP1 POP JUMP JUMPDEST PUSH32 0x4E487B7100000000000000000000000000000000000000000000000000000000 PUSH1 0x0 MSTORE PUSH1 0x22 PUSH1 0x4 MSTORE PUSH1 0x24 PUSH1 0x0 REVERT JUMPDEST PUSH1 0x0 PUSH1 0x2 DUP3 DIV SWAP1 POP PUSH1 0x1 DUP3 AND DUP1 PUSH2 0xA64 JUMPI PUSH1 0x7F DUP3 AND SWAP2 POP JUMPDEST PUSH1 0x20 DUP3 LT DUP2 SUB PUSH2 0xA77 JUMPI PUSH2 0xA76 PUSH2 0xA1D JUMP JUMPDEST JUMPDEST POP SWAP2 SWAP1 POP JUMP JUMPDEST PUSH1 0x0 DUP2 SWAP1 POP DUP2 PUSH1 0x0 MSTORE PUSH1 0x20 PUSH1 0x0 KECCAK256 SWAP1 POP SWAP2 SWAP1 POP JUMP JUMPDEST PUSH1 0x0 PUSH1 0x20 PUSH1 0x1F DUP4 ADD DIV SWAP1 POP SWAP2 SWAP1 POP JUMP JUMPDEST PUSH1 0x0 DUP3 DUP3 SHL SWAP1 POP SWAP3 SWAP2 POP POP JUMP JUMPDEST PUSH1 0x0 PUSH1 0x8 DUP4 MUL PUSH2 0xADF PUSH32 0xFFFFFFFFFFFFFFFFFFFFFFFFFFFFFFFFFFFFFFFFFFFFFFFFFFFFFFFFFFFFFFFF DUP3 PUSH2 0xAA2 JUMP JUMPDEST PUSH2 0xAE9 DUP7 DUP4 PUSH2 0xAA2 JUMP JUMPDEST SWAP6 POP DUP1 NOT DUP5 AND SWAP4 POP DUP1 DUP7 AND DUP5 OR SWAP3 POP POP POP SWAP4 SWAP3 POP POP POP JUMP JUMPDEST PUSH1 0x0 DUP2 SWAP1 POP SWAP2 SWAP1 POP JUMP JUMPDEST PUSH1 0x0 PUSH2 0xB26 PUSH2 0xB21 PUSH2 0xB1C DUP5 PUSH2 0x661 JUMP JUMPDEST PUSH2 0xB01 JUMP JUMPDEST PUSH2 0x661 JUMP JUMPDEST SWAP1 POP SWAP2 SWAP1 POP JUMP JUMPDEST PUSH1 0x0 DUP2 SWAP1 POP SWAP2 SWAP1 POP JUMP JUMPDEST PUSH2 0xB40 DUP4 PUSH2 0xB0B JUMP JUMPDEST PUSH2 0xB54 PUSH2 0xB4C DUP3 PUSH2 0xB2D JUMP JUMPDEST DUP5 DUP5 SLOAD PUSH2 0xAAF JUMP JUMPDEST DUP3 SSTORE POP POP POP POP JUMP JUMPDEST PUSH1 0x0 SWAP1 JUMP JUMPDEST PUSH2 0xB69 PUSH2 0xB5C JUMP JUMPDEST PUSH2 0xB74 DUP2 DUP5 DUP5 PUSH2 0xB37 JUMP JUMPDEST POP POP POP JUMP JUMPDEST JUMPDEST DUP2 DUP2 LT ISZERO PUSH2 0xB98 JUMPI PUSH2 0xB8D PUSH1 0x0 DUP3 PUSH2 0xB61 JUMP JUMPDEST PUSH1 0x1 DUP2 ADD SWAP1 POP PUSH2 0xB7A JUMP JUMPDEST POP POP JUMP JUMPDEST PUSH1 0x1F DUP3 GT ISZERO PUSH2 0xBDD JUMPI PUSH2 0xBAE DUP2 PUSH2 0xA7D JUMP JUMPDEST PUSH2 0xBB7 DUP5 PUSH2 0xA92 JUMP JUMPDEST DUP2 ADD PUSH1 0x20 DUP6 LT ISZERO PUSH2 0xBC6 JUMPI DUP2 SWAP1 POP JUMPDEST PUSH2 0xBDA PUSH2 0xBD2 DUP6 PUSH2 0xA92 JUMP JUMPDEST DUP4 ADD DUP3 PUSH2 0xB79 JUMP JUMPDEST POP POP JUMPDEST POP POP POP JUMP JUMPDEST PUSH1 0x0 DUP3 DUP3 SHR SWAP1 POP SWAP3 SWAP2 POP POP JUMP JUMPDEST PUSH1 0x0 PUSH2 0xC00 PUSH1 0x0 NOT DUP5 PUSH1 0x8 MUL PUSH2 0xBE2 JUMP JUMPDEST NOT DUP1 DUP4 AND SWAP2 POP POP SWAP3 SWAP2 POP POP JUMP JUMPDEST PUSH1 0x0 PUSH2 0xC19 DUP4 DUP4 PUSH2 0xBEF JUMP JUMPDEST SWAP2 POP DUP3 PUSH1 0x2 MUL DUP3 OR SWAP1 POP SWAP3 SWAP2 POP POP JUMP JUMPDEST PUSH2 0xC32 DUP3 PUSH2 0x788 JUMP JUMPDEST PUSH8 0xFFFFFFFFFFFFFFFF DUP2 GT ISZERO PUSH2 0xC4B JUMPI PUSH2 0xC4A PUSH2 0x536 JUMP JUMPDEST JUMPDEST PUSH2 0xC55 DUP3 SLOAD PUSH2 0xA4C JUMP JUMPDEST PUSH2 0xC60 DUP3 DUP3 DUP6 PUSH2 0xB9C JUMP JUMPDEST PUSH1 0x0 PUSH1 0x20 SWAP1 POP PUSH1 0x1F DUP4 GT PUSH1 0x1 DUP2 EQ PUSH2 0xC93 JUMPI PUSH1 0x0 DUP5 ISZERO PUSH2 0xC81 JUMPI DUP3 DUP8 ADD MLOAD SWAP1 POP JUMPDEST PUSH2 0xC8B DUP6 DUP3 PUSH2 0xC0D JUMP JUMPDEST DUP7 SSTORE POP PUSH2 0xCF3 JUMP JUMPDEST PUSH1 0x1F NOT DUP5 AND PUSH2 0xCA1 DUP7 PUSH2 0xA7D JUMP JUMPDEST PUSH1 0x0 JUMPDEST DUP3 DUP2 LT ISZERO PUSH2 0xCC9 JUMPI DUP5 DUP10 ADD MLOAD DUP3 SSTORE PUSH1 0x1 DUP3 ADD SWAP2 POP PUSH1 0x20 DUP6 ADD SWAP5 POP PUSH1 0x20 DUP2 ADD SWAP1 POP PUSH2 0xCA4 JUMP JUMPDEST DUP7 DUP4 LT ISZERO PUSH2 0xCE6 JUMPI DUP5 DUP10 ADD MLOAD PUSH2 0xCE2 PUSH1 0x1F DUP10 AND DUP3 PUSH2 0xBEF JUMP JUMPDEST DUP4 SSTORE POP JUMPDEST PUSH1 0x1 PUSH1 0x2 DUP9 MUL ADD DUP9 SSTORE POP POP POP JUMPDEST POP POP POP POP POP POP JUMP JUMPDEST PUSH32 0x4E487B7100000000000000000000000000000000000000000000000000000000 PUSH1 0x0 MSTORE PUSH1 0x11 PUSH1 0x4 MSTORE PUSH1 0x24 PUSH1 0x0 REVERT JUMPDEST PUSH1 0x0 PUSH2 0xD35 DUP3 PUSH2 0x661 JUMP JUMPDEST SWAP2 POP PUSH32 0xFFFFFFFFFFFFFFFFFFFFFFFFFFFFFFFFFFFFFFFFFFFFFFFFFFFFFFFFFFFFFFFF DUP3 SUB PUSH2 0xD67 JUMPI PUSH2 0xD66 PUSH2 0xCFB JUMP JUMPDEST JUMPDEST PUSH1 0x1 DUP3 ADD SWAP1 POP SWAP2 SWAP1 POP JUMP JUMPDEST PUSH32 0x5468652074696D6520686173206C6F7373000000000000000000000000000000 PUSH1 0x0 DUP3 ADD MSTORE POP JUMP JUMPDEST PUSH1 0x0 PUSH2 0xDA8 PUSH1 0x11 DUP4 PUSH2 0x793 JUMP JUMPDEST SWAP2 POP PUSH2 0xDB3 DUP3 PUSH2 0xD72 JUMP JUMPDEST PUSH1 0x20 DUP3 ADD SWAP1 POP SWAP2 SWAP1 POP JUMP JUMPDEST PUSH1 0x0 PUSH1 0x20 DUP3 ADD SWAP1 POP DUP2 DUP2 SUB PUSH1 0x0 DUP4 ADD MSTORE PUSH2 0xDD7 DUP2 PUSH2 0xD9B JUMP JUMPDEST SWAP1 POP SWAP2 SWAP1 POP JUMP JUMPDEST PUSH32 0x746865207469636B657420686173206C6F737300000000000000000000000000 PUSH1 0x0 DUP3 ADD MSTORE POP JUMP JUMPDEST PUSH1 0x0 PUSH2 0xE14 PUSH1 0x13 DUP4 PUSH2 0x793 JUMP JUMPDEST SWAP2 POP PUSH2 0xE1F DUP3 PUSH2 0xDDE JUMP JUMPDEST PUSH1 0x20 DUP3 ADD SWAP1 POP SWAP2 SWAP1 POP JUMP JUMPDEST PUSH1 0x0 PUSH1 0x20 DUP3 ADD SWAP1 POP DUP2 DUP2 SUB PUSH1 0x0 DUP4 ADD MSTORE PUSH2 0xE43 DUP2 PUSH2 0xE07 JUMP JUMPDEST SWAP1 POP SWAP2 SWAP1 POP JUMP JUMPDEST PUSH1 0x0 PUSH2 0xE55 DUP3 PUSH2 0x661 JUMP JUMPDEST SWAP2 POP PUSH2 0xE60 DUP4 PUSH2 0x661 JUMP JUMPDEST SWAP3 POP DUP3 DUP3 MUL PUSH2 0xE6E DUP2 PUSH2 0x661 JUMP JUMPDEST SWAP2 POP DUP3 DUP3 DIV DUP5 EQ DUP4 ISZERO OR PUSH2 0xE85 JUMPI PUSH2 0xE84 PUSH2 0xCFB JUMP JUMPDEST JUMPDEST POP SWAP3 SWAP2 POP POP JUMP JUMPDEST PUSH32 0x596F7572206E6F74206162626C6520746F206163636573730000000000000000 PUSH1 0x0 DUP3 ADD MSTORE POP JUMP JUMPDEST PUSH1 0x0 PUSH2 0xEC2 PUSH1 0x18 DUP4 PUSH2 0x793 JUMP JUMPDEST SWAP2 POP PUSH2 0xECD DUP3 PUSH2 0xE8C JUMP JUMPDEST PUSH1 0x20 DUP3 ADD SWAP1 POP SWAP2 SWAP1 POP JUMP JUMPDEST PUSH1 0x0 PUSH1 0x20 DUP3 ADD SWAP1 POP DUP2 DUP2 SUB PUSH1 0x0 DUP4 ADD MSTORE PUSH2 0xEF1 DUP2 PUSH2 0xEB5 JUMP JUMPDEST SWAP1 POP SWAP2 SWAP1 POP JUMP JUMPDEST PUSH32 0x4E6F7468696E6700000000000000000000000000000000000000000000000000 PUSH1 0x0 DUP3 ADD MSTORE POP JUMP JUMPDEST PUSH1 0x0 PUSH2 0xF2E PUSH1 0x7 DUP4 PUSH2 0x793 JUMP JUMPDEST SWAP2 POP PUSH2 0xF39 DUP3 PUSH2 0xEF8 JUMP JUMPDEST PUSH1 0x20 DUP3 ADD SWAP1 POP SWAP2 SWAP1 POP JUMP JUMPDEST PUSH1 0x0 PUSH1 0x20 DUP3 ADD SWAP1 POP DUP2 DUP2 SUB PUSH1 0x0 DUP4 ADD MSTORE PUSH2 0xF5D DUP2 PUSH2 0xF21 JUMP JUMPDEST SWAP1 POP SWAP2 SWAP1 POP JUMP INVALID LOG2 PUSH5 0x6970667358 0x22 SLT KECCAK256 0xF 0x4C 0xB6 SWAP13 PUSH6 0x7AD0A787B681 SHL STATICCALL SUB CALLVALUE 0xA7 PUSH15 0x3DA0413D81608C2B4E198BBD069703 PUSH5 0x736F6C6343 STOP ADDMOD GT STOP CALLER "
				},
				"gasEstimates": {
					"creation": {
						"codeDepositCost": "798800",
						"executionCost": "831",
						"totalCost": "799631"
					},
					"external": {
						"buyTicket(uint256,uint256)": "infinite",
						"createEvent(string,uint256,uint256,uint256)": "infinite",
						"events(uint256)": "infinite",
						"ticket(address,uint256)": "infinite"
					}
				},
				"methodIdentifiers": {
					"buyTicket(uint256,uint256)": "298ec208",
					"createEvent(string,uint256,uint256,uint256)": "0374ab0b",
					"events(uint256)": "0b791430",
					"ticket(address,uint256)": "e11bb64d"
				}
			},
			"storageLayout": {
				"storage": [
					{
						"astId": 19,
						"contract": "Event.sol:OrganizingEvent",
						"label": "events",
						"offset": 0,
						"slot": "0",
						"type": "t_mapping(t_uint256,t_struct(Event)14_storage)"
					},
					{
						"astId": 25,
						"contract": "Event.sol:OrganizingEvent",
						"label": "ticket",
						"offset": 0,
						"slot": "1",
						"type": "t_mapping(t_address,t_mapping(t_uint256,t_uint256))"
					},
					{
						"astId": 27,
						"contract": "Event.sol:OrganizingEvent",
						"label": "nextId",
						"offset": 0,
						"slot": "2",
						"type": "t_uint256"
					}
				],
				"types": {
					"t_address": {
						"encoding": "inplace",
						"label": "address",
						"numberOfBytes": "20"
					},
					"t_mapping(t_address,t_mapping(t_uint256,t_uint256))": {
						"encoding": "mapping",
						"key": "t_address",
						"label": "mapping(address => mapping(uint256 => uint256))",
						"numberOfBytes": "32",
						"value": "t_mapping(t_uint256,t_uint256)"
					},
					"t_mapping(t_uint256,t_struct(Event)14_storage)": {
						"encoding": "mapping",
						"key": "t_uint256",
						"label": "mapping(uint256 => struct OrganizingEvent.Event)",
						"numberOfBytes": "32",
						"value": "t_struct(Event)14_storage"
					},
					"t_mapping(t_uint256,t_uint256)": {
						"encoding": "mapping",
						"key": "t_uint256",
						"label": "mapping(uint256 => uint256)",
						"numberOfBytes": "32",
						"value": "t_uint256"
					},
					"t_string_storage": {
						"encoding": "bytes",
						"label": "string",
						"numberOfBytes": "32"
					},
					"t_struct(Event)14_storage": {
						"encoding": "inplace",
						"label": "struct OrganizingEvent.Event",
						"members": [
							{
								"astId": 3,
								"contract": "Event.sol:OrganizingEvent",
								"label": "organizer",
								"offset": 0,
								"slot": "0",
								"type": "t_address"
							},
							{
								"astId": 5,
								"contract": "Event.sol:OrganizingEvent",
								"label": "name",
								"offset": 0,
								"slot": "1",
								"type": "t_string_storage"
							},
							{
								"astId": 7,
								"contract": "Event.sol:OrganizingEvent",
								"label": "date",
								"offset": 0,
								"slot": "2",
								"type": "t_uint256"
							},
							{
								"astId": 9,
								"contract": "Event.sol:OrganizingEvent",
								"label": "price",
								"offset": 0,
								"slot": "3",
								"type": "t_uint256"
							},
							{
								"astId": 11,
								"contract": "Event.sol:OrganizingEvent",
								"label": "ticketOpen",
								"offset": 0,
								"slot": "4",
								"type": "t_uint256"
							},
							{
								"astId": 13,
								"contract": "Event.sol:OrganizingEvent",
								"label": "ticketRemain",
								"offset": 0,
								"slot": "5",
								"type": "t_uint256"
							}
						],
						"numberOfBytes": "192"
					},
					"t_uint256": {
						"encoding": "inplace",
						"label": "uint256",
						"numberOfBytes": "32"
					}
				}
			},
			"userdoc": {
				"kind": "user",
				"methods": {},
				"version": 1
			}
		}
	}
}