{
	"Event.sol": {
		"OrganizingEvent": {
			"abi": [
				{
					"inputs": [
						{
							"internalType": "address",
							"name": "_organizer",
							"type": "address"
						},
						{
							"internalType": "string",
							"name": "_name",
							"type": "string"
						},
						{
							"internalType": "uint256",
							"name": "_date",
							"type": "uint256"
						},
						{
							"internalType": "uint256",
							"name": "_price",
							"type": "uint256"
						},
						{
							"internalType": "uint256",
							"name": "_ticketOpen",
							"type": "uint256"
						}
					],
					"name": "createEvent",
					"outputs": [],
					"stateMutability": "nonpayable",
					"type": "function"
				},
				{
					"inputs": [
						{
							"internalType": "uint256",
							"name": "",
							"type": "uint256"
						}
					],
					"name": "events",
					"outputs": [
						{
							"internalType": "address",
							"name": "organizer",
							"type": "address"
						},
						{
							"internalType": "string",
							"name": "name",
							"type": "string"
						},
						{
							"internalType": "uint256",
							"name": "date",
							"type": "uint256"
						},
						{
							"internalType": "uint256",
							"name": "price",
							"type": "uint256"
						},
						{
							"internalType": "uint256",
							"name": "ticketOpen",
							"type": "uint256"
						},
						{
							"internalType": "uint256",
							"name": "ticketRemain",
							"type": "uint256"
						}
					],
					"stateMutability": "view",
					"type": "function"
				},
				{
					"inputs": [
						{
							"internalType": "address",
							"name": "",
							"type": "address"
						},
						{
							"internalType": "uint256",
							"name": "",
							"type": "uint256"
						}
					],
					"name": "ticket",
					"outputs": [
						{
							"internalType": "uint256",
							"name": "",
							"type": "uint256"
						}
					],
					"stateMutability": "view",
					"type": "function"
				}
			],
			"devdoc": {
				"kind": "dev",
				"methods": {},
				"version": 1
			},
			"evm": {
				"assembly": "    /* \"Event.sol\":74:594  contract OrganizingEvent{... */\n  mstore(0x40, 0x80)\n  callvalue\n  dup1\n  iszero\n  tag_1\n  jumpi\n  0x00\n  dup1\n  revert\ntag_1:\n  pop\n  dataSize(sub_0)\n  dup1\n  dataOffset(sub_0)\n  0x00\n  codecopy\n  0x00\n  return\nstop\n\nsub_0: assembly {\n        /* \"Event.sol\":74:594  contract OrganizingEvent{... */\n      mstore(0x40, 0x80)\n      callvalue\n      dup1\n      iszero\n      tag_1\n      jumpi\n      0x00\n      dup1\n      revert\n    tag_1:\n      pop\n      jumpi(tag_2, lt(calldatasize, 0x04))\n      shr(0xe0, calldataload(0x00))\n      dup1\n      0x0b791430\n      eq\n      tag_3\n      jumpi\n      dup1\n      0xc55b9f9b\n      eq\n      tag_4\n      jumpi\n      dup1\n      0xe11bb64d\n      eq\n      tag_5\n      jumpi\n    tag_2:\n      0x00\n      dup1\n      revert\n        /* \"Event.sol\":278:312  mapping(uint=>Event) public events */\n    tag_3:\n      tag_6\n      0x04\n      dup1\n      calldatasize\n      sub\n      dup2\n      add\n      swap1\n      tag_7\n      swap2\n      swap1\n      tag_8\n      jump\t// in\n    tag_7:\n      tag_9\n      jump\t// in\n    tag_6:\n      mload(0x40)\n      tag_10\n      swap7\n      swap6\n      swap5\n      swap4\n      swap3\n      swap2\n      swap1\n      tag_11\n      jump\t// in\n    tag_10:\n      mload(0x40)\n      dup1\n      swap2\n      sub\n      swap1\n      return\n        /* \"Event.sol\":397:587  function createEvent(address _organizer,string memory _name,uint _date,uint _price,uint _ticketOpen) external {... */\n    tag_4:\n      tag_12\n      0x04\n      dup1\n      calldatasize\n      sub\n      dup2\n      add\n      swap1\n      tag_13\n      swap2\n      swap1\n      tag_14\n      jump\t// in\n    tag_13:\n      tag_15\n      jump\t// in\n    tag_12:\n      stop\n        /* \"Event.sol\":319:370  mapping(address=>mapping(uint=>uint)) public ticket */\n    tag_5:\n      tag_16\n      0x04\n      dup1\n      calldatasize\n      sub\n      dup2\n      add\n      swap1\n      tag_17\n      swap2\n      swap1\n      tag_18\n      jump\t// in\n    tag_17:\n      tag_19\n      jump\t// in\n    tag_16:\n      mload(0x40)\n      tag_20\n      swap2\n      swap1\n      tag_21\n      jump\t// in\n    tag_20:\n      mload(0x40)\n      dup1\n      swap2\n      sub\n      swap1\n      return\n        /* \"Event.sol\":278:312  mapping(uint=>Event) public events */\n    tag_9:\n      mstore(0x20, 0x00)\n      dup1\n      0x00\n      mstore\n      keccak256(0x00, 0x40)\n      0x00\n      swap2\n      pop\n      swap1\n      pop\n      dup1\n      0x00\n      add\n      0x00\n      swap1\n      sload\n      swap1\n      0x0100\n      exp\n      swap1\n      div\n      0xffffffffffffffffffffffffffffffffffffffff\n      and\n      swap1\n      dup1\n      0x01\n      add\n      dup1\n      sload\n      tag_22\n      swap1\n      tag_23\n      jump\t// in\n    tag_22:\n      dup1\n      0x1f\n      add\n      0x20\n      dup1\n      swap2\n      div\n      mul\n      0x20\n      add\n      mload(0x40)\n      swap1\n      dup2\n      add\n      0x40\n      mstore\n      dup1\n      swap3\n      swap2\n      swap1\n      dup2\n      dup2\n      mstore\n      0x20\n      add\n      dup3\n      dup1\n      sload\n      tag_24\n      swap1\n      tag_23\n      jump\t// in\n    tag_24:\n      dup1\n      iszero\n      tag_25\n      jumpi\n      dup1\n      0x1f\n      lt\n      tag_26\n      jumpi\n      0x0100\n      dup1\n      dup4\n      sload\n      div\n      mul\n      dup4\n      mstore\n      swap2\n      0x20\n      add\n      swap2\n      jump(tag_25)\n    tag_26:\n      dup3\n      add\n      swap2\n      swap1\n      0x00\n      mstore\n      keccak256(0x00, 0x20)\n      swap1\n    tag_27:\n      dup2\n      sload\n      dup2\n      mstore\n      swap1\n      0x01\n      add\n      swap1\n      0x20\n      add\n      dup1\n      dup4\n      gt\n      tag_27\n      jumpi\n      dup3\n      swap1\n      sub\n      0x1f\n      and\n      dup3\n      add\n      swap2\n    tag_25:\n      pop\n      pop\n      pop\n      pop\n      pop\n      swap1\n      dup1\n      0x02\n      add\n      sload\n      swap1\n      dup1\n      0x03\n      add\n      sload\n      swap1\n      dup1\n      0x04\n      add\n      sload\n      swap1\n      dup1\n      0x05\n      add\n      sload\n      swap1\n      pop\n      dup7\n      jump\t// out\n        /* \"Event.sol\":397:587  function createEvent(address _organizer,string memory _name,uint _date,uint _price,uint _ticketOpen) external {... */\n    tag_15:\n        /* \"Event.sol\":532:547  block.timestamp */\n      timestamp\n        /* \"Event.sol\":526:531  _date */\n      dup4\n        /* \"Event.sol\":526:547  _date>block.timestamp */\n      gt\n        /* \"Event.sol\":518:569  require(_date>block.timestamp,\"The Event has over\") */\n      tag_29\n      jumpi\n      mload(0x40)\n      0x08c379a000000000000000000000000000000000000000000000000000000000\n      dup2\n      mstore\n      0x04\n      add\n      tag_30\n      swap1\n      tag_31\n      jump\t// in\n    tag_30:\n      mload(0x40)\n      dup1\n      swap2\n      sub\n      swap1\n      revert\n    tag_29:\n        /* \"Event.sol\":397:587  function createEvent(address _organizer,string memory _name,uint _date,uint _price,uint _ticketOpen) external {... */\n      pop\n      pop\n      pop\n      pop\n      pop\n      jump\t// out\n        /* \"Event.sol\":319:370  mapping(address=>mapping(uint=>uint)) public ticket */\n    tag_19:\n      mstore(0x20, 0x01)\n      dup2\n      0x00\n      mstore\n      mstore(0x20, keccak256(0x00, 0x40))\n      dup1\n      0x00\n      mstore\n      keccak256(0x00, 0x40)\n      0x00\n      swap2\n      pop\n      swap2\n      pop\n      pop\n      sload\n      dup2\n      jump\t// out\n        /* \"#utility.yul\":7:82   */\n    tag_32:\n        /* \"#utility.yul\":40:46   */\n      0x00\n        /* \"#utility.yul\":73:75   */\n      0x40\n        /* \"#utility.yul\":67:76   */\n      mload\n        /* \"#utility.yul\":57:76   */\n      swap1\n      pop\n        /* \"#utility.yul\":7:82   */\n      swap1\n      jump\t// out\n        /* \"#utility.yul\":88:205   */\n    tag_33:\n        /* \"#utility.yul\":197:198   */\n      0x00\n        /* \"#utility.yul\":194:195   */\n      dup1\n        /* \"#utility.yul\":187:199   */\n      revert\n        /* \"#utility.yul\":211:328   */\n    tag_34:\n        /* \"#utility.yul\":320:321   */\n      0x00\n        /* \"#utility.yul\":317:318   */\n      dup1\n        /* \"#utility.yul\":310:322   */\n      revert\n        /* \"#utility.yul\":334:411   */\n    tag_35:\n        /* \"#utility.yul\":371:378   */\n      0x00\n        /* \"#utility.yul\":400:405   */\n      dup2\n        /* \"#utility.yul\":389:405   */\n      swap1\n      pop\n        /* \"#utility.yul\":334:411   */\n      swap2\n      swap1\n      pop\n      jump\t// out\n        /* \"#utility.yul\":417:539   */\n    tag_36:\n        /* \"#utility.yul\":490:514   */\n      tag_67\n        /* \"#utility.yul\":508:513   */\n      dup2\n        /* \"#utility.yul\":490:514   */\n      tag_35\n      jump\t// in\n    tag_67:\n        /* \"#utility.yul\":483:488   */\n      dup2\n        /* \"#utility.yul\":480:515   */\n      eq\n        /* \"#utility.yul\":470:533   */\n      tag_68\n      jumpi\n        /* \"#utility.yul\":529:530   */\n      0x00\n        /* \"#utility.yul\":526:527   */\n      dup1\n        /* \"#utility.yul\":519:531   */\n      revert\n        /* \"#utility.yul\":470:533   */\n    tag_68:\n        /* \"#utility.yul\":417:539   */\n      pop\n      jump\t// out\n        /* \"#utility.yul\":545:684   */\n    tag_37:\n        /* \"#utility.yul\":591:596   */\n      0x00\n        /* \"#utility.yul\":629:635   */\n      dup2\n        /* \"#utility.yul\":616:636   */\n      calldataload\n        /* \"#utility.yul\":607:636   */\n      swap1\n      pop\n        /* \"#utility.yul\":645:678   */\n      tag_70\n        /* \"#utility.yul\":672:677   */\n      dup2\n        /* \"#utility.yul\":645:678   */\n      tag_36\n      jump\t// in\n    tag_70:\n        /* \"#utility.yul\":545:684   */\n      swap3\n      swap2\n      pop\n      pop\n      jump\t// out\n        /* \"#utility.yul\":690:1019   */\n    tag_8:\n        /* \"#utility.yul\":749:755   */\n      0x00\n        /* \"#utility.yul\":798:800   */\n      0x20\n        /* \"#utility.yul\":786:795   */\n      dup3\n        /* \"#utility.yul\":777:784   */\n      dup5\n        /* \"#utility.yul\":773:796   */\n      sub\n        /* \"#utility.yul\":769:801   */\n      slt\n        /* \"#utility.yul\":766:885   */\n      iszero\n      tag_72\n      jumpi\n        /* \"#utility.yul\":804:883   */\n      tag_73\n      tag_33\n      jump\t// in\n    tag_73:\n        /* \"#utility.yul\":766:885   */\n    tag_72:\n        /* \"#utility.yul\":924:925   */\n      0x00\n        /* \"#utility.yul\":949:1002   */\n      tag_74\n        /* \"#utility.yul\":994:1001   */\n      dup5\n        /* \"#utility.yul\":985:991   */\n      dup3\n        /* \"#utility.yul\":974:983   */\n      dup6\n        /* \"#utility.yul\":970:992   */\n      add\n        /* \"#utility.yul\":949:1002   */\n      tag_37\n      jump\t// in\n    tag_74:\n        /* \"#utility.yul\":939:1002   */\n      swap2\n      pop\n        /* \"#utility.yul\":895:1012   */\n      pop\n        /* \"#utility.yul\":690:1019   */\n      swap3\n      swap2\n      pop\n      pop\n      jump\t// out\n        /* \"#utility.yul\":1025:1151   */\n    tag_38:\n        /* \"#utility.yul\":1062:1069   */\n      0x00\n        /* \"#utility.yul\":1102:1144   */\n      0xffffffffffffffffffffffffffffffffffffffff\n        /* \"#utility.yul\":1095:1100   */\n      dup3\n        /* \"#utility.yul\":1091:1145   */\n      and\n        /* \"#utility.yul\":1080:1145   */\n      swap1\n      pop\n        /* \"#utility.yul\":1025:1151   */\n      swap2\n      swap1\n      pop\n      jump\t// out\n        /* \"#utility.yul\":1157:1253   */\n    tag_39:\n        /* \"#utility.yul\":1194:1201   */\n      0x00\n        /* \"#utility.yul\":1223:1247   */\n      tag_77\n        /* \"#utility.yul\":1241:1246   */\n      dup3\n        /* \"#utility.yul\":1223:1247   */\n      tag_38\n      jump\t// in\n    tag_77:\n        /* \"#utility.yul\":1212:1247   */\n      swap1\n      pop\n        /* \"#utility.yul\":1157:1253   */\n      swap2\n      swap1\n      pop\n      jump\t// out\n        /* \"#utility.yul\":1259:1377   */\n    tag_40:\n        /* \"#utility.yul\":1346:1370   */\n      tag_79\n        /* \"#utility.yul\":1364:1369   */\n      dup2\n        /* \"#utility.yul\":1346:1370   */\n      tag_39\n      jump\t// in\n    tag_79:\n        /* \"#utility.yul\":1341:1344   */\n      dup3\n        /* \"#utility.yul\":1334:1371   */\n      mstore\n        /* \"#utility.yul\":1259:1377   */\n      pop\n      pop\n      jump\t// out\n        /* \"#utility.yul\":1383:1482   */\n    tag_41:\n        /* \"#utility.yul\":1435:1441   */\n      0x00\n        /* \"#utility.yul\":1469:1474   */\n      dup2\n        /* \"#utility.yul\":1463:1475   */\n      mload\n        /* \"#utility.yul\":1453:1475   */\n      swap1\n      pop\n        /* \"#utility.yul\":1383:1482   */\n      swap2\n      swap1\n      pop\n      jump\t// out\n        /* \"#utility.yul\":1488:1657   */\n    tag_42:\n        /* \"#utility.yul\":1572:1583   */\n      0x00\n        /* \"#utility.yul\":1606:1612   */\n      dup3\n        /* \"#utility.yul\":1601:1604   */\n      dup3\n        /* \"#utility.yul\":1594:1613   */\n      mstore\n        /* \"#utility.yul\":1646:1650   */\n      0x20\n        /* \"#utility.yul\":1641:1644   */\n      dup3\n        /* \"#utility.yul\":1637:1651   */\n      add\n        /* \"#utility.yul\":1622:1651   */\n      swap1\n      pop\n        /* \"#utility.yul\":1488:1657   */\n      swap3\n      swap2\n      pop\n      pop\n      jump\t// out\n        /* \"#utility.yul\":1663:1909   */\n    tag_43:\n        /* \"#utility.yul\":1744:1745   */\n      0x00\n        /* \"#utility.yul\":1754:1867   */\n    tag_83:\n        /* \"#utility.yul\":1768:1774   */\n      dup4\n        /* \"#utility.yul\":1765:1766   */\n      dup2\n        /* \"#utility.yul\":1762:1775   */\n      lt\n        /* \"#utility.yul\":1754:1867   */\n      iszero\n      tag_85\n      jumpi\n        /* \"#utility.yul\":1853:1854   */\n      dup1\n        /* \"#utility.yul\":1848:1851   */\n      dup3\n        /* \"#utility.yul\":1844:1855   */\n      add\n        /* \"#utility.yul\":1838:1856   */\n      mload\n        /* \"#utility.yul\":1834:1835   */\n      dup2\n        /* \"#utility.yul\":1829:1832   */\n      dup5\n        /* \"#utility.yul\":1825:1836   */\n      add\n        /* \"#utility.yul\":1818:1857   */\n      mstore\n        /* \"#utility.yul\":1790:1792   */\n      0x20\n        /* \"#utility.yul\":1787:1788   */\n      dup2\n        /* \"#utility.yul\":1783:1793   */\n      add\n        /* \"#utility.yul\":1778:1793   */\n      swap1\n      pop\n        /* \"#utility.yul\":1754:1867   */\n      jump(tag_83)\n    tag_85:\n        /* \"#utility.yul\":1901:1902   */\n      0x00\n        /* \"#utility.yul\":1892:1898   */\n      dup5\n        /* \"#utility.yul\":1887:1890   */\n      dup5\n        /* \"#utility.yul\":1883:1899   */\n      add\n        /* \"#utility.yul\":1876:1903   */\n      mstore\n        /* \"#utility.yul\":1725:1909   */\n      pop\n        /* \"#utility.yul\":1663:1909   */\n      pop\n      pop\n      pop\n      jump\t// out\n        /* \"#utility.yul\":1915:2017   */\n    tag_44:\n        /* \"#utility.yul\":1956:1962   */\n      0x00\n        /* \"#utility.yul\":2007:2009   */\n      0x1f\n        /* \"#utility.yul\":2003:2010   */\n      not\n        /* \"#utility.yul\":1998:2000   */\n      0x1f\n        /* \"#utility.yul\":1991:1996   */\n      dup4\n        /* \"#utility.yul\":1987:2001   */\n      add\n        /* \"#utility.yul\":1983:2011   */\n      and\n        /* \"#utility.yul\":1973:2011   */\n      swap1\n      pop\n        /* \"#utility.yul\":1915:2017   */\n      swap2\n      swap1\n      pop\n      jump\t// out\n        /* \"#utility.yul\":2023:2400   */\n    tag_45:\n        /* \"#utility.yul\":2111:2114   */\n      0x00\n        /* \"#utility.yul\":2139:2178   */\n      tag_88\n        /* \"#utility.yul\":2172:2177   */\n      dup3\n        /* \"#utility.yul\":2139:2178   */\n      tag_41\n      jump\t// in\n    tag_88:\n        /* \"#utility.yul\":2194:2265   */\n      tag_89\n        /* \"#utility.yul\":2258:2264   */\n      dup2\n        /* \"#utility.yul\":2253:2256   */\n      dup6\n        /* \"#utility.yul\":2194:2265   */\n      tag_42\n      jump\t// in\n    tag_89:\n        /* \"#utility.yul\":2187:2265   */\n      swap4\n      pop\n        /* \"#utility.yul\":2274:2339   */\n      tag_90\n        /* \"#utility.yul\":2332:2338   */\n      dup2\n        /* \"#utility.yul\":2327:2330   */\n      dup6\n        /* \"#utility.yul\":2320:2324   */\n      0x20\n        /* \"#utility.yul\":2313:2318   */\n      dup7\n        /* \"#utility.yul\":2309:2325   */\n      add\n        /* \"#utility.yul\":2274:2339   */\n      tag_43\n      jump\t// in\n    tag_90:\n        /* \"#utility.yul\":2364:2393   */\n      tag_91\n        /* \"#utility.yul\":2386:2392   */\n      dup2\n        /* \"#utility.yul\":2364:2393   */\n      tag_44\n      jump\t// in\n    tag_91:\n        /* \"#utility.yul\":2359:2362   */\n      dup5\n        /* \"#utility.yul\":2355:2394   */\n      add\n        /* \"#utility.yul\":2348:2394   */\n      swap2\n      pop\n        /* \"#utility.yul\":2115:2400   */\n      pop\n        /* \"#utility.yul\":2023:2400   */\n      swap3\n      swap2\n      pop\n      pop\n      jump\t// out\n        /* \"#utility.yul\":2406:2524   */\n    tag_46:\n        /* \"#utility.yul\":2493:2517   */\n      tag_93\n        /* \"#utility.yul\":2511:2516   */\n      dup2\n        /* \"#utility.yul\":2493:2517   */\n      tag_35\n      jump\t// in\n    tag_93:\n        /* \"#utility.yul\":2488:2491   */\n      dup3\n        /* \"#utility.yul\":2481:2518   */\n      mstore\n        /* \"#utility.yul\":2406:2524   */\n      pop\n      pop\n      jump\t// out\n        /* \"#utility.yul\":2530:3396   */\n    tag_11:\n        /* \"#utility.yul\":2783:2787   */\n      0x00\n        /* \"#utility.yul\":2821:2824   */\n      0xc0\n        /* \"#utility.yul\":2810:2819   */\n      dup3\n        /* \"#utility.yul\":2806:2825   */\n      add\n        /* \"#utility.yul\":2798:2825   */\n      swap1\n      pop\n        /* \"#utility.yul\":2835:2906   */\n      tag_95\n        /* \"#utility.yul\":2903:2904   */\n      0x00\n        /* \"#utility.yul\":2892:2901   */\n      dup4\n        /* \"#utility.yul\":2888:2905   */\n      add\n        /* \"#utility.yul\":2879:2885   */\n      dup10\n        /* \"#utility.yul\":2835:2906   */\n      tag_40\n      jump\t// in\n    tag_95:\n        /* \"#utility.yul\":2953:2962   */\n      dup2\n        /* \"#utility.yul\":2947:2951   */\n      dup2\n        /* \"#utility.yul\":2943:2963   */\n      sub\n        /* \"#utility.yul\":2938:2940   */\n      0x20\n        /* \"#utility.yul\":2927:2936   */\n      dup4\n        /* \"#utility.yul\":2923:2941   */\n      add\n        /* \"#utility.yul\":2916:2964   */\n      mstore\n        /* \"#utility.yul\":2981:3059   */\n      tag_96\n        /* \"#utility.yul\":3054:3058   */\n      dup2\n        /* \"#utility.yul\":3045:3051   */\n      dup9\n        /* \"#utility.yul\":2981:3059   */\n      tag_45\n      jump\t// in\n    tag_96:\n        /* \"#utility.yul\":2973:3059   */\n      swap1\n      pop\n        /* \"#utility.yul\":3069:3141   */\n      tag_97\n        /* \"#utility.yul\":3137:3139   */\n      0x40\n        /* \"#utility.yul\":3126:3135   */\n      dup4\n        /* \"#utility.yul\":3122:3140   */\n      add\n        /* \"#utility.yul\":3113:3119   */\n      dup8\n        /* \"#utility.yul\":3069:3141   */\n      tag_46\n      jump\t// in\n    tag_97:\n        /* \"#utility.yul\":3151:3223   */\n      tag_98\n        /* \"#utility.yul\":3219:3221   */\n      0x60\n        /* \"#utility.yul\":3208:3217   */\n      dup4\n        /* \"#utility.yul\":3204:3222   */\n      add\n        /* \"#utility.yul\":3195:3201   */\n      dup7\n        /* \"#utility.yul\":3151:3223   */\n      tag_46\n      jump\t// in\n    tag_98:\n        /* \"#utility.yul\":3233:3306   */\n      tag_99\n        /* \"#utility.yul\":3301:3304   */\n      0x80\n        /* \"#utility.yul\":3290:3299   */\n      dup4\n        /* \"#utility.yul\":3286:3305   */\n      add\n        /* \"#utility.yul\":3277:3283   */\n      dup6\n        /* \"#utility.yul\":3233:3306   */\n      tag_46\n      jump\t// in\n    tag_99:\n        /* \"#utility.yul\":3316:3389   */\n      tag_100\n        /* \"#utility.yul\":3384:3387   */\n      0xa0\n        /* \"#utility.yul\":3373:3382   */\n      dup4\n        /* \"#utility.yul\":3369:3388   */\n      add\n        /* \"#utility.yul\":3360:3366   */\n      dup5\n        /* \"#utility.yul\":3316:3389   */\n      tag_46\n      jump\t// in\n    tag_100:\n        /* \"#utility.yul\":2530:3396   */\n      swap8\n      swap7\n      pop\n      pop\n      pop\n      pop\n      pop\n      pop\n      pop\n      jump\t// out\n        /* \"#utility.yul\":3402:3524   */\n    tag_47:\n        /* \"#utility.yul\":3475:3499   */\n      tag_102\n        /* \"#utility.yul\":3493:3498   */\n      dup2\n        /* \"#utility.yul\":3475:3499   */\n      tag_39\n      jump\t// in\n    tag_102:\n        /* \"#utility.yul\":3468:3473   */\n      dup2\n        /* \"#utility.yul\":3465:3500   */\n      eq\n        /* \"#utility.yul\":3455:3518   */\n      tag_103\n      jumpi\n        /* \"#utility.yul\":3514:3515   */\n      0x00\n        /* \"#utility.yul\":3511:3512   */\n      dup1\n        /* \"#utility.yul\":3504:3516   */\n      revert\n        /* \"#utility.yul\":3455:3518   */\n    tag_103:\n        /* \"#utility.yul\":3402:3524   */\n      pop\n      jump\t// out\n        /* \"#utility.yul\":3530:3669   */\n    tag_48:\n        /* \"#utility.yul\":3576:3581   */\n      0x00\n        /* \"#utility.yul\":3614:3620   */\n      dup2\n        /* \"#utility.yul\":3601:3621   */\n      calldataload\n        /* \"#utility.yul\":3592:3621   */\n      swap1\n      pop\n        /* \"#utility.yul\":3630:3663   */\n      tag_105\n        /* \"#utility.yul\":3657:3662   */\n      dup2\n        /* \"#utility.yul\":3630:3663   */\n      tag_47\n      jump\t// in\n    tag_105:\n        /* \"#utility.yul\":3530:3669   */\n      swap3\n      swap2\n      pop\n      pop\n      jump\t// out\n        /* \"#utility.yul\":3675:3792   */\n    tag_49:\n        /* \"#utility.yul\":3784:3785   */\n      0x00\n        /* \"#utility.yul\":3781:3782   */\n      dup1\n        /* \"#utility.yul\":3774:3786   */\n      revert\n        /* \"#utility.yul\":3798:3915   */\n    tag_50:\n        /* \"#utility.yul\":3907:3908   */\n      0x00\n        /* \"#utility.yul\":3904:3905   */\n      dup1\n        /* \"#utility.yul\":3897:3909   */\n      revert\n        /* \"#utility.yul\":3921:4101   */\n    tag_51:\n        /* \"#utility.yul\":3969:4046   */\n      0x4e487b7100000000000000000000000000000000000000000000000000000000\n        /* \"#utility.yul\":3966:3967   */\n      0x00\n        /* \"#utility.yul\":3959:4047   */\n      mstore\n        /* \"#utility.yul\":4066:4070   */\n      0x41\n        /* \"#utility.yul\":4063:4064   */\n      0x04\n        /* \"#utility.yul\":4056:4071   */\n      mstore\n        /* \"#utility.yul\":4090:4094   */\n      0x24\n        /* \"#utility.yul\":4087:4088   */\n      0x00\n        /* \"#utility.yul\":4080:4095   */\n      revert\n        /* \"#utility.yul\":4107:4388   */\n    tag_52:\n        /* \"#utility.yul\":4190:4217   */\n      tag_110\n        /* \"#utility.yul\":4212:4216   */\n      dup3\n        /* \"#utility.yul\":4190:4217   */\n      tag_44\n      jump\t// in\n    tag_110:\n        /* \"#utility.yul\":4182:4188   */\n      dup2\n        /* \"#utility.yul\":4178:4218   */\n      add\n        /* \"#utility.yul\":4320:4326   */\n      dup2\n        /* \"#utility.yul\":4308:4318   */\n      dup2\n        /* \"#utility.yul\":4305:4327   */\n      lt\n        /* \"#utility.yul\":4284:4302   */\n      0xffffffffffffffff\n        /* \"#utility.yul\":4272:4282   */\n      dup3\n        /* \"#utility.yul\":4269:4303   */\n      gt\n        /* \"#utility.yul\":4266:4328   */\n      or\n        /* \"#utility.yul\":4263:4351   */\n      iszero\n      tag_111\n      jumpi\n        /* \"#utility.yul\":4331:4349   */\n      tag_112\n      tag_51\n      jump\t// in\n    tag_112:\n        /* \"#utility.yul\":4263:4351   */\n    tag_111:\n        /* \"#utility.yul\":4371:4381   */\n      dup1\n        /* \"#utility.yul\":4367:4369   */\n      0x40\n        /* \"#utility.yul\":4360:4382   */\n      mstore\n        /* \"#utility.yul\":4150:4388   */\n      pop\n        /* \"#utility.yul\":4107:4388   */\n      pop\n      pop\n      jump\t// out\n        /* \"#utility.yul\":4394:4523   */\n    tag_53:\n        /* \"#utility.yul\":4428:4434   */\n      0x00\n        /* \"#utility.yul\":4455:4475   */\n      tag_114\n      tag_32\n      jump\t// in\n    tag_114:\n        /* \"#utility.yul\":4445:4475   */\n      swap1\n      pop\n        /* \"#utility.yul\":4484:4517   */\n      tag_115\n        /* \"#utility.yul\":4512:4516   */\n      dup3\n        /* \"#utility.yul\":4504:4510   */\n      dup3\n        /* \"#utility.yul\":4484:4517   */\n      tag_52\n      jump\t// in\n    tag_115:\n        /* \"#utility.yul\":4394:4523   */\n      swap2\n      swap1\n      pop\n      jump\t// out\n        /* \"#utility.yul\":4529:4837   */\n    tag_54:\n        /* \"#utility.yul\":4591:4595   */\n      0x00\n        /* \"#utility.yul\":4681:4699   */\n      0xffffffffffffffff\n        /* \"#utility.yul\":4673:4679   */\n      dup3\n        /* \"#utility.yul\":4670:4700   */\n      gt\n        /* \"#utility.yul\":4667:4723   */\n      iszero\n      tag_117\n      jumpi\n        /* \"#utility.yul\":4703:4721   */\n      tag_118\n      tag_51\n      jump\t// in\n    tag_118:\n        /* \"#utility.yul\":4667:4723   */\n    tag_117:\n        /* \"#utility.yul\":4741:4770   */\n      tag_119\n        /* \"#utility.yul\":4763:4769   */\n      dup3\n        /* \"#utility.yul\":4741:4770   */\n      tag_44\n      jump\t// in\n    tag_119:\n        /* \"#utility.yul\":4733:4770   */\n      swap1\n      pop\n        /* \"#utility.yul\":4825:4829   */\n      0x20\n        /* \"#utility.yul\":4819:4823   */\n      dup2\n        /* \"#utility.yul\":4815:4830   */\n      add\n        /* \"#utility.yul\":4807:4830   */\n      swap1\n      pop\n        /* \"#utility.yul\":4529:4837   */\n      swap2\n      swap1\n      pop\n      jump\t// out\n        /* \"#utility.yul\":4843:4989   */\n    tag_55:\n        /* \"#utility.yul\":4940:4946   */\n      dup3\n        /* \"#utility.yul\":4935:4938   */\n      dup2\n        /* \"#utility.yul\":4930:4933   */\n      dup4\n        /* \"#utility.yul\":4917:4947   */\n      calldatacopy\n        /* \"#utility.yul\":4981:4982   */\n      0x00\n        /* \"#utility.yul\":4972:4978   */\n      dup4\n        /* \"#utility.yul\":4967:4970   */\n      dup4\n        /* \"#utility.yul\":4963:4979   */\n      add\n        /* \"#utility.yul\":4956:4983   */\n      mstore\n        /* \"#utility.yul\":4843:4989   */\n      pop\n      pop\n      pop\n      jump\t// out\n        /* \"#utility.yul\":4995:5420   */\n    tag_56:\n        /* \"#utility.yul\":5073:5078   */\n      0x00\n        /* \"#utility.yul\":5098:5164   */\n      tag_122\n        /* \"#utility.yul\":5114:5163   */\n      tag_123\n        /* \"#utility.yul\":5156:5162   */\n      dup5\n        /* \"#utility.yul\":5114:5163   */\n      tag_54\n      jump\t// in\n    tag_123:\n        /* \"#utility.yul\":5098:5164   */\n      tag_53\n      jump\t// in\n    tag_122:\n        /* \"#utility.yul\":5089:5164   */\n      swap1\n      pop\n        /* \"#utility.yul\":5187:5193   */\n      dup3\n        /* \"#utility.yul\":5180:5185   */\n      dup2\n        /* \"#utility.yul\":5173:5194   */\n      mstore\n        /* \"#utility.yul\":5225:5229   */\n      0x20\n        /* \"#utility.yul\":5218:5223   */\n      dup2\n        /* \"#utility.yul\":5214:5230   */\n      add\n        /* \"#utility.yul\":5263:5266   */\n      dup5\n        /* \"#utility.yul\":5254:5260   */\n      dup5\n        /* \"#utility.yul\":5249:5252   */\n      dup5\n        /* \"#utility.yul\":5245:5261   */\n      add\n        /* \"#utility.yul\":5242:5267   */\n      gt\n        /* \"#utility.yul\":5239:5351   */\n      iszero\n      tag_124\n      jumpi\n        /* \"#utility.yul\":5270:5349   */\n      tag_125\n      tag_50\n      jump\t// in\n    tag_125:\n        /* \"#utility.yul\":5239:5351   */\n    tag_124:\n        /* \"#utility.yul\":5360:5414   */\n      tag_126\n        /* \"#utility.yul\":5407:5413   */\n      dup5\n        /* \"#utility.yul\":5402:5405   */\n      dup3\n        /* \"#utility.yul\":5397:5400   */\n      dup6\n        /* \"#utility.yul\":5360:5414   */\n      tag_55\n      jump\t// in\n    tag_126:\n        /* \"#utility.yul\":5079:5420   */\n      pop\n        /* \"#utility.yul\":4995:5420   */\n      swap4\n      swap3\n      pop\n      pop\n      pop\n      jump\t// out\n        /* \"#utility.yul\":5440:5780   */\n    tag_57:\n        /* \"#utility.yul\":5496:5501   */\n      0x00\n        /* \"#utility.yul\":5545:5548   */\n      dup3\n        /* \"#utility.yul\":5538:5542   */\n      0x1f\n        /* \"#utility.yul\":5530:5536   */\n      dup4\n        /* \"#utility.yul\":5526:5543   */\n      add\n        /* \"#utility.yul\":5522:5549   */\n      slt\n        /* \"#utility.yul\":5512:5634   */\n      tag_128\n      jumpi\n        /* \"#utility.yul\":5553:5632   */\n      tag_129\n      tag_49\n      jump\t// in\n    tag_129:\n        /* \"#utility.yul\":5512:5634   */\n    tag_128:\n        /* \"#utility.yul\":5670:5676   */\n      dup2\n        /* \"#utility.yul\":5657:5677   */\n      calldataload\n        /* \"#utility.yul\":5695:5774   */\n      tag_130\n        /* \"#utility.yul\":5770:5773   */\n      dup5\n        /* \"#utility.yul\":5762:5768   */\n      dup3\n        /* \"#utility.yul\":5755:5759   */\n      0x20\n        /* \"#utility.yul\":5747:5753   */\n      dup7\n        /* \"#utility.yul\":5743:5760   */\n      add\n        /* \"#utility.yul\":5695:5774   */\n      tag_56\n      jump\t// in\n    tag_130:\n        /* \"#utility.yul\":5686:5774   */\n      swap2\n      pop\n        /* \"#utility.yul\":5502:5780   */\n      pop\n        /* \"#utility.yul\":5440:5780   */\n      swap3\n      swap2\n      pop\n      pop\n      jump\t// out\n        /* \"#utility.yul\":5786:6877   */\n    tag_14:\n        /* \"#utility.yul\":5891:5897   */\n      0x00\n        /* \"#utility.yul\":5899:5905   */\n      dup1\n        /* \"#utility.yul\":5907:5913   */\n      0x00\n        /* \"#utility.yul\":5915:5921   */\n      dup1\n        /* \"#utility.yul\":5923:5929   */\n      0x00\n        /* \"#utility.yul\":5972:5975   */\n      0xa0\n        /* \"#utility.yul\":5960:5969   */\n      dup7\n        /* \"#utility.yul\":5951:5958   */\n      dup9\n        /* \"#utility.yul\":5947:5970   */\n      sub\n        /* \"#utility.yul\":5943:5976   */\n      slt\n        /* \"#utility.yul\":5940:6060   */\n      iszero\n      tag_132\n      jumpi\n        /* \"#utility.yul\":5979:6058   */\n      tag_133\n      tag_33\n      jump\t// in\n    tag_133:\n        /* \"#utility.yul\":5940:6060   */\n    tag_132:\n        /* \"#utility.yul\":6099:6100   */\n      0x00\n        /* \"#utility.yul\":6124:6177   */\n      tag_134\n        /* \"#utility.yul\":6169:6176   */\n      dup9\n        /* \"#utility.yul\":6160:6166   */\n      dup3\n        /* \"#utility.yul\":6149:6158   */\n      dup10\n        /* \"#utility.yul\":6145:6167   */\n      add\n        /* \"#utility.yul\":6124:6177   */\n      tag_48\n      jump\t// in\n    tag_134:\n        /* \"#utility.yul\":6114:6177   */\n      swap6\n      pop\n        /* \"#utility.yul\":6070:6187   */\n      pop\n        /* \"#utility.yul\":6254:6256   */\n      0x20\n        /* \"#utility.yul\":6243:6252   */\n      dup7\n        /* \"#utility.yul\":6239:6257   */\n      add\n        /* \"#utility.yul\":6226:6258   */\n      calldataload\n        /* \"#utility.yul\":6285:6303   */\n      0xffffffffffffffff\n        /* \"#utility.yul\":6277:6283   */\n      dup2\n        /* \"#utility.yul\":6274:6304   */\n      gt\n        /* \"#utility.yul\":6271:6388   */\n      iszero\n      tag_135\n      jumpi\n        /* \"#utility.yul\":6307:6386   */\n      tag_136\n      tag_34\n      jump\t// in\n    tag_136:\n        /* \"#utility.yul\":6271:6388   */\n    tag_135:\n        /* \"#utility.yul\":6412:6475   */\n      tag_137\n        /* \"#utility.yul\":6467:6474   */\n      dup9\n        /* \"#utility.yul\":6458:6464   */\n      dup3\n        /* \"#utility.yul\":6447:6456   */\n      dup10\n        /* \"#utility.yul\":6443:6465   */\n      add\n        /* \"#utility.yul\":6412:6475   */\n      tag_57\n      jump\t// in\n    tag_137:\n        /* \"#utility.yul\":6402:6475   */\n      swap5\n      pop\n        /* \"#utility.yul\":6197:6485   */\n      pop\n        /* \"#utility.yul\":6524:6526   */\n      0x40\n        /* \"#utility.yul\":6550:6603   */\n      tag_138\n        /* \"#utility.yul\":6595:6602   */\n      dup9\n        /* \"#utility.yul\":6586:6592   */\n      dup3\n        /* \"#utility.yul\":6575:6584   */\n      dup10\n        /* \"#utility.yul\":6571:6593   */\n      add\n        /* \"#utility.yul\":6550:6603   */\n      tag_37\n      jump\t// in\n    tag_138:\n        /* \"#utility.yul\":6540:6603   */\n      swap4\n      pop\n        /* \"#utility.yul\":6495:6613   */\n      pop\n        /* \"#utility.yul\":6652:6654   */\n      0x60\n        /* \"#utility.yul\":6678:6731   */\n      tag_139\n        /* \"#utility.yul\":6723:6730   */\n      dup9\n        /* \"#utility.yul\":6714:6720   */\n      dup3\n        /* \"#utility.yul\":6703:6712   */\n      dup10\n        /* \"#utility.yul\":6699:6721   */\n      add\n        /* \"#utility.yul\":6678:6731   */\n      tag_37\n      jump\t// in\n    tag_139:\n        /* \"#utility.yul\":6668:6731   */\n      swap3\n      pop\n        /* \"#utility.yul\":6623:6741   */\n      pop\n        /* \"#utility.yul\":6780:6783   */\n      0x80\n        /* \"#utility.yul\":6807:6860   */\n      tag_140\n        /* \"#utility.yul\":6852:6859   */\n      dup9\n        /* \"#utility.yul\":6843:6849   */\n      dup3\n        /* \"#utility.yul\":6832:6841   */\n      dup10\n        /* \"#utility.yul\":6828:6850   */\n      add\n        /* \"#utility.yul\":6807:6860   */\n      tag_37\n      jump\t// in\n    tag_140:\n        /* \"#utility.yul\":6797:6860   */\n      swap2\n      pop\n        /* \"#utility.yul\":6751:6870   */\n      pop\n        /* \"#utility.yul\":5786:6877   */\n      swap3\n      swap6\n      pop\n      swap3\n      swap6\n      swap1\n      swap4\n      pop\n      jump\t// out\n        /* \"#utility.yul\":6883:7357   */\n    tag_18:\n        /* \"#utility.yul\":6951:6957   */\n      0x00\n        /* \"#utility.yul\":6959:6965   */\n      dup1\n        /* \"#utility.yul\":7008:7010   */\n      0x40\n        /* \"#utility.yul\":6996:7005   */\n      dup4\n        /* \"#utility.yul\":6987:6994   */\n      dup6\n        /* \"#utility.yul\":6983:7006   */\n      sub\n        /* \"#utility.yul\":6979:7011   */\n      slt\n        /* \"#utility.yul\":6976:7095   */\n      iszero\n      tag_142\n      jumpi\n        /* \"#utility.yul\":7014:7093   */\n      tag_143\n      tag_33\n      jump\t// in\n    tag_143:\n        /* \"#utility.yul\":6976:7095   */\n    tag_142:\n        /* \"#utility.yul\":7134:7135   */\n      0x00\n        /* \"#utility.yul\":7159:7212   */\n      tag_144\n        /* \"#utility.yul\":7204:7211   */\n      dup6\n        /* \"#utility.yul\":7195:7201   */\n      dup3\n        /* \"#utility.yul\":7184:7193   */\n      dup7\n        /* \"#utility.yul\":7180:7202   */\n      add\n        /* \"#utility.yul\":7159:7212   */\n      tag_48\n      jump\t// in\n    tag_144:\n        /* \"#utility.yul\":7149:7212   */\n      swap3\n      pop\n        /* \"#utility.yul\":7105:7222   */\n      pop\n        /* \"#utility.yul\":7261:7263   */\n      0x20\n        /* \"#utility.yul\":7287:7340   */\n      tag_145\n        /* \"#utility.yul\":7332:7339   */\n      dup6\n        /* \"#utility.yul\":7323:7329   */\n      dup3\n        /* \"#utility.yul\":7312:7321   */\n      dup7\n        /* \"#utility.yul\":7308:7330   */\n      add\n        /* \"#utility.yul\":7287:7340   */\n      tag_37\n      jump\t// in\n    tag_145:\n        /* \"#utility.yul\":7277:7340   */\n      swap2\n      pop\n        /* \"#utility.yul\":7232:7350   */\n      pop\n        /* \"#utility.yul\":6883:7357   */\n      swap3\n      pop\n      swap3\n      swap1\n      pop\n      jump\t// out\n        /* \"#utility.yul\":7363:7585   */\n    tag_21:\n        /* \"#utility.yul\":7456:7460   */\n      0x00\n        /* \"#utility.yul\":7494:7496   */\n      0x20\n        /* \"#utility.yul\":7483:7492   */\n      dup3\n        /* \"#utility.yul\":7479:7497   */\n      add\n        /* \"#utility.yul\":7471:7497   */\n      swap1\n      pop\n        /* \"#utility.yul\":7507:7578   */\n      tag_147\n        /* \"#utility.yul\":7575:7576   */\n      0x00\n        /* \"#utility.yul\":7564:7573   */\n      dup4\n        /* \"#utility.yul\":7560:7577   */\n      add\n        /* \"#utility.yul\":7551:7557   */\n      dup5\n        /* \"#utility.yul\":7507:7578   */\n      tag_46\n      jump\t// in\n    tag_147:\n        /* \"#utility.yul\":7363:7585   */\n      swap3\n      swap2\n      pop\n      pop\n      jump\t// out\n        /* \"#utility.yul\":7591:7771   */\n    tag_58:\n        /* \"#utility.yul\":7639:7716   */\n      0x4e487b7100000000000000000000000000000000000000000000000000000000\n        /* \"#utility.yul\":7636:7637   */\n      0x00\n        /* \"#utility.yul\":7629:7717   */\n      mstore\n        /* \"#utility.yul\":7736:7740   */\n      0x22\n        /* \"#utility.yul\":7733:7734   */\n      0x04\n        /* \"#utility.yul\":7726:7741   */\n      mstore\n        /* \"#utility.yul\":7760:7764   */\n      0x24\n        /* \"#utility.yul\":7757:7758   */\n      0x00\n        /* \"#utility.yul\":7750:7765   */\n      revert\n        /* \"#utility.yul\":7777:8097   */\n    tag_23:\n        /* \"#utility.yul\":7821:7827   */\n      0x00\n        /* \"#utility.yul\":7858:7859   */\n      0x02\n        /* \"#utility.yul\":7852:7856   */\n      dup3\n        /* \"#utility.yul\":7848:7860   */\n      div\n        /* \"#utility.yul\":7838:7860   */\n      swap1\n      pop\n        /* \"#utility.yul\":7905:7906   */\n      0x01\n        /* \"#utility.yul\":7899:7903   */\n      dup3\n        /* \"#utility.yul\":7895:7907   */\n      and\n        /* \"#utility.yul\":7926:7944   */\n      dup1\n        /* \"#utility.yul\":7916:7997   */\n      tag_150\n      jumpi\n        /* \"#utility.yul\":7982:7986   */\n      0x7f\n        /* \"#utility.yul\":7974:7980   */\n      dup3\n        /* \"#utility.yul\":7970:7987   */\n      and\n        /* \"#utility.yul\":7960:7987   */\n      swap2\n      pop\n        /* \"#utility.yul\":7916:7997   */\n    tag_150:\n        /* \"#utility.yul\":8044:8046   */\n      0x20\n        /* \"#utility.yul\":8036:8042   */\n      dup3\n        /* \"#utility.yul\":8033:8047   */\n      lt\n        /* \"#utility.yul\":8013:8031   */\n      dup2\n        /* \"#utility.yul\":8010:8048   */\n      sub\n        /* \"#utility.yul\":8007:8091   */\n      tag_151\n      jumpi\n        /* \"#utility.yul\":8063:8081   */\n      tag_152\n      tag_58\n      jump\t// in\n    tag_152:\n        /* \"#utility.yul\":8007:8091   */\n    tag_151:\n        /* \"#utility.yul\":7828:8097   */\n      pop\n        /* \"#utility.yul\":7777:8097   */\n      swap2\n      swap1\n      pop\n      jump\t// out\n        /* \"#utility.yul\":8103:8271   */\n    tag_59:\n        /* \"#utility.yul\":8243:8263   */\n      0x546865204576656e7420686173206f7665720000000000000000000000000000\n        /* \"#utility.yul\":8239:8240   */\n      0x00\n        /* \"#utility.yul\":8231:8237   */\n      dup3\n        /* \"#utility.yul\":8227:8241   */\n      add\n        /* \"#utility.yul\":8220:8264   */\n      mstore\n        /* \"#utility.yul\":8103:8271   */\n      pop\n      jump\t// out\n        /* \"#utility.yul\":8277:8643   */\n    tag_60:\n        /* \"#utility.yul\":8419:8422   */\n      0x00\n        /* \"#utility.yul\":8440:8507   */\n      tag_155\n        /* \"#utility.yul\":8504:8506   */\n      0x12\n        /* \"#utility.yul\":8499:8502   */\n      dup4\n        /* \"#utility.yul\":8440:8507   */\n      tag_42\n      jump\t// in\n    tag_155:\n        /* \"#utility.yul\":8433:8507   */\n      swap2\n      pop\n        /* \"#utility.yul\":8516:8609   */\n      tag_156\n        /* \"#utility.yul\":8605:8608   */\n      dup3\n        /* \"#utility.yul\":8516:8609   */\n      tag_59\n      jump\t// in\n    tag_156:\n        /* \"#utility.yul\":8634:8636   */\n      0x20\n        /* \"#utility.yul\":8629:8632   */\n      dup3\n        /* \"#utility.yul\":8625:8637   */\n      add\n        /* \"#utility.yul\":8618:8637   */\n      swap1\n      pop\n        /* \"#utility.yul\":8277:8643   */\n      swap2\n      swap1\n      pop\n      jump\t// out\n        /* \"#utility.yul\":8649:9068   */\n    tag_31:\n        /* \"#utility.yul\":8815:8819   */\n      0x00\n        /* \"#utility.yul\":8853:8855   */\n      0x20\n        /* \"#utility.yul\":8842:8851   */\n      dup3\n        /* \"#utility.yul\":8838:8856   */\n      add\n        /* \"#utility.yul\":8830:8856   */\n      swap1\n      pop\n        /* \"#utility.yul\":8902:8911   */\n      dup2\n        /* \"#utility.yul\":8896:8900   */\n      dup2\n        /* \"#utility.yul\":8892:8912   */\n      sub\n        /* \"#utility.yul\":8888:8889   */\n      0x00\n        /* \"#utility.yul\":8877:8886   */\n      dup4\n        /* \"#utility.yul\":8873:8890   */\n      add\n        /* \"#utility.yul\":8866:8913   */\n      mstore\n        /* \"#utility.yul\":8930:9061   */\n      tag_158\n        /* \"#utility.yul\":9056:9060   */\n      dup2\n        /* \"#utility.yul\":8930:9061   */\n      tag_60\n      jump\t// in\n    tag_158:\n        /* \"#utility.yul\":8922:9061   */\n      swap1\n      pop\n        /* \"#utility.yul\":8649:9068   */\n      swap2\n      swap1\n      pop\n      jump\t// out\n\n    auxdata: 0xa26469706673582212208136c77666aa952d1af5e1a9cb139e43df9a750f66755b82ba424abbda4f440b64736f6c63430008110033\n}\n",
				"bytecode": {
					"linkReferences": {},
					"object": "608060405234801561001057600080fd5b5061072d806100206000396000f3fe608060405234801561001057600080fd5b50600436106100415760003560e01c80630b79143014610046578063c55b9f9b1461007b578063e11bb64d14610097575b600080fd5b610060600480360381019061005b9190610263565b6100c7565b60405161007296959493929190610370565b60405180910390f35b61009560048036038101906100909190610539565b6101ab565b005b6100b160048036038101906100ac91906105d0565b6101f4565b6040516100be9190610610565b60405180910390f35b60006020528060005260406000206000915090508060000160009054906101000a900473ffffffffffffffffffffffffffffffffffffffff16908060010180546101109061065a565b80601f016020809104026020016040519081016040528092919081815260200182805461013c9061065a565b80156101895780601f1061015e57610100808354040283529160200191610189565b820191906000526020600020905b81548152906001019060200180831161016c57829003601f168201915b5050505050908060020154908060030154908060040154908060050154905086565b4283116101ed576040517f08c379a00000000000000000000000000000000000000000000000000000000081526004016101e4906106d7565b60405180910390fd5b5050505050565b6001602052816000526040600020602052806000526040600020600091509150505481565b6000604051905090565b600080fd5b600080fd5b6000819050919050565b6102408161022d565b811461024b57600080fd5b50565b60008135905061025d81610237565b92915050565b60006020828403121561027957610278610223565b5b60006102878482850161024e565b91505092915050565b600073ffffffffffffffffffffffffffffffffffffffff82169050919050565b60006102bb82610290565b9050919050565b6102cb816102b0565b82525050565b600081519050919050565b600082825260208201905092915050565b60005b8381101561030b5780820151818401526020810190506102f0565b60008484015250505050565b6000601f19601f8301169050919050565b6000610333826102d1565b61033d81856102dc565b935061034d8185602086016102ed565b61035681610317565b840191505092915050565b61036a8161022d565b82525050565b600060c08201905061038560008301896102c2565b81810360208301526103978188610328565b90506103a66040830187610361565b6103b36060830186610361565b6103c06080830185610361565b6103cd60a0830184610361565b979650505050505050565b6103e1816102b0565b81146103ec57600080fd5b50565b6000813590506103fe816103d8565b92915050565b600080fd5b600080fd5b7f4e487b7100000000000000000000000000000000000000000000000000000000600052604160045260246000fd5b61044682610317565b810181811067ffffffffffffffff821117156104655761046461040e565b5b80604052505050565b6000610478610219565b9050610484828261043d565b919050565b600067ffffffffffffffff8211156104a4576104a361040e565b5b6104ad82610317565b9050602081019050919050565b82818337600083830152505050565b60006104dc6104d784610489565b61046e565b9050828152602081018484840111156104f8576104f7610409565b5b6105038482856104ba565b509392505050565b600082601f8301126105205761051f610404565b5b81356105308482602086016104c9565b91505092915050565b600080600080600060a0868803121561055557610554610223565b5b6000610563888289016103ef565b955050602086013567ffffffffffffffff81111561058457610583610228565b5b6105908882890161050b565b94505060406105a18882890161024e565b93505060606105b28882890161024e565b92505060806105c38882890161024e565b9150509295509295909350565b600080604083850312156105e7576105e6610223565b5b60006105f5858286016103ef565b92505060206106068582860161024e565b9150509250929050565b60006020820190506106256000830184610361565b92915050565b7f4e487b7100000000000000000000000000000000000000000000000000000000600052602260045260246000fd5b6000600282049050600182168061067257607f821691505b6020821081036106855761068461062b565b5b50919050565b7f546865204576656e7420686173206f7665720000000000000000000000000000600082015250565b60006106c16012836102dc565b91506106cc8261068b565b602082019050919050565b600060208201905081810360008301526106f0816106b4565b905091905056fea26469706673582212208136c77666aa952d1af5e1a9cb139e43df9a750f66755b82ba424abbda4f440b64736f6c63430008110033",
					"opcodes": "PUSH1 0x80 PUSH1 0x40 MSTORE CALLVALUE DUP1 ISZERO PUSH2 0x10 JUMPI PUSH1 0x0 DUP1 REVERT JUMPDEST POP PUSH2 0x72D DUP1 PUSH2 0x20 PUSH1 0x0 CODECOPY PUSH1 0x0 RETURN INVALID PUSH1 0x80 PUSH1 0x40 MSTORE CALLVALUE DUP1 ISZERO PUSH2 0x10 JUMPI PUSH1 0x0 DUP1 REVERT JUMPDEST POP PUSH1 0x4 CALLDATASIZE LT PUSH2 0x41 JUMPI PUSH1 0x0 CALLDATALOAD PUSH1 0xE0 SHR DUP1 PUSH4 0xB791430 EQ PUSH2 0x46 JUMPI DUP1 PUSH4 0xC55B9F9B EQ PUSH2 0x7B JUMPI DUP1 PUSH4 0xE11BB64D EQ PUSH2 0x97 JUMPI JUMPDEST PUSH1 0x0 DUP1 REVERT JUMPDEST PUSH2 0x60 PUSH1 0x4 DUP1 CALLDATASIZE SUB DUP2 ADD SWAP1 PUSH2 0x5B SWAP2 SWAP1 PUSH2 0x263 JUMP JUMPDEST PUSH2 0xC7 JUMP JUMPDEST PUSH1 0x40 MLOAD PUSH2 0x72 SWAP7 SWAP6 SWAP5 SWAP4 SWAP3 SWAP2 SWAP1 PUSH2 0x370 JUMP JUMPDEST PUSH1 0x40 MLOAD DUP1 SWAP2 SUB SWAP1 RETURN JUMPDEST PUSH2 0x95 PUSH1 0x4 DUP1 CALLDATASIZE SUB DUP2 ADD SWAP1 PUSH2 0x90 SWAP2 SWAP1 PUSH2 0x539 JUMP JUMPDEST PUSH2 0x1AB JUMP JUMPDEST STOP JUMPDEST PUSH2 0xB1 PUSH1 0x4 DUP1 CALLDATASIZE SUB DUP2 ADD SWAP1 PUSH2 0xAC SWAP2 SWAP1 PUSH2 0x5D0 JUMP JUMPDEST PUSH2 0x1F4 JUMP JUMPDEST PUSH1 0x40 MLOAD PUSH2 0xBE SWAP2 SWAP1 PUSH2 0x610 JUMP JUMPDEST PUSH1 0x40 MLOAD DUP1 SWAP2 SUB SWAP1 RETURN JUMPDEST PUSH1 0x0 PUSH1 0x20 MSTORE DUP1 PUSH1 0x0 MSTORE PUSH1 0x40 PUSH1 0x0 KECCAK256 PUSH1 0x0 SWAP2 POP SWAP1 POP DUP1 PUSH1 0x0 ADD PUSH1 0x0 SWAP1 SLOAD SWAP1 PUSH2 0x100 EXP SWAP1 DIV PUSH20 0xFFFFFFFFFFFFFFFFFFFFFFFFFFFFFFFFFFFFFFFF AND SWAP1 DUP1 PUSH1 0x1 ADD DUP1 SLOAD PUSH2 0x110 SWAP1 PUSH2 0x65A JUMP JUMPDEST DUP1 PUSH1 0x1F ADD PUSH1 0x20 DUP1 SWAP2 DIV MUL PUSH1 0x20 ADD PUSH1 0x40 MLOAD SWAP1 DUP2 ADD PUSH1 0x40 MSTORE DUP1 SWAP3 SWAP2 SWAP1 DUP2 DUP2 MSTORE PUSH1 0x20 ADD DUP3 DUP1 SLOAD PUSH2 0x13C SWAP1 PUSH2 0x65A JUMP JUMPDEST DUP1 ISZERO PUSH2 0x189 JUMPI DUP1 PUSH1 0x1F LT PUSH2 0x15E JUMPI PUSH2 0x100 DUP1 DUP4 SLOAD DIV MUL DUP4 MSTORE SWAP2 PUSH1 0x20 ADD SWAP2 PUSH2 0x189 JUMP JUMPDEST DUP3 ADD SWAP2 SWAP1 PUSH1 0x0 MSTORE PUSH1 0x20 PUSH1 0x0 KECCAK256 SWAP1 JUMPDEST DUP2 SLOAD DUP2 MSTORE SWAP1 PUSH1 0x1 ADD SWAP1 PUSH1 0x20 ADD DUP1 DUP4 GT PUSH2 0x16C JUMPI DUP3 SWAP1 SUB PUSH1 0x1F AND DUP3 ADD SWAP2 JUMPDEST POP POP POP POP POP SWAP1 DUP1 PUSH1 0x2 ADD SLOAD SWAP1 DUP1 PUSH1 0x3 ADD SLOAD SWAP1 DUP1 PUSH1 0x4 ADD SLOAD SWAP1 DUP1 PUSH1 0x5 ADD SLOAD SWAP1 POP DUP7 JUMP JUMPDEST TIMESTAMP DUP4 GT PUSH2 0x1ED JUMPI PUSH1 0x40 MLOAD PUSH32 0x8C379A000000000000000000000000000000000000000000000000000000000 DUP2 MSTORE PUSH1 0x4 ADD PUSH2 0x1E4 SWAP1 PUSH2 0x6D7 JUMP JUMPDEST PUSH1 0x40 MLOAD DUP1 SWAP2 SUB SWAP1 REVERT JUMPDEST POP POP POP POP POP JUMP JUMPDEST PUSH1 0x1 PUSH1 0x20 MSTORE DUP2 PUSH1 0x0 MSTORE PUSH1 0x40 PUSH1 0x0 KECCAK256 PUSH1 0x20 MSTORE DUP1 PUSH1 0x0 MSTORE PUSH1 0x40 PUSH1 0x0 KECCAK256 PUSH1 0x0 SWAP2 POP SWAP2 POP POP SLOAD DUP2 JUMP JUMPDEST PUSH1 0x0 PUSH1 0x40 MLOAD SWAP1 POP SWAP1 JUMP JUMPDEST PUSH1 0x0 DUP1 REVERT JUMPDEST PUSH1 0x0 DUP1 REVERT JUMPDEST PUSH1 0x0 DUP2 SWAP1 POP SWAP2 SWAP1 POP JUMP JUMPDEST PUSH2 0x240 DUP2 PUSH2 0x22D JUMP JUMPDEST DUP2 EQ PUSH2 0x24B JUMPI PUSH1 0x0 DUP1 REVERT JUMPDEST POP JUMP JUMPDEST PUSH1 0x0 DUP2 CALLDATALOAD SWAP1 POP PUSH2 0x25D DUP2 PUSH2 0x237 JUMP JUMPDEST SWAP3 SWAP2 POP POP JUMP JUMPDEST PUSH1 0x0 PUSH1 0x20 DUP3 DUP5 SUB SLT ISZERO PUSH2 0x279 JUMPI PUSH2 0x278 PUSH2 0x223 JUMP JUMPDEST JUMPDEST PUSH1 0x0 PUSH2 0x287 DUP5 DUP3 DUP6 ADD PUSH2 0x24E JUMP JUMPDEST SWAP2 POP POP SWAP3 SWAP2 POP POP JUMP JUMPDEST PUSH1 0x0 PUSH20 0xFFFFFFFFFFFFFFFFFFFFFFFFFFFFFFFFFFFFFFFF DUP3 AND SWAP1 POP SWAP2 SWAP1 POP JUMP JUMPDEST PUSH1 0x0 PUSH2 0x2BB DUP3 PUSH2 0x290 JUMP JUMPDEST SWAP1 POP SWAP2 SWAP1 POP JUMP JUMPDEST PUSH2 0x2CB DUP2 PUSH2 0x2B0 JUMP JUMPDEST DUP3 MSTORE POP POP JUMP JUMPDEST PUSH1 0x0 DUP2 MLOAD SWAP1 POP SWAP2 SWAP1 POP JUMP JUMPDEST PUSH1 0x0 DUP3 DUP3 MSTORE PUSH1 0x20 DUP3 ADD SWAP1 POP SWAP3 SWAP2 POP POP JUMP JUMPDEST PUSH1 0x0 JUMPDEST DUP4 DUP2 LT ISZERO PUSH2 0x30B JUMPI DUP1 DUP3 ADD MLOAD DUP2 DUP5 ADD MSTORE PUSH1 0x20 DUP2 ADD SWAP1 POP PUSH2 0x2F0 JUMP JUMPDEST PUSH1 0x0 DUP5 DUP5 ADD MSTORE POP POP POP POP JUMP JUMPDEST PUSH1 0x0 PUSH1 0x1F NOT PUSH1 0x1F DUP4 ADD AND SWAP1 POP SWAP2 SWAP1 POP JUMP JUMPDEST PUSH1 0x0 PUSH2 0x333 DUP3 PUSH2 0x2D1 JUMP JUMPDEST PUSH2 0x33D DUP2 DUP6 PUSH2 0x2DC JUMP JUMPDEST SWAP4 POP PUSH2 0x34D DUP2 DUP6 PUSH1 0x20 DUP7 ADD PUSH2 0x2ED JUMP JUMPDEST PUSH2 0x356 DUP2 PUSH2 0x317 JUMP JUMPDEST DUP5 ADD SWAP2 POP POP SWAP3 SWAP2 POP POP JUMP JUMPDEST PUSH2 0x36A DUP2 PUSH2 0x22D JUMP JUMPDEST DUP3 MSTORE POP POP JUMP JUMPDEST PUSH1 0x0 PUSH1 0xC0 DUP3 ADD SWAP1 POP PUSH2 0x385 PUSH1 0x0 DUP4 ADD DUP10 PUSH2 0x2C2 JUMP JUMPDEST DUP2 DUP2 SUB PUSH1 0x20 DUP4 ADD MSTORE PUSH2 0x397 DUP2 DUP9 PUSH2 0x328 JUMP JUMPDEST SWAP1 POP PUSH2 0x3A6 PUSH1 0x40 DUP4 ADD DUP8 PUSH2 0x361 JUMP JUMPDEST PUSH2 0x3B3 PUSH1 0x60 DUP4 ADD DUP7 PUSH2 0x361 JUMP JUMPDEST PUSH2 0x3C0 PUSH1 0x80 DUP4 ADD DUP6 PUSH2 0x361 JUMP JUMPDEST PUSH2 0x3CD PUSH1 0xA0 DUP4 ADD DUP5 PUSH2 0x361 JUMP JUMPDEST SWAP8 SWAP7 POP POP POP POP POP POP POP JUMP JUMPDEST PUSH2 0x3E1 DUP2 PUSH2 0x2B0 JUMP JUMPDEST DUP2 EQ PUSH2 0x3EC JUMPI PUSH1 0x0 DUP1 REVERT JUMPDEST POP JUMP JUMPDEST PUSH1 0x0 DUP2 CALLDATALOAD SWAP1 POP PUSH2 0x3FE DUP2 PUSH2 0x3D8 JUMP JUMPDEST SWAP3 SWAP2 POP POP JUMP JUMPDEST PUSH1 0x0 DUP1 REVERT JUMPDEST PUSH1 0x0 DUP1 REVERT JUMPDEST PUSH32 0x4E487B7100000000000000000000000000000000000000000000000000000000 PUSH1 0x0 MSTORE PUSH1 0x41 PUSH1 0x4 MSTORE PUSH1 0x24 PUSH1 0x0 REVERT JUMPDEST PUSH2 0x446 DUP3 PUSH2 0x317 JUMP JUMPDEST DUP2 ADD DUP2 DUP2 LT PUSH8 0xFFFFFFFFFFFFFFFF DUP3 GT OR ISZERO PUSH2 0x465 JUMPI PUSH2 0x464 PUSH2 0x40E JUMP JUMPDEST JUMPDEST DUP1 PUSH1 0x40 MSTORE POP POP POP JUMP JUMPDEST PUSH1 0x0 PUSH2 0x478 PUSH2 0x219 JUMP JUMPDEST SWAP1 POP PUSH2 0x484 DUP3 DUP3 PUSH2 0x43D JUMP JUMPDEST SWAP2 SWAP1 POP JUMP JUMPDEST PUSH1 0x0 PUSH8 0xFFFFFFFFFFFFFFFF DUP3 GT ISZERO PUSH2 0x4A4 JUMPI PUSH2 0x4A3 PUSH2 0x40E JUMP JUMPDEST JUMPDEST PUSH2 0x4AD DUP3 PUSH2 0x317 JUMP JUMPDEST SWAP1 POP PUSH1 0x20 DUP2 ADD SWAP1 POP SWAP2 SWAP1 POP JUMP JUMPDEST DUP3 DUP2 DUP4 CALLDATACOPY PUSH1 0x0 DUP4 DUP4 ADD MSTORE POP POP POP JUMP JUMPDEST PUSH1 0x0 PUSH2 0x4DC PUSH2 0x4D7 DUP5 PUSH2 0x489 JUMP JUMPDEST PUSH2 0x46E JUMP JUMPDEST SWAP1 POP DUP3 DUP2 MSTORE PUSH1 0x20 DUP2 ADD DUP5 DUP5 DUP5 ADD GT ISZERO PUSH2 0x4F8 JUMPI PUSH2 0x4F7 PUSH2 0x409 JUMP JUMPDEST JUMPDEST PUSH2 0x503 DUP5 DUP3 DUP6 PUSH2 0x4BA JUMP JUMPDEST POP SWAP4 SWAP3 POP POP POP JUMP JUMPDEST PUSH1 0x0 DUP3 PUSH1 0x1F DUP4 ADD SLT PUSH2 0x520 JUMPI PUSH2 0x51F PUSH2 0x404 JUMP JUMPDEST JUMPDEST DUP2 CALLDATALOAD PUSH2 0x530 DUP5 DUP3 PUSH1 0x20 DUP7 ADD PUSH2 0x4C9 JUMP JUMPDEST SWAP2 POP POP SWAP3 SWAP2 POP POP JUMP JUMPDEST PUSH1 0x0 DUP1 PUSH1 0x0 DUP1 PUSH1 0x0 PUSH1 0xA0 DUP7 DUP9 SUB SLT ISZERO PUSH2 0x555 JUMPI PUSH2 0x554 PUSH2 0x223 JUMP JUMPDEST JUMPDEST PUSH1 0x0 PUSH2 0x563 DUP9 DUP3 DUP10 ADD PUSH2 0x3EF JUMP JUMPDEST SWAP6 POP POP PUSH1 0x20 DUP7 ADD CALLDATALOAD PUSH8 0xFFFFFFFFFFFFFFFF DUP2 GT ISZERO PUSH2 0x584 JUMPI PUSH2 0x583 PUSH2 0x228 JUMP JUMPDEST JUMPDEST PUSH2 0x590 DUP9 DUP3 DUP10 ADD PUSH2 0x50B JUMP JUMPDEST SWAP5 POP POP PUSH1 0x40 PUSH2 0x5A1 DUP9 DUP3 DUP10 ADD PUSH2 0x24E JUMP JUMPDEST SWAP4 POP POP PUSH1 0x60 PUSH2 0x5B2 DUP9 DUP3 DUP10 ADD PUSH2 0x24E JUMP JUMPDEST SWAP3 POP POP PUSH1 0x80 PUSH2 0x5C3 DUP9 DUP3 DUP10 ADD PUSH2 0x24E JUMP JUMPDEST SWAP2 POP POP SWAP3 SWAP6 POP SWAP3 SWAP6 SWAP1 SWAP4 POP JUMP JUMPDEST PUSH1 0x0 DUP1 PUSH1 0x40 DUP4 DUP6 SUB SLT ISZERO PUSH2 0x5E7 JUMPI PUSH2 0x5E6 PUSH2 0x223 JUMP JUMPDEST JUMPDEST PUSH1 0x0 PUSH2 0x5F5 DUP6 DUP3 DUP7 ADD PUSH2 0x3EF JUMP JUMPDEST SWAP3 POP POP PUSH1 0x20 PUSH2 0x606 DUP6 DUP3 DUP7 ADD PUSH2 0x24E JUMP JUMPDEST SWAP2 POP POP SWAP3 POP SWAP3 SWAP1 POP JUMP JUMPDEST PUSH1 0x0 PUSH1 0x20 DUP3 ADD SWAP1 POP PUSH2 0x625 PUSH1 0x0 DUP4 ADD DUP5 PUSH2 0x361 JUMP JUMPDEST SWAP3 SWAP2 POP POP JUMP JUMPDEST PUSH32 0x4E487B7100000000000000000000000000000000000000000000000000000000 PUSH1 0x0 MSTORE PUSH1 0x22 PUSH1 0x4 MSTORE PUSH1 0x24 PUSH1 0x0 REVERT JUMPDEST PUSH1 0x0 PUSH1 0x2 DUP3 DIV SWAP1 POP PUSH1 0x1 DUP3 AND DUP1 PUSH2 0x672 JUMPI PUSH1 0x7F DUP3 AND SWAP2 POP JUMPDEST PUSH1 0x20 DUP3 LT DUP2 SUB PUSH2 0x685 JUMPI PUSH2 0x684 PUSH2 0x62B JUMP JUMPDEST JUMPDEST POP SWAP2 SWAP1 POP JUMP JUMPDEST PUSH32 0x546865204576656E7420686173206F7665720000000000000000000000000000 PUSH1 0x0 DUP3 ADD MSTORE POP JUMP JUMPDEST PUSH1 0x0 PUSH2 0x6C1 PUSH1 0x12 DUP4 PUSH2 0x2DC JUMP JUMPDEST SWAP2 POP PUSH2 0x6CC DUP3 PUSH2 0x68B JUMP JUMPDEST PUSH1 0x20 DUP3 ADD SWAP1 POP SWAP2 SWAP1 POP JUMP JUMPDEST PUSH1 0x0 PUSH1 0x20 DUP3 ADD SWAP1 POP DUP2 DUP2 SUB PUSH1 0x0 DUP4 ADD MSTORE PUSH2 0x6F0 DUP2 PUSH2 0x6B4 JUMP JUMPDEST SWAP1 POP SWAP2 SWAP1 POP JUMP INVALID LOG2 PUSH5 0x6970667358 0x22 SLT KECCAK256 DUP2 CALLDATASIZE 0xC7 PUSH23 0x66AA952D1AF5E1A9CB139E43DF9A750F66755B82BA424A 0xBB 0xDA 0x4F DIFFICULTY SIGNEXTEND PUSH5 0x736F6C6343 STOP ADDMOD GT STOP CALLER "
				},
				"gasEstimates": {
					"creation": {
						"codeDepositCost": "367400",
						"executionCost": "405",
						"totalCost": "367805"
					},
					"external": {
						"createEvent(address,string,uint256,uint256,uint256)": "infinite",
						"events(uint256)": "infinite",
						"ticket(address,uint256)": "infinite"
					}
				},
				"methodIdentifiers": {
					"createEvent(address,string,uint256,uint256,uint256)": "c55b9f9b",
					"events(uint256)": "0b791430",
					"ticket(address,uint256)": "e11bb64d"
				}
			},
			"storageLayout": {
				"storage": [
					{
						"astId": 19,
						"contract": "Event.sol:OrganizingEvent",
						"label": "events",
						"offset": 0,
						"slot": "0",
						"type": "t_mapping(t_uint256,t_struct(Event)14_storage)"
					},
					{
						"astId": 25,
						"contract": "Event.sol:OrganizingEvent",
						"label": "ticket",
						"offset": 0,
						"slot": "1",
						"type": "t_mapping(t_address,t_mapping(t_uint256,t_uint256))"
					},
					{
						"astId": 27,
						"contract": "Event.sol:OrganizingEvent",
						"label": "nextId",
						"offset": 0,
						"slot": "2",
						"type": "t_uint256"
					}
				],
				"types": {
					"t_address": {
						"encoding": "inplace",
						"label": "address",
						"numberOfBytes": "20"
					},
					"t_mapping(t_address,t_mapping(t_uint256,t_uint256))": {
						"encoding": "mapping",
						"key": "t_address",
						"label": "mapping(address => mapping(uint256 => uint256))",
						"numberOfBytes": "32",
						"value": "t_mapping(t_uint256,t_uint256)"
					},
					"t_mapping(t_uint256,t_struct(Event)14_storage)": {
						"encoding": "mapping",
						"key": "t_uint256",
						"label": "mapping(uint256 => struct OrganizingEvent.Event)",
						"numberOfBytes": "32",
						"value": "t_struct(Event)14_storage"
					},
					"t_mapping(t_uint256,t_uint256)": {
						"encoding": "mapping",
						"key": "t_uint256",
						"label": "mapping(uint256 => uint256)",
						"numberOfBytes": "32",
						"value": "t_uint256"
					},
					"t_string_storage": {
						"encoding": "bytes",
						"label": "string",
						"numberOfBytes": "32"
					},
					"t_struct(Event)14_storage": {
						"encoding": "inplace",
						"label": "struct OrganizingEvent.Event",
						"members": [
							{
								"astId": 3,
								"contract": "Event.sol:OrganizingEvent",
								"label": "organizer",
								"offset": 0,
								"slot": "0",
								"type": "t_address"
							},
							{
								"astId": 5,
								"contract": "Event.sol:OrganizingEvent",
								"label": "name",
								"offset": 0,
								"slot": "1",
								"type": "t_string_storage"
							},
							{
								"astId": 7,
								"contract": "Event.sol:OrganizingEvent",
								"label": "date",
								"offset": 0,
								"slot": "2",
								"type": "t_uint256"
							},
							{
								"astId": 9,
								"contract": "Event.sol:OrganizingEvent",
								"label": "price",
								"offset": 0,
								"slot": "3",
								"type": "t_uint256"
							},
							{
								"astId": 11,
								"contract": "Event.sol:OrganizingEvent",
								"label": "ticketOpen",
								"offset": 0,
								"slot": "4",
								"type": "t_uint256"
							},
							{
								"astId": 13,
								"contract": "Event.sol:OrganizingEvent",
								"label": "ticketRemain",
								"offset": 0,
								"slot": "5",
								"type": "t_uint256"
							}
						],
						"numberOfBytes": "192"
					},
					"t_uint256": {
						"encoding": "inplace",
						"label": "uint256",
						"numberOfBytes": "32"
					}
				}
			},
			"userdoc": {
				"kind": "user",
				"methods": {},
				"version": 1
			}
		}
	}
}