{
	"Bakery.sol": {
		"bakery": {
			"abi": [
				{
					"inputs": [],
					"stateMutability": "nonpayable",
					"type": "constructor"
				},
				{
					"inputs": [],
					"name": "getBlance",
					"outputs": [
						{
							"internalType": "uint256",
							"name": "",
							"type": "uint256"
						}
					],
					"stateMutability": "view",
					"type": "function"
				},
				{
					"inputs": [
						{
							"internalType": "string",
							"name": "_meal",
							"type": "string"
						}
					],
					"name": "getMeal",
					"outputs": [
						{
							"internalType": "bool",
							"name": "",
							"type": "bool"
						}
					],
					"stateMutability": "nonpayable",
					"type": "function"
				},
				{
					"inputs": [],
					"name": "owner",
					"outputs": [
						{
							"internalType": "address",
							"name": "",
							"type": "address"
						}
					],
					"stateMutability": "view",
					"type": "function"
				},
				{
					"inputs": [],
					"name": "transf",
					"outputs": [],
					"stateMutability": "nonpayable",
					"type": "function"
				},
				{
					"stateMutability": "payable",
					"type": "receive"
				}
			],
			"devdoc": {
				"kind": "dev",
				"methods": {},
				"version": 1
			},
			"evm": {
				"assembly": "    /* \"Bakery.sol\":74:772  contract bakery{... */\n  mstore(0x40, 0x80)\n    /* \"Bakery.sol\":131:173  0x78731D3Ca6b7E34aC0F824c42a7cC18A495cabaB */\n  0x78731d3ca6b7e34ac0f824c42a7cc18a495cabab\n    /* \"Bakery.sol\":96:174  address payable thirdParty=payable(0x78731D3Ca6b7E34aC0F824c42a7cC18A495cabaB) */\n  0x00\n  dup1\n  0x0100\n  exp\n  dup2\n  sload\n  dup2\n  0xffffffffffffffffffffffffffffffffffffffff\n  mul\n  not\n  and\n  swap1\n  dup4\n  0xffffffffffffffffffffffffffffffffffffffff\n  and\n  mul\n  or\n  swap1\n  sstore\n  pop\n    /* \"Bakery.sol\":215:257  0xAb8483F64d9C6d1EcF9b849Ae677dD3315835cb2 */\n  0xab8483f64d9c6d1ecf9b849ae677dd3315835cb2\n    /* \"Bakery.sol\":181:258  address payable salesMan=payable (0xAb8483F64d9C6d1EcF9b849Ae677dD3315835cb2) */\n  0x01\n  exp(0x0100, 0x00)\n  dup2\n  sload\n  dup2\n  0xffffffffffffffffffffffffffffffffffffffff\n  mul\n  not\n  and\n  swap1\n  dup4\n  0xffffffffffffffffffffffffffffffffffffffff\n  and\n  mul\n  or\n  swap1\n  sstore\n  pop\n    /* \"Bakery.sol\":294:349  constructor ()... */\n  callvalue\n  dup1\n  iszero\n  tag_1\n  jumpi\n  0x00\n  dup1\n  revert\ntag_1:\n  pop\n    /* \"Bakery.sol\":331:341  msg.sender */\n  caller\n    /* \"Bakery.sol\":325:330  owner */\n  0x02\n  0x00\n    /* \"Bakery.sol\":325:341  owner=msg.sender */\n  0x0100\n  exp\n  dup2\n  sload\n  dup2\n  0xffffffffffffffffffffffffffffffffffffffff\n  mul\n  not\n  and\n  swap1\n  dup4\n  0xffffffffffffffffffffffffffffffffffffffff\n  and\n  mul\n  or\n  swap1\n  sstore\n  pop\n    /* \"Bakery.sol\":74:772  contract bakery{... */\n  dataSize(sub_0)\n  dup1\n  dataOffset(sub_0)\n  0x00\n  codecopy\n  0x00\n  return\nstop\n\nsub_0: assembly {\n        /* \"Bakery.sol\":74:772  contract bakery{... */\n      mstore(0x40, 0x80)\n      jumpi(tag_1, lt(calldatasize, 0x04))\n      shr(0xe0, calldataload(0x00))\n      dup1\n      0x06f2d7f3\n      eq\n      tag_3\n      jumpi\n      dup1\n      0x8da5cb5b\n      eq\n      tag_4\n      jumpi\n      dup1\n      0x941be5f7\n      eq\n      tag_5\n      jumpi\n      dup1\n      0xc84e45c7\n      eq\n      tag_6\n      jumpi\n      jump(tag_2)\n    tag_1:\n      jumpi(tag_2, calldatasize)\n        /* \"Bakery.sol\":527:532  owner */\n      0x02\n      0x00\n      swap1\n      sload\n      swap1\n      0x0100\n      exp\n      swap1\n      div\n      0xffffffffffffffffffffffffffffffffffffffff\n      and\n        /* \"Bakery.sol\":515:532  msg.sender==owner */\n      0xffffffffffffffffffffffffffffffffffffffff\n      and\n        /* \"Bakery.sol\":515:525  msg.sender */\n      caller\n        /* \"Bakery.sol\":515:532  msg.sender==owner */\n      0xffffffffffffffffffffffffffffffffffffffff\n      and\n      eq\n        /* \"Bakery.sol\":507:533  require(msg.sender==owner) */\n      tag_9\n      jumpi\n      0x00\n      dup1\n      revert\n    tag_9:\n        /* \"Bakery.sol\":74:772  contract bakery{... */\n      stop\n    tag_2:\n      0x00\n      dup1\n      revert\n        /* \"Bakery.sol\":685:767  function getMeal(string memory _meal) public returns(bool)... */\n    tag_3:\n      callvalue\n      dup1\n      iszero\n      tag_10\n      jumpi\n      0x00\n      dup1\n      revert\n    tag_10:\n      pop\n      tag_11\n      0x04\n      dup1\n      calldatasize\n      sub\n      dup2\n      add\n      swap1\n      tag_12\n      swap2\n      swap1\n      tag_13\n      jump\t// in\n    tag_12:\n      tag_14\n      jump\t// in\n    tag_11:\n      mload(0x40)\n      tag_15\n      swap2\n      swap1\n      tag_16\n      jump\t// in\n    tag_15:\n      mload(0x40)\n      dup1\n      swap2\n      sub\n      swap1\n      return\n        /* \"Bakery.sol\":265:285  address public owner */\n    tag_4:\n      callvalue\n      dup1\n      iszero\n      tag_17\n      jumpi\n      0x00\n      dup1\n      revert\n    tag_17:\n      pop\n      tag_18\n      tag_19\n      jump\t// in\n    tag_18:\n      mload(0x40)\n      tag_20\n      swap2\n      swap1\n      tag_21\n      jump\t// in\n    tag_20:\n      mload(0x40)\n      dup1\n      swap2\n      sub\n      swap1\n      return\n        /* \"Bakery.sol\":357:456  function getBlance() view public returns(uint)... */\n    tag_5:\n      callvalue\n      dup1\n      iszero\n      tag_22\n      jumpi\n      0x00\n      dup1\n      revert\n    tag_22:\n      pop\n      tag_23\n      tag_24\n      jump\t// in\n    tag_23:\n      mload(0x40)\n      tag_25\n      swap2\n      swap1\n      tag_26\n      jump\t// in\n    tag_25:\n      mload(0x40)\n      dup1\n      swap2\n      sub\n      swap1\n      return\n        /* \"Bakery.sol\":551:677  function transf() public ... */\n    tag_6:\n      callvalue\n      dup1\n      iszero\n      tag_27\n      jumpi\n      0x00\n      dup1\n      revert\n    tag_27:\n      pop\n      tag_28\n      tag_29\n      jump\t// in\n    tag_28:\n      stop\n        /* \"Bakery.sol\":685:767  function getMeal(string memory _meal) public returns(bool)... */\n    tag_14:\n        /* \"Bakery.sol\":738:742  bool */\n      0x00\n        /* \"Bakery.sol\":685:767  function getMeal(string memory _meal) public returns(bool)... */\n      swap2\n      swap1\n      pop\n      jump\t// out\n        /* \"Bakery.sol\":265:285  address public owner */\n    tag_19:\n      0x02\n      0x00\n      swap1\n      sload\n      swap1\n      0x0100\n      exp\n      swap1\n      div\n      0xffffffffffffffffffffffffffffffffffffffff\n      and\n      dup2\n      jump\t// out\n        /* \"Bakery.sol\":357:456  function getBlance() view public returns(uint)... */\n    tag_24:\n        /* \"Bakery.sol\":398:402  uint */\n      0x00\n        /* \"Bakery.sol\":427:448  address(this).balance */\n      selfbalance\n        /* \"Bakery.sol\":420:448  return address(this).balance */\n      swap1\n      pop\n        /* \"Bakery.sol\":357:456  function getBlance() view public returns(uint)... */\n      swap1\n      jump\t// out\n        /* \"Bakery.sol\":551:677  function transf() public ... */\n    tag_29:\n        /* \"Bakery.sol\":637:647  thirdParty */\n      0x00\n      dup1\n      sload\n      swap1\n      0x0100\n      exp\n      swap1\n      div\n      0xffffffffffffffffffffffffffffffffffffffff\n      and\n        /* \"Bakery.sol\":637:656  thirdParty.transfer */\n      0xffffffffffffffffffffffffffffffffffffffff\n      and\n        /* \"Bakery.sol\":637:669  thirdParty.transfer(getBlance()) */\n      0x08fc\n        /* \"Bakery.sol\":657:668  getBlance() */\n      tag_33\n        /* \"Bakery.sol\":657:666  getBlance */\n      tag_24\n        /* \"Bakery.sol\":657:668  getBlance() */\n      jump\t// in\n    tag_33:\n        /* \"Bakery.sol\":637:669  thirdParty.transfer(getBlance()) */\n      swap1\n      dup2\n      iszero\n      mul\n      swap1\n      mload(0x40)\n      0x00\n      mload(0x40)\n      dup1\n      dup4\n      sub\n      dup2\n      dup6\n      dup9\n      dup9\n      call\n      swap4\n      pop\n      pop\n      pop\n      pop\n      iszero\n      dup1\n      iszero\n      tag_35\n      jumpi\n      returndatasize\n      0x00\n      dup1\n      returndatacopy\n      revert(0x00, returndatasize)\n    tag_35:\n      pop\n        /* \"Bakery.sol\":551:677  function transf() public ... */\n      jump\t// out\n        /* \"#utility.yul\":7:82   */\n    tag_36:\n        /* \"#utility.yul\":40:46   */\n      0x00\n        /* \"#utility.yul\":73:75   */\n      0x40\n        /* \"#utility.yul\":67:76   */\n      mload\n        /* \"#utility.yul\":57:76   */\n      swap1\n      pop\n        /* \"#utility.yul\":7:82   */\n      swap1\n      jump\t// out\n        /* \"#utility.yul\":88:205   */\n    tag_37:\n        /* \"#utility.yul\":197:198   */\n      0x00\n        /* \"#utility.yul\":194:195   */\n      dup1\n        /* \"#utility.yul\":187:199   */\n      revert\n        /* \"#utility.yul\":211:328   */\n    tag_38:\n        /* \"#utility.yul\":320:321   */\n      0x00\n        /* \"#utility.yul\":317:318   */\n      dup1\n        /* \"#utility.yul\":310:322   */\n      revert\n        /* \"#utility.yul\":334:451   */\n    tag_39:\n        /* \"#utility.yul\":443:444   */\n      0x00\n        /* \"#utility.yul\":440:441   */\n      dup1\n        /* \"#utility.yul\":433:445   */\n      revert\n        /* \"#utility.yul\":457:574   */\n    tag_40:\n        /* \"#utility.yul\":566:567   */\n      0x00\n        /* \"#utility.yul\":563:564   */\n      dup1\n        /* \"#utility.yul\":556:568   */\n      revert\n        /* \"#utility.yul\":580:682   */\n    tag_41:\n        /* \"#utility.yul\":621:627   */\n      0x00\n        /* \"#utility.yul\":672:674   */\n      0x1f\n        /* \"#utility.yul\":668:675   */\n      not\n        /* \"#utility.yul\":663:665   */\n      0x1f\n        /* \"#utility.yul\":656:661   */\n      dup4\n        /* \"#utility.yul\":652:666   */\n      add\n        /* \"#utility.yul\":648:676   */\n      and\n        /* \"#utility.yul\":638:676   */\n      swap1\n      pop\n        /* \"#utility.yul\":580:682   */\n      swap2\n      swap1\n      pop\n      jump\t// out\n        /* \"#utility.yul\":688:868   */\n    tag_42:\n        /* \"#utility.yul\":736:813   */\n      0x4e487b7100000000000000000000000000000000000000000000000000000000\n        /* \"#utility.yul\":733:734   */\n      0x00\n        /* \"#utility.yul\":726:814   */\n      mstore\n        /* \"#utility.yul\":833:837   */\n      0x41\n        /* \"#utility.yul\":830:831   */\n      0x04\n        /* \"#utility.yul\":823:838   */\n      mstore\n        /* \"#utility.yul\":857:861   */\n      0x24\n        /* \"#utility.yul\":854:855   */\n      0x00\n        /* \"#utility.yul\":847:862   */\n      revert\n        /* \"#utility.yul\":874:1155   */\n    tag_43:\n        /* \"#utility.yul\":957:984   */\n      tag_65\n        /* \"#utility.yul\":979:983   */\n      dup3\n        /* \"#utility.yul\":957:984   */\n      tag_41\n      jump\t// in\n    tag_65:\n        /* \"#utility.yul\":949:955   */\n      dup2\n        /* \"#utility.yul\":945:985   */\n      add\n        /* \"#utility.yul\":1087:1093   */\n      dup2\n        /* \"#utility.yul\":1075:1085   */\n      dup2\n        /* \"#utility.yul\":1072:1094   */\n      lt\n        /* \"#utility.yul\":1051:1069   */\n      0xffffffffffffffff\n        /* \"#utility.yul\":1039:1049   */\n      dup3\n        /* \"#utility.yul\":1036:1070   */\n      gt\n        /* \"#utility.yul\":1033:1095   */\n      or\n        /* \"#utility.yul\":1030:1118   */\n      iszero\n      tag_66\n      jumpi\n        /* \"#utility.yul\":1098:1116   */\n      tag_67\n      tag_42\n      jump\t// in\n    tag_67:\n        /* \"#utility.yul\":1030:1118   */\n    tag_66:\n        /* \"#utility.yul\":1138:1148   */\n      dup1\n        /* \"#utility.yul\":1134:1136   */\n      0x40\n        /* \"#utility.yul\":1127:1149   */\n      mstore\n        /* \"#utility.yul\":917:1155   */\n      pop\n        /* \"#utility.yul\":874:1155   */\n      pop\n      pop\n      jump\t// out\n        /* \"#utility.yul\":1161:1290   */\n    tag_44:\n        /* \"#utility.yul\":1195:1201   */\n      0x00\n        /* \"#utility.yul\":1222:1242   */\n      tag_69\n      tag_36\n      jump\t// in\n    tag_69:\n        /* \"#utility.yul\":1212:1242   */\n      swap1\n      pop\n        /* \"#utility.yul\":1251:1284   */\n      tag_70\n        /* \"#utility.yul\":1279:1283   */\n      dup3\n        /* \"#utility.yul\":1271:1277   */\n      dup3\n        /* \"#utility.yul\":1251:1284   */\n      tag_43\n      jump\t// in\n    tag_70:\n        /* \"#utility.yul\":1161:1290   */\n      swap2\n      swap1\n      pop\n      jump\t// out\n        /* \"#utility.yul\":1296:1604   */\n    tag_45:\n        /* \"#utility.yul\":1358:1362   */\n      0x00\n        /* \"#utility.yul\":1448:1466   */\n      0xffffffffffffffff\n        /* \"#utility.yul\":1440:1446   */\n      dup3\n        /* \"#utility.yul\":1437:1467   */\n      gt\n        /* \"#utility.yul\":1434:1490   */\n      iszero\n      tag_72\n      jumpi\n        /* \"#utility.yul\":1470:1488   */\n      tag_73\n      tag_42\n      jump\t// in\n    tag_73:\n        /* \"#utility.yul\":1434:1490   */\n    tag_72:\n        /* \"#utility.yul\":1508:1537   */\n      tag_74\n        /* \"#utility.yul\":1530:1536   */\n      dup3\n        /* \"#utility.yul\":1508:1537   */\n      tag_41\n      jump\t// in\n    tag_74:\n        /* \"#utility.yul\":1500:1537   */\n      swap1\n      pop\n        /* \"#utility.yul\":1592:1596   */\n      0x20\n        /* \"#utility.yul\":1586:1590   */\n      dup2\n        /* \"#utility.yul\":1582:1597   */\n      add\n        /* \"#utility.yul\":1574:1597   */\n      swap1\n      pop\n        /* \"#utility.yul\":1296:1604   */\n      swap2\n      swap1\n      pop\n      jump\t// out\n        /* \"#utility.yul\":1610:1756   */\n    tag_46:\n        /* \"#utility.yul\":1707:1713   */\n      dup3\n        /* \"#utility.yul\":1702:1705   */\n      dup2\n        /* \"#utility.yul\":1697:1700   */\n      dup4\n        /* \"#utility.yul\":1684:1714   */\n      calldatacopy\n        /* \"#utility.yul\":1748:1749   */\n      0x00\n        /* \"#utility.yul\":1739:1745   */\n      dup4\n        /* \"#utility.yul\":1734:1737   */\n      dup4\n        /* \"#utility.yul\":1730:1746   */\n      add\n        /* \"#utility.yul\":1723:1750   */\n      mstore\n        /* \"#utility.yul\":1610:1756   */\n      pop\n      pop\n      pop\n      jump\t// out\n        /* \"#utility.yul\":1762:2187   */\n    tag_47:\n        /* \"#utility.yul\":1840:1845   */\n      0x00\n        /* \"#utility.yul\":1865:1931   */\n      tag_77\n        /* \"#utility.yul\":1881:1930   */\n      tag_78\n        /* \"#utility.yul\":1923:1929   */\n      dup5\n        /* \"#utility.yul\":1881:1930   */\n      tag_45\n      jump\t// in\n    tag_78:\n        /* \"#utility.yul\":1865:1931   */\n      tag_44\n      jump\t// in\n    tag_77:\n        /* \"#utility.yul\":1856:1931   */\n      swap1\n      pop\n        /* \"#utility.yul\":1954:1960   */\n      dup3\n        /* \"#utility.yul\":1947:1952   */\n      dup2\n        /* \"#utility.yul\":1940:1961   */\n      mstore\n        /* \"#utility.yul\":1992:1996   */\n      0x20\n        /* \"#utility.yul\":1985:1990   */\n      dup2\n        /* \"#utility.yul\":1981:1997   */\n      add\n        /* \"#utility.yul\":2030:2033   */\n      dup5\n        /* \"#utility.yul\":2021:2027   */\n      dup5\n        /* \"#utility.yul\":2016:2019   */\n      dup5\n        /* \"#utility.yul\":2012:2028   */\n      add\n        /* \"#utility.yul\":2009:2034   */\n      gt\n        /* \"#utility.yul\":2006:2118   */\n      iszero\n      tag_79\n      jumpi\n        /* \"#utility.yul\":2037:2116   */\n      tag_80\n      tag_40\n      jump\t// in\n    tag_80:\n        /* \"#utility.yul\":2006:2118   */\n    tag_79:\n        /* \"#utility.yul\":2127:2181   */\n      tag_81\n        /* \"#utility.yul\":2174:2180   */\n      dup5\n        /* \"#utility.yul\":2169:2172   */\n      dup3\n        /* \"#utility.yul\":2164:2167   */\n      dup6\n        /* \"#utility.yul\":2127:2181   */\n      tag_46\n      jump\t// in\n    tag_81:\n        /* \"#utility.yul\":1846:2187   */\n      pop\n        /* \"#utility.yul\":1762:2187   */\n      swap4\n      swap3\n      pop\n      pop\n      pop\n      jump\t// out\n        /* \"#utility.yul\":2207:2547   */\n    tag_48:\n        /* \"#utility.yul\":2263:2268   */\n      0x00\n        /* \"#utility.yul\":2312:2315   */\n      dup3\n        /* \"#utility.yul\":2305:2309   */\n      0x1f\n        /* \"#utility.yul\":2297:2303   */\n      dup4\n        /* \"#utility.yul\":2293:2310   */\n      add\n        /* \"#utility.yul\":2289:2316   */\n      slt\n        /* \"#utility.yul\":2279:2401   */\n      tag_83\n      jumpi\n        /* \"#utility.yul\":2320:2399   */\n      tag_84\n      tag_39\n      jump\t// in\n    tag_84:\n        /* \"#utility.yul\":2279:2401   */\n    tag_83:\n        /* \"#utility.yul\":2437:2443   */\n      dup2\n        /* \"#utility.yul\":2424:2444   */\n      calldataload\n        /* \"#utility.yul\":2462:2541   */\n      tag_85\n        /* \"#utility.yul\":2537:2540   */\n      dup5\n        /* \"#utility.yul\":2529:2535   */\n      dup3\n        /* \"#utility.yul\":2522:2526   */\n      0x20\n        /* \"#utility.yul\":2514:2520   */\n      dup7\n        /* \"#utility.yul\":2510:2527   */\n      add\n        /* \"#utility.yul\":2462:2541   */\n      tag_47\n      jump\t// in\n    tag_85:\n        /* \"#utility.yul\":2453:2541   */\n      swap2\n      pop\n        /* \"#utility.yul\":2269:2547   */\n      pop\n        /* \"#utility.yul\":2207:2547   */\n      swap3\n      swap2\n      pop\n      pop\n      jump\t// out\n        /* \"#utility.yul\":2553:3062   */\n    tag_13:\n        /* \"#utility.yul\":2622:2628   */\n      0x00\n        /* \"#utility.yul\":2671:2673   */\n      0x20\n        /* \"#utility.yul\":2659:2668   */\n      dup3\n        /* \"#utility.yul\":2650:2657   */\n      dup5\n        /* \"#utility.yul\":2646:2669   */\n      sub\n        /* \"#utility.yul\":2642:2674   */\n      slt\n        /* \"#utility.yul\":2639:2758   */\n      iszero\n      tag_87\n      jumpi\n        /* \"#utility.yul\":2677:2756   */\n      tag_88\n      tag_37\n      jump\t// in\n    tag_88:\n        /* \"#utility.yul\":2639:2758   */\n    tag_87:\n        /* \"#utility.yul\":2825:2826   */\n      0x00\n        /* \"#utility.yul\":2814:2823   */\n      dup3\n        /* \"#utility.yul\":2810:2827   */\n      add\n        /* \"#utility.yul\":2797:2828   */\n      calldataload\n        /* \"#utility.yul\":2855:2873   */\n      0xffffffffffffffff\n        /* \"#utility.yul\":2847:2853   */\n      dup2\n        /* \"#utility.yul\":2844:2874   */\n      gt\n        /* \"#utility.yul\":2841:2958   */\n      iszero\n      tag_89\n      jumpi\n        /* \"#utility.yul\":2877:2956   */\n      tag_90\n      tag_38\n      jump\t// in\n    tag_90:\n        /* \"#utility.yul\":2841:2958   */\n    tag_89:\n        /* \"#utility.yul\":2982:3045   */\n      tag_91\n        /* \"#utility.yul\":3037:3044   */\n      dup5\n        /* \"#utility.yul\":3028:3034   */\n      dup3\n        /* \"#utility.yul\":3017:3026   */\n      dup6\n        /* \"#utility.yul\":3013:3035   */\n      add\n        /* \"#utility.yul\":2982:3045   */\n      tag_48\n      jump\t// in\n    tag_91:\n        /* \"#utility.yul\":2972:3045   */\n      swap2\n      pop\n        /* \"#utility.yul\":2768:3055   */\n      pop\n        /* \"#utility.yul\":2553:3062   */\n      swap3\n      swap2\n      pop\n      pop\n      jump\t// out\n        /* \"#utility.yul\":3068:3158   */\n    tag_49:\n        /* \"#utility.yul\":3102:3109   */\n      0x00\n        /* \"#utility.yul\":3145:3150   */\n      dup2\n        /* \"#utility.yul\":3138:3151   */\n      iszero\n        /* \"#utility.yul\":3131:3152   */\n      iszero\n        /* \"#utility.yul\":3120:3152   */\n      swap1\n      pop\n        /* \"#utility.yul\":3068:3158   */\n      swap2\n      swap1\n      pop\n      jump\t// out\n        /* \"#utility.yul\":3164:3273   */\n    tag_50:\n        /* \"#utility.yul\":3245:3266   */\n      tag_94\n        /* \"#utility.yul\":3260:3265   */\n      dup2\n        /* \"#utility.yul\":3245:3266   */\n      tag_49\n      jump\t// in\n    tag_94:\n        /* \"#utility.yul\":3240:3243   */\n      dup3\n        /* \"#utility.yul\":3233:3267   */\n      mstore\n        /* \"#utility.yul\":3164:3273   */\n      pop\n      pop\n      jump\t// out\n        /* \"#utility.yul\":3279:3489   */\n    tag_16:\n        /* \"#utility.yul\":3366:3370   */\n      0x00\n        /* \"#utility.yul\":3404:3406   */\n      0x20\n        /* \"#utility.yul\":3393:3402   */\n      dup3\n        /* \"#utility.yul\":3389:3407   */\n      add\n        /* \"#utility.yul\":3381:3407   */\n      swap1\n      pop\n        /* \"#utility.yul\":3417:3482   */\n      tag_96\n        /* \"#utility.yul\":3479:3480   */\n      0x00\n        /* \"#utility.yul\":3468:3477   */\n      dup4\n        /* \"#utility.yul\":3464:3481   */\n      add\n        /* \"#utility.yul\":3455:3461   */\n      dup5\n        /* \"#utility.yul\":3417:3482   */\n      tag_50\n      jump\t// in\n    tag_96:\n        /* \"#utility.yul\":3279:3489   */\n      swap3\n      swap2\n      pop\n      pop\n      jump\t// out\n        /* \"#utility.yul\":3495:3621   */\n    tag_51:\n        /* \"#utility.yul\":3532:3539   */\n      0x00\n        /* \"#utility.yul\":3572:3614   */\n      0xffffffffffffffffffffffffffffffffffffffff\n        /* \"#utility.yul\":3565:3570   */\n      dup3\n        /* \"#utility.yul\":3561:3615   */\n      and\n        /* \"#utility.yul\":3550:3615   */\n      swap1\n      pop\n        /* \"#utility.yul\":3495:3621   */\n      swap2\n      swap1\n      pop\n      jump\t// out\n        /* \"#utility.yul\":3627:3723   */\n    tag_52:\n        /* \"#utility.yul\":3664:3671   */\n      0x00\n        /* \"#utility.yul\":3693:3717   */\n      tag_99\n        /* \"#utility.yul\":3711:3716   */\n      dup3\n        /* \"#utility.yul\":3693:3717   */\n      tag_51\n      jump\t// in\n    tag_99:\n        /* \"#utility.yul\":3682:3717   */\n      swap1\n      pop\n        /* \"#utility.yul\":3627:3723   */\n      swap2\n      swap1\n      pop\n      jump\t// out\n        /* \"#utility.yul\":3729:3847   */\n    tag_53:\n        /* \"#utility.yul\":3816:3840   */\n      tag_101\n        /* \"#utility.yul\":3834:3839   */\n      dup2\n        /* \"#utility.yul\":3816:3840   */\n      tag_52\n      jump\t// in\n    tag_101:\n        /* \"#utility.yul\":3811:3814   */\n      dup3\n        /* \"#utility.yul\":3804:3841   */\n      mstore\n        /* \"#utility.yul\":3729:3847   */\n      pop\n      pop\n      jump\t// out\n        /* \"#utility.yul\":3853:4075   */\n    tag_21:\n        /* \"#utility.yul\":3946:3950   */\n      0x00\n        /* \"#utility.yul\":3984:3986   */\n      0x20\n        /* \"#utility.yul\":3973:3982   */\n      dup3\n        /* \"#utility.yul\":3969:3987   */\n      add\n        /* \"#utility.yul\":3961:3987   */\n      swap1\n      pop\n        /* \"#utility.yul\":3997:4068   */\n      tag_103\n        /* \"#utility.yul\":4065:4066   */\n      0x00\n        /* \"#utility.yul\":4054:4063   */\n      dup4\n        /* \"#utility.yul\":4050:4067   */\n      add\n        /* \"#utility.yul\":4041:4047   */\n      dup5\n        /* \"#utility.yul\":3997:4068   */\n      tag_53\n      jump\t// in\n    tag_103:\n        /* \"#utility.yul\":3853:4075   */\n      swap3\n      swap2\n      pop\n      pop\n      jump\t// out\n        /* \"#utility.yul\":4081:4158   */\n    tag_54:\n        /* \"#utility.yul\":4118:4125   */\n      0x00\n        /* \"#utility.yul\":4147:4152   */\n      dup2\n        /* \"#utility.yul\":4136:4152   */\n      swap1\n      pop\n        /* \"#utility.yul\":4081:4158   */\n      swap2\n      swap1\n      pop\n      jump\t// out\n        /* \"#utility.yul\":4164:4282   */\n    tag_55:\n        /* \"#utility.yul\":4251:4275   */\n      tag_106\n        /* \"#utility.yul\":4269:4274   */\n      dup2\n        /* \"#utility.yul\":4251:4275   */\n      tag_54\n      jump\t// in\n    tag_106:\n        /* \"#utility.yul\":4246:4249   */\n      dup3\n        /* \"#utility.yul\":4239:4276   */\n      mstore\n        /* \"#utility.yul\":4164:4282   */\n      pop\n      pop\n      jump\t// out\n        /* \"#utility.yul\":4288:4510   */\n    tag_26:\n        /* \"#utility.yul\":4381:4385   */\n      0x00\n        /* \"#utility.yul\":4419:4421   */\n      0x20\n        /* \"#utility.yul\":4408:4417   */\n      dup3\n        /* \"#utility.yul\":4404:4422   */\n      add\n        /* \"#utility.yul\":4396:4422   */\n      swap1\n      pop\n        /* \"#utility.yul\":4432:4503   */\n      tag_108\n        /* \"#utility.yul\":4500:4501   */\n      0x00\n        /* \"#utility.yul\":4489:4498   */\n      dup4\n        /* \"#utility.yul\":4485:4502   */\n      add\n        /* \"#utility.yul\":4476:4482   */\n      dup5\n        /* \"#utility.yul\":4432:4503   */\n      tag_55\n      jump\t// in\n    tag_108:\n        /* \"#utility.yul\":4288:4510   */\n      swap3\n      swap2\n      pop\n      pop\n      jump\t// out\n\n    auxdata: 0xa264697066735822122072d1075eb96d16a0cb66cb4319ddcc580f771fc19b8b01a8b4efb25291f0660464736f6c63430008110033\n}\n",
				"bytecode": {
					"linkReferences": {},
					"object": "60806040527378731d3ca6b7e34ac0f824c42a7cc18a495cabab6000806101000a81548173ffffffffffffffffffffffffffffffffffffffff021916908373ffffffffffffffffffffffffffffffffffffffff16021790555073ab8483f64d9c6d1ecf9b849ae677dd3315835cb2600160006101000a81548173ffffffffffffffffffffffffffffffffffffffff021916908373ffffffffffffffffffffffffffffffffffffffff1602179055503480156100b957600080fd5b5033600260006101000a81548173ffffffffffffffffffffffffffffffffffffffff021916908373ffffffffffffffffffffffffffffffffffffffff1602179055506104978061010a6000396000f3fe6080604052600436106100435760003560e01c806306f2d7f3146100a95780638da5cb5b146100e6578063941be5f714610111578063c84e45c71461013c576100a4565b366100a457600260009054906101000a900473ffffffffffffffffffffffffffffffffffffffff1673ffffffffffffffffffffffffffffffffffffffff163373ffffffffffffffffffffffffffffffffffffffff16146100a257600080fd5b005b600080fd5b3480156100b557600080fd5b506100d060048036038101906100cb9190610352565b610153565b6040516100dd91906103b6565b60405180910390f35b3480156100f257600080fd5b506100fb61015a565b6040516101089190610412565b60405180910390f35b34801561011d57600080fd5b50610126610180565b6040516101339190610446565b60405180910390f35b34801561014857600080fd5b50610151610188565b005b6000919050565b600260009054906101000a900473ffffffffffffffffffffffffffffffffffffffff1681565b600047905090565b60008054906101000a900473ffffffffffffffffffffffffffffffffffffffff1673ffffffffffffffffffffffffffffffffffffffff166108fc6101ca610180565b9081150290604051600060405180830381858888f193505050501580156101f5573d6000803e3d6000fd5b50565b6000604051905090565b600080fd5b600080fd5b600080fd5b600080fd5b6000601f19601f8301169050919050565b7f4e487b7100000000000000000000000000000000000000000000000000000000600052604160045260246000fd5b61025f82610216565b810181811067ffffffffffffffff8211171561027e5761027d610227565b5b80604052505050565b60006102916101f8565b905061029d8282610256565b919050565b600067ffffffffffffffff8211156102bd576102bc610227565b5b6102c682610216565b9050602081019050919050565b82818337600083830152505050565b60006102f56102f0846102a2565b610287565b90508281526020810184848401111561031157610310610211565b5b61031c8482856102d3565b509392505050565b600082601f8301126103395761033861020c565b5b81356103498482602086016102e2565b91505092915050565b60006020828403121561036857610367610202565b5b600082013567ffffffffffffffff81111561038657610385610207565b5b61039284828501610324565b91505092915050565b60008115159050919050565b6103b08161039b565b82525050565b60006020820190506103cb60008301846103a7565b92915050565b600073ffffffffffffffffffffffffffffffffffffffff82169050919050565b60006103fc826103d1565b9050919050565b61040c816103f1565b82525050565b60006020820190506104276000830184610403565b92915050565b6000819050919050565b6104408161042d565b82525050565b600060208201905061045b6000830184610437565b9291505056fea264697066735822122072d1075eb96d16a0cb66cb4319ddcc580f771fc19b8b01a8b4efb25291f0660464736f6c63430008110033",
					"opcodes": "PUSH1 0x80 PUSH1 0x40 MSTORE PUSH20 0x78731D3CA6B7E34AC0F824C42A7CC18A495CABAB PUSH1 0x0 DUP1 PUSH2 0x100 EXP DUP2 SLOAD DUP2 PUSH20 0xFFFFFFFFFFFFFFFFFFFFFFFFFFFFFFFFFFFFFFFF MUL NOT AND SWAP1 DUP4 PUSH20 0xFFFFFFFFFFFFFFFFFFFFFFFFFFFFFFFFFFFFFFFF AND MUL OR SWAP1 SSTORE POP PUSH20 0xAB8483F64D9C6D1ECF9B849AE677DD3315835CB2 PUSH1 0x1 PUSH1 0x0 PUSH2 0x100 EXP DUP2 SLOAD DUP2 PUSH20 0xFFFFFFFFFFFFFFFFFFFFFFFFFFFFFFFFFFFFFFFF MUL NOT AND SWAP1 DUP4 PUSH20 0xFFFFFFFFFFFFFFFFFFFFFFFFFFFFFFFFFFFFFFFF AND MUL OR SWAP1 SSTORE POP CALLVALUE DUP1 ISZERO PUSH2 0xB9 JUMPI PUSH1 0x0 DUP1 REVERT JUMPDEST POP CALLER PUSH1 0x2 PUSH1 0x0 PUSH2 0x100 EXP DUP2 SLOAD DUP2 PUSH20 0xFFFFFFFFFFFFFFFFFFFFFFFFFFFFFFFFFFFFFFFF MUL NOT AND SWAP1 DUP4 PUSH20 0xFFFFFFFFFFFFFFFFFFFFFFFFFFFFFFFFFFFFFFFF AND MUL OR SWAP1 SSTORE POP PUSH2 0x497 DUP1 PUSH2 0x10A PUSH1 0x0 CODECOPY PUSH1 0x0 RETURN INVALID PUSH1 0x80 PUSH1 0x40 MSTORE PUSH1 0x4 CALLDATASIZE LT PUSH2 0x43 JUMPI PUSH1 0x0 CALLDATALOAD PUSH1 0xE0 SHR DUP1 PUSH4 0x6F2D7F3 EQ PUSH2 0xA9 JUMPI DUP1 PUSH4 0x8DA5CB5B EQ PUSH2 0xE6 JUMPI DUP1 PUSH4 0x941BE5F7 EQ PUSH2 0x111 JUMPI DUP1 PUSH4 0xC84E45C7 EQ PUSH2 0x13C JUMPI PUSH2 0xA4 JUMP JUMPDEST CALLDATASIZE PUSH2 0xA4 JUMPI PUSH1 0x2 PUSH1 0x0 SWAP1 SLOAD SWAP1 PUSH2 0x100 EXP SWAP1 DIV PUSH20 0xFFFFFFFFFFFFFFFFFFFFFFFFFFFFFFFFFFFFFFFF AND PUSH20 0xFFFFFFFFFFFFFFFFFFFFFFFFFFFFFFFFFFFFFFFF AND CALLER PUSH20 0xFFFFFFFFFFFFFFFFFFFFFFFFFFFFFFFFFFFFFFFF AND EQ PUSH2 0xA2 JUMPI PUSH1 0x0 DUP1 REVERT JUMPDEST STOP JUMPDEST PUSH1 0x0 DUP1 REVERT JUMPDEST CALLVALUE DUP1 ISZERO PUSH2 0xB5 JUMPI PUSH1 0x0 DUP1 REVERT JUMPDEST POP PUSH2 0xD0 PUSH1 0x4 DUP1 CALLDATASIZE SUB DUP2 ADD SWAP1 PUSH2 0xCB SWAP2 SWAP1 PUSH2 0x352 JUMP JUMPDEST PUSH2 0x153 JUMP JUMPDEST PUSH1 0x40 MLOAD PUSH2 0xDD SWAP2 SWAP1 PUSH2 0x3B6 JUMP JUMPDEST PUSH1 0x40 MLOAD DUP1 SWAP2 SUB SWAP1 RETURN JUMPDEST CALLVALUE DUP1 ISZERO PUSH2 0xF2 JUMPI PUSH1 0x0 DUP1 REVERT JUMPDEST POP PUSH2 0xFB PUSH2 0x15A JUMP JUMPDEST PUSH1 0x40 MLOAD PUSH2 0x108 SWAP2 SWAP1 PUSH2 0x412 JUMP JUMPDEST PUSH1 0x40 MLOAD DUP1 SWAP2 SUB SWAP1 RETURN JUMPDEST CALLVALUE DUP1 ISZERO PUSH2 0x11D JUMPI PUSH1 0x0 DUP1 REVERT JUMPDEST POP PUSH2 0x126 PUSH2 0x180 JUMP JUMPDEST PUSH1 0x40 MLOAD PUSH2 0x133 SWAP2 SWAP1 PUSH2 0x446 JUMP JUMPDEST PUSH1 0x40 MLOAD DUP1 SWAP2 SUB SWAP1 RETURN JUMPDEST CALLVALUE DUP1 ISZERO PUSH2 0x148 JUMPI PUSH1 0x0 DUP1 REVERT JUMPDEST POP PUSH2 0x151 PUSH2 0x188 JUMP JUMPDEST STOP JUMPDEST PUSH1 0x0 SWAP2 SWAP1 POP JUMP JUMPDEST PUSH1 0x2 PUSH1 0x0 SWAP1 SLOAD SWAP1 PUSH2 0x100 EXP SWAP1 DIV PUSH20 0xFFFFFFFFFFFFFFFFFFFFFFFFFFFFFFFFFFFFFFFF AND DUP2 JUMP JUMPDEST PUSH1 0x0 SELFBALANCE SWAP1 POP SWAP1 JUMP JUMPDEST PUSH1 0x0 DUP1 SLOAD SWAP1 PUSH2 0x100 EXP SWAP1 DIV PUSH20 0xFFFFFFFFFFFFFFFFFFFFFFFFFFFFFFFFFFFFFFFF AND PUSH20 0xFFFFFFFFFFFFFFFFFFFFFFFFFFFFFFFFFFFFFFFF AND PUSH2 0x8FC PUSH2 0x1CA PUSH2 0x180 JUMP JUMPDEST SWAP1 DUP2 ISZERO MUL SWAP1 PUSH1 0x40 MLOAD PUSH1 0x0 PUSH1 0x40 MLOAD DUP1 DUP4 SUB DUP2 DUP6 DUP9 DUP9 CALL SWAP4 POP POP POP POP ISZERO DUP1 ISZERO PUSH2 0x1F5 JUMPI RETURNDATASIZE PUSH1 0x0 DUP1 RETURNDATACOPY RETURNDATASIZE PUSH1 0x0 REVERT JUMPDEST POP JUMP JUMPDEST PUSH1 0x0 PUSH1 0x40 MLOAD SWAP1 POP SWAP1 JUMP JUMPDEST PUSH1 0x0 DUP1 REVERT JUMPDEST PUSH1 0x0 DUP1 REVERT JUMPDEST PUSH1 0x0 DUP1 REVERT JUMPDEST PUSH1 0x0 DUP1 REVERT JUMPDEST PUSH1 0x0 PUSH1 0x1F NOT PUSH1 0x1F DUP4 ADD AND SWAP1 POP SWAP2 SWAP1 POP JUMP JUMPDEST PUSH32 0x4E487B7100000000000000000000000000000000000000000000000000000000 PUSH1 0x0 MSTORE PUSH1 0x41 PUSH1 0x4 MSTORE PUSH1 0x24 PUSH1 0x0 REVERT JUMPDEST PUSH2 0x25F DUP3 PUSH2 0x216 JUMP JUMPDEST DUP2 ADD DUP2 DUP2 LT PUSH8 0xFFFFFFFFFFFFFFFF DUP3 GT OR ISZERO PUSH2 0x27E JUMPI PUSH2 0x27D PUSH2 0x227 JUMP JUMPDEST JUMPDEST DUP1 PUSH1 0x40 MSTORE POP POP POP JUMP JUMPDEST PUSH1 0x0 PUSH2 0x291 PUSH2 0x1F8 JUMP JUMPDEST SWAP1 POP PUSH2 0x29D DUP3 DUP3 PUSH2 0x256 JUMP JUMPDEST SWAP2 SWAP1 POP JUMP JUMPDEST PUSH1 0x0 PUSH8 0xFFFFFFFFFFFFFFFF DUP3 GT ISZERO PUSH2 0x2BD JUMPI PUSH2 0x2BC PUSH2 0x227 JUMP JUMPDEST JUMPDEST PUSH2 0x2C6 DUP3 PUSH2 0x216 JUMP JUMPDEST SWAP1 POP PUSH1 0x20 DUP2 ADD SWAP1 POP SWAP2 SWAP1 POP JUMP JUMPDEST DUP3 DUP2 DUP4 CALLDATACOPY PUSH1 0x0 DUP4 DUP4 ADD MSTORE POP POP POP JUMP JUMPDEST PUSH1 0x0 PUSH2 0x2F5 PUSH2 0x2F0 DUP5 PUSH2 0x2A2 JUMP JUMPDEST PUSH2 0x287 JUMP JUMPDEST SWAP1 POP DUP3 DUP2 MSTORE PUSH1 0x20 DUP2 ADD DUP5 DUP5 DUP5 ADD GT ISZERO PUSH2 0x311 JUMPI PUSH2 0x310 PUSH2 0x211 JUMP JUMPDEST JUMPDEST PUSH2 0x31C DUP5 DUP3 DUP6 PUSH2 0x2D3 JUMP JUMPDEST POP SWAP4 SWAP3 POP POP POP JUMP JUMPDEST PUSH1 0x0 DUP3 PUSH1 0x1F DUP4 ADD SLT PUSH2 0x339 JUMPI PUSH2 0x338 PUSH2 0x20C JUMP JUMPDEST JUMPDEST DUP2 CALLDATALOAD PUSH2 0x349 DUP5 DUP3 PUSH1 0x20 DUP7 ADD PUSH2 0x2E2 JUMP JUMPDEST SWAP2 POP POP SWAP3 SWAP2 POP POP JUMP JUMPDEST PUSH1 0x0 PUSH1 0x20 DUP3 DUP5 SUB SLT ISZERO PUSH2 0x368 JUMPI PUSH2 0x367 PUSH2 0x202 JUMP JUMPDEST JUMPDEST PUSH1 0x0 DUP3 ADD CALLDATALOAD PUSH8 0xFFFFFFFFFFFFFFFF DUP2 GT ISZERO PUSH2 0x386 JUMPI PUSH2 0x385 PUSH2 0x207 JUMP JUMPDEST JUMPDEST PUSH2 0x392 DUP5 DUP3 DUP6 ADD PUSH2 0x324 JUMP JUMPDEST SWAP2 POP POP SWAP3 SWAP2 POP POP JUMP JUMPDEST PUSH1 0x0 DUP2 ISZERO ISZERO SWAP1 POP SWAP2 SWAP1 POP JUMP JUMPDEST PUSH2 0x3B0 DUP2 PUSH2 0x39B JUMP JUMPDEST DUP3 MSTORE POP POP JUMP JUMPDEST PUSH1 0x0 PUSH1 0x20 DUP3 ADD SWAP1 POP PUSH2 0x3CB PUSH1 0x0 DUP4 ADD DUP5 PUSH2 0x3A7 JUMP JUMPDEST SWAP3 SWAP2 POP POP JUMP JUMPDEST PUSH1 0x0 PUSH20 0xFFFFFFFFFFFFFFFFFFFFFFFFFFFFFFFFFFFFFFFF DUP3 AND SWAP1 POP SWAP2 SWAP1 POP JUMP JUMPDEST PUSH1 0x0 PUSH2 0x3FC DUP3 PUSH2 0x3D1 JUMP JUMPDEST SWAP1 POP SWAP2 SWAP1 POP JUMP JUMPDEST PUSH2 0x40C DUP2 PUSH2 0x3F1 JUMP JUMPDEST DUP3 MSTORE POP POP JUMP JUMPDEST PUSH1 0x0 PUSH1 0x20 DUP3 ADD SWAP1 POP PUSH2 0x427 PUSH1 0x0 DUP4 ADD DUP5 PUSH2 0x403 JUMP JUMPDEST SWAP3 SWAP2 POP POP JUMP JUMPDEST PUSH1 0x0 DUP2 SWAP1 POP SWAP2 SWAP1 POP JUMP JUMPDEST PUSH2 0x440 DUP2 PUSH2 0x42D JUMP JUMPDEST DUP3 MSTORE POP POP JUMP JUMPDEST PUSH1 0x0 PUSH1 0x20 DUP3 ADD SWAP1 POP PUSH2 0x45B PUSH1 0x0 DUP4 ADD DUP5 PUSH2 0x437 JUMP JUMPDEST SWAP3 SWAP2 POP POP JUMP INVALID LOG2 PUSH5 0x6970667358 0x22 SLT KECCAK256 PUSH19 0xD1075EB96D16A0CB66CB4319DDCC580F771FC1 SWAP12 DUP12 ADD 0xA8 0xB4 0xEF 0xB2 MSTORE SWAP2 CREATE PUSH7 0x464736F6C6343 STOP ADDMOD GT STOP CALLER "
				},
				"gasEstimates": {
					"creation": {
						"codeDepositCost": "235000",
						"executionCost": "73075",
						"totalCost": "308075"
					},
					"external": {
						"getBlance()": "361",
						"getMeal(string)": "infinite",
						"owner()": "2514",
						"transf()": "infinite"
					}
				},
				"methodIdentifiers": {
					"getBlance()": "941be5f7",
					"getMeal(string)": "06f2d7f3",
					"owner()": "8da5cb5b",
					"transf()": "c84e45c7"
				}
			},
			"storageLayout": {
				"storage": [
					{
						"astId": 7,
						"contract": "Bakery.sol:bakery",
						"label": "thirdParty",
						"offset": 0,
						"slot": "0",
						"type": "t_address_payable"
					},
					{
						"astId": 13,
						"contract": "Bakery.sol:bakery",
						"label": "salesMan",
						"offset": 0,
						"slot": "1",
						"type": "t_address_payable"
					},
					{
						"astId": 15,
						"contract": "Bakery.sol:bakery",
						"label": "owner",
						"offset": 0,
						"slot": "2",
						"type": "t_address"
					}
				],
				"types": {
					"t_address": {
						"encoding": "inplace",
						"label": "address",
						"numberOfBytes": "20"
					},
					"t_address_payable": {
						"encoding": "inplace",
						"label": "address payable",
						"numberOfBytes": "20"
					}
				}
			},
			"userdoc": {
				"kind": "user",
				"methods": {},
				"version": 1
			}
		}
	}
}