{
	"Bakery.sol": {
		"bakery": {
			"abi": [
				{
					"inputs": [],
					"stateMutability": "nonpayable",
					"type": "constructor"
				},
				{
					"inputs": [],
					"name": "getBlance",
					"outputs": [
						{
							"internalType": "uint256",
							"name": "",
							"type": "uint256"
						}
					],
					"stateMutability": "view",
					"type": "function"
				},
				{
					"inputs": [],
					"name": "owner",
					"outputs": [
						{
							"internalType": "address",
							"name": "",
							"type": "address"
						}
					],
					"stateMutability": "view",
					"type": "function"
				},
				{
					"inputs": [],
					"name": "thirdParty",
					"outputs": [
						{
							"internalType": "address payable",
							"name": "",
							"type": "address"
						}
					],
					"stateMutability": "view",
					"type": "function"
				},
				{
					"inputs": [],
					"name": "transf",
					"outputs": [],
					"stateMutability": "nonpayable",
					"type": "function"
				}
			],
			"devdoc": {
				"kind": "dev",
				"methods": {},
				"version": 1
			},
			"evm": {
				"assembly": "    /* \"Bakery.sol\":74:557  contract bakery{... */\n  mstore(0x40, 0x80)\n    /* \"Bakery.sol\":138:180  0x78731D3Ca6b7E34aC0F824c42a7cC18A495cabaB */\n  0x78731d3ca6b7e34ac0f824c42a7cc18a495cabab\n    /* \"Bakery.sol\":96:181  address payable public thirdParty=payable(0x78731D3Ca6b7E34aC0F824c42a7cC18A495cabaB) */\n  0x00\n  dup1\n  0x0100\n  exp\n  dup2\n  sload\n  dup2\n  0xffffffffffffffffffffffffffffffffffffffff\n  mul\n  not\n  and\n  swap1\n  dup4\n  0xffffffffffffffffffffffffffffffffffffffff\n  and\n  mul\n  or\n  swap1\n  sstore\n  pop\n    /* \"Bakery.sol\":222:264  0xAb8483F64d9C6d1EcF9b849Ae677dD3315835cb2 */\n  0xab8483f64d9c6d1ecf9b849ae677dd3315835cb2\n    /* \"Bakery.sol\":188:265  address payable salesMan=payable (0xAb8483F64d9C6d1EcF9b849Ae677dD3315835cb2) */\n  0x01\n  exp(0x0100, 0x00)\n  dup2\n  sload\n  dup2\n  0xffffffffffffffffffffffffffffffffffffffff\n  mul\n  not\n  and\n  swap1\n  dup4\n  0xffffffffffffffffffffffffffffffffffffffff\n  and\n  mul\n  or\n  swap1\n  sstore\n  pop\n    /* \"Bakery.sol\":301:356  constructor ()... */\n  callvalue\n  dup1\n  iszero\n  tag_1\n  jumpi\n  0x00\n  dup1\n  revert\ntag_1:\n  pop\n    /* \"Bakery.sol\":338:348  msg.sender */\n  caller\n    /* \"Bakery.sol\":332:337  owner */\n  0x02\n  0x00\n    /* \"Bakery.sol\":332:348  owner=msg.sender */\n  0x0100\n  exp\n  dup2\n  sload\n  dup2\n  0xffffffffffffffffffffffffffffffffffffffff\n  mul\n  not\n  and\n  swap1\n  dup4\n  0xffffffffffffffffffffffffffffffffffffffff\n  and\n  mul\n  or\n  swap1\n  sstore\n  pop\n    /* \"Bakery.sol\":74:557  contract bakery{... */\n  dataSize(sub_0)\n  dup1\n  dataOffset(sub_0)\n  0x00\n  codecopy\n  0x00\n  return\nstop\n\nsub_0: assembly {\n        /* \"Bakery.sol\":74:557  contract bakery{... */\n      mstore(0x40, 0x80)\n      callvalue\n      dup1\n      iszero\n      tag_1\n      jumpi\n      0x00\n      dup1\n      revert\n    tag_1:\n      pop\n      jumpi(tag_2, lt(calldatasize, 0x04))\n      shr(0xe0, calldataload(0x00))\n      dup1\n      0x8da5cb5b\n      eq\n      tag_3\n      jumpi\n      dup1\n      0x941be5f7\n      eq\n      tag_4\n      jumpi\n      dup1\n      0xc84e45c7\n      eq\n      tag_5\n      jumpi\n      dup1\n      0xe02ea484\n      eq\n      tag_6\n      jumpi\n    tag_2:\n      0x00\n      dup1\n      revert\n        /* \"Bakery.sol\":272:292  address public owner */\n    tag_3:\n      tag_7\n      tag_8\n      jump\t// in\n    tag_7:\n      mload(0x40)\n      tag_9\n      swap2\n      swap1\n      tag_10\n      jump\t// in\n    tag_9:\n      mload(0x40)\n      dup1\n      swap2\n      sub\n      swap1\n      return\n        /* \"Bakery.sol\":364:463  function getBlance() view public returns(uint)... */\n    tag_4:\n      tag_11\n      tag_12\n      jump\t// in\n    tag_11:\n      mload(0x40)\n      tag_13\n      swap2\n      swap1\n      tag_14\n      jump\t// in\n    tag_13:\n      mload(0x40)\n      dup1\n      swap2\n      sub\n      swap1\n      return\n        /* \"Bakery.sol\":471:552  function transf() public... */\n    tag_5:\n      tag_15\n      tag_16\n      jump\t// in\n    tag_15:\n      stop\n        /* \"Bakery.sol\":96:181  address payable public thirdParty=payable(0x78731D3Ca6b7E34aC0F824c42a7cC18A495cabaB) */\n    tag_6:\n      tag_17\n      tag_18\n      jump\t// in\n    tag_17:\n      mload(0x40)\n      tag_19\n      swap2\n      swap1\n      tag_20\n      jump\t// in\n    tag_19:\n      mload(0x40)\n      dup1\n      swap2\n      sub\n      swap1\n      return\n        /* \"Bakery.sol\":272:292  address public owner */\n    tag_8:\n      0x02\n      0x00\n      swap1\n      sload\n      swap1\n      0x0100\n      exp\n      swap1\n      div\n      0xffffffffffffffffffffffffffffffffffffffff\n      and\n      dup2\n      jump\t// out\n        /* \"Bakery.sol\":364:463  function getBlance() view public returns(uint)... */\n    tag_12:\n        /* \"Bakery.sol\":405:409  uint */\n      0x00\n        /* \"Bakery.sol\":434:455  address(this).balance */\n      selfbalance\n        /* \"Bakery.sol\":427:455  return address(this).balance */\n      swap1\n      pop\n        /* \"Bakery.sol\":364:463  function getBlance() view public returns(uint)... */\n      swap1\n      jump\t// out\n        /* \"Bakery.sol\":471:552  function transf() public... */\n    tag_16:\n        /* \"Bakery.sol\":512:522  thirdParty */\n      0x00\n      dup1\n      sload\n      swap1\n      0x0100\n      exp\n      swap1\n      div\n      0xffffffffffffffffffffffffffffffffffffffff\n      and\n        /* \"Bakery.sol\":512:531  thirdParty.transfer */\n      0xffffffffffffffffffffffffffffffffffffffff\n      and\n        /* \"Bakery.sol\":512:544  thirdParty.transfer(getBlance()) */\n      0x08fc\n        /* \"Bakery.sol\":532:543  getBlance() */\n      tag_23\n        /* \"Bakery.sol\":532:541  getBlance */\n      tag_12\n        /* \"Bakery.sol\":532:543  getBlance() */\n      jump\t// in\n    tag_23:\n        /* \"Bakery.sol\":512:544  thirdParty.transfer(getBlance()) */\n      swap1\n      dup2\n      iszero\n      mul\n      swap1\n      mload(0x40)\n      0x00\n      mload(0x40)\n      dup1\n      dup4\n      sub\n      dup2\n      dup6\n      dup9\n      dup9\n      call\n      swap4\n      pop\n      pop\n      pop\n      pop\n      iszero\n      dup1\n      iszero\n      tag_25\n      jumpi\n      returndatasize\n      0x00\n      dup1\n      returndatacopy\n      revert(0x00, returndatasize)\n    tag_25:\n      pop\n        /* \"Bakery.sol\":471:552  function transf() public... */\n      jump\t// out\n        /* \"Bakery.sol\":96:181  address payable public thirdParty=payable(0x78731D3Ca6b7E34aC0F824c42a7cC18A495cabaB) */\n    tag_18:\n      0x00\n      dup1\n      sload\n      swap1\n      0x0100\n      exp\n      swap1\n      div\n      0xffffffffffffffffffffffffffffffffffffffff\n      and\n      dup2\n      jump\t// out\n        /* \"#utility.yul\":7:133   */\n    tag_26:\n        /* \"#utility.yul\":44:51   */\n      0x00\n        /* \"#utility.yul\":84:126   */\n      0xffffffffffffffffffffffffffffffffffffffff\n        /* \"#utility.yul\":77:82   */\n      dup3\n        /* \"#utility.yul\":73:127   */\n      and\n        /* \"#utility.yul\":62:127   */\n      swap1\n      pop\n        /* \"#utility.yul\":7:133   */\n      swap2\n      swap1\n      pop\n      jump\t// out\n        /* \"#utility.yul\":139:235   */\n    tag_27:\n        /* \"#utility.yul\":176:183   */\n      0x00\n        /* \"#utility.yul\":205:229   */\n      tag_36\n        /* \"#utility.yul\":223:228   */\n      dup3\n        /* \"#utility.yul\":205:229   */\n      tag_26\n      jump\t// in\n    tag_36:\n        /* \"#utility.yul\":194:229   */\n      swap1\n      pop\n        /* \"#utility.yul\":139:235   */\n      swap2\n      swap1\n      pop\n      jump\t// out\n        /* \"#utility.yul\":241:359   */\n    tag_28:\n        /* \"#utility.yul\":328:352   */\n      tag_38\n        /* \"#utility.yul\":346:351   */\n      dup2\n        /* \"#utility.yul\":328:352   */\n      tag_27\n      jump\t// in\n    tag_38:\n        /* \"#utility.yul\":323:326   */\n      dup3\n        /* \"#utility.yul\":316:353   */\n      mstore\n        /* \"#utility.yul\":241:359   */\n      pop\n      pop\n      jump\t// out\n        /* \"#utility.yul\":365:587   */\n    tag_10:\n        /* \"#utility.yul\":458:462   */\n      0x00\n        /* \"#utility.yul\":496:498   */\n      0x20\n        /* \"#utility.yul\":485:494   */\n      dup3\n        /* \"#utility.yul\":481:499   */\n      add\n        /* \"#utility.yul\":473:499   */\n      swap1\n      pop\n        /* \"#utility.yul\":509:580   */\n      tag_40\n        /* \"#utility.yul\":577:578   */\n      0x00\n        /* \"#utility.yul\":566:575   */\n      dup4\n        /* \"#utility.yul\":562:579   */\n      add\n        /* \"#utility.yul\":553:559   */\n      dup5\n        /* \"#utility.yul\":509:580   */\n      tag_28\n      jump\t// in\n    tag_40:\n        /* \"#utility.yul\":365:587   */\n      swap3\n      swap2\n      pop\n      pop\n      jump\t// out\n        /* \"#utility.yul\":593:670   */\n    tag_29:\n        /* \"#utility.yul\":630:637   */\n      0x00\n        /* \"#utility.yul\":659:664   */\n      dup2\n        /* \"#utility.yul\":648:664   */\n      swap1\n      pop\n        /* \"#utility.yul\":593:670   */\n      swap2\n      swap1\n      pop\n      jump\t// out\n        /* \"#utility.yul\":676:794   */\n    tag_30:\n        /* \"#utility.yul\":763:787   */\n      tag_43\n        /* \"#utility.yul\":781:786   */\n      dup2\n        /* \"#utility.yul\":763:787   */\n      tag_29\n      jump\t// in\n    tag_43:\n        /* \"#utility.yul\":758:761   */\n      dup3\n        /* \"#utility.yul\":751:788   */\n      mstore\n        /* \"#utility.yul\":676:794   */\n      pop\n      pop\n      jump\t// out\n        /* \"#utility.yul\":800:1022   */\n    tag_14:\n        /* \"#utility.yul\":893:897   */\n      0x00\n        /* \"#utility.yul\":931:933   */\n      0x20\n        /* \"#utility.yul\":920:929   */\n      dup3\n        /* \"#utility.yul\":916:934   */\n      add\n        /* \"#utility.yul\":908:934   */\n      swap1\n      pop\n        /* \"#utility.yul\":944:1015   */\n      tag_45\n        /* \"#utility.yul\":1012:1013   */\n      0x00\n        /* \"#utility.yul\":1001:1010   */\n      dup4\n        /* \"#utility.yul\":997:1014   */\n      add\n        /* \"#utility.yul\":988:994   */\n      dup5\n        /* \"#utility.yul\":944:1015   */\n      tag_30\n      jump\t// in\n    tag_45:\n        /* \"#utility.yul\":800:1022   */\n      swap3\n      swap2\n      pop\n      pop\n      jump\t// out\n        /* \"#utility.yul\":1028:1132   */\n    tag_31:\n        /* \"#utility.yul\":1073:1080   */\n      0x00\n        /* \"#utility.yul\":1102:1126   */\n      tag_47\n        /* \"#utility.yul\":1120:1125   */\n      dup3\n        /* \"#utility.yul\":1102:1126   */\n      tag_26\n      jump\t// in\n    tag_47:\n        /* \"#utility.yul\":1091:1126   */\n      swap1\n      pop\n        /* \"#utility.yul\":1028:1132   */\n      swap2\n      swap1\n      pop\n      jump\t// out\n        /* \"#utility.yul\":1138:1280   */\n    tag_32:\n        /* \"#utility.yul\":1241:1273   */\n      tag_49\n        /* \"#utility.yul\":1267:1272   */\n      dup2\n        /* \"#utility.yul\":1241:1273   */\n      tag_31\n      jump\t// in\n    tag_49:\n        /* \"#utility.yul\":1236:1239   */\n      dup3\n        /* \"#utility.yul\":1229:1274   */\n      mstore\n        /* \"#utility.yul\":1138:1280   */\n      pop\n      pop\n      jump\t// out\n        /* \"#utility.yul\":1286:1540   */\n    tag_20:\n        /* \"#utility.yul\":1395:1399   */\n      0x00\n        /* \"#utility.yul\":1433:1435   */\n      0x20\n        /* \"#utility.yul\":1422:1431   */\n      dup3\n        /* \"#utility.yul\":1418:1436   */\n      add\n        /* \"#utility.yul\":1410:1436   */\n      swap1\n      pop\n        /* \"#utility.yul\":1446:1533   */\n      tag_51\n        /* \"#utility.yul\":1530:1531   */\n      0x00\n        /* \"#utility.yul\":1519:1528   */\n      dup4\n        /* \"#utility.yul\":1515:1532   */\n      add\n        /* \"#utility.yul\":1506:1512   */\n      dup5\n        /* \"#utility.yul\":1446:1533   */\n      tag_32\n      jump\t// in\n    tag_51:\n        /* \"#utility.yul\":1286:1540   */\n      swap3\n      swap2\n      pop\n      pop\n      jump\t// out\n\n    auxdata: 0xa2646970667358221220f5c2c0e94e295c4b8711a1fb47b99e9b528ac01dca022b9295f7e2fa793585bd64736f6c63430008110033\n}\n",
				"bytecode": {
					"linkReferences": {},
					"object": "60806040527378731d3ca6b7e34ac0f824c42a7cc18a495cabab6000806101000a81548173ffffffffffffffffffffffffffffffffffffffff021916908373ffffffffffffffffffffffffffffffffffffffff16021790555073ab8483f64d9c6d1ecf9b849ae677dd3315835cb2600160006101000a81548173ffffffffffffffffffffffffffffffffffffffff021916908373ffffffffffffffffffffffffffffffffffffffff1602179055503480156100b957600080fd5b5033600260006101000a81548173ffffffffffffffffffffffffffffffffffffffff021916908373ffffffffffffffffffffffffffffffffffffffff1602179055506102798061010a6000396000f3fe608060405234801561001057600080fd5b506004361061004c5760003560e01c80638da5cb5b14610051578063941be5f71461006f578063c84e45c71461008d578063e02ea48414610097575b600080fd5b6100596100b5565b60405161006691906101b8565b60405180910390f35b6100776100db565b60405161008491906101ec565b60405180910390f35b6100956100e3565b005b61009f610153565b6040516100ac9190610228565b60405180910390f35b600260009054906101000a900473ffffffffffffffffffffffffffffffffffffffff1681565b600047905090565b60008054906101000a900473ffffffffffffffffffffffffffffffffffffffff1673ffffffffffffffffffffffffffffffffffffffff166108fc6101256100db565b9081150290604051600060405180830381858888f19350505050158015610150573d6000803e3d6000fd5b50565b60008054906101000a900473ffffffffffffffffffffffffffffffffffffffff1681565b600073ffffffffffffffffffffffffffffffffffffffff82169050919050565b60006101a282610177565b9050919050565b6101b281610197565b82525050565b60006020820190506101cd60008301846101a9565b92915050565b6000819050919050565b6101e6816101d3565b82525050565b600060208201905061020160008301846101dd565b92915050565b600061021282610177565b9050919050565b61022281610207565b82525050565b600060208201905061023d6000830184610219565b9291505056fea2646970667358221220f5c2c0e94e295c4b8711a1fb47b99e9b528ac01dca022b9295f7e2fa793585bd64736f6c63430008110033",
					"opcodes": "PUSH1 0x80 PUSH1 0x40 MSTORE PUSH20 0x78731D3CA6B7E34AC0F824C42A7CC18A495CABAB PUSH1 0x0 DUP1 PUSH2 0x100 EXP DUP2 SLOAD DUP2 PUSH20 0xFFFFFFFFFFFFFFFFFFFFFFFFFFFFFFFFFFFFFFFF MUL NOT AND SWAP1 DUP4 PUSH20 0xFFFFFFFFFFFFFFFFFFFFFFFFFFFFFFFFFFFFFFFF AND MUL OR SWAP1 SSTORE POP PUSH20 0xAB8483F64D9C6D1ECF9B849AE677DD3315835CB2 PUSH1 0x1 PUSH1 0x0 PUSH2 0x100 EXP DUP2 SLOAD DUP2 PUSH20 0xFFFFFFFFFFFFFFFFFFFFFFFFFFFFFFFFFFFFFFFF MUL NOT AND SWAP1 DUP4 PUSH20 0xFFFFFFFFFFFFFFFFFFFFFFFFFFFFFFFFFFFFFFFF AND MUL OR SWAP1 SSTORE POP CALLVALUE DUP1 ISZERO PUSH2 0xB9 JUMPI PUSH1 0x0 DUP1 REVERT JUMPDEST POP CALLER PUSH1 0x2 PUSH1 0x0 PUSH2 0x100 EXP DUP2 SLOAD DUP2 PUSH20 0xFFFFFFFFFFFFFFFFFFFFFFFFFFFFFFFFFFFFFFFF MUL NOT AND SWAP1 DUP4 PUSH20 0xFFFFFFFFFFFFFFFFFFFFFFFFFFFFFFFFFFFFFFFF AND MUL OR SWAP1 SSTORE POP PUSH2 0x279 DUP1 PUSH2 0x10A PUSH1 0x0 CODECOPY PUSH1 0x0 RETURN INVALID PUSH1 0x80 PUSH1 0x40 MSTORE CALLVALUE DUP1 ISZERO PUSH2 0x10 JUMPI PUSH1 0x0 DUP1 REVERT JUMPDEST POP PUSH1 0x4 CALLDATASIZE LT PUSH2 0x4C JUMPI PUSH1 0x0 CALLDATALOAD PUSH1 0xE0 SHR DUP1 PUSH4 0x8DA5CB5B EQ PUSH2 0x51 JUMPI DUP1 PUSH4 0x941BE5F7 EQ PUSH2 0x6F JUMPI DUP1 PUSH4 0xC84E45C7 EQ PUSH2 0x8D JUMPI DUP1 PUSH4 0xE02EA484 EQ PUSH2 0x97 JUMPI JUMPDEST PUSH1 0x0 DUP1 REVERT JUMPDEST PUSH2 0x59 PUSH2 0xB5 JUMP JUMPDEST PUSH1 0x40 MLOAD PUSH2 0x66 SWAP2 SWAP1 PUSH2 0x1B8 JUMP JUMPDEST PUSH1 0x40 MLOAD DUP1 SWAP2 SUB SWAP1 RETURN JUMPDEST PUSH2 0x77 PUSH2 0xDB JUMP JUMPDEST PUSH1 0x40 MLOAD PUSH2 0x84 SWAP2 SWAP1 PUSH2 0x1EC JUMP JUMPDEST PUSH1 0x40 MLOAD DUP1 SWAP2 SUB SWAP1 RETURN JUMPDEST PUSH2 0x95 PUSH2 0xE3 JUMP JUMPDEST STOP JUMPDEST PUSH2 0x9F PUSH2 0x153 JUMP JUMPDEST PUSH1 0x40 MLOAD PUSH2 0xAC SWAP2 SWAP1 PUSH2 0x228 JUMP JUMPDEST PUSH1 0x40 MLOAD DUP1 SWAP2 SUB SWAP1 RETURN JUMPDEST PUSH1 0x2 PUSH1 0x0 SWAP1 SLOAD SWAP1 PUSH2 0x100 EXP SWAP1 DIV PUSH20 0xFFFFFFFFFFFFFFFFFFFFFFFFFFFFFFFFFFFFFFFF AND DUP2 JUMP JUMPDEST PUSH1 0x0 SELFBALANCE SWAP1 POP SWAP1 JUMP JUMPDEST PUSH1 0x0 DUP1 SLOAD SWAP1 PUSH2 0x100 EXP SWAP1 DIV PUSH20 0xFFFFFFFFFFFFFFFFFFFFFFFFFFFFFFFFFFFFFFFF AND PUSH20 0xFFFFFFFFFFFFFFFFFFFFFFFFFFFFFFFFFFFFFFFF AND PUSH2 0x8FC PUSH2 0x125 PUSH2 0xDB JUMP JUMPDEST SWAP1 DUP2 ISZERO MUL SWAP1 PUSH1 0x40 MLOAD PUSH1 0x0 PUSH1 0x40 MLOAD DUP1 DUP4 SUB DUP2 DUP6 DUP9 DUP9 CALL SWAP4 POP POP POP POP ISZERO DUP1 ISZERO PUSH2 0x150 JUMPI RETURNDATASIZE PUSH1 0x0 DUP1 RETURNDATACOPY RETURNDATASIZE PUSH1 0x0 REVERT JUMPDEST POP JUMP JUMPDEST PUSH1 0x0 DUP1 SLOAD SWAP1 PUSH2 0x100 EXP SWAP1 DIV PUSH20 0xFFFFFFFFFFFFFFFFFFFFFFFFFFFFFFFFFFFFFFFF AND DUP2 JUMP JUMPDEST PUSH1 0x0 PUSH20 0xFFFFFFFFFFFFFFFFFFFFFFFFFFFFFFFFFFFFFFFF DUP3 AND SWAP1 POP SWAP2 SWAP1 POP JUMP JUMPDEST PUSH1 0x0 PUSH2 0x1A2 DUP3 PUSH2 0x177 JUMP JUMPDEST SWAP1 POP SWAP2 SWAP1 POP JUMP JUMPDEST PUSH2 0x1B2 DUP2 PUSH2 0x197 JUMP JUMPDEST DUP3 MSTORE POP POP JUMP JUMPDEST PUSH1 0x0 PUSH1 0x20 DUP3 ADD SWAP1 POP PUSH2 0x1CD PUSH1 0x0 DUP4 ADD DUP5 PUSH2 0x1A9 JUMP JUMPDEST SWAP3 SWAP2 POP POP JUMP JUMPDEST PUSH1 0x0 DUP2 SWAP1 POP SWAP2 SWAP1 POP JUMP JUMPDEST PUSH2 0x1E6 DUP2 PUSH2 0x1D3 JUMP JUMPDEST DUP3 MSTORE POP POP JUMP JUMPDEST PUSH1 0x0 PUSH1 0x20 DUP3 ADD SWAP1 POP PUSH2 0x201 PUSH1 0x0 DUP4 ADD DUP5 PUSH2 0x1DD JUMP JUMPDEST SWAP3 SWAP2 POP POP JUMP JUMPDEST PUSH1 0x0 PUSH2 0x212 DUP3 PUSH2 0x177 JUMP JUMPDEST SWAP1 POP SWAP2 SWAP1 POP JUMP JUMPDEST PUSH2 0x222 DUP2 PUSH2 0x207 JUMP JUMPDEST DUP3 MSTORE POP POP JUMP JUMPDEST PUSH1 0x0 PUSH1 0x20 DUP3 ADD SWAP1 POP PUSH2 0x23D PUSH1 0x0 DUP4 ADD DUP5 PUSH2 0x219 JUMP JUMPDEST SWAP3 SWAP2 POP POP JUMP INVALID LOG2 PUSH5 0x6970667358 0x22 SLT KECCAK256 CREATE2 0xC2 0xC0 0xE9 0x4E 0x29 0x5C 0x4B DUP8 GT LOG1 0xFB SELFBALANCE 0xB9 SWAP15 SWAP12 MSTORE DUP11 0xC0 SAR 0xCA MUL 0x2B SWAP3 SWAP6 0xF7 0xE2 STATICCALL PUSH26 0x3585BD64736F6C63430008110033000000000000000000000000 "
				},
				"gasEstimates": {
					"creation": {
						"codeDepositCost": "126600",
						"executionCost": "72971",
						"totalCost": "199571"
					},
					"external": {
						"getBlance()": "339",
						"owner()": "2492",
						"thirdParty()": "2555",
						"transf()": "infinite"
					}
				},
				"methodIdentifiers": {
					"getBlance()": "941be5f7",
					"owner()": "8da5cb5b",
					"thirdParty()": "e02ea484",
					"transf()": "c84e45c7"
				}
			},
			"storageLayout": {
				"storage": [
					{
						"astId": 7,
						"contract": "Bakery.sol:bakery",
						"label": "thirdParty",
						"offset": 0,
						"slot": "0",
						"type": "t_address_payable"
					},
					{
						"astId": 13,
						"contract": "Bakery.sol:bakery",
						"label": "salesMan",
						"offset": 0,
						"slot": "1",
						"type": "t_address_payable"
					},
					{
						"astId": 15,
						"contract": "Bakery.sol:bakery",
						"label": "owner",
						"offset": 0,
						"slot": "2",
						"type": "t_address"
					}
				],
				"types": {
					"t_address": {
						"encoding": "inplace",
						"label": "address",
						"numberOfBytes": "20"
					},
					"t_address_payable": {
						"encoding": "inplace",
						"label": "address payable",
						"numberOfBytes": "20"
					}
				}
			},
			"userdoc": {
				"kind": "user",
				"methods": {},
				"version": 1
			}
		}
	}
}