{
	"Event.sol": {
		"OrganizingEvent": {
			"abi": [
				{
					"inputs": [
						{
							"internalType": "string",
							"name": "_name",
							"type": "string"
						},
						{
							"internalType": "uint256",
							"name": "_date",
							"type": "uint256"
						},
						{
							"internalType": "uint256",
							"name": "_price",
							"type": "uint256"
						},
						{
							"internalType": "uint256",
							"name": "_ticketOpen",
							"type": "uint256"
						}
					],
					"name": "createEvent",
					"outputs": [],
					"stateMutability": "nonpayable",
					"type": "function"
				},
				{
					"inputs": [
						{
							"internalType": "uint256",
							"name": "",
							"type": "uint256"
						}
					],
					"name": "events",
					"outputs": [
						{
							"internalType": "address",
							"name": "organizer",
							"type": "address"
						},
						{
							"internalType": "string",
							"name": "name",
							"type": "string"
						},
						{
							"internalType": "uint256",
							"name": "date",
							"type": "uint256"
						},
						{
							"internalType": "uint256",
							"name": "price",
							"type": "uint256"
						},
						{
							"internalType": "uint256",
							"name": "ticketOpen",
							"type": "uint256"
						},
						{
							"internalType": "uint256",
							"name": "ticketRemain",
							"type": "uint256"
						}
					],
					"stateMutability": "view",
					"type": "function"
				},
				{
					"inputs": [
						{
							"internalType": "address",
							"name": "",
							"type": "address"
						},
						{
							"internalType": "uint256",
							"name": "",
							"type": "uint256"
						}
					],
					"name": "ticket",
					"outputs": [
						{
							"internalType": "uint256",
							"name": "",
							"type": "uint256"
						}
					],
					"stateMutability": "view",
					"type": "function"
				}
			],
			"devdoc": {
				"kind": "dev",
				"methods": {},
				"version": 1
			},
			"evm": {
				"assembly": "    /* \"Event.sol\":74:742  contract OrganizingEvent{... */\n  mstore(0x40, 0x80)\n  callvalue\n  dup1\n  iszero\n  tag_1\n  jumpi\n  0x00\n  dup1\n  revert\ntag_1:\n  pop\n  dataSize(sub_0)\n  dup1\n  dataOffset(sub_0)\n  0x00\n  codecopy\n  0x00\n  return\nstop\n\nsub_0: assembly {\n        /* \"Event.sol\":74:742  contract OrganizingEvent{... */\n      mstore(0x40, 0x80)\n      callvalue\n      dup1\n      iszero\n      tag_1\n      jumpi\n      0x00\n      dup1\n      revert\n    tag_1:\n      pop\n      jumpi(tag_2, lt(calldatasize, 0x04))\n      shr(0xe0, calldataload(0x00))\n      dup1\n      0x0374ab0b\n      eq\n      tag_3\n      jumpi\n      dup1\n      0x0b791430\n      eq\n      tag_4\n      jumpi\n      dup1\n      0xe11bb64d\n      eq\n      tag_5\n      jumpi\n    tag_2:\n      0x00\n      dup1\n      revert\n        /* \"Event.sol\":397:723  function createEvent(string memory _name,uint _date,uint _price,uint _ticketOpen) external {... */\n    tag_3:\n      tag_6\n      0x04\n      dup1\n      calldatasize\n      sub\n      dup2\n      add\n      swap1\n      tag_7\n      swap2\n      swap1\n      tag_8\n      jump\t// in\n    tag_7:\n      tag_9\n      jump\t// in\n    tag_6:\n      stop\n        /* \"Event.sol\":278:312  mapping(uint=>Event) public events */\n    tag_4:\n      tag_10\n      0x04\n      dup1\n      calldatasize\n      sub\n      dup2\n      add\n      swap1\n      tag_11\n      swap2\n      swap1\n      tag_12\n      jump\t// in\n    tag_11:\n      tag_13\n      jump\t// in\n    tag_10:\n      mload(0x40)\n      tag_14\n      swap7\n      swap6\n      swap5\n      swap4\n      swap3\n      swap2\n      swap1\n      tag_15\n      jump\t// in\n    tag_14:\n      mload(0x40)\n      dup1\n      swap2\n      sub\n      swap1\n      return\n        /* \"Event.sol\":319:370  mapping(address=>mapping(uint=>uint)) public ticket */\n    tag_5:\n      tag_16\n      0x04\n      dup1\n      calldatasize\n      sub\n      dup2\n      add\n      swap1\n      tag_17\n      swap2\n      swap1\n      tag_18\n      jump\t// in\n    tag_17:\n      tag_19\n      jump\t// in\n    tag_16:\n      mload(0x40)\n      tag_20\n      swap2\n      swap1\n      tag_21\n      jump\t// in\n    tag_20:\n      mload(0x40)\n      dup1\n      swap2\n      sub\n      swap1\n      return\n        /* \"Event.sol\":397:723  function createEvent(string memory _name,uint _date,uint _price,uint _ticketOpen) external {... */\n    tag_9:\n        /* \"Event.sol\":513:528  block.timestamp */\n      timestamp\n        /* \"Event.sol\":507:512  _date */\n      dup4\n        /* \"Event.sol\":507:528  _date>block.timestamp */\n      gt\n        /* \"Event.sol\":499:550  require(_date>block.timestamp,\"The Event has over\") */\n      tag_23\n      jumpi\n      mload(0x40)\n      0x08c379a000000000000000000000000000000000000000000000000000000000\n      dup2\n      mstore\n      0x04\n      add\n      tag_24\n      swap1\n      tag_25\n      jump\t// in\n    tag_24:\n      mload(0x40)\n      dup1\n      swap2\n      sub\n      swap1\n      revert\n    tag_23:\n        /* \"Event.sol\":581:582  0 */\n      0x00\n        /* \"Event.sol\":569:580  _ticketOpen */\n      dup2\n        /* \"Event.sol\":569:582  _ticketOpen>0 */\n      gt\n        /* \"Event.sol\":561:608  require(_ticketOpen>0,\"you can Run the Events\") */\n      tag_26\n      jumpi\n      mload(0x40)\n      0x08c379a000000000000000000000000000000000000000000000000000000000\n      dup2\n      mstore\n      0x04\n      add\n      tag_27\n      swap1\n      tag_28\n      jump\t// in\n    tag_27:\n      mload(0x40)\n      dup1\n      swap2\n      sub\n      swap1\n      revert\n    tag_26:\n        /* \"Event.sol\":636:696  Event(msg.sender,_name,_date,_price,_ticketOpen,_ticketOpen) */\n      mload(0x40)\n      dup1\n      0xc0\n      add\n      0x40\n      mstore\n      dup1\n        /* \"Event.sol\":642:652  msg.sender */\n      caller\n        /* \"Event.sol\":636:696  Event(msg.sender,_name,_date,_price,_ticketOpen,_ticketOpen) */\n      0xffffffffffffffffffffffffffffffffffffffff\n      and\n      dup2\n      mstore\n      0x20\n      add\n        /* \"Event.sol\":653:658  _name */\n      dup6\n        /* \"Event.sol\":636:696  Event(msg.sender,_name,_date,_price,_ticketOpen,_ticketOpen) */\n      dup2\n      mstore\n      0x20\n      add\n        /* \"Event.sol\":659:664  _date */\n      dup5\n        /* \"Event.sol\":636:696  Event(msg.sender,_name,_date,_price,_ticketOpen,_ticketOpen) */\n      dup2\n      mstore\n      0x20\n      add\n        /* \"Event.sol\":665:671  _price */\n      dup4\n        /* \"Event.sol\":636:696  Event(msg.sender,_name,_date,_price,_ticketOpen,_ticketOpen) */\n      dup2\n      mstore\n      0x20\n      add\n        /* \"Event.sol\":672:683  _ticketOpen */\n      dup3\n        /* \"Event.sol\":636:696  Event(msg.sender,_name,_date,_price,_ticketOpen,_ticketOpen) */\n      dup2\n      mstore\n      0x20\n      add\n        /* \"Event.sol\":684:695  _ticketOpen */\n      dup3\n        /* \"Event.sol\":636:696  Event(msg.sender,_name,_date,_price,_ticketOpen,_ticketOpen) */\n      dup2\n      mstore\n      pop\n        /* \"Event.sol\":621:627  events */\n      0x00\n        /* \"Event.sol\":621:635  events[nextId] */\n      dup1\n        /* \"Event.sol\":628:634  nextId */\n      sload(0x02)\n        /* \"Event.sol\":621:635  events[nextId] */\n      dup2\n      mstore\n      0x20\n      add\n      swap1\n      dup2\n      mstore\n      0x20\n      add\n      0x00\n      keccak256\n        /* \"Event.sol\":621:696  events[nextId]=Event(msg.sender,_name,_date,_price,_ticketOpen,_ticketOpen) */\n      0x00\n      dup3\n      add\n      mload\n      dup2\n      0x00\n      add\n      exp(0x0100, 0x00)\n      dup2\n      sload\n      dup2\n      0xffffffffffffffffffffffffffffffffffffffff\n      mul\n      not\n      and\n      swap1\n      dup4\n      0xffffffffffffffffffffffffffffffffffffffff\n      and\n      mul\n      or\n      swap1\n      sstore\n      pop\n      0x20\n      dup3\n      add\n      mload\n      dup2\n      0x01\n      add\n      swap1\n      dup2\n      tag_29\n      swap2\n      swap1\n      tag_30\n      jump\t// in\n    tag_29:\n      pop\n      0x40\n      dup3\n      add\n      mload\n      dup2\n      0x02\n      add\n      sstore\n      0x60\n      dup3\n      add\n      mload\n      dup2\n      0x03\n      add\n      sstore\n      0x80\n      dup3\n      add\n      mload\n      dup2\n      0x04\n      add\n      sstore\n      0xa0\n      dup3\n      add\n      mload\n      dup2\n      0x05\n      add\n      sstore\n      swap1\n      pop\n      pop\n        /* \"Event.sol\":707:713  nextId */\n      0x02\n      0x00\n        /* \"Event.sol\":707:715  nextId++ */\n      dup2\n      sload\n      dup1\n      swap3\n      swap2\n      swap1\n      tag_31\n      swap1\n      tag_32\n      jump\t// in\n    tag_31:\n      swap2\n      swap1\n      pop\n      sstore\n      pop\n        /* \"Event.sol\":397:723  function createEvent(string memory _name,uint _date,uint _price,uint _ticketOpen) external {... */\n      pop\n      pop\n      pop\n      pop\n      jump\t// out\n        /* \"Event.sol\":278:312  mapping(uint=>Event) public events */\n    tag_13:\n      mstore(0x20, 0x00)\n      dup1\n      0x00\n      mstore\n      keccak256(0x00, 0x40)\n      0x00\n      swap2\n      pop\n      swap1\n      pop\n      dup1\n      0x00\n      add\n      0x00\n      swap1\n      sload\n      swap1\n      0x0100\n      exp\n      swap1\n      div\n      0xffffffffffffffffffffffffffffffffffffffff\n      and\n      swap1\n      dup1\n      0x01\n      add\n      dup1\n      sload\n      tag_33\n      swap1\n      tag_34\n      jump\t// in\n    tag_33:\n      dup1\n      0x1f\n      add\n      0x20\n      dup1\n      swap2\n      div\n      mul\n      0x20\n      add\n      mload(0x40)\n      swap1\n      dup2\n      add\n      0x40\n      mstore\n      dup1\n      swap3\n      swap2\n      swap1\n      dup2\n      dup2\n      mstore\n      0x20\n      add\n      dup3\n      dup1\n      sload\n      tag_35\n      swap1\n      tag_34\n      jump\t// in\n    tag_35:\n      dup1\n      iszero\n      tag_36\n      jumpi\n      dup1\n      0x1f\n      lt\n      tag_37\n      jumpi\n      0x0100\n      dup1\n      dup4\n      sload\n      div\n      mul\n      dup4\n      mstore\n      swap2\n      0x20\n      add\n      swap2\n      jump(tag_36)\n    tag_37:\n      dup3\n      add\n      swap2\n      swap1\n      0x00\n      mstore\n      keccak256(0x00, 0x20)\n      swap1\n    tag_38:\n      dup2\n      sload\n      dup2\n      mstore\n      swap1\n      0x01\n      add\n      swap1\n      0x20\n      add\n      dup1\n      dup4\n      gt\n      tag_38\n      jumpi\n      dup3\n      swap1\n      sub\n      0x1f\n      and\n      dup3\n      add\n      swap2\n    tag_36:\n      pop\n      pop\n      pop\n      pop\n      pop\n      swap1\n      dup1\n      0x02\n      add\n      sload\n      swap1\n      dup1\n      0x03\n      add\n      sload\n      swap1\n      dup1\n      0x04\n      add\n      sload\n      swap1\n      dup1\n      0x05\n      add\n      sload\n      swap1\n      pop\n      dup7\n      jump\t// out\n        /* \"Event.sol\":319:370  mapping(address=>mapping(uint=>uint)) public ticket */\n    tag_19:\n      mstore(0x20, 0x01)\n      dup2\n      0x00\n      mstore\n      mstore(0x20, keccak256(0x00, 0x40))\n      dup1\n      0x00\n      mstore\n      keccak256(0x00, 0x40)\n      0x00\n      swap2\n      pop\n      swap2\n      pop\n      pop\n      sload\n      dup2\n      jump\t// out\n        /* \"#utility.yul\":7:82   */\n    tag_39:\n        /* \"#utility.yul\":40:46   */\n      0x00\n        /* \"#utility.yul\":73:75   */\n      0x40\n        /* \"#utility.yul\":67:76   */\n      mload\n        /* \"#utility.yul\":57:76   */\n      swap1\n      pop\n        /* \"#utility.yul\":7:82   */\n      swap1\n      jump\t// out\n        /* \"#utility.yul\":88:205   */\n    tag_40:\n        /* \"#utility.yul\":197:198   */\n      0x00\n        /* \"#utility.yul\":194:195   */\n      dup1\n        /* \"#utility.yul\":187:199   */\n      revert\n        /* \"#utility.yul\":211:328   */\n    tag_41:\n        /* \"#utility.yul\":320:321   */\n      0x00\n        /* \"#utility.yul\":317:318   */\n      dup1\n        /* \"#utility.yul\":310:322   */\n      revert\n        /* \"#utility.yul\":334:451   */\n    tag_42:\n        /* \"#utility.yul\":443:444   */\n      0x00\n        /* \"#utility.yul\":440:441   */\n      dup1\n        /* \"#utility.yul\":433:445   */\n      revert\n        /* \"#utility.yul\":457:574   */\n    tag_43:\n        /* \"#utility.yul\":566:567   */\n      0x00\n        /* \"#utility.yul\":563:564   */\n      dup1\n        /* \"#utility.yul\":556:568   */\n      revert\n        /* \"#utility.yul\":580:682   */\n    tag_44:\n        /* \"#utility.yul\":621:627   */\n      0x00\n        /* \"#utility.yul\":672:674   */\n      0x1f\n        /* \"#utility.yul\":668:675   */\n      not\n        /* \"#utility.yul\":663:665   */\n      0x1f\n        /* \"#utility.yul\":656:661   */\n      dup4\n        /* \"#utility.yul\":652:666   */\n      add\n        /* \"#utility.yul\":648:676   */\n      and\n        /* \"#utility.yul\":638:676   */\n      swap1\n      pop\n        /* \"#utility.yul\":580:682   */\n      swap2\n      swap1\n      pop\n      jump\t// out\n        /* \"#utility.yul\":688:868   */\n    tag_45:\n        /* \"#utility.yul\":736:813   */\n      0x4e487b7100000000000000000000000000000000000000000000000000000000\n        /* \"#utility.yul\":733:734   */\n      0x00\n        /* \"#utility.yul\":726:814   */\n      mstore\n        /* \"#utility.yul\":833:837   */\n      0x41\n        /* \"#utility.yul\":830:831   */\n      0x04\n        /* \"#utility.yul\":823:838   */\n      mstore\n        /* \"#utility.yul\":857:861   */\n      0x24\n        /* \"#utility.yul\":854:855   */\n      0x00\n        /* \"#utility.yul\":847:862   */\n      revert\n        /* \"#utility.yul\":874:1155   */\n    tag_46:\n        /* \"#utility.yul\":957:984   */\n      tag_95\n        /* \"#utility.yul\":979:983   */\n      dup3\n        /* \"#utility.yul\":957:984   */\n      tag_44\n      jump\t// in\n    tag_95:\n        /* \"#utility.yul\":949:955   */\n      dup2\n        /* \"#utility.yul\":945:985   */\n      add\n        /* \"#utility.yul\":1087:1093   */\n      dup2\n        /* \"#utility.yul\":1075:1085   */\n      dup2\n        /* \"#utility.yul\":1072:1094   */\n      lt\n        /* \"#utility.yul\":1051:1069   */\n      0xffffffffffffffff\n        /* \"#utility.yul\":1039:1049   */\n      dup3\n        /* \"#utility.yul\":1036:1070   */\n      gt\n        /* \"#utility.yul\":1033:1095   */\n      or\n        /* \"#utility.yul\":1030:1118   */\n      iszero\n      tag_96\n      jumpi\n        /* \"#utility.yul\":1098:1116   */\n      tag_97\n      tag_45\n      jump\t// in\n    tag_97:\n        /* \"#utility.yul\":1030:1118   */\n    tag_96:\n        /* \"#utility.yul\":1138:1148   */\n      dup1\n        /* \"#utility.yul\":1134:1136   */\n      0x40\n        /* \"#utility.yul\":1127:1149   */\n      mstore\n        /* \"#utility.yul\":917:1155   */\n      pop\n        /* \"#utility.yul\":874:1155   */\n      pop\n      pop\n      jump\t// out\n        /* \"#utility.yul\":1161:1290   */\n    tag_47:\n        /* \"#utility.yul\":1195:1201   */\n      0x00\n        /* \"#utility.yul\":1222:1242   */\n      tag_99\n      tag_39\n      jump\t// in\n    tag_99:\n        /* \"#utility.yul\":1212:1242   */\n      swap1\n      pop\n        /* \"#utility.yul\":1251:1284   */\n      tag_100\n        /* \"#utility.yul\":1279:1283   */\n      dup3\n        /* \"#utility.yul\":1271:1277   */\n      dup3\n        /* \"#utility.yul\":1251:1284   */\n      tag_46\n      jump\t// in\n    tag_100:\n        /* \"#utility.yul\":1161:1290   */\n      swap2\n      swap1\n      pop\n      jump\t// out\n        /* \"#utility.yul\":1296:1604   */\n    tag_48:\n        /* \"#utility.yul\":1358:1362   */\n      0x00\n        /* \"#utility.yul\":1448:1466   */\n      0xffffffffffffffff\n        /* \"#utility.yul\":1440:1446   */\n      dup3\n        /* \"#utility.yul\":1437:1467   */\n      gt\n        /* \"#utility.yul\":1434:1490   */\n      iszero\n      tag_102\n      jumpi\n        /* \"#utility.yul\":1470:1488   */\n      tag_103\n      tag_45\n      jump\t// in\n    tag_103:\n        /* \"#utility.yul\":1434:1490   */\n    tag_102:\n        /* \"#utility.yul\":1508:1537   */\n      tag_104\n        /* \"#utility.yul\":1530:1536   */\n      dup3\n        /* \"#utility.yul\":1508:1537   */\n      tag_44\n      jump\t// in\n    tag_104:\n        /* \"#utility.yul\":1500:1537   */\n      swap1\n      pop\n        /* \"#utility.yul\":1592:1596   */\n      0x20\n        /* \"#utility.yul\":1586:1590   */\n      dup2\n        /* \"#utility.yul\":1582:1597   */\n      add\n        /* \"#utility.yul\":1574:1597   */\n      swap1\n      pop\n        /* \"#utility.yul\":1296:1604   */\n      swap2\n      swap1\n      pop\n      jump\t// out\n        /* \"#utility.yul\":1610:1756   */\n    tag_49:\n        /* \"#utility.yul\":1707:1713   */\n      dup3\n        /* \"#utility.yul\":1702:1705   */\n      dup2\n        /* \"#utility.yul\":1697:1700   */\n      dup4\n        /* \"#utility.yul\":1684:1714   */\n      calldatacopy\n        /* \"#utility.yul\":1748:1749   */\n      0x00\n        /* \"#utility.yul\":1739:1745   */\n      dup4\n        /* \"#utility.yul\":1734:1737   */\n      dup4\n        /* \"#utility.yul\":1730:1746   */\n      add\n        /* \"#utility.yul\":1723:1750   */\n      mstore\n        /* \"#utility.yul\":1610:1756   */\n      pop\n      pop\n      pop\n      jump\t// out\n        /* \"#utility.yul\":1762:2187   */\n    tag_50:\n        /* \"#utility.yul\":1840:1845   */\n      0x00\n        /* \"#utility.yul\":1865:1931   */\n      tag_107\n        /* \"#utility.yul\":1881:1930   */\n      tag_108\n        /* \"#utility.yul\":1923:1929   */\n      dup5\n        /* \"#utility.yul\":1881:1930   */\n      tag_48\n      jump\t// in\n    tag_108:\n        /* \"#utility.yul\":1865:1931   */\n      tag_47\n      jump\t// in\n    tag_107:\n        /* \"#utility.yul\":1856:1931   */\n      swap1\n      pop\n        /* \"#utility.yul\":1954:1960   */\n      dup3\n        /* \"#utility.yul\":1947:1952   */\n      dup2\n        /* \"#utility.yul\":1940:1961   */\n      mstore\n        /* \"#utility.yul\":1992:1996   */\n      0x20\n        /* \"#utility.yul\":1985:1990   */\n      dup2\n        /* \"#utility.yul\":1981:1997   */\n      add\n        /* \"#utility.yul\":2030:2033   */\n      dup5\n        /* \"#utility.yul\":2021:2027   */\n      dup5\n        /* \"#utility.yul\":2016:2019   */\n      dup5\n        /* \"#utility.yul\":2012:2028   */\n      add\n        /* \"#utility.yul\":2009:2034   */\n      gt\n        /* \"#utility.yul\":2006:2118   */\n      iszero\n      tag_109\n      jumpi\n        /* \"#utility.yul\":2037:2116   */\n      tag_110\n      tag_43\n      jump\t// in\n    tag_110:\n        /* \"#utility.yul\":2006:2118   */\n    tag_109:\n        /* \"#utility.yul\":2127:2181   */\n      tag_111\n        /* \"#utility.yul\":2174:2180   */\n      dup5\n        /* \"#utility.yul\":2169:2172   */\n      dup3\n        /* \"#utility.yul\":2164:2167   */\n      dup6\n        /* \"#utility.yul\":2127:2181   */\n      tag_49\n      jump\t// in\n    tag_111:\n        /* \"#utility.yul\":1846:2187   */\n      pop\n        /* \"#utility.yul\":1762:2187   */\n      swap4\n      swap3\n      pop\n      pop\n      pop\n      jump\t// out\n        /* \"#utility.yul\":2207:2547   */\n    tag_51:\n        /* \"#utility.yul\":2263:2268   */\n      0x00\n        /* \"#utility.yul\":2312:2315   */\n      dup3\n        /* \"#utility.yul\":2305:2309   */\n      0x1f\n        /* \"#utility.yul\":2297:2303   */\n      dup4\n        /* \"#utility.yul\":2293:2310   */\n      add\n        /* \"#utility.yul\":2289:2316   */\n      slt\n        /* \"#utility.yul\":2279:2401   */\n      tag_113\n      jumpi\n        /* \"#utility.yul\":2320:2399   */\n      tag_114\n      tag_42\n      jump\t// in\n    tag_114:\n        /* \"#utility.yul\":2279:2401   */\n    tag_113:\n        /* \"#utility.yul\":2437:2443   */\n      dup2\n        /* \"#utility.yul\":2424:2444   */\n      calldataload\n        /* \"#utility.yul\":2462:2541   */\n      tag_115\n        /* \"#utility.yul\":2537:2540   */\n      dup5\n        /* \"#utility.yul\":2529:2535   */\n      dup3\n        /* \"#utility.yul\":2522:2526   */\n      0x20\n        /* \"#utility.yul\":2514:2520   */\n      dup7\n        /* \"#utility.yul\":2510:2527   */\n      add\n        /* \"#utility.yul\":2462:2541   */\n      tag_50\n      jump\t// in\n    tag_115:\n        /* \"#utility.yul\":2453:2541   */\n      swap2\n      pop\n        /* \"#utility.yul\":2269:2547   */\n      pop\n        /* \"#utility.yul\":2207:2547   */\n      swap3\n      swap2\n      pop\n      pop\n      jump\t// out\n        /* \"#utility.yul\":2553:2630   */\n    tag_52:\n        /* \"#utility.yul\":2590:2597   */\n      0x00\n        /* \"#utility.yul\":2619:2624   */\n      dup2\n        /* \"#utility.yul\":2608:2624   */\n      swap1\n      pop\n        /* \"#utility.yul\":2553:2630   */\n      swap2\n      swap1\n      pop\n      jump\t// out\n        /* \"#utility.yul\":2636:2758   */\n    tag_53:\n        /* \"#utility.yul\":2709:2733   */\n      tag_118\n        /* \"#utility.yul\":2727:2732   */\n      dup2\n        /* \"#utility.yul\":2709:2733   */\n      tag_52\n      jump\t// in\n    tag_118:\n        /* \"#utility.yul\":2702:2707   */\n      dup2\n        /* \"#utility.yul\":2699:2734   */\n      eq\n        /* \"#utility.yul\":2689:2752   */\n      tag_119\n      jumpi\n        /* \"#utility.yul\":2748:2749   */\n      0x00\n        /* \"#utility.yul\":2745:2746   */\n      dup1\n        /* \"#utility.yul\":2738:2750   */\n      revert\n        /* \"#utility.yul\":2689:2752   */\n    tag_119:\n        /* \"#utility.yul\":2636:2758   */\n      pop\n      jump\t// out\n        /* \"#utility.yul\":2764:2903   */\n    tag_54:\n        /* \"#utility.yul\":2810:2815   */\n      0x00\n        /* \"#utility.yul\":2848:2854   */\n      dup2\n        /* \"#utility.yul\":2835:2855   */\n      calldataload\n        /* \"#utility.yul\":2826:2855   */\n      swap1\n      pop\n        /* \"#utility.yul\":2864:2897   */\n      tag_121\n        /* \"#utility.yul\":2891:2896   */\n      dup2\n        /* \"#utility.yul\":2864:2897   */\n      tag_53\n      jump\t// in\n    tag_121:\n        /* \"#utility.yul\":2764:2903   */\n      swap3\n      swap2\n      pop\n      pop\n      jump\t// out\n        /* \"#utility.yul\":2909:3854   */\n    tag_8:\n        /* \"#utility.yul\":3005:3011   */\n      0x00\n        /* \"#utility.yul\":3013:3019   */\n      dup1\n        /* \"#utility.yul\":3021:3027   */\n      0x00\n        /* \"#utility.yul\":3029:3035   */\n      dup1\n        /* \"#utility.yul\":3078:3081   */\n      0x80\n        /* \"#utility.yul\":3066:3075   */\n      dup6\n        /* \"#utility.yul\":3057:3064   */\n      dup8\n        /* \"#utility.yul\":3053:3076   */\n      sub\n        /* \"#utility.yul\":3049:3082   */\n      slt\n        /* \"#utility.yul\":3046:3166   */\n      iszero\n      tag_123\n      jumpi\n        /* \"#utility.yul\":3085:3164   */\n      tag_124\n      tag_40\n      jump\t// in\n    tag_124:\n        /* \"#utility.yul\":3046:3166   */\n    tag_123:\n        /* \"#utility.yul\":3233:3234   */\n      0x00\n        /* \"#utility.yul\":3222:3231   */\n      dup6\n        /* \"#utility.yul\":3218:3235   */\n      add\n        /* \"#utility.yul\":3205:3236   */\n      calldataload\n        /* \"#utility.yul\":3263:3281   */\n      0xffffffffffffffff\n        /* \"#utility.yul\":3255:3261   */\n      dup2\n        /* \"#utility.yul\":3252:3282   */\n      gt\n        /* \"#utility.yul\":3249:3366   */\n      iszero\n      tag_125\n      jumpi\n        /* \"#utility.yul\":3285:3364   */\n      tag_126\n      tag_41\n      jump\t// in\n    tag_126:\n        /* \"#utility.yul\":3249:3366   */\n    tag_125:\n        /* \"#utility.yul\":3390:3453   */\n      tag_127\n        /* \"#utility.yul\":3445:3452   */\n      dup8\n        /* \"#utility.yul\":3436:3442   */\n      dup3\n        /* \"#utility.yul\":3425:3434   */\n      dup9\n        /* \"#utility.yul\":3421:3443   */\n      add\n        /* \"#utility.yul\":3390:3453   */\n      tag_51\n      jump\t// in\n    tag_127:\n        /* \"#utility.yul\":3380:3453   */\n      swap5\n      pop\n        /* \"#utility.yul\":3176:3463   */\n      pop\n        /* \"#utility.yul\":3502:3504   */\n      0x20\n        /* \"#utility.yul\":3528:3581   */\n      tag_128\n        /* \"#utility.yul\":3573:3580   */\n      dup8\n        /* \"#utility.yul\":3564:3570   */\n      dup3\n        /* \"#utility.yul\":3553:3562   */\n      dup9\n        /* \"#utility.yul\":3549:3571   */\n      add\n        /* \"#utility.yul\":3528:3581   */\n      tag_54\n      jump\t// in\n    tag_128:\n        /* \"#utility.yul\":3518:3581   */\n      swap4\n      pop\n        /* \"#utility.yul\":3473:3591   */\n      pop\n        /* \"#utility.yul\":3630:3632   */\n      0x40\n        /* \"#utility.yul\":3656:3709   */\n      tag_129\n        /* \"#utility.yul\":3701:3708   */\n      dup8\n        /* \"#utility.yul\":3692:3698   */\n      dup3\n        /* \"#utility.yul\":3681:3690   */\n      dup9\n        /* \"#utility.yul\":3677:3699   */\n      add\n        /* \"#utility.yul\":3656:3709   */\n      tag_54\n      jump\t// in\n    tag_129:\n        /* \"#utility.yul\":3646:3709   */\n      swap3\n      pop\n        /* \"#utility.yul\":3601:3719   */\n      pop\n        /* \"#utility.yul\":3758:3760   */\n      0x60\n        /* \"#utility.yul\":3784:3837   */\n      tag_130\n        /* \"#utility.yul\":3829:3836   */\n      dup8\n        /* \"#utility.yul\":3820:3826   */\n      dup3\n        /* \"#utility.yul\":3809:3818   */\n      dup9\n        /* \"#utility.yul\":3805:3827   */\n      add\n        /* \"#utility.yul\":3784:3837   */\n      tag_54\n      jump\t// in\n    tag_130:\n        /* \"#utility.yul\":3774:3837   */\n      swap2\n      pop\n        /* \"#utility.yul\":3729:3847   */\n      pop\n        /* \"#utility.yul\":2909:3854   */\n      swap3\n      swap6\n      swap2\n      swap5\n      pop\n      swap3\n      pop\n      jump\t// out\n        /* \"#utility.yul\":3860:4189   */\n    tag_12:\n        /* \"#utility.yul\":3919:3925   */\n      0x00\n        /* \"#utility.yul\":3968:3970   */\n      0x20\n        /* \"#utility.yul\":3956:3965   */\n      dup3\n        /* \"#utility.yul\":3947:3954   */\n      dup5\n        /* \"#utility.yul\":3943:3966   */\n      sub\n        /* \"#utility.yul\":3939:3971   */\n      slt\n        /* \"#utility.yul\":3936:4055   */\n      iszero\n      tag_132\n      jumpi\n        /* \"#utility.yul\":3974:4053   */\n      tag_133\n      tag_40\n      jump\t// in\n    tag_133:\n        /* \"#utility.yul\":3936:4055   */\n    tag_132:\n        /* \"#utility.yul\":4094:4095   */\n      0x00\n        /* \"#utility.yul\":4119:4172   */\n      tag_134\n        /* \"#utility.yul\":4164:4171   */\n      dup5\n        /* \"#utility.yul\":4155:4161   */\n      dup3\n        /* \"#utility.yul\":4144:4153   */\n      dup6\n        /* \"#utility.yul\":4140:4162   */\n      add\n        /* \"#utility.yul\":4119:4172   */\n      tag_54\n      jump\t// in\n    tag_134:\n        /* \"#utility.yul\":4109:4172   */\n      swap2\n      pop\n        /* \"#utility.yul\":4065:4182   */\n      pop\n        /* \"#utility.yul\":3860:4189   */\n      swap3\n      swap2\n      pop\n      pop\n      jump\t// out\n        /* \"#utility.yul\":4195:4321   */\n    tag_55:\n        /* \"#utility.yul\":4232:4239   */\n      0x00\n        /* \"#utility.yul\":4272:4314   */\n      0xffffffffffffffffffffffffffffffffffffffff\n        /* \"#utility.yul\":4265:4270   */\n      dup3\n        /* \"#utility.yul\":4261:4315   */\n      and\n        /* \"#utility.yul\":4250:4315   */\n      swap1\n      pop\n        /* \"#utility.yul\":4195:4321   */\n      swap2\n      swap1\n      pop\n      jump\t// out\n        /* \"#utility.yul\":4327:4423   */\n    tag_56:\n        /* \"#utility.yul\":4364:4371   */\n      0x00\n        /* \"#utility.yul\":4393:4417   */\n      tag_137\n        /* \"#utility.yul\":4411:4416   */\n      dup3\n        /* \"#utility.yul\":4393:4417   */\n      tag_55\n      jump\t// in\n    tag_137:\n        /* \"#utility.yul\":4382:4417   */\n      swap1\n      pop\n        /* \"#utility.yul\":4327:4423   */\n      swap2\n      swap1\n      pop\n      jump\t// out\n        /* \"#utility.yul\":4429:4547   */\n    tag_57:\n        /* \"#utility.yul\":4516:4540   */\n      tag_139\n        /* \"#utility.yul\":4534:4539   */\n      dup2\n        /* \"#utility.yul\":4516:4540   */\n      tag_56\n      jump\t// in\n    tag_139:\n        /* \"#utility.yul\":4511:4514   */\n      dup3\n        /* \"#utility.yul\":4504:4541   */\n      mstore\n        /* \"#utility.yul\":4429:4547   */\n      pop\n      pop\n      jump\t// out\n        /* \"#utility.yul\":4553:4652   */\n    tag_58:\n        /* \"#utility.yul\":4605:4611   */\n      0x00\n        /* \"#utility.yul\":4639:4644   */\n      dup2\n        /* \"#utility.yul\":4633:4645   */\n      mload\n        /* \"#utility.yul\":4623:4645   */\n      swap1\n      pop\n        /* \"#utility.yul\":4553:4652   */\n      swap2\n      swap1\n      pop\n      jump\t// out\n        /* \"#utility.yul\":4658:4827   */\n    tag_59:\n        /* \"#utility.yul\":4742:4753   */\n      0x00\n        /* \"#utility.yul\":4776:4782   */\n      dup3\n        /* \"#utility.yul\":4771:4774   */\n      dup3\n        /* \"#utility.yul\":4764:4783   */\n      mstore\n        /* \"#utility.yul\":4816:4820   */\n      0x20\n        /* \"#utility.yul\":4811:4814   */\n      dup3\n        /* \"#utility.yul\":4807:4821   */\n      add\n        /* \"#utility.yul\":4792:4821   */\n      swap1\n      pop\n        /* \"#utility.yul\":4658:4827   */\n      swap3\n      swap2\n      pop\n      pop\n      jump\t// out\n        /* \"#utility.yul\":4833:5079   */\n    tag_60:\n        /* \"#utility.yul\":4914:4915   */\n      0x00\n        /* \"#utility.yul\":4924:5037   */\n    tag_143:\n        /* \"#utility.yul\":4938:4944   */\n      dup4\n        /* \"#utility.yul\":4935:4936   */\n      dup2\n        /* \"#utility.yul\":4932:4945   */\n      lt\n        /* \"#utility.yul\":4924:5037   */\n      iszero\n      tag_145\n      jumpi\n        /* \"#utility.yul\":5023:5024   */\n      dup1\n        /* \"#utility.yul\":5018:5021   */\n      dup3\n        /* \"#utility.yul\":5014:5025   */\n      add\n        /* \"#utility.yul\":5008:5026   */\n      mload\n        /* \"#utility.yul\":5004:5005   */\n      dup2\n        /* \"#utility.yul\":4999:5002   */\n      dup5\n        /* \"#utility.yul\":4995:5006   */\n      add\n        /* \"#utility.yul\":4988:5027   */\n      mstore\n        /* \"#utility.yul\":4960:4962   */\n      0x20\n        /* \"#utility.yul\":4957:4958   */\n      dup2\n        /* \"#utility.yul\":4953:4963   */\n      add\n        /* \"#utility.yul\":4948:4963   */\n      swap1\n      pop\n        /* \"#utility.yul\":4924:5037   */\n      jump(tag_143)\n    tag_145:\n        /* \"#utility.yul\":5071:5072   */\n      0x00\n        /* \"#utility.yul\":5062:5068   */\n      dup5\n        /* \"#utility.yul\":5057:5060   */\n      dup5\n        /* \"#utility.yul\":5053:5069   */\n      add\n        /* \"#utility.yul\":5046:5073   */\n      mstore\n        /* \"#utility.yul\":4895:5079   */\n      pop\n        /* \"#utility.yul\":4833:5079   */\n      pop\n      pop\n      pop\n      jump\t// out\n        /* \"#utility.yul\":5085:5462   */\n    tag_61:\n        /* \"#utility.yul\":5173:5176   */\n      0x00\n        /* \"#utility.yul\":5201:5240   */\n      tag_147\n        /* \"#utility.yul\":5234:5239   */\n      dup3\n        /* \"#utility.yul\":5201:5240   */\n      tag_58\n      jump\t// in\n    tag_147:\n        /* \"#utility.yul\":5256:5327   */\n      tag_148\n        /* \"#utility.yul\":5320:5326   */\n      dup2\n        /* \"#utility.yul\":5315:5318   */\n      dup6\n        /* \"#utility.yul\":5256:5327   */\n      tag_59\n      jump\t// in\n    tag_148:\n        /* \"#utility.yul\":5249:5327   */\n      swap4\n      pop\n        /* \"#utility.yul\":5336:5401   */\n      tag_149\n        /* \"#utility.yul\":5394:5400   */\n      dup2\n        /* \"#utility.yul\":5389:5392   */\n      dup6\n        /* \"#utility.yul\":5382:5386   */\n      0x20\n        /* \"#utility.yul\":5375:5380   */\n      dup7\n        /* \"#utility.yul\":5371:5387   */\n      add\n        /* \"#utility.yul\":5336:5401   */\n      tag_60\n      jump\t// in\n    tag_149:\n        /* \"#utility.yul\":5426:5455   */\n      tag_150\n        /* \"#utility.yul\":5448:5454   */\n      dup2\n        /* \"#utility.yul\":5426:5455   */\n      tag_44\n      jump\t// in\n    tag_150:\n        /* \"#utility.yul\":5421:5424   */\n      dup5\n        /* \"#utility.yul\":5417:5456   */\n      add\n        /* \"#utility.yul\":5410:5456   */\n      swap2\n      pop\n        /* \"#utility.yul\":5177:5462   */\n      pop\n        /* \"#utility.yul\":5085:5462   */\n      swap3\n      swap2\n      pop\n      pop\n      jump\t// out\n        /* \"#utility.yul\":5468:5586   */\n    tag_62:\n        /* \"#utility.yul\":5555:5579   */\n      tag_152\n        /* \"#utility.yul\":5573:5578   */\n      dup2\n        /* \"#utility.yul\":5555:5579   */\n      tag_52\n      jump\t// in\n    tag_152:\n        /* \"#utility.yul\":5550:5553   */\n      dup3\n        /* \"#utility.yul\":5543:5580   */\n      mstore\n        /* \"#utility.yul\":5468:5586   */\n      pop\n      pop\n      jump\t// out\n        /* \"#utility.yul\":5592:6458   */\n    tag_15:\n        /* \"#utility.yul\":5845:5849   */\n      0x00\n        /* \"#utility.yul\":5883:5886   */\n      0xc0\n        /* \"#utility.yul\":5872:5881   */\n      dup3\n        /* \"#utility.yul\":5868:5887   */\n      add\n        /* \"#utility.yul\":5860:5887   */\n      swap1\n      pop\n        /* \"#utility.yul\":5897:5968   */\n      tag_154\n        /* \"#utility.yul\":5965:5966   */\n      0x00\n        /* \"#utility.yul\":5954:5963   */\n      dup4\n        /* \"#utility.yul\":5950:5967   */\n      add\n        /* \"#utility.yul\":5941:5947   */\n      dup10\n        /* \"#utility.yul\":5897:5968   */\n      tag_57\n      jump\t// in\n    tag_154:\n        /* \"#utility.yul\":6015:6024   */\n      dup2\n        /* \"#utility.yul\":6009:6013   */\n      dup2\n        /* \"#utility.yul\":6005:6025   */\n      sub\n        /* \"#utility.yul\":6000:6002   */\n      0x20\n        /* \"#utility.yul\":5989:5998   */\n      dup4\n        /* \"#utility.yul\":5985:6003   */\n      add\n        /* \"#utility.yul\":5978:6026   */\n      mstore\n        /* \"#utility.yul\":6043:6121   */\n      tag_155\n        /* \"#utility.yul\":6116:6120   */\n      dup2\n        /* \"#utility.yul\":6107:6113   */\n      dup9\n        /* \"#utility.yul\":6043:6121   */\n      tag_61\n      jump\t// in\n    tag_155:\n        /* \"#utility.yul\":6035:6121   */\n      swap1\n      pop\n        /* \"#utility.yul\":6131:6203   */\n      tag_156\n        /* \"#utility.yul\":6199:6201   */\n      0x40\n        /* \"#utility.yul\":6188:6197   */\n      dup4\n        /* \"#utility.yul\":6184:6202   */\n      add\n        /* \"#utility.yul\":6175:6181   */\n      dup8\n        /* \"#utility.yul\":6131:6203   */\n      tag_62\n      jump\t// in\n    tag_156:\n        /* \"#utility.yul\":6213:6285   */\n      tag_157\n        /* \"#utility.yul\":6281:6283   */\n      0x60\n        /* \"#utility.yul\":6270:6279   */\n      dup4\n        /* \"#utility.yul\":6266:6284   */\n      add\n        /* \"#utility.yul\":6257:6263   */\n      dup7\n        /* \"#utility.yul\":6213:6285   */\n      tag_62\n      jump\t// in\n    tag_157:\n        /* \"#utility.yul\":6295:6368   */\n      tag_158\n        /* \"#utility.yul\":6363:6366   */\n      0x80\n        /* \"#utility.yul\":6352:6361   */\n      dup4\n        /* \"#utility.yul\":6348:6367   */\n      add\n        /* \"#utility.yul\":6339:6345   */\n      dup6\n        /* \"#utility.yul\":6295:6368   */\n      tag_62\n      jump\t// in\n    tag_158:\n        /* \"#utility.yul\":6378:6451   */\n      tag_159\n        /* \"#utility.yul\":6446:6449   */\n      0xa0\n        /* \"#utility.yul\":6435:6444   */\n      dup4\n        /* \"#utility.yul\":6431:6450   */\n      add\n        /* \"#utility.yul\":6422:6428   */\n      dup5\n        /* \"#utility.yul\":6378:6451   */\n      tag_62\n      jump\t// in\n    tag_159:\n        /* \"#utility.yul\":5592:6458   */\n      swap8\n      swap7\n      pop\n      pop\n      pop\n      pop\n      pop\n      pop\n      pop\n      jump\t// out\n        /* \"#utility.yul\":6464:6586   */\n    tag_63:\n        /* \"#utility.yul\":6537:6561   */\n      tag_161\n        /* \"#utility.yul\":6555:6560   */\n      dup2\n        /* \"#utility.yul\":6537:6561   */\n      tag_56\n      jump\t// in\n    tag_161:\n        /* \"#utility.yul\":6530:6535   */\n      dup2\n        /* \"#utility.yul\":6527:6562   */\n      eq\n        /* \"#utility.yul\":6517:6580   */\n      tag_162\n      jumpi\n        /* \"#utility.yul\":6576:6577   */\n      0x00\n        /* \"#utility.yul\":6573:6574   */\n      dup1\n        /* \"#utility.yul\":6566:6578   */\n      revert\n        /* \"#utility.yul\":6517:6580   */\n    tag_162:\n        /* \"#utility.yul\":6464:6586   */\n      pop\n      jump\t// out\n        /* \"#utility.yul\":6592:6731   */\n    tag_64:\n        /* \"#utility.yul\":6638:6643   */\n      0x00\n        /* \"#utility.yul\":6676:6682   */\n      dup2\n        /* \"#utility.yul\":6663:6683   */\n      calldataload\n        /* \"#utility.yul\":6654:6683   */\n      swap1\n      pop\n        /* \"#utility.yul\":6692:6725   */\n      tag_164\n        /* \"#utility.yul\":6719:6724   */\n      dup2\n        /* \"#utility.yul\":6692:6725   */\n      tag_63\n      jump\t// in\n    tag_164:\n        /* \"#utility.yul\":6592:6731   */\n      swap3\n      swap2\n      pop\n      pop\n      jump\t// out\n        /* \"#utility.yul\":6737:7211   */\n    tag_18:\n        /* \"#utility.yul\":6805:6811   */\n      0x00\n        /* \"#utility.yul\":6813:6819   */\n      dup1\n        /* \"#utility.yul\":6862:6864   */\n      0x40\n        /* \"#utility.yul\":6850:6859   */\n      dup4\n        /* \"#utility.yul\":6841:6848   */\n      dup6\n        /* \"#utility.yul\":6837:6860   */\n      sub\n        /* \"#utility.yul\":6833:6865   */\n      slt\n        /* \"#utility.yul\":6830:6949   */\n      iszero\n      tag_166\n      jumpi\n        /* \"#utility.yul\":6868:6947   */\n      tag_167\n      tag_40\n      jump\t// in\n    tag_167:\n        /* \"#utility.yul\":6830:6949   */\n    tag_166:\n        /* \"#utility.yul\":6988:6989   */\n      0x00\n        /* \"#utility.yul\":7013:7066   */\n      tag_168\n        /* \"#utility.yul\":7058:7065   */\n      dup6\n        /* \"#utility.yul\":7049:7055   */\n      dup3\n        /* \"#utility.yul\":7038:7047   */\n      dup7\n        /* \"#utility.yul\":7034:7056   */\n      add\n        /* \"#utility.yul\":7013:7066   */\n      tag_64\n      jump\t// in\n    tag_168:\n        /* \"#utility.yul\":7003:7066   */\n      swap3\n      pop\n        /* \"#utility.yul\":6959:7076   */\n      pop\n        /* \"#utility.yul\":7115:7117   */\n      0x20\n        /* \"#utility.yul\":7141:7194   */\n      tag_169\n        /* \"#utility.yul\":7186:7193   */\n      dup6\n        /* \"#utility.yul\":7177:7183   */\n      dup3\n        /* \"#utility.yul\":7166:7175   */\n      dup7\n        /* \"#utility.yul\":7162:7184   */\n      add\n        /* \"#utility.yul\":7141:7194   */\n      tag_54\n      jump\t// in\n    tag_169:\n        /* \"#utility.yul\":7131:7194   */\n      swap2\n      pop\n        /* \"#utility.yul\":7086:7204   */\n      pop\n        /* \"#utility.yul\":6737:7211   */\n      swap3\n      pop\n      swap3\n      swap1\n      pop\n      jump\t// out\n        /* \"#utility.yul\":7217:7439   */\n    tag_21:\n        /* \"#utility.yul\":7310:7314   */\n      0x00\n        /* \"#utility.yul\":7348:7350   */\n      0x20\n        /* \"#utility.yul\":7337:7346   */\n      dup3\n        /* \"#utility.yul\":7333:7351   */\n      add\n        /* \"#utility.yul\":7325:7351   */\n      swap1\n      pop\n        /* \"#utility.yul\":7361:7432   */\n      tag_171\n        /* \"#utility.yul\":7429:7430   */\n      0x00\n        /* \"#utility.yul\":7418:7427   */\n      dup4\n        /* \"#utility.yul\":7414:7431   */\n      add\n        /* \"#utility.yul\":7405:7411   */\n      dup5\n        /* \"#utility.yul\":7361:7432   */\n      tag_62\n      jump\t// in\n    tag_171:\n        /* \"#utility.yul\":7217:7439   */\n      swap3\n      swap2\n      pop\n      pop\n      jump\t// out\n        /* \"#utility.yul\":7445:7613   */\n    tag_65:\n        /* \"#utility.yul\":7585:7605   */\n      0x546865204576656e7420686173206f7665720000000000000000000000000000\n        /* \"#utility.yul\":7581:7582   */\n      0x00\n        /* \"#utility.yul\":7573:7579   */\n      dup3\n        /* \"#utility.yul\":7569:7583   */\n      add\n        /* \"#utility.yul\":7562:7606   */\n      mstore\n        /* \"#utility.yul\":7445:7613   */\n      pop\n      jump\t// out\n        /* \"#utility.yul\":7619:7985   */\n    tag_66:\n        /* \"#utility.yul\":7761:7764   */\n      0x00\n        /* \"#utility.yul\":7782:7849   */\n      tag_174\n        /* \"#utility.yul\":7846:7848   */\n      0x12\n        /* \"#utility.yul\":7841:7844   */\n      dup4\n        /* \"#utility.yul\":7782:7849   */\n      tag_59\n      jump\t// in\n    tag_174:\n        /* \"#utility.yul\":7775:7849   */\n      swap2\n      pop\n        /* \"#utility.yul\":7858:7951   */\n      tag_175\n        /* \"#utility.yul\":7947:7950   */\n      dup3\n        /* \"#utility.yul\":7858:7951   */\n      tag_65\n      jump\t// in\n    tag_175:\n        /* \"#utility.yul\":7976:7978   */\n      0x20\n        /* \"#utility.yul\":7971:7974   */\n      dup3\n        /* \"#utility.yul\":7967:7979   */\n      add\n        /* \"#utility.yul\":7960:7979   */\n      swap1\n      pop\n        /* \"#utility.yul\":7619:7985   */\n      swap2\n      swap1\n      pop\n      jump\t// out\n        /* \"#utility.yul\":7991:8410   */\n    tag_25:\n        /* \"#utility.yul\":8157:8161   */\n      0x00\n        /* \"#utility.yul\":8195:8197   */\n      0x20\n        /* \"#utility.yul\":8184:8193   */\n      dup3\n        /* \"#utility.yul\":8180:8198   */\n      add\n        /* \"#utility.yul\":8172:8198   */\n      swap1\n      pop\n        /* \"#utility.yul\":8244:8253   */\n      dup2\n        /* \"#utility.yul\":8238:8242   */\n      dup2\n        /* \"#utility.yul\":8234:8254   */\n      sub\n        /* \"#utility.yul\":8230:8231   */\n      0x00\n        /* \"#utility.yul\":8219:8228   */\n      dup4\n        /* \"#utility.yul\":8215:8232   */\n      add\n        /* \"#utility.yul\":8208:8255   */\n      mstore\n        /* \"#utility.yul\":8272:8403   */\n      tag_177\n        /* \"#utility.yul\":8398:8402   */\n      dup2\n        /* \"#utility.yul\":8272:8403   */\n      tag_66\n      jump\t// in\n    tag_177:\n        /* \"#utility.yul\":8264:8403   */\n      swap1\n      pop\n        /* \"#utility.yul\":7991:8410   */\n      swap2\n      swap1\n      pop\n      jump\t// out\n        /* \"#utility.yul\":8416:8588   */\n    tag_67:\n        /* \"#utility.yul\":8556:8580   */\n      0x796f752063616e2052756e20746865204576656e747300000000000000000000\n        /* \"#utility.yul\":8552:8553   */\n      0x00\n        /* \"#utility.yul\":8544:8550   */\n      dup3\n        /* \"#utility.yul\":8540:8554   */\n      add\n        /* \"#utility.yul\":8533:8581   */\n      mstore\n        /* \"#utility.yul\":8416:8588   */\n      pop\n      jump\t// out\n        /* \"#utility.yul\":8594:8960   */\n    tag_68:\n        /* \"#utility.yul\":8736:8739   */\n      0x00\n        /* \"#utility.yul\":8757:8824   */\n      tag_180\n        /* \"#utility.yul\":8821:8823   */\n      0x16\n        /* \"#utility.yul\":8816:8819   */\n      dup4\n        /* \"#utility.yul\":8757:8824   */\n      tag_59\n      jump\t// in\n    tag_180:\n        /* \"#utility.yul\":8750:8824   */\n      swap2\n      pop\n        /* \"#utility.yul\":8833:8926   */\n      tag_181\n        /* \"#utility.yul\":8922:8925   */\n      dup3\n        /* \"#utility.yul\":8833:8926   */\n      tag_67\n      jump\t// in\n    tag_181:\n        /* \"#utility.yul\":8951:8953   */\n      0x20\n        /* \"#utility.yul\":8946:8949   */\n      dup3\n        /* \"#utility.yul\":8942:8954   */\n      add\n        /* \"#utility.yul\":8935:8954   */\n      swap1\n      pop\n        /* \"#utility.yul\":8594:8960   */\n      swap2\n      swap1\n      pop\n      jump\t// out\n        /* \"#utility.yul\":8966:9385   */\n    tag_28:\n        /* \"#utility.yul\":9132:9136   */\n      0x00\n        /* \"#utility.yul\":9170:9172   */\n      0x20\n        /* \"#utility.yul\":9159:9168   */\n      dup3\n        /* \"#utility.yul\":9155:9173   */\n      add\n        /* \"#utility.yul\":9147:9173   */\n      swap1\n      pop\n        /* \"#utility.yul\":9219:9228   */\n      dup2\n        /* \"#utility.yul\":9213:9217   */\n      dup2\n        /* \"#utility.yul\":9209:9229   */\n      sub\n        /* \"#utility.yul\":9205:9206   */\n      0x00\n        /* \"#utility.yul\":9194:9203   */\n      dup4\n        /* \"#utility.yul\":9190:9207   */\n      add\n        /* \"#utility.yul\":9183:9230   */\n      mstore\n        /* \"#utility.yul\":9247:9378   */\n      tag_183\n        /* \"#utility.yul\":9373:9377   */\n      dup2\n        /* \"#utility.yul\":9247:9378   */\n      tag_68\n      jump\t// in\n    tag_183:\n        /* \"#utility.yul\":9239:9378   */\n      swap1\n      pop\n        /* \"#utility.yul\":8966:9385   */\n      swap2\n      swap1\n      pop\n      jump\t// out\n        /* \"#utility.yul\":9391:9571   */\n    tag_69:\n        /* \"#utility.yul\":9439:9516   */\n      0x4e487b7100000000000000000000000000000000000000000000000000000000\n        /* \"#utility.yul\":9436:9437   */\n      0x00\n        /* \"#utility.yul\":9429:9517   */\n      mstore\n        /* \"#utility.yul\":9536:9540   */\n      0x22\n        /* \"#utility.yul\":9533:9534   */\n      0x04\n        /* \"#utility.yul\":9526:9541   */\n      mstore\n        /* \"#utility.yul\":9560:9564   */\n      0x24\n        /* \"#utility.yul\":9557:9558   */\n      0x00\n        /* \"#utility.yul\":9550:9565   */\n      revert\n        /* \"#utility.yul\":9577:9897   */\n    tag_34:\n        /* \"#utility.yul\":9621:9627   */\n      0x00\n        /* \"#utility.yul\":9658:9659   */\n      0x02\n        /* \"#utility.yul\":9652:9656   */\n      dup3\n        /* \"#utility.yul\":9648:9660   */\n      div\n        /* \"#utility.yul\":9638:9660   */\n      swap1\n      pop\n        /* \"#utility.yul\":9705:9706   */\n      0x01\n        /* \"#utility.yul\":9699:9703   */\n      dup3\n        /* \"#utility.yul\":9695:9707   */\n      and\n        /* \"#utility.yul\":9726:9744   */\n      dup1\n        /* \"#utility.yul\":9716:9797   */\n      tag_186\n      jumpi\n        /* \"#utility.yul\":9782:9786   */\n      0x7f\n        /* \"#utility.yul\":9774:9780   */\n      dup3\n        /* \"#utility.yul\":9770:9787   */\n      and\n        /* \"#utility.yul\":9760:9787   */\n      swap2\n      pop\n        /* \"#utility.yul\":9716:9797   */\n    tag_186:\n        /* \"#utility.yul\":9844:9846   */\n      0x20\n        /* \"#utility.yul\":9836:9842   */\n      dup3\n        /* \"#utility.yul\":9833:9847   */\n      lt\n        /* \"#utility.yul\":9813:9831   */\n      dup2\n        /* \"#utility.yul\":9810:9848   */\n      sub\n        /* \"#utility.yul\":9807:9891   */\n      tag_187\n      jumpi\n        /* \"#utility.yul\":9863:9881   */\n      tag_188\n      tag_69\n      jump\t// in\n    tag_188:\n        /* \"#utility.yul\":9807:9891   */\n    tag_187:\n        /* \"#utility.yul\":9628:9897   */\n      pop\n        /* \"#utility.yul\":9577:9897   */\n      swap2\n      swap1\n      pop\n      jump\t// out\n        /* \"#utility.yul\":9903:10044   */\n    tag_70:\n        /* \"#utility.yul\":9952:9956   */\n      0x00\n        /* \"#utility.yul\":9975:9978   */\n      dup2\n        /* \"#utility.yul\":9967:9978   */\n      swap1\n      pop\n        /* \"#utility.yul\":9998:10001   */\n      dup2\n        /* \"#utility.yul\":9995:9996   */\n      0x00\n        /* \"#utility.yul\":9988:10002   */\n      mstore\n        /* \"#utility.yul\":10032:10036   */\n      0x20\n        /* \"#utility.yul\":10029:10030   */\n      0x00\n        /* \"#utility.yul\":10019:10037   */\n      keccak256\n        /* \"#utility.yul\":10011:10037   */\n      swap1\n      pop\n        /* \"#utility.yul\":9903:10044   */\n      swap2\n      swap1\n      pop\n      jump\t// out\n        /* \"#utility.yul\":10050:10143   */\n    tag_71:\n        /* \"#utility.yul\":10087:10093   */\n      0x00\n        /* \"#utility.yul\":10134:10136   */\n      0x20\n        /* \"#utility.yul\":10129:10131   */\n      0x1f\n        /* \"#utility.yul\":10122:10127   */\n      dup4\n        /* \"#utility.yul\":10118:10132   */\n      add\n        /* \"#utility.yul\":10114:10137   */\n      div\n        /* \"#utility.yul\":10104:10137   */\n      swap1\n      pop\n        /* \"#utility.yul\":10050:10143   */\n      swap2\n      swap1\n      pop\n      jump\t// out\n        /* \"#utility.yul\":10149:10256   */\n    tag_72:\n        /* \"#utility.yul\":10193:10201   */\n      0x00\n        /* \"#utility.yul\":10243:10248   */\n      dup3\n        /* \"#utility.yul\":10237:10241   */\n      dup3\n        /* \"#utility.yul\":10233:10249   */\n      shl\n        /* \"#utility.yul\":10212:10249   */\n      swap1\n      pop\n        /* \"#utility.yul\":10149:10256   */\n      swap3\n      swap2\n      pop\n      pop\n      jump\t// out\n        /* \"#utility.yul\":10262:10655   */\n    tag_73:\n        /* \"#utility.yul\":10331:10337   */\n      0x00\n        /* \"#utility.yul\":10381:10382   */\n      0x08\n        /* \"#utility.yul\":10369:10379   */\n      dup4\n        /* \"#utility.yul\":10365:10383   */\n      mul\n        /* \"#utility.yul\":10404:10501   */\n      tag_193\n        /* \"#utility.yul\":10434:10500   */\n      0xffffffffffffffffffffffffffffffffffffffffffffffffffffffffffffffff\n        /* \"#utility.yul\":10423:10432   */\n      dup3\n        /* \"#utility.yul\":10404:10501   */\n      tag_72\n      jump\t// in\n    tag_193:\n        /* \"#utility.yul\":10522:10561   */\n      tag_194\n        /* \"#utility.yul\":10552:10560   */\n      dup7\n        /* \"#utility.yul\":10541:10550   */\n      dup4\n        /* \"#utility.yul\":10522:10561   */\n      tag_72\n      jump\t// in\n    tag_194:\n        /* \"#utility.yul\":10510:10561   */\n      swap6\n      pop\n        /* \"#utility.yul\":10594:10598   */\n      dup1\n        /* \"#utility.yul\":10590:10599   */\n      not\n        /* \"#utility.yul\":10583:10588   */\n      dup5\n        /* \"#utility.yul\":10579:10600   */\n      and\n        /* \"#utility.yul\":10570:10600   */\n      swap4\n      pop\n        /* \"#utility.yul\":10643:10647   */\n      dup1\n        /* \"#utility.yul\":10633:10641   */\n      dup7\n        /* \"#utility.yul\":10629:10648   */\n      and\n        /* \"#utility.yul\":10622:10627   */\n      dup5\n        /* \"#utility.yul\":10619:10649   */\n      or\n        /* \"#utility.yul\":10609:10649   */\n      swap3\n      pop\n        /* \"#utility.yul\":10338:10655   */\n      pop\n      pop\n        /* \"#utility.yul\":10262:10655   */\n      swap4\n      swap3\n      pop\n      pop\n      pop\n      jump\t// out\n        /* \"#utility.yul\":10661:10721   */\n    tag_74:\n        /* \"#utility.yul\":10689:10692   */\n      0x00\n        /* \"#utility.yul\":10710:10715   */\n      dup2\n        /* \"#utility.yul\":10703:10715   */\n      swap1\n      pop\n        /* \"#utility.yul\":10661:10721   */\n      swap2\n      swap1\n      pop\n      jump\t// out\n        /* \"#utility.yul\":10727:10869   */\n    tag_75:\n        /* \"#utility.yul\":10777:10786   */\n      0x00\n        /* \"#utility.yul\":10810:10863   */\n      tag_197\n        /* \"#utility.yul\":10828:10862   */\n      tag_198\n        /* \"#utility.yul\":10837:10861   */\n      tag_199\n        /* \"#utility.yul\":10855:10860   */\n      dup5\n        /* \"#utility.yul\":10837:10861   */\n      tag_52\n      jump\t// in\n    tag_199:\n        /* \"#utility.yul\":10828:10862   */\n      tag_74\n      jump\t// in\n    tag_198:\n        /* \"#utility.yul\":10810:10863   */\n      tag_52\n      jump\t// in\n    tag_197:\n        /* \"#utility.yul\":10797:10863   */\n      swap1\n      pop\n        /* \"#utility.yul\":10727:10869   */\n      swap2\n      swap1\n      pop\n      jump\t// out\n        /* \"#utility.yul\":10875:10950   */\n    tag_76:\n        /* \"#utility.yul\":10918:10921   */\n      0x00\n        /* \"#utility.yul\":10939:10944   */\n      dup2\n        /* \"#utility.yul\":10932:10944   */\n      swap1\n      pop\n        /* \"#utility.yul\":10875:10950   */\n      swap2\n      swap1\n      pop\n      jump\t// out\n        /* \"#utility.yul\":10956:11225   */\n    tag_77:\n        /* \"#utility.yul\":11066:11105   */\n      tag_202\n        /* \"#utility.yul\":11097:11104   */\n      dup4\n        /* \"#utility.yul\":11066:11105   */\n      tag_75\n      jump\t// in\n    tag_202:\n        /* \"#utility.yul\":11127:11218   */\n      tag_203\n        /* \"#utility.yul\":11176:11217   */\n      tag_204\n        /* \"#utility.yul\":11200:11216   */\n      dup3\n        /* \"#utility.yul\":11176:11217   */\n      tag_76\n      jump\t// in\n    tag_204:\n        /* \"#utility.yul\":11168:11174   */\n      dup5\n        /* \"#utility.yul\":11161:11165   */\n      dup5\n        /* \"#utility.yul\":11155:11166   */\n      sload\n        /* \"#utility.yul\":11127:11218   */\n      tag_73\n      jump\t// in\n    tag_203:\n        /* \"#utility.yul\":11121:11125   */\n      dup3\n        /* \"#utility.yul\":11114:11219   */\n      sstore\n        /* \"#utility.yul\":11032:11225   */\n      pop\n        /* \"#utility.yul\":10956:11225   */\n      pop\n      pop\n      pop\n      jump\t// out\n        /* \"#utility.yul\":11231:11304   */\n    tag_78:\n        /* \"#utility.yul\":11276:11279   */\n      0x00\n        /* \"#utility.yul\":11231:11304   */\n      swap1\n      jump\t// out\n        /* \"#utility.yul\":11310:11499   */\n    tag_79:\n        /* \"#utility.yul\":11387:11419   */\n      tag_207\n      tag_78\n      jump\t// in\n    tag_207:\n        /* \"#utility.yul\":11428:11493   */\n      tag_208\n        /* \"#utility.yul\":11486:11492   */\n      dup2\n        /* \"#utility.yul\":11478:11484   */\n      dup5\n        /* \"#utility.yul\":11472:11476   */\n      dup5\n        /* \"#utility.yul\":11428:11493   */\n      tag_77\n      jump\t// in\n    tag_208:\n        /* \"#utility.yul\":11363:11499   */\n      pop\n        /* \"#utility.yul\":11310:11499   */\n      pop\n      pop\n      jump\t// out\n        /* \"#utility.yul\":11505:11691   */\n    tag_80:\n        /* \"#utility.yul\":11565:11685   */\n    tag_210:\n        /* \"#utility.yul\":11582:11585   */\n      dup2\n        /* \"#utility.yul\":11575:11580   */\n      dup2\n        /* \"#utility.yul\":11572:11586   */\n      lt\n        /* \"#utility.yul\":11565:11685   */\n      iszero\n      tag_212\n      jumpi\n        /* \"#utility.yul\":11636:11675   */\n      tag_213\n        /* \"#utility.yul\":11673:11674   */\n      0x00\n        /* \"#utility.yul\":11666:11671   */\n      dup3\n        /* \"#utility.yul\":11636:11675   */\n      tag_79\n      jump\t// in\n    tag_213:\n        /* \"#utility.yul\":11609:11610   */\n      0x01\n        /* \"#utility.yul\":11602:11607   */\n      dup2\n        /* \"#utility.yul\":11598:11611   */\n      add\n        /* \"#utility.yul\":11589:11611   */\n      swap1\n      pop\n        /* \"#utility.yul\":11565:11685   */\n      jump(tag_210)\n    tag_212:\n        /* \"#utility.yul\":11505:11691   */\n      pop\n      pop\n      jump\t// out\n        /* \"#utility.yul\":11697:12240   */\n    tag_81:\n        /* \"#utility.yul\":11798:11800   */\n      0x1f\n        /* \"#utility.yul\":11793:11796   */\n      dup3\n        /* \"#utility.yul\":11790:11801   */\n      gt\n        /* \"#utility.yul\":11787:12233   */\n      iszero\n      tag_215\n      jumpi\n        /* \"#utility.yul\":11832:11870   */\n      tag_216\n        /* \"#utility.yul\":11864:11869   */\n      dup2\n        /* \"#utility.yul\":11832:11870   */\n      tag_70\n      jump\t// in\n    tag_216:\n        /* \"#utility.yul\":11916:11945   */\n      tag_217\n        /* \"#utility.yul\":11934:11944   */\n      dup5\n        /* \"#utility.yul\":11916:11945   */\n      tag_71\n      jump\t// in\n    tag_217:\n        /* \"#utility.yul\":11906:11914   */\n      dup2\n        /* \"#utility.yul\":11902:11946   */\n      add\n        /* \"#utility.yul\":12099:12101   */\n      0x20\n        /* \"#utility.yul\":12087:12097   */\n      dup6\n        /* \"#utility.yul\":12084:12102   */\n      lt\n        /* \"#utility.yul\":12081:12130   */\n      iszero\n      tag_218\n      jumpi\n        /* \"#utility.yul\":12120:12128   */\n      dup2\n        /* \"#utility.yul\":12105:12128   */\n      swap1\n      pop\n        /* \"#utility.yul\":12081:12130   */\n    tag_218:\n        /* \"#utility.yul\":12143:12223   */\n      tag_219\n        /* \"#utility.yul\":12199:12221   */\n      tag_220\n        /* \"#utility.yul\":12217:12220   */\n      dup6\n        /* \"#utility.yul\":12199:12221   */\n      tag_71\n      jump\t// in\n    tag_220:\n        /* \"#utility.yul\":12189:12197   */\n      dup4\n        /* \"#utility.yul\":12185:12222   */\n      add\n        /* \"#utility.yul\":12172:12183   */\n      dup3\n        /* \"#utility.yul\":12143:12223   */\n      tag_80\n      jump\t// in\n    tag_219:\n        /* \"#utility.yul\":11802:12233   */\n      pop\n      pop\n        /* \"#utility.yul\":11787:12233   */\n    tag_215:\n        /* \"#utility.yul\":11697:12240   */\n      pop\n      pop\n      pop\n      jump\t// out\n        /* \"#utility.yul\":12246:12363   */\n    tag_82:\n        /* \"#utility.yul\":12300:12308   */\n      0x00\n        /* \"#utility.yul\":12350:12355   */\n      dup3\n        /* \"#utility.yul\":12344:12348   */\n      dup3\n        /* \"#utility.yul\":12340:12356   */\n      shr\n        /* \"#utility.yul\":12319:12356   */\n      swap1\n      pop\n        /* \"#utility.yul\":12246:12363   */\n      swap3\n      swap2\n      pop\n      pop\n      jump\t// out\n        /* \"#utility.yul\":12369:12538   */\n    tag_83:\n        /* \"#utility.yul\":12413:12419   */\n      0x00\n        /* \"#utility.yul\":12446:12497   */\n      tag_223\n        /* \"#utility.yul\":12494:12495   */\n      0x00\n        /* \"#utility.yul\":12490:12496   */\n      not\n        /* \"#utility.yul\":12482:12487   */\n      dup5\n        /* \"#utility.yul\":12479:12480   */\n      0x08\n        /* \"#utility.yul\":12475:12488   */\n      mul\n        /* \"#utility.yul\":12446:12497   */\n      tag_82\n      jump\t// in\n    tag_223:\n        /* \"#utility.yul\":12442:12498   */\n      not\n        /* \"#utility.yul\":12527:12531   */\n      dup1\n        /* \"#utility.yul\":12521:12525   */\n      dup4\n        /* \"#utility.yul\":12517:12532   */\n      and\n        /* \"#utility.yul\":12507:12532   */\n      swap2\n      pop\n        /* \"#utility.yul\":12420:12538   */\n      pop\n        /* \"#utility.yul\":12369:12538   */\n      swap3\n      swap2\n      pop\n      pop\n      jump\t// out\n        /* \"#utility.yul\":12543:12838   */\n    tag_84:\n        /* \"#utility.yul\":12619:12623   */\n      0x00\n        /* \"#utility.yul\":12765:12794   */\n      tag_225\n        /* \"#utility.yul\":12790:12793   */\n      dup4\n        /* \"#utility.yul\":12784:12788   */\n      dup4\n        /* \"#utility.yul\":12765:12794   */\n      tag_83\n      jump\t// in\n    tag_225:\n        /* \"#utility.yul\":12757:12794   */\n      swap2\n      pop\n        /* \"#utility.yul\":12827:12830   */\n      dup3\n        /* \"#utility.yul\":12824:12825   */\n      0x02\n        /* \"#utility.yul\":12820:12831   */\n      mul\n        /* \"#utility.yul\":12814:12818   */\n      dup3\n        /* \"#utility.yul\":12811:12832   */\n      or\n        /* \"#utility.yul\":12803:12832   */\n      swap1\n      pop\n        /* \"#utility.yul\":12543:12838   */\n      swap3\n      swap2\n      pop\n      pop\n      jump\t// out\n        /* \"#utility.yul\":12843:14238   */\n    tag_30:\n        /* \"#utility.yul\":12960:12997   */\n      tag_227\n        /* \"#utility.yul\":12993:12996   */\n      dup3\n        /* \"#utility.yul\":12960:12997   */\n      tag_58\n      jump\t// in\n    tag_227:\n        /* \"#utility.yul\":13062:13080   */\n      0xffffffffffffffff\n        /* \"#utility.yul\":13054:13060   */\n      dup2\n        /* \"#utility.yul\":13051:13081   */\n      gt\n        /* \"#utility.yul\":13048:13104   */\n      iszero\n      tag_228\n      jumpi\n        /* \"#utility.yul\":13084:13102   */\n      tag_229\n      tag_45\n      jump\t// in\n    tag_229:\n        /* \"#utility.yul\":13048:13104   */\n    tag_228:\n        /* \"#utility.yul\":13128:13166   */\n      tag_230\n        /* \"#utility.yul\":13160:13164   */\n      dup3\n        /* \"#utility.yul\":13154:13165   */\n      sload\n        /* \"#utility.yul\":13128:13166   */\n      tag_34\n      jump\t// in\n    tag_230:\n        /* \"#utility.yul\":13213:13280   */\n      tag_231\n        /* \"#utility.yul\":13273:13279   */\n      dup3\n        /* \"#utility.yul\":13265:13271   */\n      dup3\n        /* \"#utility.yul\":13259:13263   */\n      dup6\n        /* \"#utility.yul\":13213:13280   */\n      tag_81\n      jump\t// in\n    tag_231:\n        /* \"#utility.yul\":13307:13308   */\n      0x00\n        /* \"#utility.yul\":13331:13335   */\n      0x20\n        /* \"#utility.yul\":13318:13335   */\n      swap1\n      pop\n        /* \"#utility.yul\":13363:13365   */\n      0x1f\n        /* \"#utility.yul\":13355:13361   */\n      dup4\n        /* \"#utility.yul\":13352:13366   */\n      gt\n        /* \"#utility.yul\":13380:13381   */\n      0x01\n        /* \"#utility.yul\":13375:13993   */\n      dup2\n      eq\n      tag_233\n      jumpi\n        /* \"#utility.yul\":14037:14038   */\n      0x00\n        /* \"#utility.yul\":14054:14060   */\n      dup5\n        /* \"#utility.yul\":14051:14128   */\n      iszero\n      tag_234\n      jumpi\n        /* \"#utility.yul\":14103:14112   */\n      dup3\n        /* \"#utility.yul\":14098:14101   */\n      dup8\n        /* \"#utility.yul\":14094:14113   */\n      add\n        /* \"#utility.yul\":14088:14114   */\n      mload\n        /* \"#utility.yul\":14079:14114   */\n      swap1\n      pop\n        /* \"#utility.yul\":14051:14128   */\n    tag_234:\n        /* \"#utility.yul\":14154:14221   */\n      tag_235\n        /* \"#utility.yul\":14214:14220   */\n      dup6\n        /* \"#utility.yul\":14207:14212   */\n      dup3\n        /* \"#utility.yul\":14154:14221   */\n      tag_84\n      jump\t// in\n    tag_235:\n        /* \"#utility.yul\":14148:14152   */\n      dup7\n        /* \"#utility.yul\":14141:14222   */\n      sstore\n        /* \"#utility.yul\":14010:14232   */\n      pop\n        /* \"#utility.yul\":13345:14232   */\n      jump(tag_232)\n        /* \"#utility.yul\":13375:13993   */\n    tag_233:\n        /* \"#utility.yul\":13427:13431   */\n      0x1f\n        /* \"#utility.yul\":13423:13432   */\n      not\n        /* \"#utility.yul\":13415:13421   */\n      dup5\n        /* \"#utility.yul\":13411:13433   */\n      and\n        /* \"#utility.yul\":13461:13498   */\n      tag_236\n        /* \"#utility.yul\":13493:13497   */\n      dup7\n        /* \"#utility.yul\":13461:13498   */\n      tag_70\n      jump\t// in\n    tag_236:\n        /* \"#utility.yul\":13520:13521   */\n      0x00\n        /* \"#utility.yul\":13534:13742   */\n    tag_237:\n        /* \"#utility.yul\":13548:13555   */\n      dup3\n        /* \"#utility.yul\":13545:13546   */\n      dup2\n        /* \"#utility.yul\":13542:13556   */\n      lt\n        /* \"#utility.yul\":13534:13742   */\n      iszero\n      tag_239\n      jumpi\n        /* \"#utility.yul\":13627:13636   */\n      dup5\n        /* \"#utility.yul\":13622:13625   */\n      dup10\n        /* \"#utility.yul\":13618:13637   */\n      add\n        /* \"#utility.yul\":13612:13638   */\n      mload\n        /* \"#utility.yul\":13604:13610   */\n      dup3\n        /* \"#utility.yul\":13597:13639   */\n      sstore\n        /* \"#utility.yul\":13678:13679   */\n      0x01\n        /* \"#utility.yul\":13670:13676   */\n      dup3\n        /* \"#utility.yul\":13666:13680   */\n      add\n        /* \"#utility.yul\":13656:13680   */\n      swap2\n      pop\n        /* \"#utility.yul\":13725:13727   */\n      0x20\n        /* \"#utility.yul\":13714:13723   */\n      dup6\n        /* \"#utility.yul\":13710:13728   */\n      add\n        /* \"#utility.yul\":13697:13728   */\n      swap5\n      pop\n        /* \"#utility.yul\":13571:13575   */\n      0x20\n        /* \"#utility.yul\":13568:13569   */\n      dup2\n        /* \"#utility.yul\":13564:13576   */\n      add\n        /* \"#utility.yul\":13559:13576   */\n      swap1\n      pop\n        /* \"#utility.yul\":13534:13742   */\n      jump(tag_237)\n    tag_239:\n        /* \"#utility.yul\":13770:13776   */\n      dup7\n        /* \"#utility.yul\":13761:13768   */\n      dup4\n        /* \"#utility.yul\":13758:13777   */\n      lt\n        /* \"#utility.yul\":13755:13934   */\n      iszero\n      tag_240\n      jumpi\n        /* \"#utility.yul\":13828:13837   */\n      dup5\n        /* \"#utility.yul\":13823:13826   */\n      dup10\n        /* \"#utility.yul\":13819:13838   */\n      add\n        /* \"#utility.yul\":13813:13839   */\n      mload\n        /* \"#utility.yul\":13871:13919   */\n      tag_241\n        /* \"#utility.yul\":13913:13917   */\n      0x1f\n        /* \"#utility.yul\":13905:13911   */\n      dup10\n        /* \"#utility.yul\":13901:13918   */\n      and\n        /* \"#utility.yul\":13890:13899   */\n      dup3\n        /* \"#utility.yul\":13871:13919   */\n      tag_83\n      jump\t// in\n    tag_241:\n        /* \"#utility.yul\":13863:13869   */\n      dup4\n        /* \"#utility.yul\":13856:13920   */\n      sstore\n        /* \"#utility.yul\":13778:13934   */\n      pop\n        /* \"#utility.yul\":13755:13934   */\n    tag_240:\n        /* \"#utility.yul\":13980:13981   */\n      0x01\n        /* \"#utility.yul\":13976:13977   */\n      0x02\n        /* \"#utility.yul\":13968:13974   */\n      dup9\n        /* \"#utility.yul\":13964:13978   */\n      mul\n        /* \"#utility.yul\":13960:13982   */\n      add\n        /* \"#utility.yul\":13954:13958   */\n      dup9\n        /* \"#utility.yul\":13947:13983   */\n      sstore\n        /* \"#utility.yul\":13382:13993   */\n      pop\n      pop\n      pop\n        /* \"#utility.yul\":13345:14232   */\n    tag_232:\n      pop\n        /* \"#utility.yul\":12935:14238   */\n      pop\n      pop\n      pop\n        /* \"#utility.yul\":12843:14238   */\n      pop\n      pop\n      jump\t// out\n        /* \"#utility.yul\":14244:14424   */\n    tag_85:\n        /* \"#utility.yul\":14292:14369   */\n      0x4e487b7100000000000000000000000000000000000000000000000000000000\n        /* \"#utility.yul\":14289:14290   */\n      0x00\n        /* \"#utility.yul\":14282:14370   */\n      mstore\n        /* \"#utility.yul\":14389:14393   */\n      0x11\n        /* \"#utility.yul\":14386:14387   */\n      0x04\n        /* \"#utility.yul\":14379:14394   */\n      mstore\n        /* \"#utility.yul\":14413:14417   */\n      0x24\n        /* \"#utility.yul\":14410:14411   */\n      0x00\n        /* \"#utility.yul\":14403:14418   */\n      revert\n        /* \"#utility.yul\":14430:14663   */\n    tag_32:\n        /* \"#utility.yul\":14469:14472   */\n      0x00\n        /* \"#utility.yul\":14492:14516   */\n      tag_244\n        /* \"#utility.yul\":14510:14515   */\n      dup3\n        /* \"#utility.yul\":14492:14516   */\n      tag_52\n      jump\t// in\n    tag_244:\n        /* \"#utility.yul\":14483:14516   */\n      swap2\n      pop\n        /* \"#utility.yul\":14538:14604   */\n      0xffffffffffffffffffffffffffffffffffffffffffffffffffffffffffffffff\n        /* \"#utility.yul\":14531:14536   */\n      dup3\n        /* \"#utility.yul\":14528:14605   */\n      sub\n        /* \"#utility.yul\":14525:14628   */\n      tag_245\n      jumpi\n        /* \"#utility.yul\":14608:14626   */\n      tag_246\n      tag_85\n      jump\t// in\n    tag_246:\n        /* \"#utility.yul\":14525:14628   */\n    tag_245:\n        /* \"#utility.yul\":14655:14656   */\n      0x01\n        /* \"#utility.yul\":14648:14653   */\n      dup3\n        /* \"#utility.yul\":14644:14657   */\n      add\n        /* \"#utility.yul\":14637:14657   */\n      swap1\n      pop\n        /* \"#utility.yul\":14430:14663   */\n      swap2\n      swap1\n      pop\n      jump\t// out\n\n    auxdata: 0xa2646970667358221220b7d802400d684acd4136d0ffa93d5b3324d2e4fd2f5a20c4c6e2639a86b509e664736f6c63430008110033\n}\n",
				"bytecode": {
					"linkReferences": {},
					"object": "608060405234801561001057600080fd5b50610bb3806100206000396000f3fe608060405234801561001057600080fd5b50600436106100415760003560e01c80630374ab0b146100465780630b79143014610062578063e11bb64d14610097575b600080fd5b610060600480360381019061005b91906104e2565b6100c7565b005b61007c60048036038101906100779190610565565b610249565b60405161008e96959493929190610661565b60405180910390f35b6100b160048036038101906100ac91906106f5565b61032d565b6040516100be9190610735565b60405180910390f35b428311610109576040517f08c379a00000000000000000000000000000000000000000000000000000000081526004016101009061079c565b60405180910390fd5b6000811161014c576040517f08c379a000000000000000000000000000000000000000000000000000000000815260040161014390610808565b60405180910390fd5b6040518060c001604052803373ffffffffffffffffffffffffffffffffffffffff16815260200185815260200184815260200183815260200182815260200182815250600080600254815260200190815260200160002060008201518160000160006101000a81548173ffffffffffffffffffffffffffffffffffffffff021916908373ffffffffffffffffffffffffffffffffffffffff16021790555060208201518160010190816101ff9190610a34565b5060408201518160020155606082015181600301556080820151816004015560a082015181600501559050506002600081548092919061023e90610b35565b919050555050505050565b60006020528060005260406000206000915090508060000160009054906101000a900473ffffffffffffffffffffffffffffffffffffffff169080600101805461029290610857565b80601f01602080910402602001604051908101604052809291908181526020018280546102be90610857565b801561030b5780601f106102e05761010080835404028352916020019161030b565b820191906000526020600020905b8154815290600101906020018083116102ee57829003601f168201915b5050505050908060020154908060030154908060040154908060050154905086565b6001602052816000526040600020602052806000526040600020600091509150505481565b6000604051905090565b600080fd5b600080fd5b600080fd5b600080fd5b6000601f19601f8301169050919050565b7f4e487b7100000000000000000000000000000000000000000000000000000000600052604160045260246000fd5b6103b982610370565b810181811067ffffffffffffffff821117156103d8576103d7610381565b5b80604052505050565b60006103eb610352565b90506103f782826103b0565b919050565b600067ffffffffffffffff82111561041757610416610381565b5b61042082610370565b9050602081019050919050565b82818337600083830152505050565b600061044f61044a846103fc565b6103e1565b90508281526020810184848401111561046b5761046a61036b565b5b61047684828561042d565b509392505050565b600082601f83011261049357610492610366565b5b81356104a384826020860161043c565b91505092915050565b6000819050919050565b6104bf816104ac565b81146104ca57600080fd5b50565b6000813590506104dc816104b6565b92915050565b600080600080608085870312156104fc576104fb61035c565b5b600085013567ffffffffffffffff81111561051a57610519610361565b5b6105268782880161047e565b9450506020610537878288016104cd565b9350506040610548878288016104cd565b9250506060610559878288016104cd565b91505092959194509250565b60006020828403121561057b5761057a61035c565b5b6000610589848285016104cd565b91505092915050565b600073ffffffffffffffffffffffffffffffffffffffff82169050919050565b60006105bd82610592565b9050919050565b6105cd816105b2565b82525050565b600081519050919050565b600082825260208201905092915050565b60005b8381101561060d5780820151818401526020810190506105f2565b60008484015250505050565b6000610624826105d3565b61062e81856105de565b935061063e8185602086016105ef565b61064781610370565b840191505092915050565b61065b816104ac565b82525050565b600060c08201905061067660008301896105c4565b81810360208301526106888188610619565b90506106976040830187610652565b6106a46060830186610652565b6106b16080830185610652565b6106be60a0830184610652565b979650505050505050565b6106d2816105b2565b81146106dd57600080fd5b50565b6000813590506106ef816106c9565b92915050565b6000806040838503121561070c5761070b61035c565b5b600061071a858286016106e0565b925050602061072b858286016104cd565b9150509250929050565b600060208201905061074a6000830184610652565b92915050565b7f546865204576656e7420686173206f7665720000000000000000000000000000600082015250565b60006107866012836105de565b915061079182610750565b602082019050919050565b600060208201905081810360008301526107b581610779565b9050919050565b7f796f752063616e2052756e20746865204576656e747300000000000000000000600082015250565b60006107f26016836105de565b91506107fd826107bc565b602082019050919050565b60006020820190508181036000830152610821816107e5565b9050919050565b7f4e487b7100000000000000000000000000000000000000000000000000000000600052602260045260246000fd5b6000600282049050600182168061086f57607f821691505b60208210810361088257610881610828565b5b50919050565b60008190508160005260206000209050919050565b60006020601f8301049050919050565b600082821b905092915050565b6000600883026108ea7fffffffffffffffffffffffffffffffffffffffffffffffffffffffffffffffff826108ad565b6108f486836108ad565b95508019841693508086168417925050509392505050565b6000819050919050565b600061093161092c610927846104ac565b61090c565b6104ac565b9050919050565b6000819050919050565b61094b83610916565b61095f61095782610938565b8484546108ba565b825550505050565b600090565b610974610967565b61097f818484610942565b505050565b5b818110156109a35761099860008261096c565b600181019050610985565b5050565b601f8211156109e8576109b981610888565b6109c28461089d565b810160208510156109d1578190505b6109e56109dd8561089d565b830182610984565b50505b505050565b600082821c905092915050565b6000610a0b600019846008026109ed565b1980831691505092915050565b6000610a2483836109fa565b9150826002028217905092915050565b610a3d826105d3565b67ffffffffffffffff811115610a5657610a55610381565b5b610a608254610857565b610a6b8282856109a7565b600060209050601f831160018114610a9e5760008415610a8c578287015190505b610a968582610a18565b865550610afe565b601f198416610aac86610888565b60005b82811015610ad457848901518255600182019150602085019450602081019050610aaf565b86831015610af15784890151610aed601f8916826109fa565b8355505b6001600288020188555050505b505050505050565b7f4e487b7100000000000000000000000000000000000000000000000000000000600052601160045260246000fd5b6000610b40826104ac565b91507fffffffffffffffffffffffffffffffffffffffffffffffffffffffffffffffff8203610b7257610b71610b06565b5b60018201905091905056fea2646970667358221220b7d802400d684acd4136d0ffa93d5b3324d2e4fd2f5a20c4c6e2639a86b509e664736f6c63430008110033",
					"opcodes": "PUSH1 0x80 PUSH1 0x40 MSTORE CALLVALUE DUP1 ISZERO PUSH2 0x10 JUMPI PUSH1 0x0 DUP1 REVERT JUMPDEST POP PUSH2 0xBB3 DUP1 PUSH2 0x20 PUSH1 0x0 CODECOPY PUSH1 0x0 RETURN INVALID PUSH1 0x80 PUSH1 0x40 MSTORE CALLVALUE DUP1 ISZERO PUSH2 0x10 JUMPI PUSH1 0x0 DUP1 REVERT JUMPDEST POP PUSH1 0x4 CALLDATASIZE LT PUSH2 0x41 JUMPI PUSH1 0x0 CALLDATALOAD PUSH1 0xE0 SHR DUP1 PUSH4 0x374AB0B EQ PUSH2 0x46 JUMPI DUP1 PUSH4 0xB791430 EQ PUSH2 0x62 JUMPI DUP1 PUSH4 0xE11BB64D EQ PUSH2 0x97 JUMPI JUMPDEST PUSH1 0x0 DUP1 REVERT JUMPDEST PUSH2 0x60 PUSH1 0x4 DUP1 CALLDATASIZE SUB DUP2 ADD SWAP1 PUSH2 0x5B SWAP2 SWAP1 PUSH2 0x4E2 JUMP JUMPDEST PUSH2 0xC7 JUMP JUMPDEST STOP JUMPDEST PUSH2 0x7C PUSH1 0x4 DUP1 CALLDATASIZE SUB DUP2 ADD SWAP1 PUSH2 0x77 SWAP2 SWAP1 PUSH2 0x565 JUMP JUMPDEST PUSH2 0x249 JUMP JUMPDEST PUSH1 0x40 MLOAD PUSH2 0x8E SWAP7 SWAP6 SWAP5 SWAP4 SWAP3 SWAP2 SWAP1 PUSH2 0x661 JUMP JUMPDEST PUSH1 0x40 MLOAD DUP1 SWAP2 SUB SWAP1 RETURN JUMPDEST PUSH2 0xB1 PUSH1 0x4 DUP1 CALLDATASIZE SUB DUP2 ADD SWAP1 PUSH2 0xAC SWAP2 SWAP1 PUSH2 0x6F5 JUMP JUMPDEST PUSH2 0x32D JUMP JUMPDEST PUSH1 0x40 MLOAD PUSH2 0xBE SWAP2 SWAP1 PUSH2 0x735 JUMP JUMPDEST PUSH1 0x40 MLOAD DUP1 SWAP2 SUB SWAP1 RETURN JUMPDEST TIMESTAMP DUP4 GT PUSH2 0x109 JUMPI PUSH1 0x40 MLOAD PUSH32 0x8C379A000000000000000000000000000000000000000000000000000000000 DUP2 MSTORE PUSH1 0x4 ADD PUSH2 0x100 SWAP1 PUSH2 0x79C JUMP JUMPDEST PUSH1 0x40 MLOAD DUP1 SWAP2 SUB SWAP1 REVERT JUMPDEST PUSH1 0x0 DUP2 GT PUSH2 0x14C JUMPI PUSH1 0x40 MLOAD PUSH32 0x8C379A000000000000000000000000000000000000000000000000000000000 DUP2 MSTORE PUSH1 0x4 ADD PUSH2 0x143 SWAP1 PUSH2 0x808 JUMP JUMPDEST PUSH1 0x40 MLOAD DUP1 SWAP2 SUB SWAP1 REVERT JUMPDEST PUSH1 0x40 MLOAD DUP1 PUSH1 0xC0 ADD PUSH1 0x40 MSTORE DUP1 CALLER PUSH20 0xFFFFFFFFFFFFFFFFFFFFFFFFFFFFFFFFFFFFFFFF AND DUP2 MSTORE PUSH1 0x20 ADD DUP6 DUP2 MSTORE PUSH1 0x20 ADD DUP5 DUP2 MSTORE PUSH1 0x20 ADD DUP4 DUP2 MSTORE PUSH1 0x20 ADD DUP3 DUP2 MSTORE PUSH1 0x20 ADD DUP3 DUP2 MSTORE POP PUSH1 0x0 DUP1 PUSH1 0x2 SLOAD DUP2 MSTORE PUSH1 0x20 ADD SWAP1 DUP2 MSTORE PUSH1 0x20 ADD PUSH1 0x0 KECCAK256 PUSH1 0x0 DUP3 ADD MLOAD DUP2 PUSH1 0x0 ADD PUSH1 0x0 PUSH2 0x100 EXP DUP2 SLOAD DUP2 PUSH20 0xFFFFFFFFFFFFFFFFFFFFFFFFFFFFFFFFFFFFFFFF MUL NOT AND SWAP1 DUP4 PUSH20 0xFFFFFFFFFFFFFFFFFFFFFFFFFFFFFFFFFFFFFFFF AND MUL OR SWAP1 SSTORE POP PUSH1 0x20 DUP3 ADD MLOAD DUP2 PUSH1 0x1 ADD SWAP1 DUP2 PUSH2 0x1FF SWAP2 SWAP1 PUSH2 0xA34 JUMP JUMPDEST POP PUSH1 0x40 DUP3 ADD MLOAD DUP2 PUSH1 0x2 ADD SSTORE PUSH1 0x60 DUP3 ADD MLOAD DUP2 PUSH1 0x3 ADD SSTORE PUSH1 0x80 DUP3 ADD MLOAD DUP2 PUSH1 0x4 ADD SSTORE PUSH1 0xA0 DUP3 ADD MLOAD DUP2 PUSH1 0x5 ADD SSTORE SWAP1 POP POP PUSH1 0x2 PUSH1 0x0 DUP2 SLOAD DUP1 SWAP3 SWAP2 SWAP1 PUSH2 0x23E SWAP1 PUSH2 0xB35 JUMP JUMPDEST SWAP2 SWAP1 POP SSTORE POP POP POP POP POP JUMP JUMPDEST PUSH1 0x0 PUSH1 0x20 MSTORE DUP1 PUSH1 0x0 MSTORE PUSH1 0x40 PUSH1 0x0 KECCAK256 PUSH1 0x0 SWAP2 POP SWAP1 POP DUP1 PUSH1 0x0 ADD PUSH1 0x0 SWAP1 SLOAD SWAP1 PUSH2 0x100 EXP SWAP1 DIV PUSH20 0xFFFFFFFFFFFFFFFFFFFFFFFFFFFFFFFFFFFFFFFF AND SWAP1 DUP1 PUSH1 0x1 ADD DUP1 SLOAD PUSH2 0x292 SWAP1 PUSH2 0x857 JUMP JUMPDEST DUP1 PUSH1 0x1F ADD PUSH1 0x20 DUP1 SWAP2 DIV MUL PUSH1 0x20 ADD PUSH1 0x40 MLOAD SWAP1 DUP2 ADD PUSH1 0x40 MSTORE DUP1 SWAP3 SWAP2 SWAP1 DUP2 DUP2 MSTORE PUSH1 0x20 ADD DUP3 DUP1 SLOAD PUSH2 0x2BE SWAP1 PUSH2 0x857 JUMP JUMPDEST DUP1 ISZERO PUSH2 0x30B JUMPI DUP1 PUSH1 0x1F LT PUSH2 0x2E0 JUMPI PUSH2 0x100 DUP1 DUP4 SLOAD DIV MUL DUP4 MSTORE SWAP2 PUSH1 0x20 ADD SWAP2 PUSH2 0x30B JUMP JUMPDEST DUP3 ADD SWAP2 SWAP1 PUSH1 0x0 MSTORE PUSH1 0x20 PUSH1 0x0 KECCAK256 SWAP1 JUMPDEST DUP2 SLOAD DUP2 MSTORE SWAP1 PUSH1 0x1 ADD SWAP1 PUSH1 0x20 ADD DUP1 DUP4 GT PUSH2 0x2EE JUMPI DUP3 SWAP1 SUB PUSH1 0x1F AND DUP3 ADD SWAP2 JUMPDEST POP POP POP POP POP SWAP1 DUP1 PUSH1 0x2 ADD SLOAD SWAP1 DUP1 PUSH1 0x3 ADD SLOAD SWAP1 DUP1 PUSH1 0x4 ADD SLOAD SWAP1 DUP1 PUSH1 0x5 ADD SLOAD SWAP1 POP DUP7 JUMP JUMPDEST PUSH1 0x1 PUSH1 0x20 MSTORE DUP2 PUSH1 0x0 MSTORE PUSH1 0x40 PUSH1 0x0 KECCAK256 PUSH1 0x20 MSTORE DUP1 PUSH1 0x0 MSTORE PUSH1 0x40 PUSH1 0x0 KECCAK256 PUSH1 0x0 SWAP2 POP SWAP2 POP POP SLOAD DUP2 JUMP JUMPDEST PUSH1 0x0 PUSH1 0x40 MLOAD SWAP1 POP SWAP1 JUMP JUMPDEST PUSH1 0x0 DUP1 REVERT JUMPDEST PUSH1 0x0 DUP1 REVERT JUMPDEST PUSH1 0x0 DUP1 REVERT JUMPDEST PUSH1 0x0 DUP1 REVERT JUMPDEST PUSH1 0x0 PUSH1 0x1F NOT PUSH1 0x1F DUP4 ADD AND SWAP1 POP SWAP2 SWAP1 POP JUMP JUMPDEST PUSH32 0x4E487B7100000000000000000000000000000000000000000000000000000000 PUSH1 0x0 MSTORE PUSH1 0x41 PUSH1 0x4 MSTORE PUSH1 0x24 PUSH1 0x0 REVERT JUMPDEST PUSH2 0x3B9 DUP3 PUSH2 0x370 JUMP JUMPDEST DUP2 ADD DUP2 DUP2 LT PUSH8 0xFFFFFFFFFFFFFFFF DUP3 GT OR ISZERO PUSH2 0x3D8 JUMPI PUSH2 0x3D7 PUSH2 0x381 JUMP JUMPDEST JUMPDEST DUP1 PUSH1 0x40 MSTORE POP POP POP JUMP JUMPDEST PUSH1 0x0 PUSH2 0x3EB PUSH2 0x352 JUMP JUMPDEST SWAP1 POP PUSH2 0x3F7 DUP3 DUP3 PUSH2 0x3B0 JUMP JUMPDEST SWAP2 SWAP1 POP JUMP JUMPDEST PUSH1 0x0 PUSH8 0xFFFFFFFFFFFFFFFF DUP3 GT ISZERO PUSH2 0x417 JUMPI PUSH2 0x416 PUSH2 0x381 JUMP JUMPDEST JUMPDEST PUSH2 0x420 DUP3 PUSH2 0x370 JUMP JUMPDEST SWAP1 POP PUSH1 0x20 DUP2 ADD SWAP1 POP SWAP2 SWAP1 POP JUMP JUMPDEST DUP3 DUP2 DUP4 CALLDATACOPY PUSH1 0x0 DUP4 DUP4 ADD MSTORE POP POP POP JUMP JUMPDEST PUSH1 0x0 PUSH2 0x44F PUSH2 0x44A DUP5 PUSH2 0x3FC JUMP JUMPDEST PUSH2 0x3E1 JUMP JUMPDEST SWAP1 POP DUP3 DUP2 MSTORE PUSH1 0x20 DUP2 ADD DUP5 DUP5 DUP5 ADD GT ISZERO PUSH2 0x46B JUMPI PUSH2 0x46A PUSH2 0x36B JUMP JUMPDEST JUMPDEST PUSH2 0x476 DUP5 DUP3 DUP6 PUSH2 0x42D JUMP JUMPDEST POP SWAP4 SWAP3 POP POP POP JUMP JUMPDEST PUSH1 0x0 DUP3 PUSH1 0x1F DUP4 ADD SLT PUSH2 0x493 JUMPI PUSH2 0x492 PUSH2 0x366 JUMP JUMPDEST JUMPDEST DUP2 CALLDATALOAD PUSH2 0x4A3 DUP5 DUP3 PUSH1 0x20 DUP7 ADD PUSH2 0x43C JUMP JUMPDEST SWAP2 POP POP SWAP3 SWAP2 POP POP JUMP JUMPDEST PUSH1 0x0 DUP2 SWAP1 POP SWAP2 SWAP1 POP JUMP JUMPDEST PUSH2 0x4BF DUP2 PUSH2 0x4AC JUMP JUMPDEST DUP2 EQ PUSH2 0x4CA JUMPI PUSH1 0x0 DUP1 REVERT JUMPDEST POP JUMP JUMPDEST PUSH1 0x0 DUP2 CALLDATALOAD SWAP1 POP PUSH2 0x4DC DUP2 PUSH2 0x4B6 JUMP JUMPDEST SWAP3 SWAP2 POP POP JUMP JUMPDEST PUSH1 0x0 DUP1 PUSH1 0x0 DUP1 PUSH1 0x80 DUP6 DUP8 SUB SLT ISZERO PUSH2 0x4FC JUMPI PUSH2 0x4FB PUSH2 0x35C JUMP JUMPDEST JUMPDEST PUSH1 0x0 DUP6 ADD CALLDATALOAD PUSH8 0xFFFFFFFFFFFFFFFF DUP2 GT ISZERO PUSH2 0x51A JUMPI PUSH2 0x519 PUSH2 0x361 JUMP JUMPDEST JUMPDEST PUSH2 0x526 DUP8 DUP3 DUP9 ADD PUSH2 0x47E JUMP JUMPDEST SWAP5 POP POP PUSH1 0x20 PUSH2 0x537 DUP8 DUP3 DUP9 ADD PUSH2 0x4CD JUMP JUMPDEST SWAP4 POP POP PUSH1 0x40 PUSH2 0x548 DUP8 DUP3 DUP9 ADD PUSH2 0x4CD JUMP JUMPDEST SWAP3 POP POP PUSH1 0x60 PUSH2 0x559 DUP8 DUP3 DUP9 ADD PUSH2 0x4CD JUMP JUMPDEST SWAP2 POP POP SWAP3 SWAP6 SWAP2 SWAP5 POP SWAP3 POP JUMP JUMPDEST PUSH1 0x0 PUSH1 0x20 DUP3 DUP5 SUB SLT ISZERO PUSH2 0x57B JUMPI PUSH2 0x57A PUSH2 0x35C JUMP JUMPDEST JUMPDEST PUSH1 0x0 PUSH2 0x589 DUP5 DUP3 DUP6 ADD PUSH2 0x4CD JUMP JUMPDEST SWAP2 POP POP SWAP3 SWAP2 POP POP JUMP JUMPDEST PUSH1 0x0 PUSH20 0xFFFFFFFFFFFFFFFFFFFFFFFFFFFFFFFFFFFFFFFF DUP3 AND SWAP1 POP SWAP2 SWAP1 POP JUMP JUMPDEST PUSH1 0x0 PUSH2 0x5BD DUP3 PUSH2 0x592 JUMP JUMPDEST SWAP1 POP SWAP2 SWAP1 POP JUMP JUMPDEST PUSH2 0x5CD DUP2 PUSH2 0x5B2 JUMP JUMPDEST DUP3 MSTORE POP POP JUMP JUMPDEST PUSH1 0x0 DUP2 MLOAD SWAP1 POP SWAP2 SWAP1 POP JUMP JUMPDEST PUSH1 0x0 DUP3 DUP3 MSTORE PUSH1 0x20 DUP3 ADD SWAP1 POP SWAP3 SWAP2 POP POP JUMP JUMPDEST PUSH1 0x0 JUMPDEST DUP4 DUP2 LT ISZERO PUSH2 0x60D JUMPI DUP1 DUP3 ADD MLOAD DUP2 DUP5 ADD MSTORE PUSH1 0x20 DUP2 ADD SWAP1 POP PUSH2 0x5F2 JUMP JUMPDEST PUSH1 0x0 DUP5 DUP5 ADD MSTORE POP POP POP POP JUMP JUMPDEST PUSH1 0x0 PUSH2 0x624 DUP3 PUSH2 0x5D3 JUMP JUMPDEST PUSH2 0x62E DUP2 DUP6 PUSH2 0x5DE JUMP JUMPDEST SWAP4 POP PUSH2 0x63E DUP2 DUP6 PUSH1 0x20 DUP7 ADD PUSH2 0x5EF JUMP JUMPDEST PUSH2 0x647 DUP2 PUSH2 0x370 JUMP JUMPDEST DUP5 ADD SWAP2 POP POP SWAP3 SWAP2 POP POP JUMP JUMPDEST PUSH2 0x65B DUP2 PUSH2 0x4AC JUMP JUMPDEST DUP3 MSTORE POP POP JUMP JUMPDEST PUSH1 0x0 PUSH1 0xC0 DUP3 ADD SWAP1 POP PUSH2 0x676 PUSH1 0x0 DUP4 ADD DUP10 PUSH2 0x5C4 JUMP JUMPDEST DUP2 DUP2 SUB PUSH1 0x20 DUP4 ADD MSTORE PUSH2 0x688 DUP2 DUP9 PUSH2 0x619 JUMP JUMPDEST SWAP1 POP PUSH2 0x697 PUSH1 0x40 DUP4 ADD DUP8 PUSH2 0x652 JUMP JUMPDEST PUSH2 0x6A4 PUSH1 0x60 DUP4 ADD DUP7 PUSH2 0x652 JUMP JUMPDEST PUSH2 0x6B1 PUSH1 0x80 DUP4 ADD DUP6 PUSH2 0x652 JUMP JUMPDEST PUSH2 0x6BE PUSH1 0xA0 DUP4 ADD DUP5 PUSH2 0x652 JUMP JUMPDEST SWAP8 SWAP7 POP POP POP POP POP POP POP JUMP JUMPDEST PUSH2 0x6D2 DUP2 PUSH2 0x5B2 JUMP JUMPDEST DUP2 EQ PUSH2 0x6DD JUMPI PUSH1 0x0 DUP1 REVERT JUMPDEST POP JUMP JUMPDEST PUSH1 0x0 DUP2 CALLDATALOAD SWAP1 POP PUSH2 0x6EF DUP2 PUSH2 0x6C9 JUMP JUMPDEST SWAP3 SWAP2 POP POP JUMP JUMPDEST PUSH1 0x0 DUP1 PUSH1 0x40 DUP4 DUP6 SUB SLT ISZERO PUSH2 0x70C JUMPI PUSH2 0x70B PUSH2 0x35C JUMP JUMPDEST JUMPDEST PUSH1 0x0 PUSH2 0x71A DUP6 DUP3 DUP7 ADD PUSH2 0x6E0 JUMP JUMPDEST SWAP3 POP POP PUSH1 0x20 PUSH2 0x72B DUP6 DUP3 DUP7 ADD PUSH2 0x4CD JUMP JUMPDEST SWAP2 POP POP SWAP3 POP SWAP3 SWAP1 POP JUMP JUMPDEST PUSH1 0x0 PUSH1 0x20 DUP3 ADD SWAP1 POP PUSH2 0x74A PUSH1 0x0 DUP4 ADD DUP5 PUSH2 0x652 JUMP JUMPDEST SWAP3 SWAP2 POP POP JUMP JUMPDEST PUSH32 0x546865204576656E7420686173206F7665720000000000000000000000000000 PUSH1 0x0 DUP3 ADD MSTORE POP JUMP JUMPDEST PUSH1 0x0 PUSH2 0x786 PUSH1 0x12 DUP4 PUSH2 0x5DE JUMP JUMPDEST SWAP2 POP PUSH2 0x791 DUP3 PUSH2 0x750 JUMP JUMPDEST PUSH1 0x20 DUP3 ADD SWAP1 POP SWAP2 SWAP1 POP JUMP JUMPDEST PUSH1 0x0 PUSH1 0x20 DUP3 ADD SWAP1 POP DUP2 DUP2 SUB PUSH1 0x0 DUP4 ADD MSTORE PUSH2 0x7B5 DUP2 PUSH2 0x779 JUMP JUMPDEST SWAP1 POP SWAP2 SWAP1 POP JUMP JUMPDEST PUSH32 0x796F752063616E2052756E20746865204576656E747300000000000000000000 PUSH1 0x0 DUP3 ADD MSTORE POP JUMP JUMPDEST PUSH1 0x0 PUSH2 0x7F2 PUSH1 0x16 DUP4 PUSH2 0x5DE JUMP JUMPDEST SWAP2 POP PUSH2 0x7FD DUP3 PUSH2 0x7BC JUMP JUMPDEST PUSH1 0x20 DUP3 ADD SWAP1 POP SWAP2 SWAP1 POP JUMP JUMPDEST PUSH1 0x0 PUSH1 0x20 DUP3 ADD SWAP1 POP DUP2 DUP2 SUB PUSH1 0x0 DUP4 ADD MSTORE PUSH2 0x821 DUP2 PUSH2 0x7E5 JUMP JUMPDEST SWAP1 POP SWAP2 SWAP1 POP JUMP JUMPDEST PUSH32 0x4E487B7100000000000000000000000000000000000000000000000000000000 PUSH1 0x0 MSTORE PUSH1 0x22 PUSH1 0x4 MSTORE PUSH1 0x24 PUSH1 0x0 REVERT JUMPDEST PUSH1 0x0 PUSH1 0x2 DUP3 DIV SWAP1 POP PUSH1 0x1 DUP3 AND DUP1 PUSH2 0x86F JUMPI PUSH1 0x7F DUP3 AND SWAP2 POP JUMPDEST PUSH1 0x20 DUP3 LT DUP2 SUB PUSH2 0x882 JUMPI PUSH2 0x881 PUSH2 0x828 JUMP JUMPDEST JUMPDEST POP SWAP2 SWAP1 POP JUMP JUMPDEST PUSH1 0x0 DUP2 SWAP1 POP DUP2 PUSH1 0x0 MSTORE PUSH1 0x20 PUSH1 0x0 KECCAK256 SWAP1 POP SWAP2 SWAP1 POP JUMP JUMPDEST PUSH1 0x0 PUSH1 0x20 PUSH1 0x1F DUP4 ADD DIV SWAP1 POP SWAP2 SWAP1 POP JUMP JUMPDEST PUSH1 0x0 DUP3 DUP3 SHL SWAP1 POP SWAP3 SWAP2 POP POP JUMP JUMPDEST PUSH1 0x0 PUSH1 0x8 DUP4 MUL PUSH2 0x8EA PUSH32 0xFFFFFFFFFFFFFFFFFFFFFFFFFFFFFFFFFFFFFFFFFFFFFFFFFFFFFFFFFFFFFFFF DUP3 PUSH2 0x8AD JUMP JUMPDEST PUSH2 0x8F4 DUP7 DUP4 PUSH2 0x8AD JUMP JUMPDEST SWAP6 POP DUP1 NOT DUP5 AND SWAP4 POP DUP1 DUP7 AND DUP5 OR SWAP3 POP POP POP SWAP4 SWAP3 POP POP POP JUMP JUMPDEST PUSH1 0x0 DUP2 SWAP1 POP SWAP2 SWAP1 POP JUMP JUMPDEST PUSH1 0x0 PUSH2 0x931 PUSH2 0x92C PUSH2 0x927 DUP5 PUSH2 0x4AC JUMP JUMPDEST PUSH2 0x90C JUMP JUMPDEST PUSH2 0x4AC JUMP JUMPDEST SWAP1 POP SWAP2 SWAP1 POP JUMP JUMPDEST PUSH1 0x0 DUP2 SWAP1 POP SWAP2 SWAP1 POP JUMP JUMPDEST PUSH2 0x94B DUP4 PUSH2 0x916 JUMP JUMPDEST PUSH2 0x95F PUSH2 0x957 DUP3 PUSH2 0x938 JUMP JUMPDEST DUP5 DUP5 SLOAD PUSH2 0x8BA JUMP JUMPDEST DUP3 SSTORE POP POP POP POP JUMP JUMPDEST PUSH1 0x0 SWAP1 JUMP JUMPDEST PUSH2 0x974 PUSH2 0x967 JUMP JUMPDEST PUSH2 0x97F DUP2 DUP5 DUP5 PUSH2 0x942 JUMP JUMPDEST POP POP POP JUMP JUMPDEST JUMPDEST DUP2 DUP2 LT ISZERO PUSH2 0x9A3 JUMPI PUSH2 0x998 PUSH1 0x0 DUP3 PUSH2 0x96C JUMP JUMPDEST PUSH1 0x1 DUP2 ADD SWAP1 POP PUSH2 0x985 JUMP JUMPDEST POP POP JUMP JUMPDEST PUSH1 0x1F DUP3 GT ISZERO PUSH2 0x9E8 JUMPI PUSH2 0x9B9 DUP2 PUSH2 0x888 JUMP JUMPDEST PUSH2 0x9C2 DUP5 PUSH2 0x89D JUMP JUMPDEST DUP2 ADD PUSH1 0x20 DUP6 LT ISZERO PUSH2 0x9D1 JUMPI DUP2 SWAP1 POP JUMPDEST PUSH2 0x9E5 PUSH2 0x9DD DUP6 PUSH2 0x89D JUMP JUMPDEST DUP4 ADD DUP3 PUSH2 0x984 JUMP JUMPDEST POP POP JUMPDEST POP POP POP JUMP JUMPDEST PUSH1 0x0 DUP3 DUP3 SHR SWAP1 POP SWAP3 SWAP2 POP POP JUMP JUMPDEST PUSH1 0x0 PUSH2 0xA0B PUSH1 0x0 NOT DUP5 PUSH1 0x8 MUL PUSH2 0x9ED JUMP JUMPDEST NOT DUP1 DUP4 AND SWAP2 POP POP SWAP3 SWAP2 POP POP JUMP JUMPDEST PUSH1 0x0 PUSH2 0xA24 DUP4 DUP4 PUSH2 0x9FA JUMP JUMPDEST SWAP2 POP DUP3 PUSH1 0x2 MUL DUP3 OR SWAP1 POP SWAP3 SWAP2 POP POP JUMP JUMPDEST PUSH2 0xA3D DUP3 PUSH2 0x5D3 JUMP JUMPDEST PUSH8 0xFFFFFFFFFFFFFFFF DUP2 GT ISZERO PUSH2 0xA56 JUMPI PUSH2 0xA55 PUSH2 0x381 JUMP JUMPDEST JUMPDEST PUSH2 0xA60 DUP3 SLOAD PUSH2 0x857 JUMP JUMPDEST PUSH2 0xA6B DUP3 DUP3 DUP6 PUSH2 0x9A7 JUMP JUMPDEST PUSH1 0x0 PUSH1 0x20 SWAP1 POP PUSH1 0x1F DUP4 GT PUSH1 0x1 DUP2 EQ PUSH2 0xA9E JUMPI PUSH1 0x0 DUP5 ISZERO PUSH2 0xA8C JUMPI DUP3 DUP8 ADD MLOAD SWAP1 POP JUMPDEST PUSH2 0xA96 DUP6 DUP3 PUSH2 0xA18 JUMP JUMPDEST DUP7 SSTORE POP PUSH2 0xAFE JUMP JUMPDEST PUSH1 0x1F NOT DUP5 AND PUSH2 0xAAC DUP7 PUSH2 0x888 JUMP JUMPDEST PUSH1 0x0 JUMPDEST DUP3 DUP2 LT ISZERO PUSH2 0xAD4 JUMPI DUP5 DUP10 ADD MLOAD DUP3 SSTORE PUSH1 0x1 DUP3 ADD SWAP2 POP PUSH1 0x20 DUP6 ADD SWAP5 POP PUSH1 0x20 DUP2 ADD SWAP1 POP PUSH2 0xAAF JUMP JUMPDEST DUP7 DUP4 LT ISZERO PUSH2 0xAF1 JUMPI DUP5 DUP10 ADD MLOAD PUSH2 0xAED PUSH1 0x1F DUP10 AND DUP3 PUSH2 0x9FA JUMP JUMPDEST DUP4 SSTORE POP JUMPDEST PUSH1 0x1 PUSH1 0x2 DUP9 MUL ADD DUP9 SSTORE POP POP POP JUMPDEST POP POP POP POP POP POP JUMP JUMPDEST PUSH32 0x4E487B7100000000000000000000000000000000000000000000000000000000 PUSH1 0x0 MSTORE PUSH1 0x11 PUSH1 0x4 MSTORE PUSH1 0x24 PUSH1 0x0 REVERT JUMPDEST PUSH1 0x0 PUSH2 0xB40 DUP3 PUSH2 0x4AC JUMP JUMPDEST SWAP2 POP PUSH32 0xFFFFFFFFFFFFFFFFFFFFFFFFFFFFFFFFFFFFFFFFFFFFFFFFFFFFFFFFFFFFFFFF DUP3 SUB PUSH2 0xB72 JUMPI PUSH2 0xB71 PUSH2 0xB06 JUMP JUMPDEST JUMPDEST PUSH1 0x1 DUP3 ADD SWAP1 POP SWAP2 SWAP1 POP JUMP INVALID LOG2 PUSH5 0x6970667358 0x22 SLT KECCAK256 0xB7 0xD8 MUL BLOCKHASH 0xD PUSH9 0x4ACD4136D0FFA93D5B CALLER 0x24 0xD2 0xE4 REVERT 0x2F GAS KECCAK256 0xC4 0xC6 0xE2 PUSH4 0x9A86B509 0xE6 PUSH5 0x736F6C6343 STOP ADDMOD GT STOP CALLER "
				},
				"gasEstimates": {
					"creation": {
						"codeDepositCost": "599000",
						"executionCost": "632",
						"totalCost": "599632"
					},
					"external": {
						"createEvent(string,uint256,uint256,uint256)": "infinite",
						"events(uint256)": "infinite",
						"ticket(address,uint256)": "infinite"
					}
				},
				"methodIdentifiers": {
					"createEvent(string,uint256,uint256,uint256)": "0374ab0b",
					"events(uint256)": "0b791430",
					"ticket(address,uint256)": "e11bb64d"
				}
			},
			"storageLayout": {
				"storage": [
					{
						"astId": 19,
						"contract": "Event.sol:OrganizingEvent",
						"label": "events",
						"offset": 0,
						"slot": "0",
						"type": "t_mapping(t_uint256,t_struct(Event)14_storage)"
					},
					{
						"astId": 25,
						"contract": "Event.sol:OrganizingEvent",
						"label": "ticket",
						"offset": 0,
						"slot": "1",
						"type": "t_mapping(t_address,t_mapping(t_uint256,t_uint256))"
					},
					{
						"astId": 27,
						"contract": "Event.sol:OrganizingEvent",
						"label": "nextId",
						"offset": 0,
						"slot": "2",
						"type": "t_uint256"
					}
				],
				"types": {
					"t_address": {
						"encoding": "inplace",
						"label": "address",
						"numberOfBytes": "20"
					},
					"t_mapping(t_address,t_mapping(t_uint256,t_uint256))": {
						"encoding": "mapping",
						"key": "t_address",
						"label": "mapping(address => mapping(uint256 => uint256))",
						"numberOfBytes": "32",
						"value": "t_mapping(t_uint256,t_uint256)"
					},
					"t_mapping(t_uint256,t_struct(Event)14_storage)": {
						"encoding": "mapping",
						"key": "t_uint256",
						"label": "mapping(uint256 => struct OrganizingEvent.Event)",
						"numberOfBytes": "32",
						"value": "t_struct(Event)14_storage"
					},
					"t_mapping(t_uint256,t_uint256)": {
						"encoding": "mapping",
						"key": "t_uint256",
						"label": "mapping(uint256 => uint256)",
						"numberOfBytes": "32",
						"value": "t_uint256"
					},
					"t_string_storage": {
						"encoding": "bytes",
						"label": "string",
						"numberOfBytes": "32"
					},
					"t_struct(Event)14_storage": {
						"encoding": "inplace",
						"label": "struct OrganizingEvent.Event",
						"members": [
							{
								"astId": 3,
								"contract": "Event.sol:OrganizingEvent",
								"label": "organizer",
								"offset": 0,
								"slot": "0",
								"type": "t_address"
							},
							{
								"astId": 5,
								"contract": "Event.sol:OrganizingEvent",
								"label": "name",
								"offset": 0,
								"slot": "1",
								"type": "t_string_storage"
							},
							{
								"astId": 7,
								"contract": "Event.sol:OrganizingEvent",
								"label": "date",
								"offset": 0,
								"slot": "2",
								"type": "t_uint256"
							},
							{
								"astId": 9,
								"contract": "Event.sol:OrganizingEvent",
								"label": "price",
								"offset": 0,
								"slot": "3",
								"type": "t_uint256"
							},
							{
								"astId": 11,
								"contract": "Event.sol:OrganizingEvent",
								"label": "ticketOpen",
								"offset": 0,
								"slot": "4",
								"type": "t_uint256"
							},
							{
								"astId": 13,
								"contract": "Event.sol:OrganizingEvent",
								"label": "ticketRemain",
								"offset": 0,
								"slot": "5",
								"type": "t_uint256"
							}
						],
						"numberOfBytes": "192"
					},
					"t_uint256": {
						"encoding": "inplace",
						"label": "uint256",
						"numberOfBytes": "32"
					}
				}
			},
			"userdoc": {
				"kind": "user",
				"methods": {},
				"version": 1
			}
		}
	}
}