{
	"Crowd.sol": {
		"crowdFunding": {
			"abi": [
				{
					"inputs": [
						{
							"internalType": "uint256",
							"name": "_target",
							"type": "uint256"
						},
						{
							"internalType": "uint256",
							"name": "_deadline",
							"type": "uint256"
						}
					],
					"stateMutability": "nonpayable",
					"type": "constructor"
				},
				{
					"inputs": [
						{
							"internalType": "address",
							"name": "",
							"type": "address"
						}
					],
					"name": "conntributors",
					"outputs": [
						{
							"internalType": "uint256",
							"name": "",
							"type": "uint256"
						}
					],
					"stateMutability": "view",
					"type": "function"
				},
				{
					"inputs": [],
					"name": "deadline",
					"outputs": [
						{
							"internalType": "uint256",
							"name": "",
							"type": "uint256"
						}
					],
					"stateMutability": "view",
					"type": "function"
				},
				{
					"inputs": [],
					"name": "getBalance",
					"outputs": [
						{
							"internalType": "uint256",
							"name": "",
							"type": "uint256"
						}
					],
					"stateMutability": "view",
					"type": "function"
				},
				{
					"inputs": [],
					"name": "manager",
					"outputs": [
						{
							"internalType": "address",
							"name": "",
							"type": "address"
						}
					],
					"stateMutability": "view",
					"type": "function"
				},
				{
					"inputs": [],
					"name": "miniContribution",
					"outputs": [
						{
							"internalType": "uint256",
							"name": "",
							"type": "uint256"
						}
					],
					"stateMutability": "view",
					"type": "function"
				},
				{
					"inputs": [],
					"name": "noOfContributor",
					"outputs": [
						{
							"internalType": "uint256",
							"name": "",
							"type": "uint256"
						}
					],
					"stateMutability": "view",
					"type": "function"
				},
				{
					"inputs": [],
					"name": "raisedAmnt",
					"outputs": [
						{
							"internalType": "uint256",
							"name": "",
							"type": "uint256"
						}
					],
					"stateMutability": "view",
					"type": "function"
				},
				{
					"inputs": [],
					"name": "sendEth",
					"outputs": [],
					"stateMutability": "payable",
					"type": "function"
				},
				{
					"inputs": [],
					"name": "target",
					"outputs": [
						{
							"internalType": "uint256",
							"name": "",
							"type": "uint256"
						}
					],
					"stateMutability": "view",
					"type": "function"
				}
			],
			"devdoc": {
				"kind": "dev",
				"methods": {},
				"version": 1
			},
			"evm": {
				"assembly": "    /* \"Crowd.sol\":74:953  contract crowdFunding... */\n  mstore(0x40, 0x80)\n    /* \"Crowd.sol\":335:523  constructor(uint _target,uint _deadline)... */\n  callvalue\n  dup1\n  iszero\n  tag_1\n  jumpi\n  0x00\n  dup1\n  revert\ntag_1:\n  pop\n  mload(0x40)\n  sub(codesize, bytecodeSize)\n  dup1\n  bytecodeSize\n  dup4\n  codecopy\n  dup2\n  dup2\n  add\n  0x40\n  mstore\n  dup2\n  add\n  swap1\n  tag_2\n  swap2\n  swap1\n  tag_3\n  jump\t// in\ntag_2:\n    /* \"Crowd.sol\":399:406  _target */\n  dup2\n    /* \"Crowd.sol\":392:398  target */\n  0x02\n    /* \"Crowd.sol\":392:406  target=_target */\n  dup2\n  swap1\n  sstore\n  pop\n    /* \"Crowd.sol\":442:451  _deadline */\n  dup1\n    /* \"Crowd.sol\":426:441  block.timestamp */\n  timestamp\n    /* \"Crowd.sol\":426:451  block.timestamp+_deadline */\n  tag_6\n  swap2\n  swap1\n  tag_7\n  jump\t// in\ntag_6:\n    /* \"Crowd.sol\":417:425  deadline */\n  0x05\n    /* \"Crowd.sol\":417:451  deadline=block.timestamp+_deadline */\n  dup2\n  swap1\n  sstore\n  pop\n    /* \"Crowd.sol\":470:480  msg.sender */\n  caller\n    /* \"Crowd.sol\":462:469  manager */\n  0x01\n  0x00\n    /* \"Crowd.sol\":462:480  manager=msg.sender */\n  0x0100\n  exp\n  dup2\n  sload\n  dup2\n  0xffffffffffffffffffffffffffffffffffffffff\n  mul\n  not\n  and\n  swap1\n  dup4\n  0xffffffffffffffffffffffffffffffffffffffff\n  and\n  mul\n  or\n  swap1\n  sstore\n  pop\n    /* \"Crowd.sol\":508:515  100 wei */\n  0x64\n    /* \"Crowd.sol\":491:507  miniContribution */\n  0x03\n    /* \"Crowd.sol\":491:515  miniContribution=100 wei */\n  dup2\n  swap1\n  sstore\n  pop\n    /* \"Crowd.sol\":335:523  constructor(uint _target,uint _deadline)... */\n  pop\n  pop\n    /* \"Crowd.sol\":74:953  contract crowdFunding... */\n  jump(tag_8)\n    /* \"#utility.yul\":88:205   */\ntag_10:\n    /* \"#utility.yul\":197:198   */\n  0x00\n    /* \"#utility.yul\":194:195   */\n  dup1\n    /* \"#utility.yul\":187:199   */\n  revert\n    /* \"#utility.yul\":334:411   */\ntag_12:\n    /* \"#utility.yul\":371:378   */\n  0x00\n    /* \"#utility.yul\":400:405   */\n  dup2\n    /* \"#utility.yul\":389:405   */\n  swap1\n  pop\n    /* \"#utility.yul\":334:411   */\n  swap2\n  swap1\n  pop\n  jump\t// out\n    /* \"#utility.yul\":417:539   */\ntag_13:\n    /* \"#utility.yul\":490:514   */\n  tag_22\n    /* \"#utility.yul\":508:513   */\n  dup2\n    /* \"#utility.yul\":490:514   */\n  tag_12\n  jump\t// in\ntag_22:\n    /* \"#utility.yul\":483:488   */\n  dup2\n    /* \"#utility.yul\":480:515   */\n  eq\n    /* \"#utility.yul\":470:533   */\n  tag_23\n  jumpi\n    /* \"#utility.yul\":529:530   */\n  0x00\n    /* \"#utility.yul\":526:527   */\n  dup1\n    /* \"#utility.yul\":519:531   */\n  revert\n    /* \"#utility.yul\":470:533   */\ntag_23:\n    /* \"#utility.yul\":417:539   */\n  pop\n  jump\t// out\n    /* \"#utility.yul\":545:688   */\ntag_14:\n    /* \"#utility.yul\":602:607   */\n  0x00\n    /* \"#utility.yul\":633:639   */\n  dup2\n    /* \"#utility.yul\":627:640   */\n  mload\n    /* \"#utility.yul\":618:640   */\n  swap1\n  pop\n    /* \"#utility.yul\":649:682   */\n  tag_25\n    /* \"#utility.yul\":676:681   */\n  dup2\n    /* \"#utility.yul\":649:682   */\n  tag_13\n  jump\t// in\ntag_25:\n    /* \"#utility.yul\":545:688   */\n  swap3\n  swap2\n  pop\n  pop\n  jump\t// out\n    /* \"#utility.yul\":694:1201   */\ntag_3:\n    /* \"#utility.yul\":773:779   */\n  0x00\n    /* \"#utility.yul\":781:787   */\n  dup1\n    /* \"#utility.yul\":830:832   */\n  0x40\n    /* \"#utility.yul\":818:827   */\n  dup4\n    /* \"#utility.yul\":809:816   */\n  dup6\n    /* \"#utility.yul\":805:828   */\n  sub\n    /* \"#utility.yul\":801:833   */\n  slt\n    /* \"#utility.yul\":798:917   */\n  iszero\n  tag_27\n  jumpi\n    /* \"#utility.yul\":836:915   */\n  tag_28\n  tag_10\n  jump\t// in\ntag_28:\n    /* \"#utility.yul\":798:917   */\ntag_27:\n    /* \"#utility.yul\":956:957   */\n  0x00\n    /* \"#utility.yul\":981:1045   */\n  tag_29\n    /* \"#utility.yul\":1037:1044   */\n  dup6\n    /* \"#utility.yul\":1028:1034   */\n  dup3\n    /* \"#utility.yul\":1017:1026   */\n  dup7\n    /* \"#utility.yul\":1013:1035   */\n  add\n    /* \"#utility.yul\":981:1045   */\n  tag_14\n  jump\t// in\ntag_29:\n    /* \"#utility.yul\":971:1045   */\n  swap3\n  pop\n    /* \"#utility.yul\":927:1055   */\n  pop\n    /* \"#utility.yul\":1094:1096   */\n  0x20\n    /* \"#utility.yul\":1120:1184   */\n  tag_30\n    /* \"#utility.yul\":1176:1183   */\n  dup6\n    /* \"#utility.yul\":1167:1173   */\n  dup3\n    /* \"#utility.yul\":1156:1165   */\n  dup7\n    /* \"#utility.yul\":1152:1174   */\n  add\n    /* \"#utility.yul\":1120:1184   */\n  tag_14\n  jump\t// in\ntag_30:\n    /* \"#utility.yul\":1110:1184   */\n  swap2\n  pop\n    /* \"#utility.yul\":1065:1194   */\n  pop\n    /* \"#utility.yul\":694:1201   */\n  swap3\n  pop\n  swap3\n  swap1\n  pop\n  jump\t// out\n    /* \"#utility.yul\":1207:1387   */\ntag_15:\n    /* \"#utility.yul\":1255:1332   */\n  0x4e487b7100000000000000000000000000000000000000000000000000000000\n    /* \"#utility.yul\":1252:1253   */\n  0x00\n    /* \"#utility.yul\":1245:1333   */\n  mstore\n    /* \"#utility.yul\":1352:1356   */\n  0x11\n    /* \"#utility.yul\":1349:1350   */\n  0x04\n    /* \"#utility.yul\":1342:1357   */\n  mstore\n    /* \"#utility.yul\":1376:1380   */\n  0x24\n    /* \"#utility.yul\":1373:1374   */\n  0x00\n    /* \"#utility.yul\":1366:1381   */\n  revert\n    /* \"#utility.yul\":1393:1584   */\ntag_7:\n    /* \"#utility.yul\":1433:1436   */\n  0x00\n    /* \"#utility.yul\":1452:1472   */\n  tag_33\n    /* \"#utility.yul\":1470:1471   */\n  dup3\n    /* \"#utility.yul\":1452:1472   */\n  tag_12\n  jump\t// in\ntag_33:\n    /* \"#utility.yul\":1447:1472   */\n  swap2\n  pop\n    /* \"#utility.yul\":1486:1506   */\n  tag_34\n    /* \"#utility.yul\":1504:1505   */\n  dup4\n    /* \"#utility.yul\":1486:1506   */\n  tag_12\n  jump\t// in\ntag_34:\n    /* \"#utility.yul\":1481:1506   */\n  swap3\n  pop\n    /* \"#utility.yul\":1529:1530   */\n  dup3\n    /* \"#utility.yul\":1526:1527   */\n  dup3\n    /* \"#utility.yul\":1522:1531   */\n  add\n    /* \"#utility.yul\":1515:1531   */\n  swap1\n  pop\n    /* \"#utility.yul\":1550:1553   */\n  dup1\n    /* \"#utility.yul\":1547:1548   */\n  dup3\n    /* \"#utility.yul\":1544:1554   */\n  gt\n    /* \"#utility.yul\":1541:1577   */\n  iszero\n  tag_35\n  jumpi\n    /* \"#utility.yul\":1557:1575   */\n  tag_36\n  tag_15\n  jump\t// in\ntag_36:\n    /* \"#utility.yul\":1541:1577   */\ntag_35:\n    /* \"#utility.yul\":1393:1584   */\n  swap3\n  swap2\n  pop\n  pop\n  jump\t// out\n    /* \"Crowd.sol\":74:953  contract crowdFunding... */\ntag_8:\n  dataSize(sub_0)\n  dup1\n  dataOffset(sub_0)\n  0x00\n  codecopy\n  0x00\n  return\nstop\n\nsub_0: assembly {\n        /* \"Crowd.sol\":74:953  contract crowdFunding... */\n      mstore(0x40, 0x80)\n      jumpi(tag_1, lt(calldatasize, 0x04))\n      shr(0xe0, calldataload(0x00))\n      dup1\n      0x469309e5\n      gt\n      tag_11\n      jumpi\n      dup1\n      0x469309e5\n      eq\n      tag_6\n      jumpi\n      dup1\n      0x481c6a75\n      eq\n      tag_7\n      jumpi\n      dup1\n      0x632c1f39\n      eq\n      tag_8\n      jumpi\n      dup1\n      0x8c9ffd40\n      eq\n      tag_9\n      jumpi\n      dup1\n      0xd4b83992\n      eq\n      tag_10\n      jumpi\n      jump(tag_1)\n    tag_11:\n      dup1\n      0x05759b4d\n      eq\n      tag_2\n      jumpi\n      dup1\n      0x06e99fef\n      eq\n      tag_3\n      jumpi\n      dup1\n      0x12065fe0\n      eq\n      tag_4\n      jumpi\n      dup1\n      0x29dcb0cf\n      eq\n      tag_5\n      jumpi\n    tag_1:\n      0x00\n      dup1\n      revert\n        /* \"Crowd.sol\":208:236  uint public miniContribution */\n    tag_2:\n      callvalue\n      dup1\n      iszero\n      tag_12\n      jumpi\n      0x00\n      dup1\n      revert\n    tag_12:\n      pop\n      tag_13\n      tag_14\n      jump\t// in\n    tag_13:\n      mload(0x40)\n      tag_15\n      swap2\n      swap1\n      tag_16\n      jump\t// in\n    tag_15:\n      mload(0x40)\n      dup1\n      swap2\n      sub\n      swap1\n      return\n        /* \"Crowd.sol\":531:869  function sendEth() public payable ... */\n    tag_3:\n      tag_17\n      tag_18\n      jump\t// in\n    tag_17:\n      stop\n        /* \"Crowd.sol\":877:948  function getBalance() public view returns(uint)... */\n    tag_4:\n      callvalue\n      dup1\n      iszero\n      tag_19\n      jumpi\n      0x00\n      dup1\n      revert\n    tag_19:\n      pop\n      tag_20\n      tag_21\n      jump\t// in\n    tag_20:\n      mload(0x40)\n      tag_22\n      swap2\n      swap1\n      tag_16\n      jump\t// in\n    tag_22:\n      mload(0x40)\n      dup1\n      swap2\n      sub\n      swap1\n      return\n        /* \"Crowd.sol\":272:292  uint public deadline */\n    tag_5:\n      callvalue\n      dup1\n      iszero\n      tag_23\n      jumpi\n      0x00\n      dup1\n      revert\n    tag_23:\n      pop\n      tag_24\n      tag_25\n      jump\t// in\n    tag_24:\n      mload(0x40)\n      tag_26\n      swap2\n      swap1\n      tag_16\n      jump\t// in\n    tag_26:\n      mload(0x40)\n      dup1\n      swap2\n      sub\n      swap1\n      return\n        /* \"Crowd.sol\":243:265  uint public raisedAmnt */\n    tag_6:\n      callvalue\n      dup1\n      iszero\n      tag_27\n      jumpi\n      0x00\n      dup1\n      revert\n    tag_27:\n      pop\n      tag_28\n      tag_29\n      jump\t// in\n    tag_28:\n      mload(0x40)\n      tag_30\n      swap2\n      swap1\n      tag_16\n      jump\t// in\n    tag_30:\n      mload(0x40)\n      dup1\n      swap2\n      sub\n      swap1\n      return\n        /* \"Crowd.sol\":154:176  address public manager */\n    tag_7:\n      callvalue\n      dup1\n      iszero\n      tag_31\n      jumpi\n      0x00\n      dup1\n      revert\n    tag_31:\n      pop\n      tag_32\n      tag_33\n      jump\t// in\n    tag_32:\n      mload(0x40)\n      tag_34\n      swap2\n      swap1\n      tag_35\n      jump\t// in\n    tag_34:\n      mload(0x40)\n      dup1\n      swap2\n      sub\n      swap1\n      return\n        /* \"Crowd.sol\":104:147  mapping(address=>uint) public conntributors */\n    tag_8:\n      callvalue\n      dup1\n      iszero\n      tag_36\n      jumpi\n      0x00\n      dup1\n      revert\n    tag_36:\n      pop\n      tag_37\n      0x04\n      dup1\n      calldatasize\n      sub\n      dup2\n      add\n      swap1\n      tag_38\n      swap2\n      swap1\n      tag_39\n      jump\t// in\n    tag_38:\n      tag_40\n      jump\t// in\n    tag_37:\n      mload(0x40)\n      tag_41\n      swap2\n      swap1\n      tag_16\n      jump\t// in\n    tag_41:\n      mload(0x40)\n      dup1\n      swap2\n      sub\n      swap1\n      return\n        /* \"Crowd.sol\":299:326  uint public noOfContributor */\n    tag_9:\n      callvalue\n      dup1\n      iszero\n      tag_42\n      jumpi\n      0x00\n      dup1\n      revert\n    tag_42:\n      pop\n      tag_43\n      tag_44\n      jump\t// in\n    tag_43:\n      mload(0x40)\n      tag_45\n      swap2\n      swap1\n      tag_16\n      jump\t// in\n    tag_45:\n      mload(0x40)\n      dup1\n      swap2\n      sub\n      swap1\n      return\n        /* \"Crowd.sol\":183:201  uint public target */\n    tag_10:\n      callvalue\n      dup1\n      iszero\n      tag_46\n      jumpi\n      0x00\n      dup1\n      revert\n    tag_46:\n      pop\n      tag_47\n      tag_48\n      jump\t// in\n    tag_47:\n      mload(0x40)\n      tag_49\n      swap2\n      swap1\n      tag_16\n      jump\t// in\n    tag_49:\n      mload(0x40)\n      dup1\n      swap2\n      sub\n      swap1\n      return\n        /* \"Crowd.sol\":208:236  uint public miniContribution */\n    tag_14:\n      sload(0x03)\n      dup2\n      jump\t// out\n        /* \"Crowd.sol\":531:869  function sendEth() public payable ... */\n    tag_18:\n        /* \"Crowd.sol\":601:608  100 wei */\n      0x64\n        /* \"Crowd.sol\":590:599  msg.value */\n      callvalue\n        /* \"Crowd.sol\":590:608  msg.value>=100 wei */\n      lt\n      iszero\n        /* \"Crowd.sol\":582:629  require(msg.value>=100 wei,\"You dont Eligible\") */\n      tag_51\n      jumpi\n      mload(0x40)\n      0x08c379a000000000000000000000000000000000000000000000000000000000\n      dup2\n      mstore\n      0x04\n      add\n      tag_52\n      swap1\n      tag_53\n      jump\t// in\n    tag_52:\n      mload(0x40)\n      dup1\n      swap2\n      sub\n      swap1\n      revert\n    tag_51:\n        /* \"Crowd.sol\":664:672  deadline */\n      sload(0x05)\n        /* \"Crowd.sol\":648:663  block.timestamp */\n      timestamp\n        /* \"Crowd.sol\":648:672  block.timestamp<deadline */\n      lt\n        /* \"Crowd.sol\":640:693  require(block.timestamp<deadline,\"Deadline had come\") */\n      tag_54\n      jumpi\n      mload(0x40)\n      0x08c379a000000000000000000000000000000000000000000000000000000000\n      dup2\n      mstore\n      0x04\n      add\n      tag_55\n      swap1\n      tag_56\n      jump\t// in\n    tag_55:\n      mload(0x40)\n      dup1\n      swap2\n      sub\n      swap1\n      revert\n    tag_54:\n        /* \"Crowd.sol\":737:738  0 */\n      0x00\n        /* \"Crowd.sol\":710:723  conntributors */\n      dup1\n        /* \"Crowd.sol\":710:735  conntributors[msg.sender] */\n      0x00\n        /* \"Crowd.sol\":724:734  msg.sender */\n      caller\n        /* \"Crowd.sol\":710:735  conntributors[msg.sender] */\n      0xffffffffffffffffffffffffffffffffffffffff\n      and\n      0xffffffffffffffffffffffffffffffffffffffff\n      and\n      dup2\n      mstore\n      0x20\n      add\n      swap1\n      dup2\n      mstore\n      0x20\n      add\n      0x00\n      keccak256\n      sload\n        /* \"Crowd.sol\":710:738  conntributors[msg.sender]==0 */\n      sub\n        /* \"Crowd.sol\":706:783  if (conntributors[msg.sender]==0){... */\n      tag_57\n      jumpi\n        /* \"Crowd.sol\":754:769  noOfContributor */\n      0x06\n      0x00\n        /* \"Crowd.sol\":754:771  noOfContributor++ */\n      dup2\n      sload\n      dup1\n      swap3\n      swap2\n      swap1\n      tag_58\n      swap1\n      tag_59\n      jump\t// in\n    tag_58:\n      swap2\n      swap1\n      pop\n      sstore\n      pop\n        /* \"Crowd.sol\":706:783  if (conntributors[msg.sender]==0){... */\n    tag_57:\n        /* \"Crowd.sol\":820:829  msg.value */\n      callvalue\n        /* \"Crowd.sol\":793:806  conntributors */\n      0x00\n        /* \"Crowd.sol\":793:818  conntributors[msg.sender] */\n      dup1\n        /* \"Crowd.sol\":807:817  msg.sender */\n      caller\n        /* \"Crowd.sol\":793:818  conntributors[msg.sender] */\n      0xffffffffffffffffffffffffffffffffffffffff\n      and\n      0xffffffffffffffffffffffffffffffffffffffff\n      and\n      dup2\n      mstore\n      0x20\n      add\n      swap1\n      dup2\n      mstore\n      0x20\n      add\n      0x00\n      keccak256\n      0x00\n        /* \"Crowd.sol\":793:829  conntributors[msg.sender]+=msg.value */\n      dup3\n      dup3\n      sload\n      tag_60\n      swap2\n      swap1\n      tag_61\n      jump\t// in\n    tag_60:\n      swap3\n      pop\n      pop\n      dup2\n      swap1\n      sstore\n      pop\n        /* \"Crowd.sol\":852:861  msg.value */\n      callvalue\n        /* \"Crowd.sol\":840:850  raisedAmnt */\n      0x04\n      0x00\n        /* \"Crowd.sol\":840:861  raisedAmnt+=msg.value */\n      dup3\n      dup3\n      sload\n      tag_62\n      swap2\n      swap1\n      tag_61\n      jump\t// in\n    tag_62:\n      swap3\n      pop\n      pop\n      dup2\n      swap1\n      sstore\n      pop\n        /* \"Crowd.sol\":531:869  function sendEth() public payable ... */\n      jump\t// out\n        /* \"Crowd.sol\":877:948  function getBalance() public view returns(uint)... */\n    tag_21:\n        /* \"Crowd.sol\":919:923  uint */\n      0x00\n        /* \"Crowd.sol\":877:948  function getBalance() public view returns(uint)... */\n      swap1\n      jump\t// out\n        /* \"Crowd.sol\":272:292  uint public deadline */\n    tag_25:\n      sload(0x05)\n      dup2\n      jump\t// out\n        /* \"Crowd.sol\":243:265  uint public raisedAmnt */\n    tag_29:\n      sload(0x04)\n      dup2\n      jump\t// out\n        /* \"Crowd.sol\":154:176  address public manager */\n    tag_33:\n      0x01\n      0x00\n      swap1\n      sload\n      swap1\n      0x0100\n      exp\n      swap1\n      div\n      0xffffffffffffffffffffffffffffffffffffffff\n      and\n      dup2\n      jump\t// out\n        /* \"Crowd.sol\":104:147  mapping(address=>uint) public conntributors */\n    tag_40:\n      mstore(0x20, 0x00)\n      dup1\n      0x00\n      mstore\n      keccak256(0x00, 0x40)\n      0x00\n      swap2\n      pop\n      swap1\n      pop\n      sload\n      dup2\n      jump\t// out\n        /* \"Crowd.sol\":299:326  uint public noOfContributor */\n    tag_44:\n      sload(0x06)\n      dup2\n      jump\t// out\n        /* \"Crowd.sol\":183:201  uint public target */\n    tag_48:\n      sload(0x02)\n      dup2\n      jump\t// out\n        /* \"#utility.yul\":7:84   */\n    tag_64:\n        /* \"#utility.yul\":44:51   */\n      0x00\n        /* \"#utility.yul\":73:78   */\n      dup2\n        /* \"#utility.yul\":62:78   */\n      swap1\n      pop\n        /* \"#utility.yul\":7:84   */\n      swap2\n      swap1\n      pop\n      jump\t// out\n        /* \"#utility.yul\":90:208   */\n    tag_65:\n        /* \"#utility.yul\":177:201   */\n      tag_83\n        /* \"#utility.yul\":195:200   */\n      dup2\n        /* \"#utility.yul\":177:201   */\n      tag_64\n      jump\t// in\n    tag_83:\n        /* \"#utility.yul\":172:175   */\n      dup3\n        /* \"#utility.yul\":165:202   */\n      mstore\n        /* \"#utility.yul\":90:208   */\n      pop\n      pop\n      jump\t// out\n        /* \"#utility.yul\":214:436   */\n    tag_16:\n        /* \"#utility.yul\":307:311   */\n      0x00\n        /* \"#utility.yul\":345:347   */\n      0x20\n        /* \"#utility.yul\":334:343   */\n      dup3\n        /* \"#utility.yul\":330:348   */\n      add\n        /* \"#utility.yul\":322:348   */\n      swap1\n      pop\n        /* \"#utility.yul\":358:429   */\n      tag_85\n        /* \"#utility.yul\":426:427   */\n      0x00\n        /* \"#utility.yul\":415:424   */\n      dup4\n        /* \"#utility.yul\":411:428   */\n      add\n        /* \"#utility.yul\":402:408   */\n      dup5\n        /* \"#utility.yul\":358:429   */\n      tag_65\n      jump\t// in\n    tag_85:\n        /* \"#utility.yul\":214:436   */\n      swap3\n      swap2\n      pop\n      pop\n      jump\t// out\n        /* \"#utility.yul\":442:568   */\n    tag_66:\n        /* \"#utility.yul\":479:486   */\n      0x00\n        /* \"#utility.yul\":519:561   */\n      0xffffffffffffffffffffffffffffffffffffffff\n        /* \"#utility.yul\":512:517   */\n      dup3\n        /* \"#utility.yul\":508:562   */\n      and\n        /* \"#utility.yul\":497:562   */\n      swap1\n      pop\n        /* \"#utility.yul\":442:568   */\n      swap2\n      swap1\n      pop\n      jump\t// out\n        /* \"#utility.yul\":574:670   */\n    tag_67:\n        /* \"#utility.yul\":611:618   */\n      0x00\n        /* \"#utility.yul\":640:664   */\n      tag_88\n        /* \"#utility.yul\":658:663   */\n      dup3\n        /* \"#utility.yul\":640:664   */\n      tag_66\n      jump\t// in\n    tag_88:\n        /* \"#utility.yul\":629:664   */\n      swap1\n      pop\n        /* \"#utility.yul\":574:670   */\n      swap2\n      swap1\n      pop\n      jump\t// out\n        /* \"#utility.yul\":676:794   */\n    tag_68:\n        /* \"#utility.yul\":763:787   */\n      tag_90\n        /* \"#utility.yul\":781:786   */\n      dup2\n        /* \"#utility.yul\":763:787   */\n      tag_67\n      jump\t// in\n    tag_90:\n        /* \"#utility.yul\":758:761   */\n      dup3\n        /* \"#utility.yul\":751:788   */\n      mstore\n        /* \"#utility.yul\":676:794   */\n      pop\n      pop\n      jump\t// out\n        /* \"#utility.yul\":800:1022   */\n    tag_35:\n        /* \"#utility.yul\":893:897   */\n      0x00\n        /* \"#utility.yul\":931:933   */\n      0x20\n        /* \"#utility.yul\":920:929   */\n      dup3\n        /* \"#utility.yul\":916:934   */\n      add\n        /* \"#utility.yul\":908:934   */\n      swap1\n      pop\n        /* \"#utility.yul\":944:1015   */\n      tag_92\n        /* \"#utility.yul\":1012:1013   */\n      0x00\n        /* \"#utility.yul\":1001:1010   */\n      dup4\n        /* \"#utility.yul\":997:1014   */\n      add\n        /* \"#utility.yul\":988:994   */\n      dup5\n        /* \"#utility.yul\":944:1015   */\n      tag_68\n      jump\t// in\n    tag_92:\n        /* \"#utility.yul\":800:1022   */\n      swap3\n      swap2\n      pop\n      pop\n      jump\t// out\n        /* \"#utility.yul\":1109:1226   */\n    tag_70:\n        /* \"#utility.yul\":1218:1219   */\n      0x00\n        /* \"#utility.yul\":1215:1216   */\n      dup1\n        /* \"#utility.yul\":1208:1220   */\n      revert\n        /* \"#utility.yul\":1355:1477   */\n    tag_72:\n        /* \"#utility.yul\":1428:1452   */\n      tag_97\n        /* \"#utility.yul\":1446:1451   */\n      dup2\n        /* \"#utility.yul\":1428:1452   */\n      tag_67\n      jump\t// in\n    tag_97:\n        /* \"#utility.yul\":1421:1426   */\n      dup2\n        /* \"#utility.yul\":1418:1453   */\n      eq\n        /* \"#utility.yul\":1408:1471   */\n      tag_98\n      jumpi\n        /* \"#utility.yul\":1467:1468   */\n      0x00\n        /* \"#utility.yul\":1464:1465   */\n      dup1\n        /* \"#utility.yul\":1457:1469   */\n      revert\n        /* \"#utility.yul\":1408:1471   */\n    tag_98:\n        /* \"#utility.yul\":1355:1477   */\n      pop\n      jump\t// out\n        /* \"#utility.yul\":1483:1622   */\n    tag_73:\n        /* \"#utility.yul\":1529:1534   */\n      0x00\n        /* \"#utility.yul\":1567:1573   */\n      dup2\n        /* \"#utility.yul\":1554:1574   */\n      calldataload\n        /* \"#utility.yul\":1545:1574   */\n      swap1\n      pop\n        /* \"#utility.yul\":1583:1616   */\n      tag_100\n        /* \"#utility.yul\":1610:1615   */\n      dup2\n        /* \"#utility.yul\":1583:1616   */\n      tag_72\n      jump\t// in\n    tag_100:\n        /* \"#utility.yul\":1483:1622   */\n      swap3\n      swap2\n      pop\n      pop\n      jump\t// out\n        /* \"#utility.yul\":1628:1957   */\n    tag_39:\n        /* \"#utility.yul\":1687:1693   */\n      0x00\n        /* \"#utility.yul\":1736:1738   */\n      0x20\n        /* \"#utility.yul\":1724:1733   */\n      dup3\n        /* \"#utility.yul\":1715:1722   */\n      dup5\n        /* \"#utility.yul\":1711:1734   */\n      sub\n        /* \"#utility.yul\":1707:1739   */\n      slt\n        /* \"#utility.yul\":1704:1823   */\n      iszero\n      tag_102\n      jumpi\n        /* \"#utility.yul\":1742:1821   */\n      tag_103\n      tag_70\n      jump\t// in\n    tag_103:\n        /* \"#utility.yul\":1704:1823   */\n    tag_102:\n        /* \"#utility.yul\":1862:1863   */\n      0x00\n        /* \"#utility.yul\":1887:1940   */\n      tag_104\n        /* \"#utility.yul\":1932:1939   */\n      dup5\n        /* \"#utility.yul\":1923:1929   */\n      dup3\n        /* \"#utility.yul\":1912:1921   */\n      dup6\n        /* \"#utility.yul\":1908:1930   */\n      add\n        /* \"#utility.yul\":1887:1940   */\n      tag_73\n      jump\t// in\n    tag_104:\n        /* \"#utility.yul\":1877:1940   */\n      swap2\n      pop\n        /* \"#utility.yul\":1833:1950   */\n      pop\n        /* \"#utility.yul\":1628:1957   */\n      swap3\n      swap2\n      pop\n      pop\n      jump\t// out\n        /* \"#utility.yul\":1963:2132   */\n    tag_74:\n        /* \"#utility.yul\":2047:2058   */\n      0x00\n        /* \"#utility.yul\":2081:2087   */\n      dup3\n        /* \"#utility.yul\":2076:2079   */\n      dup3\n        /* \"#utility.yul\":2069:2088   */\n      mstore\n        /* \"#utility.yul\":2121:2125   */\n      0x20\n        /* \"#utility.yul\":2116:2119   */\n      dup3\n        /* \"#utility.yul\":2112:2126   */\n      add\n        /* \"#utility.yul\":2097:2126   */\n      swap1\n      pop\n        /* \"#utility.yul\":1963:2132   */\n      swap3\n      swap2\n      pop\n      pop\n      jump\t// out\n        /* \"#utility.yul\":2138:2305   */\n    tag_75:\n        /* \"#utility.yul\":2278:2297   */\n      0x596f7520646f6e7420456c696769626c65000000000000000000000000000000\n        /* \"#utility.yul\":2274:2275   */\n      0x00\n        /* \"#utility.yul\":2266:2272   */\n      dup3\n        /* \"#utility.yul\":2262:2276   */\n      add\n        /* \"#utility.yul\":2255:2298   */\n      mstore\n        /* \"#utility.yul\":2138:2305   */\n      pop\n      jump\t// out\n        /* \"#utility.yul\":2311:2677   */\n    tag_76:\n        /* \"#utility.yul\":2453:2456   */\n      0x00\n        /* \"#utility.yul\":2474:2541   */\n      tag_108\n        /* \"#utility.yul\":2538:2540   */\n      0x11\n        /* \"#utility.yul\":2533:2536   */\n      dup4\n        /* \"#utility.yul\":2474:2541   */\n      tag_74\n      jump\t// in\n    tag_108:\n        /* \"#utility.yul\":2467:2541   */\n      swap2\n      pop\n        /* \"#utility.yul\":2550:2643   */\n      tag_109\n        /* \"#utility.yul\":2639:2642   */\n      dup3\n        /* \"#utility.yul\":2550:2643   */\n      tag_75\n      jump\t// in\n    tag_109:\n        /* \"#utility.yul\":2668:2670   */\n      0x20\n        /* \"#utility.yul\":2663:2666   */\n      dup3\n        /* \"#utility.yul\":2659:2671   */\n      add\n        /* \"#utility.yul\":2652:2671   */\n      swap1\n      pop\n        /* \"#utility.yul\":2311:2677   */\n      swap2\n      swap1\n      pop\n      jump\t// out\n        /* \"#utility.yul\":2683:3102   */\n    tag_53:\n        /* \"#utility.yul\":2849:2853   */\n      0x00\n        /* \"#utility.yul\":2887:2889   */\n      0x20\n        /* \"#utility.yul\":2876:2885   */\n      dup3\n        /* \"#utility.yul\":2872:2890   */\n      add\n        /* \"#utility.yul\":2864:2890   */\n      swap1\n      pop\n        /* \"#utility.yul\":2936:2945   */\n      dup2\n        /* \"#utility.yul\":2930:2934   */\n      dup2\n        /* \"#utility.yul\":2926:2946   */\n      sub\n        /* \"#utility.yul\":2922:2923   */\n      0x00\n        /* \"#utility.yul\":2911:2920   */\n      dup4\n        /* \"#utility.yul\":2907:2924   */\n      add\n        /* \"#utility.yul\":2900:2947   */\n      mstore\n        /* \"#utility.yul\":2964:3095   */\n      tag_111\n        /* \"#utility.yul\":3090:3094   */\n      dup2\n        /* \"#utility.yul\":2964:3095   */\n      tag_76\n      jump\t// in\n    tag_111:\n        /* \"#utility.yul\":2956:3095   */\n      swap1\n      pop\n        /* \"#utility.yul\":2683:3102   */\n      swap2\n      swap1\n      pop\n      jump\t// out\n        /* \"#utility.yul\":3108:3275   */\n    tag_77:\n        /* \"#utility.yul\":3248:3267   */\n      0x446561646c696e652068616420636f6d65000000000000000000000000000000\n        /* \"#utility.yul\":3244:3245   */\n      0x00\n        /* \"#utility.yul\":3236:3242   */\n      dup3\n        /* \"#utility.yul\":3232:3246   */\n      add\n        /* \"#utility.yul\":3225:3268   */\n      mstore\n        /* \"#utility.yul\":3108:3275   */\n      pop\n      jump\t// out\n        /* \"#utility.yul\":3281:3647   */\n    tag_78:\n        /* \"#utility.yul\":3423:3426   */\n      0x00\n        /* \"#utility.yul\":3444:3511   */\n      tag_114\n        /* \"#utility.yul\":3508:3510   */\n      0x11\n        /* \"#utility.yul\":3503:3506   */\n      dup4\n        /* \"#utility.yul\":3444:3511   */\n      tag_74\n      jump\t// in\n    tag_114:\n        /* \"#utility.yul\":3437:3511   */\n      swap2\n      pop\n        /* \"#utility.yul\":3520:3613   */\n      tag_115\n        /* \"#utility.yul\":3609:3612   */\n      dup3\n        /* \"#utility.yul\":3520:3613   */\n      tag_77\n      jump\t// in\n    tag_115:\n        /* \"#utility.yul\":3638:3640   */\n      0x20\n        /* \"#utility.yul\":3633:3636   */\n      dup3\n        /* \"#utility.yul\":3629:3641   */\n      add\n        /* \"#utility.yul\":3622:3641   */\n      swap1\n      pop\n        /* \"#utility.yul\":3281:3647   */\n      swap2\n      swap1\n      pop\n      jump\t// out\n        /* \"#utility.yul\":3653:4072   */\n    tag_56:\n        /* \"#utility.yul\":3819:3823   */\n      0x00\n        /* \"#utility.yul\":3857:3859   */\n      0x20\n        /* \"#utility.yul\":3846:3855   */\n      dup3\n        /* \"#utility.yul\":3842:3860   */\n      add\n        /* \"#utility.yul\":3834:3860   */\n      swap1\n      pop\n        /* \"#utility.yul\":3906:3915   */\n      dup2\n        /* \"#utility.yul\":3900:3904   */\n      dup2\n        /* \"#utility.yul\":3896:3916   */\n      sub\n        /* \"#utility.yul\":3892:3893   */\n      0x00\n        /* \"#utility.yul\":3881:3890   */\n      dup4\n        /* \"#utility.yul\":3877:3894   */\n      add\n        /* \"#utility.yul\":3870:3917   */\n      mstore\n        /* \"#utility.yul\":3934:4065   */\n      tag_117\n        /* \"#utility.yul\":4060:4064   */\n      dup2\n        /* \"#utility.yul\":3934:4065   */\n      tag_78\n      jump\t// in\n    tag_117:\n        /* \"#utility.yul\":3926:4065   */\n      swap1\n      pop\n        /* \"#utility.yul\":3653:4072   */\n      swap2\n      swap1\n      pop\n      jump\t// out\n        /* \"#utility.yul\":4078:4258   */\n    tag_79:\n        /* \"#utility.yul\":4126:4203   */\n      0x4e487b7100000000000000000000000000000000000000000000000000000000\n        /* \"#utility.yul\":4123:4124   */\n      0x00\n        /* \"#utility.yul\":4116:4204   */\n      mstore\n        /* \"#utility.yul\":4223:4227   */\n      0x11\n        /* \"#utility.yul\":4220:4221   */\n      0x04\n        /* \"#utility.yul\":4213:4228   */\n      mstore\n        /* \"#utility.yul\":4247:4251   */\n      0x24\n        /* \"#utility.yul\":4244:4245   */\n      0x00\n        /* \"#utility.yul\":4237:4252   */\n      revert\n        /* \"#utility.yul\":4264:4497   */\n    tag_59:\n        /* \"#utility.yul\":4303:4306   */\n      0x00\n        /* \"#utility.yul\":4326:4350   */\n      tag_120\n        /* \"#utility.yul\":4344:4349   */\n      dup3\n        /* \"#utility.yul\":4326:4350   */\n      tag_64\n      jump\t// in\n    tag_120:\n        /* \"#utility.yul\":4317:4350   */\n      swap2\n      pop\n        /* \"#utility.yul\":4372:4438   */\n      0xffffffffffffffffffffffffffffffffffffffffffffffffffffffffffffffff\n        /* \"#utility.yul\":4365:4370   */\n      dup3\n        /* \"#utility.yul\":4362:4439   */\n      sub\n        /* \"#utility.yul\":4359:4462   */\n      tag_121\n      jumpi\n        /* \"#utility.yul\":4442:4460   */\n      tag_122\n      tag_79\n      jump\t// in\n    tag_122:\n        /* \"#utility.yul\":4359:4462   */\n    tag_121:\n        /* \"#utility.yul\":4489:4490   */\n      0x01\n        /* \"#utility.yul\":4482:4487   */\n      dup3\n        /* \"#utility.yul\":4478:4491   */\n      add\n        /* \"#utility.yul\":4471:4491   */\n      swap1\n      pop\n        /* \"#utility.yul\":4264:4497   */\n      swap2\n      swap1\n      pop\n      jump\t// out\n        /* \"#utility.yul\":4503:4694   */\n    tag_61:\n        /* \"#utility.yul\":4543:4546   */\n      0x00\n        /* \"#utility.yul\":4562:4582   */\n      tag_124\n        /* \"#utility.yul\":4580:4581   */\n      dup3\n        /* \"#utility.yul\":4562:4582   */\n      tag_64\n      jump\t// in\n    tag_124:\n        /* \"#utility.yul\":4557:4582   */\n      swap2\n      pop\n        /* \"#utility.yul\":4596:4616   */\n      tag_125\n        /* \"#utility.yul\":4614:4615   */\n      dup4\n        /* \"#utility.yul\":4596:4616   */\n      tag_64\n      jump\t// in\n    tag_125:\n        /* \"#utility.yul\":4591:4616   */\n      swap3\n      pop\n        /* \"#utility.yul\":4639:4640   */\n      dup3\n        /* \"#utility.yul\":4636:4637   */\n      dup3\n        /* \"#utility.yul\":4632:4641   */\n      add\n        /* \"#utility.yul\":4625:4641   */\n      swap1\n      pop\n        /* \"#utility.yul\":4660:4663   */\n      dup1\n        /* \"#utility.yul\":4657:4658   */\n      dup3\n        /* \"#utility.yul\":4654:4664   */\n      gt\n        /* \"#utility.yul\":4651:4687   */\n      iszero\n      tag_126\n      jumpi\n        /* \"#utility.yul\":4667:4685   */\n      tag_127\n      tag_79\n      jump\t// in\n    tag_127:\n        /* \"#utility.yul\":4651:4687   */\n    tag_126:\n        /* \"#utility.yul\":4503:4694   */\n      swap3\n      swap2\n      pop\n      pop\n      jump\t// out\n\n    auxdata: 0xa264697066735822122084951b3b57eceed3c49af8b473a0bac4fb928f70579b3c72f930128d076697f364736f6c63430008110033\n}\n",
				"bytecode": {
					"linkReferences": {},
					"object": "608060405234801561001057600080fd5b506040516107f73803806107f7833981810160405281019061003291906100d6565b8160028190555080426100459190610145565b60058190555033600160006101000a81548173ffffffffffffffffffffffffffffffffffffffff021916908373ffffffffffffffffffffffffffffffffffffffff16021790555060646003819055505050610179565b600080fd5b6000819050919050565b6100b3816100a0565b81146100be57600080fd5b50565b6000815190506100d0816100aa565b92915050565b600080604083850312156100ed576100ec61009b565b5b60006100fb858286016100c1565b925050602061010c858286016100c1565b9150509250929050565b7f4e487b7100000000000000000000000000000000000000000000000000000000600052601160045260246000fd5b6000610150826100a0565b915061015b836100a0565b925082820190508082111561017357610172610116565b5b92915050565b61066f806101886000396000f3fe6080604052600436106100865760003560e01c8063469309e511610059578063469309e514610116578063481c6a7514610141578063632c1f391461016c5780638c9ffd40146101a9578063d4b83992146101d457610086565b806305759b4d1461008b57806306e99fef146100b657806312065fe0146100c057806329dcb0cf146100eb575b600080fd5b34801561009757600080fd5b506100a06101ff565b6040516100ad91906103d0565b60405180910390f35b6100be610205565b005b3480156100cc57600080fd5b506100d561035c565b6040516100e291906103d0565b60405180910390f35b3480156100f757600080fd5b50610100610361565b60405161010d91906103d0565b60405180910390f35b34801561012257600080fd5b5061012b610367565b60405161013891906103d0565b60405180910390f35b34801561014d57600080fd5b5061015661036d565b604051610163919061042c565b60405180910390f35b34801561017857600080fd5b50610193600480360381019061018e9190610478565b610393565b6040516101a091906103d0565b60405180910390f35b3480156101b557600080fd5b506101be6103ab565b6040516101cb91906103d0565b60405180910390f35b3480156101e057600080fd5b506101e96103b1565b6040516101f691906103d0565b60405180910390f35b60035481565b6064341015610249576040517f08c379a000000000000000000000000000000000000000000000000000000000815260040161024090610502565b60405180910390fd5b600554421061028d576040517f08c379a00000000000000000000000000000000000000000000000000000000081526004016102849061056e565b60405180910390fd5b60008060003373ffffffffffffffffffffffffffffffffffffffff1673ffffffffffffffffffffffffffffffffffffffff16815260200190815260200160002054036102ec57600660008154809291906102e6906105bd565b91905055505b346000803373ffffffffffffffffffffffffffffffffffffffff1673ffffffffffffffffffffffffffffffffffffffff168152602001908152602001600020600082825461033a9190610605565b9250508190555034600460008282546103539190610605565b92505081905550565b600090565b60055481565b60045481565b600160009054906101000a900473ffffffffffffffffffffffffffffffffffffffff1681565b60006020528060005260406000206000915090505481565b60065481565b60025481565b6000819050919050565b6103ca816103b7565b82525050565b60006020820190506103e560008301846103c1565b92915050565b600073ffffffffffffffffffffffffffffffffffffffff82169050919050565b6000610416826103eb565b9050919050565b6104268161040b565b82525050565b6000602082019050610441600083018461041d565b92915050565b600080fd5b6104558161040b565b811461046057600080fd5b50565b6000813590506104728161044c565b92915050565b60006020828403121561048e5761048d610447565b5b600061049c84828501610463565b91505092915050565b600082825260208201905092915050565b7f596f7520646f6e7420456c696769626c65000000000000000000000000000000600082015250565b60006104ec6011836104a5565b91506104f7826104b6565b602082019050919050565b6000602082019050818103600083015261051b816104df565b9050919050565b7f446561646c696e652068616420636f6d65000000000000000000000000000000600082015250565b60006105586011836104a5565b915061056382610522565b602082019050919050565b600060208201905081810360008301526105878161054b565b9050919050565b7f4e487b7100000000000000000000000000000000000000000000000000000000600052601160045260246000fd5b60006105c8826103b7565b91507fffffffffffffffffffffffffffffffffffffffffffffffffffffffffffffffff82036105fa576105f961058e565b5b600182019050919050565b6000610610826103b7565b915061061b836103b7565b92508282019050808211156106335761063261058e565b5b9291505056fea264697066735822122084951b3b57eceed3c49af8b473a0bac4fb928f70579b3c72f930128d076697f364736f6c63430008110033",
					"opcodes": "PUSH1 0x80 PUSH1 0x40 MSTORE CALLVALUE DUP1 ISZERO PUSH2 0x10 JUMPI PUSH1 0x0 DUP1 REVERT JUMPDEST POP PUSH1 0x40 MLOAD PUSH2 0x7F7 CODESIZE SUB DUP1 PUSH2 0x7F7 DUP4 CODECOPY DUP2 DUP2 ADD PUSH1 0x40 MSTORE DUP2 ADD SWAP1 PUSH2 0x32 SWAP2 SWAP1 PUSH2 0xD6 JUMP JUMPDEST DUP2 PUSH1 0x2 DUP2 SWAP1 SSTORE POP DUP1 TIMESTAMP PUSH2 0x45 SWAP2 SWAP1 PUSH2 0x145 JUMP JUMPDEST PUSH1 0x5 DUP2 SWAP1 SSTORE POP CALLER PUSH1 0x1 PUSH1 0x0 PUSH2 0x100 EXP DUP2 SLOAD DUP2 PUSH20 0xFFFFFFFFFFFFFFFFFFFFFFFFFFFFFFFFFFFFFFFF MUL NOT AND SWAP1 DUP4 PUSH20 0xFFFFFFFFFFFFFFFFFFFFFFFFFFFFFFFFFFFFFFFF AND MUL OR SWAP1 SSTORE POP PUSH1 0x64 PUSH1 0x3 DUP2 SWAP1 SSTORE POP POP POP PUSH2 0x179 JUMP JUMPDEST PUSH1 0x0 DUP1 REVERT JUMPDEST PUSH1 0x0 DUP2 SWAP1 POP SWAP2 SWAP1 POP JUMP JUMPDEST PUSH2 0xB3 DUP2 PUSH2 0xA0 JUMP JUMPDEST DUP2 EQ PUSH2 0xBE JUMPI PUSH1 0x0 DUP1 REVERT JUMPDEST POP JUMP JUMPDEST PUSH1 0x0 DUP2 MLOAD SWAP1 POP PUSH2 0xD0 DUP2 PUSH2 0xAA JUMP JUMPDEST SWAP3 SWAP2 POP POP JUMP JUMPDEST PUSH1 0x0 DUP1 PUSH1 0x40 DUP4 DUP6 SUB SLT ISZERO PUSH2 0xED JUMPI PUSH2 0xEC PUSH2 0x9B JUMP JUMPDEST JUMPDEST PUSH1 0x0 PUSH2 0xFB DUP6 DUP3 DUP7 ADD PUSH2 0xC1 JUMP JUMPDEST SWAP3 POP POP PUSH1 0x20 PUSH2 0x10C DUP6 DUP3 DUP7 ADD PUSH2 0xC1 JUMP JUMPDEST SWAP2 POP POP SWAP3 POP SWAP3 SWAP1 POP JUMP JUMPDEST PUSH32 0x4E487B7100000000000000000000000000000000000000000000000000000000 PUSH1 0x0 MSTORE PUSH1 0x11 PUSH1 0x4 MSTORE PUSH1 0x24 PUSH1 0x0 REVERT JUMPDEST PUSH1 0x0 PUSH2 0x150 DUP3 PUSH2 0xA0 JUMP JUMPDEST SWAP2 POP PUSH2 0x15B DUP4 PUSH2 0xA0 JUMP JUMPDEST SWAP3 POP DUP3 DUP3 ADD SWAP1 POP DUP1 DUP3 GT ISZERO PUSH2 0x173 JUMPI PUSH2 0x172 PUSH2 0x116 JUMP JUMPDEST JUMPDEST SWAP3 SWAP2 POP POP JUMP JUMPDEST PUSH2 0x66F DUP1 PUSH2 0x188 PUSH1 0x0 CODECOPY PUSH1 0x0 RETURN INVALID PUSH1 0x80 PUSH1 0x40 MSTORE PUSH1 0x4 CALLDATASIZE LT PUSH2 0x86 JUMPI PUSH1 0x0 CALLDATALOAD PUSH1 0xE0 SHR DUP1 PUSH4 0x469309E5 GT PUSH2 0x59 JUMPI DUP1 PUSH4 0x469309E5 EQ PUSH2 0x116 JUMPI DUP1 PUSH4 0x481C6A75 EQ PUSH2 0x141 JUMPI DUP1 PUSH4 0x632C1F39 EQ PUSH2 0x16C JUMPI DUP1 PUSH4 0x8C9FFD40 EQ PUSH2 0x1A9 JUMPI DUP1 PUSH4 0xD4B83992 EQ PUSH2 0x1D4 JUMPI PUSH2 0x86 JUMP JUMPDEST DUP1 PUSH4 0x5759B4D EQ PUSH2 0x8B JUMPI DUP1 PUSH4 0x6E99FEF EQ PUSH2 0xB6 JUMPI DUP1 PUSH4 0x12065FE0 EQ PUSH2 0xC0 JUMPI DUP1 PUSH4 0x29DCB0CF EQ PUSH2 0xEB JUMPI JUMPDEST PUSH1 0x0 DUP1 REVERT JUMPDEST CALLVALUE DUP1 ISZERO PUSH2 0x97 JUMPI PUSH1 0x0 DUP1 REVERT JUMPDEST POP PUSH2 0xA0 PUSH2 0x1FF JUMP JUMPDEST PUSH1 0x40 MLOAD PUSH2 0xAD SWAP2 SWAP1 PUSH2 0x3D0 JUMP JUMPDEST PUSH1 0x40 MLOAD DUP1 SWAP2 SUB SWAP1 RETURN JUMPDEST PUSH2 0xBE PUSH2 0x205 JUMP JUMPDEST STOP JUMPDEST CALLVALUE DUP1 ISZERO PUSH2 0xCC JUMPI PUSH1 0x0 DUP1 REVERT JUMPDEST POP PUSH2 0xD5 PUSH2 0x35C JUMP JUMPDEST PUSH1 0x40 MLOAD PUSH2 0xE2 SWAP2 SWAP1 PUSH2 0x3D0 JUMP JUMPDEST PUSH1 0x40 MLOAD DUP1 SWAP2 SUB SWAP1 RETURN JUMPDEST CALLVALUE DUP1 ISZERO PUSH2 0xF7 JUMPI PUSH1 0x0 DUP1 REVERT JUMPDEST POP PUSH2 0x100 PUSH2 0x361 JUMP JUMPDEST PUSH1 0x40 MLOAD PUSH2 0x10D SWAP2 SWAP1 PUSH2 0x3D0 JUMP JUMPDEST PUSH1 0x40 MLOAD DUP1 SWAP2 SUB SWAP1 RETURN JUMPDEST CALLVALUE DUP1 ISZERO PUSH2 0x122 JUMPI PUSH1 0x0 DUP1 REVERT JUMPDEST POP PUSH2 0x12B PUSH2 0x367 JUMP JUMPDEST PUSH1 0x40 MLOAD PUSH2 0x138 SWAP2 SWAP1 PUSH2 0x3D0 JUMP JUMPDEST PUSH1 0x40 MLOAD DUP1 SWAP2 SUB SWAP1 RETURN JUMPDEST CALLVALUE DUP1 ISZERO PUSH2 0x14D JUMPI PUSH1 0x0 DUP1 REVERT JUMPDEST POP PUSH2 0x156 PUSH2 0x36D JUMP JUMPDEST PUSH1 0x40 MLOAD PUSH2 0x163 SWAP2 SWAP1 PUSH2 0x42C JUMP JUMPDEST PUSH1 0x40 MLOAD DUP1 SWAP2 SUB SWAP1 RETURN JUMPDEST CALLVALUE DUP1 ISZERO PUSH2 0x178 JUMPI PUSH1 0x0 DUP1 REVERT JUMPDEST POP PUSH2 0x193 PUSH1 0x4 DUP1 CALLDATASIZE SUB DUP2 ADD SWAP1 PUSH2 0x18E SWAP2 SWAP1 PUSH2 0x478 JUMP JUMPDEST PUSH2 0x393 JUMP JUMPDEST PUSH1 0x40 MLOAD PUSH2 0x1A0 SWAP2 SWAP1 PUSH2 0x3D0 JUMP JUMPDEST PUSH1 0x40 MLOAD DUP1 SWAP2 SUB SWAP1 RETURN JUMPDEST CALLVALUE DUP1 ISZERO PUSH2 0x1B5 JUMPI PUSH1 0x0 DUP1 REVERT JUMPDEST POP PUSH2 0x1BE PUSH2 0x3AB JUMP JUMPDEST PUSH1 0x40 MLOAD PUSH2 0x1CB SWAP2 SWAP1 PUSH2 0x3D0 JUMP JUMPDEST PUSH1 0x40 MLOAD DUP1 SWAP2 SUB SWAP1 RETURN JUMPDEST CALLVALUE DUP1 ISZERO PUSH2 0x1E0 JUMPI PUSH1 0x0 DUP1 REVERT JUMPDEST POP PUSH2 0x1E9 PUSH2 0x3B1 JUMP JUMPDEST PUSH1 0x40 MLOAD PUSH2 0x1F6 SWAP2 SWAP1 PUSH2 0x3D0 JUMP JUMPDEST PUSH1 0x40 MLOAD DUP1 SWAP2 SUB SWAP1 RETURN JUMPDEST PUSH1 0x3 SLOAD DUP2 JUMP JUMPDEST PUSH1 0x64 CALLVALUE LT ISZERO PUSH2 0x249 JUMPI PUSH1 0x40 MLOAD PUSH32 0x8C379A000000000000000000000000000000000000000000000000000000000 DUP2 MSTORE PUSH1 0x4 ADD PUSH2 0x240 SWAP1 PUSH2 0x502 JUMP JUMPDEST PUSH1 0x40 MLOAD DUP1 SWAP2 SUB SWAP1 REVERT JUMPDEST PUSH1 0x5 SLOAD TIMESTAMP LT PUSH2 0x28D JUMPI PUSH1 0x40 MLOAD PUSH32 0x8C379A000000000000000000000000000000000000000000000000000000000 DUP2 MSTORE PUSH1 0x4 ADD PUSH2 0x284 SWAP1 PUSH2 0x56E JUMP JUMPDEST PUSH1 0x40 MLOAD DUP1 SWAP2 SUB SWAP1 REVERT JUMPDEST PUSH1 0x0 DUP1 PUSH1 0x0 CALLER PUSH20 0xFFFFFFFFFFFFFFFFFFFFFFFFFFFFFFFFFFFFFFFF AND PUSH20 0xFFFFFFFFFFFFFFFFFFFFFFFFFFFFFFFFFFFFFFFF AND DUP2 MSTORE PUSH1 0x20 ADD SWAP1 DUP2 MSTORE PUSH1 0x20 ADD PUSH1 0x0 KECCAK256 SLOAD SUB PUSH2 0x2EC JUMPI PUSH1 0x6 PUSH1 0x0 DUP2 SLOAD DUP1 SWAP3 SWAP2 SWAP1 PUSH2 0x2E6 SWAP1 PUSH2 0x5BD JUMP JUMPDEST SWAP2 SWAP1 POP SSTORE POP JUMPDEST CALLVALUE PUSH1 0x0 DUP1 CALLER PUSH20 0xFFFFFFFFFFFFFFFFFFFFFFFFFFFFFFFFFFFFFFFF AND PUSH20 0xFFFFFFFFFFFFFFFFFFFFFFFFFFFFFFFFFFFFFFFF AND DUP2 MSTORE PUSH1 0x20 ADD SWAP1 DUP2 MSTORE PUSH1 0x20 ADD PUSH1 0x0 KECCAK256 PUSH1 0x0 DUP3 DUP3 SLOAD PUSH2 0x33A SWAP2 SWAP1 PUSH2 0x605 JUMP JUMPDEST SWAP3 POP POP DUP2 SWAP1 SSTORE POP CALLVALUE PUSH1 0x4 PUSH1 0x0 DUP3 DUP3 SLOAD PUSH2 0x353 SWAP2 SWAP1 PUSH2 0x605 JUMP JUMPDEST SWAP3 POP POP DUP2 SWAP1 SSTORE POP JUMP JUMPDEST PUSH1 0x0 SWAP1 JUMP JUMPDEST PUSH1 0x5 SLOAD DUP2 JUMP JUMPDEST PUSH1 0x4 SLOAD DUP2 JUMP JUMPDEST PUSH1 0x1 PUSH1 0x0 SWAP1 SLOAD SWAP1 PUSH2 0x100 EXP SWAP1 DIV PUSH20 0xFFFFFFFFFFFFFFFFFFFFFFFFFFFFFFFFFFFFFFFF AND DUP2 JUMP JUMPDEST PUSH1 0x0 PUSH1 0x20 MSTORE DUP1 PUSH1 0x0 MSTORE PUSH1 0x40 PUSH1 0x0 KECCAK256 PUSH1 0x0 SWAP2 POP SWAP1 POP SLOAD DUP2 JUMP JUMPDEST PUSH1 0x6 SLOAD DUP2 JUMP JUMPDEST PUSH1 0x2 SLOAD DUP2 JUMP JUMPDEST PUSH1 0x0 DUP2 SWAP1 POP SWAP2 SWAP1 POP JUMP JUMPDEST PUSH2 0x3CA DUP2 PUSH2 0x3B7 JUMP JUMPDEST DUP3 MSTORE POP POP JUMP JUMPDEST PUSH1 0x0 PUSH1 0x20 DUP3 ADD SWAP1 POP PUSH2 0x3E5 PUSH1 0x0 DUP4 ADD DUP5 PUSH2 0x3C1 JUMP JUMPDEST SWAP3 SWAP2 POP POP JUMP JUMPDEST PUSH1 0x0 PUSH20 0xFFFFFFFFFFFFFFFFFFFFFFFFFFFFFFFFFFFFFFFF DUP3 AND SWAP1 POP SWAP2 SWAP1 POP JUMP JUMPDEST PUSH1 0x0 PUSH2 0x416 DUP3 PUSH2 0x3EB JUMP JUMPDEST SWAP1 POP SWAP2 SWAP1 POP JUMP JUMPDEST PUSH2 0x426 DUP2 PUSH2 0x40B JUMP JUMPDEST DUP3 MSTORE POP POP JUMP JUMPDEST PUSH1 0x0 PUSH1 0x20 DUP3 ADD SWAP1 POP PUSH2 0x441 PUSH1 0x0 DUP4 ADD DUP5 PUSH2 0x41D JUMP JUMPDEST SWAP3 SWAP2 POP POP JUMP JUMPDEST PUSH1 0x0 DUP1 REVERT JUMPDEST PUSH2 0x455 DUP2 PUSH2 0x40B JUMP JUMPDEST DUP2 EQ PUSH2 0x460 JUMPI PUSH1 0x0 DUP1 REVERT JUMPDEST POP JUMP JUMPDEST PUSH1 0x0 DUP2 CALLDATALOAD SWAP1 POP PUSH2 0x472 DUP2 PUSH2 0x44C JUMP JUMPDEST SWAP3 SWAP2 POP POP JUMP JUMPDEST PUSH1 0x0 PUSH1 0x20 DUP3 DUP5 SUB SLT ISZERO PUSH2 0x48E JUMPI PUSH2 0x48D PUSH2 0x447 JUMP JUMPDEST JUMPDEST PUSH1 0x0 PUSH2 0x49C DUP5 DUP3 DUP6 ADD PUSH2 0x463 JUMP JUMPDEST SWAP2 POP POP SWAP3 SWAP2 POP POP JUMP JUMPDEST PUSH1 0x0 DUP3 DUP3 MSTORE PUSH1 0x20 DUP3 ADD SWAP1 POP SWAP3 SWAP2 POP POP JUMP JUMPDEST PUSH32 0x596F7520646F6E7420456C696769626C65000000000000000000000000000000 PUSH1 0x0 DUP3 ADD MSTORE POP JUMP JUMPDEST PUSH1 0x0 PUSH2 0x4EC PUSH1 0x11 DUP4 PUSH2 0x4A5 JUMP JUMPDEST SWAP2 POP PUSH2 0x4F7 DUP3 PUSH2 0x4B6 JUMP JUMPDEST PUSH1 0x20 DUP3 ADD SWAP1 POP SWAP2 SWAP1 POP JUMP JUMPDEST PUSH1 0x0 PUSH1 0x20 DUP3 ADD SWAP1 POP DUP2 DUP2 SUB PUSH1 0x0 DUP4 ADD MSTORE PUSH2 0x51B DUP2 PUSH2 0x4DF JUMP JUMPDEST SWAP1 POP SWAP2 SWAP1 POP JUMP JUMPDEST PUSH32 0x446561646C696E652068616420636F6D65000000000000000000000000000000 PUSH1 0x0 DUP3 ADD MSTORE POP JUMP JUMPDEST PUSH1 0x0 PUSH2 0x558 PUSH1 0x11 DUP4 PUSH2 0x4A5 JUMP JUMPDEST SWAP2 POP PUSH2 0x563 DUP3 PUSH2 0x522 JUMP JUMPDEST PUSH1 0x20 DUP3 ADD SWAP1 POP SWAP2 SWAP1 POP JUMP JUMPDEST PUSH1 0x0 PUSH1 0x20 DUP3 ADD SWAP1 POP DUP2 DUP2 SUB PUSH1 0x0 DUP4 ADD MSTORE PUSH2 0x587 DUP2 PUSH2 0x54B JUMP JUMPDEST SWAP1 POP SWAP2 SWAP1 POP JUMP JUMPDEST PUSH32 0x4E487B7100000000000000000000000000000000000000000000000000000000 PUSH1 0x0 MSTORE PUSH1 0x11 PUSH1 0x4 MSTORE PUSH1 0x24 PUSH1 0x0 REVERT JUMPDEST PUSH1 0x0 PUSH2 0x5C8 DUP3 PUSH2 0x3B7 JUMP JUMPDEST SWAP2 POP PUSH32 0xFFFFFFFFFFFFFFFFFFFFFFFFFFFFFFFFFFFFFFFFFFFFFFFFFFFFFFFFFFFFFFFF DUP3 SUB PUSH2 0x5FA JUMPI PUSH2 0x5F9 PUSH2 0x58E JUMP JUMPDEST JUMPDEST PUSH1 0x1 DUP3 ADD SWAP1 POP SWAP2 SWAP1 POP JUMP JUMPDEST PUSH1 0x0 PUSH2 0x610 DUP3 PUSH2 0x3B7 JUMP JUMPDEST SWAP2 POP PUSH2 0x61B DUP4 PUSH2 0x3B7 JUMP JUMPDEST SWAP3 POP DUP3 DUP3 ADD SWAP1 POP DUP1 DUP3 GT ISZERO PUSH2 0x633 JUMPI PUSH2 0x632 PUSH2 0x58E JUMP JUMPDEST JUMPDEST SWAP3 SWAP2 POP POP JUMP INVALID LOG2 PUSH5 0x6970667358 0x22 SLT KECCAK256 DUP5 SWAP6 SHL EXTCODESIZE JUMPI 0xEC 0xEE 0xD3 0xC4 SWAP11 0xF8 0xB4 PUSH20 0xA0BAC4FB928F70579B3C72F930128D076697F364 PUSH20 0x6F6C634300081100330000000000000000000000 "
				},
				"gasEstimates": {
					"creation": {
						"codeDepositCost": "329400",
						"executionCost": "infinite",
						"totalCost": "infinite"
					},
					"external": {
						"conntributors(address)": "2858",
						"deadline()": "2496",
						"getBalance()": "374",
						"manager()": "2536",
						"miniContribution()": "2430",
						"noOfContributor()": "2495",
						"raisedAmnt()": "2429",
						"sendEth()": "infinite",
						"target()": "2517"
					}
				},
				"methodIdentifiers": {
					"conntributors(address)": "632c1f39",
					"deadline()": "29dcb0cf",
					"getBalance()": "12065fe0",
					"manager()": "481c6a75",
					"miniContribution()": "05759b4d",
					"noOfContributor()": "8c9ffd40",
					"raisedAmnt()": "469309e5",
					"sendEth()": "06e99fef",
					"target()": "d4b83992"
				}
			},
			"storageLayout": {
				"storage": [
					{
						"astId": 5,
						"contract": "Crowd.sol:crowdFunding",
						"label": "conntributors",
						"offset": 0,
						"slot": "0",
						"type": "t_mapping(t_address,t_uint256)"
					},
					{
						"astId": 7,
						"contract": "Crowd.sol:crowdFunding",
						"label": "manager",
						"offset": 0,
						"slot": "1",
						"type": "t_address"
					},
					{
						"astId": 9,
						"contract": "Crowd.sol:crowdFunding",
						"label": "target",
						"offset": 0,
						"slot": "2",
						"type": "t_uint256"
					},
					{
						"astId": 11,
						"contract": "Crowd.sol:crowdFunding",
						"label": "miniContribution",
						"offset": 0,
						"slot": "3",
						"type": "t_uint256"
					},
					{
						"astId": 13,
						"contract": "Crowd.sol:crowdFunding",
						"label": "raisedAmnt",
						"offset": 0,
						"slot": "4",
						"type": "t_uint256"
					},
					{
						"astId": 15,
						"contract": "Crowd.sol:crowdFunding",
						"label": "deadline",
						"offset": 0,
						"slot": "5",
						"type": "t_uint256"
					},
					{
						"astId": 17,
						"contract": "Crowd.sol:crowdFunding",
						"label": "noOfContributor",
						"offset": 0,
						"slot": "6",
						"type": "t_uint256"
					}
				],
				"types": {
					"t_address": {
						"encoding": "inplace",
						"label": "address",
						"numberOfBytes": "20"
					},
					"t_mapping(t_address,t_uint256)": {
						"encoding": "mapping",
						"key": "t_address",
						"label": "mapping(address => uint256)",
						"numberOfBytes": "32",
						"value": "t_uint256"
					},
					"t_uint256": {
						"encoding": "inplace",
						"label": "uint256",
						"numberOfBytes": "32"
					}
				}
			},
			"userdoc": {
				"kind": "user",
				"methods": {},
				"version": 1
			}
		}
	}
}