{
	"Bakery.sol": {
		"bakery": {
			"abi": [
				{
					"inputs": [],
					"stateMutability": "nonpayable",
					"type": "constructor"
				},
				{
					"inputs": [],
					"name": "getBlance",
					"outputs": [
						{
							"internalType": "uint256",
							"name": "",
							"type": "uint256"
						}
					],
					"stateMutability": "view",
					"type": "function"
				},
				{
					"inputs": [
						{
							"internalType": "string",
							"name": "_meal",
							"type": "string"
						}
					],
					"name": "getMeal",
					"outputs": [
						{
							"internalType": "string",
							"name": "",
							"type": "string"
						}
					],
					"stateMutability": "nonpayable",
					"type": "function"
				},
				{
					"inputs": [],
					"name": "meal",
					"outputs": [
						{
							"internalType": "string",
							"name": "",
							"type": "string"
						}
					],
					"stateMutability": "view",
					"type": "function"
				},
				{
					"inputs": [],
					"name": "owner",
					"outputs": [
						{
							"internalType": "address",
							"name": "",
							"type": "address"
						}
					],
					"stateMutability": "view",
					"type": "function"
				},
				{
					"inputs": [],
					"name": "sendSa",
					"outputs": [
						{
							"internalType": "uint256",
							"name": "",
							"type": "uint256"
						}
					],
					"stateMutability": "payable",
					"type": "function"
				},
				{
					"inputs": [],
					"name": "transf",
					"outputs": [],
					"stateMutability": "nonpayable",
					"type": "function"
				},
				{
					"stateMutability": "payable",
					"type": "receive"
				}
			],
			"devdoc": {
				"kind": "dev",
				"methods": {},
				"version": 1
			},
			"evm": {
				"assembly": "    /* \"Bakery.sol\":74:891  contract bakery{... */\n  mstore(0x40, 0x80)\n    /* \"Bakery.sol\":131:173  0x78731D3Ca6b7E34aC0F824c42a7cC18A495cabaB */\n  0x78731d3ca6b7e34ac0f824c42a7cc18a495cabab\n    /* \"Bakery.sol\":96:174  address payable thirdParty=payable(0x78731D3Ca6b7E34aC0F824c42a7cC18A495cabaB) */\n  0x00\n  dup1\n  0x0100\n  exp\n  dup2\n  sload\n  dup2\n  0xffffffffffffffffffffffffffffffffffffffff\n  mul\n  not\n  and\n  swap1\n  dup4\n  0xffffffffffffffffffffffffffffffffffffffff\n  and\n  mul\n  or\n  swap1\n  sstore\n  pop\n    /* \"Bakery.sol\":215:257  0xAb8483F64d9C6d1EcF9b849Ae677dD3315835cb2 */\n  0xab8483f64d9c6d1ecf9b849ae677dd3315835cb2\n    /* \"Bakery.sol\":181:258  address payable salesMan=payable (0xAb8483F64d9C6d1EcF9b849Ae677dD3315835cb2) */\n  0x01\n  exp(0x0100, 0x00)\n  dup2\n  sload\n  dup2\n  0xffffffffffffffffffffffffffffffffffffffff\n  mul\n  not\n  and\n  swap1\n  dup4\n  0xffffffffffffffffffffffffffffffffffffffff\n  and\n  mul\n  or\n  swap1\n  sstore\n  pop\n    /* \"Bakery.sol\":319:374  constructor ()... */\n  callvalue\n  dup1\n  iszero\n  tag_1\n  jumpi\n  0x00\n  dup1\n  revert\ntag_1:\n  pop\n    /* \"Bakery.sol\":356:366  msg.sender */\n  caller\n    /* \"Bakery.sol\":350:355  owner */\n  0x02\n  0x00\n    /* \"Bakery.sol\":350:366  owner=msg.sender */\n  0x0100\n  exp\n  dup2\n  sload\n  dup2\n  0xffffffffffffffffffffffffffffffffffffffff\n  mul\n  not\n  and\n  swap1\n  dup4\n  0xffffffffffffffffffffffffffffffffffffffff\n  and\n  mul\n  or\n  swap1\n  sstore\n  pop\n    /* \"Bakery.sol\":74:891  contract bakery{... */\n  dataSize(sub_0)\n  dup1\n  dataOffset(sub_0)\n  0x00\n  codecopy\n  0x00\n  return\nstop\n\nsub_0: assembly {\n        /* \"Bakery.sol\":74:891  contract bakery{... */\n      mstore(0x40, 0x80)\n      jumpi(tag_1, lt(calldatasize, 0x04))\n      shr(0xe0, calldataload(0x00))\n      dup1\n      0x049f3743\n      eq\n      tag_3\n      jumpi\n      dup1\n      0x06f2d7f3\n      eq\n      tag_4\n      jumpi\n      dup1\n      0x529522a9\n      eq\n      tag_5\n      jumpi\n      dup1\n      0x8da5cb5b\n      eq\n      tag_6\n      jumpi\n      dup1\n      0x941be5f7\n      eq\n      tag_7\n      jumpi\n      dup1\n      0xc84e45c7\n      eq\n      tag_8\n      jumpi\n      jump(tag_2)\n    tag_1:\n      jumpi(tag_2, calldatasize)\n        /* \"Bakery.sol\":552:557  owner */\n      0x02\n      0x00\n      swap1\n      sload\n      swap1\n      0x0100\n      exp\n      swap1\n      div\n      0xffffffffffffffffffffffffffffffffffffffff\n      and\n        /* \"Bakery.sol\":540:557  msg.sender==owner */\n      0xffffffffffffffffffffffffffffffffffffffff\n      and\n        /* \"Bakery.sol\":540:550  msg.sender */\n      caller\n        /* \"Bakery.sol\":540:557  msg.sender==owner */\n      0xffffffffffffffffffffffffffffffffffffffff\n      and\n      eq\n        /* \"Bakery.sol\":532:558  require(msg.sender==owner) */\n      tag_11\n      jumpi\n      0x00\n      dup1\n      revert\n    tag_11:\n        /* \"Bakery.sol\":74:891  contract bakery{... */\n      stop\n    tag_2:\n      0x00\n      dup1\n      revert\n        /* \"Bakery.sol\":826:886  function sendSa() public payable returns(uint)... */\n    tag_3:\n      tag_12\n      tag_13\n      jump\t// in\n    tag_12:\n      mload(0x40)\n      tag_14\n      swap2\n      swap1\n      tag_15\n      jump\t// in\n    tag_14:\n      mload(0x40)\n      dup1\n      swap2\n      sub\n      swap1\n      return\n        /* \"Bakery.sol\":710:819  function getMeal(string memory _meal) public returns(string memory)... */\n    tag_4:\n      callvalue\n      dup1\n      iszero\n      tag_16\n      jumpi\n      0x00\n      dup1\n      revert\n    tag_16:\n      pop\n      tag_17\n      0x04\n      dup1\n      calldatasize\n      sub\n      dup2\n      add\n      swap1\n      tag_18\n      swap2\n      swap1\n      tag_19\n      jump\t// in\n    tag_18:\n      tag_20\n      jump\t// in\n    tag_17:\n      mload(0x40)\n      tag_21\n      swap2\n      swap1\n      tag_22\n      jump\t// in\n    tag_21:\n      mload(0x40)\n      dup1\n      swap2\n      sub\n      swap1\n      return\n        /* \"Bakery.sol\":292:310  string public meal */\n    tag_5:\n      callvalue\n      dup1\n      iszero\n      tag_23\n      jumpi\n      0x00\n      dup1\n      revert\n    tag_23:\n      pop\n      tag_24\n      tag_25\n      jump\t// in\n    tag_24:\n      mload(0x40)\n      tag_26\n      swap2\n      swap1\n      tag_22\n      jump\t// in\n    tag_26:\n      mload(0x40)\n      dup1\n      swap2\n      sub\n      swap1\n      return\n        /* \"Bakery.sol\":265:285  address public owner */\n    tag_6:\n      callvalue\n      dup1\n      iszero\n      tag_27\n      jumpi\n      0x00\n      dup1\n      revert\n    tag_27:\n      pop\n      tag_28\n      tag_29\n      jump\t// in\n    tag_28:\n      mload(0x40)\n      tag_30\n      swap2\n      swap1\n      tag_31\n      jump\t// in\n    tag_30:\n      mload(0x40)\n      dup1\n      swap2\n      sub\n      swap1\n      return\n        /* \"Bakery.sol\":382:481  function getBlance() view public returns(uint)... */\n    tag_7:\n      callvalue\n      dup1\n      iszero\n      tag_32\n      jumpi\n      0x00\n      dup1\n      revert\n    tag_32:\n      pop\n      tag_33\n      tag_34\n      jump\t// in\n    tag_33:\n      mload(0x40)\n      tag_35\n      swap2\n      swap1\n      tag_15\n      jump\t// in\n    tag_35:\n      mload(0x40)\n      dup1\n      swap2\n      sub\n      swap1\n      return\n        /* \"Bakery.sol\":576:702  function transf() public ... */\n    tag_8:\n      callvalue\n      dup1\n      iszero\n      tag_36\n      jumpi\n      0x00\n      dup1\n      revert\n    tag_36:\n      pop\n      tag_37\n      tag_38\n      jump\t// in\n    tag_37:\n      stop\n        /* \"Bakery.sol\":826:886  function sendSa() public payable returns(uint)... */\n    tag_13:\n        /* \"Bakery.sol\":867:871  uint */\n      0x00\n        /* \"Bakery.sol\":826:886  function sendSa() public payable returns(uint)... */\n      swap1\n      jump\t// out\n        /* \"Bakery.sol\":710:819  function getMeal(string memory _meal) public returns(string memory)... */\n    tag_20:\n        /* \"Bakery.sol\":763:776  string memory */\n      0x60\n        /* \"Bakery.sol\":806:811  _meal */\n      dup2\n        /* \"Bakery.sol\":801:805  meal */\n      0x03\n        /* \"Bakery.sol\":801:811  meal=_meal */\n      swap1\n      dup2\n      tag_41\n      swap2\n      swap1\n      tag_42\n      jump\t// in\n    tag_41:\n        /* \"Bakery.sol\":794:811  return meal=_meal */\n      dup1\n      sload\n      tag_43\n      swap1\n      tag_44\n      jump\t// in\n    tag_43:\n      dup1\n      0x1f\n      add\n      0x20\n      dup1\n      swap2\n      div\n      mul\n      0x20\n      add\n      mload(0x40)\n      swap1\n      dup2\n      add\n      0x40\n      mstore\n      dup1\n      swap3\n      swap2\n      swap1\n      dup2\n      dup2\n      mstore\n      0x20\n      add\n      dup3\n      dup1\n      sload\n      tag_45\n      swap1\n      tag_44\n      jump\t// in\n    tag_45:\n      dup1\n      iszero\n      tag_46\n      jumpi\n      dup1\n      0x1f\n      lt\n      tag_47\n      jumpi\n      0x0100\n      dup1\n      dup4\n      sload\n      div\n      mul\n      dup4\n      mstore\n      swap2\n      0x20\n      add\n      swap2\n      jump(tag_46)\n    tag_47:\n      dup3\n      add\n      swap2\n      swap1\n      0x00\n      mstore\n      keccak256(0x00, 0x20)\n      swap1\n    tag_48:\n      dup2\n      sload\n      dup2\n      mstore\n      swap1\n      0x01\n      add\n      swap1\n      0x20\n      add\n      dup1\n      dup4\n      gt\n      tag_48\n      jumpi\n      dup3\n      swap1\n      sub\n      0x1f\n      and\n      dup3\n      add\n      swap2\n    tag_46:\n      pop\n      pop\n      pop\n      pop\n      pop\n      swap1\n      pop\n        /* \"Bakery.sol\":710:819  function getMeal(string memory _meal) public returns(string memory)... */\n      swap2\n      swap1\n      pop\n      jump\t// out\n        /* \"Bakery.sol\":292:310  string public meal */\n    tag_25:\n      0x03\n      dup1\n      sload\n      tag_49\n      swap1\n      tag_44\n      jump\t// in\n    tag_49:\n      dup1\n      0x1f\n      add\n      0x20\n      dup1\n      swap2\n      div\n      mul\n      0x20\n      add\n      mload(0x40)\n      swap1\n      dup2\n      add\n      0x40\n      mstore\n      dup1\n      swap3\n      swap2\n      swap1\n      dup2\n      dup2\n      mstore\n      0x20\n      add\n      dup3\n      dup1\n      sload\n      tag_50\n      swap1\n      tag_44\n      jump\t// in\n    tag_50:\n      dup1\n      iszero\n      tag_51\n      jumpi\n      dup1\n      0x1f\n      lt\n      tag_52\n      jumpi\n      0x0100\n      dup1\n      dup4\n      sload\n      div\n      mul\n      dup4\n      mstore\n      swap2\n      0x20\n      add\n      swap2\n      jump(tag_51)\n    tag_52:\n      dup3\n      add\n      swap2\n      swap1\n      0x00\n      mstore\n      keccak256(0x00, 0x20)\n      swap1\n    tag_53:\n      dup2\n      sload\n      dup2\n      mstore\n      swap1\n      0x01\n      add\n      swap1\n      0x20\n      add\n      dup1\n      dup4\n      gt\n      tag_53\n      jumpi\n      dup3\n      swap1\n      sub\n      0x1f\n      and\n      dup3\n      add\n      swap2\n    tag_51:\n      pop\n      pop\n      pop\n      pop\n      pop\n      dup2\n      jump\t// out\n        /* \"Bakery.sol\":265:285  address public owner */\n    tag_29:\n      0x02\n      0x00\n      swap1\n      sload\n      swap1\n      0x0100\n      exp\n      swap1\n      div\n      0xffffffffffffffffffffffffffffffffffffffff\n      and\n      dup2\n      jump\t// out\n        /* \"Bakery.sol\":382:481  function getBlance() view public returns(uint)... */\n    tag_34:\n        /* \"Bakery.sol\":423:427  uint */\n      0x00\n        /* \"Bakery.sol\":452:473  address(this).balance */\n      selfbalance\n        /* \"Bakery.sol\":445:473  return address(this).balance */\n      swap1\n      pop\n        /* \"Bakery.sol\":382:481  function getBlance() view public returns(uint)... */\n      swap1\n      jump\t// out\n        /* \"Bakery.sol\":576:702  function transf() public ... */\n    tag_38:\n        /* \"Bakery.sol\":662:672  thirdParty */\n      0x00\n      dup1\n      sload\n      swap1\n      0x0100\n      exp\n      swap1\n      div\n      0xffffffffffffffffffffffffffffffffffffffff\n      and\n        /* \"Bakery.sol\":662:681  thirdParty.transfer */\n      0xffffffffffffffffffffffffffffffffffffffff\n      and\n        /* \"Bakery.sol\":662:694  thirdParty.transfer(getBlance()) */\n      0x08fc\n        /* \"Bakery.sol\":682:693  getBlance() */\n      tag_56\n        /* \"Bakery.sol\":682:691  getBlance */\n      tag_34\n        /* \"Bakery.sol\":682:693  getBlance() */\n      jump\t// in\n    tag_56:\n        /* \"Bakery.sol\":662:694  thirdParty.transfer(getBlance()) */\n      swap1\n      dup2\n      iszero\n      mul\n      swap1\n      mload(0x40)\n      0x00\n      mload(0x40)\n      dup1\n      dup4\n      sub\n      dup2\n      dup6\n      dup9\n      dup9\n      call\n      swap4\n      pop\n      pop\n      pop\n      pop\n      iszero\n      dup1\n      iszero\n      tag_58\n      jumpi\n      returndatasize\n      0x00\n      dup1\n      returndatacopy\n      revert(0x00, returndatasize)\n    tag_58:\n      pop\n        /* \"Bakery.sol\":576:702  function transf() public ... */\n      jump\t// out\n        /* \"#utility.yul\":7:84   */\n    tag_59:\n        /* \"#utility.yul\":44:51   */\n      0x00\n        /* \"#utility.yul\":73:78   */\n      dup2\n        /* \"#utility.yul\":62:78   */\n      swap1\n      pop\n        /* \"#utility.yul\":7:84   */\n      swap2\n      swap1\n      pop\n      jump\t// out\n        /* \"#utility.yul\":90:208   */\n    tag_60:\n        /* \"#utility.yul\":177:201   */\n      tag_100\n        /* \"#utility.yul\":195:200   */\n      dup2\n        /* \"#utility.yul\":177:201   */\n      tag_59\n      jump\t// in\n    tag_100:\n        /* \"#utility.yul\":172:175   */\n      dup3\n        /* \"#utility.yul\":165:202   */\n      mstore\n        /* \"#utility.yul\":90:208   */\n      pop\n      pop\n      jump\t// out\n        /* \"#utility.yul\":214:436   */\n    tag_15:\n        /* \"#utility.yul\":307:311   */\n      0x00\n        /* \"#utility.yul\":345:347   */\n      0x20\n        /* \"#utility.yul\":334:343   */\n      dup3\n        /* \"#utility.yul\":330:348   */\n      add\n        /* \"#utility.yul\":322:348   */\n      swap1\n      pop\n        /* \"#utility.yul\":358:429   */\n      tag_102\n        /* \"#utility.yul\":426:427   */\n      0x00\n        /* \"#utility.yul\":415:424   */\n      dup4\n        /* \"#utility.yul\":411:428   */\n      add\n        /* \"#utility.yul\":402:408   */\n      dup5\n        /* \"#utility.yul\":358:429   */\n      tag_60\n      jump\t// in\n    tag_102:\n        /* \"#utility.yul\":214:436   */\n      swap3\n      swap2\n      pop\n      pop\n      jump\t// out\n        /* \"#utility.yul\":442:517   */\n    tag_61:\n        /* \"#utility.yul\":475:481   */\n      0x00\n        /* \"#utility.yul\":508:510   */\n      0x40\n        /* \"#utility.yul\":502:511   */\n      mload\n        /* \"#utility.yul\":492:511   */\n      swap1\n      pop\n        /* \"#utility.yul\":442:517   */\n      swap1\n      jump\t// out\n        /* \"#utility.yul\":523:640   */\n    tag_62:\n        /* \"#utility.yul\":632:633   */\n      0x00\n        /* \"#utility.yul\":629:630   */\n      dup1\n        /* \"#utility.yul\":622:634   */\n      revert\n        /* \"#utility.yul\":646:763   */\n    tag_63:\n        /* \"#utility.yul\":755:756   */\n      0x00\n        /* \"#utility.yul\":752:753   */\n      dup1\n        /* \"#utility.yul\":745:757   */\n      revert\n        /* \"#utility.yul\":769:886   */\n    tag_64:\n        /* \"#utility.yul\":878:879   */\n      0x00\n        /* \"#utility.yul\":875:876   */\n      dup1\n        /* \"#utility.yul\":868:880   */\n      revert\n        /* \"#utility.yul\":892:1009   */\n    tag_65:\n        /* \"#utility.yul\":1001:1002   */\n      0x00\n        /* \"#utility.yul\":998:999   */\n      dup1\n        /* \"#utility.yul\":991:1003   */\n      revert\n        /* \"#utility.yul\":1015:1117   */\n    tag_66:\n        /* \"#utility.yul\":1056:1062   */\n      0x00\n        /* \"#utility.yul\":1107:1109   */\n      0x1f\n        /* \"#utility.yul\":1103:1110   */\n      not\n        /* \"#utility.yul\":1098:1100   */\n      0x1f\n        /* \"#utility.yul\":1091:1096   */\n      dup4\n        /* \"#utility.yul\":1087:1101   */\n      add\n        /* \"#utility.yul\":1083:1111   */\n      and\n        /* \"#utility.yul\":1073:1111   */\n      swap1\n      pop\n        /* \"#utility.yul\":1015:1117   */\n      swap2\n      swap1\n      pop\n      jump\t// out\n        /* \"#utility.yul\":1123:1303   */\n    tag_67:\n        /* \"#utility.yul\":1171:1248   */\n      0x4e487b7100000000000000000000000000000000000000000000000000000000\n        /* \"#utility.yul\":1168:1169   */\n      0x00\n        /* \"#utility.yul\":1161:1249   */\n      mstore\n        /* \"#utility.yul\":1268:1272   */\n      0x41\n        /* \"#utility.yul\":1265:1266   */\n      0x04\n        /* \"#utility.yul\":1258:1273   */\n      mstore\n        /* \"#utility.yul\":1292:1296   */\n      0x24\n        /* \"#utility.yul\":1289:1290   */\n      0x00\n        /* \"#utility.yul\":1282:1297   */\n      revert\n        /* \"#utility.yul\":1309:1590   */\n    tag_68:\n        /* \"#utility.yul\":1392:1419   */\n      tag_111\n        /* \"#utility.yul\":1414:1418   */\n      dup3\n        /* \"#utility.yul\":1392:1419   */\n      tag_66\n      jump\t// in\n    tag_111:\n        /* \"#utility.yul\":1384:1390   */\n      dup2\n        /* \"#utility.yul\":1380:1420   */\n      add\n        /* \"#utility.yul\":1522:1528   */\n      dup2\n        /* \"#utility.yul\":1510:1520   */\n      dup2\n        /* \"#utility.yul\":1507:1529   */\n      lt\n        /* \"#utility.yul\":1486:1504   */\n      0xffffffffffffffff\n        /* \"#utility.yul\":1474:1484   */\n      dup3\n        /* \"#utility.yul\":1471:1505   */\n      gt\n        /* \"#utility.yul\":1468:1530   */\n      or\n        /* \"#utility.yul\":1465:1553   */\n      iszero\n      tag_112\n      jumpi\n        /* \"#utility.yul\":1533:1551   */\n      tag_113\n      tag_67\n      jump\t// in\n    tag_113:\n        /* \"#utility.yul\":1465:1553   */\n    tag_112:\n        /* \"#utility.yul\":1573:1583   */\n      dup1\n        /* \"#utility.yul\":1569:1571   */\n      0x40\n        /* \"#utility.yul\":1562:1584   */\n      mstore\n        /* \"#utility.yul\":1352:1590   */\n      pop\n        /* \"#utility.yul\":1309:1590   */\n      pop\n      pop\n      jump\t// out\n        /* \"#utility.yul\":1596:1725   */\n    tag_69:\n        /* \"#utility.yul\":1630:1636   */\n      0x00\n        /* \"#utility.yul\":1657:1677   */\n      tag_115\n      tag_61\n      jump\t// in\n    tag_115:\n        /* \"#utility.yul\":1647:1677   */\n      swap1\n      pop\n        /* \"#utility.yul\":1686:1719   */\n      tag_116\n        /* \"#utility.yul\":1714:1718   */\n      dup3\n        /* \"#utility.yul\":1706:1712   */\n      dup3\n        /* \"#utility.yul\":1686:1719   */\n      tag_68\n      jump\t// in\n    tag_116:\n        /* \"#utility.yul\":1596:1725   */\n      swap2\n      swap1\n      pop\n      jump\t// out\n        /* \"#utility.yul\":1731:2039   */\n    tag_70:\n        /* \"#utility.yul\":1793:1797   */\n      0x00\n        /* \"#utility.yul\":1883:1901   */\n      0xffffffffffffffff\n        /* \"#utility.yul\":1875:1881   */\n      dup3\n        /* \"#utility.yul\":1872:1902   */\n      gt\n        /* \"#utility.yul\":1869:1925   */\n      iszero\n      tag_118\n      jumpi\n        /* \"#utility.yul\":1905:1923   */\n      tag_119\n      tag_67\n      jump\t// in\n    tag_119:\n        /* \"#utility.yul\":1869:1925   */\n    tag_118:\n        /* \"#utility.yul\":1943:1972   */\n      tag_120\n        /* \"#utility.yul\":1965:1971   */\n      dup3\n        /* \"#utility.yul\":1943:1972   */\n      tag_66\n      jump\t// in\n    tag_120:\n        /* \"#utility.yul\":1935:1972   */\n      swap1\n      pop\n        /* \"#utility.yul\":2027:2031   */\n      0x20\n        /* \"#utility.yul\":2021:2025   */\n      dup2\n        /* \"#utility.yul\":2017:2032   */\n      add\n        /* \"#utility.yul\":2009:2032   */\n      swap1\n      pop\n        /* \"#utility.yul\":1731:2039   */\n      swap2\n      swap1\n      pop\n      jump\t// out\n        /* \"#utility.yul\":2045:2191   */\n    tag_71:\n        /* \"#utility.yul\":2142:2148   */\n      dup3\n        /* \"#utility.yul\":2137:2140   */\n      dup2\n        /* \"#utility.yul\":2132:2135   */\n      dup4\n        /* \"#utility.yul\":2119:2149   */\n      calldatacopy\n        /* \"#utility.yul\":2183:2184   */\n      0x00\n        /* \"#utility.yul\":2174:2180   */\n      dup4\n        /* \"#utility.yul\":2169:2172   */\n      dup4\n        /* \"#utility.yul\":2165:2181   */\n      add\n        /* \"#utility.yul\":2158:2185   */\n      mstore\n        /* \"#utility.yul\":2045:2191   */\n      pop\n      pop\n      pop\n      jump\t// out\n        /* \"#utility.yul\":2197:2622   */\n    tag_72:\n        /* \"#utility.yul\":2275:2280   */\n      0x00\n        /* \"#utility.yul\":2300:2366   */\n      tag_123\n        /* \"#utility.yul\":2316:2365   */\n      tag_124\n        /* \"#utility.yul\":2358:2364   */\n      dup5\n        /* \"#utility.yul\":2316:2365   */\n      tag_70\n      jump\t// in\n    tag_124:\n        /* \"#utility.yul\":2300:2366   */\n      tag_69\n      jump\t// in\n    tag_123:\n        /* \"#utility.yul\":2291:2366   */\n      swap1\n      pop\n        /* \"#utility.yul\":2389:2395   */\n      dup3\n        /* \"#utility.yul\":2382:2387   */\n      dup2\n        /* \"#utility.yul\":2375:2396   */\n      mstore\n        /* \"#utility.yul\":2427:2431   */\n      0x20\n        /* \"#utility.yul\":2420:2425   */\n      dup2\n        /* \"#utility.yul\":2416:2432   */\n      add\n        /* \"#utility.yul\":2465:2468   */\n      dup5\n        /* \"#utility.yul\":2456:2462   */\n      dup5\n        /* \"#utility.yul\":2451:2454   */\n      dup5\n        /* \"#utility.yul\":2447:2463   */\n      add\n        /* \"#utility.yul\":2444:2469   */\n      gt\n        /* \"#utility.yul\":2441:2553   */\n      iszero\n      tag_125\n      jumpi\n        /* \"#utility.yul\":2472:2551   */\n      tag_126\n      tag_65\n      jump\t// in\n    tag_126:\n        /* \"#utility.yul\":2441:2553   */\n    tag_125:\n        /* \"#utility.yul\":2562:2616   */\n      tag_127\n        /* \"#utility.yul\":2609:2615   */\n      dup5\n        /* \"#utility.yul\":2604:2607   */\n      dup3\n        /* \"#utility.yul\":2599:2602   */\n      dup6\n        /* \"#utility.yul\":2562:2616   */\n      tag_71\n      jump\t// in\n    tag_127:\n        /* \"#utility.yul\":2281:2622   */\n      pop\n        /* \"#utility.yul\":2197:2622   */\n      swap4\n      swap3\n      pop\n      pop\n      pop\n      jump\t// out\n        /* \"#utility.yul\":2642:2982   */\n    tag_73:\n        /* \"#utility.yul\":2698:2703   */\n      0x00\n        /* \"#utility.yul\":2747:2750   */\n      dup3\n        /* \"#utility.yul\":2740:2744   */\n      0x1f\n        /* \"#utility.yul\":2732:2738   */\n      dup4\n        /* \"#utility.yul\":2728:2745   */\n      add\n        /* \"#utility.yul\":2724:2751   */\n      slt\n        /* \"#utility.yul\":2714:2836   */\n      tag_129\n      jumpi\n        /* \"#utility.yul\":2755:2834   */\n      tag_130\n      tag_64\n      jump\t// in\n    tag_130:\n        /* \"#utility.yul\":2714:2836   */\n    tag_129:\n        /* \"#utility.yul\":2872:2878   */\n      dup2\n        /* \"#utility.yul\":2859:2879   */\n      calldataload\n        /* \"#utility.yul\":2897:2976   */\n      tag_131\n        /* \"#utility.yul\":2972:2975   */\n      dup5\n        /* \"#utility.yul\":2964:2970   */\n      dup3\n        /* \"#utility.yul\":2957:2961   */\n      0x20\n        /* \"#utility.yul\":2949:2955   */\n      dup7\n        /* \"#utility.yul\":2945:2962   */\n      add\n        /* \"#utility.yul\":2897:2976   */\n      tag_72\n      jump\t// in\n    tag_131:\n        /* \"#utility.yul\":2888:2976   */\n      swap2\n      pop\n        /* \"#utility.yul\":2704:2982   */\n      pop\n        /* \"#utility.yul\":2642:2982   */\n      swap3\n      swap2\n      pop\n      pop\n      jump\t// out\n        /* \"#utility.yul\":2988:3497   */\n    tag_19:\n        /* \"#utility.yul\":3057:3063   */\n      0x00\n        /* \"#utility.yul\":3106:3108   */\n      0x20\n        /* \"#utility.yul\":3094:3103   */\n      dup3\n        /* \"#utility.yul\":3085:3092   */\n      dup5\n        /* \"#utility.yul\":3081:3104   */\n      sub\n        /* \"#utility.yul\":3077:3109   */\n      slt\n        /* \"#utility.yul\":3074:3193   */\n      iszero\n      tag_133\n      jumpi\n        /* \"#utility.yul\":3112:3191   */\n      tag_134\n      tag_62\n      jump\t// in\n    tag_134:\n        /* \"#utility.yul\":3074:3193   */\n    tag_133:\n        /* \"#utility.yul\":3260:3261   */\n      0x00\n        /* \"#utility.yul\":3249:3258   */\n      dup3\n        /* \"#utility.yul\":3245:3262   */\n      add\n        /* \"#utility.yul\":3232:3263   */\n      calldataload\n        /* \"#utility.yul\":3290:3308   */\n      0xffffffffffffffff\n        /* \"#utility.yul\":3282:3288   */\n      dup2\n        /* \"#utility.yul\":3279:3309   */\n      gt\n        /* \"#utility.yul\":3276:3393   */\n      iszero\n      tag_135\n      jumpi\n        /* \"#utility.yul\":3312:3391   */\n      tag_136\n      tag_63\n      jump\t// in\n    tag_136:\n        /* \"#utility.yul\":3276:3393   */\n    tag_135:\n        /* \"#utility.yul\":3417:3480   */\n      tag_137\n        /* \"#utility.yul\":3472:3479   */\n      dup5\n        /* \"#utility.yul\":3463:3469   */\n      dup3\n        /* \"#utility.yul\":3452:3461   */\n      dup6\n        /* \"#utility.yul\":3448:3470   */\n      add\n        /* \"#utility.yul\":3417:3480   */\n      tag_73\n      jump\t// in\n    tag_137:\n        /* \"#utility.yul\":3407:3480   */\n      swap2\n      pop\n        /* \"#utility.yul\":3203:3490   */\n      pop\n        /* \"#utility.yul\":2988:3497   */\n      swap3\n      swap2\n      pop\n      pop\n      jump\t// out\n        /* \"#utility.yul\":3503:3602   */\n    tag_74:\n        /* \"#utility.yul\":3555:3561   */\n      0x00\n        /* \"#utility.yul\":3589:3594   */\n      dup2\n        /* \"#utility.yul\":3583:3595   */\n      mload\n        /* \"#utility.yul\":3573:3595   */\n      swap1\n      pop\n        /* \"#utility.yul\":3503:3602   */\n      swap2\n      swap1\n      pop\n      jump\t// out\n        /* \"#utility.yul\":3608:3777   */\n    tag_75:\n        /* \"#utility.yul\":3692:3703   */\n      0x00\n        /* \"#utility.yul\":3726:3732   */\n      dup3\n        /* \"#utility.yul\":3721:3724   */\n      dup3\n        /* \"#utility.yul\":3714:3733   */\n      mstore\n        /* \"#utility.yul\":3766:3770   */\n      0x20\n        /* \"#utility.yul\":3761:3764   */\n      dup3\n        /* \"#utility.yul\":3757:3771   */\n      add\n        /* \"#utility.yul\":3742:3771   */\n      swap1\n      pop\n        /* \"#utility.yul\":3608:3777   */\n      swap3\n      swap2\n      pop\n      pop\n      jump\t// out\n        /* \"#utility.yul\":3783:4029   */\n    tag_76:\n        /* \"#utility.yul\":3864:3865   */\n      0x00\n        /* \"#utility.yul\":3874:3987   */\n    tag_141:\n        /* \"#utility.yul\":3888:3894   */\n      dup4\n        /* \"#utility.yul\":3885:3886   */\n      dup2\n        /* \"#utility.yul\":3882:3895   */\n      lt\n        /* \"#utility.yul\":3874:3987   */\n      iszero\n      tag_143\n      jumpi\n        /* \"#utility.yul\":3973:3974   */\n      dup1\n        /* \"#utility.yul\":3968:3971   */\n      dup3\n        /* \"#utility.yul\":3964:3975   */\n      add\n        /* \"#utility.yul\":3958:3976   */\n      mload\n        /* \"#utility.yul\":3954:3955   */\n      dup2\n        /* \"#utility.yul\":3949:3952   */\n      dup5\n        /* \"#utility.yul\":3945:3956   */\n      add\n        /* \"#utility.yul\":3938:3977   */\n      mstore\n        /* \"#utility.yul\":3910:3912   */\n      0x20\n        /* \"#utility.yul\":3907:3908   */\n      dup2\n        /* \"#utility.yul\":3903:3913   */\n      add\n        /* \"#utility.yul\":3898:3913   */\n      swap1\n      pop\n        /* \"#utility.yul\":3874:3987   */\n      jump(tag_141)\n    tag_143:\n        /* \"#utility.yul\":4021:4022   */\n      0x00\n        /* \"#utility.yul\":4012:4018   */\n      dup5\n        /* \"#utility.yul\":4007:4010   */\n      dup5\n        /* \"#utility.yul\":4003:4019   */\n      add\n        /* \"#utility.yul\":3996:4023   */\n      mstore\n        /* \"#utility.yul\":3845:4029   */\n      pop\n        /* \"#utility.yul\":3783:4029   */\n      pop\n      pop\n      pop\n      jump\t// out\n        /* \"#utility.yul\":4035:4412   */\n    tag_77:\n        /* \"#utility.yul\":4123:4126   */\n      0x00\n        /* \"#utility.yul\":4151:4190   */\n      tag_145\n        /* \"#utility.yul\":4184:4189   */\n      dup3\n        /* \"#utility.yul\":4151:4190   */\n      tag_74\n      jump\t// in\n    tag_145:\n        /* \"#utility.yul\":4206:4277   */\n      tag_146\n        /* \"#utility.yul\":4270:4276   */\n      dup2\n        /* \"#utility.yul\":4265:4268   */\n      dup6\n        /* \"#utility.yul\":4206:4277   */\n      tag_75\n      jump\t// in\n    tag_146:\n        /* \"#utility.yul\":4199:4277   */\n      swap4\n      pop\n        /* \"#utility.yul\":4286:4351   */\n      tag_147\n        /* \"#utility.yul\":4344:4350   */\n      dup2\n        /* \"#utility.yul\":4339:4342   */\n      dup6\n        /* \"#utility.yul\":4332:4336   */\n      0x20\n        /* \"#utility.yul\":4325:4330   */\n      dup7\n        /* \"#utility.yul\":4321:4337   */\n      add\n        /* \"#utility.yul\":4286:4351   */\n      tag_76\n      jump\t// in\n    tag_147:\n        /* \"#utility.yul\":4376:4405   */\n      tag_148\n        /* \"#utility.yul\":4398:4404   */\n      dup2\n        /* \"#utility.yul\":4376:4405   */\n      tag_66\n      jump\t// in\n    tag_148:\n        /* \"#utility.yul\":4371:4374   */\n      dup5\n        /* \"#utility.yul\":4367:4406   */\n      add\n        /* \"#utility.yul\":4360:4406   */\n      swap2\n      pop\n        /* \"#utility.yul\":4127:4412   */\n      pop\n        /* \"#utility.yul\":4035:4412   */\n      swap3\n      swap2\n      pop\n      pop\n      jump\t// out\n        /* \"#utility.yul\":4418:4731   */\n    tag_22:\n        /* \"#utility.yul\":4531:4535   */\n      0x00\n        /* \"#utility.yul\":4569:4571   */\n      0x20\n        /* \"#utility.yul\":4558:4567   */\n      dup3\n        /* \"#utility.yul\":4554:4572   */\n      add\n        /* \"#utility.yul\":4546:4572   */\n      swap1\n      pop\n        /* \"#utility.yul\":4618:4627   */\n      dup2\n        /* \"#utility.yul\":4612:4616   */\n      dup2\n        /* \"#utility.yul\":4608:4628   */\n      sub\n        /* \"#utility.yul\":4604:4605   */\n      0x00\n        /* \"#utility.yul\":4593:4602   */\n      dup4\n        /* \"#utility.yul\":4589:4606   */\n      add\n        /* \"#utility.yul\":4582:4629   */\n      mstore\n        /* \"#utility.yul\":4646:4724   */\n      tag_150\n        /* \"#utility.yul\":4719:4723   */\n      dup2\n        /* \"#utility.yul\":4710:4716   */\n      dup5\n        /* \"#utility.yul\":4646:4724   */\n      tag_77\n      jump\t// in\n    tag_150:\n        /* \"#utility.yul\":4638:4724   */\n      swap1\n      pop\n        /* \"#utility.yul\":4418:4731   */\n      swap3\n      swap2\n      pop\n      pop\n      jump\t// out\n        /* \"#utility.yul\":4737:4863   */\n    tag_78:\n        /* \"#utility.yul\":4774:4781   */\n      0x00\n        /* \"#utility.yul\":4814:4856   */\n      0xffffffffffffffffffffffffffffffffffffffff\n        /* \"#utility.yul\":4807:4812   */\n      dup3\n        /* \"#utility.yul\":4803:4857   */\n      and\n        /* \"#utility.yul\":4792:4857   */\n      swap1\n      pop\n        /* \"#utility.yul\":4737:4863   */\n      swap2\n      swap1\n      pop\n      jump\t// out\n        /* \"#utility.yul\":4869:4965   */\n    tag_79:\n        /* \"#utility.yul\":4906:4913   */\n      0x00\n        /* \"#utility.yul\":4935:4959   */\n      tag_153\n        /* \"#utility.yul\":4953:4958   */\n      dup3\n        /* \"#utility.yul\":4935:4959   */\n      tag_78\n      jump\t// in\n    tag_153:\n        /* \"#utility.yul\":4924:4959   */\n      swap1\n      pop\n        /* \"#utility.yul\":4869:4965   */\n      swap2\n      swap1\n      pop\n      jump\t// out\n        /* \"#utility.yul\":4971:5089   */\n    tag_80:\n        /* \"#utility.yul\":5058:5082   */\n      tag_155\n        /* \"#utility.yul\":5076:5081   */\n      dup2\n        /* \"#utility.yul\":5058:5082   */\n      tag_79\n      jump\t// in\n    tag_155:\n        /* \"#utility.yul\":5053:5056   */\n      dup3\n        /* \"#utility.yul\":5046:5083   */\n      mstore\n        /* \"#utility.yul\":4971:5089   */\n      pop\n      pop\n      jump\t// out\n        /* \"#utility.yul\":5095:5317   */\n    tag_31:\n        /* \"#utility.yul\":5188:5192   */\n      0x00\n        /* \"#utility.yul\":5226:5228   */\n      0x20\n        /* \"#utility.yul\":5215:5224   */\n      dup3\n        /* \"#utility.yul\":5211:5229   */\n      add\n        /* \"#utility.yul\":5203:5229   */\n      swap1\n      pop\n        /* \"#utility.yul\":5239:5310   */\n      tag_157\n        /* \"#utility.yul\":5307:5308   */\n      0x00\n        /* \"#utility.yul\":5296:5305   */\n      dup4\n        /* \"#utility.yul\":5292:5309   */\n      add\n        /* \"#utility.yul\":5283:5289   */\n      dup5\n        /* \"#utility.yul\":5239:5310   */\n      tag_80\n      jump\t// in\n    tag_157:\n        /* \"#utility.yul\":5095:5317   */\n      swap3\n      swap2\n      pop\n      pop\n      jump\t// out\n        /* \"#utility.yul\":5323:5503   */\n    tag_81:\n        /* \"#utility.yul\":5371:5448   */\n      0x4e487b7100000000000000000000000000000000000000000000000000000000\n        /* \"#utility.yul\":5368:5369   */\n      0x00\n        /* \"#utility.yul\":5361:5449   */\n      mstore\n        /* \"#utility.yul\":5468:5472   */\n      0x22\n        /* \"#utility.yul\":5465:5466   */\n      0x04\n        /* \"#utility.yul\":5458:5473   */\n      mstore\n        /* \"#utility.yul\":5492:5496   */\n      0x24\n        /* \"#utility.yul\":5489:5490   */\n      0x00\n        /* \"#utility.yul\":5482:5497   */\n      revert\n        /* \"#utility.yul\":5509:5829   */\n    tag_44:\n        /* \"#utility.yul\":5553:5559   */\n      0x00\n        /* \"#utility.yul\":5590:5591   */\n      0x02\n        /* \"#utility.yul\":5584:5588   */\n      dup3\n        /* \"#utility.yul\":5580:5592   */\n      div\n        /* \"#utility.yul\":5570:5592   */\n      swap1\n      pop\n        /* \"#utility.yul\":5637:5638   */\n      0x01\n        /* \"#utility.yul\":5631:5635   */\n      dup3\n        /* \"#utility.yul\":5627:5639   */\n      and\n        /* \"#utility.yul\":5658:5676   */\n      dup1\n        /* \"#utility.yul\":5648:5729   */\n      tag_160\n      jumpi\n        /* \"#utility.yul\":5714:5718   */\n      0x7f\n        /* \"#utility.yul\":5706:5712   */\n      dup3\n        /* \"#utility.yul\":5702:5719   */\n      and\n        /* \"#utility.yul\":5692:5719   */\n      swap2\n      pop\n        /* \"#utility.yul\":5648:5729   */\n    tag_160:\n        /* \"#utility.yul\":5776:5778   */\n      0x20\n        /* \"#utility.yul\":5768:5774   */\n      dup3\n        /* \"#utility.yul\":5765:5779   */\n      lt\n        /* \"#utility.yul\":5745:5763   */\n      dup2\n        /* \"#utility.yul\":5742:5780   */\n      sub\n        /* \"#utility.yul\":5739:5823   */\n      tag_161\n      jumpi\n        /* \"#utility.yul\":5795:5813   */\n      tag_162\n      tag_81\n      jump\t// in\n    tag_162:\n        /* \"#utility.yul\":5739:5823   */\n    tag_161:\n        /* \"#utility.yul\":5560:5829   */\n      pop\n        /* \"#utility.yul\":5509:5829   */\n      swap2\n      swap1\n      pop\n      jump\t// out\n        /* \"#utility.yul\":5835:5976   */\n    tag_82:\n        /* \"#utility.yul\":5884:5888   */\n      0x00\n        /* \"#utility.yul\":5907:5910   */\n      dup2\n        /* \"#utility.yul\":5899:5910   */\n      swap1\n      pop\n        /* \"#utility.yul\":5930:5933   */\n      dup2\n        /* \"#utility.yul\":5927:5928   */\n      0x00\n        /* \"#utility.yul\":5920:5934   */\n      mstore\n        /* \"#utility.yul\":5964:5968   */\n      0x20\n        /* \"#utility.yul\":5961:5962   */\n      0x00\n        /* \"#utility.yul\":5951:5969   */\n      keccak256\n        /* \"#utility.yul\":5943:5969   */\n      swap1\n      pop\n        /* \"#utility.yul\":5835:5976   */\n      swap2\n      swap1\n      pop\n      jump\t// out\n        /* \"#utility.yul\":5982:6075   */\n    tag_83:\n        /* \"#utility.yul\":6019:6025   */\n      0x00\n        /* \"#utility.yul\":6066:6068   */\n      0x20\n        /* \"#utility.yul\":6061:6063   */\n      0x1f\n        /* \"#utility.yul\":6054:6059   */\n      dup4\n        /* \"#utility.yul\":6050:6064   */\n      add\n        /* \"#utility.yul\":6046:6069   */\n      div\n        /* \"#utility.yul\":6036:6069   */\n      swap1\n      pop\n        /* \"#utility.yul\":5982:6075   */\n      swap2\n      swap1\n      pop\n      jump\t// out\n        /* \"#utility.yul\":6081:6188   */\n    tag_84:\n        /* \"#utility.yul\":6125:6133   */\n      0x00\n        /* \"#utility.yul\":6175:6180   */\n      dup3\n        /* \"#utility.yul\":6169:6173   */\n      dup3\n        /* \"#utility.yul\":6165:6181   */\n      shl\n        /* \"#utility.yul\":6144:6181   */\n      swap1\n      pop\n        /* \"#utility.yul\":6081:6188   */\n      swap3\n      swap2\n      pop\n      pop\n      jump\t// out\n        /* \"#utility.yul\":6194:6587   */\n    tag_85:\n        /* \"#utility.yul\":6263:6269   */\n      0x00\n        /* \"#utility.yul\":6313:6314   */\n      0x08\n        /* \"#utility.yul\":6301:6311   */\n      dup4\n        /* \"#utility.yul\":6297:6315   */\n      mul\n        /* \"#utility.yul\":6336:6433   */\n      tag_167\n        /* \"#utility.yul\":6366:6432   */\n      0xffffffffffffffffffffffffffffffffffffffffffffffffffffffffffffffff\n        /* \"#utility.yul\":6355:6364   */\n      dup3\n        /* \"#utility.yul\":6336:6433   */\n      tag_84\n      jump\t// in\n    tag_167:\n        /* \"#utility.yul\":6454:6493   */\n      tag_168\n        /* \"#utility.yul\":6484:6492   */\n      dup7\n        /* \"#utility.yul\":6473:6482   */\n      dup4\n        /* \"#utility.yul\":6454:6493   */\n      tag_84\n      jump\t// in\n    tag_168:\n        /* \"#utility.yul\":6442:6493   */\n      swap6\n      pop\n        /* \"#utility.yul\":6526:6530   */\n      dup1\n        /* \"#utility.yul\":6522:6531   */\n      not\n        /* \"#utility.yul\":6515:6520   */\n      dup5\n        /* \"#utility.yul\":6511:6532   */\n      and\n        /* \"#utility.yul\":6502:6532   */\n      swap4\n      pop\n        /* \"#utility.yul\":6575:6579   */\n      dup1\n        /* \"#utility.yul\":6565:6573   */\n      dup7\n        /* \"#utility.yul\":6561:6580   */\n      and\n        /* \"#utility.yul\":6554:6559   */\n      dup5\n        /* \"#utility.yul\":6551:6581   */\n      or\n        /* \"#utility.yul\":6541:6581   */\n      swap3\n      pop\n        /* \"#utility.yul\":6270:6587   */\n      pop\n      pop\n        /* \"#utility.yul\":6194:6587   */\n      swap4\n      swap3\n      pop\n      pop\n      pop\n      jump\t// out\n        /* \"#utility.yul\":6593:6653   */\n    tag_86:\n        /* \"#utility.yul\":6621:6624   */\n      0x00\n        /* \"#utility.yul\":6642:6647   */\n      dup2\n        /* \"#utility.yul\":6635:6647   */\n      swap1\n      pop\n        /* \"#utility.yul\":6593:6653   */\n      swap2\n      swap1\n      pop\n      jump\t// out\n        /* \"#utility.yul\":6659:6801   */\n    tag_87:\n        /* \"#utility.yul\":6709:6718   */\n      0x00\n        /* \"#utility.yul\":6742:6795   */\n      tag_171\n        /* \"#utility.yul\":6760:6794   */\n      tag_172\n        /* \"#utility.yul\":6769:6793   */\n      tag_173\n        /* \"#utility.yul\":6787:6792   */\n      dup5\n        /* \"#utility.yul\":6769:6793   */\n      tag_59\n      jump\t// in\n    tag_173:\n        /* \"#utility.yul\":6760:6794   */\n      tag_86\n      jump\t// in\n    tag_172:\n        /* \"#utility.yul\":6742:6795   */\n      tag_59\n      jump\t// in\n    tag_171:\n        /* \"#utility.yul\":6729:6795   */\n      swap1\n      pop\n        /* \"#utility.yul\":6659:6801   */\n      swap2\n      swap1\n      pop\n      jump\t// out\n        /* \"#utility.yul\":6807:6882   */\n    tag_88:\n        /* \"#utility.yul\":6850:6853   */\n      0x00\n        /* \"#utility.yul\":6871:6876   */\n      dup2\n        /* \"#utility.yul\":6864:6876   */\n      swap1\n      pop\n        /* \"#utility.yul\":6807:6882   */\n      swap2\n      swap1\n      pop\n      jump\t// out\n        /* \"#utility.yul\":6888:7157   */\n    tag_89:\n        /* \"#utility.yul\":6998:7037   */\n      tag_176\n        /* \"#utility.yul\":7029:7036   */\n      dup4\n        /* \"#utility.yul\":6998:7037   */\n      tag_87\n      jump\t// in\n    tag_176:\n        /* \"#utility.yul\":7059:7150   */\n      tag_177\n        /* \"#utility.yul\":7108:7149   */\n      tag_178\n        /* \"#utility.yul\":7132:7148   */\n      dup3\n        /* \"#utility.yul\":7108:7149   */\n      tag_88\n      jump\t// in\n    tag_178:\n        /* \"#utility.yul\":7100:7106   */\n      dup5\n        /* \"#utility.yul\":7093:7097   */\n      dup5\n        /* \"#utility.yul\":7087:7098   */\n      sload\n        /* \"#utility.yul\":7059:7150   */\n      tag_85\n      jump\t// in\n    tag_177:\n        /* \"#utility.yul\":7053:7057   */\n      dup3\n        /* \"#utility.yul\":7046:7151   */\n      sstore\n        /* \"#utility.yul\":6964:7157   */\n      pop\n        /* \"#utility.yul\":6888:7157   */\n      pop\n      pop\n      pop\n      jump\t// out\n        /* \"#utility.yul\":7163:7236   */\n    tag_90:\n        /* \"#utility.yul\":7208:7211   */\n      0x00\n        /* \"#utility.yul\":7163:7236   */\n      swap1\n      jump\t// out\n        /* \"#utility.yul\":7242:7431   */\n    tag_91:\n        /* \"#utility.yul\":7319:7351   */\n      tag_181\n      tag_90\n      jump\t// in\n    tag_181:\n        /* \"#utility.yul\":7360:7425   */\n      tag_182\n        /* \"#utility.yul\":7418:7424   */\n      dup2\n        /* \"#utility.yul\":7410:7416   */\n      dup5\n        /* \"#utility.yul\":7404:7408   */\n      dup5\n        /* \"#utility.yul\":7360:7425   */\n      tag_89\n      jump\t// in\n    tag_182:\n        /* \"#utility.yul\":7295:7431   */\n      pop\n        /* \"#utility.yul\":7242:7431   */\n      pop\n      pop\n      jump\t// out\n        /* \"#utility.yul\":7437:7623   */\n    tag_92:\n        /* \"#utility.yul\":7497:7617   */\n    tag_184:\n        /* \"#utility.yul\":7514:7517   */\n      dup2\n        /* \"#utility.yul\":7507:7512   */\n      dup2\n        /* \"#utility.yul\":7504:7518   */\n      lt\n        /* \"#utility.yul\":7497:7617   */\n      iszero\n      tag_186\n      jumpi\n        /* \"#utility.yul\":7568:7607   */\n      tag_187\n        /* \"#utility.yul\":7605:7606   */\n      0x00\n        /* \"#utility.yul\":7598:7603   */\n      dup3\n        /* \"#utility.yul\":7568:7607   */\n      tag_91\n      jump\t// in\n    tag_187:\n        /* \"#utility.yul\":7541:7542   */\n      0x01\n        /* \"#utility.yul\":7534:7539   */\n      dup2\n        /* \"#utility.yul\":7530:7543   */\n      add\n        /* \"#utility.yul\":7521:7543   */\n      swap1\n      pop\n        /* \"#utility.yul\":7497:7617   */\n      jump(tag_184)\n    tag_186:\n        /* \"#utility.yul\":7437:7623   */\n      pop\n      pop\n      jump\t// out\n        /* \"#utility.yul\":7629:8172   */\n    tag_93:\n        /* \"#utility.yul\":7730:7732   */\n      0x1f\n        /* \"#utility.yul\":7725:7728   */\n      dup3\n        /* \"#utility.yul\":7722:7733   */\n      gt\n        /* \"#utility.yul\":7719:8165   */\n      iszero\n      tag_189\n      jumpi\n        /* \"#utility.yul\":7764:7802   */\n      tag_190\n        /* \"#utility.yul\":7796:7801   */\n      dup2\n        /* \"#utility.yul\":7764:7802   */\n      tag_82\n      jump\t// in\n    tag_190:\n        /* \"#utility.yul\":7848:7877   */\n      tag_191\n        /* \"#utility.yul\":7866:7876   */\n      dup5\n        /* \"#utility.yul\":7848:7877   */\n      tag_83\n      jump\t// in\n    tag_191:\n        /* \"#utility.yul\":7838:7846   */\n      dup2\n        /* \"#utility.yul\":7834:7878   */\n      add\n        /* \"#utility.yul\":8031:8033   */\n      0x20\n        /* \"#utility.yul\":8019:8029   */\n      dup6\n        /* \"#utility.yul\":8016:8034   */\n      lt\n        /* \"#utility.yul\":8013:8062   */\n      iszero\n      tag_192\n      jumpi\n        /* \"#utility.yul\":8052:8060   */\n      dup2\n        /* \"#utility.yul\":8037:8060   */\n      swap1\n      pop\n        /* \"#utility.yul\":8013:8062   */\n    tag_192:\n        /* \"#utility.yul\":8075:8155   */\n      tag_193\n        /* \"#utility.yul\":8131:8153   */\n      tag_194\n        /* \"#utility.yul\":8149:8152   */\n      dup6\n        /* \"#utility.yul\":8131:8153   */\n      tag_83\n      jump\t// in\n    tag_194:\n        /* \"#utility.yul\":8121:8129   */\n      dup4\n        /* \"#utility.yul\":8117:8154   */\n      add\n        /* \"#utility.yul\":8104:8115   */\n      dup3\n        /* \"#utility.yul\":8075:8155   */\n      tag_92\n      jump\t// in\n    tag_193:\n        /* \"#utility.yul\":7734:8165   */\n      pop\n      pop\n        /* \"#utility.yul\":7719:8165   */\n    tag_189:\n        /* \"#utility.yul\":7629:8172   */\n      pop\n      pop\n      pop\n      jump\t// out\n        /* \"#utility.yul\":8178:8295   */\n    tag_94:\n        /* \"#utility.yul\":8232:8240   */\n      0x00\n        /* \"#utility.yul\":8282:8287   */\n      dup3\n        /* \"#utility.yul\":8276:8280   */\n      dup3\n        /* \"#utility.yul\":8272:8288   */\n      shr\n        /* \"#utility.yul\":8251:8288   */\n      swap1\n      pop\n        /* \"#utility.yul\":8178:8295   */\n      swap3\n      swap2\n      pop\n      pop\n      jump\t// out\n        /* \"#utility.yul\":8301:8470   */\n    tag_95:\n        /* \"#utility.yul\":8345:8351   */\n      0x00\n        /* \"#utility.yul\":8378:8429   */\n      tag_197\n        /* \"#utility.yul\":8426:8427   */\n      0x00\n        /* \"#utility.yul\":8422:8428   */\n      not\n        /* \"#utility.yul\":8414:8419   */\n      dup5\n        /* \"#utility.yul\":8411:8412   */\n      0x08\n        /* \"#utility.yul\":8407:8420   */\n      mul\n        /* \"#utility.yul\":8378:8429   */\n      tag_94\n      jump\t// in\n    tag_197:\n        /* \"#utility.yul\":8374:8430   */\n      not\n        /* \"#utility.yul\":8459:8463   */\n      dup1\n        /* \"#utility.yul\":8453:8457   */\n      dup4\n        /* \"#utility.yul\":8449:8464   */\n      and\n        /* \"#utility.yul\":8439:8464   */\n      swap2\n      pop\n        /* \"#utility.yul\":8352:8470   */\n      pop\n        /* \"#utility.yul\":8301:8470   */\n      swap3\n      swap2\n      pop\n      pop\n      jump\t// out\n        /* \"#utility.yul\":8475:8770   */\n    tag_96:\n        /* \"#utility.yul\":8551:8555   */\n      0x00\n        /* \"#utility.yul\":8697:8726   */\n      tag_199\n        /* \"#utility.yul\":8722:8725   */\n      dup4\n        /* \"#utility.yul\":8716:8720   */\n      dup4\n        /* \"#utility.yul\":8697:8726   */\n      tag_95\n      jump\t// in\n    tag_199:\n        /* \"#utility.yul\":8689:8726   */\n      swap2\n      pop\n        /* \"#utility.yul\":8759:8762   */\n      dup3\n        /* \"#utility.yul\":8756:8757   */\n      0x02\n        /* \"#utility.yul\":8752:8763   */\n      mul\n        /* \"#utility.yul\":8746:8750   */\n      dup3\n        /* \"#utility.yul\":8743:8764   */\n      or\n        /* \"#utility.yul\":8735:8764   */\n      swap1\n      pop\n        /* \"#utility.yul\":8475:8770   */\n      swap3\n      swap2\n      pop\n      pop\n      jump\t// out\n        /* \"#utility.yul\":8775:10170   */\n    tag_42:\n        /* \"#utility.yul\":8892:8929   */\n      tag_201\n        /* \"#utility.yul\":8925:8928   */\n      dup3\n        /* \"#utility.yul\":8892:8929   */\n      tag_74\n      jump\t// in\n    tag_201:\n        /* \"#utility.yul\":8994:9012   */\n      0xffffffffffffffff\n        /* \"#utility.yul\":8986:8992   */\n      dup2\n        /* \"#utility.yul\":8983:9013   */\n      gt\n        /* \"#utility.yul\":8980:9036   */\n      iszero\n      tag_202\n      jumpi\n        /* \"#utility.yul\":9016:9034   */\n      tag_203\n      tag_67\n      jump\t// in\n    tag_203:\n        /* \"#utility.yul\":8980:9036   */\n    tag_202:\n        /* \"#utility.yul\":9060:9098   */\n      tag_204\n        /* \"#utility.yul\":9092:9096   */\n      dup3\n        /* \"#utility.yul\":9086:9097   */\n      sload\n        /* \"#utility.yul\":9060:9098   */\n      tag_44\n      jump\t// in\n    tag_204:\n        /* \"#utility.yul\":9145:9212   */\n      tag_205\n        /* \"#utility.yul\":9205:9211   */\n      dup3\n        /* \"#utility.yul\":9197:9203   */\n      dup3\n        /* \"#utility.yul\":9191:9195   */\n      dup6\n        /* \"#utility.yul\":9145:9212   */\n      tag_93\n      jump\t// in\n    tag_205:\n        /* \"#utility.yul\":9239:9240   */\n      0x00\n        /* \"#utility.yul\":9263:9267   */\n      0x20\n        /* \"#utility.yul\":9250:9267   */\n      swap1\n      pop\n        /* \"#utility.yul\":9295:9297   */\n      0x1f\n        /* \"#utility.yul\":9287:9293   */\n      dup4\n        /* \"#utility.yul\":9284:9298   */\n      gt\n        /* \"#utility.yul\":9312:9313   */\n      0x01\n        /* \"#utility.yul\":9307:9925   */\n      dup2\n      eq\n      tag_207\n      jumpi\n        /* \"#utility.yul\":9969:9970   */\n      0x00\n        /* \"#utility.yul\":9986:9992   */\n      dup5\n        /* \"#utility.yul\":9983:10060   */\n      iszero\n      tag_208\n      jumpi\n        /* \"#utility.yul\":10035:10044   */\n      dup3\n        /* \"#utility.yul\":10030:10033   */\n      dup8\n        /* \"#utility.yul\":10026:10045   */\n      add\n        /* \"#utility.yul\":10020:10046   */\n      mload\n        /* \"#utility.yul\":10011:10046   */\n      swap1\n      pop\n        /* \"#utility.yul\":9983:10060   */\n    tag_208:\n        /* \"#utility.yul\":10086:10153   */\n      tag_209\n        /* \"#utility.yul\":10146:10152   */\n      dup6\n        /* \"#utility.yul\":10139:10144   */\n      dup3\n        /* \"#utility.yul\":10086:10153   */\n      tag_96\n      jump\t// in\n    tag_209:\n        /* \"#utility.yul\":10080:10084   */\n      dup7\n        /* \"#utility.yul\":10073:10154   */\n      sstore\n        /* \"#utility.yul\":9942:10164   */\n      pop\n        /* \"#utility.yul\":9277:10164   */\n      jump(tag_206)\n        /* \"#utility.yul\":9307:9925   */\n    tag_207:\n        /* \"#utility.yul\":9359:9363   */\n      0x1f\n        /* \"#utility.yul\":9355:9364   */\n      not\n        /* \"#utility.yul\":9347:9353   */\n      dup5\n        /* \"#utility.yul\":9343:9365   */\n      and\n        /* \"#utility.yul\":9393:9430   */\n      tag_210\n        /* \"#utility.yul\":9425:9429   */\n      dup7\n        /* \"#utility.yul\":9393:9430   */\n      tag_82\n      jump\t// in\n    tag_210:\n        /* \"#utility.yul\":9452:9453   */\n      0x00\n        /* \"#utility.yul\":9466:9674   */\n    tag_211:\n        /* \"#utility.yul\":9480:9487   */\n      dup3\n        /* \"#utility.yul\":9477:9478   */\n      dup2\n        /* \"#utility.yul\":9474:9488   */\n      lt\n        /* \"#utility.yul\":9466:9674   */\n      iszero\n      tag_213\n      jumpi\n        /* \"#utility.yul\":9559:9568   */\n      dup5\n        /* \"#utility.yul\":9554:9557   */\n      dup10\n        /* \"#utility.yul\":9550:9569   */\n      add\n        /* \"#utility.yul\":9544:9570   */\n      mload\n        /* \"#utility.yul\":9536:9542   */\n      dup3\n        /* \"#utility.yul\":9529:9571   */\n      sstore\n        /* \"#utility.yul\":9610:9611   */\n      0x01\n        /* \"#utility.yul\":9602:9608   */\n      dup3\n        /* \"#utility.yul\":9598:9612   */\n      add\n        /* \"#utility.yul\":9588:9612   */\n      swap2\n      pop\n        /* \"#utility.yul\":9657:9659   */\n      0x20\n        /* \"#utility.yul\":9646:9655   */\n      dup6\n        /* \"#utility.yul\":9642:9660   */\n      add\n        /* \"#utility.yul\":9629:9660   */\n      swap5\n      pop\n        /* \"#utility.yul\":9503:9507   */\n      0x20\n        /* \"#utility.yul\":9500:9501   */\n      dup2\n        /* \"#utility.yul\":9496:9508   */\n      add\n        /* \"#utility.yul\":9491:9508   */\n      swap1\n      pop\n        /* \"#utility.yul\":9466:9674   */\n      jump(tag_211)\n    tag_213:\n        /* \"#utility.yul\":9702:9708   */\n      dup7\n        /* \"#utility.yul\":9693:9700   */\n      dup4\n        /* \"#utility.yul\":9690:9709   */\n      lt\n        /* \"#utility.yul\":9687:9866   */\n      iszero\n      tag_214\n      jumpi\n        /* \"#utility.yul\":9760:9769   */\n      dup5\n        /* \"#utility.yul\":9755:9758   */\n      dup10\n        /* \"#utility.yul\":9751:9770   */\n      add\n        /* \"#utility.yul\":9745:9771   */\n      mload\n        /* \"#utility.yul\":9803:9851   */\n      tag_215\n        /* \"#utility.yul\":9845:9849   */\n      0x1f\n        /* \"#utility.yul\":9837:9843   */\n      dup10\n        /* \"#utility.yul\":9833:9850   */\n      and\n        /* \"#utility.yul\":9822:9831   */\n      dup3\n        /* \"#utility.yul\":9803:9851   */\n      tag_95\n      jump\t// in\n    tag_215:\n        /* \"#utility.yul\":9795:9801   */\n      dup4\n        /* \"#utility.yul\":9788:9852   */\n      sstore\n        /* \"#utility.yul\":9710:9866   */\n      pop\n        /* \"#utility.yul\":9687:9866   */\n    tag_214:\n        /* \"#utility.yul\":9912:9913   */\n      0x01\n        /* \"#utility.yul\":9908:9909   */\n      0x02\n        /* \"#utility.yul\":9900:9906   */\n      dup9\n        /* \"#utility.yul\":9896:9910   */\n      mul\n        /* \"#utility.yul\":9892:9914   */\n      add\n        /* \"#utility.yul\":9886:9890   */\n      dup9\n        /* \"#utility.yul\":9879:9915   */\n      sstore\n        /* \"#utility.yul\":9314:9925   */\n      pop\n      pop\n      pop\n        /* \"#utility.yul\":9277:10164   */\n    tag_206:\n      pop\n        /* \"#utility.yul\":8867:10170   */\n      pop\n      pop\n      pop\n        /* \"#utility.yul\":8775:10170   */\n      pop\n      pop\n      jump\t// out\n\n    auxdata: 0xa2646970667358221220c6f19accb366e2a716f7c74c8d208b5b405bda0036401eb71d5b3d01b13edb7c64736f6c63430008110033\n}\n",
				"bytecode": {
					"linkReferences": {},
					"object": "60806040527378731d3ca6b7e34ac0f824c42a7cc18a495cabab6000806101000a81548173ffffffffffffffffffffffffffffffffffffffff021916908373ffffffffffffffffffffffffffffffffffffffff16021790555073ab8483f64d9c6d1ecf9b849ae677dd3315835cb2600160006101000a81548173ffffffffffffffffffffffffffffffffffffffff021916908373ffffffffffffffffffffffffffffffffffffffff1602179055503480156100b957600080fd5b5033600260006101000a81548173ffffffffffffffffffffffffffffffffffffffff021916908373ffffffffffffffffffffffffffffffffffffffff16021790555061096c8061010a6000396000f3fe6080604052600436106100595760003560e01c8063049f3743146100bf57806306f2d7f3146100dd578063529522a91461011a5780638da5cb5b14610145578063941be5f714610170578063c84e45c71461019b576100ba565b366100ba57600260009054906101000a900473ffffffffffffffffffffffffffffffffffffffff1673ffffffffffffffffffffffffffffffffffffffff163373ffffffffffffffffffffffffffffffffffffffff16146100b857600080fd5b005b600080fd5b6100c76101b2565b6040516100d4919061039d565b60405180910390f35b3480156100e957600080fd5b5061010460048036038101906100ff9190610512565b6101b7565b60405161011191906105da565b60405180910390f35b34801561012657600080fd5b5061012f610258565b60405161013c91906105da565b60405180910390f35b34801561015157600080fd5b5061015a6102e6565b604051610167919061063d565b60405180910390f35b34801561017c57600080fd5b5061018561030c565b604051610192919061039d565b60405180910390f35b3480156101a757600080fd5b506101b0610314565b005b600090565b606081600390816101c89190610864565b80546101d390610687565b80601f01602080910402602001604051908101604052809291908181526020018280546101ff90610687565b801561024c5780601f106102215761010080835404028352916020019161024c565b820191906000526020600020905b81548152906001019060200180831161022f57829003601f168201915b50505050509050919050565b6003805461026590610687565b80601f016020809104026020016040519081016040528092919081815260200182805461029190610687565b80156102de5780601f106102b3576101008083540402835291602001916102de565b820191906000526020600020905b8154815290600101906020018083116102c157829003601f168201915b505050505081565b600260009054906101000a900473ffffffffffffffffffffffffffffffffffffffff1681565b600047905090565b60008054906101000a900473ffffffffffffffffffffffffffffffffffffffff1673ffffffffffffffffffffffffffffffffffffffff166108fc61035661030c565b9081150290604051600060405180830381858888f19350505050158015610381573d6000803e3d6000fd5b50565b6000819050919050565b61039781610384565b82525050565b60006020820190506103b2600083018461038e565b92915050565b6000604051905090565b600080fd5b600080fd5b600080fd5b600080fd5b6000601f19601f8301169050919050565b7f4e487b7100000000000000000000000000000000000000000000000000000000600052604160045260246000fd5b61041f826103d6565b810181811067ffffffffffffffff8211171561043e5761043d6103e7565b5b80604052505050565b60006104516103b8565b905061045d8282610416565b919050565b600067ffffffffffffffff82111561047d5761047c6103e7565b5b610486826103d6565b9050602081019050919050565b82818337600083830152505050565b60006104b56104b084610462565b610447565b9050828152602081018484840111156104d1576104d06103d1565b5b6104dc848285610493565b509392505050565b600082601f8301126104f9576104f86103cc565b5b81356105098482602086016104a2565b91505092915050565b600060208284031215610528576105276103c2565b5b600082013567ffffffffffffffff811115610546576105456103c7565b5b610552848285016104e4565b91505092915050565b600081519050919050565b600082825260208201905092915050565b60005b8381101561059557808201518184015260208101905061057a565b60008484015250505050565b60006105ac8261055b565b6105b68185610566565b93506105c6818560208601610577565b6105cf816103d6565b840191505092915050565b600060208201905081810360008301526105f481846105a1565b905092915050565b600073ffffffffffffffffffffffffffffffffffffffff82169050919050565b6000610627826105fc565b9050919050565b6106378161061c565b82525050565b6000602082019050610652600083018461062e565b92915050565b7f4e487b7100000000000000000000000000000000000000000000000000000000600052602260045260246000fd5b6000600282049050600182168061069f57607f821691505b6020821081036106b2576106b1610658565b5b50919050565b60008190508160005260206000209050919050565b60006020601f8301049050919050565b600082821b905092915050565b60006008830261071a7fffffffffffffffffffffffffffffffffffffffffffffffffffffffffffffffff826106dd565b61072486836106dd565b95508019841693508086168417925050509392505050565b6000819050919050565b600061076161075c61075784610384565b61073c565b610384565b9050919050565b6000819050919050565b61077b83610746565b61078f61078782610768565b8484546106ea565b825550505050565b600090565b6107a4610797565b6107af818484610772565b505050565b5b818110156107d3576107c860008261079c565b6001810190506107b5565b5050565b601f821115610818576107e9816106b8565b6107f2846106cd565b81016020851015610801578190505b61081561080d856106cd565b8301826107b4565b50505b505050565b600082821c905092915050565b600061083b6000198460080261081d565b1980831691505092915050565b6000610854838361082a565b9150826002028217905092915050565b61086d8261055b565b67ffffffffffffffff811115610886576108856103e7565b5b6108908254610687565b61089b8282856107d7565b600060209050601f8311600181146108ce57600084156108bc578287015190505b6108c68582610848565b86555061092e565b601f1984166108dc866106b8565b60005b82811015610904578489015182556001820191506020850194506020810190506108df565b86831015610921578489015161091d601f89168261082a565b8355505b6001600288020188555050505b50505050505056fea2646970667358221220c6f19accb366e2a716f7c74c8d208b5b405bda0036401eb71d5b3d01b13edb7c64736f6c63430008110033",
					"opcodes": "PUSH1 0x80 PUSH1 0x40 MSTORE PUSH20 0x78731D3CA6B7E34AC0F824C42A7CC18A495CABAB PUSH1 0x0 DUP1 PUSH2 0x100 EXP DUP2 SLOAD DUP2 PUSH20 0xFFFFFFFFFFFFFFFFFFFFFFFFFFFFFFFFFFFFFFFF MUL NOT AND SWAP1 DUP4 PUSH20 0xFFFFFFFFFFFFFFFFFFFFFFFFFFFFFFFFFFFFFFFF AND MUL OR SWAP1 SSTORE POP PUSH20 0xAB8483F64D9C6D1ECF9B849AE677DD3315835CB2 PUSH1 0x1 PUSH1 0x0 PUSH2 0x100 EXP DUP2 SLOAD DUP2 PUSH20 0xFFFFFFFFFFFFFFFFFFFFFFFFFFFFFFFFFFFFFFFF MUL NOT AND SWAP1 DUP4 PUSH20 0xFFFFFFFFFFFFFFFFFFFFFFFFFFFFFFFFFFFFFFFF AND MUL OR SWAP1 SSTORE POP CALLVALUE DUP1 ISZERO PUSH2 0xB9 JUMPI PUSH1 0x0 DUP1 REVERT JUMPDEST POP CALLER PUSH1 0x2 PUSH1 0x0 PUSH2 0x100 EXP DUP2 SLOAD DUP2 PUSH20 0xFFFFFFFFFFFFFFFFFFFFFFFFFFFFFFFFFFFFFFFF MUL NOT AND SWAP1 DUP4 PUSH20 0xFFFFFFFFFFFFFFFFFFFFFFFFFFFFFFFFFFFFFFFF AND MUL OR SWAP1 SSTORE POP PUSH2 0x96C DUP1 PUSH2 0x10A PUSH1 0x0 CODECOPY PUSH1 0x0 RETURN INVALID PUSH1 0x80 PUSH1 0x40 MSTORE PUSH1 0x4 CALLDATASIZE LT PUSH2 0x59 JUMPI PUSH1 0x0 CALLDATALOAD PUSH1 0xE0 SHR DUP1 PUSH4 0x49F3743 EQ PUSH2 0xBF JUMPI DUP1 PUSH4 0x6F2D7F3 EQ PUSH2 0xDD JUMPI DUP1 PUSH4 0x529522A9 EQ PUSH2 0x11A JUMPI DUP1 PUSH4 0x8DA5CB5B EQ PUSH2 0x145 JUMPI DUP1 PUSH4 0x941BE5F7 EQ PUSH2 0x170 JUMPI DUP1 PUSH4 0xC84E45C7 EQ PUSH2 0x19B JUMPI PUSH2 0xBA JUMP JUMPDEST CALLDATASIZE PUSH2 0xBA JUMPI PUSH1 0x2 PUSH1 0x0 SWAP1 SLOAD SWAP1 PUSH2 0x100 EXP SWAP1 DIV PUSH20 0xFFFFFFFFFFFFFFFFFFFFFFFFFFFFFFFFFFFFFFFF AND PUSH20 0xFFFFFFFFFFFFFFFFFFFFFFFFFFFFFFFFFFFFFFFF AND CALLER PUSH20 0xFFFFFFFFFFFFFFFFFFFFFFFFFFFFFFFFFFFFFFFF AND EQ PUSH2 0xB8 JUMPI PUSH1 0x0 DUP1 REVERT JUMPDEST STOP JUMPDEST PUSH1 0x0 DUP1 REVERT JUMPDEST PUSH2 0xC7 PUSH2 0x1B2 JUMP JUMPDEST PUSH1 0x40 MLOAD PUSH2 0xD4 SWAP2 SWAP1 PUSH2 0x39D JUMP JUMPDEST PUSH1 0x40 MLOAD DUP1 SWAP2 SUB SWAP1 RETURN JUMPDEST CALLVALUE DUP1 ISZERO PUSH2 0xE9 JUMPI PUSH1 0x0 DUP1 REVERT JUMPDEST POP PUSH2 0x104 PUSH1 0x4 DUP1 CALLDATASIZE SUB DUP2 ADD SWAP1 PUSH2 0xFF SWAP2 SWAP1 PUSH2 0x512 JUMP JUMPDEST PUSH2 0x1B7 JUMP JUMPDEST PUSH1 0x40 MLOAD PUSH2 0x111 SWAP2 SWAP1 PUSH2 0x5DA JUMP JUMPDEST PUSH1 0x40 MLOAD DUP1 SWAP2 SUB SWAP1 RETURN JUMPDEST CALLVALUE DUP1 ISZERO PUSH2 0x126 JUMPI PUSH1 0x0 DUP1 REVERT JUMPDEST POP PUSH2 0x12F PUSH2 0x258 JUMP JUMPDEST PUSH1 0x40 MLOAD PUSH2 0x13C SWAP2 SWAP1 PUSH2 0x5DA JUMP JUMPDEST PUSH1 0x40 MLOAD DUP1 SWAP2 SUB SWAP1 RETURN JUMPDEST CALLVALUE DUP1 ISZERO PUSH2 0x151 JUMPI PUSH1 0x0 DUP1 REVERT JUMPDEST POP PUSH2 0x15A PUSH2 0x2E6 JUMP JUMPDEST PUSH1 0x40 MLOAD PUSH2 0x167 SWAP2 SWAP1 PUSH2 0x63D JUMP JUMPDEST PUSH1 0x40 MLOAD DUP1 SWAP2 SUB SWAP1 RETURN JUMPDEST CALLVALUE DUP1 ISZERO PUSH2 0x17C JUMPI PUSH1 0x0 DUP1 REVERT JUMPDEST POP PUSH2 0x185 PUSH2 0x30C JUMP JUMPDEST PUSH1 0x40 MLOAD PUSH2 0x192 SWAP2 SWAP1 PUSH2 0x39D JUMP JUMPDEST PUSH1 0x40 MLOAD DUP1 SWAP2 SUB SWAP1 RETURN JUMPDEST CALLVALUE DUP1 ISZERO PUSH2 0x1A7 JUMPI PUSH1 0x0 DUP1 REVERT JUMPDEST POP PUSH2 0x1B0 PUSH2 0x314 JUMP JUMPDEST STOP JUMPDEST PUSH1 0x0 SWAP1 JUMP JUMPDEST PUSH1 0x60 DUP2 PUSH1 0x3 SWAP1 DUP2 PUSH2 0x1C8 SWAP2 SWAP1 PUSH2 0x864 JUMP JUMPDEST DUP1 SLOAD PUSH2 0x1D3 SWAP1 PUSH2 0x687 JUMP JUMPDEST DUP1 PUSH1 0x1F ADD PUSH1 0x20 DUP1 SWAP2 DIV MUL PUSH1 0x20 ADD PUSH1 0x40 MLOAD SWAP1 DUP2 ADD PUSH1 0x40 MSTORE DUP1 SWAP3 SWAP2 SWAP1 DUP2 DUP2 MSTORE PUSH1 0x20 ADD DUP3 DUP1 SLOAD PUSH2 0x1FF SWAP1 PUSH2 0x687 JUMP JUMPDEST DUP1 ISZERO PUSH2 0x24C JUMPI DUP1 PUSH1 0x1F LT PUSH2 0x221 JUMPI PUSH2 0x100 DUP1 DUP4 SLOAD DIV MUL DUP4 MSTORE SWAP2 PUSH1 0x20 ADD SWAP2 PUSH2 0x24C JUMP JUMPDEST DUP3 ADD SWAP2 SWAP1 PUSH1 0x0 MSTORE PUSH1 0x20 PUSH1 0x0 KECCAK256 SWAP1 JUMPDEST DUP2 SLOAD DUP2 MSTORE SWAP1 PUSH1 0x1 ADD SWAP1 PUSH1 0x20 ADD DUP1 DUP4 GT PUSH2 0x22F JUMPI DUP3 SWAP1 SUB PUSH1 0x1F AND DUP3 ADD SWAP2 JUMPDEST POP POP POP POP POP SWAP1 POP SWAP2 SWAP1 POP JUMP JUMPDEST PUSH1 0x3 DUP1 SLOAD PUSH2 0x265 SWAP1 PUSH2 0x687 JUMP JUMPDEST DUP1 PUSH1 0x1F ADD PUSH1 0x20 DUP1 SWAP2 DIV MUL PUSH1 0x20 ADD PUSH1 0x40 MLOAD SWAP1 DUP2 ADD PUSH1 0x40 MSTORE DUP1 SWAP3 SWAP2 SWAP1 DUP2 DUP2 MSTORE PUSH1 0x20 ADD DUP3 DUP1 SLOAD PUSH2 0x291 SWAP1 PUSH2 0x687 JUMP JUMPDEST DUP1 ISZERO PUSH2 0x2DE JUMPI DUP1 PUSH1 0x1F LT PUSH2 0x2B3 JUMPI PUSH2 0x100 DUP1 DUP4 SLOAD DIV MUL DUP4 MSTORE SWAP2 PUSH1 0x20 ADD SWAP2 PUSH2 0x2DE JUMP JUMPDEST DUP3 ADD SWAP2 SWAP1 PUSH1 0x0 MSTORE PUSH1 0x20 PUSH1 0x0 KECCAK256 SWAP1 JUMPDEST DUP2 SLOAD DUP2 MSTORE SWAP1 PUSH1 0x1 ADD SWAP1 PUSH1 0x20 ADD DUP1 DUP4 GT PUSH2 0x2C1 JUMPI DUP3 SWAP1 SUB PUSH1 0x1F AND DUP3 ADD SWAP2 JUMPDEST POP POP POP POP POP DUP2 JUMP JUMPDEST PUSH1 0x2 PUSH1 0x0 SWAP1 SLOAD SWAP1 PUSH2 0x100 EXP SWAP1 DIV PUSH20 0xFFFFFFFFFFFFFFFFFFFFFFFFFFFFFFFFFFFFFFFF AND DUP2 JUMP JUMPDEST PUSH1 0x0 SELFBALANCE SWAP1 POP SWAP1 JUMP JUMPDEST PUSH1 0x0 DUP1 SLOAD SWAP1 PUSH2 0x100 EXP SWAP1 DIV PUSH20 0xFFFFFFFFFFFFFFFFFFFFFFFFFFFFFFFFFFFFFFFF AND PUSH20 0xFFFFFFFFFFFFFFFFFFFFFFFFFFFFFFFFFFFFFFFF AND PUSH2 0x8FC PUSH2 0x356 PUSH2 0x30C JUMP JUMPDEST SWAP1 DUP2 ISZERO MUL SWAP1 PUSH1 0x40 MLOAD PUSH1 0x0 PUSH1 0x40 MLOAD DUP1 DUP4 SUB DUP2 DUP6 DUP9 DUP9 CALL SWAP4 POP POP POP POP ISZERO DUP1 ISZERO PUSH2 0x381 JUMPI RETURNDATASIZE PUSH1 0x0 DUP1 RETURNDATACOPY RETURNDATASIZE PUSH1 0x0 REVERT JUMPDEST POP JUMP JUMPDEST PUSH1 0x0 DUP2 SWAP1 POP SWAP2 SWAP1 POP JUMP JUMPDEST PUSH2 0x397 DUP2 PUSH2 0x384 JUMP JUMPDEST DUP3 MSTORE POP POP JUMP JUMPDEST PUSH1 0x0 PUSH1 0x20 DUP3 ADD SWAP1 POP PUSH2 0x3B2 PUSH1 0x0 DUP4 ADD DUP5 PUSH2 0x38E JUMP JUMPDEST SWAP3 SWAP2 POP POP JUMP JUMPDEST PUSH1 0x0 PUSH1 0x40 MLOAD SWAP1 POP SWAP1 JUMP JUMPDEST PUSH1 0x0 DUP1 REVERT JUMPDEST PUSH1 0x0 DUP1 REVERT JUMPDEST PUSH1 0x0 DUP1 REVERT JUMPDEST PUSH1 0x0 DUP1 REVERT JUMPDEST PUSH1 0x0 PUSH1 0x1F NOT PUSH1 0x1F DUP4 ADD AND SWAP1 POP SWAP2 SWAP1 POP JUMP JUMPDEST PUSH32 0x4E487B7100000000000000000000000000000000000000000000000000000000 PUSH1 0x0 MSTORE PUSH1 0x41 PUSH1 0x4 MSTORE PUSH1 0x24 PUSH1 0x0 REVERT JUMPDEST PUSH2 0x41F DUP3 PUSH2 0x3D6 JUMP JUMPDEST DUP2 ADD DUP2 DUP2 LT PUSH8 0xFFFFFFFFFFFFFFFF DUP3 GT OR ISZERO PUSH2 0x43E JUMPI PUSH2 0x43D PUSH2 0x3E7 JUMP JUMPDEST JUMPDEST DUP1 PUSH1 0x40 MSTORE POP POP POP JUMP JUMPDEST PUSH1 0x0 PUSH2 0x451 PUSH2 0x3B8 JUMP JUMPDEST SWAP1 POP PUSH2 0x45D DUP3 DUP3 PUSH2 0x416 JUMP JUMPDEST SWAP2 SWAP1 POP JUMP JUMPDEST PUSH1 0x0 PUSH8 0xFFFFFFFFFFFFFFFF DUP3 GT ISZERO PUSH2 0x47D JUMPI PUSH2 0x47C PUSH2 0x3E7 JUMP JUMPDEST JUMPDEST PUSH2 0x486 DUP3 PUSH2 0x3D6 JUMP JUMPDEST SWAP1 POP PUSH1 0x20 DUP2 ADD SWAP1 POP SWAP2 SWAP1 POP JUMP JUMPDEST DUP3 DUP2 DUP4 CALLDATACOPY PUSH1 0x0 DUP4 DUP4 ADD MSTORE POP POP POP JUMP JUMPDEST PUSH1 0x0 PUSH2 0x4B5 PUSH2 0x4B0 DUP5 PUSH2 0x462 JUMP JUMPDEST PUSH2 0x447 JUMP JUMPDEST SWAP1 POP DUP3 DUP2 MSTORE PUSH1 0x20 DUP2 ADD DUP5 DUP5 DUP5 ADD GT ISZERO PUSH2 0x4D1 JUMPI PUSH2 0x4D0 PUSH2 0x3D1 JUMP JUMPDEST JUMPDEST PUSH2 0x4DC DUP5 DUP3 DUP6 PUSH2 0x493 JUMP JUMPDEST POP SWAP4 SWAP3 POP POP POP JUMP JUMPDEST PUSH1 0x0 DUP3 PUSH1 0x1F DUP4 ADD SLT PUSH2 0x4F9 JUMPI PUSH2 0x4F8 PUSH2 0x3CC JUMP JUMPDEST JUMPDEST DUP2 CALLDATALOAD PUSH2 0x509 DUP5 DUP3 PUSH1 0x20 DUP7 ADD PUSH2 0x4A2 JUMP JUMPDEST SWAP2 POP POP SWAP3 SWAP2 POP POP JUMP JUMPDEST PUSH1 0x0 PUSH1 0x20 DUP3 DUP5 SUB SLT ISZERO PUSH2 0x528 JUMPI PUSH2 0x527 PUSH2 0x3C2 JUMP JUMPDEST JUMPDEST PUSH1 0x0 DUP3 ADD CALLDATALOAD PUSH8 0xFFFFFFFFFFFFFFFF DUP2 GT ISZERO PUSH2 0x546 JUMPI PUSH2 0x545 PUSH2 0x3C7 JUMP JUMPDEST JUMPDEST PUSH2 0x552 DUP5 DUP3 DUP6 ADD PUSH2 0x4E4 JUMP JUMPDEST SWAP2 POP POP SWAP3 SWAP2 POP POP JUMP JUMPDEST PUSH1 0x0 DUP2 MLOAD SWAP1 POP SWAP2 SWAP1 POP JUMP JUMPDEST PUSH1 0x0 DUP3 DUP3 MSTORE PUSH1 0x20 DUP3 ADD SWAP1 POP SWAP3 SWAP2 POP POP JUMP JUMPDEST PUSH1 0x0 JUMPDEST DUP4 DUP2 LT ISZERO PUSH2 0x595 JUMPI DUP1 DUP3 ADD MLOAD DUP2 DUP5 ADD MSTORE PUSH1 0x20 DUP2 ADD SWAP1 POP PUSH2 0x57A JUMP JUMPDEST PUSH1 0x0 DUP5 DUP5 ADD MSTORE POP POP POP POP JUMP JUMPDEST PUSH1 0x0 PUSH2 0x5AC DUP3 PUSH2 0x55B JUMP JUMPDEST PUSH2 0x5B6 DUP2 DUP6 PUSH2 0x566 JUMP JUMPDEST SWAP4 POP PUSH2 0x5C6 DUP2 DUP6 PUSH1 0x20 DUP7 ADD PUSH2 0x577 JUMP JUMPDEST PUSH2 0x5CF DUP2 PUSH2 0x3D6 JUMP JUMPDEST DUP5 ADD SWAP2 POP POP SWAP3 SWAP2 POP POP JUMP JUMPDEST PUSH1 0x0 PUSH1 0x20 DUP3 ADD SWAP1 POP DUP2 DUP2 SUB PUSH1 0x0 DUP4 ADD MSTORE PUSH2 0x5F4 DUP2 DUP5 PUSH2 0x5A1 JUMP JUMPDEST SWAP1 POP SWAP3 SWAP2 POP POP JUMP JUMPDEST PUSH1 0x0 PUSH20 0xFFFFFFFFFFFFFFFFFFFFFFFFFFFFFFFFFFFFFFFF DUP3 AND SWAP1 POP SWAP2 SWAP1 POP JUMP JUMPDEST PUSH1 0x0 PUSH2 0x627 DUP3 PUSH2 0x5FC JUMP JUMPDEST SWAP1 POP SWAP2 SWAP1 POP JUMP JUMPDEST PUSH2 0x637 DUP2 PUSH2 0x61C JUMP JUMPDEST DUP3 MSTORE POP POP JUMP JUMPDEST PUSH1 0x0 PUSH1 0x20 DUP3 ADD SWAP1 POP PUSH2 0x652 PUSH1 0x0 DUP4 ADD DUP5 PUSH2 0x62E JUMP JUMPDEST SWAP3 SWAP2 POP POP JUMP JUMPDEST PUSH32 0x4E487B7100000000000000000000000000000000000000000000000000000000 PUSH1 0x0 MSTORE PUSH1 0x22 PUSH1 0x4 MSTORE PUSH1 0x24 PUSH1 0x0 REVERT JUMPDEST PUSH1 0x0 PUSH1 0x2 DUP3 DIV SWAP1 POP PUSH1 0x1 DUP3 AND DUP1 PUSH2 0x69F JUMPI PUSH1 0x7F DUP3 AND SWAP2 POP JUMPDEST PUSH1 0x20 DUP3 LT DUP2 SUB PUSH2 0x6B2 JUMPI PUSH2 0x6B1 PUSH2 0x658 JUMP JUMPDEST JUMPDEST POP SWAP2 SWAP1 POP JUMP JUMPDEST PUSH1 0x0 DUP2 SWAP1 POP DUP2 PUSH1 0x0 MSTORE PUSH1 0x20 PUSH1 0x0 KECCAK256 SWAP1 POP SWAP2 SWAP1 POP JUMP JUMPDEST PUSH1 0x0 PUSH1 0x20 PUSH1 0x1F DUP4 ADD DIV SWAP1 POP SWAP2 SWAP1 POP JUMP JUMPDEST PUSH1 0x0 DUP3 DUP3 SHL SWAP1 POP SWAP3 SWAP2 POP POP JUMP JUMPDEST PUSH1 0x0 PUSH1 0x8 DUP4 MUL PUSH2 0x71A PUSH32 0xFFFFFFFFFFFFFFFFFFFFFFFFFFFFFFFFFFFFFFFFFFFFFFFFFFFFFFFFFFFFFFFF DUP3 PUSH2 0x6DD JUMP JUMPDEST PUSH2 0x724 DUP7 DUP4 PUSH2 0x6DD JUMP JUMPDEST SWAP6 POP DUP1 NOT DUP5 AND SWAP4 POP DUP1 DUP7 AND DUP5 OR SWAP3 POP POP POP SWAP4 SWAP3 POP POP POP JUMP JUMPDEST PUSH1 0x0 DUP2 SWAP1 POP SWAP2 SWAP1 POP JUMP JUMPDEST PUSH1 0x0 PUSH2 0x761 PUSH2 0x75C PUSH2 0x757 DUP5 PUSH2 0x384 JUMP JUMPDEST PUSH2 0x73C JUMP JUMPDEST PUSH2 0x384 JUMP JUMPDEST SWAP1 POP SWAP2 SWAP1 POP JUMP JUMPDEST PUSH1 0x0 DUP2 SWAP1 POP SWAP2 SWAP1 POP JUMP JUMPDEST PUSH2 0x77B DUP4 PUSH2 0x746 JUMP JUMPDEST PUSH2 0x78F PUSH2 0x787 DUP3 PUSH2 0x768 JUMP JUMPDEST DUP5 DUP5 SLOAD PUSH2 0x6EA JUMP JUMPDEST DUP3 SSTORE POP POP POP POP JUMP JUMPDEST PUSH1 0x0 SWAP1 JUMP JUMPDEST PUSH2 0x7A4 PUSH2 0x797 JUMP JUMPDEST PUSH2 0x7AF DUP2 DUP5 DUP5 PUSH2 0x772 JUMP JUMPDEST POP POP POP JUMP JUMPDEST JUMPDEST DUP2 DUP2 LT ISZERO PUSH2 0x7D3 JUMPI PUSH2 0x7C8 PUSH1 0x0 DUP3 PUSH2 0x79C JUMP JUMPDEST PUSH1 0x1 DUP2 ADD SWAP1 POP PUSH2 0x7B5 JUMP JUMPDEST POP POP JUMP JUMPDEST PUSH1 0x1F DUP3 GT ISZERO PUSH2 0x818 JUMPI PUSH2 0x7E9 DUP2 PUSH2 0x6B8 JUMP JUMPDEST PUSH2 0x7F2 DUP5 PUSH2 0x6CD JUMP JUMPDEST DUP2 ADD PUSH1 0x20 DUP6 LT ISZERO PUSH2 0x801 JUMPI DUP2 SWAP1 POP JUMPDEST PUSH2 0x815 PUSH2 0x80D DUP6 PUSH2 0x6CD JUMP JUMPDEST DUP4 ADD DUP3 PUSH2 0x7B4 JUMP JUMPDEST POP POP JUMPDEST POP POP POP JUMP JUMPDEST PUSH1 0x0 DUP3 DUP3 SHR SWAP1 POP SWAP3 SWAP2 POP POP JUMP JUMPDEST PUSH1 0x0 PUSH2 0x83B PUSH1 0x0 NOT DUP5 PUSH1 0x8 MUL PUSH2 0x81D JUMP JUMPDEST NOT DUP1 DUP4 AND SWAP2 POP POP SWAP3 SWAP2 POP POP JUMP JUMPDEST PUSH1 0x0 PUSH2 0x854 DUP4 DUP4 PUSH2 0x82A JUMP JUMPDEST SWAP2 POP DUP3 PUSH1 0x2 MUL DUP3 OR SWAP1 POP SWAP3 SWAP2 POP POP JUMP JUMPDEST PUSH2 0x86D DUP3 PUSH2 0x55B JUMP JUMPDEST PUSH8 0xFFFFFFFFFFFFFFFF DUP2 GT ISZERO PUSH2 0x886 JUMPI PUSH2 0x885 PUSH2 0x3E7 JUMP JUMPDEST JUMPDEST PUSH2 0x890 DUP3 SLOAD PUSH2 0x687 JUMP JUMPDEST PUSH2 0x89B DUP3 DUP3 DUP6 PUSH2 0x7D7 JUMP JUMPDEST PUSH1 0x0 PUSH1 0x20 SWAP1 POP PUSH1 0x1F DUP4 GT PUSH1 0x1 DUP2 EQ PUSH2 0x8CE JUMPI PUSH1 0x0 DUP5 ISZERO PUSH2 0x8BC JUMPI DUP3 DUP8 ADD MLOAD SWAP1 POP JUMPDEST PUSH2 0x8C6 DUP6 DUP3 PUSH2 0x848 JUMP JUMPDEST DUP7 SSTORE POP PUSH2 0x92E JUMP JUMPDEST PUSH1 0x1F NOT DUP5 AND PUSH2 0x8DC DUP7 PUSH2 0x6B8 JUMP JUMPDEST PUSH1 0x0 JUMPDEST DUP3 DUP2 LT ISZERO PUSH2 0x904 JUMPI DUP5 DUP10 ADD MLOAD DUP3 SSTORE PUSH1 0x1 DUP3 ADD SWAP2 POP PUSH1 0x20 DUP6 ADD SWAP5 POP PUSH1 0x20 DUP2 ADD SWAP1 POP PUSH2 0x8DF JUMP JUMPDEST DUP7 DUP4 LT ISZERO PUSH2 0x921 JUMPI DUP5 DUP10 ADD MLOAD PUSH2 0x91D PUSH1 0x1F DUP10 AND DUP3 PUSH2 0x82A JUMP JUMPDEST DUP4 SSTORE POP JUMPDEST PUSH1 0x1 PUSH1 0x2 DUP9 MUL ADD DUP9 SSTORE POP POP POP JUMPDEST POP POP POP POP POP POP JUMP INVALID LOG2 PUSH5 0x6970667358 0x22 SLT KECCAK256 0xC6 CALL SWAP11 0xCC 0xB3 PUSH7 0xE2A716F7C74C8D KECCAK256 DUP12 JUMPDEST BLOCKHASH JUMPDEST 0xDA STOP CALLDATASIZE BLOCKHASH 0x1E 0xB7 SAR JUMPDEST RETURNDATASIZE ADD 0xB1 RETURNDATACOPY 0xDB PUSH29 0x64736F6C63430008110033000000000000000000000000000000000000 "
				},
				"gasEstimates": {
					"creation": {
						"codeDepositCost": "482400",
						"executionCost": "73318",
						"totalCost": "555718"
					},
					"external": {
						"getBlance()": "405",
						"getMeal(string)": "infinite",
						"meal()": "infinite",
						"owner()": "2558",
						"sendSa()": "283",
						"transf()": "infinite"
					}
				},
				"methodIdentifiers": {
					"getBlance()": "941be5f7",
					"getMeal(string)": "06f2d7f3",
					"meal()": "529522a9",
					"owner()": "8da5cb5b",
					"sendSa()": "049f3743",
					"transf()": "c84e45c7"
				}
			},
			"storageLayout": {
				"storage": [
					{
						"astId": 7,
						"contract": "Bakery.sol:bakery",
						"label": "thirdParty",
						"offset": 0,
						"slot": "0",
						"type": "t_address_payable"
					},
					{
						"astId": 13,
						"contract": "Bakery.sol:bakery",
						"label": "salesMan",
						"offset": 0,
						"slot": "1",
						"type": "t_address_payable"
					},
					{
						"astId": 15,
						"contract": "Bakery.sol:bakery",
						"label": "owner",
						"offset": 0,
						"slot": "2",
						"type": "t_address"
					},
					{
						"astId": 17,
						"contract": "Bakery.sol:bakery",
						"label": "meal",
						"offset": 0,
						"slot": "3",
						"type": "t_string_storage"
					}
				],
				"types": {
					"t_address": {
						"encoding": "inplace",
						"label": "address",
						"numberOfBytes": "20"
					},
					"t_address_payable": {
						"encoding": "inplace",
						"label": "address payable",
						"numberOfBytes": "20"
					},
					"t_string_storage": {
						"encoding": "bytes",
						"label": "string",
						"numberOfBytes": "32"
					}
				}
			},
			"userdoc": {
				"kind": "user",
				"methods": {},
				"version": 1
			}
		}
	}
}