{
	"Bakery.sol": {
		"bakery": {
			"abi": [
				{
					"inputs": [],
					"stateMutability": "nonpayable",
					"type": "constructor"
				},
				{
					"inputs": [],
					"name": "getBlance",
					"outputs": [
						{
							"internalType": "uint256",
							"name": "",
							"type": "uint256"
						}
					],
					"stateMutability": "view",
					"type": "function"
				},
				{
					"inputs": [
						{
							"internalType": "string",
							"name": "_meal",
							"type": "string"
						}
					],
					"name": "getMeal",
					"outputs": [
						{
							"internalType": "bool",
							"name": "",
							"type": "bool"
						}
					],
					"stateMutability": "nonpayable",
					"type": "function"
				},
				{
					"inputs": [],
					"name": "owner",
					"outputs": [
						{
							"internalType": "address",
							"name": "",
							"type": "address"
						}
					],
					"stateMutability": "view",
					"type": "function"
				},
				{
					"inputs": [],
					"name": "transf",
					"outputs": [],
					"stateMutability": "nonpayable",
					"type": "function"
				},
				{
					"stateMutability": "payable",
					"type": "receive"
				}
			],
			"devdoc": {
				"kind": "dev",
				"methods": {},
				"version": 1
			},
			"evm": {
				"assembly": "    /* \"Bakery.sol\":74:801  contract bakery{... */\n  mstore(0x40, 0x80)\n    /* \"Bakery.sol\":131:173  0x78731D3Ca6b7E34aC0F824c42a7cC18A495cabaB */\n  0x78731d3ca6b7e34ac0f824c42a7cc18a495cabab\n    /* \"Bakery.sol\":96:174  address payable thirdParty=payable(0x78731D3Ca6b7E34aC0F824c42a7cC18A495cabaB) */\n  0x00\n  dup1\n  0x0100\n  exp\n  dup2\n  sload\n  dup2\n  0xffffffffffffffffffffffffffffffffffffffff\n  mul\n  not\n  and\n  swap1\n  dup4\n  0xffffffffffffffffffffffffffffffffffffffff\n  and\n  mul\n  or\n  swap1\n  sstore\n  pop\n    /* \"Bakery.sol\":215:257  0xAb8483F64d9C6d1EcF9b849Ae677dD3315835cb2 */\n  0xab8483f64d9c6d1ecf9b849ae677dd3315835cb2\n    /* \"Bakery.sol\":181:258  address payable salesMan=payable (0xAb8483F64d9C6d1EcF9b849Ae677dD3315835cb2) */\n  0x01\n  exp(0x0100, 0x00)\n  dup2\n  sload\n  dup2\n  0xffffffffffffffffffffffffffffffffffffffff\n  mul\n  not\n  and\n  swap1\n  dup4\n  0xffffffffffffffffffffffffffffffffffffffff\n  and\n  mul\n  or\n  swap1\n  sstore\n  pop\n    /* \"Bakery.sol\":312:367  constructor ()... */\n  callvalue\n  dup1\n  iszero\n  tag_1\n  jumpi\n  0x00\n  dup1\n  revert\ntag_1:\n  pop\n    /* \"Bakery.sol\":349:359  msg.sender */\n  caller\n    /* \"Bakery.sol\":343:348  owner */\n  0x02\n  0x00\n    /* \"Bakery.sol\":343:359  owner=msg.sender */\n  0x0100\n  exp\n  dup2\n  sload\n  dup2\n  0xffffffffffffffffffffffffffffffffffffffff\n  mul\n  not\n  and\n  swap1\n  dup4\n  0xffffffffffffffffffffffffffffffffffffffff\n  and\n  mul\n  or\n  swap1\n  sstore\n  pop\n    /* \"Bakery.sol\":74:801  contract bakery{... */\n  dataSize(sub_0)\n  dup1\n  dataOffset(sub_0)\n  0x00\n  codecopy\n  0x00\n  return\nstop\n\nsub_0: assembly {\n        /* \"Bakery.sol\":74:801  contract bakery{... */\n      mstore(0x40, 0x80)\n      jumpi(tag_1, lt(calldatasize, 0x04))\n      shr(0xe0, calldataload(0x00))\n      dup1\n      0x06f2d7f3\n      eq\n      tag_3\n      jumpi\n      dup1\n      0x8da5cb5b\n      eq\n      tag_4\n      jumpi\n      dup1\n      0x941be5f7\n      eq\n      tag_5\n      jumpi\n      dup1\n      0xc84e45c7\n      eq\n      tag_6\n      jumpi\n      jump(tag_2)\n    tag_1:\n      jumpi(tag_2, calldatasize)\n        /* \"Bakery.sol\":545:550  owner */\n      0x02\n      0x00\n      swap1\n      sload\n      swap1\n      0x0100\n      exp\n      swap1\n      div\n      0xffffffffffffffffffffffffffffffffffffffff\n      and\n        /* \"Bakery.sol\":533:550  msg.sender==owner */\n      0xffffffffffffffffffffffffffffffffffffffff\n      and\n        /* \"Bakery.sol\":533:543  msg.sender */\n      caller\n        /* \"Bakery.sol\":533:550  msg.sender==owner */\n      0xffffffffffffffffffffffffffffffffffffffff\n      and\n      eq\n        /* \"Bakery.sol\":525:551  require(msg.sender==owner) */\n      tag_9\n      jumpi\n      0x00\n      dup1\n      revert\n    tag_9:\n        /* \"Bakery.sol\":74:801  contract bakery{... */\n      stop\n    tag_2:\n      0x00\n      dup1\n      revert\n        /* \"Bakery.sol\":703:796  function getMeal(string memory _meal) public returns(bool)... */\n    tag_3:\n      callvalue\n      dup1\n      iszero\n      tag_10\n      jumpi\n      0x00\n      dup1\n      revert\n    tag_10:\n      pop\n      tag_11\n      0x04\n      dup1\n      calldatasize\n      sub\n      dup2\n      add\n      swap1\n      tag_12\n      swap2\n      swap1\n      tag_13\n      jump\t// in\n    tag_12:\n      tag_14\n      jump\t// in\n    tag_11:\n      mload(0x40)\n      tag_15\n      swap2\n      swap1\n      tag_16\n      jump\t// in\n    tag_15:\n      mload(0x40)\n      dup1\n      swap2\n      sub\n      swap1\n      return\n        /* \"Bakery.sol\":265:285  address public owner */\n    tag_4:\n      callvalue\n      dup1\n      iszero\n      tag_17\n      jumpi\n      0x00\n      dup1\n      revert\n    tag_17:\n      pop\n      tag_18\n      tag_19\n      jump\t// in\n    tag_18:\n      mload(0x40)\n      tag_20\n      swap2\n      swap1\n      tag_21\n      jump\t// in\n    tag_20:\n      mload(0x40)\n      dup1\n      swap2\n      sub\n      swap1\n      return\n        /* \"Bakery.sol\":375:474  function getBlance() view public returns(uint)... */\n    tag_5:\n      callvalue\n      dup1\n      iszero\n      tag_22\n      jumpi\n      0x00\n      dup1\n      revert\n    tag_22:\n      pop\n      tag_23\n      tag_24\n      jump\t// in\n    tag_23:\n      mload(0x40)\n      tag_25\n      swap2\n      swap1\n      tag_26\n      jump\t// in\n    tag_25:\n      mload(0x40)\n      dup1\n      swap2\n      sub\n      swap1\n      return\n        /* \"Bakery.sol\":569:695  function transf() public ... */\n    tag_6:\n      callvalue\n      dup1\n      iszero\n      tag_27\n      jumpi\n      0x00\n      dup1\n      revert\n    tag_27:\n      pop\n      tag_28\n      tag_29\n      jump\t// in\n    tag_28:\n      stop\n        /* \"Bakery.sol\":703:796  function getMeal(string memory _meal) public returns(bool)... */\n    tag_14:\n        /* \"Bakery.sol\":756:760  bool */\n      0x00\n        /* \"Bakery.sol\":783:788  _meal */\n      dup2\n        /* \"Bakery.sol\":778:782  meal */\n      0x03\n        /* \"Bakery.sol\":778:788  meal=_meal */\n      swap1\n      dup2\n      tag_31\n      swap2\n      swap1\n      tag_32\n      jump\t// in\n    tag_31:\n      pop\n        /* \"Bakery.sol\":703:796  function getMeal(string memory _meal) public returns(bool)... */\n      swap2\n      swap1\n      pop\n      jump\t// out\n        /* \"Bakery.sol\":265:285  address public owner */\n    tag_19:\n      0x02\n      0x00\n      swap1\n      sload\n      swap1\n      0x0100\n      exp\n      swap1\n      div\n      0xffffffffffffffffffffffffffffffffffffffff\n      and\n      dup2\n      jump\t// out\n        /* \"Bakery.sol\":375:474  function getBlance() view public returns(uint)... */\n    tag_24:\n        /* \"Bakery.sol\":416:420  uint */\n      0x00\n        /* \"Bakery.sol\":445:466  address(this).balance */\n      selfbalance\n        /* \"Bakery.sol\":438:466  return address(this).balance */\n      swap1\n      pop\n        /* \"Bakery.sol\":375:474  function getBlance() view public returns(uint)... */\n      swap1\n      jump\t// out\n        /* \"Bakery.sol\":569:695  function transf() public ... */\n    tag_29:\n        /* \"Bakery.sol\":655:665  thirdParty */\n      0x00\n      dup1\n      sload\n      swap1\n      0x0100\n      exp\n      swap1\n      div\n      0xffffffffffffffffffffffffffffffffffffffff\n      and\n        /* \"Bakery.sol\":655:674  thirdParty.transfer */\n      0xffffffffffffffffffffffffffffffffffffffff\n      and\n        /* \"Bakery.sol\":655:687  thirdParty.transfer(getBlance()) */\n      0x08fc\n        /* \"Bakery.sol\":675:686  getBlance() */\n      tag_35\n        /* \"Bakery.sol\":675:684  getBlance */\n      tag_24\n        /* \"Bakery.sol\":675:686  getBlance() */\n      jump\t// in\n    tag_35:\n        /* \"Bakery.sol\":655:687  thirdParty.transfer(getBlance()) */\n      swap1\n      dup2\n      iszero\n      mul\n      swap1\n      mload(0x40)\n      0x00\n      mload(0x40)\n      dup1\n      dup4\n      sub\n      dup2\n      dup6\n      dup9\n      dup9\n      call\n      swap4\n      pop\n      pop\n      pop\n      pop\n      iszero\n      dup1\n      iszero\n      tag_37\n      jumpi\n      returndatasize\n      0x00\n      dup1\n      returndatacopy\n      revert(0x00, returndatasize)\n    tag_37:\n      pop\n        /* \"Bakery.sol\":569:695  function transf() public ... */\n      jump\t// out\n        /* \"#utility.yul\":7:82   */\n    tag_38:\n        /* \"#utility.yul\":40:46   */\n      0x00\n        /* \"#utility.yul\":73:75   */\n      0x40\n        /* \"#utility.yul\":67:76   */\n      mload\n        /* \"#utility.yul\":57:76   */\n      swap1\n      pop\n        /* \"#utility.yul\":7:82   */\n      swap1\n      jump\t// out\n        /* \"#utility.yul\":88:205   */\n    tag_39:\n        /* \"#utility.yul\":197:198   */\n      0x00\n        /* \"#utility.yul\":194:195   */\n      dup1\n        /* \"#utility.yul\":187:199   */\n      revert\n        /* \"#utility.yul\":211:328   */\n    tag_40:\n        /* \"#utility.yul\":320:321   */\n      0x00\n        /* \"#utility.yul\":317:318   */\n      dup1\n        /* \"#utility.yul\":310:322   */\n      revert\n        /* \"#utility.yul\":334:451   */\n    tag_41:\n        /* \"#utility.yul\":443:444   */\n      0x00\n        /* \"#utility.yul\":440:441   */\n      dup1\n        /* \"#utility.yul\":433:445   */\n      revert\n        /* \"#utility.yul\":457:574   */\n    tag_42:\n        /* \"#utility.yul\":566:567   */\n      0x00\n        /* \"#utility.yul\":563:564   */\n      dup1\n        /* \"#utility.yul\":556:568   */\n      revert\n        /* \"#utility.yul\":580:682   */\n    tag_43:\n        /* \"#utility.yul\":621:627   */\n      0x00\n        /* \"#utility.yul\":672:674   */\n      0x1f\n        /* \"#utility.yul\":668:675   */\n      not\n        /* \"#utility.yul\":663:665   */\n      0x1f\n        /* \"#utility.yul\":656:661   */\n      dup4\n        /* \"#utility.yul\":652:666   */\n      add\n        /* \"#utility.yul\":648:676   */\n      and\n        /* \"#utility.yul\":638:676   */\n      swap1\n      pop\n        /* \"#utility.yul\":580:682   */\n      swap2\n      swap1\n      pop\n      jump\t// out\n        /* \"#utility.yul\":688:868   */\n    tag_44:\n        /* \"#utility.yul\":736:813   */\n      0x4e487b7100000000000000000000000000000000000000000000000000000000\n        /* \"#utility.yul\":733:734   */\n      0x00\n        /* \"#utility.yul\":726:814   */\n      mstore\n        /* \"#utility.yul\":833:837   */\n      0x41\n        /* \"#utility.yul\":830:831   */\n      0x04\n        /* \"#utility.yul\":823:838   */\n      mstore\n        /* \"#utility.yul\":857:861   */\n      0x24\n        /* \"#utility.yul\":854:855   */\n      0x00\n        /* \"#utility.yul\":847:862   */\n      revert\n        /* \"#utility.yul\":874:1155   */\n    tag_45:\n        /* \"#utility.yul\":957:984   */\n      tag_85\n        /* \"#utility.yul\":979:983   */\n      dup3\n        /* \"#utility.yul\":957:984   */\n      tag_43\n      jump\t// in\n    tag_85:\n        /* \"#utility.yul\":949:955   */\n      dup2\n        /* \"#utility.yul\":945:985   */\n      add\n        /* \"#utility.yul\":1087:1093   */\n      dup2\n        /* \"#utility.yul\":1075:1085   */\n      dup2\n        /* \"#utility.yul\":1072:1094   */\n      lt\n        /* \"#utility.yul\":1051:1069   */\n      0xffffffffffffffff\n        /* \"#utility.yul\":1039:1049   */\n      dup3\n        /* \"#utility.yul\":1036:1070   */\n      gt\n        /* \"#utility.yul\":1033:1095   */\n      or\n        /* \"#utility.yul\":1030:1118   */\n      iszero\n      tag_86\n      jumpi\n        /* \"#utility.yul\":1098:1116   */\n      tag_87\n      tag_44\n      jump\t// in\n    tag_87:\n        /* \"#utility.yul\":1030:1118   */\n    tag_86:\n        /* \"#utility.yul\":1138:1148   */\n      dup1\n        /* \"#utility.yul\":1134:1136   */\n      0x40\n        /* \"#utility.yul\":1127:1149   */\n      mstore\n        /* \"#utility.yul\":917:1155   */\n      pop\n        /* \"#utility.yul\":874:1155   */\n      pop\n      pop\n      jump\t// out\n        /* \"#utility.yul\":1161:1290   */\n    tag_46:\n        /* \"#utility.yul\":1195:1201   */\n      0x00\n        /* \"#utility.yul\":1222:1242   */\n      tag_89\n      tag_38\n      jump\t// in\n    tag_89:\n        /* \"#utility.yul\":1212:1242   */\n      swap1\n      pop\n        /* \"#utility.yul\":1251:1284   */\n      tag_90\n        /* \"#utility.yul\":1279:1283   */\n      dup3\n        /* \"#utility.yul\":1271:1277   */\n      dup3\n        /* \"#utility.yul\":1251:1284   */\n      tag_45\n      jump\t// in\n    tag_90:\n        /* \"#utility.yul\":1161:1290   */\n      swap2\n      swap1\n      pop\n      jump\t// out\n        /* \"#utility.yul\":1296:1604   */\n    tag_47:\n        /* \"#utility.yul\":1358:1362   */\n      0x00\n        /* \"#utility.yul\":1448:1466   */\n      0xffffffffffffffff\n        /* \"#utility.yul\":1440:1446   */\n      dup3\n        /* \"#utility.yul\":1437:1467   */\n      gt\n        /* \"#utility.yul\":1434:1490   */\n      iszero\n      tag_92\n      jumpi\n        /* \"#utility.yul\":1470:1488   */\n      tag_93\n      tag_44\n      jump\t// in\n    tag_93:\n        /* \"#utility.yul\":1434:1490   */\n    tag_92:\n        /* \"#utility.yul\":1508:1537   */\n      tag_94\n        /* \"#utility.yul\":1530:1536   */\n      dup3\n        /* \"#utility.yul\":1508:1537   */\n      tag_43\n      jump\t// in\n    tag_94:\n        /* \"#utility.yul\":1500:1537   */\n      swap1\n      pop\n        /* \"#utility.yul\":1592:1596   */\n      0x20\n        /* \"#utility.yul\":1586:1590   */\n      dup2\n        /* \"#utility.yul\":1582:1597   */\n      add\n        /* \"#utility.yul\":1574:1597   */\n      swap1\n      pop\n        /* \"#utility.yul\":1296:1604   */\n      swap2\n      swap1\n      pop\n      jump\t// out\n        /* \"#utility.yul\":1610:1756   */\n    tag_48:\n        /* \"#utility.yul\":1707:1713   */\n      dup3\n        /* \"#utility.yul\":1702:1705   */\n      dup2\n        /* \"#utility.yul\":1697:1700   */\n      dup4\n        /* \"#utility.yul\":1684:1714   */\n      calldatacopy\n        /* \"#utility.yul\":1748:1749   */\n      0x00\n        /* \"#utility.yul\":1739:1745   */\n      dup4\n        /* \"#utility.yul\":1734:1737   */\n      dup4\n        /* \"#utility.yul\":1730:1746   */\n      add\n        /* \"#utility.yul\":1723:1750   */\n      mstore\n        /* \"#utility.yul\":1610:1756   */\n      pop\n      pop\n      pop\n      jump\t// out\n        /* \"#utility.yul\":1762:2187   */\n    tag_49:\n        /* \"#utility.yul\":1840:1845   */\n      0x00\n        /* \"#utility.yul\":1865:1931   */\n      tag_97\n        /* \"#utility.yul\":1881:1930   */\n      tag_98\n        /* \"#utility.yul\":1923:1929   */\n      dup5\n        /* \"#utility.yul\":1881:1930   */\n      tag_47\n      jump\t// in\n    tag_98:\n        /* \"#utility.yul\":1865:1931   */\n      tag_46\n      jump\t// in\n    tag_97:\n        /* \"#utility.yul\":1856:1931   */\n      swap1\n      pop\n        /* \"#utility.yul\":1954:1960   */\n      dup3\n        /* \"#utility.yul\":1947:1952   */\n      dup2\n        /* \"#utility.yul\":1940:1961   */\n      mstore\n        /* \"#utility.yul\":1992:1996   */\n      0x20\n        /* \"#utility.yul\":1985:1990   */\n      dup2\n        /* \"#utility.yul\":1981:1997   */\n      add\n        /* \"#utility.yul\":2030:2033   */\n      dup5\n        /* \"#utility.yul\":2021:2027   */\n      dup5\n        /* \"#utility.yul\":2016:2019   */\n      dup5\n        /* \"#utility.yul\":2012:2028   */\n      add\n        /* \"#utility.yul\":2009:2034   */\n      gt\n        /* \"#utility.yul\":2006:2118   */\n      iszero\n      tag_99\n      jumpi\n        /* \"#utility.yul\":2037:2116   */\n      tag_100\n      tag_42\n      jump\t// in\n    tag_100:\n        /* \"#utility.yul\":2006:2118   */\n    tag_99:\n        /* \"#utility.yul\":2127:2181   */\n      tag_101\n        /* \"#utility.yul\":2174:2180   */\n      dup5\n        /* \"#utility.yul\":2169:2172   */\n      dup3\n        /* \"#utility.yul\":2164:2167   */\n      dup6\n        /* \"#utility.yul\":2127:2181   */\n      tag_48\n      jump\t// in\n    tag_101:\n        /* \"#utility.yul\":1846:2187   */\n      pop\n        /* \"#utility.yul\":1762:2187   */\n      swap4\n      swap3\n      pop\n      pop\n      pop\n      jump\t// out\n        /* \"#utility.yul\":2207:2547   */\n    tag_50:\n        /* \"#utility.yul\":2263:2268   */\n      0x00\n        /* \"#utility.yul\":2312:2315   */\n      dup3\n        /* \"#utility.yul\":2305:2309   */\n      0x1f\n        /* \"#utility.yul\":2297:2303   */\n      dup4\n        /* \"#utility.yul\":2293:2310   */\n      add\n        /* \"#utility.yul\":2289:2316   */\n      slt\n        /* \"#utility.yul\":2279:2401   */\n      tag_103\n      jumpi\n        /* \"#utility.yul\":2320:2399   */\n      tag_104\n      tag_41\n      jump\t// in\n    tag_104:\n        /* \"#utility.yul\":2279:2401   */\n    tag_103:\n        /* \"#utility.yul\":2437:2443   */\n      dup2\n        /* \"#utility.yul\":2424:2444   */\n      calldataload\n        /* \"#utility.yul\":2462:2541   */\n      tag_105\n        /* \"#utility.yul\":2537:2540   */\n      dup5\n        /* \"#utility.yul\":2529:2535   */\n      dup3\n        /* \"#utility.yul\":2522:2526   */\n      0x20\n        /* \"#utility.yul\":2514:2520   */\n      dup7\n        /* \"#utility.yul\":2510:2527   */\n      add\n        /* \"#utility.yul\":2462:2541   */\n      tag_49\n      jump\t// in\n    tag_105:\n        /* \"#utility.yul\":2453:2541   */\n      swap2\n      pop\n        /* \"#utility.yul\":2269:2547   */\n      pop\n        /* \"#utility.yul\":2207:2547   */\n      swap3\n      swap2\n      pop\n      pop\n      jump\t// out\n        /* \"#utility.yul\":2553:3062   */\n    tag_13:\n        /* \"#utility.yul\":2622:2628   */\n      0x00\n        /* \"#utility.yul\":2671:2673   */\n      0x20\n        /* \"#utility.yul\":2659:2668   */\n      dup3\n        /* \"#utility.yul\":2650:2657   */\n      dup5\n        /* \"#utility.yul\":2646:2669   */\n      sub\n        /* \"#utility.yul\":2642:2674   */\n      slt\n        /* \"#utility.yul\":2639:2758   */\n      iszero\n      tag_107\n      jumpi\n        /* \"#utility.yul\":2677:2756   */\n      tag_108\n      tag_39\n      jump\t// in\n    tag_108:\n        /* \"#utility.yul\":2639:2758   */\n    tag_107:\n        /* \"#utility.yul\":2825:2826   */\n      0x00\n        /* \"#utility.yul\":2814:2823   */\n      dup3\n        /* \"#utility.yul\":2810:2827   */\n      add\n        /* \"#utility.yul\":2797:2828   */\n      calldataload\n        /* \"#utility.yul\":2855:2873   */\n      0xffffffffffffffff\n        /* \"#utility.yul\":2847:2853   */\n      dup2\n        /* \"#utility.yul\":2844:2874   */\n      gt\n        /* \"#utility.yul\":2841:2958   */\n      iszero\n      tag_109\n      jumpi\n        /* \"#utility.yul\":2877:2956   */\n      tag_110\n      tag_40\n      jump\t// in\n    tag_110:\n        /* \"#utility.yul\":2841:2958   */\n    tag_109:\n        /* \"#utility.yul\":2982:3045   */\n      tag_111\n        /* \"#utility.yul\":3037:3044   */\n      dup5\n        /* \"#utility.yul\":3028:3034   */\n      dup3\n        /* \"#utility.yul\":3017:3026   */\n      dup6\n        /* \"#utility.yul\":3013:3035   */\n      add\n        /* \"#utility.yul\":2982:3045   */\n      tag_50\n      jump\t// in\n    tag_111:\n        /* \"#utility.yul\":2972:3045   */\n      swap2\n      pop\n        /* \"#utility.yul\":2768:3055   */\n      pop\n        /* \"#utility.yul\":2553:3062   */\n      swap3\n      swap2\n      pop\n      pop\n      jump\t// out\n        /* \"#utility.yul\":3068:3158   */\n    tag_51:\n        /* \"#utility.yul\":3102:3109   */\n      0x00\n        /* \"#utility.yul\":3145:3150   */\n      dup2\n        /* \"#utility.yul\":3138:3151   */\n      iszero\n        /* \"#utility.yul\":3131:3152   */\n      iszero\n        /* \"#utility.yul\":3120:3152   */\n      swap1\n      pop\n        /* \"#utility.yul\":3068:3158   */\n      swap2\n      swap1\n      pop\n      jump\t// out\n        /* \"#utility.yul\":3164:3273   */\n    tag_52:\n        /* \"#utility.yul\":3245:3266   */\n      tag_114\n        /* \"#utility.yul\":3260:3265   */\n      dup2\n        /* \"#utility.yul\":3245:3266   */\n      tag_51\n      jump\t// in\n    tag_114:\n        /* \"#utility.yul\":3240:3243   */\n      dup3\n        /* \"#utility.yul\":3233:3267   */\n      mstore\n        /* \"#utility.yul\":3164:3273   */\n      pop\n      pop\n      jump\t// out\n        /* \"#utility.yul\":3279:3489   */\n    tag_16:\n        /* \"#utility.yul\":3366:3370   */\n      0x00\n        /* \"#utility.yul\":3404:3406   */\n      0x20\n        /* \"#utility.yul\":3393:3402   */\n      dup3\n        /* \"#utility.yul\":3389:3407   */\n      add\n        /* \"#utility.yul\":3381:3407   */\n      swap1\n      pop\n        /* \"#utility.yul\":3417:3482   */\n      tag_116\n        /* \"#utility.yul\":3479:3480   */\n      0x00\n        /* \"#utility.yul\":3468:3477   */\n      dup4\n        /* \"#utility.yul\":3464:3481   */\n      add\n        /* \"#utility.yul\":3455:3461   */\n      dup5\n        /* \"#utility.yul\":3417:3482   */\n      tag_52\n      jump\t// in\n    tag_116:\n        /* \"#utility.yul\":3279:3489   */\n      swap3\n      swap2\n      pop\n      pop\n      jump\t// out\n        /* \"#utility.yul\":3495:3621   */\n    tag_53:\n        /* \"#utility.yul\":3532:3539   */\n      0x00\n        /* \"#utility.yul\":3572:3614   */\n      0xffffffffffffffffffffffffffffffffffffffff\n        /* \"#utility.yul\":3565:3570   */\n      dup3\n        /* \"#utility.yul\":3561:3615   */\n      and\n        /* \"#utility.yul\":3550:3615   */\n      swap1\n      pop\n        /* \"#utility.yul\":3495:3621   */\n      swap2\n      swap1\n      pop\n      jump\t// out\n        /* \"#utility.yul\":3627:3723   */\n    tag_54:\n        /* \"#utility.yul\":3664:3671   */\n      0x00\n        /* \"#utility.yul\":3693:3717   */\n      tag_119\n        /* \"#utility.yul\":3711:3716   */\n      dup3\n        /* \"#utility.yul\":3693:3717   */\n      tag_53\n      jump\t// in\n    tag_119:\n        /* \"#utility.yul\":3682:3717   */\n      swap1\n      pop\n        /* \"#utility.yul\":3627:3723   */\n      swap2\n      swap1\n      pop\n      jump\t// out\n        /* \"#utility.yul\":3729:3847   */\n    tag_55:\n        /* \"#utility.yul\":3816:3840   */\n      tag_121\n        /* \"#utility.yul\":3834:3839   */\n      dup2\n        /* \"#utility.yul\":3816:3840   */\n      tag_54\n      jump\t// in\n    tag_121:\n        /* \"#utility.yul\":3811:3814   */\n      dup3\n        /* \"#utility.yul\":3804:3841   */\n      mstore\n        /* \"#utility.yul\":3729:3847   */\n      pop\n      pop\n      jump\t// out\n        /* \"#utility.yul\":3853:4075   */\n    tag_21:\n        /* \"#utility.yul\":3946:3950   */\n      0x00\n        /* \"#utility.yul\":3984:3986   */\n      0x20\n        /* \"#utility.yul\":3973:3982   */\n      dup3\n        /* \"#utility.yul\":3969:3987   */\n      add\n        /* \"#utility.yul\":3961:3987   */\n      swap1\n      pop\n        /* \"#utility.yul\":3997:4068   */\n      tag_123\n        /* \"#utility.yul\":4065:4066   */\n      0x00\n        /* \"#utility.yul\":4054:4063   */\n      dup4\n        /* \"#utility.yul\":4050:4067   */\n      add\n        /* \"#utility.yul\":4041:4047   */\n      dup5\n        /* \"#utility.yul\":3997:4068   */\n      tag_55\n      jump\t// in\n    tag_123:\n        /* \"#utility.yul\":3853:4075   */\n      swap3\n      swap2\n      pop\n      pop\n      jump\t// out\n        /* \"#utility.yul\":4081:4158   */\n    tag_56:\n        /* \"#utility.yul\":4118:4125   */\n      0x00\n        /* \"#utility.yul\":4147:4152   */\n      dup2\n        /* \"#utility.yul\":4136:4152   */\n      swap1\n      pop\n        /* \"#utility.yul\":4081:4158   */\n      swap2\n      swap1\n      pop\n      jump\t// out\n        /* \"#utility.yul\":4164:4282   */\n    tag_57:\n        /* \"#utility.yul\":4251:4275   */\n      tag_126\n        /* \"#utility.yul\":4269:4274   */\n      dup2\n        /* \"#utility.yul\":4251:4275   */\n      tag_56\n      jump\t// in\n    tag_126:\n        /* \"#utility.yul\":4246:4249   */\n      dup3\n        /* \"#utility.yul\":4239:4276   */\n      mstore\n        /* \"#utility.yul\":4164:4282   */\n      pop\n      pop\n      jump\t// out\n        /* \"#utility.yul\":4288:4510   */\n    tag_26:\n        /* \"#utility.yul\":4381:4385   */\n      0x00\n        /* \"#utility.yul\":4419:4421   */\n      0x20\n        /* \"#utility.yul\":4408:4417   */\n      dup3\n        /* \"#utility.yul\":4404:4422   */\n      add\n        /* \"#utility.yul\":4396:4422   */\n      swap1\n      pop\n        /* \"#utility.yul\":4432:4503   */\n      tag_128\n        /* \"#utility.yul\":4500:4501   */\n      0x00\n        /* \"#utility.yul\":4489:4498   */\n      dup4\n        /* \"#utility.yul\":4485:4502   */\n      add\n        /* \"#utility.yul\":4476:4482   */\n      dup5\n        /* \"#utility.yul\":4432:4503   */\n      tag_57\n      jump\t// in\n    tag_128:\n        /* \"#utility.yul\":4288:4510   */\n      swap3\n      swap2\n      pop\n      pop\n      jump\t// out\n        /* \"#utility.yul\":4516:4615   */\n    tag_58:\n        /* \"#utility.yul\":4568:4574   */\n      0x00\n        /* \"#utility.yul\":4602:4607   */\n      dup2\n        /* \"#utility.yul\":4596:4608   */\n      mload\n        /* \"#utility.yul\":4586:4608   */\n      swap1\n      pop\n        /* \"#utility.yul\":4516:4615   */\n      swap2\n      swap1\n      pop\n      jump\t// out\n        /* \"#utility.yul\":4621:4801   */\n    tag_59:\n        /* \"#utility.yul\":4669:4746   */\n      0x4e487b7100000000000000000000000000000000000000000000000000000000\n        /* \"#utility.yul\":4666:4667   */\n      0x00\n        /* \"#utility.yul\":4659:4747   */\n      mstore\n        /* \"#utility.yul\":4766:4770   */\n      0x22\n        /* \"#utility.yul\":4763:4764   */\n      0x04\n        /* \"#utility.yul\":4756:4771   */\n      mstore\n        /* \"#utility.yul\":4790:4794   */\n      0x24\n        /* \"#utility.yul\":4787:4788   */\n      0x00\n        /* \"#utility.yul\":4780:4795   */\n      revert\n        /* \"#utility.yul\":4807:5127   */\n    tag_60:\n        /* \"#utility.yul\":4851:4857   */\n      0x00\n        /* \"#utility.yul\":4888:4889   */\n      0x02\n        /* \"#utility.yul\":4882:4886   */\n      dup3\n        /* \"#utility.yul\":4878:4890   */\n      div\n        /* \"#utility.yul\":4868:4890   */\n      swap1\n      pop\n        /* \"#utility.yul\":4935:4936   */\n      0x01\n        /* \"#utility.yul\":4929:4933   */\n      dup3\n        /* \"#utility.yul\":4925:4937   */\n      and\n        /* \"#utility.yul\":4956:4974   */\n      dup1\n        /* \"#utility.yul\":4946:5027   */\n      tag_132\n      jumpi\n        /* \"#utility.yul\":5012:5016   */\n      0x7f\n        /* \"#utility.yul\":5004:5010   */\n      dup3\n        /* \"#utility.yul\":5000:5017   */\n      and\n        /* \"#utility.yul\":4990:5017   */\n      swap2\n      pop\n        /* \"#utility.yul\":4946:5027   */\n    tag_132:\n        /* \"#utility.yul\":5074:5076   */\n      0x20\n        /* \"#utility.yul\":5066:5072   */\n      dup3\n        /* \"#utility.yul\":5063:5077   */\n      lt\n        /* \"#utility.yul\":5043:5061   */\n      dup2\n        /* \"#utility.yul\":5040:5078   */\n      sub\n        /* \"#utility.yul\":5037:5121   */\n      tag_133\n      jumpi\n        /* \"#utility.yul\":5093:5111   */\n      tag_134\n      tag_59\n      jump\t// in\n    tag_134:\n        /* \"#utility.yul\":5037:5121   */\n    tag_133:\n        /* \"#utility.yul\":4858:5127   */\n      pop\n        /* \"#utility.yul\":4807:5127   */\n      swap2\n      swap1\n      pop\n      jump\t// out\n        /* \"#utility.yul\":5133:5274   */\n    tag_61:\n        /* \"#utility.yul\":5182:5186   */\n      0x00\n        /* \"#utility.yul\":5205:5208   */\n      dup2\n        /* \"#utility.yul\":5197:5208   */\n      swap1\n      pop\n        /* \"#utility.yul\":5228:5231   */\n      dup2\n        /* \"#utility.yul\":5225:5226   */\n      0x00\n        /* \"#utility.yul\":5218:5232   */\n      mstore\n        /* \"#utility.yul\":5262:5266   */\n      0x20\n        /* \"#utility.yul\":5259:5260   */\n      0x00\n        /* \"#utility.yul\":5249:5267   */\n      keccak256\n        /* \"#utility.yul\":5241:5267   */\n      swap1\n      pop\n        /* \"#utility.yul\":5133:5274   */\n      swap2\n      swap1\n      pop\n      jump\t// out\n        /* \"#utility.yul\":5280:5373   */\n    tag_62:\n        /* \"#utility.yul\":5317:5323   */\n      0x00\n        /* \"#utility.yul\":5364:5366   */\n      0x20\n        /* \"#utility.yul\":5359:5361   */\n      0x1f\n        /* \"#utility.yul\":5352:5357   */\n      dup4\n        /* \"#utility.yul\":5348:5362   */\n      add\n        /* \"#utility.yul\":5344:5367   */\n      div\n        /* \"#utility.yul\":5334:5367   */\n      swap1\n      pop\n        /* \"#utility.yul\":5280:5373   */\n      swap2\n      swap1\n      pop\n      jump\t// out\n        /* \"#utility.yul\":5379:5486   */\n    tag_63:\n        /* \"#utility.yul\":5423:5431   */\n      0x00\n        /* \"#utility.yul\":5473:5478   */\n      dup3\n        /* \"#utility.yul\":5467:5471   */\n      dup3\n        /* \"#utility.yul\":5463:5479   */\n      shl\n        /* \"#utility.yul\":5442:5479   */\n      swap1\n      pop\n        /* \"#utility.yul\":5379:5486   */\n      swap3\n      swap2\n      pop\n      pop\n      jump\t// out\n        /* \"#utility.yul\":5492:5885   */\n    tag_64:\n        /* \"#utility.yul\":5561:5567   */\n      0x00\n        /* \"#utility.yul\":5611:5612   */\n      0x08\n        /* \"#utility.yul\":5599:5609   */\n      dup4\n        /* \"#utility.yul\":5595:5613   */\n      mul\n        /* \"#utility.yul\":5634:5731   */\n      tag_139\n        /* \"#utility.yul\":5664:5730   */\n      0xffffffffffffffffffffffffffffffffffffffffffffffffffffffffffffffff\n        /* \"#utility.yul\":5653:5662   */\n      dup3\n        /* \"#utility.yul\":5634:5731   */\n      tag_63\n      jump\t// in\n    tag_139:\n        /* \"#utility.yul\":5752:5791   */\n      tag_140\n        /* \"#utility.yul\":5782:5790   */\n      dup7\n        /* \"#utility.yul\":5771:5780   */\n      dup4\n        /* \"#utility.yul\":5752:5791   */\n      tag_63\n      jump\t// in\n    tag_140:\n        /* \"#utility.yul\":5740:5791   */\n      swap6\n      pop\n        /* \"#utility.yul\":5824:5828   */\n      dup1\n        /* \"#utility.yul\":5820:5829   */\n      not\n        /* \"#utility.yul\":5813:5818   */\n      dup5\n        /* \"#utility.yul\":5809:5830   */\n      and\n        /* \"#utility.yul\":5800:5830   */\n      swap4\n      pop\n        /* \"#utility.yul\":5873:5877   */\n      dup1\n        /* \"#utility.yul\":5863:5871   */\n      dup7\n        /* \"#utility.yul\":5859:5878   */\n      and\n        /* \"#utility.yul\":5852:5857   */\n      dup5\n        /* \"#utility.yul\":5849:5879   */\n      or\n        /* \"#utility.yul\":5839:5879   */\n      swap3\n      pop\n        /* \"#utility.yul\":5568:5885   */\n      pop\n      pop\n        /* \"#utility.yul\":5492:5885   */\n      swap4\n      swap3\n      pop\n      pop\n      pop\n      jump\t// out\n        /* \"#utility.yul\":5891:5951   */\n    tag_65:\n        /* \"#utility.yul\":5919:5922   */\n      0x00\n        /* \"#utility.yul\":5940:5945   */\n      dup2\n        /* \"#utility.yul\":5933:5945   */\n      swap1\n      pop\n        /* \"#utility.yul\":5891:5951   */\n      swap2\n      swap1\n      pop\n      jump\t// out\n        /* \"#utility.yul\":5957:6099   */\n    tag_66:\n        /* \"#utility.yul\":6007:6016   */\n      0x00\n        /* \"#utility.yul\":6040:6093   */\n      tag_143\n        /* \"#utility.yul\":6058:6092   */\n      tag_144\n        /* \"#utility.yul\":6067:6091   */\n      tag_145\n        /* \"#utility.yul\":6085:6090   */\n      dup5\n        /* \"#utility.yul\":6067:6091   */\n      tag_56\n      jump\t// in\n    tag_145:\n        /* \"#utility.yul\":6058:6092   */\n      tag_65\n      jump\t// in\n    tag_144:\n        /* \"#utility.yul\":6040:6093   */\n      tag_56\n      jump\t// in\n    tag_143:\n        /* \"#utility.yul\":6027:6093   */\n      swap1\n      pop\n        /* \"#utility.yul\":5957:6099   */\n      swap2\n      swap1\n      pop\n      jump\t// out\n        /* \"#utility.yul\":6105:6180   */\n    tag_67:\n        /* \"#utility.yul\":6148:6151   */\n      0x00\n        /* \"#utility.yul\":6169:6174   */\n      dup2\n        /* \"#utility.yul\":6162:6174   */\n      swap1\n      pop\n        /* \"#utility.yul\":6105:6180   */\n      swap2\n      swap1\n      pop\n      jump\t// out\n        /* \"#utility.yul\":6186:6455   */\n    tag_68:\n        /* \"#utility.yul\":6296:6335   */\n      tag_148\n        /* \"#utility.yul\":6327:6334   */\n      dup4\n        /* \"#utility.yul\":6296:6335   */\n      tag_66\n      jump\t// in\n    tag_148:\n        /* \"#utility.yul\":6357:6448   */\n      tag_149\n        /* \"#utility.yul\":6406:6447   */\n      tag_150\n        /* \"#utility.yul\":6430:6446   */\n      dup3\n        /* \"#utility.yul\":6406:6447   */\n      tag_67\n      jump\t// in\n    tag_150:\n        /* \"#utility.yul\":6398:6404   */\n      dup5\n        /* \"#utility.yul\":6391:6395   */\n      dup5\n        /* \"#utility.yul\":6385:6396   */\n      sload\n        /* \"#utility.yul\":6357:6448   */\n      tag_64\n      jump\t// in\n    tag_149:\n        /* \"#utility.yul\":6351:6355   */\n      dup3\n        /* \"#utility.yul\":6344:6449   */\n      sstore\n        /* \"#utility.yul\":6262:6455   */\n      pop\n        /* \"#utility.yul\":6186:6455   */\n      pop\n      pop\n      pop\n      jump\t// out\n        /* \"#utility.yul\":6461:6534   */\n    tag_69:\n        /* \"#utility.yul\":6506:6509   */\n      0x00\n        /* \"#utility.yul\":6461:6534   */\n      swap1\n      jump\t// out\n        /* \"#utility.yul\":6540:6729   */\n    tag_70:\n        /* \"#utility.yul\":6617:6649   */\n      tag_153\n      tag_69\n      jump\t// in\n    tag_153:\n        /* \"#utility.yul\":6658:6723   */\n      tag_154\n        /* \"#utility.yul\":6716:6722   */\n      dup2\n        /* \"#utility.yul\":6708:6714   */\n      dup5\n        /* \"#utility.yul\":6702:6706   */\n      dup5\n        /* \"#utility.yul\":6658:6723   */\n      tag_68\n      jump\t// in\n    tag_154:\n        /* \"#utility.yul\":6593:6729   */\n      pop\n        /* \"#utility.yul\":6540:6729   */\n      pop\n      pop\n      jump\t// out\n        /* \"#utility.yul\":6735:6921   */\n    tag_71:\n        /* \"#utility.yul\":6795:6915   */\n    tag_156:\n        /* \"#utility.yul\":6812:6815   */\n      dup2\n        /* \"#utility.yul\":6805:6810   */\n      dup2\n        /* \"#utility.yul\":6802:6816   */\n      lt\n        /* \"#utility.yul\":6795:6915   */\n      iszero\n      tag_158\n      jumpi\n        /* \"#utility.yul\":6866:6905   */\n      tag_159\n        /* \"#utility.yul\":6903:6904   */\n      0x00\n        /* \"#utility.yul\":6896:6901   */\n      dup3\n        /* \"#utility.yul\":6866:6905   */\n      tag_70\n      jump\t// in\n    tag_159:\n        /* \"#utility.yul\":6839:6840   */\n      0x01\n        /* \"#utility.yul\":6832:6837   */\n      dup2\n        /* \"#utility.yul\":6828:6841   */\n      add\n        /* \"#utility.yul\":6819:6841   */\n      swap1\n      pop\n        /* \"#utility.yul\":6795:6915   */\n      jump(tag_156)\n    tag_158:\n        /* \"#utility.yul\":6735:6921   */\n      pop\n      pop\n      jump\t// out\n        /* \"#utility.yul\":6927:7470   */\n    tag_72:\n        /* \"#utility.yul\":7028:7030   */\n      0x1f\n        /* \"#utility.yul\":7023:7026   */\n      dup3\n        /* \"#utility.yul\":7020:7031   */\n      gt\n        /* \"#utility.yul\":7017:7463   */\n      iszero\n      tag_161\n      jumpi\n        /* \"#utility.yul\":7062:7100   */\n      tag_162\n        /* \"#utility.yul\":7094:7099   */\n      dup2\n        /* \"#utility.yul\":7062:7100   */\n      tag_61\n      jump\t// in\n    tag_162:\n        /* \"#utility.yul\":7146:7175   */\n      tag_163\n        /* \"#utility.yul\":7164:7174   */\n      dup5\n        /* \"#utility.yul\":7146:7175   */\n      tag_62\n      jump\t// in\n    tag_163:\n        /* \"#utility.yul\":7136:7144   */\n      dup2\n        /* \"#utility.yul\":7132:7176   */\n      add\n        /* \"#utility.yul\":7329:7331   */\n      0x20\n        /* \"#utility.yul\":7317:7327   */\n      dup6\n        /* \"#utility.yul\":7314:7332   */\n      lt\n        /* \"#utility.yul\":7311:7360   */\n      iszero\n      tag_164\n      jumpi\n        /* \"#utility.yul\":7350:7358   */\n      dup2\n        /* \"#utility.yul\":7335:7358   */\n      swap1\n      pop\n        /* \"#utility.yul\":7311:7360   */\n    tag_164:\n        /* \"#utility.yul\":7373:7453   */\n      tag_165\n        /* \"#utility.yul\":7429:7451   */\n      tag_166\n        /* \"#utility.yul\":7447:7450   */\n      dup6\n        /* \"#utility.yul\":7429:7451   */\n      tag_62\n      jump\t// in\n    tag_166:\n        /* \"#utility.yul\":7419:7427   */\n      dup4\n        /* \"#utility.yul\":7415:7452   */\n      add\n        /* \"#utility.yul\":7402:7413   */\n      dup3\n        /* \"#utility.yul\":7373:7453   */\n      tag_71\n      jump\t// in\n    tag_165:\n        /* \"#utility.yul\":7032:7463   */\n      pop\n      pop\n        /* \"#utility.yul\":7017:7463   */\n    tag_161:\n        /* \"#utility.yul\":6927:7470   */\n      pop\n      pop\n      pop\n      jump\t// out\n        /* \"#utility.yul\":7476:7593   */\n    tag_73:\n        /* \"#utility.yul\":7530:7538   */\n      0x00\n        /* \"#utility.yul\":7580:7585   */\n      dup3\n        /* \"#utility.yul\":7574:7578   */\n      dup3\n        /* \"#utility.yul\":7570:7586   */\n      shr\n        /* \"#utility.yul\":7549:7586   */\n      swap1\n      pop\n        /* \"#utility.yul\":7476:7593   */\n      swap3\n      swap2\n      pop\n      pop\n      jump\t// out\n        /* \"#utility.yul\":7599:7768   */\n    tag_74:\n        /* \"#utility.yul\":7643:7649   */\n      0x00\n        /* \"#utility.yul\":7676:7727   */\n      tag_169\n        /* \"#utility.yul\":7724:7725   */\n      0x00\n        /* \"#utility.yul\":7720:7726   */\n      not\n        /* \"#utility.yul\":7712:7717   */\n      dup5\n        /* \"#utility.yul\":7709:7710   */\n      0x08\n        /* \"#utility.yul\":7705:7718   */\n      mul\n        /* \"#utility.yul\":7676:7727   */\n      tag_73\n      jump\t// in\n    tag_169:\n        /* \"#utility.yul\":7672:7728   */\n      not\n        /* \"#utility.yul\":7757:7761   */\n      dup1\n        /* \"#utility.yul\":7751:7755   */\n      dup4\n        /* \"#utility.yul\":7747:7762   */\n      and\n        /* \"#utility.yul\":7737:7762   */\n      swap2\n      pop\n        /* \"#utility.yul\":7650:7768   */\n      pop\n        /* \"#utility.yul\":7599:7768   */\n      swap3\n      swap2\n      pop\n      pop\n      jump\t// out\n        /* \"#utility.yul\":7773:8068   */\n    tag_75:\n        /* \"#utility.yul\":7849:7853   */\n      0x00\n        /* \"#utility.yul\":7995:8024   */\n      tag_171\n        /* \"#utility.yul\":8020:8023   */\n      dup4\n        /* \"#utility.yul\":8014:8018   */\n      dup4\n        /* \"#utility.yul\":7995:8024   */\n      tag_74\n      jump\t// in\n    tag_171:\n        /* \"#utility.yul\":7987:8024   */\n      swap2\n      pop\n        /* \"#utility.yul\":8057:8060   */\n      dup3\n        /* \"#utility.yul\":8054:8055   */\n      0x02\n        /* \"#utility.yul\":8050:8061   */\n      mul\n        /* \"#utility.yul\":8044:8048   */\n      dup3\n        /* \"#utility.yul\":8041:8062   */\n      or\n        /* \"#utility.yul\":8033:8062   */\n      swap1\n      pop\n        /* \"#utility.yul\":7773:8068   */\n      swap3\n      swap2\n      pop\n      pop\n      jump\t// out\n        /* \"#utility.yul\":8073:9468   */\n    tag_32:\n        /* \"#utility.yul\":8190:8227   */\n      tag_173\n        /* \"#utility.yul\":8223:8226   */\n      dup3\n        /* \"#utility.yul\":8190:8227   */\n      tag_58\n      jump\t// in\n    tag_173:\n        /* \"#utility.yul\":8292:8310   */\n      0xffffffffffffffff\n        /* \"#utility.yul\":8284:8290   */\n      dup2\n        /* \"#utility.yul\":8281:8311   */\n      gt\n        /* \"#utility.yul\":8278:8334   */\n      iszero\n      tag_174\n      jumpi\n        /* \"#utility.yul\":8314:8332   */\n      tag_175\n      tag_44\n      jump\t// in\n    tag_175:\n        /* \"#utility.yul\":8278:8334   */\n    tag_174:\n        /* \"#utility.yul\":8358:8396   */\n      tag_176\n        /* \"#utility.yul\":8390:8394   */\n      dup3\n        /* \"#utility.yul\":8384:8395   */\n      sload\n        /* \"#utility.yul\":8358:8396   */\n      tag_60\n      jump\t// in\n    tag_176:\n        /* \"#utility.yul\":8443:8510   */\n      tag_177\n        /* \"#utility.yul\":8503:8509   */\n      dup3\n        /* \"#utility.yul\":8495:8501   */\n      dup3\n        /* \"#utility.yul\":8489:8493   */\n      dup6\n        /* \"#utility.yul\":8443:8510   */\n      tag_72\n      jump\t// in\n    tag_177:\n        /* \"#utility.yul\":8537:8538   */\n      0x00\n        /* \"#utility.yul\":8561:8565   */\n      0x20\n        /* \"#utility.yul\":8548:8565   */\n      swap1\n      pop\n        /* \"#utility.yul\":8593:8595   */\n      0x1f\n        /* \"#utility.yul\":8585:8591   */\n      dup4\n        /* \"#utility.yul\":8582:8596   */\n      gt\n        /* \"#utility.yul\":8610:8611   */\n      0x01\n        /* \"#utility.yul\":8605:9223   */\n      dup2\n      eq\n      tag_179\n      jumpi\n        /* \"#utility.yul\":9267:9268   */\n      0x00\n        /* \"#utility.yul\":9284:9290   */\n      dup5\n        /* \"#utility.yul\":9281:9358   */\n      iszero\n      tag_180\n      jumpi\n        /* \"#utility.yul\":9333:9342   */\n      dup3\n        /* \"#utility.yul\":9328:9331   */\n      dup8\n        /* \"#utility.yul\":9324:9343   */\n      add\n        /* \"#utility.yul\":9318:9344   */\n      mload\n        /* \"#utility.yul\":9309:9344   */\n      swap1\n      pop\n        /* \"#utility.yul\":9281:9358   */\n    tag_180:\n        /* \"#utility.yul\":9384:9451   */\n      tag_181\n        /* \"#utility.yul\":9444:9450   */\n      dup6\n        /* \"#utility.yul\":9437:9442   */\n      dup3\n        /* \"#utility.yul\":9384:9451   */\n      tag_75\n      jump\t// in\n    tag_181:\n        /* \"#utility.yul\":9378:9382   */\n      dup7\n        /* \"#utility.yul\":9371:9452   */\n      sstore\n        /* \"#utility.yul\":9240:9462   */\n      pop\n        /* \"#utility.yul\":8575:9462   */\n      jump(tag_178)\n        /* \"#utility.yul\":8605:9223   */\n    tag_179:\n        /* \"#utility.yul\":8657:8661   */\n      0x1f\n        /* \"#utility.yul\":8653:8662   */\n      not\n        /* \"#utility.yul\":8645:8651   */\n      dup5\n        /* \"#utility.yul\":8641:8663   */\n      and\n        /* \"#utility.yul\":8691:8728   */\n      tag_182\n        /* \"#utility.yul\":8723:8727   */\n      dup7\n        /* \"#utility.yul\":8691:8728   */\n      tag_61\n      jump\t// in\n    tag_182:\n        /* \"#utility.yul\":8750:8751   */\n      0x00\n        /* \"#utility.yul\":8764:8972   */\n    tag_183:\n        /* \"#utility.yul\":8778:8785   */\n      dup3\n        /* \"#utility.yul\":8775:8776   */\n      dup2\n        /* \"#utility.yul\":8772:8786   */\n      lt\n        /* \"#utility.yul\":8764:8972   */\n      iszero\n      tag_185\n      jumpi\n        /* \"#utility.yul\":8857:8866   */\n      dup5\n        /* \"#utility.yul\":8852:8855   */\n      dup10\n        /* \"#utility.yul\":8848:8867   */\n      add\n        /* \"#utility.yul\":8842:8868   */\n      mload\n        /* \"#utility.yul\":8834:8840   */\n      dup3\n        /* \"#utility.yul\":8827:8869   */\n      sstore\n        /* \"#utility.yul\":8908:8909   */\n      0x01\n        /* \"#utility.yul\":8900:8906   */\n      dup3\n        /* \"#utility.yul\":8896:8910   */\n      add\n        /* \"#utility.yul\":8886:8910   */\n      swap2\n      pop\n        /* \"#utility.yul\":8955:8957   */\n      0x20\n        /* \"#utility.yul\":8944:8953   */\n      dup6\n        /* \"#utility.yul\":8940:8958   */\n      add\n        /* \"#utility.yul\":8927:8958   */\n      swap5\n      pop\n        /* \"#utility.yul\":8801:8805   */\n      0x20\n        /* \"#utility.yul\":8798:8799   */\n      dup2\n        /* \"#utility.yul\":8794:8806   */\n      add\n        /* \"#utility.yul\":8789:8806   */\n      swap1\n      pop\n        /* \"#utility.yul\":8764:8972   */\n      jump(tag_183)\n    tag_185:\n        /* \"#utility.yul\":9000:9006   */\n      dup7\n        /* \"#utility.yul\":8991:8998   */\n      dup4\n        /* \"#utility.yul\":8988:9007   */\n      lt\n        /* \"#utility.yul\":8985:9164   */\n      iszero\n      tag_186\n      jumpi\n        /* \"#utility.yul\":9058:9067   */\n      dup5\n        /* \"#utility.yul\":9053:9056   */\n      dup10\n        /* \"#utility.yul\":9049:9068   */\n      add\n        /* \"#utility.yul\":9043:9069   */\n      mload\n        /* \"#utility.yul\":9101:9149   */\n      tag_187\n        /* \"#utility.yul\":9143:9147   */\n      0x1f\n        /* \"#utility.yul\":9135:9141   */\n      dup10\n        /* \"#utility.yul\":9131:9148   */\n      and\n        /* \"#utility.yul\":9120:9129   */\n      dup3\n        /* \"#utility.yul\":9101:9149   */\n      tag_74\n      jump\t// in\n    tag_187:\n        /* \"#utility.yul\":9093:9099   */\n      dup4\n        /* \"#utility.yul\":9086:9150   */\n      sstore\n        /* \"#utility.yul\":9008:9164   */\n      pop\n        /* \"#utility.yul\":8985:9164   */\n    tag_186:\n        /* \"#utility.yul\":9210:9211   */\n      0x01\n        /* \"#utility.yul\":9206:9207   */\n      0x02\n        /* \"#utility.yul\":9198:9204   */\n      dup9\n        /* \"#utility.yul\":9194:9208   */\n      mul\n        /* \"#utility.yul\":9190:9212   */\n      add\n        /* \"#utility.yul\":9184:9188   */\n      dup9\n        /* \"#utility.yul\":9177:9213   */\n      sstore\n        /* \"#utility.yul\":8612:9223   */\n      pop\n      pop\n      pop\n        /* \"#utility.yul\":8575:9462   */\n    tag_178:\n      pop\n        /* \"#utility.yul\":8165:9468   */\n      pop\n      pop\n      pop\n        /* \"#utility.yul\":8073:9468   */\n      pop\n      pop\n      jump\t// out\n\n    auxdata: 0xa2646970667358221220142f2c11ce65719926f50e5ffe3035f79fa37fa6d46394a562da504e2186cc4464736f6c63430008110033\n}\n",
				"bytecode": {
					"linkReferences": {},
					"object": "60806040527378731d3ca6b7e34ac0f824c42a7cc18a495cabab6000806101000a81548173ffffffffffffffffffffffffffffffffffffffff021916908373ffffffffffffffffffffffffffffffffffffffff16021790555073ab8483f64d9c6d1ecf9b849ae677dd3315835cb2600160006101000a81548173ffffffffffffffffffffffffffffffffffffffff021916908373ffffffffffffffffffffffffffffffffffffffff1602179055503480156100b957600080fd5b5033600260006101000a81548173ffffffffffffffffffffffffffffffffffffffff021916908373ffffffffffffffffffffffffffffffffffffffff1602179055506107908061010a6000396000f3fe6080604052600436106100435760003560e01c806306f2d7f3146100a95780638da5cb5b146100e6578063941be5f714610111578063c84e45c71461013c576100a4565b366100a457600260009054906101000a900473ffffffffffffffffffffffffffffffffffffffff1673ffffffffffffffffffffffffffffffffffffffff163373ffffffffffffffffffffffffffffffffffffffff16146100a257600080fd5b005b600080fd5b3480156100b557600080fd5b506100d060048036038101906100cb9190610362565b610153565b6040516100dd91906103c6565b60405180910390f35b3480156100f257600080fd5b506100fb61016a565b6040516101089190610422565b60405180910390f35b34801561011d57600080fd5b50610126610190565b6040516101339190610456565b60405180910390f35b34801561014857600080fd5b50610151610198565b005b600081600390816101649190610688565b50919050565b600260009054906101000a900473ffffffffffffffffffffffffffffffffffffffff1681565b600047905090565b60008054906101000a900473ffffffffffffffffffffffffffffffffffffffff1673ffffffffffffffffffffffffffffffffffffffff166108fc6101da610190565b9081150290604051600060405180830381858888f19350505050158015610205573d6000803e3d6000fd5b50565b6000604051905090565b600080fd5b600080fd5b600080fd5b600080fd5b6000601f19601f8301169050919050565b7f4e487b7100000000000000000000000000000000000000000000000000000000600052604160045260246000fd5b61026f82610226565b810181811067ffffffffffffffff8211171561028e5761028d610237565b5b80604052505050565b60006102a1610208565b90506102ad8282610266565b919050565b600067ffffffffffffffff8211156102cd576102cc610237565b5b6102d682610226565b9050602081019050919050565b82818337600083830152505050565b6000610305610300846102b2565b610297565b90508281526020810184848401111561032157610320610221565b5b61032c8482856102e3565b509392505050565b600082601f8301126103495761034861021c565b5b81356103598482602086016102f2565b91505092915050565b60006020828403121561037857610377610212565b5b600082013567ffffffffffffffff81111561039657610395610217565b5b6103a284828501610334565b91505092915050565b60008115159050919050565b6103c0816103ab565b82525050565b60006020820190506103db60008301846103b7565b92915050565b600073ffffffffffffffffffffffffffffffffffffffff82169050919050565b600061040c826103e1565b9050919050565b61041c81610401565b82525050565b60006020820190506104376000830184610413565b92915050565b6000819050919050565b6104508161043d565b82525050565b600060208201905061046b6000830184610447565b92915050565b600081519050919050565b7f4e487b7100000000000000000000000000000000000000000000000000000000600052602260045260246000fd5b600060028204905060018216806104c357607f821691505b6020821081036104d6576104d561047c565b5b50919050565b60008190508160005260206000209050919050565b60006020601f8301049050919050565b600082821b905092915050565b60006008830261053e7fffffffffffffffffffffffffffffffffffffffffffffffffffffffffffffffff82610501565b6105488683610501565b95508019841693508086168417925050509392505050565b6000819050919050565b600061058561058061057b8461043d565b610560565b61043d565b9050919050565b6000819050919050565b61059f8361056a565b6105b36105ab8261058c565b84845461050e565b825550505050565b600090565b6105c86105bb565b6105d3818484610596565b505050565b5b818110156105f7576105ec6000826105c0565b6001810190506105d9565b5050565b601f82111561063c5761060d816104dc565b610616846104f1565b81016020851015610625578190505b610639610631856104f1565b8301826105d8565b50505b505050565b600082821c905092915050565b600061065f60001984600802610641565b1980831691505092915050565b6000610678838361064e565b9150826002028217905092915050565b61069182610471565b67ffffffffffffffff8111156106aa576106a9610237565b5b6106b482546104ab565b6106bf8282856105fb565b600060209050601f8311600181146106f257600084156106e0578287015190505b6106ea858261066c565b865550610752565b601f198416610700866104dc565b60005b8281101561072857848901518255600182019150602085019450602081019050610703565b868310156107455784890151610741601f89168261064e565b8355505b6001600288020188555050505b50505050505056fea2646970667358221220142f2c11ce65719926f50e5ffe3035f79fa37fa6d46394a562da504e2186cc4464736f6c63430008110033",
					"opcodes": "PUSH1 0x80 PUSH1 0x40 MSTORE PUSH20 0x78731D3CA6B7E34AC0F824C42A7CC18A495CABAB PUSH1 0x0 DUP1 PUSH2 0x100 EXP DUP2 SLOAD DUP2 PUSH20 0xFFFFFFFFFFFFFFFFFFFFFFFFFFFFFFFFFFFFFFFF MUL NOT AND SWAP1 DUP4 PUSH20 0xFFFFFFFFFFFFFFFFFFFFFFFFFFFFFFFFFFFFFFFF AND MUL OR SWAP1 SSTORE POP PUSH20 0xAB8483F64D9C6D1ECF9B849AE677DD3315835CB2 PUSH1 0x1 PUSH1 0x0 PUSH2 0x100 EXP DUP2 SLOAD DUP2 PUSH20 0xFFFFFFFFFFFFFFFFFFFFFFFFFFFFFFFFFFFFFFFF MUL NOT AND SWAP1 DUP4 PUSH20 0xFFFFFFFFFFFFFFFFFFFFFFFFFFFFFFFFFFFFFFFF AND MUL OR SWAP1 SSTORE POP CALLVALUE DUP1 ISZERO PUSH2 0xB9 JUMPI PUSH1 0x0 DUP1 REVERT JUMPDEST POP CALLER PUSH1 0x2 PUSH1 0x0 PUSH2 0x100 EXP DUP2 SLOAD DUP2 PUSH20 0xFFFFFFFFFFFFFFFFFFFFFFFFFFFFFFFFFFFFFFFF MUL NOT AND SWAP1 DUP4 PUSH20 0xFFFFFFFFFFFFFFFFFFFFFFFFFFFFFFFFFFFFFFFF AND MUL OR SWAP1 SSTORE POP PUSH2 0x790 DUP1 PUSH2 0x10A PUSH1 0x0 CODECOPY PUSH1 0x0 RETURN INVALID PUSH1 0x80 PUSH1 0x40 MSTORE PUSH1 0x4 CALLDATASIZE LT PUSH2 0x43 JUMPI PUSH1 0x0 CALLDATALOAD PUSH1 0xE0 SHR DUP1 PUSH4 0x6F2D7F3 EQ PUSH2 0xA9 JUMPI DUP1 PUSH4 0x8DA5CB5B EQ PUSH2 0xE6 JUMPI DUP1 PUSH4 0x941BE5F7 EQ PUSH2 0x111 JUMPI DUP1 PUSH4 0xC84E45C7 EQ PUSH2 0x13C JUMPI PUSH2 0xA4 JUMP JUMPDEST CALLDATASIZE PUSH2 0xA4 JUMPI PUSH1 0x2 PUSH1 0x0 SWAP1 SLOAD SWAP1 PUSH2 0x100 EXP SWAP1 DIV PUSH20 0xFFFFFFFFFFFFFFFFFFFFFFFFFFFFFFFFFFFFFFFF AND PUSH20 0xFFFFFFFFFFFFFFFFFFFFFFFFFFFFFFFFFFFFFFFF AND CALLER PUSH20 0xFFFFFFFFFFFFFFFFFFFFFFFFFFFFFFFFFFFFFFFF AND EQ PUSH2 0xA2 JUMPI PUSH1 0x0 DUP1 REVERT JUMPDEST STOP JUMPDEST PUSH1 0x0 DUP1 REVERT JUMPDEST CALLVALUE DUP1 ISZERO PUSH2 0xB5 JUMPI PUSH1 0x0 DUP1 REVERT JUMPDEST POP PUSH2 0xD0 PUSH1 0x4 DUP1 CALLDATASIZE SUB DUP2 ADD SWAP1 PUSH2 0xCB SWAP2 SWAP1 PUSH2 0x362 JUMP JUMPDEST PUSH2 0x153 JUMP JUMPDEST PUSH1 0x40 MLOAD PUSH2 0xDD SWAP2 SWAP1 PUSH2 0x3C6 JUMP JUMPDEST PUSH1 0x40 MLOAD DUP1 SWAP2 SUB SWAP1 RETURN JUMPDEST CALLVALUE DUP1 ISZERO PUSH2 0xF2 JUMPI PUSH1 0x0 DUP1 REVERT JUMPDEST POP PUSH2 0xFB PUSH2 0x16A JUMP JUMPDEST PUSH1 0x40 MLOAD PUSH2 0x108 SWAP2 SWAP1 PUSH2 0x422 JUMP JUMPDEST PUSH1 0x40 MLOAD DUP1 SWAP2 SUB SWAP1 RETURN JUMPDEST CALLVALUE DUP1 ISZERO PUSH2 0x11D JUMPI PUSH1 0x0 DUP1 REVERT JUMPDEST POP PUSH2 0x126 PUSH2 0x190 JUMP JUMPDEST PUSH1 0x40 MLOAD PUSH2 0x133 SWAP2 SWAP1 PUSH2 0x456 JUMP JUMPDEST PUSH1 0x40 MLOAD DUP1 SWAP2 SUB SWAP1 RETURN JUMPDEST CALLVALUE DUP1 ISZERO PUSH2 0x148 JUMPI PUSH1 0x0 DUP1 REVERT JUMPDEST POP PUSH2 0x151 PUSH2 0x198 JUMP JUMPDEST STOP JUMPDEST PUSH1 0x0 DUP2 PUSH1 0x3 SWAP1 DUP2 PUSH2 0x164 SWAP2 SWAP1 PUSH2 0x688 JUMP JUMPDEST POP SWAP2 SWAP1 POP JUMP JUMPDEST PUSH1 0x2 PUSH1 0x0 SWAP1 SLOAD SWAP1 PUSH2 0x100 EXP SWAP1 DIV PUSH20 0xFFFFFFFFFFFFFFFFFFFFFFFFFFFFFFFFFFFFFFFF AND DUP2 JUMP JUMPDEST PUSH1 0x0 SELFBALANCE SWAP1 POP SWAP1 JUMP JUMPDEST PUSH1 0x0 DUP1 SLOAD SWAP1 PUSH2 0x100 EXP SWAP1 DIV PUSH20 0xFFFFFFFFFFFFFFFFFFFFFFFFFFFFFFFFFFFFFFFF AND PUSH20 0xFFFFFFFFFFFFFFFFFFFFFFFFFFFFFFFFFFFFFFFF AND PUSH2 0x8FC PUSH2 0x1DA PUSH2 0x190 JUMP JUMPDEST SWAP1 DUP2 ISZERO MUL SWAP1 PUSH1 0x40 MLOAD PUSH1 0x0 PUSH1 0x40 MLOAD DUP1 DUP4 SUB DUP2 DUP6 DUP9 DUP9 CALL SWAP4 POP POP POP POP ISZERO DUP1 ISZERO PUSH2 0x205 JUMPI RETURNDATASIZE PUSH1 0x0 DUP1 RETURNDATACOPY RETURNDATASIZE PUSH1 0x0 REVERT JUMPDEST POP JUMP JUMPDEST PUSH1 0x0 PUSH1 0x40 MLOAD SWAP1 POP SWAP1 JUMP JUMPDEST PUSH1 0x0 DUP1 REVERT JUMPDEST PUSH1 0x0 DUP1 REVERT JUMPDEST PUSH1 0x0 DUP1 REVERT JUMPDEST PUSH1 0x0 DUP1 REVERT JUMPDEST PUSH1 0x0 PUSH1 0x1F NOT PUSH1 0x1F DUP4 ADD AND SWAP1 POP SWAP2 SWAP1 POP JUMP JUMPDEST PUSH32 0x4E487B7100000000000000000000000000000000000000000000000000000000 PUSH1 0x0 MSTORE PUSH1 0x41 PUSH1 0x4 MSTORE PUSH1 0x24 PUSH1 0x0 REVERT JUMPDEST PUSH2 0x26F DUP3 PUSH2 0x226 JUMP JUMPDEST DUP2 ADD DUP2 DUP2 LT PUSH8 0xFFFFFFFFFFFFFFFF DUP3 GT OR ISZERO PUSH2 0x28E JUMPI PUSH2 0x28D PUSH2 0x237 JUMP JUMPDEST JUMPDEST DUP1 PUSH1 0x40 MSTORE POP POP POP JUMP JUMPDEST PUSH1 0x0 PUSH2 0x2A1 PUSH2 0x208 JUMP JUMPDEST SWAP1 POP PUSH2 0x2AD DUP3 DUP3 PUSH2 0x266 JUMP JUMPDEST SWAP2 SWAP1 POP JUMP JUMPDEST PUSH1 0x0 PUSH8 0xFFFFFFFFFFFFFFFF DUP3 GT ISZERO PUSH2 0x2CD JUMPI PUSH2 0x2CC PUSH2 0x237 JUMP JUMPDEST JUMPDEST PUSH2 0x2D6 DUP3 PUSH2 0x226 JUMP JUMPDEST SWAP1 POP PUSH1 0x20 DUP2 ADD SWAP1 POP SWAP2 SWAP1 POP JUMP JUMPDEST DUP3 DUP2 DUP4 CALLDATACOPY PUSH1 0x0 DUP4 DUP4 ADD MSTORE POP POP POP JUMP JUMPDEST PUSH1 0x0 PUSH2 0x305 PUSH2 0x300 DUP5 PUSH2 0x2B2 JUMP JUMPDEST PUSH2 0x297 JUMP JUMPDEST SWAP1 POP DUP3 DUP2 MSTORE PUSH1 0x20 DUP2 ADD DUP5 DUP5 DUP5 ADD GT ISZERO PUSH2 0x321 JUMPI PUSH2 0x320 PUSH2 0x221 JUMP JUMPDEST JUMPDEST PUSH2 0x32C DUP5 DUP3 DUP6 PUSH2 0x2E3 JUMP JUMPDEST POP SWAP4 SWAP3 POP POP POP JUMP JUMPDEST PUSH1 0x0 DUP3 PUSH1 0x1F DUP4 ADD SLT PUSH2 0x349 JUMPI PUSH2 0x348 PUSH2 0x21C JUMP JUMPDEST JUMPDEST DUP2 CALLDATALOAD PUSH2 0x359 DUP5 DUP3 PUSH1 0x20 DUP7 ADD PUSH2 0x2F2 JUMP JUMPDEST SWAP2 POP POP SWAP3 SWAP2 POP POP JUMP JUMPDEST PUSH1 0x0 PUSH1 0x20 DUP3 DUP5 SUB SLT ISZERO PUSH2 0x378 JUMPI PUSH2 0x377 PUSH2 0x212 JUMP JUMPDEST JUMPDEST PUSH1 0x0 DUP3 ADD CALLDATALOAD PUSH8 0xFFFFFFFFFFFFFFFF DUP2 GT ISZERO PUSH2 0x396 JUMPI PUSH2 0x395 PUSH2 0x217 JUMP JUMPDEST JUMPDEST PUSH2 0x3A2 DUP5 DUP3 DUP6 ADD PUSH2 0x334 JUMP JUMPDEST SWAP2 POP POP SWAP3 SWAP2 POP POP JUMP JUMPDEST PUSH1 0x0 DUP2 ISZERO ISZERO SWAP1 POP SWAP2 SWAP1 POP JUMP JUMPDEST PUSH2 0x3C0 DUP2 PUSH2 0x3AB JUMP JUMPDEST DUP3 MSTORE POP POP JUMP JUMPDEST PUSH1 0x0 PUSH1 0x20 DUP3 ADD SWAP1 POP PUSH2 0x3DB PUSH1 0x0 DUP4 ADD DUP5 PUSH2 0x3B7 JUMP JUMPDEST SWAP3 SWAP2 POP POP JUMP JUMPDEST PUSH1 0x0 PUSH20 0xFFFFFFFFFFFFFFFFFFFFFFFFFFFFFFFFFFFFFFFF DUP3 AND SWAP1 POP SWAP2 SWAP1 POP JUMP JUMPDEST PUSH1 0x0 PUSH2 0x40C DUP3 PUSH2 0x3E1 JUMP JUMPDEST SWAP1 POP SWAP2 SWAP1 POP JUMP JUMPDEST PUSH2 0x41C DUP2 PUSH2 0x401 JUMP JUMPDEST DUP3 MSTORE POP POP JUMP JUMPDEST PUSH1 0x0 PUSH1 0x20 DUP3 ADD SWAP1 POP PUSH2 0x437 PUSH1 0x0 DUP4 ADD DUP5 PUSH2 0x413 JUMP JUMPDEST SWAP3 SWAP2 POP POP JUMP JUMPDEST PUSH1 0x0 DUP2 SWAP1 POP SWAP2 SWAP1 POP JUMP JUMPDEST PUSH2 0x450 DUP2 PUSH2 0x43D JUMP JUMPDEST DUP3 MSTORE POP POP JUMP JUMPDEST PUSH1 0x0 PUSH1 0x20 DUP3 ADD SWAP1 POP PUSH2 0x46B PUSH1 0x0 DUP4 ADD DUP5 PUSH2 0x447 JUMP JUMPDEST SWAP3 SWAP2 POP POP JUMP JUMPDEST PUSH1 0x0 DUP2 MLOAD SWAP1 POP SWAP2 SWAP1 POP JUMP JUMPDEST PUSH32 0x4E487B7100000000000000000000000000000000000000000000000000000000 PUSH1 0x0 MSTORE PUSH1 0x22 PUSH1 0x4 MSTORE PUSH1 0x24 PUSH1 0x0 REVERT JUMPDEST PUSH1 0x0 PUSH1 0x2 DUP3 DIV SWAP1 POP PUSH1 0x1 DUP3 AND DUP1 PUSH2 0x4C3 JUMPI PUSH1 0x7F DUP3 AND SWAP2 POP JUMPDEST PUSH1 0x20 DUP3 LT DUP2 SUB PUSH2 0x4D6 JUMPI PUSH2 0x4D5 PUSH2 0x47C JUMP JUMPDEST JUMPDEST POP SWAP2 SWAP1 POP JUMP JUMPDEST PUSH1 0x0 DUP2 SWAP1 POP DUP2 PUSH1 0x0 MSTORE PUSH1 0x20 PUSH1 0x0 KECCAK256 SWAP1 POP SWAP2 SWAP1 POP JUMP JUMPDEST PUSH1 0x0 PUSH1 0x20 PUSH1 0x1F DUP4 ADD DIV SWAP1 POP SWAP2 SWAP1 POP JUMP JUMPDEST PUSH1 0x0 DUP3 DUP3 SHL SWAP1 POP SWAP3 SWAP2 POP POP JUMP JUMPDEST PUSH1 0x0 PUSH1 0x8 DUP4 MUL PUSH2 0x53E PUSH32 0xFFFFFFFFFFFFFFFFFFFFFFFFFFFFFFFFFFFFFFFFFFFFFFFFFFFFFFFFFFFFFFFF DUP3 PUSH2 0x501 JUMP JUMPDEST PUSH2 0x548 DUP7 DUP4 PUSH2 0x501 JUMP JUMPDEST SWAP6 POP DUP1 NOT DUP5 AND SWAP4 POP DUP1 DUP7 AND DUP5 OR SWAP3 POP POP POP SWAP4 SWAP3 POP POP POP JUMP JUMPDEST PUSH1 0x0 DUP2 SWAP1 POP SWAP2 SWAP1 POP JUMP JUMPDEST PUSH1 0x0 PUSH2 0x585 PUSH2 0x580 PUSH2 0x57B DUP5 PUSH2 0x43D JUMP JUMPDEST PUSH2 0x560 JUMP JUMPDEST PUSH2 0x43D JUMP JUMPDEST SWAP1 POP SWAP2 SWAP1 POP JUMP JUMPDEST PUSH1 0x0 DUP2 SWAP1 POP SWAP2 SWAP1 POP JUMP JUMPDEST PUSH2 0x59F DUP4 PUSH2 0x56A JUMP JUMPDEST PUSH2 0x5B3 PUSH2 0x5AB DUP3 PUSH2 0x58C JUMP JUMPDEST DUP5 DUP5 SLOAD PUSH2 0x50E JUMP JUMPDEST DUP3 SSTORE POP POP POP POP JUMP JUMPDEST PUSH1 0x0 SWAP1 JUMP JUMPDEST PUSH2 0x5C8 PUSH2 0x5BB JUMP JUMPDEST PUSH2 0x5D3 DUP2 DUP5 DUP5 PUSH2 0x596 JUMP JUMPDEST POP POP POP JUMP JUMPDEST JUMPDEST DUP2 DUP2 LT ISZERO PUSH2 0x5F7 JUMPI PUSH2 0x5EC PUSH1 0x0 DUP3 PUSH2 0x5C0 JUMP JUMPDEST PUSH1 0x1 DUP2 ADD SWAP1 POP PUSH2 0x5D9 JUMP JUMPDEST POP POP JUMP JUMPDEST PUSH1 0x1F DUP3 GT ISZERO PUSH2 0x63C JUMPI PUSH2 0x60D DUP2 PUSH2 0x4DC JUMP JUMPDEST PUSH2 0x616 DUP5 PUSH2 0x4F1 JUMP JUMPDEST DUP2 ADD PUSH1 0x20 DUP6 LT ISZERO PUSH2 0x625 JUMPI DUP2 SWAP1 POP JUMPDEST PUSH2 0x639 PUSH2 0x631 DUP6 PUSH2 0x4F1 JUMP JUMPDEST DUP4 ADD DUP3 PUSH2 0x5D8 JUMP JUMPDEST POP POP JUMPDEST POP POP POP JUMP JUMPDEST PUSH1 0x0 DUP3 DUP3 SHR SWAP1 POP SWAP3 SWAP2 POP POP JUMP JUMPDEST PUSH1 0x0 PUSH2 0x65F PUSH1 0x0 NOT DUP5 PUSH1 0x8 MUL PUSH2 0x641 JUMP JUMPDEST NOT DUP1 DUP4 AND SWAP2 POP POP SWAP3 SWAP2 POP POP JUMP JUMPDEST PUSH1 0x0 PUSH2 0x678 DUP4 DUP4 PUSH2 0x64E JUMP JUMPDEST SWAP2 POP DUP3 PUSH1 0x2 MUL DUP3 OR SWAP1 POP SWAP3 SWAP2 POP POP JUMP JUMPDEST PUSH2 0x691 DUP3 PUSH2 0x471 JUMP JUMPDEST PUSH8 0xFFFFFFFFFFFFFFFF DUP2 GT ISZERO PUSH2 0x6AA JUMPI PUSH2 0x6A9 PUSH2 0x237 JUMP JUMPDEST JUMPDEST PUSH2 0x6B4 DUP3 SLOAD PUSH2 0x4AB JUMP JUMPDEST PUSH2 0x6BF DUP3 DUP3 DUP6 PUSH2 0x5FB JUMP JUMPDEST PUSH1 0x0 PUSH1 0x20 SWAP1 POP PUSH1 0x1F DUP4 GT PUSH1 0x1 DUP2 EQ PUSH2 0x6F2 JUMPI PUSH1 0x0 DUP5 ISZERO PUSH2 0x6E0 JUMPI DUP3 DUP8 ADD MLOAD SWAP1 POP JUMPDEST PUSH2 0x6EA DUP6 DUP3 PUSH2 0x66C JUMP JUMPDEST DUP7 SSTORE POP PUSH2 0x752 JUMP JUMPDEST PUSH1 0x1F NOT DUP5 AND PUSH2 0x700 DUP7 PUSH2 0x4DC JUMP JUMPDEST PUSH1 0x0 JUMPDEST DUP3 DUP2 LT ISZERO PUSH2 0x728 JUMPI DUP5 DUP10 ADD MLOAD DUP3 SSTORE PUSH1 0x1 DUP3 ADD SWAP2 POP PUSH1 0x20 DUP6 ADD SWAP5 POP PUSH1 0x20 DUP2 ADD SWAP1 POP PUSH2 0x703 JUMP JUMPDEST DUP7 DUP4 LT ISZERO PUSH2 0x745 JUMPI DUP5 DUP10 ADD MLOAD PUSH2 0x741 PUSH1 0x1F DUP10 AND DUP3 PUSH2 0x64E JUMP JUMPDEST DUP4 SSTORE POP JUMPDEST PUSH1 0x1 PUSH1 0x2 DUP9 MUL ADD DUP9 SSTORE POP POP POP JUMPDEST POP POP POP POP POP POP JUMP INVALID LOG2 PUSH5 0x6970667358 0x22 SLT KECCAK256 EQ 0x2F 0x2C GT 0xCE PUSH6 0x719926F50E5F INVALID ADDRESS CALLDATALOAD 0xF7 SWAP16 LOG3 PUSH32 0xA6D46394A562DA504E2186CC4464736F6C634300081100330000000000000000 "
				},
				"gasEstimates": {
					"creation": {
						"codeDepositCost": "387200",
						"executionCost": "73224",
						"totalCost": "460424"
					},
					"external": {
						"getBlance()": "361",
						"getMeal(string)": "infinite",
						"owner()": "2514",
						"transf()": "infinite"
					}
				},
				"methodIdentifiers": {
					"getBlance()": "941be5f7",
					"getMeal(string)": "06f2d7f3",
					"owner()": "8da5cb5b",
					"transf()": "c84e45c7"
				}
			},
			"storageLayout": {
				"storage": [
					{
						"astId": 7,
						"contract": "Bakery.sol:bakery",
						"label": "thirdParty",
						"offset": 0,
						"slot": "0",
						"type": "t_address_payable"
					},
					{
						"astId": 13,
						"contract": "Bakery.sol:bakery",
						"label": "salesMan",
						"offset": 0,
						"slot": "1",
						"type": "t_address_payable"
					},
					{
						"astId": 15,
						"contract": "Bakery.sol:bakery",
						"label": "owner",
						"offset": 0,
						"slot": "2",
						"type": "t_address"
					},
					{
						"astId": 17,
						"contract": "Bakery.sol:bakery",
						"label": "meal",
						"offset": 0,
						"slot": "3",
						"type": "t_string_storage"
					}
				],
				"types": {
					"t_address": {
						"encoding": "inplace",
						"label": "address",
						"numberOfBytes": "20"
					},
					"t_address_payable": {
						"encoding": "inplace",
						"label": "address payable",
						"numberOfBytes": "20"
					},
					"t_string_storage": {
						"encoding": "bytes",
						"label": "string",
						"numberOfBytes": "32"
					}
				}
			},
			"userdoc": {
				"kind": "user",
				"methods": {},
				"version": 1
			}
		}
	}
}