{
	"Crowd.sol": {
		"crowdFunding": {
			"abi": [
				{
					"inputs": [
						{
							"internalType": "uint256",
							"name": "_target",
							"type": "uint256"
						},
						{
							"internalType": "uint256",
							"name": "_deadline",
							"type": "uint256"
						}
					],
					"stateMutability": "nonpayable",
					"type": "constructor"
				},
				{
					"inputs": [
						{
							"internalType": "address",
							"name": "",
							"type": "address"
						}
					],
					"name": "contributors",
					"outputs": [
						{
							"internalType": "uint256",
							"name": "",
							"type": "uint256"
						}
					],
					"stateMutability": "view",
					"type": "function"
				},
				{
					"inputs": [
						{
							"internalType": "string",
							"name": "_discription",
							"type": "string"
						},
						{
							"internalType": "address payable",
							"name": "_recipant",
							"type": "address"
						},
						{
							"internalType": "uint256",
							"name": "_value",
							"type": "uint256"
						}
					],
					"name": "createRequest",
					"outputs": [],
					"stateMutability": "nonpayable",
					"type": "function"
				},
				{
					"inputs": [],
					"name": "deadline",
					"outputs": [
						{
							"internalType": "uint256",
							"name": "",
							"type": "uint256"
						}
					],
					"stateMutability": "view",
					"type": "function"
				},
				{
					"inputs": [],
					"name": "getBalance",
					"outputs": [
						{
							"internalType": "uint256",
							"name": "",
							"type": "uint256"
						}
					],
					"stateMutability": "view",
					"type": "function"
				},
				{
					"inputs": [],
					"name": "manager",
					"outputs": [
						{
							"internalType": "address",
							"name": "",
							"type": "address"
						}
					],
					"stateMutability": "view",
					"type": "function"
				},
				{
					"inputs": [],
					"name": "miniContribution",
					"outputs": [
						{
							"internalType": "uint256",
							"name": "",
							"type": "uint256"
						}
					],
					"stateMutability": "view",
					"type": "function"
				},
				{
					"inputs": [],
					"name": "noOfContributor",
					"outputs": [
						{
							"internalType": "uint256",
							"name": "",
							"type": "uint256"
						}
					],
					"stateMutability": "view",
					"type": "function"
				},
				{
					"inputs": [],
					"name": "numRequest",
					"outputs": [
						{
							"internalType": "uint256",
							"name": "",
							"type": "uint256"
						}
					],
					"stateMutability": "view",
					"type": "function"
				},
				{
					"inputs": [],
					"name": "raisedAmount",
					"outputs": [
						{
							"internalType": "uint256",
							"name": "",
							"type": "uint256"
						}
					],
					"stateMutability": "view",
					"type": "function"
				},
				{
					"inputs": [],
					"name": "refund",
					"outputs": [],
					"stateMutability": "payable",
					"type": "function"
				},
				{
					"inputs": [
						{
							"internalType": "uint256",
							"name": "",
							"type": "uint256"
						}
					],
					"name": "request",
					"outputs": [
						{
							"internalType": "string",
							"name": "discription",
							"type": "string"
						},
						{
							"internalType": "address",
							"name": "recipant",
							"type": "address"
						},
						{
							"internalType": "uint256",
							"name": "value",
							"type": "uint256"
						},
						{
							"internalType": "bool",
							"name": "completed",
							"type": "bool"
						},
						{
							"internalType": "uint256",
							"name": "noOfVoters",
							"type": "uint256"
						}
					],
					"stateMutability": "view",
					"type": "function"
				},
				{
					"inputs": [
						{
							"internalType": "uint256",
							"name": "_request",
							"type": "uint256"
						}
					],
					"name": "requestAccept",
					"outputs": [],
					"stateMutability": "nonpayable",
					"type": "function"
				},
				{
					"inputs": [],
					"name": "sendEth",
					"outputs": [],
					"stateMutability": "payable",
					"type": "function"
				},
				{
					"inputs": [],
					"name": "target",
					"outputs": [
						{
							"internalType": "uint256",
							"name": "",
							"type": "uint256"
						}
					],
					"stateMutability": "view",
					"type": "function"
				},
				{
					"inputs": [
						{
							"internalType": "uint256",
							"name": "_request",
							"type": "uint256"
						}
					],
					"name": "voteRequest",
					"outputs": [],
					"stateMutability": "nonpayable",
					"type": "function"
				}
			],
			"devdoc": {
				"kind": "dev",
				"methods": {},
				"version": 1
			},
			"evm": {
				"assembly": "    /* \"Crowd.sol\":74:2637  contract crowdFunding... */\n  mstore(0x40, 0x80)\n    /* \"Crowd.sol\":612:801  constructor (uint _target,uint _deadline)... */\n  callvalue\n  dup1\n  iszero\n  tag_1\n  jumpi\n  0x00\n  dup1\n  revert\ntag_1:\n  pop\n  mload(0x40)\n  sub(codesize, bytecodeSize)\n  dup1\n  bytecodeSize\n  dup4\n  codecopy\n  dup2\n  dup2\n  add\n  0x40\n  mstore\n  dup2\n  add\n  swap1\n  tag_2\n  swap2\n  swap1\n  tag_3\n  jump\t// in\ntag_2:\n    /* \"Crowd.sol\":677:684  _target */\n  dup2\n    /* \"Crowd.sol\":670:676  target */\n  0x02\n    /* \"Crowd.sol\":670:684  target=_target */\n  dup2\n  swap1\n  sstore\n  pop\n    /* \"Crowd.sol\":720:729  _deadline */\n  dup1\n    /* \"Crowd.sol\":704:719  block.timestamp */\n  timestamp\n    /* \"Crowd.sol\":704:729  block.timestamp+_deadline */\n  tag_6\n  swap2\n  swap1\n  tag_7\n  jump\t// in\ntag_6:\n    /* \"Crowd.sol\":695:703  deadline */\n  0x04\n    /* \"Crowd.sol\":695:729  deadline=block.timestamp+_deadline */\n  dup2\n  swap1\n  sstore\n  pop\n    /* \"Crowd.sol\":757:764  100 wei */\n  0x64\n    /* \"Crowd.sol\":740:756  miniContribution */\n  0x03\n    /* \"Crowd.sol\":740:764  miniContribution=100 wei */\n  dup2\n  swap1\n  sstore\n  pop\n    /* \"Crowd.sol\":783:793  msg.sender */\n  caller\n    /* \"Crowd.sol\":775:782  manager */\n  0x01\n  0x00\n    /* \"Crowd.sol\":775:793  manager=msg.sender */\n  0x0100\n  exp\n  dup2\n  sload\n  dup2\n  0xffffffffffffffffffffffffffffffffffffffff\n  mul\n  not\n  and\n  swap1\n  dup4\n  0xffffffffffffffffffffffffffffffffffffffff\n  and\n  mul\n  or\n  swap1\n  sstore\n  pop\n    /* \"Crowd.sol\":612:801  constructor (uint _target,uint _deadline)... */\n  pop\n  pop\n    /* \"Crowd.sol\":74:2637  contract crowdFunding... */\n  jump(tag_8)\n    /* \"#utility.yul\":88:205   */\ntag_10:\n    /* \"#utility.yul\":197:198   */\n  0x00\n    /* \"#utility.yul\":194:195   */\n  dup1\n    /* \"#utility.yul\":187:199   */\n  revert\n    /* \"#utility.yul\":334:411   */\ntag_12:\n    /* \"#utility.yul\":371:378   */\n  0x00\n    /* \"#utility.yul\":400:405   */\n  dup2\n    /* \"#utility.yul\":389:405   */\n  swap1\n  pop\n    /* \"#utility.yul\":334:411   */\n  swap2\n  swap1\n  pop\n  jump\t// out\n    /* \"#utility.yul\":417:539   */\ntag_13:\n    /* \"#utility.yul\":490:514   */\n  tag_22\n    /* \"#utility.yul\":508:513   */\n  dup2\n    /* \"#utility.yul\":490:514   */\n  tag_12\n  jump\t// in\ntag_22:\n    /* \"#utility.yul\":483:488   */\n  dup2\n    /* \"#utility.yul\":480:515   */\n  eq\n    /* \"#utility.yul\":470:533   */\n  tag_23\n  jumpi\n    /* \"#utility.yul\":529:530   */\n  0x00\n    /* \"#utility.yul\":526:527   */\n  dup1\n    /* \"#utility.yul\":519:531   */\n  revert\n    /* \"#utility.yul\":470:533   */\ntag_23:\n    /* \"#utility.yul\":417:539   */\n  pop\n  jump\t// out\n    /* \"#utility.yul\":545:688   */\ntag_14:\n    /* \"#utility.yul\":602:607   */\n  0x00\n    /* \"#utility.yul\":633:639   */\n  dup2\n    /* \"#utility.yul\":627:640   */\n  mload\n    /* \"#utility.yul\":618:640   */\n  swap1\n  pop\n    /* \"#utility.yul\":649:682   */\n  tag_25\n    /* \"#utility.yul\":676:681   */\n  dup2\n    /* \"#utility.yul\":649:682   */\n  tag_13\n  jump\t// in\ntag_25:\n    /* \"#utility.yul\":545:688   */\n  swap3\n  swap2\n  pop\n  pop\n  jump\t// out\n    /* \"#utility.yul\":694:1201   */\ntag_3:\n    /* \"#utility.yul\":773:779   */\n  0x00\n    /* \"#utility.yul\":781:787   */\n  dup1\n    /* \"#utility.yul\":830:832   */\n  0x40\n    /* \"#utility.yul\":818:827   */\n  dup4\n    /* \"#utility.yul\":809:816   */\n  dup6\n    /* \"#utility.yul\":805:828   */\n  sub\n    /* \"#utility.yul\":801:833   */\n  slt\n    /* \"#utility.yul\":798:917   */\n  iszero\n  tag_27\n  jumpi\n    /* \"#utility.yul\":836:915   */\n  tag_28\n  tag_10\n  jump\t// in\ntag_28:\n    /* \"#utility.yul\":798:917   */\ntag_27:\n    /* \"#utility.yul\":956:957   */\n  0x00\n    /* \"#utility.yul\":981:1045   */\n  tag_29\n    /* \"#utility.yul\":1037:1044   */\n  dup6\n    /* \"#utility.yul\":1028:1034   */\n  dup3\n    /* \"#utility.yul\":1017:1026   */\n  dup7\n    /* \"#utility.yul\":1013:1035   */\n  add\n    /* \"#utility.yul\":981:1045   */\n  tag_14\n  jump\t// in\ntag_29:\n    /* \"#utility.yul\":971:1045   */\n  swap3\n  pop\n    /* \"#utility.yul\":927:1055   */\n  pop\n    /* \"#utility.yul\":1094:1096   */\n  0x20\n    /* \"#utility.yul\":1120:1184   */\n  tag_30\n    /* \"#utility.yul\":1176:1183   */\n  dup6\n    /* \"#utility.yul\":1167:1173   */\n  dup3\n    /* \"#utility.yul\":1156:1165   */\n  dup7\n    /* \"#utility.yul\":1152:1174   */\n  add\n    /* \"#utility.yul\":1120:1184   */\n  tag_14\n  jump\t// in\ntag_30:\n    /* \"#utility.yul\":1110:1184   */\n  swap2\n  pop\n    /* \"#utility.yul\":1065:1194   */\n  pop\n    /* \"#utility.yul\":694:1201   */\n  swap3\n  pop\n  swap3\n  swap1\n  pop\n  jump\t// out\n    /* \"#utility.yul\":1207:1387   */\ntag_15:\n    /* \"#utility.yul\":1255:1332   */\n  0x4e487b7100000000000000000000000000000000000000000000000000000000\n    /* \"#utility.yul\":1252:1253   */\n  0x00\n    /* \"#utility.yul\":1245:1333   */\n  mstore\n    /* \"#utility.yul\":1352:1356   */\n  0x11\n    /* \"#utility.yul\":1349:1350   */\n  0x04\n    /* \"#utility.yul\":1342:1357   */\n  mstore\n    /* \"#utility.yul\":1376:1380   */\n  0x24\n    /* \"#utility.yul\":1373:1374   */\n  0x00\n    /* \"#utility.yul\":1366:1381   */\n  revert\n    /* \"#utility.yul\":1393:1584   */\ntag_7:\n    /* \"#utility.yul\":1433:1436   */\n  0x00\n    /* \"#utility.yul\":1452:1472   */\n  tag_33\n    /* \"#utility.yul\":1470:1471   */\n  dup3\n    /* \"#utility.yul\":1452:1472   */\n  tag_12\n  jump\t// in\ntag_33:\n    /* \"#utility.yul\":1447:1472   */\n  swap2\n  pop\n    /* \"#utility.yul\":1486:1506   */\n  tag_34\n    /* \"#utility.yul\":1504:1505   */\n  dup4\n    /* \"#utility.yul\":1486:1506   */\n  tag_12\n  jump\t// in\ntag_34:\n    /* \"#utility.yul\":1481:1506   */\n  swap3\n  pop\n    /* \"#utility.yul\":1529:1530   */\n  dup3\n    /* \"#utility.yul\":1526:1527   */\n  dup3\n    /* \"#utility.yul\":1522:1531   */\n  add\n    /* \"#utility.yul\":1515:1531   */\n  swap1\n  pop\n    /* \"#utility.yul\":1550:1553   */\n  dup1\n    /* \"#utility.yul\":1547:1548   */\n  dup3\n    /* \"#utility.yul\":1544:1554   */\n  gt\n    /* \"#utility.yul\":1541:1577   */\n  iszero\n  tag_35\n  jumpi\n    /* \"#utility.yul\":1557:1575   */\n  tag_36\n  tag_15\n  jump\t// in\ntag_36:\n    /* \"#utility.yul\":1541:1577   */\ntag_35:\n    /* \"#utility.yul\":1393:1584   */\n  swap3\n  swap2\n  pop\n  pop\n  jump\t// out\n    /* \"Crowd.sol\":74:2637  contract crowdFunding... */\ntag_8:\n  dataSize(sub_0)\n  dup1\n  dataOffset(sub_0)\n  0x00\n  codecopy\n  0x00\n  return\nstop\n\nsub_0: assembly {\n        /* \"Crowd.sol\":74:2637  contract crowdFunding... */\n      mstore(0x40, 0x80)\n      jumpi(tag_1, lt(calldatasize, 0x04))\n      shr(0xe0, calldataload(0x00))\n      dup1\n      0x4cb6f4a5\n      gt\n      tag_17\n      jumpi\n      dup1\n      0xb1b16431\n      gt\n      tag_18\n      jumpi\n      dup1\n      0xb1b16431\n      eq\n      tag_13\n      jumpi\n      dup1\n      0xc59ee1dc\n      eq\n      tag_14\n      jumpi\n      dup1\n      0xd4b83992\n      eq\n      tag_15\n      jumpi\n      dup1\n      0xd845a4b3\n      eq\n      tag_16\n      jumpi\n      jump(tag_1)\n    tag_18:\n      dup1\n      0x4cb6f4a5\n      eq\n      tag_9\n      jumpi\n      dup1\n      0x590e1ae3\n      eq\n      tag_10\n      jumpi\n      dup1\n      0x8c9ffd40\n      eq\n      tag_11\n      jumpi\n      dup1\n      0xa6a78c94\n      eq\n      tag_12\n      jumpi\n      jump(tag_1)\n    tag_17:\n      dup1\n      0x1b16bb5c\n      gt\n      tag_19\n      jumpi\n      dup1\n      0x1b16bb5c\n      eq\n      tag_5\n      jumpi\n      dup1\n      0x1f6d4942\n      eq\n      tag_6\n      jumpi\n      dup1\n      0x29dcb0cf\n      eq\n      tag_7\n      jumpi\n      dup1\n      0x481c6a75\n      eq\n      tag_8\n      jumpi\n      jump(tag_1)\n    tag_19:\n      dup1\n      0x05759b4d\n      eq\n      tag_2\n      jumpi\n      dup1\n      0x06e99fef\n      eq\n      tag_3\n      jumpi\n      dup1\n      0x12065fe0\n      eq\n      tag_4\n      jumpi\n    tag_1:\n      0x00\n      dup1\n      revert\n        /* \"Crowd.sol\":207:235  uint public miniContribution */\n    tag_2:\n      callvalue\n      dup1\n      iszero\n      tag_20\n      jumpi\n      0x00\n      dup1\n      revert\n    tag_20:\n      pop\n      tag_21\n      tag_22\n      jump\t// in\n    tag_21:\n      mload(0x40)\n      tag_23\n      swap2\n      swap1\n      tag_24\n      jump\t// in\n    tag_23:\n      mload(0x40)\n      dup1\n      swap2\n      sub\n      swap1\n      return\n        /* \"Crowd.sol\":809:1167  function sendEth() public payable ... */\n    tag_3:\n      tag_25\n      tag_26\n      jump\t// in\n    tag_25:\n      stop\n        /* \"Crowd.sol\":1175:1269  function getBalance() public view returns(uint){... */\n    tag_4:\n      callvalue\n      dup1\n      iszero\n      tag_27\n      jumpi\n      0x00\n      dup1\n      revert\n    tag_27:\n      pop\n      tag_28\n      tag_29\n      jump\t// in\n    tag_28:\n      mload(0x40)\n      tag_30\n      swap2\n      swap1\n      tag_24\n      jump\t// in\n    tag_30:\n      mload(0x40)\n      dup1\n      swap2\n      sub\n      swap1\n      return\n        /* \"Crowd.sol\":1735:2126  function createRequest(string memory _discription,address payable _recipant,uint _value) public onlyManager... */\n    tag_5:\n      callvalue\n      dup1\n      iszero\n      tag_31\n      jumpi\n      0x00\n      dup1\n      revert\n    tag_31:\n      pop\n      tag_32\n      0x04\n      dup1\n      calldatasize\n      sub\n      dup2\n      add\n      swap1\n      tag_33\n      swap2\n      swap1\n      tag_34\n      jump\t// in\n    tag_33:\n      tag_35\n      jump\t// in\n    tag_32:\n      stop\n        /* \"Crowd.sol\":104:146  mapping(address=>uint) public contributors */\n    tag_6:\n      callvalue\n      dup1\n      iszero\n      tag_36\n      jumpi\n      0x00\n      dup1\n      revert\n    tag_36:\n      pop\n      tag_37\n      0x04\n      dup1\n      calldatasize\n      sub\n      dup2\n      add\n      swap1\n      tag_38\n      swap2\n      swap1\n      tag_39\n      jump\t// in\n    tag_38:\n      tag_40\n      jump\t// in\n    tag_37:\n      mload(0x40)\n      tag_41\n      swap2\n      swap1\n      tag_24\n      jump\t// in\n    tag_41:\n      mload(0x40)\n      dup1\n      swap2\n      sub\n      swap1\n      return\n        /* \"Crowd.sol\":242:262  uint public deadline */\n    tag_7:\n      callvalue\n      dup1\n      iszero\n      tag_42\n      jumpi\n      0x00\n      dup1\n      revert\n    tag_42:\n      pop\n      tag_43\n      tag_44\n      jump\t// in\n    tag_43:\n      mload(0x40)\n      tag_45\n      swap2\n      swap1\n      tag_24\n      jump\t// in\n    tag_45:\n      mload(0x40)\n      dup1\n      swap2\n      sub\n      swap1\n      return\n        /* \"Crowd.sol\":153:175  address public manager */\n    tag_8:\n      callvalue\n      dup1\n      iszero\n      tag_46\n      jumpi\n      0x00\n      dup1\n      revert\n    tag_46:\n      pop\n      tag_47\n      tag_48\n      jump\t// in\n    tag_47:\n      mload(0x40)\n      tag_49\n      swap2\n      swap1\n      tag_50\n      jump\t// in\n    tag_49:\n      mload(0x40)\n      dup1\n      swap2\n      sub\n      swap1\n      return\n        /* \"Crowd.sol\":2135:2450  function voteRequest(uint _request) public ... */\n    tag_9:\n      callvalue\n      dup1\n      iszero\n      tag_51\n      jumpi\n      0x00\n      dup1\n      revert\n    tag_51:\n      pop\n      tag_52\n      0x04\n      dup1\n      calldatasize\n      sub\n      dup2\n      add\n      swap1\n      tag_53\n      swap2\n      swap1\n      tag_54\n      jump\t// in\n    tag_53:\n      tag_55\n      jump\t// in\n    tag_52:\n      stop\n        /* \"Crowd.sol\":1275:1606  function refund() public payable... */\n    tag_10:\n      tag_56\n      tag_57\n      jump\t// in\n    tag_56:\n      stop\n        /* \"Crowd.sol\":269:296  uint public noOfContributor */\n    tag_11:\n      callvalue\n      dup1\n      iszero\n      tag_58\n      jumpi\n      0x00\n      dup1\n      revert\n    tag_58:\n      pop\n      tag_59\n      tag_60\n      jump\t// in\n    tag_59:\n      mload(0x40)\n      tag_61\n      swap2\n      swap1\n      tag_24\n      jump\t// in\n    tag_61:\n      mload(0x40)\n      dup1\n      swap2\n      sub\n      swap1\n      return\n        /* \"Crowd.sol\":2458:2634  function requestAccept(uint _request) public onlyManager... */\n    tag_12:\n      callvalue\n      dup1\n      iszero\n      tag_62\n      jumpi\n      0x00\n      dup1\n      revert\n    tag_62:\n      pop\n      tag_63\n      0x04\n      dup1\n      calldatasize\n      sub\n      dup2\n      add\n      swap1\n      tag_64\n      swap2\n      swap1\n      tag_54\n      jump\t// in\n    tag_64:\n      tag_65\n      jump\t// in\n    tag_63:\n      stop\n        /* \"Crowd.sol\":581:603  uint public numRequest */\n    tag_13:\n      callvalue\n      dup1\n      iszero\n      tag_66\n      jumpi\n      0x00\n      dup1\n      revert\n    tag_66:\n      pop\n      tag_67\n      tag_68\n      jump\t// in\n    tag_67:\n      mload(0x40)\n      tag_69\n      swap2\n      swap1\n      tag_24\n      jump\t// in\n    tag_69:\n      mload(0x40)\n      dup1\n      swap2\n      sub\n      swap1\n      return\n        /* \"Crowd.sol\":303:327  uint public raisedAmount */\n    tag_14:\n      callvalue\n      dup1\n      iszero\n      tag_70\n      jumpi\n      0x00\n      dup1\n      revert\n    tag_70:\n      pop\n      tag_71\n      tag_72\n      jump\t// in\n    tag_71:\n      mload(0x40)\n      tag_73\n      swap2\n      swap1\n      tag_24\n      jump\t// in\n    tag_73:\n      mload(0x40)\n      dup1\n      swap2\n      sub\n      swap1\n      return\n        /* \"Crowd.sol\":182:200  uint public target */\n    tag_15:\n      callvalue\n      dup1\n      iszero\n      tag_74\n      jumpi\n      0x00\n      dup1\n      revert\n    tag_74:\n      pop\n      tag_75\n      tag_76\n      jump\t// in\n    tag_75:\n      mload(0x40)\n      tag_77\n      swap2\n      swap1\n      tag_24\n      jump\t// in\n    tag_77:\n      mload(0x40)\n      dup1\n      swap2\n      sub\n      swap1\n      return\n        /* \"Crowd.sol\":537:574  mapping(uint=>Request) public request */\n    tag_16:\n      callvalue\n      dup1\n      iszero\n      tag_78\n      jumpi\n      0x00\n      dup1\n      revert\n    tag_78:\n      pop\n      tag_79\n      0x04\n      dup1\n      calldatasize\n      sub\n      dup2\n      add\n      swap1\n      tag_80\n      swap2\n      swap1\n      tag_54\n      jump\t// in\n    tag_80:\n      tag_81\n      jump\t// in\n    tag_79:\n      mload(0x40)\n      tag_82\n      swap6\n      swap5\n      swap4\n      swap3\n      swap2\n      swap1\n      tag_83\n      jump\t// in\n    tag_82:\n      mload(0x40)\n      dup1\n      swap2\n      sub\n      swap1\n      return\n        /* \"Crowd.sol\":207:235  uint public miniContribution */\n    tag_22:\n      sload(0x03)\n      dup2\n      jump\t// out\n        /* \"Crowd.sol\":809:1167  function sendEth() public payable ... */\n    tag_26:\n        /* \"Crowd.sol\":884:892  deadline */\n      sload(0x04)\n        /* \"Crowd.sol\":868:883  block.timestamp */\n      timestamp\n        /* \"Crowd.sol\":868:892  block.timestamp<deadline */\n      lt\n        /* \"Crowd.sol\":860:916  require(block.timestamp<deadline,\"Dealine were missing\") */\n      tag_85\n      jumpi\n      mload(0x40)\n      0x08c379a000000000000000000000000000000000000000000000000000000000\n      dup2\n      mstore\n      0x04\n      add\n      tag_86\n      swap1\n      tag_87\n      jump\t// in\n    tag_86:\n      mload(0x40)\n      dup1\n      swap2\n      sub\n      swap1\n      revert\n    tag_85:\n        /* \"Crowd.sol\":947:963  miniContribution */\n      sload(0x03)\n        /* \"Crowd.sol\":935:944  msg.value */\n      callvalue\n        /* \"Crowd.sol\":935:963  msg.value ==miniContribution */\n      eq\n        /* \"Crowd.sol\":927:991  require(msg.value ==miniContribution,\"You were not be eligible\") */\n      tag_88\n      jumpi\n      mload(0x40)\n      0x08c379a000000000000000000000000000000000000000000000000000000000\n      dup2\n      mstore\n      0x04\n      add\n      tag_89\n      swap1\n      tag_90\n      jump\t// in\n    tag_89:\n      mload(0x40)\n      dup1\n      swap2\n      sub\n      swap1\n      revert\n    tag_88:\n        /* \"Crowd.sol\":1034:1035  0 */\n      0x00\n        /* \"Crowd.sol\":1008:1020  contributors */\n      dup1\n        /* \"Crowd.sol\":1008:1032  contributors[msg.sender] */\n      0x00\n        /* \"Crowd.sol\":1021:1031  msg.sender */\n      caller\n        /* \"Crowd.sol\":1008:1032  contributors[msg.sender] */\n      0xffffffffffffffffffffffffffffffffffffffff\n      and\n      0xffffffffffffffffffffffffffffffffffffffff\n      and\n      dup2\n      mstore\n      0x20\n      add\n      swap1\n      dup2\n      mstore\n      0x20\n      add\n      0x00\n      keccak256\n      sload\n        /* \"Crowd.sol\":1008:1035  contributors[msg.sender]==0 */\n      sub\n        /* \"Crowd.sol\":1004:1080  if (contributors[msg.sender]==0){... */\n      tag_91\n      jumpi\n        /* \"Crowd.sol\":1051:1066  noOfContributor */\n      0x05\n      0x00\n        /* \"Crowd.sol\":1051:1068  noOfContributor++ */\n      dup2\n      sload\n      dup1\n      swap3\n      swap2\n      swap1\n      tag_92\n      swap1\n      tag_93\n      jump\t// in\n    tag_92:\n      swap2\n      swap1\n      pop\n      sstore\n      pop\n        /* \"Crowd.sol\":1004:1080  if (contributors[msg.sender]==0){... */\n    tag_91:\n        /* \"Crowd.sol\":1116:1125  msg.value */\n      callvalue\n        /* \"Crowd.sol\":1090:1102  contributors */\n      0x00\n        /* \"Crowd.sol\":1090:1114  contributors[msg.sender] */\n      dup1\n        /* \"Crowd.sol\":1103:1113  msg.sender */\n      caller\n        /* \"Crowd.sol\":1090:1114  contributors[msg.sender] */\n      0xffffffffffffffffffffffffffffffffffffffff\n      and\n      0xffffffffffffffffffffffffffffffffffffffff\n      and\n      dup2\n      mstore\n      0x20\n      add\n      swap1\n      dup2\n      mstore\n      0x20\n      add\n      0x00\n      keccak256\n      0x00\n        /* \"Crowd.sol\":1090:1125  contributors[msg.sender]+=msg.value */\n      dup3\n      dup3\n      sload\n      tag_94\n      swap2\n      swap1\n      tag_95\n      jump\t// in\n    tag_94:\n      swap3\n      pop\n      pop\n      dup2\n      swap1\n      sstore\n      pop\n        /* \"Crowd.sol\":1150:1159  msg.value */\n      callvalue\n        /* \"Crowd.sol\":1136:1148  raisedAmount */\n      0x06\n      0x00\n        /* \"Crowd.sol\":1136:1159  raisedAmount+=msg.value */\n      dup3\n      dup3\n      sload\n      tag_96\n      swap2\n      swap1\n      tag_95\n      jump\t// in\n    tag_96:\n      swap3\n      pop\n      pop\n      dup2\n      swap1\n      sstore\n      pop\n        /* \"Crowd.sol\":809:1167  function sendEth() public payable ... */\n      jump\t// out\n        /* \"Crowd.sol\":1175:1269  function getBalance() public view returns(uint){... */\n    tag_29:\n        /* \"Crowd.sol\":1217:1221  uint */\n      0x00\n        /* \"Crowd.sol\":1240:1261  address(this).balance */\n      selfbalance\n        /* \"Crowd.sol\":1233:1261  return address(this).balance */\n      swap1\n      pop\n        /* \"Crowd.sol\":1175:1269  function getBalance() public view returns(uint){... */\n      swap1\n      jump\t// out\n        /* \"Crowd.sol\":1735:2126  function createRequest(string memory _discription,address payable _recipant,uint _value) public onlyManager... */\n    tag_35:\n        /* \"Crowd.sol\":1668:1675  manager */\n      0x01\n      0x00\n      swap1\n      sload\n      swap1\n      0x0100\n      exp\n      swap1\n      div\n      0xffffffffffffffffffffffffffffffffffffffff\n      and\n        /* \"Crowd.sol\":1656:1675  msg.sender==manager */\n      0xffffffffffffffffffffffffffffffffffffffff\n      and\n        /* \"Crowd.sol\":1656:1666  msg.sender */\n      caller\n        /* \"Crowd.sol\":1656:1675  msg.sender==manager */\n      0xffffffffffffffffffffffffffffffffffffffff\n      and\n      eq\n        /* \"Crowd.sol\":1647:1707  require (msg.sender==manager,\"Only can Access the Function\") */\n      tag_99\n      jumpi\n      mload(0x40)\n      0x08c379a000000000000000000000000000000000000000000000000000000000\n      dup2\n      mstore\n      0x04\n      add\n      tag_100\n      swap1\n      tag_101\n      jump\t// in\n    tag_100:\n      mload(0x40)\n      dup1\n      swap2\n      sub\n      swap1\n      revert\n    tag_99:\n        /* \"Crowd.sol\":1859:1885  Request storage newRequest */\n      0x00\n        /* \"Crowd.sol\":1886:1893  request */\n      0x07\n        /* \"Crowd.sol\":1886:1905  request[numRequest] */\n      0x00\n        /* \"Crowd.sol\":1894:1904  numRequest */\n      sload(0x08)\n        /* \"Crowd.sol\":1886:1905  request[numRequest] */\n      dup2\n      mstore\n      0x20\n      add\n      swap1\n      dup2\n      mstore\n      0x20\n      add\n      0x00\n      keccak256\n        /* \"Crowd.sol\":1859:1905  Request storage newRequest=request[numRequest] */\n      swap1\n      pop\n        /* \"Crowd.sol\":1916:1926  numRequest */\n      0x08\n      0x00\n        /* \"Crowd.sol\":1916:1928  numRequest++ */\n      dup2\n      sload\n      dup1\n      swap3\n      swap2\n      swap1\n      tag_103\n      swap1\n      tag_93\n      jump\t// in\n    tag_103:\n      swap2\n      swap1\n      pop\n      sstore\n      pop\n        /* \"Crowd.sol\":1962:1974  _discription */\n      dup4\n        /* \"Crowd.sol\":1939:1949  newRequest */\n      dup2\n        /* \"Crowd.sol\":1939:1961  newRequest.discription */\n      0x00\n      add\n        /* \"Crowd.sol\":1939:1974  newRequest.discription=_discription */\n      swap1\n      dup2\n      tag_104\n      swap2\n      swap1\n      tag_105\n      jump\t// in\n    tag_104:\n      pop\n        /* \"Crowd.sol\":2005:2014  _recipant */\n      dup3\n        /* \"Crowd.sol\":1985:1995  newRequest */\n      dup2\n        /* \"Crowd.sol\":1985:2004  newRequest.recipant */\n      0x01\n      add\n      0x00\n        /* \"Crowd.sol\":1985:2014  newRequest.recipant=_recipant */\n      0x0100\n      exp\n      dup2\n      sload\n      dup2\n      0xffffffffffffffffffffffffffffffffffffffff\n      mul\n      not\n      and\n      swap1\n      dup4\n      0xffffffffffffffffffffffffffffffffffffffff\n      and\n      mul\n      or\n      swap1\n      sstore\n      pop\n        /* \"Crowd.sol\":2042:2048  _value */\n      dup2\n        /* \"Crowd.sol\":2025:2035  newRequest */\n      dup2\n        /* \"Crowd.sol\":2025:2041  newRequest.value */\n      0x02\n      add\n        /* \"Crowd.sol\":2025:2048  newRequest.value=_value */\n      dup2\n      swap1\n      sstore\n      pop\n        /* \"Crowd.sol\":2080:2084  true */\n      0x01\n        /* \"Crowd.sol\":2059:2069  newRequest */\n      dup2\n        /* \"Crowd.sol\":2059:2079  newRequest.completed */\n      0x03\n      add\n      0x00\n        /* \"Crowd.sol\":2059:2084  newRequest.completed=true */\n      0x0100\n      exp\n      dup2\n      sload\n      dup2\n      0xff\n      mul\n      not\n      and\n      swap1\n      dup4\n      iszero\n      iszero\n      mul\n      or\n      swap1\n      sstore\n      pop\n        /* \"Crowd.sol\":2117:2118  0 */\n      0x00\n        /* \"Crowd.sol\":2095:2105  newRequest */\n      dup2\n        /* \"Crowd.sol\":2095:2116  newRequest.noOfVoters */\n      0x04\n      add\n        /* \"Crowd.sol\":2095:2118  newRequest.noOfVoters=0 */\n      dup2\n      swap1\n      sstore\n      pop\n        /* \"Crowd.sol\":1848:2126  {... */\n      pop\n        /* \"Crowd.sol\":1735:2126  function createRequest(string memory _discription,address payable _recipant,uint _value) public onlyManager... */\n      pop\n      pop\n      pop\n      jump\t// out\n        /* \"Crowd.sol\":104:146  mapping(address=>uint) public contributors */\n    tag_40:\n      mstore(0x20, 0x00)\n      dup1\n      0x00\n      mstore\n      keccak256(0x00, 0x40)\n      0x00\n      swap2\n      pop\n      swap1\n      pop\n      sload\n      dup2\n      jump\t// out\n        /* \"Crowd.sol\":242:262  uint public deadline */\n    tag_44:\n      sload(0x04)\n      dup2\n      jump\t// out\n        /* \"Crowd.sol\":153:175  address public manager */\n    tag_48:\n      0x01\n      0x00\n      swap1\n      sload\n      swap1\n      0x0100\n      exp\n      swap1\n      div\n      0xffffffffffffffffffffffffffffffffffffffff\n      and\n      dup2\n      jump\t// out\n        /* \"Crowd.sol\":2135:2450  function voteRequest(uint _request) public ... */\n    tag_55:\n        /* \"Crowd.sol\":2228:2229  0 */\n      0x00\n        /* \"Crowd.sol\":2203:2215  contributors */\n      dup1\n        /* \"Crowd.sol\":2203:2227  contributors[msg.sender] */\n      0x00\n        /* \"Crowd.sol\":2216:2226  msg.sender */\n      caller\n        /* \"Crowd.sol\":2203:2227  contributors[msg.sender] */\n      0xffffffffffffffffffffffffffffffffffffffff\n      and\n      0xffffffffffffffffffffffffffffffffffffffff\n      and\n      dup2\n      mstore\n      0x20\n      add\n      swap1\n      dup2\n      mstore\n      0x20\n      add\n      0x00\n      keccak256\n      sload\n        /* \"Crowd.sol\":2203:2229  contributors[msg.sender]<0 */\n      lt\n        /* \"Crowd.sol\":2195:2230  require(contributors[msg.sender]<0) */\n      tag_107\n      jumpi\n      0x00\n      dup1\n      revert\n    tag_107:\n        /* \"Crowd.sol\":2241:2268  Request storage thisRequest */\n      0x00\n        /* \"Crowd.sol\":2269:2276  request */\n      0x07\n        /* \"Crowd.sol\":2269:2286  request[_request] */\n      0x00\n        /* \"Crowd.sol\":2277:2285  _request */\n      dup4\n        /* \"Crowd.sol\":2269:2286  request[_request] */\n      dup2\n      mstore\n      0x20\n      add\n      swap1\n      dup2\n      mstore\n      0x20\n      add\n      0x00\n      keccak256\n        /* \"Crowd.sol\":2241:2286  Request storage thisRequest=request[_request] */\n      swap1\n      pop\n        /* \"Crowd.sol\":2335:2340  false */\n      0x00\n        /* \"Crowd.sol\":2305:2316  thisRequest */\n      dup2\n        /* \"Crowd.sol\":2305:2322  thisRequest.voter */\n      0x05\n      add\n        /* \"Crowd.sol\":2305:2334  thisRequest.voter[msg.sender] */\n      0x00\n        /* \"Crowd.sol\":2323:2333  msg.sender */\n      caller\n        /* \"Crowd.sol\":2305:2334  thisRequest.voter[msg.sender] */\n      0xffffffffffffffffffffffffffffffffffffffff\n      and\n      0xffffffffffffffffffffffffffffffffffffffff\n      and\n      dup2\n      mstore\n      0x20\n      add\n      swap1\n      dup2\n      mstore\n      0x20\n      add\n      0x00\n      keccak256\n      0x00\n        /* \"Crowd.sol\":2305:2340  thisRequest.voter[msg.sender]=false */\n      0x0100\n      exp\n      dup2\n      sload\n      dup2\n      0xff\n      mul\n      not\n      and\n      swap1\n      dup4\n      iszero\n      iszero\n      mul\n      or\n      swap1\n      sstore\n        /* \"Crowd.sol\":2297:2362  require(thisRequest.voter[msg.sender]=false,\"Actually you voted\") */\n      tag_108\n      jumpi\n      mload(0x40)\n      0x08c379a000000000000000000000000000000000000000000000000000000000\n      dup2\n      mstore\n      0x04\n      add\n      tag_109\n      swap1\n      tag_110\n      jump\t// in\n    tag_109:\n      mload(0x40)\n      dup1\n      swap2\n      sub\n      swap1\n      revert\n    tag_108:\n        /* \"Crowd.sol\":2403:2407  true */\n      0x01\n        /* \"Crowd.sol\":2373:2384  thisRequest */\n      dup2\n        /* \"Crowd.sol\":2373:2390  thisRequest.voter */\n      0x05\n      add\n        /* \"Crowd.sol\":2373:2402  thisRequest.voter[msg.sender] */\n      0x00\n        /* \"Crowd.sol\":2391:2401  msg.sender */\n      caller\n        /* \"Crowd.sol\":2373:2402  thisRequest.voter[msg.sender] */\n      0xffffffffffffffffffffffffffffffffffffffff\n      and\n      0xffffffffffffffffffffffffffffffffffffffff\n      and\n      dup2\n      mstore\n      0x20\n      add\n      swap1\n      dup2\n      mstore\n      0x20\n      add\n      0x00\n      keccak256\n      0x00\n        /* \"Crowd.sol\":2373:2407  thisRequest.voter[msg.sender]=true */\n      0x0100\n      exp\n      dup2\n      sload\n      dup2\n      0xff\n      mul\n      not\n      and\n      swap1\n      dup4\n      iszero\n      iszero\n      mul\n      or\n      swap1\n      sstore\n      pop\n        /* \"Crowd.sol\":2418:2429  thisRequest */\n      dup1\n        /* \"Crowd.sol\":2418:2440  thisRequest.noOfVoters */\n      0x04\n      add\n      0x00\n        /* \"Crowd.sol\":2418:2442  thisRequest.noOfVoters++ */\n      dup2\n      sload\n      dup1\n      swap3\n      swap2\n      swap1\n      tag_111\n      swap1\n      tag_93\n      jump\t// in\n    tag_111:\n      swap2\n      swap1\n      pop\n      sstore\n      pop\n        /* \"Crowd.sol\":2184:2450  {... */\n      pop\n        /* \"Crowd.sol\":2135:2450  function voteRequest(uint _request) public ... */\n      pop\n      jump\t// out\n        /* \"Crowd.sol\":1275:1606  function refund() public payable... */\n    tag_57:\n        /* \"Crowd.sol\":1345:1351  target */\n      sload(0x02)\n        /* \"Crowd.sol\":1332:1344  raisedAmount */\n      sload(0x06)\n        /* \"Crowd.sol\":1332:1351  raisedAmount<target */\n      lt\n        /* \"Crowd.sol\":1332:1379  raisedAmount<target && block.timestamp>deadline */\n      dup1\n      iszero\n      tag_113\n      jumpi\n      pop\n        /* \"Crowd.sol\":1371:1379  deadline */\n      sload(0x04)\n        /* \"Crowd.sol\":1355:1370  block.timestamp */\n      timestamp\n        /* \"Crowd.sol\":1355:1379  block.timestamp>deadline */\n      gt\n        /* \"Crowd.sol\":1332:1379  raisedAmount<target && block.timestamp>deadline */\n    tag_113:\n        /* \"Crowd.sol\":1324:1380  require(raisedAmount<target && block.timestamp>deadline) */\n      tag_114\n      jumpi\n      0x00\n      dup1\n      revert\n    tag_114:\n        /* \"Crowd.sol\":1424:1425  0 */\n      0x00\n        /* \"Crowd.sol\":1399:1411  contributors */\n      dup1\n        /* \"Crowd.sol\":1399:1423  contributors[msg.sender] */\n      0x00\n        /* \"Crowd.sol\":1412:1422  msg.sender */\n      caller\n        /* \"Crowd.sol\":1399:1423  contributors[msg.sender] */\n      0xffffffffffffffffffffffffffffffffffffffff\n      and\n      0xffffffffffffffffffffffffffffffffffffffff\n      and\n      dup2\n      mstore\n      0x20\n      add\n      swap1\n      dup2\n      mstore\n      0x20\n      add\n      0x00\n      keccak256\n      sload\n        /* \"Crowd.sol\":1399:1425  contributors[msg.sender]<0 */\n      lt\n        /* \"Crowd.sol\":1391:1460  require(contributors[msg.sender]<0,\"You were Not elgible in Funding\") */\n      tag_115\n      jumpi\n      mload(0x40)\n      0x08c379a000000000000000000000000000000000000000000000000000000000\n      dup2\n      mstore\n      0x04\n      add\n      tag_116\n      swap1\n      tag_117\n      jump\t// in\n    tag_116:\n      mload(0x40)\n      dup1\n      swap2\n      sub\n      swap1\n      revert\n    tag_115:\n        /* \"Crowd.sol\":1471:1491  address payable user */\n      0x00\n        /* \"Crowd.sol\":1500:1510  msg.sender */\n      caller\n        /* \"Crowd.sol\":1471:1511  address payable user=payable(msg.sender) */\n      swap1\n      pop\n        /* \"Crowd.sol\":1522:1526  user */\n      dup1\n        /* \"Crowd.sol\":1522:1535  user.transfer */\n      0xffffffffffffffffffffffffffffffffffffffff\n      and\n        /* \"Crowd.sol\":1522:1561  user.transfer(contributors[msg.sender]) */\n      0x08fc\n        /* \"Crowd.sol\":1536:1548  contributors */\n      0x00\n        /* \"Crowd.sol\":1536:1560  contributors[msg.sender] */\n      dup1\n        /* \"Crowd.sol\":1549:1559  msg.sender */\n      caller\n        /* \"Crowd.sol\":1536:1560  contributors[msg.sender] */\n      0xffffffffffffffffffffffffffffffffffffffff\n      and\n      0xffffffffffffffffffffffffffffffffffffffff\n      and\n      dup2\n      mstore\n      0x20\n      add\n      swap1\n      dup2\n      mstore\n      0x20\n      add\n      0x00\n      keccak256\n      sload\n        /* \"Crowd.sol\":1522:1561  user.transfer(contributors[msg.sender]) */\n      swap1\n      dup2\n      iszero\n      mul\n      swap1\n      mload(0x40)\n      0x00\n      mload(0x40)\n      dup1\n      dup4\n      sub\n      dup2\n      dup6\n      dup9\n      dup9\n      call\n      swap4\n      pop\n      pop\n      pop\n      pop\n      iszero\n      dup1\n      iszero\n      tag_119\n      jumpi\n      returndatasize\n      0x00\n      dup1\n      returndatacopy\n      revert(0x00, returndatasize)\n    tag_119:\n      pop\n        /* \"Crowd.sol\":1597:1598  0 */\n      0x00\n        /* \"Crowd.sol\":1572:1584  contributors */\n      dup1\n        /* \"Crowd.sol\":1572:1596  contributors[msg.sender] */\n      0x00\n        /* \"Crowd.sol\":1585:1595  msg.sender */\n      caller\n        /* \"Crowd.sol\":1572:1596  contributors[msg.sender] */\n      0xffffffffffffffffffffffffffffffffffffffff\n      and\n      0xffffffffffffffffffffffffffffffffffffffff\n      and\n      dup2\n      mstore\n      0x20\n      add\n      swap1\n      dup2\n      mstore\n      0x20\n      add\n      0x00\n      keccak256\n        /* \"Crowd.sol\":1572:1598  contributors[msg.sender]=0 */\n      dup2\n      swap1\n      sstore\n      pop\n        /* \"Crowd.sol\":1313:1606  {... */\n      pop\n        /* \"Crowd.sol\":1275:1606  function refund() public payable... */\n      jump\t// out\n        /* \"Crowd.sol\":269:296  uint public noOfContributor */\n    tag_60:\n      sload(0x05)\n      dup2\n      jump\t// out\n        /* \"Crowd.sol\":2458:2634  function requestAccept(uint _request) public onlyManager... */\n    tag_65:\n        /* \"Crowd.sol\":1668:1675  manager */\n      0x01\n      0x00\n      swap1\n      sload\n      swap1\n      0x0100\n      exp\n      swap1\n      div\n      0xffffffffffffffffffffffffffffffffffffffff\n      and\n        /* \"Crowd.sol\":1656:1675  msg.sender==manager */\n      0xffffffffffffffffffffffffffffffffffffffff\n      and\n        /* \"Crowd.sol\":1656:1666  msg.sender */\n      caller\n        /* \"Crowd.sol\":1656:1675  msg.sender==manager */\n      0xffffffffffffffffffffffffffffffffffffffff\n      and\n      eq\n        /* \"Crowd.sol\":1647:1707  require (msg.sender==manager,\"Only can Access the Function\") */\n      tag_121\n      jumpi\n      mload(0x40)\n      0x08c379a000000000000000000000000000000000000000000000000000000000\n      dup2\n      mstore\n      0x04\n      add\n      tag_122\n      swap1\n      tag_101\n      jump\t// in\n    tag_122:\n      mload(0x40)\n      dup1\n      swap2\n      sub\n      swap1\n      revert\n    tag_121:\n        /* \"Crowd.sol\":2553:2559  target */\n      sload(0x02)\n        /* \"Crowd.sol\":2539:2551  raisedAmount */\n      sload(0x06)\n        /* \"Crowd.sol\":2539:2559  raisedAmount<=target */\n      gt\n      iszero\n        /* \"Crowd.sol\":2531:2560  require(raisedAmount<=target) */\n      tag_124\n      jumpi\n      0x00\n      dup1\n      revert\n    tag_124:\n        /* \"Crowd.sol\":2571:2598  Request storage thisRequest */\n      0x00\n        /* \"Crowd.sol\":2599:2606  request */\n      0x07\n        /* \"Crowd.sol\":2599:2616  request[_request] */\n      0x00\n        /* \"Crowd.sol\":2607:2615  _request */\n      dup4\n        /* \"Crowd.sol\":2599:2616  request[_request] */\n      dup2\n      mstore\n      0x20\n      add\n      swap1\n      dup2\n      mstore\n      0x20\n      add\n      0x00\n      keccak256\n        /* \"Crowd.sol\":2571:2616  Request storage thisRequest=request[_request] */\n      swap1\n      pop\n        /* \"Crowd.sol\":2520:2634  {... */\n      pop\n        /* \"Crowd.sol\":2458:2634  function requestAccept(uint _request) public onlyManager... */\n      pop\n      jump\t// out\n        /* \"Crowd.sol\":581:603  uint public numRequest */\n    tag_68:\n      sload(0x08)\n      dup2\n      jump\t// out\n        /* \"Crowd.sol\":303:327  uint public raisedAmount */\n    tag_72:\n      sload(0x06)\n      dup2\n      jump\t// out\n        /* \"Crowd.sol\":182:200  uint public target */\n    tag_76:\n      sload(0x02)\n      dup2\n      jump\t// out\n        /* \"Crowd.sol\":537:574  mapping(uint=>Request) public request */\n    tag_81:\n      mstore(0x20, 0x07)\n      dup1\n      0x00\n      mstore\n      keccak256(0x00, 0x40)\n      0x00\n      swap2\n      pop\n      swap1\n      pop\n      dup1\n      0x00\n      add\n      dup1\n      sload\n      tag_125\n      swap1\n      tag_126\n      jump\t// in\n    tag_125:\n      dup1\n      0x1f\n      add\n      0x20\n      dup1\n      swap2\n      div\n      mul\n      0x20\n      add\n      mload(0x40)\n      swap1\n      dup2\n      add\n      0x40\n      mstore\n      dup1\n      swap3\n      swap2\n      swap1\n      dup2\n      dup2\n      mstore\n      0x20\n      add\n      dup3\n      dup1\n      sload\n      tag_127\n      swap1\n      tag_126\n      jump\t// in\n    tag_127:\n      dup1\n      iszero\n      tag_128\n      jumpi\n      dup1\n      0x1f\n      lt\n      tag_129\n      jumpi\n      0x0100\n      dup1\n      dup4\n      sload\n      div\n      mul\n      dup4\n      mstore\n      swap2\n      0x20\n      add\n      swap2\n      jump(tag_128)\n    tag_129:\n      dup3\n      add\n      swap2\n      swap1\n      0x00\n      mstore\n      keccak256(0x00, 0x20)\n      swap1\n    tag_130:\n      dup2\n      sload\n      dup2\n      mstore\n      swap1\n      0x01\n      add\n      swap1\n      0x20\n      add\n      dup1\n      dup4\n      gt\n      tag_130\n      jumpi\n      dup3\n      swap1\n      sub\n      0x1f\n      and\n      dup3\n      add\n      swap2\n    tag_128:\n      pop\n      pop\n      pop\n      pop\n      pop\n      swap1\n      dup1\n      0x01\n      add\n      0x00\n      swap1\n      sload\n      swap1\n      0x0100\n      exp\n      swap1\n      div\n      0xffffffffffffffffffffffffffffffffffffffff\n      and\n      swap1\n      dup1\n      0x02\n      add\n      sload\n      swap1\n      dup1\n      0x03\n      add\n      0x00\n      swap1\n      sload\n      swap1\n      0x0100\n      exp\n      swap1\n      div\n      0xff\n      and\n      swap1\n      dup1\n      0x04\n      add\n      sload\n      swap1\n      pop\n      dup6\n      jump\t// out\n        /* \"#utility.yul\":7:84   */\n    tag_131:\n        /* \"#utility.yul\":44:51   */\n      0x00\n        /* \"#utility.yul\":73:78   */\n      dup2\n        /* \"#utility.yul\":62:78   */\n      swap1\n      pop\n        /* \"#utility.yul\":7:84   */\n      swap2\n      swap1\n      pop\n      jump\t// out\n        /* \"#utility.yul\":90:208   */\n    tag_132:\n        /* \"#utility.yul\":177:201   */\n      tag_192\n        /* \"#utility.yul\":195:200   */\n      dup2\n        /* \"#utility.yul\":177:201   */\n      tag_131\n      jump\t// in\n    tag_192:\n        /* \"#utility.yul\":172:175   */\n      dup3\n        /* \"#utility.yul\":165:202   */\n      mstore\n        /* \"#utility.yul\":90:208   */\n      pop\n      pop\n      jump\t// out\n        /* \"#utility.yul\":214:436   */\n    tag_24:\n        /* \"#utility.yul\":307:311   */\n      0x00\n        /* \"#utility.yul\":345:347   */\n      0x20\n        /* \"#utility.yul\":334:343   */\n      dup3\n        /* \"#utility.yul\":330:348   */\n      add\n        /* \"#utility.yul\":322:348   */\n      swap1\n      pop\n        /* \"#utility.yul\":358:429   */\n      tag_194\n        /* \"#utility.yul\":426:427   */\n      0x00\n        /* \"#utility.yul\":415:424   */\n      dup4\n        /* \"#utility.yul\":411:428   */\n      add\n        /* \"#utility.yul\":402:408   */\n      dup5\n        /* \"#utility.yul\":358:429   */\n      tag_132\n      jump\t// in\n    tag_194:\n        /* \"#utility.yul\":214:436   */\n      swap3\n      swap2\n      pop\n      pop\n      jump\t// out\n        /* \"#utility.yul\":442:517   */\n    tag_133:\n        /* \"#utility.yul\":475:481   */\n      0x00\n        /* \"#utility.yul\":508:510   */\n      0x40\n        /* \"#utility.yul\":502:511   */\n      mload\n        /* \"#utility.yul\":492:511   */\n      swap1\n      pop\n        /* \"#utility.yul\":442:517   */\n      swap1\n      jump\t// out\n        /* \"#utility.yul\":523:640   */\n    tag_134:\n        /* \"#utility.yul\":632:633   */\n      0x00\n        /* \"#utility.yul\":629:630   */\n      dup1\n        /* \"#utility.yul\":622:634   */\n      revert\n        /* \"#utility.yul\":646:763   */\n    tag_135:\n        /* \"#utility.yul\":755:756   */\n      0x00\n        /* \"#utility.yul\":752:753   */\n      dup1\n        /* \"#utility.yul\":745:757   */\n      revert\n        /* \"#utility.yul\":769:886   */\n    tag_136:\n        /* \"#utility.yul\":878:879   */\n      0x00\n        /* \"#utility.yul\":875:876   */\n      dup1\n        /* \"#utility.yul\":868:880   */\n      revert\n        /* \"#utility.yul\":892:1009   */\n    tag_137:\n        /* \"#utility.yul\":1001:1002   */\n      0x00\n        /* \"#utility.yul\":998:999   */\n      dup1\n        /* \"#utility.yul\":991:1003   */\n      revert\n        /* \"#utility.yul\":1015:1117   */\n    tag_138:\n        /* \"#utility.yul\":1056:1062   */\n      0x00\n        /* \"#utility.yul\":1107:1109   */\n      0x1f\n        /* \"#utility.yul\":1103:1110   */\n      not\n        /* \"#utility.yul\":1098:1100   */\n      0x1f\n        /* \"#utility.yul\":1091:1096   */\n      dup4\n        /* \"#utility.yul\":1087:1101   */\n      add\n        /* \"#utility.yul\":1083:1111   */\n      and\n        /* \"#utility.yul\":1073:1111   */\n      swap1\n      pop\n        /* \"#utility.yul\":1015:1117   */\n      swap2\n      swap1\n      pop\n      jump\t// out\n        /* \"#utility.yul\":1123:1303   */\n    tag_139:\n        /* \"#utility.yul\":1171:1248   */\n      0x4e487b7100000000000000000000000000000000000000000000000000000000\n        /* \"#utility.yul\":1168:1169   */\n      0x00\n        /* \"#utility.yul\":1161:1249   */\n      mstore\n        /* \"#utility.yul\":1268:1272   */\n      0x41\n        /* \"#utility.yul\":1265:1266   */\n      0x04\n        /* \"#utility.yul\":1258:1273   */\n      mstore\n        /* \"#utility.yul\":1292:1296   */\n      0x24\n        /* \"#utility.yul\":1289:1290   */\n      0x00\n        /* \"#utility.yul\":1282:1297   */\n      revert\n        /* \"#utility.yul\":1309:1590   */\n    tag_140:\n        /* \"#utility.yul\":1392:1419   */\n      tag_203\n        /* \"#utility.yul\":1414:1418   */\n      dup3\n        /* \"#utility.yul\":1392:1419   */\n      tag_138\n      jump\t// in\n    tag_203:\n        /* \"#utility.yul\":1384:1390   */\n      dup2\n        /* \"#utility.yul\":1380:1420   */\n      add\n        /* \"#utility.yul\":1522:1528   */\n      dup2\n        /* \"#utility.yul\":1510:1520   */\n      dup2\n        /* \"#utility.yul\":1507:1529   */\n      lt\n        /* \"#utility.yul\":1486:1504   */\n      0xffffffffffffffff\n        /* \"#utility.yul\":1474:1484   */\n      dup3\n        /* \"#utility.yul\":1471:1505   */\n      gt\n        /* \"#utility.yul\":1468:1530   */\n      or\n        /* \"#utility.yul\":1465:1553   */\n      iszero\n      tag_204\n      jumpi\n        /* \"#utility.yul\":1533:1551   */\n      tag_205\n      tag_139\n      jump\t// in\n    tag_205:\n        /* \"#utility.yul\":1465:1553   */\n    tag_204:\n        /* \"#utility.yul\":1573:1583   */\n      dup1\n        /* \"#utility.yul\":1569:1571   */\n      0x40\n        /* \"#utility.yul\":1562:1584   */\n      mstore\n        /* \"#utility.yul\":1352:1590   */\n      pop\n        /* \"#utility.yul\":1309:1590   */\n      pop\n      pop\n      jump\t// out\n        /* \"#utility.yul\":1596:1725   */\n    tag_141:\n        /* \"#utility.yul\":1630:1636   */\n      0x00\n        /* \"#utility.yul\":1657:1677   */\n      tag_207\n      tag_133\n      jump\t// in\n    tag_207:\n        /* \"#utility.yul\":1647:1677   */\n      swap1\n      pop\n        /* \"#utility.yul\":1686:1719   */\n      tag_208\n        /* \"#utility.yul\":1714:1718   */\n      dup3\n        /* \"#utility.yul\":1706:1712   */\n      dup3\n        /* \"#utility.yul\":1686:1719   */\n      tag_140\n      jump\t// in\n    tag_208:\n        /* \"#utility.yul\":1596:1725   */\n      swap2\n      swap1\n      pop\n      jump\t// out\n        /* \"#utility.yul\":1731:2039   */\n    tag_142:\n        /* \"#utility.yul\":1793:1797   */\n      0x00\n        /* \"#utility.yul\":1883:1901   */\n      0xffffffffffffffff\n        /* \"#utility.yul\":1875:1881   */\n      dup3\n        /* \"#utility.yul\":1872:1902   */\n      gt\n        /* \"#utility.yul\":1869:1925   */\n      iszero\n      tag_210\n      jumpi\n        /* \"#utility.yul\":1905:1923   */\n      tag_211\n      tag_139\n      jump\t// in\n    tag_211:\n        /* \"#utility.yul\":1869:1925   */\n    tag_210:\n        /* \"#utility.yul\":1943:1972   */\n      tag_212\n        /* \"#utility.yul\":1965:1971   */\n      dup3\n        /* \"#utility.yul\":1943:1972   */\n      tag_138\n      jump\t// in\n    tag_212:\n        /* \"#utility.yul\":1935:1972   */\n      swap1\n      pop\n        /* \"#utility.yul\":2027:2031   */\n      0x20\n        /* \"#utility.yul\":2021:2025   */\n      dup2\n        /* \"#utility.yul\":2017:2032   */\n      add\n        /* \"#utility.yul\":2009:2032   */\n      swap1\n      pop\n        /* \"#utility.yul\":1731:2039   */\n      swap2\n      swap1\n      pop\n      jump\t// out\n        /* \"#utility.yul\":2045:2191   */\n    tag_143:\n        /* \"#utility.yul\":2142:2148   */\n      dup3\n        /* \"#utility.yul\":2137:2140   */\n      dup2\n        /* \"#utility.yul\":2132:2135   */\n      dup4\n        /* \"#utility.yul\":2119:2149   */\n      calldatacopy\n        /* \"#utility.yul\":2183:2184   */\n      0x00\n        /* \"#utility.yul\":2174:2180   */\n      dup4\n        /* \"#utility.yul\":2169:2172   */\n      dup4\n        /* \"#utility.yul\":2165:2181   */\n      add\n        /* \"#utility.yul\":2158:2185   */\n      mstore\n        /* \"#utility.yul\":2045:2191   */\n      pop\n      pop\n      pop\n      jump\t// out\n        /* \"#utility.yul\":2197:2622   */\n    tag_144:\n        /* \"#utility.yul\":2275:2280   */\n      0x00\n        /* \"#utility.yul\":2300:2366   */\n      tag_215\n        /* \"#utility.yul\":2316:2365   */\n      tag_216\n        /* \"#utility.yul\":2358:2364   */\n      dup5\n        /* \"#utility.yul\":2316:2365   */\n      tag_142\n      jump\t// in\n    tag_216:\n        /* \"#utility.yul\":2300:2366   */\n      tag_141\n      jump\t// in\n    tag_215:\n        /* \"#utility.yul\":2291:2366   */\n      swap1\n      pop\n        /* \"#utility.yul\":2389:2395   */\n      dup3\n        /* \"#utility.yul\":2382:2387   */\n      dup2\n        /* \"#utility.yul\":2375:2396   */\n      mstore\n        /* \"#utility.yul\":2427:2431   */\n      0x20\n        /* \"#utility.yul\":2420:2425   */\n      dup2\n        /* \"#utility.yul\":2416:2432   */\n      add\n        /* \"#utility.yul\":2465:2468   */\n      dup5\n        /* \"#utility.yul\":2456:2462   */\n      dup5\n        /* \"#utility.yul\":2451:2454   */\n      dup5\n        /* \"#utility.yul\":2447:2463   */\n      add\n        /* \"#utility.yul\":2444:2469   */\n      gt\n        /* \"#utility.yul\":2441:2553   */\n      iszero\n      tag_217\n      jumpi\n        /* \"#utility.yul\":2472:2551   */\n      tag_218\n      tag_137\n      jump\t// in\n    tag_218:\n        /* \"#utility.yul\":2441:2553   */\n    tag_217:\n        /* \"#utility.yul\":2562:2616   */\n      tag_219\n        /* \"#utility.yul\":2609:2615   */\n      dup5\n        /* \"#utility.yul\":2604:2607   */\n      dup3\n        /* \"#utility.yul\":2599:2602   */\n      dup6\n        /* \"#utility.yul\":2562:2616   */\n      tag_143\n      jump\t// in\n    tag_219:\n        /* \"#utility.yul\":2281:2622   */\n      pop\n        /* \"#utility.yul\":2197:2622   */\n      swap4\n      swap3\n      pop\n      pop\n      pop\n      jump\t// out\n        /* \"#utility.yul\":2642:2982   */\n    tag_145:\n        /* \"#utility.yul\":2698:2703   */\n      0x00\n        /* \"#utility.yul\":2747:2750   */\n      dup3\n        /* \"#utility.yul\":2740:2744   */\n      0x1f\n        /* \"#utility.yul\":2732:2738   */\n      dup4\n        /* \"#utility.yul\":2728:2745   */\n      add\n        /* \"#utility.yul\":2724:2751   */\n      slt\n        /* \"#utility.yul\":2714:2836   */\n      tag_221\n      jumpi\n        /* \"#utility.yul\":2755:2834   */\n      tag_222\n      tag_136\n      jump\t// in\n    tag_222:\n        /* \"#utility.yul\":2714:2836   */\n    tag_221:\n        /* \"#utility.yul\":2872:2878   */\n      dup2\n        /* \"#utility.yul\":2859:2879   */\n      calldataload\n        /* \"#utility.yul\":2897:2976   */\n      tag_223\n        /* \"#utility.yul\":2972:2975   */\n      dup5\n        /* \"#utility.yul\":2964:2970   */\n      dup3\n        /* \"#utility.yul\":2957:2961   */\n      0x20\n        /* \"#utility.yul\":2949:2955   */\n      dup7\n        /* \"#utility.yul\":2945:2962   */\n      add\n        /* \"#utility.yul\":2897:2976   */\n      tag_144\n      jump\t// in\n    tag_223:\n        /* \"#utility.yul\":2888:2976   */\n      swap2\n      pop\n        /* \"#utility.yul\":2704:2982   */\n      pop\n        /* \"#utility.yul\":2642:2982   */\n      swap3\n      swap2\n      pop\n      pop\n      jump\t// out\n        /* \"#utility.yul\":2988:3114   */\n    tag_146:\n        /* \"#utility.yul\":3025:3032   */\n      0x00\n        /* \"#utility.yul\":3065:3107   */\n      0xffffffffffffffffffffffffffffffffffffffff\n        /* \"#utility.yul\":3058:3063   */\n      dup3\n        /* \"#utility.yul\":3054:3108   */\n      and\n        /* \"#utility.yul\":3043:3108   */\n      swap1\n      pop\n        /* \"#utility.yul\":2988:3114   */\n      swap2\n      swap1\n      pop\n      jump\t// out\n        /* \"#utility.yul\":3120:3224   */\n    tag_147:\n        /* \"#utility.yul\":3165:3172   */\n      0x00\n        /* \"#utility.yul\":3194:3218   */\n      tag_226\n        /* \"#utility.yul\":3212:3217   */\n      dup3\n        /* \"#utility.yul\":3194:3218   */\n      tag_146\n      jump\t// in\n    tag_226:\n        /* \"#utility.yul\":3183:3218   */\n      swap1\n      pop\n        /* \"#utility.yul\":3120:3224   */\n      swap2\n      swap1\n      pop\n      jump\t// out\n        /* \"#utility.yul\":3230:3368   */\n    tag_148:\n        /* \"#utility.yul\":3311:3343   */\n      tag_228\n        /* \"#utility.yul\":3337:3342   */\n      dup2\n        /* \"#utility.yul\":3311:3343   */\n      tag_147\n      jump\t// in\n    tag_228:\n        /* \"#utility.yul\":3304:3309   */\n      dup2\n        /* \"#utility.yul\":3301:3344   */\n      eq\n        /* \"#utility.yul\":3291:3362   */\n      tag_229\n      jumpi\n        /* \"#utility.yul\":3358:3359   */\n      0x00\n        /* \"#utility.yul\":3355:3356   */\n      dup1\n        /* \"#utility.yul\":3348:3360   */\n      revert\n        /* \"#utility.yul\":3291:3362   */\n    tag_229:\n        /* \"#utility.yul\":3230:3368   */\n      pop\n      jump\t// out\n        /* \"#utility.yul\":3374:3529   */\n    tag_149:\n        /* \"#utility.yul\":3428:3433   */\n      0x00\n        /* \"#utility.yul\":3466:3472   */\n      dup2\n        /* \"#utility.yul\":3453:3473   */\n      calldataload\n        /* \"#utility.yul\":3444:3473   */\n      swap1\n      pop\n        /* \"#utility.yul\":3482:3523   */\n      tag_231\n        /* \"#utility.yul\":3517:3522   */\n      dup2\n        /* \"#utility.yul\":3482:3523   */\n      tag_148\n      jump\t// in\n    tag_231:\n        /* \"#utility.yul\":3374:3529   */\n      swap3\n      swap2\n      pop\n      pop\n      jump\t// out\n        /* \"#utility.yul\":3535:3657   */\n    tag_150:\n        /* \"#utility.yul\":3608:3632   */\n      tag_233\n        /* \"#utility.yul\":3626:3631   */\n      dup2\n        /* \"#utility.yul\":3608:3632   */\n      tag_131\n      jump\t// in\n    tag_233:\n        /* \"#utility.yul\":3601:3606   */\n      dup2\n        /* \"#utility.yul\":3598:3633   */\n      eq\n        /* \"#utility.yul\":3588:3651   */\n      tag_234\n      jumpi\n        /* \"#utility.yul\":3647:3648   */\n      0x00\n        /* \"#utility.yul\":3644:3645   */\n      dup1\n        /* \"#utility.yul\":3637:3649   */\n      revert\n        /* \"#utility.yul\":3588:3651   */\n    tag_234:\n        /* \"#utility.yul\":3535:3657   */\n      pop\n      jump\t// out\n        /* \"#utility.yul\":3663:3802   */\n    tag_151:\n        /* \"#utility.yul\":3709:3714   */\n      0x00\n        /* \"#utility.yul\":3747:3753   */\n      dup2\n        /* \"#utility.yul\":3734:3754   */\n      calldataload\n        /* \"#utility.yul\":3725:3754   */\n      swap1\n      pop\n        /* \"#utility.yul\":3763:3796   */\n      tag_236\n        /* \"#utility.yul\":3790:3795   */\n      dup2\n        /* \"#utility.yul\":3763:3796   */\n      tag_150\n      jump\t// in\n    tag_236:\n        /* \"#utility.yul\":3663:3802   */\n      swap3\n      swap2\n      pop\n      pop\n      jump\t// out\n        /* \"#utility.yul\":3808:4623   */\n    tag_34:\n        /* \"#utility.yul\":3903:3909   */\n      0x00\n        /* \"#utility.yul\":3911:3917   */\n      dup1\n        /* \"#utility.yul\":3919:3925   */\n      0x00\n        /* \"#utility.yul\":3968:3970   */\n      0x60\n        /* \"#utility.yul\":3956:3965   */\n      dup5\n        /* \"#utility.yul\":3947:3954   */\n      dup7\n        /* \"#utility.yul\":3943:3966   */\n      sub\n        /* \"#utility.yul\":3939:3971   */\n      slt\n        /* \"#utility.yul\":3936:4055   */\n      iszero\n      tag_238\n      jumpi\n        /* \"#utility.yul\":3974:4053   */\n      tag_239\n      tag_134\n      jump\t// in\n    tag_239:\n        /* \"#utility.yul\":3936:4055   */\n    tag_238:\n        /* \"#utility.yul\":4122:4123   */\n      0x00\n        /* \"#utility.yul\":4111:4120   */\n      dup5\n        /* \"#utility.yul\":4107:4124   */\n      add\n        /* \"#utility.yul\":4094:4125   */\n      calldataload\n        /* \"#utility.yul\":4152:4170   */\n      0xffffffffffffffff\n        /* \"#utility.yul\":4144:4150   */\n      dup2\n        /* \"#utility.yul\":4141:4171   */\n      gt\n        /* \"#utility.yul\":4138:4255   */\n      iszero\n      tag_240\n      jumpi\n        /* \"#utility.yul\":4174:4253   */\n      tag_241\n      tag_135\n      jump\t// in\n    tag_241:\n        /* \"#utility.yul\":4138:4255   */\n    tag_240:\n        /* \"#utility.yul\":4279:4342   */\n      tag_242\n        /* \"#utility.yul\":4334:4341   */\n      dup7\n        /* \"#utility.yul\":4325:4331   */\n      dup3\n        /* \"#utility.yul\":4314:4323   */\n      dup8\n        /* \"#utility.yul\":4310:4332   */\n      add\n        /* \"#utility.yul\":4279:4342   */\n      tag_145\n      jump\t// in\n    tag_242:\n        /* \"#utility.yul\":4269:4342   */\n      swap4\n      pop\n        /* \"#utility.yul\":4065:4352   */\n      pop\n        /* \"#utility.yul\":4391:4393   */\n      0x20\n        /* \"#utility.yul\":4417:4478   */\n      tag_243\n        /* \"#utility.yul\":4470:4477   */\n      dup7\n        /* \"#utility.yul\":4461:4467   */\n      dup3\n        /* \"#utility.yul\":4450:4459   */\n      dup8\n        /* \"#utility.yul\":4446:4468   */\n      add\n        /* \"#utility.yul\":4417:4478   */\n      tag_149\n      jump\t// in\n    tag_243:\n        /* \"#utility.yul\":4407:4478   */\n      swap3\n      pop\n        /* \"#utility.yul\":4362:4488   */\n      pop\n        /* \"#utility.yul\":4527:4529   */\n      0x40\n        /* \"#utility.yul\":4553:4606   */\n      tag_244\n        /* \"#utility.yul\":4598:4605   */\n      dup7\n        /* \"#utility.yul\":4589:4595   */\n      dup3\n        /* \"#utility.yul\":4578:4587   */\n      dup8\n        /* \"#utility.yul\":4574:4596   */\n      add\n        /* \"#utility.yul\":4553:4606   */\n      tag_151\n      jump\t// in\n    tag_244:\n        /* \"#utility.yul\":4543:4606   */\n      swap2\n      pop\n        /* \"#utility.yul\":4498:4616   */\n      pop\n        /* \"#utility.yul\":3808:4623   */\n      swap3\n      pop\n      swap3\n      pop\n      swap3\n      jump\t// out\n        /* \"#utility.yul\":4629:4725   */\n    tag_152:\n        /* \"#utility.yul\":4666:4673   */\n      0x00\n        /* \"#utility.yul\":4695:4719   */\n      tag_246\n        /* \"#utility.yul\":4713:4718   */\n      dup3\n        /* \"#utility.yul\":4695:4719   */\n      tag_146\n      jump\t// in\n    tag_246:\n        /* \"#utility.yul\":4684:4719   */\n      swap1\n      pop\n        /* \"#utility.yul\":4629:4725   */\n      swap2\n      swap1\n      pop\n      jump\t// out\n        /* \"#utility.yul\":4731:4853   */\n    tag_153:\n        /* \"#utility.yul\":4804:4828   */\n      tag_248\n        /* \"#utility.yul\":4822:4827   */\n      dup2\n        /* \"#utility.yul\":4804:4828   */\n      tag_152\n      jump\t// in\n    tag_248:\n        /* \"#utility.yul\":4797:4802   */\n      dup2\n        /* \"#utility.yul\":4794:4829   */\n      eq\n        /* \"#utility.yul\":4784:4847   */\n      tag_249\n      jumpi\n        /* \"#utility.yul\":4843:4844   */\n      0x00\n        /* \"#utility.yul\":4840:4841   */\n      dup1\n        /* \"#utility.yul\":4833:4845   */\n      revert\n        /* \"#utility.yul\":4784:4847   */\n    tag_249:\n        /* \"#utility.yul\":4731:4853   */\n      pop\n      jump\t// out\n        /* \"#utility.yul\":4859:4998   */\n    tag_154:\n        /* \"#utility.yul\":4905:4910   */\n      0x00\n        /* \"#utility.yul\":4943:4949   */\n      dup2\n        /* \"#utility.yul\":4930:4950   */\n      calldataload\n        /* \"#utility.yul\":4921:4950   */\n      swap1\n      pop\n        /* \"#utility.yul\":4959:4992   */\n      tag_251\n        /* \"#utility.yul\":4986:4991   */\n      dup2\n        /* \"#utility.yul\":4959:4992   */\n      tag_153\n      jump\t// in\n    tag_251:\n        /* \"#utility.yul\":4859:4998   */\n      swap3\n      swap2\n      pop\n      pop\n      jump\t// out\n        /* \"#utility.yul\":5004:5333   */\n    tag_39:\n        /* \"#utility.yul\":5063:5069   */\n      0x00\n        /* \"#utility.yul\":5112:5114   */\n      0x20\n        /* \"#utility.yul\":5100:5109   */\n      dup3\n        /* \"#utility.yul\":5091:5098   */\n      dup5\n        /* \"#utility.yul\":5087:5110   */\n      sub\n        /* \"#utility.yul\":5083:5115   */\n      slt\n        /* \"#utility.yul\":5080:5199   */\n      iszero\n      tag_253\n      jumpi\n        /* \"#utility.yul\":5118:5197   */\n      tag_254\n      tag_134\n      jump\t// in\n    tag_254:\n        /* \"#utility.yul\":5080:5199   */\n    tag_253:\n        /* \"#utility.yul\":5238:5239   */\n      0x00\n        /* \"#utility.yul\":5263:5316   */\n      tag_255\n        /* \"#utility.yul\":5308:5315   */\n      dup5\n        /* \"#utility.yul\":5299:5305   */\n      dup3\n        /* \"#utility.yul\":5288:5297   */\n      dup6\n        /* \"#utility.yul\":5284:5306   */\n      add\n        /* \"#utility.yul\":5263:5316   */\n      tag_154\n      jump\t// in\n    tag_255:\n        /* \"#utility.yul\":5253:5316   */\n      swap2\n      pop\n        /* \"#utility.yul\":5209:5326   */\n      pop\n        /* \"#utility.yul\":5004:5333   */\n      swap3\n      swap2\n      pop\n      pop\n      jump\t// out\n        /* \"#utility.yul\":5339:5457   */\n    tag_155:\n        /* \"#utility.yul\":5426:5450   */\n      tag_257\n        /* \"#utility.yul\":5444:5449   */\n      dup2\n        /* \"#utility.yul\":5426:5450   */\n      tag_152\n      jump\t// in\n    tag_257:\n        /* \"#utility.yul\":5421:5424   */\n      dup3\n        /* \"#utility.yul\":5414:5451   */\n      mstore\n        /* \"#utility.yul\":5339:5457   */\n      pop\n      pop\n      jump\t// out\n        /* \"#utility.yul\":5463:5685   */\n    tag_50:\n        /* \"#utility.yul\":5556:5560   */\n      0x00\n        /* \"#utility.yul\":5594:5596   */\n      0x20\n        /* \"#utility.yul\":5583:5592   */\n      dup3\n        /* \"#utility.yul\":5579:5597   */\n      add\n        /* \"#utility.yul\":5571:5597   */\n      swap1\n      pop\n        /* \"#utility.yul\":5607:5678   */\n      tag_259\n        /* \"#utility.yul\":5675:5676   */\n      0x00\n        /* \"#utility.yul\":5664:5673   */\n      dup4\n        /* \"#utility.yul\":5660:5677   */\n      add\n        /* \"#utility.yul\":5651:5657   */\n      dup5\n        /* \"#utility.yul\":5607:5678   */\n      tag_155\n      jump\t// in\n    tag_259:\n        /* \"#utility.yul\":5463:5685   */\n      swap3\n      swap2\n      pop\n      pop\n      jump\t// out\n        /* \"#utility.yul\":5691:6020   */\n    tag_54:\n        /* \"#utility.yul\":5750:5756   */\n      0x00\n        /* \"#utility.yul\":5799:5801   */\n      0x20\n        /* \"#utility.yul\":5787:5796   */\n      dup3\n        /* \"#utility.yul\":5778:5785   */\n      dup5\n        /* \"#utility.yul\":5774:5797   */\n      sub\n        /* \"#utility.yul\":5770:5802   */\n      slt\n        /* \"#utility.yul\":5767:5886   */\n      iszero\n      tag_261\n      jumpi\n        /* \"#utility.yul\":5805:5884   */\n      tag_262\n      tag_134\n      jump\t// in\n    tag_262:\n        /* \"#utility.yul\":5767:5886   */\n    tag_261:\n        /* \"#utility.yul\":5925:5926   */\n      0x00\n        /* \"#utility.yul\":5950:6003   */\n      tag_263\n        /* \"#utility.yul\":5995:6002   */\n      dup5\n        /* \"#utility.yul\":5986:5992   */\n      dup3\n        /* \"#utility.yul\":5975:5984   */\n      dup6\n        /* \"#utility.yul\":5971:5993   */\n      add\n        /* \"#utility.yul\":5950:6003   */\n      tag_151\n      jump\t// in\n    tag_263:\n        /* \"#utility.yul\":5940:6003   */\n      swap2\n      pop\n        /* \"#utility.yul\":5896:6013   */\n      pop\n        /* \"#utility.yul\":5691:6020   */\n      swap3\n      swap2\n      pop\n      pop\n      jump\t// out\n        /* \"#utility.yul\":6026:6125   */\n    tag_156:\n        /* \"#utility.yul\":6078:6084   */\n      0x00\n        /* \"#utility.yul\":6112:6117   */\n      dup2\n        /* \"#utility.yul\":6106:6118   */\n      mload\n        /* \"#utility.yul\":6096:6118   */\n      swap1\n      pop\n        /* \"#utility.yul\":6026:6125   */\n      swap2\n      swap1\n      pop\n      jump\t// out\n        /* \"#utility.yul\":6131:6300   */\n    tag_157:\n        /* \"#utility.yul\":6215:6226   */\n      0x00\n        /* \"#utility.yul\":6249:6255   */\n      dup3\n        /* \"#utility.yul\":6244:6247   */\n      dup3\n        /* \"#utility.yul\":6237:6256   */\n      mstore\n        /* \"#utility.yul\":6289:6293   */\n      0x20\n        /* \"#utility.yul\":6284:6287   */\n      dup3\n        /* \"#utility.yul\":6280:6294   */\n      add\n        /* \"#utility.yul\":6265:6294   */\n      swap1\n      pop\n        /* \"#utility.yul\":6131:6300   */\n      swap3\n      swap2\n      pop\n      pop\n      jump\t// out\n        /* \"#utility.yul\":6306:6552   */\n    tag_158:\n        /* \"#utility.yul\":6387:6388   */\n      0x00\n        /* \"#utility.yul\":6397:6510   */\n    tag_267:\n        /* \"#utility.yul\":6411:6417   */\n      dup4\n        /* \"#utility.yul\":6408:6409   */\n      dup2\n        /* \"#utility.yul\":6405:6418   */\n      lt\n        /* \"#utility.yul\":6397:6510   */\n      iszero\n      tag_269\n      jumpi\n        /* \"#utility.yul\":6496:6497   */\n      dup1\n        /* \"#utility.yul\":6491:6494   */\n      dup3\n        /* \"#utility.yul\":6487:6498   */\n      add\n        /* \"#utility.yul\":6481:6499   */\n      mload\n        /* \"#utility.yul\":6477:6478   */\n      dup2\n        /* \"#utility.yul\":6472:6475   */\n      dup5\n        /* \"#utility.yul\":6468:6479   */\n      add\n        /* \"#utility.yul\":6461:6500   */\n      mstore\n        /* \"#utility.yul\":6433:6435   */\n      0x20\n        /* \"#utility.yul\":6430:6431   */\n      dup2\n        /* \"#utility.yul\":6426:6436   */\n      add\n        /* \"#utility.yul\":6421:6436   */\n      swap1\n      pop\n        /* \"#utility.yul\":6397:6510   */\n      jump(tag_267)\n    tag_269:\n        /* \"#utility.yul\":6544:6545   */\n      0x00\n        /* \"#utility.yul\":6535:6541   */\n      dup5\n        /* \"#utility.yul\":6530:6533   */\n      dup5\n        /* \"#utility.yul\":6526:6542   */\n      add\n        /* \"#utility.yul\":6519:6546   */\n      mstore\n        /* \"#utility.yul\":6368:6552   */\n      pop\n        /* \"#utility.yul\":6306:6552   */\n      pop\n      pop\n      pop\n      jump\t// out\n        /* \"#utility.yul\":6558:6935   */\n    tag_159:\n        /* \"#utility.yul\":6646:6649   */\n      0x00\n        /* \"#utility.yul\":6674:6713   */\n      tag_271\n        /* \"#utility.yul\":6707:6712   */\n      dup3\n        /* \"#utility.yul\":6674:6713   */\n      tag_156\n      jump\t// in\n    tag_271:\n        /* \"#utility.yul\":6729:6800   */\n      tag_272\n        /* \"#utility.yul\":6793:6799   */\n      dup2\n        /* \"#utility.yul\":6788:6791   */\n      dup6\n        /* \"#utility.yul\":6729:6800   */\n      tag_157\n      jump\t// in\n    tag_272:\n        /* \"#utility.yul\":6722:6800   */\n      swap4\n      pop\n        /* \"#utility.yul\":6809:6874   */\n      tag_273\n        /* \"#utility.yul\":6867:6873   */\n      dup2\n        /* \"#utility.yul\":6862:6865   */\n      dup6\n        /* \"#utility.yul\":6855:6859   */\n      0x20\n        /* \"#utility.yul\":6848:6853   */\n      dup7\n        /* \"#utility.yul\":6844:6860   */\n      add\n        /* \"#utility.yul\":6809:6874   */\n      tag_158\n      jump\t// in\n    tag_273:\n        /* \"#utility.yul\":6899:6928   */\n      tag_274\n        /* \"#utility.yul\":6921:6927   */\n      dup2\n        /* \"#utility.yul\":6899:6928   */\n      tag_138\n      jump\t// in\n    tag_274:\n        /* \"#utility.yul\":6894:6897   */\n      dup5\n        /* \"#utility.yul\":6890:6929   */\n      add\n        /* \"#utility.yul\":6883:6929   */\n      swap2\n      pop\n        /* \"#utility.yul\":6650:6935   */\n      pop\n        /* \"#utility.yul\":6558:6935   */\n      swap3\n      swap2\n      pop\n      pop\n      jump\t// out\n        /* \"#utility.yul\":6941:7031   */\n    tag_160:\n        /* \"#utility.yul\":6975:6982   */\n      0x00\n        /* \"#utility.yul\":7018:7023   */\n      dup2\n        /* \"#utility.yul\":7011:7024   */\n      iszero\n        /* \"#utility.yul\":7004:7025   */\n      iszero\n        /* \"#utility.yul\":6993:7025   */\n      swap1\n      pop\n        /* \"#utility.yul\":6941:7031   */\n      swap2\n      swap1\n      pop\n      jump\t// out\n        /* \"#utility.yul\":7037:7146   */\n    tag_161:\n        /* \"#utility.yul\":7118:7139   */\n      tag_277\n        /* \"#utility.yul\":7133:7138   */\n      dup2\n        /* \"#utility.yul\":7118:7139   */\n      tag_160\n      jump\t// in\n    tag_277:\n        /* \"#utility.yul\":7113:7116   */\n      dup3\n        /* \"#utility.yul\":7106:7140   */\n      mstore\n        /* \"#utility.yul\":7037:7146   */\n      pop\n      pop\n      jump\t// out\n        /* \"#utility.yul\":7152:7895   */\n    tag_83:\n        /* \"#utility.yul\":7371:7375   */\n      0x00\n        /* \"#utility.yul\":7409:7412   */\n      0xa0\n        /* \"#utility.yul\":7398:7407   */\n      dup3\n        /* \"#utility.yul\":7394:7413   */\n      add\n        /* \"#utility.yul\":7386:7413   */\n      swap1\n      pop\n        /* \"#utility.yul\":7459:7468   */\n      dup2\n        /* \"#utility.yul\":7453:7457   */\n      dup2\n        /* \"#utility.yul\":7449:7469   */\n      sub\n        /* \"#utility.yul\":7445:7446   */\n      0x00\n        /* \"#utility.yul\":7434:7443   */\n      dup4\n        /* \"#utility.yul\":7430:7447   */\n      add\n        /* \"#utility.yul\":7423:7470   */\n      mstore\n        /* \"#utility.yul\":7487:7565   */\n      tag_279\n        /* \"#utility.yul\":7560:7564   */\n      dup2\n        /* \"#utility.yul\":7551:7557   */\n      dup9\n        /* \"#utility.yul\":7487:7565   */\n      tag_159\n      jump\t// in\n    tag_279:\n        /* \"#utility.yul\":7479:7565   */\n      swap1\n      pop\n        /* \"#utility.yul\":7575:7647   */\n      tag_280\n        /* \"#utility.yul\":7643:7645   */\n      0x20\n        /* \"#utility.yul\":7632:7641   */\n      dup4\n        /* \"#utility.yul\":7628:7646   */\n      add\n        /* \"#utility.yul\":7619:7625   */\n      dup8\n        /* \"#utility.yul\":7575:7647   */\n      tag_155\n      jump\t// in\n    tag_280:\n        /* \"#utility.yul\":7657:7729   */\n      tag_281\n        /* \"#utility.yul\":7725:7727   */\n      0x40\n        /* \"#utility.yul\":7714:7723   */\n      dup4\n        /* \"#utility.yul\":7710:7728   */\n      add\n        /* \"#utility.yul\":7701:7707   */\n      dup7\n        /* \"#utility.yul\":7657:7729   */\n      tag_132\n      jump\t// in\n    tag_281:\n        /* \"#utility.yul\":7739:7805   */\n      tag_282\n        /* \"#utility.yul\":7801:7803   */\n      0x60\n        /* \"#utility.yul\":7790:7799   */\n      dup4\n        /* \"#utility.yul\":7786:7804   */\n      add\n        /* \"#utility.yul\":7777:7783   */\n      dup6\n        /* \"#utility.yul\":7739:7805   */\n      tag_161\n      jump\t// in\n    tag_282:\n        /* \"#utility.yul\":7815:7888   */\n      tag_283\n        /* \"#utility.yul\":7883:7886   */\n      0x80\n        /* \"#utility.yul\":7872:7881   */\n      dup4\n        /* \"#utility.yul\":7868:7887   */\n      add\n        /* \"#utility.yul\":7859:7865   */\n      dup5\n        /* \"#utility.yul\":7815:7888   */\n      tag_132\n      jump\t// in\n    tag_283:\n        /* \"#utility.yul\":7152:7895   */\n      swap7\n      swap6\n      pop\n      pop\n      pop\n      pop\n      pop\n      pop\n      jump\t// out\n        /* \"#utility.yul\":7901:8071   */\n    tag_162:\n        /* \"#utility.yul\":8041:8063   */\n      0x4465616c696e652077657265206d697373696e67000000000000000000000000\n        /* \"#utility.yul\":8037:8038   */\n      0x00\n        /* \"#utility.yul\":8029:8035   */\n      dup3\n        /* \"#utility.yul\":8025:8039   */\n      add\n        /* \"#utility.yul\":8018:8064   */\n      mstore\n        /* \"#utility.yul\":7901:8071   */\n      pop\n      jump\t// out\n        /* \"#utility.yul\":8077:8443   */\n    tag_163:\n        /* \"#utility.yul\":8219:8222   */\n      0x00\n        /* \"#utility.yul\":8240:8307   */\n      tag_286\n        /* \"#utility.yul\":8304:8306   */\n      0x14\n        /* \"#utility.yul\":8299:8302   */\n      dup4\n        /* \"#utility.yul\":8240:8307   */\n      tag_157\n      jump\t// in\n    tag_286:\n        /* \"#utility.yul\":8233:8307   */\n      swap2\n      pop\n        /* \"#utility.yul\":8316:8409   */\n      tag_287\n        /* \"#utility.yul\":8405:8408   */\n      dup3\n        /* \"#utility.yul\":8316:8409   */\n      tag_162\n      jump\t// in\n    tag_287:\n        /* \"#utility.yul\":8434:8436   */\n      0x20\n        /* \"#utility.yul\":8429:8432   */\n      dup3\n        /* \"#utility.yul\":8425:8437   */\n      add\n        /* \"#utility.yul\":8418:8437   */\n      swap1\n      pop\n        /* \"#utility.yul\":8077:8443   */\n      swap2\n      swap1\n      pop\n      jump\t// out\n        /* \"#utility.yul\":8449:8868   */\n    tag_87:\n        /* \"#utility.yul\":8615:8619   */\n      0x00\n        /* \"#utility.yul\":8653:8655   */\n      0x20\n        /* \"#utility.yul\":8642:8651   */\n      dup3\n        /* \"#utility.yul\":8638:8656   */\n      add\n        /* \"#utility.yul\":8630:8656   */\n      swap1\n      pop\n        /* \"#utility.yul\":8702:8711   */\n      dup2\n        /* \"#utility.yul\":8696:8700   */\n      dup2\n        /* \"#utility.yul\":8692:8712   */\n      sub\n        /* \"#utility.yul\":8688:8689   */\n      0x00\n        /* \"#utility.yul\":8677:8686   */\n      dup4\n        /* \"#utility.yul\":8673:8690   */\n      add\n        /* \"#utility.yul\":8666:8713   */\n      mstore\n        /* \"#utility.yul\":8730:8861   */\n      tag_289\n        /* \"#utility.yul\":8856:8860   */\n      dup2\n        /* \"#utility.yul\":8730:8861   */\n      tag_163\n      jump\t// in\n    tag_289:\n        /* \"#utility.yul\":8722:8861   */\n      swap1\n      pop\n        /* \"#utility.yul\":8449:8868   */\n      swap2\n      swap1\n      pop\n      jump\t// out\n        /* \"#utility.yul\":8874:9048   */\n    tag_164:\n        /* \"#utility.yul\":9014:9040   */\n      0x596f752077657265206e6f7420626520656c696769626c650000000000000000\n        /* \"#utility.yul\":9010:9011   */\n      0x00\n        /* \"#utility.yul\":9002:9008   */\n      dup3\n        /* \"#utility.yul\":8998:9012   */\n      add\n        /* \"#utility.yul\":8991:9041   */\n      mstore\n        /* \"#utility.yul\":8874:9048   */\n      pop\n      jump\t// out\n        /* \"#utility.yul\":9054:9420   */\n    tag_165:\n        /* \"#utility.yul\":9196:9199   */\n      0x00\n        /* \"#utility.yul\":9217:9284   */\n      tag_292\n        /* \"#utility.yul\":9281:9283   */\n      0x18\n        /* \"#utility.yul\":9276:9279   */\n      dup4\n        /* \"#utility.yul\":9217:9284   */\n      tag_157\n      jump\t// in\n    tag_292:\n        /* \"#utility.yul\":9210:9284   */\n      swap2\n      pop\n        /* \"#utility.yul\":9293:9386   */\n      tag_293\n        /* \"#utility.yul\":9382:9385   */\n      dup3\n        /* \"#utility.yul\":9293:9386   */\n      tag_164\n      jump\t// in\n    tag_293:\n        /* \"#utility.yul\":9411:9413   */\n      0x20\n        /* \"#utility.yul\":9406:9409   */\n      dup3\n        /* \"#utility.yul\":9402:9414   */\n      add\n        /* \"#utility.yul\":9395:9414   */\n      swap1\n      pop\n        /* \"#utility.yul\":9054:9420   */\n      swap2\n      swap1\n      pop\n      jump\t// out\n        /* \"#utility.yul\":9426:9845   */\n    tag_90:\n        /* \"#utility.yul\":9592:9596   */\n      0x00\n        /* \"#utility.yul\":9630:9632   */\n      0x20\n        /* \"#utility.yul\":9619:9628   */\n      dup3\n        /* \"#utility.yul\":9615:9633   */\n      add\n        /* \"#utility.yul\":9607:9633   */\n      swap1\n      pop\n        /* \"#utility.yul\":9679:9688   */\n      dup2\n        /* \"#utility.yul\":9673:9677   */\n      dup2\n        /* \"#utility.yul\":9669:9689   */\n      sub\n        /* \"#utility.yul\":9665:9666   */\n      0x00\n        /* \"#utility.yul\":9654:9663   */\n      dup4\n        /* \"#utility.yul\":9650:9667   */\n      add\n        /* \"#utility.yul\":9643:9690   */\n      mstore\n        /* \"#utility.yul\":9707:9838   */\n      tag_295\n        /* \"#utility.yul\":9833:9837   */\n      dup2\n        /* \"#utility.yul\":9707:9838   */\n      tag_165\n      jump\t// in\n    tag_295:\n        /* \"#utility.yul\":9699:9838   */\n      swap1\n      pop\n        /* \"#utility.yul\":9426:9845   */\n      swap2\n      swap1\n      pop\n      jump\t// out\n        /* \"#utility.yul\":9851:10031   */\n    tag_166:\n        /* \"#utility.yul\":9899:9976   */\n      0x4e487b7100000000000000000000000000000000000000000000000000000000\n        /* \"#utility.yul\":9896:9897   */\n      0x00\n        /* \"#utility.yul\":9889:9977   */\n      mstore\n        /* \"#utility.yul\":9996:10000   */\n      0x11\n        /* \"#utility.yul\":9993:9994   */\n      0x04\n        /* \"#utility.yul\":9986:10001   */\n      mstore\n        /* \"#utility.yul\":10020:10024   */\n      0x24\n        /* \"#utility.yul\":10017:10018   */\n      0x00\n        /* \"#utility.yul\":10010:10025   */\n      revert\n        /* \"#utility.yul\":10037:10270   */\n    tag_93:\n        /* \"#utility.yul\":10076:10079   */\n      0x00\n        /* \"#utility.yul\":10099:10123   */\n      tag_298\n        /* \"#utility.yul\":10117:10122   */\n      dup3\n        /* \"#utility.yul\":10099:10123   */\n      tag_131\n      jump\t// in\n    tag_298:\n        /* \"#utility.yul\":10090:10123   */\n      swap2\n      pop\n        /* \"#utility.yul\":10145:10211   */\n      0xffffffffffffffffffffffffffffffffffffffffffffffffffffffffffffffff\n        /* \"#utility.yul\":10138:10143   */\n      dup3\n        /* \"#utility.yul\":10135:10212   */\n      sub\n        /* \"#utility.yul\":10132:10235   */\n      tag_299\n      jumpi\n        /* \"#utility.yul\":10215:10233   */\n      tag_300\n      tag_166\n      jump\t// in\n    tag_300:\n        /* \"#utility.yul\":10132:10235   */\n    tag_299:\n        /* \"#utility.yul\":10262:10263   */\n      0x01\n        /* \"#utility.yul\":10255:10260   */\n      dup3\n        /* \"#utility.yul\":10251:10264   */\n      add\n        /* \"#utility.yul\":10244:10264   */\n      swap1\n      pop\n        /* \"#utility.yul\":10037:10270   */\n      swap2\n      swap1\n      pop\n      jump\t// out\n        /* \"#utility.yul\":10276:10467   */\n    tag_95:\n        /* \"#utility.yul\":10316:10319   */\n      0x00\n        /* \"#utility.yul\":10335:10355   */\n      tag_302\n        /* \"#utility.yul\":10353:10354   */\n      dup3\n        /* \"#utility.yul\":10335:10355   */\n      tag_131\n      jump\t// in\n    tag_302:\n        /* \"#utility.yul\":10330:10355   */\n      swap2\n      pop\n        /* \"#utility.yul\":10369:10389   */\n      tag_303\n        /* \"#utility.yul\":10387:10388   */\n      dup4\n        /* \"#utility.yul\":10369:10389   */\n      tag_131\n      jump\t// in\n    tag_303:\n        /* \"#utility.yul\":10364:10389   */\n      swap3\n      pop\n        /* \"#utility.yul\":10412:10413   */\n      dup3\n        /* \"#utility.yul\":10409:10410   */\n      dup3\n        /* \"#utility.yul\":10405:10414   */\n      add\n        /* \"#utility.yul\":10398:10414   */\n      swap1\n      pop\n        /* \"#utility.yul\":10433:10436   */\n      dup1\n        /* \"#utility.yul\":10430:10431   */\n      dup3\n        /* \"#utility.yul\":10427:10437   */\n      gt\n        /* \"#utility.yul\":10424:10460   */\n      iszero\n      tag_304\n      jumpi\n        /* \"#utility.yul\":10440:10458   */\n      tag_305\n      tag_166\n      jump\t// in\n    tag_305:\n        /* \"#utility.yul\":10424:10460   */\n    tag_304:\n        /* \"#utility.yul\":10276:10467   */\n      swap3\n      swap2\n      pop\n      pop\n      jump\t// out\n        /* \"#utility.yul\":10473:10651   */\n    tag_167:\n        /* \"#utility.yul\":10613:10643   */\n      0x4f6e6c792063616e20416363657373207468652046756e6374696f6e00000000\n        /* \"#utility.yul\":10609:10610   */\n      0x00\n        /* \"#utility.yul\":10601:10607   */\n      dup3\n        /* \"#utility.yul\":10597:10611   */\n      add\n        /* \"#utility.yul\":10590:10644   */\n      mstore\n        /* \"#utility.yul\":10473:10651   */\n      pop\n      jump\t// out\n        /* \"#utility.yul\":10657:11023   */\n    tag_168:\n        /* \"#utility.yul\":10799:10802   */\n      0x00\n        /* \"#utility.yul\":10820:10887   */\n      tag_308\n        /* \"#utility.yul\":10884:10886   */\n      0x1c\n        /* \"#utility.yul\":10879:10882   */\n      dup4\n        /* \"#utility.yul\":10820:10887   */\n      tag_157\n      jump\t// in\n    tag_308:\n        /* \"#utility.yul\":10813:10887   */\n      swap2\n      pop\n        /* \"#utility.yul\":10896:10989   */\n      tag_309\n        /* \"#utility.yul\":10985:10988   */\n      dup3\n        /* \"#utility.yul\":10896:10989   */\n      tag_167\n      jump\t// in\n    tag_309:\n        /* \"#utility.yul\":11014:11016   */\n      0x20\n        /* \"#utility.yul\":11009:11012   */\n      dup3\n        /* \"#utility.yul\":11005:11017   */\n      add\n        /* \"#utility.yul\":10998:11017   */\n      swap1\n      pop\n        /* \"#utility.yul\":10657:11023   */\n      swap2\n      swap1\n      pop\n      jump\t// out\n        /* \"#utility.yul\":11029:11448   */\n    tag_101:\n        /* \"#utility.yul\":11195:11199   */\n      0x00\n        /* \"#utility.yul\":11233:11235   */\n      0x20\n        /* \"#utility.yul\":11222:11231   */\n      dup3\n        /* \"#utility.yul\":11218:11236   */\n      add\n        /* \"#utility.yul\":11210:11236   */\n      swap1\n      pop\n        /* \"#utility.yul\":11282:11291   */\n      dup2\n        /* \"#utility.yul\":11276:11280   */\n      dup2\n        /* \"#utility.yul\":11272:11292   */\n      sub\n        /* \"#utility.yul\":11268:11269   */\n      0x00\n        /* \"#utility.yul\":11257:11266   */\n      dup4\n        /* \"#utility.yul\":11253:11270   */\n      add\n        /* \"#utility.yul\":11246:11293   */\n      mstore\n        /* \"#utility.yul\":11310:11441   */\n      tag_311\n        /* \"#utility.yul\":11436:11440   */\n      dup2\n        /* \"#utility.yul\":11310:11441   */\n      tag_168\n      jump\t// in\n    tag_311:\n        /* \"#utility.yul\":11302:11441   */\n      swap1\n      pop\n        /* \"#utility.yul\":11029:11448   */\n      swap2\n      swap1\n      pop\n      jump\t// out\n        /* \"#utility.yul\":11454:11634   */\n    tag_169:\n        /* \"#utility.yul\":11502:11579   */\n      0x4e487b7100000000000000000000000000000000000000000000000000000000\n        /* \"#utility.yul\":11499:11500   */\n      0x00\n        /* \"#utility.yul\":11492:11580   */\n      mstore\n        /* \"#utility.yul\":11599:11603   */\n      0x22\n        /* \"#utility.yul\":11596:11597   */\n      0x04\n        /* \"#utility.yul\":11589:11604   */\n      mstore\n        /* \"#utility.yul\":11623:11627   */\n      0x24\n        /* \"#utility.yul\":11620:11621   */\n      0x00\n        /* \"#utility.yul\":11613:11628   */\n      revert\n        /* \"#utility.yul\":11640:11960   */\n    tag_126:\n        /* \"#utility.yul\":11684:11690   */\n      0x00\n        /* \"#utility.yul\":11721:11722   */\n      0x02\n        /* \"#utility.yul\":11715:11719   */\n      dup3\n        /* \"#utility.yul\":11711:11723   */\n      div\n        /* \"#utility.yul\":11701:11723   */\n      swap1\n      pop\n        /* \"#utility.yul\":11768:11769   */\n      0x01\n        /* \"#utility.yul\":11762:11766   */\n      dup3\n        /* \"#utility.yul\":11758:11770   */\n      and\n        /* \"#utility.yul\":11789:11807   */\n      dup1\n        /* \"#utility.yul\":11779:11860   */\n      tag_314\n      jumpi\n        /* \"#utility.yul\":11845:11849   */\n      0x7f\n        /* \"#utility.yul\":11837:11843   */\n      dup3\n        /* \"#utility.yul\":11833:11850   */\n      and\n        /* \"#utility.yul\":11823:11850   */\n      swap2\n      pop\n        /* \"#utility.yul\":11779:11860   */\n    tag_314:\n        /* \"#utility.yul\":11907:11909   */\n      0x20\n        /* \"#utility.yul\":11899:11905   */\n      dup3\n        /* \"#utility.yul\":11896:11910   */\n      lt\n        /* \"#utility.yul\":11876:11894   */\n      dup2\n        /* \"#utility.yul\":11873:11911   */\n      sub\n        /* \"#utility.yul\":11870:11954   */\n      tag_315\n      jumpi\n        /* \"#utility.yul\":11926:11944   */\n      tag_316\n      tag_169\n      jump\t// in\n    tag_316:\n        /* \"#utility.yul\":11870:11954   */\n    tag_315:\n        /* \"#utility.yul\":11691:11960   */\n      pop\n        /* \"#utility.yul\":11640:11960   */\n      swap2\n      swap1\n      pop\n      jump\t// out\n        /* \"#utility.yul\":11966:12107   */\n    tag_170:\n        /* \"#utility.yul\":12015:12019   */\n      0x00\n        /* \"#utility.yul\":12038:12041   */\n      dup2\n        /* \"#utility.yul\":12030:12041   */\n      swap1\n      pop\n        /* \"#utility.yul\":12061:12064   */\n      dup2\n        /* \"#utility.yul\":12058:12059   */\n      0x00\n        /* \"#utility.yul\":12051:12065   */\n      mstore\n        /* \"#utility.yul\":12095:12099   */\n      0x20\n        /* \"#utility.yul\":12092:12093   */\n      0x00\n        /* \"#utility.yul\":12082:12100   */\n      keccak256\n        /* \"#utility.yul\":12074:12100   */\n      swap1\n      pop\n        /* \"#utility.yul\":11966:12107   */\n      swap2\n      swap1\n      pop\n      jump\t// out\n        /* \"#utility.yul\":12113:12206   */\n    tag_171:\n        /* \"#utility.yul\":12150:12156   */\n      0x00\n        /* \"#utility.yul\":12197:12199   */\n      0x20\n        /* \"#utility.yul\":12192:12194   */\n      0x1f\n        /* \"#utility.yul\":12185:12190   */\n      dup4\n        /* \"#utility.yul\":12181:12195   */\n      add\n        /* \"#utility.yul\":12177:12200   */\n      div\n        /* \"#utility.yul\":12167:12200   */\n      swap1\n      pop\n        /* \"#utility.yul\":12113:12206   */\n      swap2\n      swap1\n      pop\n      jump\t// out\n        /* \"#utility.yul\":12212:12319   */\n    tag_172:\n        /* \"#utility.yul\":12256:12264   */\n      0x00\n        /* \"#utility.yul\":12306:12311   */\n      dup3\n        /* \"#utility.yul\":12300:12304   */\n      dup3\n        /* \"#utility.yul\":12296:12312   */\n      shl\n        /* \"#utility.yul\":12275:12312   */\n      swap1\n      pop\n        /* \"#utility.yul\":12212:12319   */\n      swap3\n      swap2\n      pop\n      pop\n      jump\t// out\n        /* \"#utility.yul\":12325:12718   */\n    tag_173:\n        /* \"#utility.yul\":12394:12400   */\n      0x00\n        /* \"#utility.yul\":12444:12445   */\n      0x08\n        /* \"#utility.yul\":12432:12442   */\n      dup4\n        /* \"#utility.yul\":12428:12446   */\n      mul\n        /* \"#utility.yul\":12467:12564   */\n      tag_321\n        /* \"#utility.yul\":12497:12563   */\n      0xffffffffffffffffffffffffffffffffffffffffffffffffffffffffffffffff\n        /* \"#utility.yul\":12486:12495   */\n      dup3\n        /* \"#utility.yul\":12467:12564   */\n      tag_172\n      jump\t// in\n    tag_321:\n        /* \"#utility.yul\":12585:12624   */\n      tag_322\n        /* \"#utility.yul\":12615:12623   */\n      dup7\n        /* \"#utility.yul\":12604:12613   */\n      dup4\n        /* \"#utility.yul\":12585:12624   */\n      tag_172\n      jump\t// in\n    tag_322:\n        /* \"#utility.yul\":12573:12624   */\n      swap6\n      pop\n        /* \"#utility.yul\":12657:12661   */\n      dup1\n        /* \"#utility.yul\":12653:12662   */\n      not\n        /* \"#utility.yul\":12646:12651   */\n      dup5\n        /* \"#utility.yul\":12642:12663   */\n      and\n        /* \"#utility.yul\":12633:12663   */\n      swap4\n      pop\n        /* \"#utility.yul\":12706:12710   */\n      dup1\n        /* \"#utility.yul\":12696:12704   */\n      dup7\n        /* \"#utility.yul\":12692:12711   */\n      and\n        /* \"#utility.yul\":12685:12690   */\n      dup5\n        /* \"#utility.yul\":12682:12712   */\n      or\n        /* \"#utility.yul\":12672:12712   */\n      swap3\n      pop\n        /* \"#utility.yul\":12401:12718   */\n      pop\n      pop\n        /* \"#utility.yul\":12325:12718   */\n      swap4\n      swap3\n      pop\n      pop\n      pop\n      jump\t// out\n        /* \"#utility.yul\":12724:12784   */\n    tag_174:\n        /* \"#utility.yul\":12752:12755   */\n      0x00\n        /* \"#utility.yul\":12773:12778   */\n      dup2\n        /* \"#utility.yul\":12766:12778   */\n      swap1\n      pop\n        /* \"#utility.yul\":12724:12784   */\n      swap2\n      swap1\n      pop\n      jump\t// out\n        /* \"#utility.yul\":12790:12932   */\n    tag_175:\n        /* \"#utility.yul\":12840:12849   */\n      0x00\n        /* \"#utility.yul\":12873:12926   */\n      tag_325\n        /* \"#utility.yul\":12891:12925   */\n      tag_326\n        /* \"#utility.yul\":12900:12924   */\n      tag_327\n        /* \"#utility.yul\":12918:12923   */\n      dup5\n        /* \"#utility.yul\":12900:12924   */\n      tag_131\n      jump\t// in\n    tag_327:\n        /* \"#utility.yul\":12891:12925   */\n      tag_174\n      jump\t// in\n    tag_326:\n        /* \"#utility.yul\":12873:12926   */\n      tag_131\n      jump\t// in\n    tag_325:\n        /* \"#utility.yul\":12860:12926   */\n      swap1\n      pop\n        /* \"#utility.yul\":12790:12932   */\n      swap2\n      swap1\n      pop\n      jump\t// out\n        /* \"#utility.yul\":12938:13013   */\n    tag_176:\n        /* \"#utility.yul\":12981:12984   */\n      0x00\n        /* \"#utility.yul\":13002:13007   */\n      dup2\n        /* \"#utility.yul\":12995:13007   */\n      swap1\n      pop\n        /* \"#utility.yul\":12938:13013   */\n      swap2\n      swap1\n      pop\n      jump\t// out\n        /* \"#utility.yul\":13019:13288   */\n    tag_177:\n        /* \"#utility.yul\":13129:13168   */\n      tag_330\n        /* \"#utility.yul\":13160:13167   */\n      dup4\n        /* \"#utility.yul\":13129:13168   */\n      tag_175\n      jump\t// in\n    tag_330:\n        /* \"#utility.yul\":13190:13281   */\n      tag_331\n        /* \"#utility.yul\":13239:13280   */\n      tag_332\n        /* \"#utility.yul\":13263:13279   */\n      dup3\n        /* \"#utility.yul\":13239:13280   */\n      tag_176\n      jump\t// in\n    tag_332:\n        /* \"#utility.yul\":13231:13237   */\n      dup5\n        /* \"#utility.yul\":13224:13228   */\n      dup5\n        /* \"#utility.yul\":13218:13229   */\n      sload\n        /* \"#utility.yul\":13190:13281   */\n      tag_173\n      jump\t// in\n    tag_331:\n        /* \"#utility.yul\":13184:13188   */\n      dup3\n        /* \"#utility.yul\":13177:13282   */\n      sstore\n        /* \"#utility.yul\":13095:13288   */\n      pop\n        /* \"#utility.yul\":13019:13288   */\n      pop\n      pop\n      pop\n      jump\t// out\n        /* \"#utility.yul\":13294:13367   */\n    tag_178:\n        /* \"#utility.yul\":13339:13342   */\n      0x00\n        /* \"#utility.yul\":13294:13367   */\n      swap1\n      jump\t// out\n        /* \"#utility.yul\":13373:13562   */\n    tag_179:\n        /* \"#utility.yul\":13450:13482   */\n      tag_335\n      tag_178\n      jump\t// in\n    tag_335:\n        /* \"#utility.yul\":13491:13556   */\n      tag_336\n        /* \"#utility.yul\":13549:13555   */\n      dup2\n        /* \"#utility.yul\":13541:13547   */\n      dup5\n        /* \"#utility.yul\":13535:13539   */\n      dup5\n        /* \"#utility.yul\":13491:13556   */\n      tag_177\n      jump\t// in\n    tag_336:\n        /* \"#utility.yul\":13426:13562   */\n      pop\n        /* \"#utility.yul\":13373:13562   */\n      pop\n      pop\n      jump\t// out\n        /* \"#utility.yul\":13568:13754   */\n    tag_180:\n        /* \"#utility.yul\":13628:13748   */\n    tag_338:\n        /* \"#utility.yul\":13645:13648   */\n      dup2\n        /* \"#utility.yul\":13638:13643   */\n      dup2\n        /* \"#utility.yul\":13635:13649   */\n      lt\n        /* \"#utility.yul\":13628:13748   */\n      iszero\n      tag_340\n      jumpi\n        /* \"#utility.yul\":13699:13738   */\n      tag_341\n        /* \"#utility.yul\":13736:13737   */\n      0x00\n        /* \"#utility.yul\":13729:13734   */\n      dup3\n        /* \"#utility.yul\":13699:13738   */\n      tag_179\n      jump\t// in\n    tag_341:\n        /* \"#utility.yul\":13672:13673   */\n      0x01\n        /* \"#utility.yul\":13665:13670   */\n      dup2\n        /* \"#utility.yul\":13661:13674   */\n      add\n        /* \"#utility.yul\":13652:13674   */\n      swap1\n      pop\n        /* \"#utility.yul\":13628:13748   */\n      jump(tag_338)\n    tag_340:\n        /* \"#utility.yul\":13568:13754   */\n      pop\n      pop\n      jump\t// out\n        /* \"#utility.yul\":13760:14303   */\n    tag_181:\n        /* \"#utility.yul\":13861:13863   */\n      0x1f\n        /* \"#utility.yul\":13856:13859   */\n      dup3\n        /* \"#utility.yul\":13853:13864   */\n      gt\n        /* \"#utility.yul\":13850:14296   */\n      iszero\n      tag_343\n      jumpi\n        /* \"#utility.yul\":13895:13933   */\n      tag_344\n        /* \"#utility.yul\":13927:13932   */\n      dup2\n        /* \"#utility.yul\":13895:13933   */\n      tag_170\n      jump\t// in\n    tag_344:\n        /* \"#utility.yul\":13979:14008   */\n      tag_345\n        /* \"#utility.yul\":13997:14007   */\n      dup5\n        /* \"#utility.yul\":13979:14008   */\n      tag_171\n      jump\t// in\n    tag_345:\n        /* \"#utility.yul\":13969:13977   */\n      dup2\n        /* \"#utility.yul\":13965:14009   */\n      add\n        /* \"#utility.yul\":14162:14164   */\n      0x20\n        /* \"#utility.yul\":14150:14160   */\n      dup6\n        /* \"#utility.yul\":14147:14165   */\n      lt\n        /* \"#utility.yul\":14144:14193   */\n      iszero\n      tag_346\n      jumpi\n        /* \"#utility.yul\":14183:14191   */\n      dup2\n        /* \"#utility.yul\":14168:14191   */\n      swap1\n      pop\n        /* \"#utility.yul\":14144:14193   */\n    tag_346:\n        /* \"#utility.yul\":14206:14286   */\n      tag_347\n        /* \"#utility.yul\":14262:14284   */\n      tag_348\n        /* \"#utility.yul\":14280:14283   */\n      dup6\n        /* \"#utility.yul\":14262:14284   */\n      tag_171\n      jump\t// in\n    tag_348:\n        /* \"#utility.yul\":14252:14260   */\n      dup4\n        /* \"#utility.yul\":14248:14285   */\n      add\n        /* \"#utility.yul\":14235:14246   */\n      dup3\n        /* \"#utility.yul\":14206:14286   */\n      tag_180\n      jump\t// in\n    tag_347:\n        /* \"#utility.yul\":13865:14296   */\n      pop\n      pop\n        /* \"#utility.yul\":13850:14296   */\n    tag_343:\n        /* \"#utility.yul\":13760:14303   */\n      pop\n      pop\n      pop\n      jump\t// out\n        /* \"#utility.yul\":14309:14426   */\n    tag_182:\n        /* \"#utility.yul\":14363:14371   */\n      0x00\n        /* \"#utility.yul\":14413:14418   */\n      dup3\n        /* \"#utility.yul\":14407:14411   */\n      dup3\n        /* \"#utility.yul\":14403:14419   */\n      shr\n        /* \"#utility.yul\":14382:14419   */\n      swap1\n      pop\n        /* \"#utility.yul\":14309:14426   */\n      swap3\n      swap2\n      pop\n      pop\n      jump\t// out\n        /* \"#utility.yul\":14432:14601   */\n    tag_183:\n        /* \"#utility.yul\":14476:14482   */\n      0x00\n        /* \"#utility.yul\":14509:14560   */\n      tag_351\n        /* \"#utility.yul\":14557:14558   */\n      0x00\n        /* \"#utility.yul\":14553:14559   */\n      not\n        /* \"#utility.yul\":14545:14550   */\n      dup5\n        /* \"#utility.yul\":14542:14543   */\n      0x08\n        /* \"#utility.yul\":14538:14551   */\n      mul\n        /* \"#utility.yul\":14509:14560   */\n      tag_182\n      jump\t// in\n    tag_351:\n        /* \"#utility.yul\":14505:14561   */\n      not\n        /* \"#utility.yul\":14590:14594   */\n      dup1\n        /* \"#utility.yul\":14584:14588   */\n      dup4\n        /* \"#utility.yul\":14580:14595   */\n      and\n        /* \"#utility.yul\":14570:14595   */\n      swap2\n      pop\n        /* \"#utility.yul\":14483:14601   */\n      pop\n        /* \"#utility.yul\":14432:14601   */\n      swap3\n      swap2\n      pop\n      pop\n      jump\t// out\n        /* \"#utility.yul\":14606:14901   */\n    tag_184:\n        /* \"#utility.yul\":14682:14686   */\n      0x00\n        /* \"#utility.yul\":14828:14857   */\n      tag_353\n        /* \"#utility.yul\":14853:14856   */\n      dup4\n        /* \"#utility.yul\":14847:14851   */\n      dup4\n        /* \"#utility.yul\":14828:14857   */\n      tag_183\n      jump\t// in\n    tag_353:\n        /* \"#utility.yul\":14820:14857   */\n      swap2\n      pop\n        /* \"#utility.yul\":14890:14893   */\n      dup3\n        /* \"#utility.yul\":14887:14888   */\n      0x02\n        /* \"#utility.yul\":14883:14894   */\n      mul\n        /* \"#utility.yul\":14877:14881   */\n      dup3\n        /* \"#utility.yul\":14874:14895   */\n      or\n        /* \"#utility.yul\":14866:14895   */\n      swap1\n      pop\n        /* \"#utility.yul\":14606:14901   */\n      swap3\n      swap2\n      pop\n      pop\n      jump\t// out\n        /* \"#utility.yul\":14906:16301   */\n    tag_105:\n        /* \"#utility.yul\":15023:15060   */\n      tag_355\n        /* \"#utility.yul\":15056:15059   */\n      dup3\n        /* \"#utility.yul\":15023:15060   */\n      tag_156\n      jump\t// in\n    tag_355:\n        /* \"#utility.yul\":15125:15143   */\n      0xffffffffffffffff\n        /* \"#utility.yul\":15117:15123   */\n      dup2\n        /* \"#utility.yul\":15114:15144   */\n      gt\n        /* \"#utility.yul\":15111:15167   */\n      iszero\n      tag_356\n      jumpi\n        /* \"#utility.yul\":15147:15165   */\n      tag_357\n      tag_139\n      jump\t// in\n    tag_357:\n        /* \"#utility.yul\":15111:15167   */\n    tag_356:\n        /* \"#utility.yul\":15191:15229   */\n      tag_358\n        /* \"#utility.yul\":15223:15227   */\n      dup3\n        /* \"#utility.yul\":15217:15228   */\n      sload\n        /* \"#utility.yul\":15191:15229   */\n      tag_126\n      jump\t// in\n    tag_358:\n        /* \"#utility.yul\":15276:15343   */\n      tag_359\n        /* \"#utility.yul\":15336:15342   */\n      dup3\n        /* \"#utility.yul\":15328:15334   */\n      dup3\n        /* \"#utility.yul\":15322:15326   */\n      dup6\n        /* \"#utility.yul\":15276:15343   */\n      tag_181\n      jump\t// in\n    tag_359:\n        /* \"#utility.yul\":15370:15371   */\n      0x00\n        /* \"#utility.yul\":15394:15398   */\n      0x20\n        /* \"#utility.yul\":15381:15398   */\n      swap1\n      pop\n        /* \"#utility.yul\":15426:15428   */\n      0x1f\n        /* \"#utility.yul\":15418:15424   */\n      dup4\n        /* \"#utility.yul\":15415:15429   */\n      gt\n        /* \"#utility.yul\":15443:15444   */\n      0x01\n        /* \"#utility.yul\":15438:16056   */\n      dup2\n      eq\n      tag_361\n      jumpi\n        /* \"#utility.yul\":16100:16101   */\n      0x00\n        /* \"#utility.yul\":16117:16123   */\n      dup5\n        /* \"#utility.yul\":16114:16191   */\n      iszero\n      tag_362\n      jumpi\n        /* \"#utility.yul\":16166:16175   */\n      dup3\n        /* \"#utility.yul\":16161:16164   */\n      dup8\n        /* \"#utility.yul\":16157:16176   */\n      add\n        /* \"#utility.yul\":16151:16177   */\n      mload\n        /* \"#utility.yul\":16142:16177   */\n      swap1\n      pop\n        /* \"#utility.yul\":16114:16191   */\n    tag_362:\n        /* \"#utility.yul\":16217:16284   */\n      tag_363\n        /* \"#utility.yul\":16277:16283   */\n      dup6\n        /* \"#utility.yul\":16270:16275   */\n      dup3\n        /* \"#utility.yul\":16217:16284   */\n      tag_184\n      jump\t// in\n    tag_363:\n        /* \"#utility.yul\":16211:16215   */\n      dup7\n        /* \"#utility.yul\":16204:16285   */\n      sstore\n        /* \"#utility.yul\":16073:16295   */\n      pop\n        /* \"#utility.yul\":15408:16295   */\n      jump(tag_360)\n        /* \"#utility.yul\":15438:16056   */\n    tag_361:\n        /* \"#utility.yul\":15490:15494   */\n      0x1f\n        /* \"#utility.yul\":15486:15495   */\n      not\n        /* \"#utility.yul\":15478:15484   */\n      dup5\n        /* \"#utility.yul\":15474:15496   */\n      and\n        /* \"#utility.yul\":15524:15561   */\n      tag_364\n        /* \"#utility.yul\":15556:15560   */\n      dup7\n        /* \"#utility.yul\":15524:15561   */\n      tag_170\n      jump\t// in\n    tag_364:\n        /* \"#utility.yul\":15583:15584   */\n      0x00\n        /* \"#utility.yul\":15597:15805   */\n    tag_365:\n        /* \"#utility.yul\":15611:15618   */\n      dup3\n        /* \"#utility.yul\":15608:15609   */\n      dup2\n        /* \"#utility.yul\":15605:15619   */\n      lt\n        /* \"#utility.yul\":15597:15805   */\n      iszero\n      tag_367\n      jumpi\n        /* \"#utility.yul\":15690:15699   */\n      dup5\n        /* \"#utility.yul\":15685:15688   */\n      dup10\n        /* \"#utility.yul\":15681:15700   */\n      add\n        /* \"#utility.yul\":15675:15701   */\n      mload\n        /* \"#utility.yul\":15667:15673   */\n      dup3\n        /* \"#utility.yul\":15660:15702   */\n      sstore\n        /* \"#utility.yul\":15741:15742   */\n      0x01\n        /* \"#utility.yul\":15733:15739   */\n      dup3\n        /* \"#utility.yul\":15729:15743   */\n      add\n        /* \"#utility.yul\":15719:15743   */\n      swap2\n      pop\n        /* \"#utility.yul\":15788:15790   */\n      0x20\n        /* \"#utility.yul\":15777:15786   */\n      dup6\n        /* \"#utility.yul\":15773:15791   */\n      add\n        /* \"#utility.yul\":15760:15791   */\n      swap5\n      pop\n        /* \"#utility.yul\":15634:15638   */\n      0x20\n        /* \"#utility.yul\":15631:15632   */\n      dup2\n        /* \"#utility.yul\":15627:15639   */\n      add\n        /* \"#utility.yul\":15622:15639   */\n      swap1\n      pop\n        /* \"#utility.yul\":15597:15805   */\n      jump(tag_365)\n    tag_367:\n        /* \"#utility.yul\":15833:15839   */\n      dup7\n        /* \"#utility.yul\":15824:15831   */\n      dup4\n        /* \"#utility.yul\":15821:15840   */\n      lt\n        /* \"#utility.yul\":15818:15997   */\n      iszero\n      tag_368\n      jumpi\n        /* \"#utility.yul\":15891:15900   */\n      dup5\n        /* \"#utility.yul\":15886:15889   */\n      dup10\n        /* \"#utility.yul\":15882:15901   */\n      add\n        /* \"#utility.yul\":15876:15902   */\n      mload\n        /* \"#utility.yul\":15934:15982   */\n      tag_369\n        /* \"#utility.yul\":15976:15980   */\n      0x1f\n        /* \"#utility.yul\":15968:15974   */\n      dup10\n        /* \"#utility.yul\":15964:15981   */\n      and\n        /* \"#utility.yul\":15953:15962   */\n      dup3\n        /* \"#utility.yul\":15934:15982   */\n      tag_183\n      jump\t// in\n    tag_369:\n        /* \"#utility.yul\":15926:15932   */\n      dup4\n        /* \"#utility.yul\":15919:15983   */\n      sstore\n        /* \"#utility.yul\":15841:15997   */\n      pop\n        /* \"#utility.yul\":15818:15997   */\n    tag_368:\n        /* \"#utility.yul\":16043:16044   */\n      0x01\n        /* \"#utility.yul\":16039:16040   */\n      0x02\n        /* \"#utility.yul\":16031:16037   */\n      dup9\n        /* \"#utility.yul\":16027:16041   */\n      mul\n        /* \"#utility.yul\":16023:16045   */\n      add\n        /* \"#utility.yul\":16017:16021   */\n      dup9\n        /* \"#utility.yul\":16010:16046   */\n      sstore\n        /* \"#utility.yul\":15445:16056   */\n      pop\n      pop\n      pop\n        /* \"#utility.yul\":15408:16295   */\n    tag_360:\n      pop\n        /* \"#utility.yul\":14998:16301   */\n      pop\n      pop\n      pop\n        /* \"#utility.yul\":14906:16301   */\n      pop\n      pop\n      jump\t// out\n        /* \"#utility.yul\":16307:16475   */\n    tag_185:\n        /* \"#utility.yul\":16447:16467   */\n      0x41637475616c6c7920796f7520766f7465640000000000000000000000000000\n        /* \"#utility.yul\":16443:16444   */\n      0x00\n        /* \"#utility.yul\":16435:16441   */\n      dup3\n        /* \"#utility.yul\":16431:16445   */\n      add\n        /* \"#utility.yul\":16424:16468   */\n      mstore\n        /* \"#utility.yul\":16307:16475   */\n      pop\n      jump\t// out\n        /* \"#utility.yul\":16481:16847   */\n    tag_186:\n        /* \"#utility.yul\":16623:16626   */\n      0x00\n        /* \"#utility.yul\":16644:16711   */\n      tag_372\n        /* \"#utility.yul\":16708:16710   */\n      0x12\n        /* \"#utility.yul\":16703:16706   */\n      dup4\n        /* \"#utility.yul\":16644:16711   */\n      tag_157\n      jump\t// in\n    tag_372:\n        /* \"#utility.yul\":16637:16711   */\n      swap2\n      pop\n        /* \"#utility.yul\":16720:16813   */\n      tag_373\n        /* \"#utility.yul\":16809:16812   */\n      dup3\n        /* \"#utility.yul\":16720:16813   */\n      tag_185\n      jump\t// in\n    tag_373:\n        /* \"#utility.yul\":16838:16840   */\n      0x20\n        /* \"#utility.yul\":16833:16836   */\n      dup3\n        /* \"#utility.yul\":16829:16841   */\n      add\n        /* \"#utility.yul\":16822:16841   */\n      swap1\n      pop\n        /* \"#utility.yul\":16481:16847   */\n      swap2\n      swap1\n      pop\n      jump\t// out\n        /* \"#utility.yul\":16853:17272   */\n    tag_110:\n        /* \"#utility.yul\":17019:17023   */\n      0x00\n        /* \"#utility.yul\":17057:17059   */\n      0x20\n        /* \"#utility.yul\":17046:17055   */\n      dup3\n        /* \"#utility.yul\":17042:17060   */\n      add\n        /* \"#utility.yul\":17034:17060   */\n      swap1\n      pop\n        /* \"#utility.yul\":17106:17115   */\n      dup2\n        /* \"#utility.yul\":17100:17104   */\n      dup2\n        /* \"#utility.yul\":17096:17116   */\n      sub\n        /* \"#utility.yul\":17092:17093   */\n      0x00\n        /* \"#utility.yul\":17081:17090   */\n      dup4\n        /* \"#utility.yul\":17077:17094   */\n      add\n        /* \"#utility.yul\":17070:17117   */\n      mstore\n        /* \"#utility.yul\":17134:17265   */\n      tag_375\n        /* \"#utility.yul\":17260:17264   */\n      dup2\n        /* \"#utility.yul\":17134:17265   */\n      tag_186\n      jump\t// in\n    tag_375:\n        /* \"#utility.yul\":17126:17265   */\n      swap1\n      pop\n        /* \"#utility.yul\":16853:17272   */\n      swap2\n      swap1\n      pop\n      jump\t// out\n        /* \"#utility.yul\":17278:17459   */\n    tag_187:\n        /* \"#utility.yul\":17418:17451   */\n      0x596f752077657265204e6f7420656c6769626c6520696e2046756e64696e6700\n        /* \"#utility.yul\":17414:17415   */\n      0x00\n        /* \"#utility.yul\":17406:17412   */\n      dup3\n        /* \"#utility.yul\":17402:17416   */\n      add\n        /* \"#utility.yul\":17395:17452   */\n      mstore\n        /* \"#utility.yul\":17278:17459   */\n      pop\n      jump\t// out\n        /* \"#utility.yul\":17465:17831   */\n    tag_188:\n        /* \"#utility.yul\":17607:17610   */\n      0x00\n        /* \"#utility.yul\":17628:17695   */\n      tag_378\n        /* \"#utility.yul\":17692:17694   */\n      0x1f\n        /* \"#utility.yul\":17687:17690   */\n      dup4\n        /* \"#utility.yul\":17628:17695   */\n      tag_157\n      jump\t// in\n    tag_378:\n        /* \"#utility.yul\":17621:17695   */\n      swap2\n      pop\n        /* \"#utility.yul\":17704:17797   */\n      tag_379\n        /* \"#utility.yul\":17793:17796   */\n      dup3\n        /* \"#utility.yul\":17704:17797   */\n      tag_187\n      jump\t// in\n    tag_379:\n        /* \"#utility.yul\":17822:17824   */\n      0x20\n        /* \"#utility.yul\":17817:17820   */\n      dup3\n        /* \"#utility.yul\":17813:17825   */\n      add\n        /* \"#utility.yul\":17806:17825   */\n      swap1\n      pop\n        /* \"#utility.yul\":17465:17831   */\n      swap2\n      swap1\n      pop\n      jump\t// out\n        /* \"#utility.yul\":17837:18256   */\n    tag_117:\n        /* \"#utility.yul\":18003:18007   */\n      0x00\n        /* \"#utility.yul\":18041:18043   */\n      0x20\n        /* \"#utility.yul\":18030:18039   */\n      dup3\n        /* \"#utility.yul\":18026:18044   */\n      add\n        /* \"#utility.yul\":18018:18044   */\n      swap1\n      pop\n        /* \"#utility.yul\":18090:18099   */\n      dup2\n        /* \"#utility.yul\":18084:18088   */\n      dup2\n        /* \"#utility.yul\":18080:18100   */\n      sub\n        /* \"#utility.yul\":18076:18077   */\n      0x00\n        /* \"#utility.yul\":18065:18074   */\n      dup4\n        /* \"#utility.yul\":18061:18078   */\n      add\n        /* \"#utility.yul\":18054:18101   */\n      mstore\n        /* \"#utility.yul\":18118:18249   */\n      tag_381\n        /* \"#utility.yul\":18244:18248   */\n      dup2\n        /* \"#utility.yul\":18118:18249   */\n      tag_188\n      jump\t// in\n    tag_381:\n        /* \"#utility.yul\":18110:18249   */\n      swap1\n      pop\n        /* \"#utility.yul\":17837:18256   */\n      swap2\n      swap1\n      pop\n      jump\t// out\n\n    auxdata: 0xa26469706673582212200606b3ecc0814243c6771350f36f859386a4d75ec034b56ea97214944dd1b5a364736f6c63430008110033\n}\n",
				"bytecode": {
					"linkReferences": {},
					"object": "60806040523480156200001157600080fd5b50604051620016a3380380620016a38339818101604052810190620000379190620000e3565b8160028190555080426200004c919062000159565b600481905550606460038190555033600160006101000a81548173ffffffffffffffffffffffffffffffffffffffff021916908373ffffffffffffffffffffffffffffffffffffffff160217905550505062000194565b600080fd5b6000819050919050565b620000bd81620000a8565b8114620000c957600080fd5b50565b600081519050620000dd81620000b2565b92915050565b60008060408385031215620000fd57620000fc620000a3565b5b60006200010d85828601620000cc565b92505060206200012085828601620000cc565b9150509250929050565b7f4e487b7100000000000000000000000000000000000000000000000000000000600052601160045260246000fd5b60006200016682620000a8565b91506200017383620000a8565b92508282019050808211156200018e576200018d6200012a565b5b92915050565b6114ff80620001a46000396000f3fe6080604052600436106100e85760003560e01c80634cb6f4a51161008a578063b1b1643111610059578063b1b1643114610290578063c59ee1dc146102bb578063d4b83992146102e6578063d845a4b314610311576100e8565b80634cb6f4a514610209578063590e1ae3146102325780638c9ffd401461023c578063a6a78c9414610267576100e8565b80631b16bb5c116100c65780631b16bb5c1461014d5780631f6d49421461017657806329dcb0cf146101b3578063481c6a75146101de576100e8565b806305759b4d146100ed57806306e99fef1461011857806312065fe014610122575b600080fd5b3480156100f957600080fd5b50610102610352565b60405161010f9190610b00565b60405180910390f35b610120610358565b005b34801561012e57600080fd5b506101376104af565b6040516101449190610b00565b60405180910390f35b34801561015957600080fd5b50610174600480360381019061016f9190610cff565b6104b7565b005b34801561018257600080fd5b5061019d60048036038101906101989190610dac565b610603565b6040516101aa9190610b00565b60405180910390f35b3480156101bf57600080fd5b506101c861061b565b6040516101d59190610b00565b60405180910390f35b3480156101ea57600080fd5b506101f3610621565b6040516102009190610de8565b60405180910390f35b34801561021557600080fd5b50610230600480360381019061022b9190610e03565b610647565b005b61023a6107b9565b005b34801561024857600080fd5b50610251610928565b60405161025e9190610b00565b60405180910390f35b34801561027357600080fd5b5061028e60048036038101906102899190610e03565b61092e565b005b34801561029c57600080fd5b506102a56109ea565b6040516102b29190610b00565b60405180910390f35b3480156102c757600080fd5b506102d06109f0565b6040516102dd9190610b00565b60405180910390f35b3480156102f257600080fd5b506102fb6109f6565b6040516103089190610b00565b60405180910390f35b34801561031d57600080fd5b5061033860048036038101906103339190610e03565b6109fc565b604051610349959493929190610eca565b60405180910390f35b60035481565b600454421061039c576040517f08c379a000000000000000000000000000000000000000000000000000000000815260040161039390610f70565b60405180910390fd5b60035434146103e0576040517f08c379a00000000000000000000000000000000000000000000000000000000081526004016103d790610fdc565b60405180910390fd5b60008060003373ffffffffffffffffffffffffffffffffffffffff1673ffffffffffffffffffffffffffffffffffffffff168152602001908152602001600020540361043f57600560008154809291906104399061102b565b91905055505b346000803373ffffffffffffffffffffffffffffffffffffffff1673ffffffffffffffffffffffffffffffffffffffff168152602001908152602001600020600082825461048d9190611073565b9250508190555034600660008282546104a69190611073565b92505081905550565b600047905090565b600160009054906101000a900473ffffffffffffffffffffffffffffffffffffffff1673ffffffffffffffffffffffffffffffffffffffff163373ffffffffffffffffffffffffffffffffffffffff1614610547576040517f08c379a000000000000000000000000000000000000000000000000000000000815260040161053e906110f3565b60405180910390fd5b60006007600060085481526020019081526020016000209050600860008154809291906105739061102b565b919050555083816000019081610589919061131f565b50828160010160006101000a81548173ffffffffffffffffffffffffffffffffffffffff021916908373ffffffffffffffffffffffffffffffffffffffff16021790555081816002018190555060018160030160006101000a81548160ff0219169083151502179055506000816004018190555050505050565b60006020528060005260406000206000915090505481565b60045481565b600160009054906101000a900473ffffffffffffffffffffffffffffffffffffffff1681565b60008060003373ffffffffffffffffffffffffffffffffffffffff1673ffffffffffffffffffffffffffffffffffffffff168152602001908152602001600020541061069257600080fd5b600060076000838152602001908152602001600020905060008160050160003373ffffffffffffffffffffffffffffffffffffffff1673ffffffffffffffffffffffffffffffffffffffff16815260200190815260200160002060006101000a81548160ff0219169083151502179055610741576040517f08c379a00000000000000000000000000000000000000000000000000000000081526004016107389061143d565b60405180910390fd5b60018160050160003373ffffffffffffffffffffffffffffffffffffffff1673ffffffffffffffffffffffffffffffffffffffff16815260200190815260200160002060006101000a81548160ff0219169083151502179055508060040160008154809291906107b09061102b565b91905055505050565b6002546006541080156107cd575060045442115b6107d657600080fd5b60008060003373ffffffffffffffffffffffffffffffffffffffff1673ffffffffffffffffffffffffffffffffffffffff1681526020019081526020016000205410610857576040517f08c379a000000000000000000000000000000000000000000000000000000000815260040161084e906114a9565b60405180910390fd5b60003390508073ffffffffffffffffffffffffffffffffffffffff166108fc6000803373ffffffffffffffffffffffffffffffffffffffff1673ffffffffffffffffffffffffffffffffffffffff168152602001908152602001600020549081150290604051600060405180830381858888f193505050501580156108e0573d6000803e3d6000fd5b5060008060003373ffffffffffffffffffffffffffffffffffffffff1673ffffffffffffffffffffffffffffffffffffffff1681526020019081526020016000208190555050565b60055481565b600160009054906101000a900473ffffffffffffffffffffffffffffffffffffffff1673ffffffffffffffffffffffffffffffffffffffff163373ffffffffffffffffffffffffffffffffffffffff16146109be576040517f08c379a00000000000000000000000000000000000000000000000000000000081526004016109b5906110f3565b60405180910390fd5b60025460065411156109cf57600080fd5b60006007600083815260200190815260200160002090505050565b60085481565b60065481565b60025481565b6007602052806000526040600020600091509050806000018054610a1f90611142565b80601f0160208091040260200160405190810160405280929190818152602001828054610a4b90611142565b8015610a985780601f10610a6d57610100808354040283529160200191610a98565b820191906000526020600020905b815481529060010190602001808311610a7b57829003601f168201915b5050505050908060010160009054906101000a900473ffffffffffffffffffffffffffffffffffffffff16908060020154908060030160009054906101000a900460ff16908060040154905085565b6000819050919050565b610afa81610ae7565b82525050565b6000602082019050610b156000830184610af1565b92915050565b6000604051905090565b600080fd5b600080fd5b600080fd5b600080fd5b6000601f19601f8301169050919050565b7f4e487b7100000000000000000000000000000000000000000000000000000000600052604160045260246000fd5b610b8282610b39565b810181811067ffffffffffffffff82111715610ba157610ba0610b4a565b5b80604052505050565b6000610bb4610b1b565b9050610bc08282610b79565b919050565b600067ffffffffffffffff821115610be057610bdf610b4a565b5b610be982610b39565b9050602081019050919050565b82818337600083830152505050565b6000610c18610c1384610bc5565b610baa565b905082815260208101848484011115610c3457610c33610b34565b5b610c3f848285610bf6565b509392505050565b600082601f830112610c5c57610c5b610b2f565b5b8135610c6c848260208601610c05565b91505092915050565b600073ffffffffffffffffffffffffffffffffffffffff82169050919050565b6000610ca082610c75565b9050919050565b610cb081610c95565b8114610cbb57600080fd5b50565b600081359050610ccd81610ca7565b92915050565b610cdc81610ae7565b8114610ce757600080fd5b50565b600081359050610cf981610cd3565b92915050565b600080600060608486031215610d1857610d17610b25565b5b600084013567ffffffffffffffff811115610d3657610d35610b2a565b5b610d4286828701610c47565b9350506020610d5386828701610cbe565b9250506040610d6486828701610cea565b9150509250925092565b6000610d7982610c75565b9050919050565b610d8981610d6e565b8114610d9457600080fd5b50565b600081359050610da681610d80565b92915050565b600060208284031215610dc257610dc1610b25565b5b6000610dd084828501610d97565b91505092915050565b610de281610d6e565b82525050565b6000602082019050610dfd6000830184610dd9565b92915050565b600060208284031215610e1957610e18610b25565b5b6000610e2784828501610cea565b91505092915050565b600081519050919050565b600082825260208201905092915050565b60005b83811015610e6a578082015181840152602081019050610e4f565b60008484015250505050565b6000610e8182610e30565b610e8b8185610e3b565b9350610e9b818560208601610e4c565b610ea481610b39565b840191505092915050565b60008115159050919050565b610ec481610eaf565b82525050565b600060a0820190508181036000830152610ee48188610e76565b9050610ef36020830187610dd9565b610f006040830186610af1565b610f0d6060830185610ebb565b610f1a6080830184610af1565b9695505050505050565b7f4465616c696e652077657265206d697373696e67000000000000000000000000600082015250565b6000610f5a601483610e3b565b9150610f6582610f24565b602082019050919050565b60006020820190508181036000830152610f8981610f4d565b9050919050565b7f596f752077657265206e6f7420626520656c696769626c650000000000000000600082015250565b6000610fc6601883610e3b565b9150610fd182610f90565b602082019050919050565b60006020820190508181036000830152610ff581610fb9565b9050919050565b7f4e487b7100000000000000000000000000000000000000000000000000000000600052601160045260246000fd5b600061103682610ae7565b91507fffffffffffffffffffffffffffffffffffffffffffffffffffffffffffffffff820361106857611067610ffc565b5b600182019050919050565b600061107e82610ae7565b915061108983610ae7565b92508282019050808211156110a1576110a0610ffc565b5b92915050565b7f4f6e6c792063616e20416363657373207468652046756e6374696f6e00000000600082015250565b60006110dd601c83610e3b565b91506110e8826110a7565b602082019050919050565b6000602082019050818103600083015261110c816110d0565b9050919050565b7f4e487b7100000000000000000000000000000000000000000000000000000000600052602260045260246000fd5b6000600282049050600182168061115a57607f821691505b60208210810361116d5761116c611113565b5b50919050565b60008190508160005260206000209050919050565b60006020601f8301049050919050565b600082821b905092915050565b6000600883026111d57fffffffffffffffffffffffffffffffffffffffffffffffffffffffffffffffff82611198565b6111df8683611198565b95508019841693508086168417925050509392505050565b6000819050919050565b600061121c61121761121284610ae7565b6111f7565b610ae7565b9050919050565b6000819050919050565b61123683611201565b61124a61124282611223565b8484546111a5565b825550505050565b600090565b61125f611252565b61126a81848461122d565b505050565b5b8181101561128e57611283600082611257565b600181019050611270565b5050565b601f8211156112d3576112a481611173565b6112ad84611188565b810160208510156112bc578190505b6112d06112c885611188565b83018261126f565b50505b505050565b600082821c905092915050565b60006112f6600019846008026112d8565b1980831691505092915050565b600061130f83836112e5565b9150826002028217905092915050565b61132882610e30565b67ffffffffffffffff81111561134157611340610b4a565b5b61134b8254611142565b611356828285611292565b600060209050601f8311600181146113895760008415611377578287015190505b6113818582611303565b8655506113e9565b601f19841661139786611173565b60005b828110156113bf5784890151825560018201915060208501945060208101905061139a565b868310156113dc57848901516113d8601f8916826112e5565b8355505b6001600288020188555050505b505050505050565b7f41637475616c6c7920796f7520766f7465640000000000000000000000000000600082015250565b6000611427601283610e3b565b9150611432826113f1565b602082019050919050565b600060208201905081810360008301526114568161141a565b9050919050565b7f596f752077657265204e6f7420656c6769626c6520696e2046756e64696e6700600082015250565b6000611493601f83610e3b565b915061149e8261145d565b602082019050919050565b600060208201905081810360008301526114c281611486565b905091905056fea26469706673582212200606b3ecc0814243c6771350f36f859386a4d75ec034b56ea97214944dd1b5a364736f6c63430008110033",
					"opcodes": "PUSH1 0x80 PUSH1 0x40 MSTORE CALLVALUE DUP1 ISZERO PUSH3 0x11 JUMPI PUSH1 0x0 DUP1 REVERT JUMPDEST POP PUSH1 0x40 MLOAD PUSH3 0x16A3 CODESIZE SUB DUP1 PUSH3 0x16A3 DUP4 CODECOPY DUP2 DUP2 ADD PUSH1 0x40 MSTORE DUP2 ADD SWAP1 PUSH3 0x37 SWAP2 SWAP1 PUSH3 0xE3 JUMP JUMPDEST DUP2 PUSH1 0x2 DUP2 SWAP1 SSTORE POP DUP1 TIMESTAMP PUSH3 0x4C SWAP2 SWAP1 PUSH3 0x159 JUMP JUMPDEST PUSH1 0x4 DUP2 SWAP1 SSTORE POP PUSH1 0x64 PUSH1 0x3 DUP2 SWAP1 SSTORE POP CALLER PUSH1 0x1 PUSH1 0x0 PUSH2 0x100 EXP DUP2 SLOAD DUP2 PUSH20 0xFFFFFFFFFFFFFFFFFFFFFFFFFFFFFFFFFFFFFFFF MUL NOT AND SWAP1 DUP4 PUSH20 0xFFFFFFFFFFFFFFFFFFFFFFFFFFFFFFFFFFFFFFFF AND MUL OR SWAP1 SSTORE POP POP POP PUSH3 0x194 JUMP JUMPDEST PUSH1 0x0 DUP1 REVERT JUMPDEST PUSH1 0x0 DUP2 SWAP1 POP SWAP2 SWAP1 POP JUMP JUMPDEST PUSH3 0xBD DUP2 PUSH3 0xA8 JUMP JUMPDEST DUP2 EQ PUSH3 0xC9 JUMPI PUSH1 0x0 DUP1 REVERT JUMPDEST POP JUMP JUMPDEST PUSH1 0x0 DUP2 MLOAD SWAP1 POP PUSH3 0xDD DUP2 PUSH3 0xB2 JUMP JUMPDEST SWAP3 SWAP2 POP POP JUMP JUMPDEST PUSH1 0x0 DUP1 PUSH1 0x40 DUP4 DUP6 SUB SLT ISZERO PUSH3 0xFD JUMPI PUSH3 0xFC PUSH3 0xA3 JUMP JUMPDEST JUMPDEST PUSH1 0x0 PUSH3 0x10D DUP6 DUP3 DUP7 ADD PUSH3 0xCC JUMP JUMPDEST SWAP3 POP POP PUSH1 0x20 PUSH3 0x120 DUP6 DUP3 DUP7 ADD PUSH3 0xCC JUMP JUMPDEST SWAP2 POP POP SWAP3 POP SWAP3 SWAP1 POP JUMP JUMPDEST PUSH32 0x4E487B7100000000000000000000000000000000000000000000000000000000 PUSH1 0x0 MSTORE PUSH1 0x11 PUSH1 0x4 MSTORE PUSH1 0x24 PUSH1 0x0 REVERT JUMPDEST PUSH1 0x0 PUSH3 0x166 DUP3 PUSH3 0xA8 JUMP JUMPDEST SWAP2 POP PUSH3 0x173 DUP4 PUSH3 0xA8 JUMP JUMPDEST SWAP3 POP DUP3 DUP3 ADD SWAP1 POP DUP1 DUP3 GT ISZERO PUSH3 0x18E JUMPI PUSH3 0x18D PUSH3 0x12A JUMP JUMPDEST JUMPDEST SWAP3 SWAP2 POP POP JUMP JUMPDEST PUSH2 0x14FF DUP1 PUSH3 0x1A4 PUSH1 0x0 CODECOPY PUSH1 0x0 RETURN INVALID PUSH1 0x80 PUSH1 0x40 MSTORE PUSH1 0x4 CALLDATASIZE LT PUSH2 0xE8 JUMPI PUSH1 0x0 CALLDATALOAD PUSH1 0xE0 SHR DUP1 PUSH4 0x4CB6F4A5 GT PUSH2 0x8A JUMPI DUP1 PUSH4 0xB1B16431 GT PUSH2 0x59 JUMPI DUP1 PUSH4 0xB1B16431 EQ PUSH2 0x290 JUMPI DUP1 PUSH4 0xC59EE1DC EQ PUSH2 0x2BB JUMPI DUP1 PUSH4 0xD4B83992 EQ PUSH2 0x2E6 JUMPI DUP1 PUSH4 0xD845A4B3 EQ PUSH2 0x311 JUMPI PUSH2 0xE8 JUMP JUMPDEST DUP1 PUSH4 0x4CB6F4A5 EQ PUSH2 0x209 JUMPI DUP1 PUSH4 0x590E1AE3 EQ PUSH2 0x232 JUMPI DUP1 PUSH4 0x8C9FFD40 EQ PUSH2 0x23C JUMPI DUP1 PUSH4 0xA6A78C94 EQ PUSH2 0x267 JUMPI PUSH2 0xE8 JUMP JUMPDEST DUP1 PUSH4 0x1B16BB5C GT PUSH2 0xC6 JUMPI DUP1 PUSH4 0x1B16BB5C EQ PUSH2 0x14D JUMPI DUP1 PUSH4 0x1F6D4942 EQ PUSH2 0x176 JUMPI DUP1 PUSH4 0x29DCB0CF EQ PUSH2 0x1B3 JUMPI DUP1 PUSH4 0x481C6A75 EQ PUSH2 0x1DE JUMPI PUSH2 0xE8 JUMP JUMPDEST DUP1 PUSH4 0x5759B4D EQ PUSH2 0xED JUMPI DUP1 PUSH4 0x6E99FEF EQ PUSH2 0x118 JUMPI DUP1 PUSH4 0x12065FE0 EQ PUSH2 0x122 JUMPI JUMPDEST PUSH1 0x0 DUP1 REVERT JUMPDEST CALLVALUE DUP1 ISZERO PUSH2 0xF9 JUMPI PUSH1 0x0 DUP1 REVERT JUMPDEST POP PUSH2 0x102 PUSH2 0x352 JUMP JUMPDEST PUSH1 0x40 MLOAD PUSH2 0x10F SWAP2 SWAP1 PUSH2 0xB00 JUMP JUMPDEST PUSH1 0x40 MLOAD DUP1 SWAP2 SUB SWAP1 RETURN JUMPDEST PUSH2 0x120 PUSH2 0x358 JUMP JUMPDEST STOP JUMPDEST CALLVALUE DUP1 ISZERO PUSH2 0x12E JUMPI PUSH1 0x0 DUP1 REVERT JUMPDEST POP PUSH2 0x137 PUSH2 0x4AF JUMP JUMPDEST PUSH1 0x40 MLOAD PUSH2 0x144 SWAP2 SWAP1 PUSH2 0xB00 JUMP JUMPDEST PUSH1 0x40 MLOAD DUP1 SWAP2 SUB SWAP1 RETURN JUMPDEST CALLVALUE DUP1 ISZERO PUSH2 0x159 JUMPI PUSH1 0x0 DUP1 REVERT JUMPDEST POP PUSH2 0x174 PUSH1 0x4 DUP1 CALLDATASIZE SUB DUP2 ADD SWAP1 PUSH2 0x16F SWAP2 SWAP1 PUSH2 0xCFF JUMP JUMPDEST PUSH2 0x4B7 JUMP JUMPDEST STOP JUMPDEST CALLVALUE DUP1 ISZERO PUSH2 0x182 JUMPI PUSH1 0x0 DUP1 REVERT JUMPDEST POP PUSH2 0x19D PUSH1 0x4 DUP1 CALLDATASIZE SUB DUP2 ADD SWAP1 PUSH2 0x198 SWAP2 SWAP1 PUSH2 0xDAC JUMP JUMPDEST PUSH2 0x603 JUMP JUMPDEST PUSH1 0x40 MLOAD PUSH2 0x1AA SWAP2 SWAP1 PUSH2 0xB00 JUMP JUMPDEST PUSH1 0x40 MLOAD DUP1 SWAP2 SUB SWAP1 RETURN JUMPDEST CALLVALUE DUP1 ISZERO PUSH2 0x1BF JUMPI PUSH1 0x0 DUP1 REVERT JUMPDEST POP PUSH2 0x1C8 PUSH2 0x61B JUMP JUMPDEST PUSH1 0x40 MLOAD PUSH2 0x1D5 SWAP2 SWAP1 PUSH2 0xB00 JUMP JUMPDEST PUSH1 0x40 MLOAD DUP1 SWAP2 SUB SWAP1 RETURN JUMPDEST CALLVALUE DUP1 ISZERO PUSH2 0x1EA JUMPI PUSH1 0x0 DUP1 REVERT JUMPDEST POP PUSH2 0x1F3 PUSH2 0x621 JUMP JUMPDEST PUSH1 0x40 MLOAD PUSH2 0x200 SWAP2 SWAP1 PUSH2 0xDE8 JUMP JUMPDEST PUSH1 0x40 MLOAD DUP1 SWAP2 SUB SWAP1 RETURN JUMPDEST CALLVALUE DUP1 ISZERO PUSH2 0x215 JUMPI PUSH1 0x0 DUP1 REVERT JUMPDEST POP PUSH2 0x230 PUSH1 0x4 DUP1 CALLDATASIZE SUB DUP2 ADD SWAP1 PUSH2 0x22B SWAP2 SWAP1 PUSH2 0xE03 JUMP JUMPDEST PUSH2 0x647 JUMP JUMPDEST STOP JUMPDEST PUSH2 0x23A PUSH2 0x7B9 JUMP JUMPDEST STOP JUMPDEST CALLVALUE DUP1 ISZERO PUSH2 0x248 JUMPI PUSH1 0x0 DUP1 REVERT JUMPDEST POP PUSH2 0x251 PUSH2 0x928 JUMP JUMPDEST PUSH1 0x40 MLOAD PUSH2 0x25E SWAP2 SWAP1 PUSH2 0xB00 JUMP JUMPDEST PUSH1 0x40 MLOAD DUP1 SWAP2 SUB SWAP1 RETURN JUMPDEST CALLVALUE DUP1 ISZERO PUSH2 0x273 JUMPI PUSH1 0x0 DUP1 REVERT JUMPDEST POP PUSH2 0x28E PUSH1 0x4 DUP1 CALLDATASIZE SUB DUP2 ADD SWAP1 PUSH2 0x289 SWAP2 SWAP1 PUSH2 0xE03 JUMP JUMPDEST PUSH2 0x92E JUMP JUMPDEST STOP JUMPDEST CALLVALUE DUP1 ISZERO PUSH2 0x29C JUMPI PUSH1 0x0 DUP1 REVERT JUMPDEST POP PUSH2 0x2A5 PUSH2 0x9EA JUMP JUMPDEST PUSH1 0x40 MLOAD PUSH2 0x2B2 SWAP2 SWAP1 PUSH2 0xB00 JUMP JUMPDEST PUSH1 0x40 MLOAD DUP1 SWAP2 SUB SWAP1 RETURN JUMPDEST CALLVALUE DUP1 ISZERO PUSH2 0x2C7 JUMPI PUSH1 0x0 DUP1 REVERT JUMPDEST POP PUSH2 0x2D0 PUSH2 0x9F0 JUMP JUMPDEST PUSH1 0x40 MLOAD PUSH2 0x2DD SWAP2 SWAP1 PUSH2 0xB00 JUMP JUMPDEST PUSH1 0x40 MLOAD DUP1 SWAP2 SUB SWAP1 RETURN JUMPDEST CALLVALUE DUP1 ISZERO PUSH2 0x2F2 JUMPI PUSH1 0x0 DUP1 REVERT JUMPDEST POP PUSH2 0x2FB PUSH2 0x9F6 JUMP JUMPDEST PUSH1 0x40 MLOAD PUSH2 0x308 SWAP2 SWAP1 PUSH2 0xB00 JUMP JUMPDEST PUSH1 0x40 MLOAD DUP1 SWAP2 SUB SWAP1 RETURN JUMPDEST CALLVALUE DUP1 ISZERO PUSH2 0x31D JUMPI PUSH1 0x0 DUP1 REVERT JUMPDEST POP PUSH2 0x338 PUSH1 0x4 DUP1 CALLDATASIZE SUB DUP2 ADD SWAP1 PUSH2 0x333 SWAP2 SWAP1 PUSH2 0xE03 JUMP JUMPDEST PUSH2 0x9FC JUMP JUMPDEST PUSH1 0x40 MLOAD PUSH2 0x349 SWAP6 SWAP5 SWAP4 SWAP3 SWAP2 SWAP1 PUSH2 0xECA JUMP JUMPDEST PUSH1 0x40 MLOAD DUP1 SWAP2 SUB SWAP1 RETURN JUMPDEST PUSH1 0x3 SLOAD DUP2 JUMP JUMPDEST PUSH1 0x4 SLOAD TIMESTAMP LT PUSH2 0x39C JUMPI PUSH1 0x40 MLOAD PUSH32 0x8C379A000000000000000000000000000000000000000000000000000000000 DUP2 MSTORE PUSH1 0x4 ADD PUSH2 0x393 SWAP1 PUSH2 0xF70 JUMP JUMPDEST PUSH1 0x40 MLOAD DUP1 SWAP2 SUB SWAP1 REVERT JUMPDEST PUSH1 0x3 SLOAD CALLVALUE EQ PUSH2 0x3E0 JUMPI PUSH1 0x40 MLOAD PUSH32 0x8C379A000000000000000000000000000000000000000000000000000000000 DUP2 MSTORE PUSH1 0x4 ADD PUSH2 0x3D7 SWAP1 PUSH2 0xFDC JUMP JUMPDEST PUSH1 0x40 MLOAD DUP1 SWAP2 SUB SWAP1 REVERT JUMPDEST PUSH1 0x0 DUP1 PUSH1 0x0 CALLER PUSH20 0xFFFFFFFFFFFFFFFFFFFFFFFFFFFFFFFFFFFFFFFF AND PUSH20 0xFFFFFFFFFFFFFFFFFFFFFFFFFFFFFFFFFFFFFFFF AND DUP2 MSTORE PUSH1 0x20 ADD SWAP1 DUP2 MSTORE PUSH1 0x20 ADD PUSH1 0x0 KECCAK256 SLOAD SUB PUSH2 0x43F JUMPI PUSH1 0x5 PUSH1 0x0 DUP2 SLOAD DUP1 SWAP3 SWAP2 SWAP1 PUSH2 0x439 SWAP1 PUSH2 0x102B JUMP JUMPDEST SWAP2 SWAP1 POP SSTORE POP JUMPDEST CALLVALUE PUSH1 0x0 DUP1 CALLER PUSH20 0xFFFFFFFFFFFFFFFFFFFFFFFFFFFFFFFFFFFFFFFF AND PUSH20 0xFFFFFFFFFFFFFFFFFFFFFFFFFFFFFFFFFFFFFFFF AND DUP2 MSTORE PUSH1 0x20 ADD SWAP1 DUP2 MSTORE PUSH1 0x20 ADD PUSH1 0x0 KECCAK256 PUSH1 0x0 DUP3 DUP3 SLOAD PUSH2 0x48D SWAP2 SWAP1 PUSH2 0x1073 JUMP JUMPDEST SWAP3 POP POP DUP2 SWAP1 SSTORE POP CALLVALUE PUSH1 0x6 PUSH1 0x0 DUP3 DUP3 SLOAD PUSH2 0x4A6 SWAP2 SWAP1 PUSH2 0x1073 JUMP JUMPDEST SWAP3 POP POP DUP2 SWAP1 SSTORE POP JUMP JUMPDEST PUSH1 0x0 SELFBALANCE SWAP1 POP SWAP1 JUMP JUMPDEST PUSH1 0x1 PUSH1 0x0 SWAP1 SLOAD SWAP1 PUSH2 0x100 EXP SWAP1 DIV PUSH20 0xFFFFFFFFFFFFFFFFFFFFFFFFFFFFFFFFFFFFFFFF AND PUSH20 0xFFFFFFFFFFFFFFFFFFFFFFFFFFFFFFFFFFFFFFFF AND CALLER PUSH20 0xFFFFFFFFFFFFFFFFFFFFFFFFFFFFFFFFFFFFFFFF AND EQ PUSH2 0x547 JUMPI PUSH1 0x40 MLOAD PUSH32 0x8C379A000000000000000000000000000000000000000000000000000000000 DUP2 MSTORE PUSH1 0x4 ADD PUSH2 0x53E SWAP1 PUSH2 0x10F3 JUMP JUMPDEST PUSH1 0x40 MLOAD DUP1 SWAP2 SUB SWAP1 REVERT JUMPDEST PUSH1 0x0 PUSH1 0x7 PUSH1 0x0 PUSH1 0x8 SLOAD DUP2 MSTORE PUSH1 0x20 ADD SWAP1 DUP2 MSTORE PUSH1 0x20 ADD PUSH1 0x0 KECCAK256 SWAP1 POP PUSH1 0x8 PUSH1 0x0 DUP2 SLOAD DUP1 SWAP3 SWAP2 SWAP1 PUSH2 0x573 SWAP1 PUSH2 0x102B JUMP JUMPDEST SWAP2 SWAP1 POP SSTORE POP DUP4 DUP2 PUSH1 0x0 ADD SWAP1 DUP2 PUSH2 0x589 SWAP2 SWAP1 PUSH2 0x131F JUMP JUMPDEST POP DUP3 DUP2 PUSH1 0x1 ADD PUSH1 0x0 PUSH2 0x100 EXP DUP2 SLOAD DUP2 PUSH20 0xFFFFFFFFFFFFFFFFFFFFFFFFFFFFFFFFFFFFFFFF MUL NOT AND SWAP1 DUP4 PUSH20 0xFFFFFFFFFFFFFFFFFFFFFFFFFFFFFFFFFFFFFFFF AND MUL OR SWAP1 SSTORE POP DUP2 DUP2 PUSH1 0x2 ADD DUP2 SWAP1 SSTORE POP PUSH1 0x1 DUP2 PUSH1 0x3 ADD PUSH1 0x0 PUSH2 0x100 EXP DUP2 SLOAD DUP2 PUSH1 0xFF MUL NOT AND SWAP1 DUP4 ISZERO ISZERO MUL OR SWAP1 SSTORE POP PUSH1 0x0 DUP2 PUSH1 0x4 ADD DUP2 SWAP1 SSTORE POP POP POP POP POP JUMP JUMPDEST PUSH1 0x0 PUSH1 0x20 MSTORE DUP1 PUSH1 0x0 MSTORE PUSH1 0x40 PUSH1 0x0 KECCAK256 PUSH1 0x0 SWAP2 POP SWAP1 POP SLOAD DUP2 JUMP JUMPDEST PUSH1 0x4 SLOAD DUP2 JUMP JUMPDEST PUSH1 0x1 PUSH1 0x0 SWAP1 SLOAD SWAP1 PUSH2 0x100 EXP SWAP1 DIV PUSH20 0xFFFFFFFFFFFFFFFFFFFFFFFFFFFFFFFFFFFFFFFF AND DUP2 JUMP JUMPDEST PUSH1 0x0 DUP1 PUSH1 0x0 CALLER PUSH20 0xFFFFFFFFFFFFFFFFFFFFFFFFFFFFFFFFFFFFFFFF AND PUSH20 0xFFFFFFFFFFFFFFFFFFFFFFFFFFFFFFFFFFFFFFFF AND DUP2 MSTORE PUSH1 0x20 ADD SWAP1 DUP2 MSTORE PUSH1 0x20 ADD PUSH1 0x0 KECCAK256 SLOAD LT PUSH2 0x692 JUMPI PUSH1 0x0 DUP1 REVERT JUMPDEST PUSH1 0x0 PUSH1 0x7 PUSH1 0x0 DUP4 DUP2 MSTORE PUSH1 0x20 ADD SWAP1 DUP2 MSTORE PUSH1 0x20 ADD PUSH1 0x0 KECCAK256 SWAP1 POP PUSH1 0x0 DUP2 PUSH1 0x5 ADD PUSH1 0x0 CALLER PUSH20 0xFFFFFFFFFFFFFFFFFFFFFFFFFFFFFFFFFFFFFFFF AND PUSH20 0xFFFFFFFFFFFFFFFFFFFFFFFFFFFFFFFFFFFFFFFF AND DUP2 MSTORE PUSH1 0x20 ADD SWAP1 DUP2 MSTORE PUSH1 0x20 ADD PUSH1 0x0 KECCAK256 PUSH1 0x0 PUSH2 0x100 EXP DUP2 SLOAD DUP2 PUSH1 0xFF MUL NOT AND SWAP1 DUP4 ISZERO ISZERO MUL OR SWAP1 SSTORE PUSH2 0x741 JUMPI PUSH1 0x40 MLOAD PUSH32 0x8C379A000000000000000000000000000000000000000000000000000000000 DUP2 MSTORE PUSH1 0x4 ADD PUSH2 0x738 SWAP1 PUSH2 0x143D JUMP JUMPDEST PUSH1 0x40 MLOAD DUP1 SWAP2 SUB SWAP1 REVERT JUMPDEST PUSH1 0x1 DUP2 PUSH1 0x5 ADD PUSH1 0x0 CALLER PUSH20 0xFFFFFFFFFFFFFFFFFFFFFFFFFFFFFFFFFFFFFFFF AND PUSH20 0xFFFFFFFFFFFFFFFFFFFFFFFFFFFFFFFFFFFFFFFF AND DUP2 MSTORE PUSH1 0x20 ADD SWAP1 DUP2 MSTORE PUSH1 0x20 ADD PUSH1 0x0 KECCAK256 PUSH1 0x0 PUSH2 0x100 EXP DUP2 SLOAD DUP2 PUSH1 0xFF MUL NOT AND SWAP1 DUP4 ISZERO ISZERO MUL OR SWAP1 SSTORE POP DUP1 PUSH1 0x4 ADD PUSH1 0x0 DUP2 SLOAD DUP1 SWAP3 SWAP2 SWAP1 PUSH2 0x7B0 SWAP1 PUSH2 0x102B JUMP JUMPDEST SWAP2 SWAP1 POP SSTORE POP POP POP JUMP JUMPDEST PUSH1 0x2 SLOAD PUSH1 0x6 SLOAD LT DUP1 ISZERO PUSH2 0x7CD JUMPI POP PUSH1 0x4 SLOAD TIMESTAMP GT JUMPDEST PUSH2 0x7D6 JUMPI PUSH1 0x0 DUP1 REVERT JUMPDEST PUSH1 0x0 DUP1 PUSH1 0x0 CALLER PUSH20 0xFFFFFFFFFFFFFFFFFFFFFFFFFFFFFFFFFFFFFFFF AND PUSH20 0xFFFFFFFFFFFFFFFFFFFFFFFFFFFFFFFFFFFFFFFF AND DUP2 MSTORE PUSH1 0x20 ADD SWAP1 DUP2 MSTORE PUSH1 0x20 ADD PUSH1 0x0 KECCAK256 SLOAD LT PUSH2 0x857 JUMPI PUSH1 0x40 MLOAD PUSH32 0x8C379A000000000000000000000000000000000000000000000000000000000 DUP2 MSTORE PUSH1 0x4 ADD PUSH2 0x84E SWAP1 PUSH2 0x14A9 JUMP JUMPDEST PUSH1 0x40 MLOAD DUP1 SWAP2 SUB SWAP1 REVERT JUMPDEST PUSH1 0x0 CALLER SWAP1 POP DUP1 PUSH20 0xFFFFFFFFFFFFFFFFFFFFFFFFFFFFFFFFFFFFFFFF AND PUSH2 0x8FC PUSH1 0x0 DUP1 CALLER PUSH20 0xFFFFFFFFFFFFFFFFFFFFFFFFFFFFFFFFFFFFFFFF AND PUSH20 0xFFFFFFFFFFFFFFFFFFFFFFFFFFFFFFFFFFFFFFFF AND DUP2 MSTORE PUSH1 0x20 ADD SWAP1 DUP2 MSTORE PUSH1 0x20 ADD PUSH1 0x0 KECCAK256 SLOAD SWAP1 DUP2 ISZERO MUL SWAP1 PUSH1 0x40 MLOAD PUSH1 0x0 PUSH1 0x40 MLOAD DUP1 DUP4 SUB DUP2 DUP6 DUP9 DUP9 CALL SWAP4 POP POP POP POP ISZERO DUP1 ISZERO PUSH2 0x8E0 JUMPI RETURNDATASIZE PUSH1 0x0 DUP1 RETURNDATACOPY RETURNDATASIZE PUSH1 0x0 REVERT JUMPDEST POP PUSH1 0x0 DUP1 PUSH1 0x0 CALLER PUSH20 0xFFFFFFFFFFFFFFFFFFFFFFFFFFFFFFFFFFFFFFFF AND PUSH20 0xFFFFFFFFFFFFFFFFFFFFFFFFFFFFFFFFFFFFFFFF AND DUP2 MSTORE PUSH1 0x20 ADD SWAP1 DUP2 MSTORE PUSH1 0x20 ADD PUSH1 0x0 KECCAK256 DUP2 SWAP1 SSTORE POP POP JUMP JUMPDEST PUSH1 0x5 SLOAD DUP2 JUMP JUMPDEST PUSH1 0x1 PUSH1 0x0 SWAP1 SLOAD SWAP1 PUSH2 0x100 EXP SWAP1 DIV PUSH20 0xFFFFFFFFFFFFFFFFFFFFFFFFFFFFFFFFFFFFFFFF AND PUSH20 0xFFFFFFFFFFFFFFFFFFFFFFFFFFFFFFFFFFFFFFFF AND CALLER PUSH20 0xFFFFFFFFFFFFFFFFFFFFFFFFFFFFFFFFFFFFFFFF AND EQ PUSH2 0x9BE JUMPI PUSH1 0x40 MLOAD PUSH32 0x8C379A000000000000000000000000000000000000000000000000000000000 DUP2 MSTORE PUSH1 0x4 ADD PUSH2 0x9B5 SWAP1 PUSH2 0x10F3 JUMP JUMPDEST PUSH1 0x40 MLOAD DUP1 SWAP2 SUB SWAP1 REVERT JUMPDEST PUSH1 0x2 SLOAD PUSH1 0x6 SLOAD GT ISZERO PUSH2 0x9CF JUMPI PUSH1 0x0 DUP1 REVERT JUMPDEST PUSH1 0x0 PUSH1 0x7 PUSH1 0x0 DUP4 DUP2 MSTORE PUSH1 0x20 ADD SWAP1 DUP2 MSTORE PUSH1 0x20 ADD PUSH1 0x0 KECCAK256 SWAP1 POP POP POP JUMP JUMPDEST PUSH1 0x8 SLOAD DUP2 JUMP JUMPDEST PUSH1 0x6 SLOAD DUP2 JUMP JUMPDEST PUSH1 0x2 SLOAD DUP2 JUMP JUMPDEST PUSH1 0x7 PUSH1 0x20 MSTORE DUP1 PUSH1 0x0 MSTORE PUSH1 0x40 PUSH1 0x0 KECCAK256 PUSH1 0x0 SWAP2 POP SWAP1 POP DUP1 PUSH1 0x0 ADD DUP1 SLOAD PUSH2 0xA1F SWAP1 PUSH2 0x1142 JUMP JUMPDEST DUP1 PUSH1 0x1F ADD PUSH1 0x20 DUP1 SWAP2 DIV MUL PUSH1 0x20 ADD PUSH1 0x40 MLOAD SWAP1 DUP2 ADD PUSH1 0x40 MSTORE DUP1 SWAP3 SWAP2 SWAP1 DUP2 DUP2 MSTORE PUSH1 0x20 ADD DUP3 DUP1 SLOAD PUSH2 0xA4B SWAP1 PUSH2 0x1142 JUMP JUMPDEST DUP1 ISZERO PUSH2 0xA98 JUMPI DUP1 PUSH1 0x1F LT PUSH2 0xA6D JUMPI PUSH2 0x100 DUP1 DUP4 SLOAD DIV MUL DUP4 MSTORE SWAP2 PUSH1 0x20 ADD SWAP2 PUSH2 0xA98 JUMP JUMPDEST DUP3 ADD SWAP2 SWAP1 PUSH1 0x0 MSTORE PUSH1 0x20 PUSH1 0x0 KECCAK256 SWAP1 JUMPDEST DUP2 SLOAD DUP2 MSTORE SWAP1 PUSH1 0x1 ADD SWAP1 PUSH1 0x20 ADD DUP1 DUP4 GT PUSH2 0xA7B JUMPI DUP3 SWAP1 SUB PUSH1 0x1F AND DUP3 ADD SWAP2 JUMPDEST POP POP POP POP POP SWAP1 DUP1 PUSH1 0x1 ADD PUSH1 0x0 SWAP1 SLOAD SWAP1 PUSH2 0x100 EXP SWAP1 DIV PUSH20 0xFFFFFFFFFFFFFFFFFFFFFFFFFFFFFFFFFFFFFFFF AND SWAP1 DUP1 PUSH1 0x2 ADD SLOAD SWAP1 DUP1 PUSH1 0x3 ADD PUSH1 0x0 SWAP1 SLOAD SWAP1 PUSH2 0x100 EXP SWAP1 DIV PUSH1 0xFF AND SWAP1 DUP1 PUSH1 0x4 ADD SLOAD SWAP1 POP DUP6 JUMP JUMPDEST PUSH1 0x0 DUP2 SWAP1 POP SWAP2 SWAP1 POP JUMP JUMPDEST PUSH2 0xAFA DUP2 PUSH2 0xAE7 JUMP JUMPDEST DUP3 MSTORE POP POP JUMP JUMPDEST PUSH1 0x0 PUSH1 0x20 DUP3 ADD SWAP1 POP PUSH2 0xB15 PUSH1 0x0 DUP4 ADD DUP5 PUSH2 0xAF1 JUMP JUMPDEST SWAP3 SWAP2 POP POP JUMP JUMPDEST PUSH1 0x0 PUSH1 0x40 MLOAD SWAP1 POP SWAP1 JUMP JUMPDEST PUSH1 0x0 DUP1 REVERT JUMPDEST PUSH1 0x0 DUP1 REVERT JUMPDEST PUSH1 0x0 DUP1 REVERT JUMPDEST PUSH1 0x0 DUP1 REVERT JUMPDEST PUSH1 0x0 PUSH1 0x1F NOT PUSH1 0x1F DUP4 ADD AND SWAP1 POP SWAP2 SWAP1 POP JUMP JUMPDEST PUSH32 0x4E487B7100000000000000000000000000000000000000000000000000000000 PUSH1 0x0 MSTORE PUSH1 0x41 PUSH1 0x4 MSTORE PUSH1 0x24 PUSH1 0x0 REVERT JUMPDEST PUSH2 0xB82 DUP3 PUSH2 0xB39 JUMP JUMPDEST DUP2 ADD DUP2 DUP2 LT PUSH8 0xFFFFFFFFFFFFFFFF DUP3 GT OR ISZERO PUSH2 0xBA1 JUMPI PUSH2 0xBA0 PUSH2 0xB4A JUMP JUMPDEST JUMPDEST DUP1 PUSH1 0x40 MSTORE POP POP POP JUMP JUMPDEST PUSH1 0x0 PUSH2 0xBB4 PUSH2 0xB1B JUMP JUMPDEST SWAP1 POP PUSH2 0xBC0 DUP3 DUP3 PUSH2 0xB79 JUMP JUMPDEST SWAP2 SWAP1 POP JUMP JUMPDEST PUSH1 0x0 PUSH8 0xFFFFFFFFFFFFFFFF DUP3 GT ISZERO PUSH2 0xBE0 JUMPI PUSH2 0xBDF PUSH2 0xB4A JUMP JUMPDEST JUMPDEST PUSH2 0xBE9 DUP3 PUSH2 0xB39 JUMP JUMPDEST SWAP1 POP PUSH1 0x20 DUP2 ADD SWAP1 POP SWAP2 SWAP1 POP JUMP JUMPDEST DUP3 DUP2 DUP4 CALLDATACOPY PUSH1 0x0 DUP4 DUP4 ADD MSTORE POP POP POP JUMP JUMPDEST PUSH1 0x0 PUSH2 0xC18 PUSH2 0xC13 DUP5 PUSH2 0xBC5 JUMP JUMPDEST PUSH2 0xBAA JUMP JUMPDEST SWAP1 POP DUP3 DUP2 MSTORE PUSH1 0x20 DUP2 ADD DUP5 DUP5 DUP5 ADD GT ISZERO PUSH2 0xC34 JUMPI PUSH2 0xC33 PUSH2 0xB34 JUMP JUMPDEST JUMPDEST PUSH2 0xC3F DUP5 DUP3 DUP6 PUSH2 0xBF6 JUMP JUMPDEST POP SWAP4 SWAP3 POP POP POP JUMP JUMPDEST PUSH1 0x0 DUP3 PUSH1 0x1F DUP4 ADD SLT PUSH2 0xC5C JUMPI PUSH2 0xC5B PUSH2 0xB2F JUMP JUMPDEST JUMPDEST DUP2 CALLDATALOAD PUSH2 0xC6C DUP5 DUP3 PUSH1 0x20 DUP7 ADD PUSH2 0xC05 JUMP JUMPDEST SWAP2 POP POP SWAP3 SWAP2 POP POP JUMP JUMPDEST PUSH1 0x0 PUSH20 0xFFFFFFFFFFFFFFFFFFFFFFFFFFFFFFFFFFFFFFFF DUP3 AND SWAP1 POP SWAP2 SWAP1 POP JUMP JUMPDEST PUSH1 0x0 PUSH2 0xCA0 DUP3 PUSH2 0xC75 JUMP JUMPDEST SWAP1 POP SWAP2 SWAP1 POP JUMP JUMPDEST PUSH2 0xCB0 DUP2 PUSH2 0xC95 JUMP JUMPDEST DUP2 EQ PUSH2 0xCBB JUMPI PUSH1 0x0 DUP1 REVERT JUMPDEST POP JUMP JUMPDEST PUSH1 0x0 DUP2 CALLDATALOAD SWAP1 POP PUSH2 0xCCD DUP2 PUSH2 0xCA7 JUMP JUMPDEST SWAP3 SWAP2 POP POP JUMP JUMPDEST PUSH2 0xCDC DUP2 PUSH2 0xAE7 JUMP JUMPDEST DUP2 EQ PUSH2 0xCE7 JUMPI PUSH1 0x0 DUP1 REVERT JUMPDEST POP JUMP JUMPDEST PUSH1 0x0 DUP2 CALLDATALOAD SWAP1 POP PUSH2 0xCF9 DUP2 PUSH2 0xCD3 JUMP JUMPDEST SWAP3 SWAP2 POP POP JUMP JUMPDEST PUSH1 0x0 DUP1 PUSH1 0x0 PUSH1 0x60 DUP5 DUP7 SUB SLT ISZERO PUSH2 0xD18 JUMPI PUSH2 0xD17 PUSH2 0xB25 JUMP JUMPDEST JUMPDEST PUSH1 0x0 DUP5 ADD CALLDATALOAD PUSH8 0xFFFFFFFFFFFFFFFF DUP2 GT ISZERO PUSH2 0xD36 JUMPI PUSH2 0xD35 PUSH2 0xB2A JUMP JUMPDEST JUMPDEST PUSH2 0xD42 DUP7 DUP3 DUP8 ADD PUSH2 0xC47 JUMP JUMPDEST SWAP4 POP POP PUSH1 0x20 PUSH2 0xD53 DUP7 DUP3 DUP8 ADD PUSH2 0xCBE JUMP JUMPDEST SWAP3 POP POP PUSH1 0x40 PUSH2 0xD64 DUP7 DUP3 DUP8 ADD PUSH2 0xCEA JUMP JUMPDEST SWAP2 POP POP SWAP3 POP SWAP3 POP SWAP3 JUMP JUMPDEST PUSH1 0x0 PUSH2 0xD79 DUP3 PUSH2 0xC75 JUMP JUMPDEST SWAP1 POP SWAP2 SWAP1 POP JUMP JUMPDEST PUSH2 0xD89 DUP2 PUSH2 0xD6E JUMP JUMPDEST DUP2 EQ PUSH2 0xD94 JUMPI PUSH1 0x0 DUP1 REVERT JUMPDEST POP JUMP JUMPDEST PUSH1 0x0 DUP2 CALLDATALOAD SWAP1 POP PUSH2 0xDA6 DUP2 PUSH2 0xD80 JUMP JUMPDEST SWAP3 SWAP2 POP POP JUMP JUMPDEST PUSH1 0x0 PUSH1 0x20 DUP3 DUP5 SUB SLT ISZERO PUSH2 0xDC2 JUMPI PUSH2 0xDC1 PUSH2 0xB25 JUMP JUMPDEST JUMPDEST PUSH1 0x0 PUSH2 0xDD0 DUP5 DUP3 DUP6 ADD PUSH2 0xD97 JUMP JUMPDEST SWAP2 POP POP SWAP3 SWAP2 POP POP JUMP JUMPDEST PUSH2 0xDE2 DUP2 PUSH2 0xD6E JUMP JUMPDEST DUP3 MSTORE POP POP JUMP JUMPDEST PUSH1 0x0 PUSH1 0x20 DUP3 ADD SWAP1 POP PUSH2 0xDFD PUSH1 0x0 DUP4 ADD DUP5 PUSH2 0xDD9 JUMP JUMPDEST SWAP3 SWAP2 POP POP JUMP JUMPDEST PUSH1 0x0 PUSH1 0x20 DUP3 DUP5 SUB SLT ISZERO PUSH2 0xE19 JUMPI PUSH2 0xE18 PUSH2 0xB25 JUMP JUMPDEST JUMPDEST PUSH1 0x0 PUSH2 0xE27 DUP5 DUP3 DUP6 ADD PUSH2 0xCEA JUMP JUMPDEST SWAP2 POP POP SWAP3 SWAP2 POP POP JUMP JUMPDEST PUSH1 0x0 DUP2 MLOAD SWAP1 POP SWAP2 SWAP1 POP JUMP JUMPDEST PUSH1 0x0 DUP3 DUP3 MSTORE PUSH1 0x20 DUP3 ADD SWAP1 POP SWAP3 SWAP2 POP POP JUMP JUMPDEST PUSH1 0x0 JUMPDEST DUP4 DUP2 LT ISZERO PUSH2 0xE6A JUMPI DUP1 DUP3 ADD MLOAD DUP2 DUP5 ADD MSTORE PUSH1 0x20 DUP2 ADD SWAP1 POP PUSH2 0xE4F JUMP JUMPDEST PUSH1 0x0 DUP5 DUP5 ADD MSTORE POP POP POP POP JUMP JUMPDEST PUSH1 0x0 PUSH2 0xE81 DUP3 PUSH2 0xE30 JUMP JUMPDEST PUSH2 0xE8B DUP2 DUP6 PUSH2 0xE3B JUMP JUMPDEST SWAP4 POP PUSH2 0xE9B DUP2 DUP6 PUSH1 0x20 DUP7 ADD PUSH2 0xE4C JUMP JUMPDEST PUSH2 0xEA4 DUP2 PUSH2 0xB39 JUMP JUMPDEST DUP5 ADD SWAP2 POP POP SWAP3 SWAP2 POP POP JUMP JUMPDEST PUSH1 0x0 DUP2 ISZERO ISZERO SWAP1 POP SWAP2 SWAP1 POP JUMP JUMPDEST PUSH2 0xEC4 DUP2 PUSH2 0xEAF JUMP JUMPDEST DUP3 MSTORE POP POP JUMP JUMPDEST PUSH1 0x0 PUSH1 0xA0 DUP3 ADD SWAP1 POP DUP2 DUP2 SUB PUSH1 0x0 DUP4 ADD MSTORE PUSH2 0xEE4 DUP2 DUP9 PUSH2 0xE76 JUMP JUMPDEST SWAP1 POP PUSH2 0xEF3 PUSH1 0x20 DUP4 ADD DUP8 PUSH2 0xDD9 JUMP JUMPDEST PUSH2 0xF00 PUSH1 0x40 DUP4 ADD DUP7 PUSH2 0xAF1 JUMP JUMPDEST PUSH2 0xF0D PUSH1 0x60 DUP4 ADD DUP6 PUSH2 0xEBB JUMP JUMPDEST PUSH2 0xF1A PUSH1 0x80 DUP4 ADD DUP5 PUSH2 0xAF1 JUMP JUMPDEST SWAP7 SWAP6 POP POP POP POP POP POP JUMP JUMPDEST PUSH32 0x4465616C696E652077657265206D697373696E67000000000000000000000000 PUSH1 0x0 DUP3 ADD MSTORE POP JUMP JUMPDEST PUSH1 0x0 PUSH2 0xF5A PUSH1 0x14 DUP4 PUSH2 0xE3B JUMP JUMPDEST SWAP2 POP PUSH2 0xF65 DUP3 PUSH2 0xF24 JUMP JUMPDEST PUSH1 0x20 DUP3 ADD SWAP1 POP SWAP2 SWAP1 POP JUMP JUMPDEST PUSH1 0x0 PUSH1 0x20 DUP3 ADD SWAP1 POP DUP2 DUP2 SUB PUSH1 0x0 DUP4 ADD MSTORE PUSH2 0xF89 DUP2 PUSH2 0xF4D JUMP JUMPDEST SWAP1 POP SWAP2 SWAP1 POP JUMP JUMPDEST PUSH32 0x596F752077657265206E6F7420626520656C696769626C650000000000000000 PUSH1 0x0 DUP3 ADD MSTORE POP JUMP JUMPDEST PUSH1 0x0 PUSH2 0xFC6 PUSH1 0x18 DUP4 PUSH2 0xE3B JUMP JUMPDEST SWAP2 POP PUSH2 0xFD1 DUP3 PUSH2 0xF90 JUMP JUMPDEST PUSH1 0x20 DUP3 ADD SWAP1 POP SWAP2 SWAP1 POP JUMP JUMPDEST PUSH1 0x0 PUSH1 0x20 DUP3 ADD SWAP1 POP DUP2 DUP2 SUB PUSH1 0x0 DUP4 ADD MSTORE PUSH2 0xFF5 DUP2 PUSH2 0xFB9 JUMP JUMPDEST SWAP1 POP SWAP2 SWAP1 POP JUMP JUMPDEST PUSH32 0x4E487B7100000000000000000000000000000000000000000000000000000000 PUSH1 0x0 MSTORE PUSH1 0x11 PUSH1 0x4 MSTORE PUSH1 0x24 PUSH1 0x0 REVERT JUMPDEST PUSH1 0x0 PUSH2 0x1036 DUP3 PUSH2 0xAE7 JUMP JUMPDEST SWAP2 POP PUSH32 0xFFFFFFFFFFFFFFFFFFFFFFFFFFFFFFFFFFFFFFFFFFFFFFFFFFFFFFFFFFFFFFFF DUP3 SUB PUSH2 0x1068 JUMPI PUSH2 0x1067 PUSH2 0xFFC JUMP JUMPDEST JUMPDEST PUSH1 0x1 DUP3 ADD SWAP1 POP SWAP2 SWAP1 POP JUMP JUMPDEST PUSH1 0x0 PUSH2 0x107E DUP3 PUSH2 0xAE7 JUMP JUMPDEST SWAP2 POP PUSH2 0x1089 DUP4 PUSH2 0xAE7 JUMP JUMPDEST SWAP3 POP DUP3 DUP3 ADD SWAP1 POP DUP1 DUP3 GT ISZERO PUSH2 0x10A1 JUMPI PUSH2 0x10A0 PUSH2 0xFFC JUMP JUMPDEST JUMPDEST SWAP3 SWAP2 POP POP JUMP JUMPDEST PUSH32 0x4F6E6C792063616E20416363657373207468652046756E6374696F6E00000000 PUSH1 0x0 DUP3 ADD MSTORE POP JUMP JUMPDEST PUSH1 0x0 PUSH2 0x10DD PUSH1 0x1C DUP4 PUSH2 0xE3B JUMP JUMPDEST SWAP2 POP PUSH2 0x10E8 DUP3 PUSH2 0x10A7 JUMP JUMPDEST PUSH1 0x20 DUP3 ADD SWAP1 POP SWAP2 SWAP1 POP JUMP JUMPDEST PUSH1 0x0 PUSH1 0x20 DUP3 ADD SWAP1 POP DUP2 DUP2 SUB PUSH1 0x0 DUP4 ADD MSTORE PUSH2 0x110C DUP2 PUSH2 0x10D0 JUMP JUMPDEST SWAP1 POP SWAP2 SWAP1 POP JUMP JUMPDEST PUSH32 0x4E487B7100000000000000000000000000000000000000000000000000000000 PUSH1 0x0 MSTORE PUSH1 0x22 PUSH1 0x4 MSTORE PUSH1 0x24 PUSH1 0x0 REVERT JUMPDEST PUSH1 0x0 PUSH1 0x2 DUP3 DIV SWAP1 POP PUSH1 0x1 DUP3 AND DUP1 PUSH2 0x115A JUMPI PUSH1 0x7F DUP3 AND SWAP2 POP JUMPDEST PUSH1 0x20 DUP3 LT DUP2 SUB PUSH2 0x116D JUMPI PUSH2 0x116C PUSH2 0x1113 JUMP JUMPDEST JUMPDEST POP SWAP2 SWAP1 POP JUMP JUMPDEST PUSH1 0x0 DUP2 SWAP1 POP DUP2 PUSH1 0x0 MSTORE PUSH1 0x20 PUSH1 0x0 KECCAK256 SWAP1 POP SWAP2 SWAP1 POP JUMP JUMPDEST PUSH1 0x0 PUSH1 0x20 PUSH1 0x1F DUP4 ADD DIV SWAP1 POP SWAP2 SWAP1 POP JUMP JUMPDEST PUSH1 0x0 DUP3 DUP3 SHL SWAP1 POP SWAP3 SWAP2 POP POP JUMP JUMPDEST PUSH1 0x0 PUSH1 0x8 DUP4 MUL PUSH2 0x11D5 PUSH32 0xFFFFFFFFFFFFFFFFFFFFFFFFFFFFFFFFFFFFFFFFFFFFFFFFFFFFFFFFFFFFFFFF DUP3 PUSH2 0x1198 JUMP JUMPDEST PUSH2 0x11DF DUP7 DUP4 PUSH2 0x1198 JUMP JUMPDEST SWAP6 POP DUP1 NOT DUP5 AND SWAP4 POP DUP1 DUP7 AND DUP5 OR SWAP3 POP POP POP SWAP4 SWAP3 POP POP POP JUMP JUMPDEST PUSH1 0x0 DUP2 SWAP1 POP SWAP2 SWAP1 POP JUMP JUMPDEST PUSH1 0x0 PUSH2 0x121C PUSH2 0x1217 PUSH2 0x1212 DUP5 PUSH2 0xAE7 JUMP JUMPDEST PUSH2 0x11F7 JUMP JUMPDEST PUSH2 0xAE7 JUMP JUMPDEST SWAP1 POP SWAP2 SWAP1 POP JUMP JUMPDEST PUSH1 0x0 DUP2 SWAP1 POP SWAP2 SWAP1 POP JUMP JUMPDEST PUSH2 0x1236 DUP4 PUSH2 0x1201 JUMP JUMPDEST PUSH2 0x124A PUSH2 0x1242 DUP3 PUSH2 0x1223 JUMP JUMPDEST DUP5 DUP5 SLOAD PUSH2 0x11A5 JUMP JUMPDEST DUP3 SSTORE POP POP POP POP JUMP JUMPDEST PUSH1 0x0 SWAP1 JUMP JUMPDEST PUSH2 0x125F PUSH2 0x1252 JUMP JUMPDEST PUSH2 0x126A DUP2 DUP5 DUP5 PUSH2 0x122D JUMP JUMPDEST POP POP POP JUMP JUMPDEST JUMPDEST DUP2 DUP2 LT ISZERO PUSH2 0x128E JUMPI PUSH2 0x1283 PUSH1 0x0 DUP3 PUSH2 0x1257 JUMP JUMPDEST PUSH1 0x1 DUP2 ADD SWAP1 POP PUSH2 0x1270 JUMP JUMPDEST POP POP JUMP JUMPDEST PUSH1 0x1F DUP3 GT ISZERO PUSH2 0x12D3 JUMPI PUSH2 0x12A4 DUP2 PUSH2 0x1173 JUMP JUMPDEST PUSH2 0x12AD DUP5 PUSH2 0x1188 JUMP JUMPDEST DUP2 ADD PUSH1 0x20 DUP6 LT ISZERO PUSH2 0x12BC JUMPI DUP2 SWAP1 POP JUMPDEST PUSH2 0x12D0 PUSH2 0x12C8 DUP6 PUSH2 0x1188 JUMP JUMPDEST DUP4 ADD DUP3 PUSH2 0x126F JUMP JUMPDEST POP POP JUMPDEST POP POP POP JUMP JUMPDEST PUSH1 0x0 DUP3 DUP3 SHR SWAP1 POP SWAP3 SWAP2 POP POP JUMP JUMPDEST PUSH1 0x0 PUSH2 0x12F6 PUSH1 0x0 NOT DUP5 PUSH1 0x8 MUL PUSH2 0x12D8 JUMP JUMPDEST NOT DUP1 DUP4 AND SWAP2 POP POP SWAP3 SWAP2 POP POP JUMP JUMPDEST PUSH1 0x0 PUSH2 0x130F DUP4 DUP4 PUSH2 0x12E5 JUMP JUMPDEST SWAP2 POP DUP3 PUSH1 0x2 MUL DUP3 OR SWAP1 POP SWAP3 SWAP2 POP POP JUMP JUMPDEST PUSH2 0x1328 DUP3 PUSH2 0xE30 JUMP JUMPDEST PUSH8 0xFFFFFFFFFFFFFFFF DUP2 GT ISZERO PUSH2 0x1341 JUMPI PUSH2 0x1340 PUSH2 0xB4A JUMP JUMPDEST JUMPDEST PUSH2 0x134B DUP3 SLOAD PUSH2 0x1142 JUMP JUMPDEST PUSH2 0x1356 DUP3 DUP3 DUP6 PUSH2 0x1292 JUMP JUMPDEST PUSH1 0x0 PUSH1 0x20 SWAP1 POP PUSH1 0x1F DUP4 GT PUSH1 0x1 DUP2 EQ PUSH2 0x1389 JUMPI PUSH1 0x0 DUP5 ISZERO PUSH2 0x1377 JUMPI DUP3 DUP8 ADD MLOAD SWAP1 POP JUMPDEST PUSH2 0x1381 DUP6 DUP3 PUSH2 0x1303 JUMP JUMPDEST DUP7 SSTORE POP PUSH2 0x13E9 JUMP JUMPDEST PUSH1 0x1F NOT DUP5 AND PUSH2 0x1397 DUP7 PUSH2 0x1173 JUMP JUMPDEST PUSH1 0x0 JUMPDEST DUP3 DUP2 LT ISZERO PUSH2 0x13BF JUMPI DUP5 DUP10 ADD MLOAD DUP3 SSTORE PUSH1 0x1 DUP3 ADD SWAP2 POP PUSH1 0x20 DUP6 ADD SWAP5 POP PUSH1 0x20 DUP2 ADD SWAP1 POP PUSH2 0x139A JUMP JUMPDEST DUP7 DUP4 LT ISZERO PUSH2 0x13DC JUMPI DUP5 DUP10 ADD MLOAD PUSH2 0x13D8 PUSH1 0x1F DUP10 AND DUP3 PUSH2 0x12E5 JUMP JUMPDEST DUP4 SSTORE POP JUMPDEST PUSH1 0x1 PUSH1 0x2 DUP9 MUL ADD DUP9 SSTORE POP POP POP JUMPDEST POP POP POP POP POP POP JUMP JUMPDEST PUSH32 0x41637475616C6C7920796F7520766F7465640000000000000000000000000000 PUSH1 0x0 DUP3 ADD MSTORE POP JUMP JUMPDEST PUSH1 0x0 PUSH2 0x1427 PUSH1 0x12 DUP4 PUSH2 0xE3B JUMP JUMPDEST SWAP2 POP PUSH2 0x1432 DUP3 PUSH2 0x13F1 JUMP JUMPDEST PUSH1 0x20 DUP3 ADD SWAP1 POP SWAP2 SWAP1 POP JUMP JUMPDEST PUSH1 0x0 PUSH1 0x20 DUP3 ADD SWAP1 POP DUP2 DUP2 SUB PUSH1 0x0 DUP4 ADD MSTORE PUSH2 0x1456 DUP2 PUSH2 0x141A JUMP JUMPDEST SWAP1 POP SWAP2 SWAP1 POP JUMP JUMPDEST PUSH32 0x596F752077657265204E6F7420656C6769626C6520696E2046756E64696E6700 PUSH1 0x0 DUP3 ADD MSTORE POP JUMP JUMPDEST PUSH1 0x0 PUSH2 0x1493 PUSH1 0x1F DUP4 PUSH2 0xE3B JUMP JUMPDEST SWAP2 POP PUSH2 0x149E DUP3 PUSH2 0x145D JUMP JUMPDEST PUSH1 0x20 DUP3 ADD SWAP1 POP SWAP2 SWAP1 POP JUMP JUMPDEST PUSH1 0x0 PUSH1 0x20 DUP3 ADD SWAP1 POP DUP2 DUP2 SUB PUSH1 0x0 DUP4 ADD MSTORE PUSH2 0x14C2 DUP2 PUSH2 0x1486 JUMP JUMPDEST SWAP1 POP SWAP2 SWAP1 POP JUMP INVALID LOG2 PUSH5 0x6970667358 0x22 SLT KECCAK256 MOD MOD 0xB3 0xEC 0xC0 DUP2 TIMESTAMP NUMBER 0xC6 PUSH24 0x1350F36F859386A4D75EC034B56EA97214944DD1B5A36473 PUSH16 0x6C634300081100330000000000000000 "
				},
				"gasEstimates": {
					"creation": {
						"codeDepositCost": "1075000",
						"executionCost": "infinite",
						"totalCost": "infinite"
					},
					"external": {
						"contributors(address)": "2859",
						"createRequest(string,address,uint256)": "infinite",
						"deadline()": "2496",
						"getBalance()": "407",
						"manager()": "2603",
						"miniContribution()": "2453",
						"noOfContributor()": "2496",
						"numRequest()": "2451",
						"raisedAmount()": "2473",
						"refund()": "9019",
						"request(uint256)": "infinite",
						"requestAccept(uint256)": "6982",
						"sendEth()": "infinite",
						"target()": "2495",
						"voteRequest(uint256)": "2635"
					}
				},
				"methodIdentifiers": {
					"contributors(address)": "1f6d4942",
					"createRequest(string,address,uint256)": "1b16bb5c",
					"deadline()": "29dcb0cf",
					"getBalance()": "12065fe0",
					"manager()": "481c6a75",
					"miniContribution()": "05759b4d",
					"noOfContributor()": "8c9ffd40",
					"numRequest()": "b1b16431",
					"raisedAmount()": "c59ee1dc",
					"refund()": "590e1ae3",
					"request(uint256)": "d845a4b3",
					"requestAccept(uint256)": "a6a78c94",
					"sendEth()": "06e99fef",
					"target()": "d4b83992",
					"voteRequest(uint256)": "4cb6f4a5"
				}
			},
			"storageLayout": {
				"storage": [
					{
						"astId": 5,
						"contract": "Crowd.sol:crowdFunding",
						"label": "contributors",
						"offset": 0,
						"slot": "0",
						"type": "t_mapping(t_address,t_uint256)"
					},
					{
						"astId": 7,
						"contract": "Crowd.sol:crowdFunding",
						"label": "manager",
						"offset": 0,
						"slot": "1",
						"type": "t_address"
					},
					{
						"astId": 9,
						"contract": "Crowd.sol:crowdFunding",
						"label": "target",
						"offset": 0,
						"slot": "2",
						"type": "t_uint256"
					},
					{
						"astId": 11,
						"contract": "Crowd.sol:crowdFunding",
						"label": "miniContribution",
						"offset": 0,
						"slot": "3",
						"type": "t_uint256"
					},
					{
						"astId": 13,
						"contract": "Crowd.sol:crowdFunding",
						"label": "deadline",
						"offset": 0,
						"slot": "4",
						"type": "t_uint256"
					},
					{
						"astId": 15,
						"contract": "Crowd.sol:crowdFunding",
						"label": "noOfContributor",
						"offset": 0,
						"slot": "5",
						"type": "t_uint256"
					},
					{
						"astId": 17,
						"contract": "Crowd.sol:crowdFunding",
						"label": "raisedAmount",
						"offset": 0,
						"slot": "6",
						"type": "t_uint256"
					},
					{
						"astId": 37,
						"contract": "Crowd.sol:crowdFunding",
						"label": "request",
						"offset": 0,
						"slot": "7",
						"type": "t_mapping(t_uint256,t_struct(Request)32_storage)"
					},
					{
						"astId": 39,
						"contract": "Crowd.sol:crowdFunding",
						"label": "numRequest",
						"offset": 0,
						"slot": "8",
						"type": "t_uint256"
					}
				],
				"types": {
					"t_address": {
						"encoding": "inplace",
						"label": "address",
						"numberOfBytes": "20"
					},
					"t_bool": {
						"encoding": "inplace",
						"label": "bool",
						"numberOfBytes": "1"
					},
					"t_mapping(t_address,t_bool)": {
						"encoding": "mapping",
						"key": "t_address",
						"label": "mapping(address => bool)",
						"numberOfBytes": "32",
						"value": "t_bool"
					},
					"t_mapping(t_address,t_uint256)": {
						"encoding": "mapping",
						"key": "t_address",
						"label": "mapping(address => uint256)",
						"numberOfBytes": "32",
						"value": "t_uint256"
					},
					"t_mapping(t_uint256,t_struct(Request)32_storage)": {
						"encoding": "mapping",
						"key": "t_uint256",
						"label": "mapping(uint256 => struct crowdFunding.Request)",
						"numberOfBytes": "32",
						"value": "t_struct(Request)32_storage"
					},
					"t_string_storage": {
						"encoding": "bytes",
						"label": "string",
						"numberOfBytes": "32"
					},
					"t_struct(Request)32_storage": {
						"encoding": "inplace",
						"label": "struct crowdFunding.Request",
						"members": [
							{
								"astId": 19,
								"contract": "Crowd.sol:crowdFunding",
								"label": "discription",
								"offset": 0,
								"slot": "0",
								"type": "t_string_storage"
							},
							{
								"astId": 21,
								"contract": "Crowd.sol:crowdFunding",
								"label": "recipant",
								"offset": 0,
								"slot": "1",
								"type": "t_address"
							},
							{
								"astId": 23,
								"contract": "Crowd.sol:crowdFunding",
								"label": "value",
								"offset": 0,
								"slot": "2",
								"type": "t_uint256"
							},
							{
								"astId": 25,
								"contract": "Crowd.sol:crowdFunding",
								"label": "completed",
								"offset": 0,
								"slot": "3",
								"type": "t_bool"
							},
							{
								"astId": 27,
								"contract": "Crowd.sol:crowdFunding",
								"label": "noOfVoters",
								"offset": 0,
								"slot": "4",
								"type": "t_uint256"
							},
							{
								"astId": 31,
								"contract": "Crowd.sol:crowdFunding",
								"label": "voter",
								"offset": 0,
								"slot": "5",
								"type": "t_mapping(t_address,t_bool)"
							}
						],
						"numberOfBytes": "192"
					},
					"t_uint256": {
						"encoding": "inplace",
						"label": "uint256",
						"numberOfBytes": "32"
					}
				}
			},
			"userdoc": {
				"kind": "user",
				"methods": {},
				"version": 1
			}
		}
	}
}