{
	"Event.sol": {
		"OrganizingEvent": {
			"abi": [
				{
					"inputs": [
						{
							"internalType": "address",
							"name": "_organizer",
							"type": "address"
						},
						{
							"internalType": "string",
							"name": "_name",
							"type": "string"
						},
						{
							"internalType": "uint256",
							"name": "_date",
							"type": "uint256"
						},
						{
							"internalType": "uint256",
							"name": "_price",
							"type": "uint256"
						},
						{
							"internalType": "uint256",
							"name": "_ticketOpen",
							"type": "uint256"
						}
					],
					"name": "createEvent",
					"outputs": [],
					"stateMutability": "nonpayable",
					"type": "function"
				},
				{
					"inputs": [
						{
							"internalType": "uint256",
							"name": "",
							"type": "uint256"
						}
					],
					"name": "events",
					"outputs": [
						{
							"internalType": "address",
							"name": "organizer",
							"type": "address"
						},
						{
							"internalType": "string",
							"name": "name",
							"type": "string"
						},
						{
							"internalType": "uint256",
							"name": "date",
							"type": "uint256"
						},
						{
							"internalType": "uint256",
							"name": "price",
							"type": "uint256"
						},
						{
							"internalType": "uint256",
							"name": "ticketOpen",
							"type": "uint256"
						},
						{
							"internalType": "uint256",
							"name": "ticketRemain",
							"type": "uint256"
						}
					],
					"stateMutability": "view",
					"type": "function"
				},
				{
					"inputs": [
						{
							"internalType": "address",
							"name": "",
							"type": "address"
						},
						{
							"internalType": "uint256",
							"name": "",
							"type": "uint256"
						}
					],
					"name": "ticket",
					"outputs": [
						{
							"internalType": "uint256",
							"name": "",
							"type": "uint256"
						}
					],
					"stateMutability": "view",
					"type": "function"
				}
			],
			"devdoc": {
				"kind": "dev",
				"methods": {},
				"version": 1
			},
			"evm": {
				"assembly": "    /* \"Event.sol\":74:749  contract OrganizingEvent{... */\n  mstore(0x40, 0x80)\n  callvalue\n  dup1\n  iszero\n  tag_1\n  jumpi\n  0x00\n  dup1\n  revert\ntag_1:\n  pop\n  dataSize(sub_0)\n  dup1\n  dataOffset(sub_0)\n  0x00\n  codecopy\n  0x00\n  return\nstop\n\nsub_0: assembly {\n        /* \"Event.sol\":74:749  contract OrganizingEvent{... */\n      mstore(0x40, 0x80)\n      callvalue\n      dup1\n      iszero\n      tag_1\n      jumpi\n      0x00\n      dup1\n      revert\n    tag_1:\n      pop\n      jumpi(tag_2, lt(calldatasize, 0x04))\n      shr(0xe0, calldataload(0x00))\n      dup1\n      0x0b791430\n      eq\n      tag_3\n      jumpi\n      dup1\n      0xc55b9f9b\n      eq\n      tag_4\n      jumpi\n      dup1\n      0xe11bb64d\n      eq\n      tag_5\n      jumpi\n    tag_2:\n      0x00\n      dup1\n      revert\n        /* \"Event.sol\":278:312  mapping(uint=>Event) public events */\n    tag_3:\n      tag_6\n      0x04\n      dup1\n      calldatasize\n      sub\n      dup2\n      add\n      swap1\n      tag_7\n      swap2\n      swap1\n      tag_8\n      jump\t// in\n    tag_7:\n      tag_9\n      jump\t// in\n    tag_6:\n      mload(0x40)\n      tag_10\n      swap7\n      swap6\n      swap5\n      swap4\n      swap3\n      swap2\n      swap1\n      tag_11\n      jump\t// in\n    tag_10:\n      mload(0x40)\n      dup1\n      swap2\n      sub\n      swap1\n      return\n        /* \"Event.sol\":397:742  function createEvent(address _organizer,string memory _name,uint _date,uint _price,uint _ticketOpen) external {... */\n    tag_4:\n      tag_12\n      0x04\n      dup1\n      calldatasize\n      sub\n      dup2\n      add\n      swap1\n      tag_13\n      swap2\n      swap1\n      tag_14\n      jump\t// in\n    tag_13:\n      tag_15\n      jump\t// in\n    tag_12:\n      stop\n        /* \"Event.sol\":319:370  mapping(address=>mapping(uint=>uint)) public ticket */\n    tag_5:\n      tag_16\n      0x04\n      dup1\n      calldatasize\n      sub\n      dup2\n      add\n      swap1\n      tag_17\n      swap2\n      swap1\n      tag_18\n      jump\t// in\n    tag_17:\n      tag_19\n      jump\t// in\n    tag_16:\n      mload(0x40)\n      tag_20\n      swap2\n      swap1\n      tag_21\n      jump\t// in\n    tag_20:\n      mload(0x40)\n      dup1\n      swap2\n      sub\n      swap1\n      return\n        /* \"Event.sol\":278:312  mapping(uint=>Event) public events */\n    tag_9:\n      mstore(0x20, 0x00)\n      dup1\n      0x00\n      mstore\n      keccak256(0x00, 0x40)\n      0x00\n      swap2\n      pop\n      swap1\n      pop\n      dup1\n      0x00\n      add\n      0x00\n      swap1\n      sload\n      swap1\n      0x0100\n      exp\n      swap1\n      div\n      0xffffffffffffffffffffffffffffffffffffffff\n      and\n      swap1\n      dup1\n      0x01\n      add\n      dup1\n      sload\n      tag_22\n      swap1\n      tag_23\n      jump\t// in\n    tag_22:\n      dup1\n      0x1f\n      add\n      0x20\n      dup1\n      swap2\n      div\n      mul\n      0x20\n      add\n      mload(0x40)\n      swap1\n      dup2\n      add\n      0x40\n      mstore\n      dup1\n      swap3\n      swap2\n      swap1\n      dup2\n      dup2\n      mstore\n      0x20\n      add\n      dup3\n      dup1\n      sload\n      tag_24\n      swap1\n      tag_23\n      jump\t// in\n    tag_24:\n      dup1\n      iszero\n      tag_25\n      jumpi\n      dup1\n      0x1f\n      lt\n      tag_26\n      jumpi\n      0x0100\n      dup1\n      dup4\n      sload\n      div\n      mul\n      dup4\n      mstore\n      swap2\n      0x20\n      add\n      swap2\n      jump(tag_25)\n    tag_26:\n      dup3\n      add\n      swap2\n      swap1\n      0x00\n      mstore\n      keccak256(0x00, 0x20)\n      swap1\n    tag_27:\n      dup2\n      sload\n      dup2\n      mstore\n      swap1\n      0x01\n      add\n      swap1\n      0x20\n      add\n      dup1\n      dup4\n      gt\n      tag_27\n      jumpi\n      dup3\n      swap1\n      sub\n      0x1f\n      and\n      dup3\n      add\n      swap2\n    tag_25:\n      pop\n      pop\n      pop\n      pop\n      pop\n      swap1\n      dup1\n      0x02\n      add\n      sload\n      swap1\n      dup1\n      0x03\n      add\n      sload\n      swap1\n      dup1\n      0x04\n      add\n      sload\n      swap1\n      dup1\n      0x05\n      add\n      sload\n      swap1\n      pop\n      dup7\n      jump\t// out\n        /* \"Event.sol\":397:742  function createEvent(address _organizer,string memory _name,uint _date,uint _price,uint _ticketOpen) external {... */\n    tag_15:\n        /* \"Event.sol\":532:547  block.timestamp */\n      timestamp\n        /* \"Event.sol\":526:531  _date */\n      dup4\n        /* \"Event.sol\":526:547  _date>block.timestamp */\n      gt\n        /* \"Event.sol\":518:569  require(_date>block.timestamp,\"The Event has over\") */\n      tag_29\n      jumpi\n      mload(0x40)\n      0x08c379a000000000000000000000000000000000000000000000000000000000\n      dup2\n      mstore\n      0x04\n      add\n      tag_30\n      swap1\n      tag_31\n      jump\t// in\n    tag_30:\n      mload(0x40)\n      dup1\n      swap2\n      sub\n      swap1\n      revert\n    tag_29:\n        /* \"Event.sol\":600:601  0 */\n      0x00\n        /* \"Event.sol\":588:599  _ticketOpen */\n      dup2\n        /* \"Event.sol\":588:601  _ticketOpen>0 */\n      gt\n        /* \"Event.sol\":580:627  require(_ticketOpen>0,\"you can Run the Events\") */\n      tag_32\n      jumpi\n      mload(0x40)\n      0x08c379a000000000000000000000000000000000000000000000000000000000\n      dup2\n      mstore\n      0x04\n      add\n      tag_33\n      swap1\n      tag_34\n      jump\t// in\n    tag_33:\n      mload(0x40)\n      dup1\n      swap2\n      sub\n      swap1\n      revert\n    tag_32:\n        /* \"Event.sol\":655:715  Event(msg.sender,_name,_date,_price,_ticketOpen,_ticketOpen) */\n      mload(0x40)\n      dup1\n      0xc0\n      add\n      0x40\n      mstore\n      dup1\n        /* \"Event.sol\":661:671  msg.sender */\n      caller\n        /* \"Event.sol\":655:715  Event(msg.sender,_name,_date,_price,_ticketOpen,_ticketOpen) */\n      0xffffffffffffffffffffffffffffffffffffffff\n      and\n      dup2\n      mstore\n      0x20\n      add\n        /* \"Event.sol\":672:677  _name */\n      dup6\n        /* \"Event.sol\":655:715  Event(msg.sender,_name,_date,_price,_ticketOpen,_ticketOpen) */\n      dup2\n      mstore\n      0x20\n      add\n        /* \"Event.sol\":678:683  _date */\n      dup5\n        /* \"Event.sol\":655:715  Event(msg.sender,_name,_date,_price,_ticketOpen,_ticketOpen) */\n      dup2\n      mstore\n      0x20\n      add\n        /* \"Event.sol\":684:690  _price */\n      dup4\n        /* \"Event.sol\":655:715  Event(msg.sender,_name,_date,_price,_ticketOpen,_ticketOpen) */\n      dup2\n      mstore\n      0x20\n      add\n        /* \"Event.sol\":691:702  _ticketOpen */\n      dup3\n        /* \"Event.sol\":655:715  Event(msg.sender,_name,_date,_price,_ticketOpen,_ticketOpen) */\n      dup2\n      mstore\n      0x20\n      add\n        /* \"Event.sol\":703:714  _ticketOpen */\n      dup3\n        /* \"Event.sol\":655:715  Event(msg.sender,_name,_date,_price,_ticketOpen,_ticketOpen) */\n      dup2\n      mstore\n      pop\n        /* \"Event.sol\":640:646  events */\n      0x00\n        /* \"Event.sol\":640:654  events[nextId] */\n      dup1\n        /* \"Event.sol\":647:653  nextId */\n      sload(0x02)\n        /* \"Event.sol\":640:654  events[nextId] */\n      dup2\n      mstore\n      0x20\n      add\n      swap1\n      dup2\n      mstore\n      0x20\n      add\n      0x00\n      keccak256\n        /* \"Event.sol\":640:715  events[nextId]=Event(msg.sender,_name,_date,_price,_ticketOpen,_ticketOpen) */\n      0x00\n      dup3\n      add\n      mload\n      dup2\n      0x00\n      add\n      exp(0x0100, 0x00)\n      dup2\n      sload\n      dup2\n      0xffffffffffffffffffffffffffffffffffffffff\n      mul\n      not\n      and\n      swap1\n      dup4\n      0xffffffffffffffffffffffffffffffffffffffff\n      and\n      mul\n      or\n      swap1\n      sstore\n      pop\n      0x20\n      dup3\n      add\n      mload\n      dup2\n      0x01\n      add\n      swap1\n      dup2\n      tag_35\n      swap2\n      swap1\n      tag_36\n      jump\t// in\n    tag_35:\n      pop\n      0x40\n      dup3\n      add\n      mload\n      dup2\n      0x02\n      add\n      sstore\n      0x60\n      dup3\n      add\n      mload\n      dup2\n      0x03\n      add\n      sstore\n      0x80\n      dup3\n      add\n      mload\n      dup2\n      0x04\n      add\n      sstore\n      0xa0\n      dup3\n      add\n      mload\n      dup2\n      0x05\n      add\n      sstore\n      swap1\n      pop\n      pop\n        /* \"Event.sol\":726:732  nextId */\n      0x02\n      0x00\n        /* \"Event.sol\":726:734  nextId++ */\n      dup2\n      sload\n      dup1\n      swap3\n      swap2\n      swap1\n      tag_37\n      swap1\n      tag_38\n      jump\t// in\n    tag_37:\n      swap2\n      swap1\n      pop\n      sstore\n      pop\n        /* \"Event.sol\":397:742  function createEvent(address _organizer,string memory _name,uint _date,uint _price,uint _ticketOpen) external {... */\n      pop\n      pop\n      pop\n      pop\n      pop\n      jump\t// out\n        /* \"Event.sol\":319:370  mapping(address=>mapping(uint=>uint)) public ticket */\n    tag_19:\n      mstore(0x20, 0x01)\n      dup2\n      0x00\n      mstore\n      mstore(0x20, keccak256(0x00, 0x40))\n      dup1\n      0x00\n      mstore\n      keccak256(0x00, 0x40)\n      0x00\n      swap2\n      pop\n      swap2\n      pop\n      pop\n      sload\n      dup2\n      jump\t// out\n        /* \"#utility.yul\":7:82   */\n    tag_39:\n        /* \"#utility.yul\":40:46   */\n      0x00\n        /* \"#utility.yul\":73:75   */\n      0x40\n        /* \"#utility.yul\":67:76   */\n      mload\n        /* \"#utility.yul\":57:76   */\n      swap1\n      pop\n        /* \"#utility.yul\":7:82   */\n      swap1\n      jump\t// out\n        /* \"#utility.yul\":88:205   */\n    tag_40:\n        /* \"#utility.yul\":197:198   */\n      0x00\n        /* \"#utility.yul\":194:195   */\n      dup1\n        /* \"#utility.yul\":187:199   */\n      revert\n        /* \"#utility.yul\":211:328   */\n    tag_41:\n        /* \"#utility.yul\":320:321   */\n      0x00\n        /* \"#utility.yul\":317:318   */\n      dup1\n        /* \"#utility.yul\":310:322   */\n      revert\n        /* \"#utility.yul\":334:411   */\n    tag_42:\n        /* \"#utility.yul\":371:378   */\n      0x00\n        /* \"#utility.yul\":400:405   */\n      dup2\n        /* \"#utility.yul\":389:405   */\n      swap1\n      pop\n        /* \"#utility.yul\":334:411   */\n      swap2\n      swap1\n      pop\n      jump\t// out\n        /* \"#utility.yul\":417:539   */\n    tag_43:\n        /* \"#utility.yul\":490:514   */\n      tag_92\n        /* \"#utility.yul\":508:513   */\n      dup2\n        /* \"#utility.yul\":490:514   */\n      tag_42\n      jump\t// in\n    tag_92:\n        /* \"#utility.yul\":483:488   */\n      dup2\n        /* \"#utility.yul\":480:515   */\n      eq\n        /* \"#utility.yul\":470:533   */\n      tag_93\n      jumpi\n        /* \"#utility.yul\":529:530   */\n      0x00\n        /* \"#utility.yul\":526:527   */\n      dup1\n        /* \"#utility.yul\":519:531   */\n      revert\n        /* \"#utility.yul\":470:533   */\n    tag_93:\n        /* \"#utility.yul\":417:539   */\n      pop\n      jump\t// out\n        /* \"#utility.yul\":545:684   */\n    tag_44:\n        /* \"#utility.yul\":591:596   */\n      0x00\n        /* \"#utility.yul\":629:635   */\n      dup2\n        /* \"#utility.yul\":616:636   */\n      calldataload\n        /* \"#utility.yul\":607:636   */\n      swap1\n      pop\n        /* \"#utility.yul\":645:678   */\n      tag_95\n        /* \"#utility.yul\":672:677   */\n      dup2\n        /* \"#utility.yul\":645:678   */\n      tag_43\n      jump\t// in\n    tag_95:\n        /* \"#utility.yul\":545:684   */\n      swap3\n      swap2\n      pop\n      pop\n      jump\t// out\n        /* \"#utility.yul\":690:1019   */\n    tag_8:\n        /* \"#utility.yul\":749:755   */\n      0x00\n        /* \"#utility.yul\":798:800   */\n      0x20\n        /* \"#utility.yul\":786:795   */\n      dup3\n        /* \"#utility.yul\":777:784   */\n      dup5\n        /* \"#utility.yul\":773:796   */\n      sub\n        /* \"#utility.yul\":769:801   */\n      slt\n        /* \"#utility.yul\":766:885   */\n      iszero\n      tag_97\n      jumpi\n        /* \"#utility.yul\":804:883   */\n      tag_98\n      tag_40\n      jump\t// in\n    tag_98:\n        /* \"#utility.yul\":766:885   */\n    tag_97:\n        /* \"#utility.yul\":924:925   */\n      0x00\n        /* \"#utility.yul\":949:1002   */\n      tag_99\n        /* \"#utility.yul\":994:1001   */\n      dup5\n        /* \"#utility.yul\":985:991   */\n      dup3\n        /* \"#utility.yul\":974:983   */\n      dup6\n        /* \"#utility.yul\":970:992   */\n      add\n        /* \"#utility.yul\":949:1002   */\n      tag_44\n      jump\t// in\n    tag_99:\n        /* \"#utility.yul\":939:1002   */\n      swap2\n      pop\n        /* \"#utility.yul\":895:1012   */\n      pop\n        /* \"#utility.yul\":690:1019   */\n      swap3\n      swap2\n      pop\n      pop\n      jump\t// out\n        /* \"#utility.yul\":1025:1151   */\n    tag_45:\n        /* \"#utility.yul\":1062:1069   */\n      0x00\n        /* \"#utility.yul\":1102:1144   */\n      0xffffffffffffffffffffffffffffffffffffffff\n        /* \"#utility.yul\":1095:1100   */\n      dup3\n        /* \"#utility.yul\":1091:1145   */\n      and\n        /* \"#utility.yul\":1080:1145   */\n      swap1\n      pop\n        /* \"#utility.yul\":1025:1151   */\n      swap2\n      swap1\n      pop\n      jump\t// out\n        /* \"#utility.yul\":1157:1253   */\n    tag_46:\n        /* \"#utility.yul\":1194:1201   */\n      0x00\n        /* \"#utility.yul\":1223:1247   */\n      tag_102\n        /* \"#utility.yul\":1241:1246   */\n      dup3\n        /* \"#utility.yul\":1223:1247   */\n      tag_45\n      jump\t// in\n    tag_102:\n        /* \"#utility.yul\":1212:1247   */\n      swap1\n      pop\n        /* \"#utility.yul\":1157:1253   */\n      swap2\n      swap1\n      pop\n      jump\t// out\n        /* \"#utility.yul\":1259:1377   */\n    tag_47:\n        /* \"#utility.yul\":1346:1370   */\n      tag_104\n        /* \"#utility.yul\":1364:1369   */\n      dup2\n        /* \"#utility.yul\":1346:1370   */\n      tag_46\n      jump\t// in\n    tag_104:\n        /* \"#utility.yul\":1341:1344   */\n      dup3\n        /* \"#utility.yul\":1334:1371   */\n      mstore\n        /* \"#utility.yul\":1259:1377   */\n      pop\n      pop\n      jump\t// out\n        /* \"#utility.yul\":1383:1482   */\n    tag_48:\n        /* \"#utility.yul\":1435:1441   */\n      0x00\n        /* \"#utility.yul\":1469:1474   */\n      dup2\n        /* \"#utility.yul\":1463:1475   */\n      mload\n        /* \"#utility.yul\":1453:1475   */\n      swap1\n      pop\n        /* \"#utility.yul\":1383:1482   */\n      swap2\n      swap1\n      pop\n      jump\t// out\n        /* \"#utility.yul\":1488:1657   */\n    tag_49:\n        /* \"#utility.yul\":1572:1583   */\n      0x00\n        /* \"#utility.yul\":1606:1612   */\n      dup3\n        /* \"#utility.yul\":1601:1604   */\n      dup3\n        /* \"#utility.yul\":1594:1613   */\n      mstore\n        /* \"#utility.yul\":1646:1650   */\n      0x20\n        /* \"#utility.yul\":1641:1644   */\n      dup3\n        /* \"#utility.yul\":1637:1651   */\n      add\n        /* \"#utility.yul\":1622:1651   */\n      swap1\n      pop\n        /* \"#utility.yul\":1488:1657   */\n      swap3\n      swap2\n      pop\n      pop\n      jump\t// out\n        /* \"#utility.yul\":1663:1909   */\n    tag_50:\n        /* \"#utility.yul\":1744:1745   */\n      0x00\n        /* \"#utility.yul\":1754:1867   */\n    tag_108:\n        /* \"#utility.yul\":1768:1774   */\n      dup4\n        /* \"#utility.yul\":1765:1766   */\n      dup2\n        /* \"#utility.yul\":1762:1775   */\n      lt\n        /* \"#utility.yul\":1754:1867   */\n      iszero\n      tag_110\n      jumpi\n        /* \"#utility.yul\":1853:1854   */\n      dup1\n        /* \"#utility.yul\":1848:1851   */\n      dup3\n        /* \"#utility.yul\":1844:1855   */\n      add\n        /* \"#utility.yul\":1838:1856   */\n      mload\n        /* \"#utility.yul\":1834:1835   */\n      dup2\n        /* \"#utility.yul\":1829:1832   */\n      dup5\n        /* \"#utility.yul\":1825:1836   */\n      add\n        /* \"#utility.yul\":1818:1857   */\n      mstore\n        /* \"#utility.yul\":1790:1792   */\n      0x20\n        /* \"#utility.yul\":1787:1788   */\n      dup2\n        /* \"#utility.yul\":1783:1793   */\n      add\n        /* \"#utility.yul\":1778:1793   */\n      swap1\n      pop\n        /* \"#utility.yul\":1754:1867   */\n      jump(tag_108)\n    tag_110:\n        /* \"#utility.yul\":1901:1902   */\n      0x00\n        /* \"#utility.yul\":1892:1898   */\n      dup5\n        /* \"#utility.yul\":1887:1890   */\n      dup5\n        /* \"#utility.yul\":1883:1899   */\n      add\n        /* \"#utility.yul\":1876:1903   */\n      mstore\n        /* \"#utility.yul\":1725:1909   */\n      pop\n        /* \"#utility.yul\":1663:1909   */\n      pop\n      pop\n      pop\n      jump\t// out\n        /* \"#utility.yul\":1915:2017   */\n    tag_51:\n        /* \"#utility.yul\":1956:1962   */\n      0x00\n        /* \"#utility.yul\":2007:2009   */\n      0x1f\n        /* \"#utility.yul\":2003:2010   */\n      not\n        /* \"#utility.yul\":1998:2000   */\n      0x1f\n        /* \"#utility.yul\":1991:1996   */\n      dup4\n        /* \"#utility.yul\":1987:2001   */\n      add\n        /* \"#utility.yul\":1983:2011   */\n      and\n        /* \"#utility.yul\":1973:2011   */\n      swap1\n      pop\n        /* \"#utility.yul\":1915:2017   */\n      swap2\n      swap1\n      pop\n      jump\t// out\n        /* \"#utility.yul\":2023:2400   */\n    tag_52:\n        /* \"#utility.yul\":2111:2114   */\n      0x00\n        /* \"#utility.yul\":2139:2178   */\n      tag_113\n        /* \"#utility.yul\":2172:2177   */\n      dup3\n        /* \"#utility.yul\":2139:2178   */\n      tag_48\n      jump\t// in\n    tag_113:\n        /* \"#utility.yul\":2194:2265   */\n      tag_114\n        /* \"#utility.yul\":2258:2264   */\n      dup2\n        /* \"#utility.yul\":2253:2256   */\n      dup6\n        /* \"#utility.yul\":2194:2265   */\n      tag_49\n      jump\t// in\n    tag_114:\n        /* \"#utility.yul\":2187:2265   */\n      swap4\n      pop\n        /* \"#utility.yul\":2274:2339   */\n      tag_115\n        /* \"#utility.yul\":2332:2338   */\n      dup2\n        /* \"#utility.yul\":2327:2330   */\n      dup6\n        /* \"#utility.yul\":2320:2324   */\n      0x20\n        /* \"#utility.yul\":2313:2318   */\n      dup7\n        /* \"#utility.yul\":2309:2325   */\n      add\n        /* \"#utility.yul\":2274:2339   */\n      tag_50\n      jump\t// in\n    tag_115:\n        /* \"#utility.yul\":2364:2393   */\n      tag_116\n        /* \"#utility.yul\":2386:2392   */\n      dup2\n        /* \"#utility.yul\":2364:2393   */\n      tag_51\n      jump\t// in\n    tag_116:\n        /* \"#utility.yul\":2359:2362   */\n      dup5\n        /* \"#utility.yul\":2355:2394   */\n      add\n        /* \"#utility.yul\":2348:2394   */\n      swap2\n      pop\n        /* \"#utility.yul\":2115:2400   */\n      pop\n        /* \"#utility.yul\":2023:2400   */\n      swap3\n      swap2\n      pop\n      pop\n      jump\t// out\n        /* \"#utility.yul\":2406:2524   */\n    tag_53:\n        /* \"#utility.yul\":2493:2517   */\n      tag_118\n        /* \"#utility.yul\":2511:2516   */\n      dup2\n        /* \"#utility.yul\":2493:2517   */\n      tag_42\n      jump\t// in\n    tag_118:\n        /* \"#utility.yul\":2488:2491   */\n      dup3\n        /* \"#utility.yul\":2481:2518   */\n      mstore\n        /* \"#utility.yul\":2406:2524   */\n      pop\n      pop\n      jump\t// out\n        /* \"#utility.yul\":2530:3396   */\n    tag_11:\n        /* \"#utility.yul\":2783:2787   */\n      0x00\n        /* \"#utility.yul\":2821:2824   */\n      0xc0\n        /* \"#utility.yul\":2810:2819   */\n      dup3\n        /* \"#utility.yul\":2806:2825   */\n      add\n        /* \"#utility.yul\":2798:2825   */\n      swap1\n      pop\n        /* \"#utility.yul\":2835:2906   */\n      tag_120\n        /* \"#utility.yul\":2903:2904   */\n      0x00\n        /* \"#utility.yul\":2892:2901   */\n      dup4\n        /* \"#utility.yul\":2888:2905   */\n      add\n        /* \"#utility.yul\":2879:2885   */\n      dup10\n        /* \"#utility.yul\":2835:2906   */\n      tag_47\n      jump\t// in\n    tag_120:\n        /* \"#utility.yul\":2953:2962   */\n      dup2\n        /* \"#utility.yul\":2947:2951   */\n      dup2\n        /* \"#utility.yul\":2943:2963   */\n      sub\n        /* \"#utility.yul\":2938:2940   */\n      0x20\n        /* \"#utility.yul\":2927:2936   */\n      dup4\n        /* \"#utility.yul\":2923:2941   */\n      add\n        /* \"#utility.yul\":2916:2964   */\n      mstore\n        /* \"#utility.yul\":2981:3059   */\n      tag_121\n        /* \"#utility.yul\":3054:3058   */\n      dup2\n        /* \"#utility.yul\":3045:3051   */\n      dup9\n        /* \"#utility.yul\":2981:3059   */\n      tag_52\n      jump\t// in\n    tag_121:\n        /* \"#utility.yul\":2973:3059   */\n      swap1\n      pop\n        /* \"#utility.yul\":3069:3141   */\n      tag_122\n        /* \"#utility.yul\":3137:3139   */\n      0x40\n        /* \"#utility.yul\":3126:3135   */\n      dup4\n        /* \"#utility.yul\":3122:3140   */\n      add\n        /* \"#utility.yul\":3113:3119   */\n      dup8\n        /* \"#utility.yul\":3069:3141   */\n      tag_53\n      jump\t// in\n    tag_122:\n        /* \"#utility.yul\":3151:3223   */\n      tag_123\n        /* \"#utility.yul\":3219:3221   */\n      0x60\n        /* \"#utility.yul\":3208:3217   */\n      dup4\n        /* \"#utility.yul\":3204:3222   */\n      add\n        /* \"#utility.yul\":3195:3201   */\n      dup7\n        /* \"#utility.yul\":3151:3223   */\n      tag_53\n      jump\t// in\n    tag_123:\n        /* \"#utility.yul\":3233:3306   */\n      tag_124\n        /* \"#utility.yul\":3301:3304   */\n      0x80\n        /* \"#utility.yul\":3290:3299   */\n      dup4\n        /* \"#utility.yul\":3286:3305   */\n      add\n        /* \"#utility.yul\":3277:3283   */\n      dup6\n        /* \"#utility.yul\":3233:3306   */\n      tag_53\n      jump\t// in\n    tag_124:\n        /* \"#utility.yul\":3316:3389   */\n      tag_125\n        /* \"#utility.yul\":3384:3387   */\n      0xa0\n        /* \"#utility.yul\":3373:3382   */\n      dup4\n        /* \"#utility.yul\":3369:3388   */\n      add\n        /* \"#utility.yul\":3360:3366   */\n      dup5\n        /* \"#utility.yul\":3316:3389   */\n      tag_53\n      jump\t// in\n    tag_125:\n        /* \"#utility.yul\":2530:3396   */\n      swap8\n      swap7\n      pop\n      pop\n      pop\n      pop\n      pop\n      pop\n      pop\n      jump\t// out\n        /* \"#utility.yul\":3402:3524   */\n    tag_54:\n        /* \"#utility.yul\":3475:3499   */\n      tag_127\n        /* \"#utility.yul\":3493:3498   */\n      dup2\n        /* \"#utility.yul\":3475:3499   */\n      tag_46\n      jump\t// in\n    tag_127:\n        /* \"#utility.yul\":3468:3473   */\n      dup2\n        /* \"#utility.yul\":3465:3500   */\n      eq\n        /* \"#utility.yul\":3455:3518   */\n      tag_128\n      jumpi\n        /* \"#utility.yul\":3514:3515   */\n      0x00\n        /* \"#utility.yul\":3511:3512   */\n      dup1\n        /* \"#utility.yul\":3504:3516   */\n      revert\n        /* \"#utility.yul\":3455:3518   */\n    tag_128:\n        /* \"#utility.yul\":3402:3524   */\n      pop\n      jump\t// out\n        /* \"#utility.yul\":3530:3669   */\n    tag_55:\n        /* \"#utility.yul\":3576:3581   */\n      0x00\n        /* \"#utility.yul\":3614:3620   */\n      dup2\n        /* \"#utility.yul\":3601:3621   */\n      calldataload\n        /* \"#utility.yul\":3592:3621   */\n      swap1\n      pop\n        /* \"#utility.yul\":3630:3663   */\n      tag_130\n        /* \"#utility.yul\":3657:3662   */\n      dup2\n        /* \"#utility.yul\":3630:3663   */\n      tag_54\n      jump\t// in\n    tag_130:\n        /* \"#utility.yul\":3530:3669   */\n      swap3\n      swap2\n      pop\n      pop\n      jump\t// out\n        /* \"#utility.yul\":3675:3792   */\n    tag_56:\n        /* \"#utility.yul\":3784:3785   */\n      0x00\n        /* \"#utility.yul\":3781:3782   */\n      dup1\n        /* \"#utility.yul\":3774:3786   */\n      revert\n        /* \"#utility.yul\":3798:3915   */\n    tag_57:\n        /* \"#utility.yul\":3907:3908   */\n      0x00\n        /* \"#utility.yul\":3904:3905   */\n      dup1\n        /* \"#utility.yul\":3897:3909   */\n      revert\n        /* \"#utility.yul\":3921:4101   */\n    tag_58:\n        /* \"#utility.yul\":3969:4046   */\n      0x4e487b7100000000000000000000000000000000000000000000000000000000\n        /* \"#utility.yul\":3966:3967   */\n      0x00\n        /* \"#utility.yul\":3959:4047   */\n      mstore\n        /* \"#utility.yul\":4066:4070   */\n      0x41\n        /* \"#utility.yul\":4063:4064   */\n      0x04\n        /* \"#utility.yul\":4056:4071   */\n      mstore\n        /* \"#utility.yul\":4090:4094   */\n      0x24\n        /* \"#utility.yul\":4087:4088   */\n      0x00\n        /* \"#utility.yul\":4080:4095   */\n      revert\n        /* \"#utility.yul\":4107:4388   */\n    tag_59:\n        /* \"#utility.yul\":4190:4217   */\n      tag_135\n        /* \"#utility.yul\":4212:4216   */\n      dup3\n        /* \"#utility.yul\":4190:4217   */\n      tag_51\n      jump\t// in\n    tag_135:\n        /* \"#utility.yul\":4182:4188   */\n      dup2\n        /* \"#utility.yul\":4178:4218   */\n      add\n        /* \"#utility.yul\":4320:4326   */\n      dup2\n        /* \"#utility.yul\":4308:4318   */\n      dup2\n        /* \"#utility.yul\":4305:4327   */\n      lt\n        /* \"#utility.yul\":4284:4302   */\n      0xffffffffffffffff\n        /* \"#utility.yul\":4272:4282   */\n      dup3\n        /* \"#utility.yul\":4269:4303   */\n      gt\n        /* \"#utility.yul\":4266:4328   */\n      or\n        /* \"#utility.yul\":4263:4351   */\n      iszero\n      tag_136\n      jumpi\n        /* \"#utility.yul\":4331:4349   */\n      tag_137\n      tag_58\n      jump\t// in\n    tag_137:\n        /* \"#utility.yul\":4263:4351   */\n    tag_136:\n        /* \"#utility.yul\":4371:4381   */\n      dup1\n        /* \"#utility.yul\":4367:4369   */\n      0x40\n        /* \"#utility.yul\":4360:4382   */\n      mstore\n        /* \"#utility.yul\":4150:4388   */\n      pop\n        /* \"#utility.yul\":4107:4388   */\n      pop\n      pop\n      jump\t// out\n        /* \"#utility.yul\":4394:4523   */\n    tag_60:\n        /* \"#utility.yul\":4428:4434   */\n      0x00\n        /* \"#utility.yul\":4455:4475   */\n      tag_139\n      tag_39\n      jump\t// in\n    tag_139:\n        /* \"#utility.yul\":4445:4475   */\n      swap1\n      pop\n        /* \"#utility.yul\":4484:4517   */\n      tag_140\n        /* \"#utility.yul\":4512:4516   */\n      dup3\n        /* \"#utility.yul\":4504:4510   */\n      dup3\n        /* \"#utility.yul\":4484:4517   */\n      tag_59\n      jump\t// in\n    tag_140:\n        /* \"#utility.yul\":4394:4523   */\n      swap2\n      swap1\n      pop\n      jump\t// out\n        /* \"#utility.yul\":4529:4837   */\n    tag_61:\n        /* \"#utility.yul\":4591:4595   */\n      0x00\n        /* \"#utility.yul\":4681:4699   */\n      0xffffffffffffffff\n        /* \"#utility.yul\":4673:4679   */\n      dup3\n        /* \"#utility.yul\":4670:4700   */\n      gt\n        /* \"#utility.yul\":4667:4723   */\n      iszero\n      tag_142\n      jumpi\n        /* \"#utility.yul\":4703:4721   */\n      tag_143\n      tag_58\n      jump\t// in\n    tag_143:\n        /* \"#utility.yul\":4667:4723   */\n    tag_142:\n        /* \"#utility.yul\":4741:4770   */\n      tag_144\n        /* \"#utility.yul\":4763:4769   */\n      dup3\n        /* \"#utility.yul\":4741:4770   */\n      tag_51\n      jump\t// in\n    tag_144:\n        /* \"#utility.yul\":4733:4770   */\n      swap1\n      pop\n        /* \"#utility.yul\":4825:4829   */\n      0x20\n        /* \"#utility.yul\":4819:4823   */\n      dup2\n        /* \"#utility.yul\":4815:4830   */\n      add\n        /* \"#utility.yul\":4807:4830   */\n      swap1\n      pop\n        /* \"#utility.yul\":4529:4837   */\n      swap2\n      swap1\n      pop\n      jump\t// out\n        /* \"#utility.yul\":4843:4989   */\n    tag_62:\n        /* \"#utility.yul\":4940:4946   */\n      dup3\n        /* \"#utility.yul\":4935:4938   */\n      dup2\n        /* \"#utility.yul\":4930:4933   */\n      dup4\n        /* \"#utility.yul\":4917:4947   */\n      calldatacopy\n        /* \"#utility.yul\":4981:4982   */\n      0x00\n        /* \"#utility.yul\":4972:4978   */\n      dup4\n        /* \"#utility.yul\":4967:4970   */\n      dup4\n        /* \"#utility.yul\":4963:4979   */\n      add\n        /* \"#utility.yul\":4956:4983   */\n      mstore\n        /* \"#utility.yul\":4843:4989   */\n      pop\n      pop\n      pop\n      jump\t// out\n        /* \"#utility.yul\":4995:5420   */\n    tag_63:\n        /* \"#utility.yul\":5073:5078   */\n      0x00\n        /* \"#utility.yul\":5098:5164   */\n      tag_147\n        /* \"#utility.yul\":5114:5163   */\n      tag_148\n        /* \"#utility.yul\":5156:5162   */\n      dup5\n        /* \"#utility.yul\":5114:5163   */\n      tag_61\n      jump\t// in\n    tag_148:\n        /* \"#utility.yul\":5098:5164   */\n      tag_60\n      jump\t// in\n    tag_147:\n        /* \"#utility.yul\":5089:5164   */\n      swap1\n      pop\n        /* \"#utility.yul\":5187:5193   */\n      dup3\n        /* \"#utility.yul\":5180:5185   */\n      dup2\n        /* \"#utility.yul\":5173:5194   */\n      mstore\n        /* \"#utility.yul\":5225:5229   */\n      0x20\n        /* \"#utility.yul\":5218:5223   */\n      dup2\n        /* \"#utility.yul\":5214:5230   */\n      add\n        /* \"#utility.yul\":5263:5266   */\n      dup5\n        /* \"#utility.yul\":5254:5260   */\n      dup5\n        /* \"#utility.yul\":5249:5252   */\n      dup5\n        /* \"#utility.yul\":5245:5261   */\n      add\n        /* \"#utility.yul\":5242:5267   */\n      gt\n        /* \"#utility.yul\":5239:5351   */\n      iszero\n      tag_149\n      jumpi\n        /* \"#utility.yul\":5270:5349   */\n      tag_150\n      tag_57\n      jump\t// in\n    tag_150:\n        /* \"#utility.yul\":5239:5351   */\n    tag_149:\n        /* \"#utility.yul\":5360:5414   */\n      tag_151\n        /* \"#utility.yul\":5407:5413   */\n      dup5\n        /* \"#utility.yul\":5402:5405   */\n      dup3\n        /* \"#utility.yul\":5397:5400   */\n      dup6\n        /* \"#utility.yul\":5360:5414   */\n      tag_62\n      jump\t// in\n    tag_151:\n        /* \"#utility.yul\":5079:5420   */\n      pop\n        /* \"#utility.yul\":4995:5420   */\n      swap4\n      swap3\n      pop\n      pop\n      pop\n      jump\t// out\n        /* \"#utility.yul\":5440:5780   */\n    tag_64:\n        /* \"#utility.yul\":5496:5501   */\n      0x00\n        /* \"#utility.yul\":5545:5548   */\n      dup3\n        /* \"#utility.yul\":5538:5542   */\n      0x1f\n        /* \"#utility.yul\":5530:5536   */\n      dup4\n        /* \"#utility.yul\":5526:5543   */\n      add\n        /* \"#utility.yul\":5522:5549   */\n      slt\n        /* \"#utility.yul\":5512:5634   */\n      tag_153\n      jumpi\n        /* \"#utility.yul\":5553:5632   */\n      tag_154\n      tag_56\n      jump\t// in\n    tag_154:\n        /* \"#utility.yul\":5512:5634   */\n    tag_153:\n        /* \"#utility.yul\":5670:5676   */\n      dup2\n        /* \"#utility.yul\":5657:5677   */\n      calldataload\n        /* \"#utility.yul\":5695:5774   */\n      tag_155\n        /* \"#utility.yul\":5770:5773   */\n      dup5\n        /* \"#utility.yul\":5762:5768   */\n      dup3\n        /* \"#utility.yul\":5755:5759   */\n      0x20\n        /* \"#utility.yul\":5747:5753   */\n      dup7\n        /* \"#utility.yul\":5743:5760   */\n      add\n        /* \"#utility.yul\":5695:5774   */\n      tag_63\n      jump\t// in\n    tag_155:\n        /* \"#utility.yul\":5686:5774   */\n      swap2\n      pop\n        /* \"#utility.yul\":5502:5780   */\n      pop\n        /* \"#utility.yul\":5440:5780   */\n      swap3\n      swap2\n      pop\n      pop\n      jump\t// out\n        /* \"#utility.yul\":5786:6877   */\n    tag_14:\n        /* \"#utility.yul\":5891:5897   */\n      0x00\n        /* \"#utility.yul\":5899:5905   */\n      dup1\n        /* \"#utility.yul\":5907:5913   */\n      0x00\n        /* \"#utility.yul\":5915:5921   */\n      dup1\n        /* \"#utility.yul\":5923:5929   */\n      0x00\n        /* \"#utility.yul\":5972:5975   */\n      0xa0\n        /* \"#utility.yul\":5960:5969   */\n      dup7\n        /* \"#utility.yul\":5951:5958   */\n      dup9\n        /* \"#utility.yul\":5947:5970   */\n      sub\n        /* \"#utility.yul\":5943:5976   */\n      slt\n        /* \"#utility.yul\":5940:6060   */\n      iszero\n      tag_157\n      jumpi\n        /* \"#utility.yul\":5979:6058   */\n      tag_158\n      tag_40\n      jump\t// in\n    tag_158:\n        /* \"#utility.yul\":5940:6060   */\n    tag_157:\n        /* \"#utility.yul\":6099:6100   */\n      0x00\n        /* \"#utility.yul\":6124:6177   */\n      tag_159\n        /* \"#utility.yul\":6169:6176   */\n      dup9\n        /* \"#utility.yul\":6160:6166   */\n      dup3\n        /* \"#utility.yul\":6149:6158   */\n      dup10\n        /* \"#utility.yul\":6145:6167   */\n      add\n        /* \"#utility.yul\":6124:6177   */\n      tag_55\n      jump\t// in\n    tag_159:\n        /* \"#utility.yul\":6114:6177   */\n      swap6\n      pop\n        /* \"#utility.yul\":6070:6187   */\n      pop\n        /* \"#utility.yul\":6254:6256   */\n      0x20\n        /* \"#utility.yul\":6243:6252   */\n      dup7\n        /* \"#utility.yul\":6239:6257   */\n      add\n        /* \"#utility.yul\":6226:6258   */\n      calldataload\n        /* \"#utility.yul\":6285:6303   */\n      0xffffffffffffffff\n        /* \"#utility.yul\":6277:6283   */\n      dup2\n        /* \"#utility.yul\":6274:6304   */\n      gt\n        /* \"#utility.yul\":6271:6388   */\n      iszero\n      tag_160\n      jumpi\n        /* \"#utility.yul\":6307:6386   */\n      tag_161\n      tag_41\n      jump\t// in\n    tag_161:\n        /* \"#utility.yul\":6271:6388   */\n    tag_160:\n        /* \"#utility.yul\":6412:6475   */\n      tag_162\n        /* \"#utility.yul\":6467:6474   */\n      dup9\n        /* \"#utility.yul\":6458:6464   */\n      dup3\n        /* \"#utility.yul\":6447:6456   */\n      dup10\n        /* \"#utility.yul\":6443:6465   */\n      add\n        /* \"#utility.yul\":6412:6475   */\n      tag_64\n      jump\t// in\n    tag_162:\n        /* \"#utility.yul\":6402:6475   */\n      swap5\n      pop\n        /* \"#utility.yul\":6197:6485   */\n      pop\n        /* \"#utility.yul\":6524:6526   */\n      0x40\n        /* \"#utility.yul\":6550:6603   */\n      tag_163\n        /* \"#utility.yul\":6595:6602   */\n      dup9\n        /* \"#utility.yul\":6586:6592   */\n      dup3\n        /* \"#utility.yul\":6575:6584   */\n      dup10\n        /* \"#utility.yul\":6571:6593   */\n      add\n        /* \"#utility.yul\":6550:6603   */\n      tag_44\n      jump\t// in\n    tag_163:\n        /* \"#utility.yul\":6540:6603   */\n      swap4\n      pop\n        /* \"#utility.yul\":6495:6613   */\n      pop\n        /* \"#utility.yul\":6652:6654   */\n      0x60\n        /* \"#utility.yul\":6678:6731   */\n      tag_164\n        /* \"#utility.yul\":6723:6730   */\n      dup9\n        /* \"#utility.yul\":6714:6720   */\n      dup3\n        /* \"#utility.yul\":6703:6712   */\n      dup10\n        /* \"#utility.yul\":6699:6721   */\n      add\n        /* \"#utility.yul\":6678:6731   */\n      tag_44\n      jump\t// in\n    tag_164:\n        /* \"#utility.yul\":6668:6731   */\n      swap3\n      pop\n        /* \"#utility.yul\":6623:6741   */\n      pop\n        /* \"#utility.yul\":6780:6783   */\n      0x80\n        /* \"#utility.yul\":6807:6860   */\n      tag_165\n        /* \"#utility.yul\":6852:6859   */\n      dup9\n        /* \"#utility.yul\":6843:6849   */\n      dup3\n        /* \"#utility.yul\":6832:6841   */\n      dup10\n        /* \"#utility.yul\":6828:6850   */\n      add\n        /* \"#utility.yul\":6807:6860   */\n      tag_44\n      jump\t// in\n    tag_165:\n        /* \"#utility.yul\":6797:6860   */\n      swap2\n      pop\n        /* \"#utility.yul\":6751:6870   */\n      pop\n        /* \"#utility.yul\":5786:6877   */\n      swap3\n      swap6\n      pop\n      swap3\n      swap6\n      swap1\n      swap4\n      pop\n      jump\t// out\n        /* \"#utility.yul\":6883:7357   */\n    tag_18:\n        /* \"#utility.yul\":6951:6957   */\n      0x00\n        /* \"#utility.yul\":6959:6965   */\n      dup1\n        /* \"#utility.yul\":7008:7010   */\n      0x40\n        /* \"#utility.yul\":6996:7005   */\n      dup4\n        /* \"#utility.yul\":6987:6994   */\n      dup6\n        /* \"#utility.yul\":6983:7006   */\n      sub\n        /* \"#utility.yul\":6979:7011   */\n      slt\n        /* \"#utility.yul\":6976:7095   */\n      iszero\n      tag_167\n      jumpi\n        /* \"#utility.yul\":7014:7093   */\n      tag_168\n      tag_40\n      jump\t// in\n    tag_168:\n        /* \"#utility.yul\":6976:7095   */\n    tag_167:\n        /* \"#utility.yul\":7134:7135   */\n      0x00\n        /* \"#utility.yul\":7159:7212   */\n      tag_169\n        /* \"#utility.yul\":7204:7211   */\n      dup6\n        /* \"#utility.yul\":7195:7201   */\n      dup3\n        /* \"#utility.yul\":7184:7193   */\n      dup7\n        /* \"#utility.yul\":7180:7202   */\n      add\n        /* \"#utility.yul\":7159:7212   */\n      tag_55\n      jump\t// in\n    tag_169:\n        /* \"#utility.yul\":7149:7212   */\n      swap3\n      pop\n        /* \"#utility.yul\":7105:7222   */\n      pop\n        /* \"#utility.yul\":7261:7263   */\n      0x20\n        /* \"#utility.yul\":7287:7340   */\n      tag_170\n        /* \"#utility.yul\":7332:7339   */\n      dup6\n        /* \"#utility.yul\":7323:7329   */\n      dup3\n        /* \"#utility.yul\":7312:7321   */\n      dup7\n        /* \"#utility.yul\":7308:7330   */\n      add\n        /* \"#utility.yul\":7287:7340   */\n      tag_44\n      jump\t// in\n    tag_170:\n        /* \"#utility.yul\":7277:7340   */\n      swap2\n      pop\n        /* \"#utility.yul\":7232:7350   */\n      pop\n        /* \"#utility.yul\":6883:7357   */\n      swap3\n      pop\n      swap3\n      swap1\n      pop\n      jump\t// out\n        /* \"#utility.yul\":7363:7585   */\n    tag_21:\n        /* \"#utility.yul\":7456:7460   */\n      0x00\n        /* \"#utility.yul\":7494:7496   */\n      0x20\n        /* \"#utility.yul\":7483:7492   */\n      dup3\n        /* \"#utility.yul\":7479:7497   */\n      add\n        /* \"#utility.yul\":7471:7497   */\n      swap1\n      pop\n        /* \"#utility.yul\":7507:7578   */\n      tag_172\n        /* \"#utility.yul\":7575:7576   */\n      0x00\n        /* \"#utility.yul\":7564:7573   */\n      dup4\n        /* \"#utility.yul\":7560:7577   */\n      add\n        /* \"#utility.yul\":7551:7557   */\n      dup5\n        /* \"#utility.yul\":7507:7578   */\n      tag_53\n      jump\t// in\n    tag_172:\n        /* \"#utility.yul\":7363:7585   */\n      swap3\n      swap2\n      pop\n      pop\n      jump\t// out\n        /* \"#utility.yul\":7591:7771   */\n    tag_65:\n        /* \"#utility.yul\":7639:7716   */\n      0x4e487b7100000000000000000000000000000000000000000000000000000000\n        /* \"#utility.yul\":7636:7637   */\n      0x00\n        /* \"#utility.yul\":7629:7717   */\n      mstore\n        /* \"#utility.yul\":7736:7740   */\n      0x22\n        /* \"#utility.yul\":7733:7734   */\n      0x04\n        /* \"#utility.yul\":7726:7741   */\n      mstore\n        /* \"#utility.yul\":7760:7764   */\n      0x24\n        /* \"#utility.yul\":7757:7758   */\n      0x00\n        /* \"#utility.yul\":7750:7765   */\n      revert\n        /* \"#utility.yul\":7777:8097   */\n    tag_23:\n        /* \"#utility.yul\":7821:7827   */\n      0x00\n        /* \"#utility.yul\":7858:7859   */\n      0x02\n        /* \"#utility.yul\":7852:7856   */\n      dup3\n        /* \"#utility.yul\":7848:7860   */\n      div\n        /* \"#utility.yul\":7838:7860   */\n      swap1\n      pop\n        /* \"#utility.yul\":7905:7906   */\n      0x01\n        /* \"#utility.yul\":7899:7903   */\n      dup3\n        /* \"#utility.yul\":7895:7907   */\n      and\n        /* \"#utility.yul\":7926:7944   */\n      dup1\n        /* \"#utility.yul\":7916:7997   */\n      tag_175\n      jumpi\n        /* \"#utility.yul\":7982:7986   */\n      0x7f\n        /* \"#utility.yul\":7974:7980   */\n      dup3\n        /* \"#utility.yul\":7970:7987   */\n      and\n        /* \"#utility.yul\":7960:7987   */\n      swap2\n      pop\n        /* \"#utility.yul\":7916:7997   */\n    tag_175:\n        /* \"#utility.yul\":8044:8046   */\n      0x20\n        /* \"#utility.yul\":8036:8042   */\n      dup3\n        /* \"#utility.yul\":8033:8047   */\n      lt\n        /* \"#utility.yul\":8013:8031   */\n      dup2\n        /* \"#utility.yul\":8010:8048   */\n      sub\n        /* \"#utility.yul\":8007:8091   */\n      tag_176\n      jumpi\n        /* \"#utility.yul\":8063:8081   */\n      tag_177\n      tag_65\n      jump\t// in\n    tag_177:\n        /* \"#utility.yul\":8007:8091   */\n    tag_176:\n        /* \"#utility.yul\":7828:8097   */\n      pop\n        /* \"#utility.yul\":7777:8097   */\n      swap2\n      swap1\n      pop\n      jump\t// out\n        /* \"#utility.yul\":8103:8271   */\n    tag_66:\n        /* \"#utility.yul\":8243:8263   */\n      0x546865204576656e7420686173206f7665720000000000000000000000000000\n        /* \"#utility.yul\":8239:8240   */\n      0x00\n        /* \"#utility.yul\":8231:8237   */\n      dup3\n        /* \"#utility.yul\":8227:8241   */\n      add\n        /* \"#utility.yul\":8220:8264   */\n      mstore\n        /* \"#utility.yul\":8103:8271   */\n      pop\n      jump\t// out\n        /* \"#utility.yul\":8277:8643   */\n    tag_67:\n        /* \"#utility.yul\":8419:8422   */\n      0x00\n        /* \"#utility.yul\":8440:8507   */\n      tag_180\n        /* \"#utility.yul\":8504:8506   */\n      0x12\n        /* \"#utility.yul\":8499:8502   */\n      dup4\n        /* \"#utility.yul\":8440:8507   */\n      tag_49\n      jump\t// in\n    tag_180:\n        /* \"#utility.yul\":8433:8507   */\n      swap2\n      pop\n        /* \"#utility.yul\":8516:8609   */\n      tag_181\n        /* \"#utility.yul\":8605:8608   */\n      dup3\n        /* \"#utility.yul\":8516:8609   */\n      tag_66\n      jump\t// in\n    tag_181:\n        /* \"#utility.yul\":8634:8636   */\n      0x20\n        /* \"#utility.yul\":8629:8632   */\n      dup3\n        /* \"#utility.yul\":8625:8637   */\n      add\n        /* \"#utility.yul\":8618:8637   */\n      swap1\n      pop\n        /* \"#utility.yul\":8277:8643   */\n      swap2\n      swap1\n      pop\n      jump\t// out\n        /* \"#utility.yul\":8649:9068   */\n    tag_31:\n        /* \"#utility.yul\":8815:8819   */\n      0x00\n        /* \"#utility.yul\":8853:8855   */\n      0x20\n        /* \"#utility.yul\":8842:8851   */\n      dup3\n        /* \"#utility.yul\":8838:8856   */\n      add\n        /* \"#utility.yul\":8830:8856   */\n      swap1\n      pop\n        /* \"#utility.yul\":8902:8911   */\n      dup2\n        /* \"#utility.yul\":8896:8900   */\n      dup2\n        /* \"#utility.yul\":8892:8912   */\n      sub\n        /* \"#utility.yul\":8888:8889   */\n      0x00\n        /* \"#utility.yul\":8877:8886   */\n      dup4\n        /* \"#utility.yul\":8873:8890   */\n      add\n        /* \"#utility.yul\":8866:8913   */\n      mstore\n        /* \"#utility.yul\":8930:9061   */\n      tag_183\n        /* \"#utility.yul\":9056:9060   */\n      dup2\n        /* \"#utility.yul\":8930:9061   */\n      tag_67\n      jump\t// in\n    tag_183:\n        /* \"#utility.yul\":8922:9061   */\n      swap1\n      pop\n        /* \"#utility.yul\":8649:9068   */\n      swap2\n      swap1\n      pop\n      jump\t// out\n        /* \"#utility.yul\":9074:9246   */\n    tag_68:\n        /* \"#utility.yul\":9214:9238   */\n      0x796f752063616e2052756e20746865204576656e747300000000000000000000\n        /* \"#utility.yul\":9210:9211   */\n      0x00\n        /* \"#utility.yul\":9202:9208   */\n      dup3\n        /* \"#utility.yul\":9198:9212   */\n      add\n        /* \"#utility.yul\":9191:9239   */\n      mstore\n        /* \"#utility.yul\":9074:9246   */\n      pop\n      jump\t// out\n        /* \"#utility.yul\":9252:9618   */\n    tag_69:\n        /* \"#utility.yul\":9394:9397   */\n      0x00\n        /* \"#utility.yul\":9415:9482   */\n      tag_186\n        /* \"#utility.yul\":9479:9481   */\n      0x16\n        /* \"#utility.yul\":9474:9477   */\n      dup4\n        /* \"#utility.yul\":9415:9482   */\n      tag_49\n      jump\t// in\n    tag_186:\n        /* \"#utility.yul\":9408:9482   */\n      swap2\n      pop\n        /* \"#utility.yul\":9491:9584   */\n      tag_187\n        /* \"#utility.yul\":9580:9583   */\n      dup3\n        /* \"#utility.yul\":9491:9584   */\n      tag_68\n      jump\t// in\n    tag_187:\n        /* \"#utility.yul\":9609:9611   */\n      0x20\n        /* \"#utility.yul\":9604:9607   */\n      dup3\n        /* \"#utility.yul\":9600:9612   */\n      add\n        /* \"#utility.yul\":9593:9612   */\n      swap1\n      pop\n        /* \"#utility.yul\":9252:9618   */\n      swap2\n      swap1\n      pop\n      jump\t// out\n        /* \"#utility.yul\":9624:10043   */\n    tag_34:\n        /* \"#utility.yul\":9790:9794   */\n      0x00\n        /* \"#utility.yul\":9828:9830   */\n      0x20\n        /* \"#utility.yul\":9817:9826   */\n      dup3\n        /* \"#utility.yul\":9813:9831   */\n      add\n        /* \"#utility.yul\":9805:9831   */\n      swap1\n      pop\n        /* \"#utility.yul\":9877:9886   */\n      dup2\n        /* \"#utility.yul\":9871:9875   */\n      dup2\n        /* \"#utility.yul\":9867:9887   */\n      sub\n        /* \"#utility.yul\":9863:9864   */\n      0x00\n        /* \"#utility.yul\":9852:9861   */\n      dup4\n        /* \"#utility.yul\":9848:9865   */\n      add\n        /* \"#utility.yul\":9841:9888   */\n      mstore\n        /* \"#utility.yul\":9905:10036   */\n      tag_189\n        /* \"#utility.yul\":10031:10035   */\n      dup2\n        /* \"#utility.yul\":9905:10036   */\n      tag_69\n      jump\t// in\n    tag_189:\n        /* \"#utility.yul\":9897:10036   */\n      swap1\n      pop\n        /* \"#utility.yul\":9624:10043   */\n      swap2\n      swap1\n      pop\n      jump\t// out\n        /* \"#utility.yul\":10049:10190   */\n    tag_70:\n        /* \"#utility.yul\":10098:10102   */\n      0x00\n        /* \"#utility.yul\":10121:10124   */\n      dup2\n        /* \"#utility.yul\":10113:10124   */\n      swap1\n      pop\n        /* \"#utility.yul\":10144:10147   */\n      dup2\n        /* \"#utility.yul\":10141:10142   */\n      0x00\n        /* \"#utility.yul\":10134:10148   */\n      mstore\n        /* \"#utility.yul\":10178:10182   */\n      0x20\n        /* \"#utility.yul\":10175:10176   */\n      0x00\n        /* \"#utility.yul\":10165:10183   */\n      keccak256\n        /* \"#utility.yul\":10157:10183   */\n      swap1\n      pop\n        /* \"#utility.yul\":10049:10190   */\n      swap2\n      swap1\n      pop\n      jump\t// out\n        /* \"#utility.yul\":10196:10289   */\n    tag_71:\n        /* \"#utility.yul\":10233:10239   */\n      0x00\n        /* \"#utility.yul\":10280:10282   */\n      0x20\n        /* \"#utility.yul\":10275:10277   */\n      0x1f\n        /* \"#utility.yul\":10268:10273   */\n      dup4\n        /* \"#utility.yul\":10264:10278   */\n      add\n        /* \"#utility.yul\":10260:10283   */\n      div\n        /* \"#utility.yul\":10250:10283   */\n      swap1\n      pop\n        /* \"#utility.yul\":10196:10289   */\n      swap2\n      swap1\n      pop\n      jump\t// out\n        /* \"#utility.yul\":10295:10402   */\n    tag_72:\n        /* \"#utility.yul\":10339:10347   */\n      0x00\n        /* \"#utility.yul\":10389:10394   */\n      dup3\n        /* \"#utility.yul\":10383:10387   */\n      dup3\n        /* \"#utility.yul\":10379:10395   */\n      shl\n        /* \"#utility.yul\":10358:10395   */\n      swap1\n      pop\n        /* \"#utility.yul\":10295:10402   */\n      swap3\n      swap2\n      pop\n      pop\n      jump\t// out\n        /* \"#utility.yul\":10408:10801   */\n    tag_73:\n        /* \"#utility.yul\":10477:10483   */\n      0x00\n        /* \"#utility.yul\":10527:10528   */\n      0x08\n        /* \"#utility.yul\":10515:10525   */\n      dup4\n        /* \"#utility.yul\":10511:10529   */\n      mul\n        /* \"#utility.yul\":10550:10647   */\n      tag_194\n        /* \"#utility.yul\":10580:10646   */\n      0xffffffffffffffffffffffffffffffffffffffffffffffffffffffffffffffff\n        /* \"#utility.yul\":10569:10578   */\n      dup3\n        /* \"#utility.yul\":10550:10647   */\n      tag_72\n      jump\t// in\n    tag_194:\n        /* \"#utility.yul\":10668:10707   */\n      tag_195\n        /* \"#utility.yul\":10698:10706   */\n      dup7\n        /* \"#utility.yul\":10687:10696   */\n      dup4\n        /* \"#utility.yul\":10668:10707   */\n      tag_72\n      jump\t// in\n    tag_195:\n        /* \"#utility.yul\":10656:10707   */\n      swap6\n      pop\n        /* \"#utility.yul\":10740:10744   */\n      dup1\n        /* \"#utility.yul\":10736:10745   */\n      not\n        /* \"#utility.yul\":10729:10734   */\n      dup5\n        /* \"#utility.yul\":10725:10746   */\n      and\n        /* \"#utility.yul\":10716:10746   */\n      swap4\n      pop\n        /* \"#utility.yul\":10789:10793   */\n      dup1\n        /* \"#utility.yul\":10779:10787   */\n      dup7\n        /* \"#utility.yul\":10775:10794   */\n      and\n        /* \"#utility.yul\":10768:10773   */\n      dup5\n        /* \"#utility.yul\":10765:10795   */\n      or\n        /* \"#utility.yul\":10755:10795   */\n      swap3\n      pop\n        /* \"#utility.yul\":10484:10801   */\n      pop\n      pop\n        /* \"#utility.yul\":10408:10801   */\n      swap4\n      swap3\n      pop\n      pop\n      pop\n      jump\t// out\n        /* \"#utility.yul\":10807:10867   */\n    tag_74:\n        /* \"#utility.yul\":10835:10838   */\n      0x00\n        /* \"#utility.yul\":10856:10861   */\n      dup2\n        /* \"#utility.yul\":10849:10861   */\n      swap1\n      pop\n        /* \"#utility.yul\":10807:10867   */\n      swap2\n      swap1\n      pop\n      jump\t// out\n        /* \"#utility.yul\":10873:11015   */\n    tag_75:\n        /* \"#utility.yul\":10923:10932   */\n      0x00\n        /* \"#utility.yul\":10956:11009   */\n      tag_198\n        /* \"#utility.yul\":10974:11008   */\n      tag_199\n        /* \"#utility.yul\":10983:11007   */\n      tag_200\n        /* \"#utility.yul\":11001:11006   */\n      dup5\n        /* \"#utility.yul\":10983:11007   */\n      tag_42\n      jump\t// in\n    tag_200:\n        /* \"#utility.yul\":10974:11008   */\n      tag_74\n      jump\t// in\n    tag_199:\n        /* \"#utility.yul\":10956:11009   */\n      tag_42\n      jump\t// in\n    tag_198:\n        /* \"#utility.yul\":10943:11009   */\n      swap1\n      pop\n        /* \"#utility.yul\":10873:11015   */\n      swap2\n      swap1\n      pop\n      jump\t// out\n        /* \"#utility.yul\":11021:11096   */\n    tag_76:\n        /* \"#utility.yul\":11064:11067   */\n      0x00\n        /* \"#utility.yul\":11085:11090   */\n      dup2\n        /* \"#utility.yul\":11078:11090   */\n      swap1\n      pop\n        /* \"#utility.yul\":11021:11096   */\n      swap2\n      swap1\n      pop\n      jump\t// out\n        /* \"#utility.yul\":11102:11371   */\n    tag_77:\n        /* \"#utility.yul\":11212:11251   */\n      tag_203\n        /* \"#utility.yul\":11243:11250   */\n      dup4\n        /* \"#utility.yul\":11212:11251   */\n      tag_75\n      jump\t// in\n    tag_203:\n        /* \"#utility.yul\":11273:11364   */\n      tag_204\n        /* \"#utility.yul\":11322:11363   */\n      tag_205\n        /* \"#utility.yul\":11346:11362   */\n      dup3\n        /* \"#utility.yul\":11322:11363   */\n      tag_76\n      jump\t// in\n    tag_205:\n        /* \"#utility.yul\":11314:11320   */\n      dup5\n        /* \"#utility.yul\":11307:11311   */\n      dup5\n        /* \"#utility.yul\":11301:11312   */\n      sload\n        /* \"#utility.yul\":11273:11364   */\n      tag_73\n      jump\t// in\n    tag_204:\n        /* \"#utility.yul\":11267:11271   */\n      dup3\n        /* \"#utility.yul\":11260:11365   */\n      sstore\n        /* \"#utility.yul\":11178:11371   */\n      pop\n        /* \"#utility.yul\":11102:11371   */\n      pop\n      pop\n      pop\n      jump\t// out\n        /* \"#utility.yul\":11377:11450   */\n    tag_78:\n        /* \"#utility.yul\":11422:11425   */\n      0x00\n        /* \"#utility.yul\":11377:11450   */\n      swap1\n      jump\t// out\n        /* \"#utility.yul\":11456:11645   */\n    tag_79:\n        /* \"#utility.yul\":11533:11565   */\n      tag_208\n      tag_78\n      jump\t// in\n    tag_208:\n        /* \"#utility.yul\":11574:11639   */\n      tag_209\n        /* \"#utility.yul\":11632:11638   */\n      dup2\n        /* \"#utility.yul\":11624:11630   */\n      dup5\n        /* \"#utility.yul\":11618:11622   */\n      dup5\n        /* \"#utility.yul\":11574:11639   */\n      tag_77\n      jump\t// in\n    tag_209:\n        /* \"#utility.yul\":11509:11645   */\n      pop\n        /* \"#utility.yul\":11456:11645   */\n      pop\n      pop\n      jump\t// out\n        /* \"#utility.yul\":11651:11837   */\n    tag_80:\n        /* \"#utility.yul\":11711:11831   */\n    tag_211:\n        /* \"#utility.yul\":11728:11731   */\n      dup2\n        /* \"#utility.yul\":11721:11726   */\n      dup2\n        /* \"#utility.yul\":11718:11732   */\n      lt\n        /* \"#utility.yul\":11711:11831   */\n      iszero\n      tag_213\n      jumpi\n        /* \"#utility.yul\":11782:11821   */\n      tag_214\n        /* \"#utility.yul\":11819:11820   */\n      0x00\n        /* \"#utility.yul\":11812:11817   */\n      dup3\n        /* \"#utility.yul\":11782:11821   */\n      tag_79\n      jump\t// in\n    tag_214:\n        /* \"#utility.yul\":11755:11756   */\n      0x01\n        /* \"#utility.yul\":11748:11753   */\n      dup2\n        /* \"#utility.yul\":11744:11757   */\n      add\n        /* \"#utility.yul\":11735:11757   */\n      swap1\n      pop\n        /* \"#utility.yul\":11711:11831   */\n      jump(tag_211)\n    tag_213:\n        /* \"#utility.yul\":11651:11837   */\n      pop\n      pop\n      jump\t// out\n        /* \"#utility.yul\":11843:12386   */\n    tag_81:\n        /* \"#utility.yul\":11944:11946   */\n      0x1f\n        /* \"#utility.yul\":11939:11942   */\n      dup3\n        /* \"#utility.yul\":11936:11947   */\n      gt\n        /* \"#utility.yul\":11933:12379   */\n      iszero\n      tag_216\n      jumpi\n        /* \"#utility.yul\":11978:12016   */\n      tag_217\n        /* \"#utility.yul\":12010:12015   */\n      dup2\n        /* \"#utility.yul\":11978:12016   */\n      tag_70\n      jump\t// in\n    tag_217:\n        /* \"#utility.yul\":12062:12091   */\n      tag_218\n        /* \"#utility.yul\":12080:12090   */\n      dup5\n        /* \"#utility.yul\":12062:12091   */\n      tag_71\n      jump\t// in\n    tag_218:\n        /* \"#utility.yul\":12052:12060   */\n      dup2\n        /* \"#utility.yul\":12048:12092   */\n      add\n        /* \"#utility.yul\":12245:12247   */\n      0x20\n        /* \"#utility.yul\":12233:12243   */\n      dup6\n        /* \"#utility.yul\":12230:12248   */\n      lt\n        /* \"#utility.yul\":12227:12276   */\n      iszero\n      tag_219\n      jumpi\n        /* \"#utility.yul\":12266:12274   */\n      dup2\n        /* \"#utility.yul\":12251:12274   */\n      swap1\n      pop\n        /* \"#utility.yul\":12227:12276   */\n    tag_219:\n        /* \"#utility.yul\":12289:12369   */\n      tag_220\n        /* \"#utility.yul\":12345:12367   */\n      tag_221\n        /* \"#utility.yul\":12363:12366   */\n      dup6\n        /* \"#utility.yul\":12345:12367   */\n      tag_71\n      jump\t// in\n    tag_221:\n        /* \"#utility.yul\":12335:12343   */\n      dup4\n        /* \"#utility.yul\":12331:12368   */\n      add\n        /* \"#utility.yul\":12318:12329   */\n      dup3\n        /* \"#utility.yul\":12289:12369   */\n      tag_80\n      jump\t// in\n    tag_220:\n        /* \"#utility.yul\":11948:12379   */\n      pop\n      pop\n        /* \"#utility.yul\":11933:12379   */\n    tag_216:\n        /* \"#utility.yul\":11843:12386   */\n      pop\n      pop\n      pop\n      jump\t// out\n        /* \"#utility.yul\":12392:12509   */\n    tag_82:\n        /* \"#utility.yul\":12446:12454   */\n      0x00\n        /* \"#utility.yul\":12496:12501   */\n      dup3\n        /* \"#utility.yul\":12490:12494   */\n      dup3\n        /* \"#utility.yul\":12486:12502   */\n      shr\n        /* \"#utility.yul\":12465:12502   */\n      swap1\n      pop\n        /* \"#utility.yul\":12392:12509   */\n      swap3\n      swap2\n      pop\n      pop\n      jump\t// out\n        /* \"#utility.yul\":12515:12684   */\n    tag_83:\n        /* \"#utility.yul\":12559:12565   */\n      0x00\n        /* \"#utility.yul\":12592:12643   */\n      tag_224\n        /* \"#utility.yul\":12640:12641   */\n      0x00\n        /* \"#utility.yul\":12636:12642   */\n      not\n        /* \"#utility.yul\":12628:12633   */\n      dup5\n        /* \"#utility.yul\":12625:12626   */\n      0x08\n        /* \"#utility.yul\":12621:12634   */\n      mul\n        /* \"#utility.yul\":12592:12643   */\n      tag_82\n      jump\t// in\n    tag_224:\n        /* \"#utility.yul\":12588:12644   */\n      not\n        /* \"#utility.yul\":12673:12677   */\n      dup1\n        /* \"#utility.yul\":12667:12671   */\n      dup4\n        /* \"#utility.yul\":12663:12678   */\n      and\n        /* \"#utility.yul\":12653:12678   */\n      swap2\n      pop\n        /* \"#utility.yul\":12566:12684   */\n      pop\n        /* \"#utility.yul\":12515:12684   */\n      swap3\n      swap2\n      pop\n      pop\n      jump\t// out\n        /* \"#utility.yul\":12689:12984   */\n    tag_84:\n        /* \"#utility.yul\":12765:12769   */\n      0x00\n        /* \"#utility.yul\":12911:12940   */\n      tag_226\n        /* \"#utility.yul\":12936:12939   */\n      dup4\n        /* \"#utility.yul\":12930:12934   */\n      dup4\n        /* \"#utility.yul\":12911:12940   */\n      tag_83\n      jump\t// in\n    tag_226:\n        /* \"#utility.yul\":12903:12940   */\n      swap2\n      pop\n        /* \"#utility.yul\":12973:12976   */\n      dup3\n        /* \"#utility.yul\":12970:12971   */\n      0x02\n        /* \"#utility.yul\":12966:12977   */\n      mul\n        /* \"#utility.yul\":12960:12964   */\n      dup3\n        /* \"#utility.yul\":12957:12978   */\n      or\n        /* \"#utility.yul\":12949:12978   */\n      swap1\n      pop\n        /* \"#utility.yul\":12689:12984   */\n      swap3\n      swap2\n      pop\n      pop\n      jump\t// out\n        /* \"#utility.yul\":12989:14384   */\n    tag_36:\n        /* \"#utility.yul\":13106:13143   */\n      tag_228\n        /* \"#utility.yul\":13139:13142   */\n      dup3\n        /* \"#utility.yul\":13106:13143   */\n      tag_48\n      jump\t// in\n    tag_228:\n        /* \"#utility.yul\":13208:13226   */\n      0xffffffffffffffff\n        /* \"#utility.yul\":13200:13206   */\n      dup2\n        /* \"#utility.yul\":13197:13227   */\n      gt\n        /* \"#utility.yul\":13194:13250   */\n      iszero\n      tag_229\n      jumpi\n        /* \"#utility.yul\":13230:13248   */\n      tag_230\n      tag_58\n      jump\t// in\n    tag_230:\n        /* \"#utility.yul\":13194:13250   */\n    tag_229:\n        /* \"#utility.yul\":13274:13312   */\n      tag_231\n        /* \"#utility.yul\":13306:13310   */\n      dup3\n        /* \"#utility.yul\":13300:13311   */\n      sload\n        /* \"#utility.yul\":13274:13312   */\n      tag_23\n      jump\t// in\n    tag_231:\n        /* \"#utility.yul\":13359:13426   */\n      tag_232\n        /* \"#utility.yul\":13419:13425   */\n      dup3\n        /* \"#utility.yul\":13411:13417   */\n      dup3\n        /* \"#utility.yul\":13405:13409   */\n      dup6\n        /* \"#utility.yul\":13359:13426   */\n      tag_81\n      jump\t// in\n    tag_232:\n        /* \"#utility.yul\":13453:13454   */\n      0x00\n        /* \"#utility.yul\":13477:13481   */\n      0x20\n        /* \"#utility.yul\":13464:13481   */\n      swap1\n      pop\n        /* \"#utility.yul\":13509:13511   */\n      0x1f\n        /* \"#utility.yul\":13501:13507   */\n      dup4\n        /* \"#utility.yul\":13498:13512   */\n      gt\n        /* \"#utility.yul\":13526:13527   */\n      0x01\n        /* \"#utility.yul\":13521:14139   */\n      dup2\n      eq\n      tag_234\n      jumpi\n        /* \"#utility.yul\":14183:14184   */\n      0x00\n        /* \"#utility.yul\":14200:14206   */\n      dup5\n        /* \"#utility.yul\":14197:14274   */\n      iszero\n      tag_235\n      jumpi\n        /* \"#utility.yul\":14249:14258   */\n      dup3\n        /* \"#utility.yul\":14244:14247   */\n      dup8\n        /* \"#utility.yul\":14240:14259   */\n      add\n        /* \"#utility.yul\":14234:14260   */\n      mload\n        /* \"#utility.yul\":14225:14260   */\n      swap1\n      pop\n        /* \"#utility.yul\":14197:14274   */\n    tag_235:\n        /* \"#utility.yul\":14300:14367   */\n      tag_236\n        /* \"#utility.yul\":14360:14366   */\n      dup6\n        /* \"#utility.yul\":14353:14358   */\n      dup3\n        /* \"#utility.yul\":14300:14367   */\n      tag_84\n      jump\t// in\n    tag_236:\n        /* \"#utility.yul\":14294:14298   */\n      dup7\n        /* \"#utility.yul\":14287:14368   */\n      sstore\n        /* \"#utility.yul\":14156:14378   */\n      pop\n        /* \"#utility.yul\":13491:14378   */\n      jump(tag_233)\n        /* \"#utility.yul\":13521:14139   */\n    tag_234:\n        /* \"#utility.yul\":13573:13577   */\n      0x1f\n        /* \"#utility.yul\":13569:13578   */\n      not\n        /* \"#utility.yul\":13561:13567   */\n      dup5\n        /* \"#utility.yul\":13557:13579   */\n      and\n        /* \"#utility.yul\":13607:13644   */\n      tag_237\n        /* \"#utility.yul\":13639:13643   */\n      dup7\n        /* \"#utility.yul\":13607:13644   */\n      tag_70\n      jump\t// in\n    tag_237:\n        /* \"#utility.yul\":13666:13667   */\n      0x00\n        /* \"#utility.yul\":13680:13888   */\n    tag_238:\n        /* \"#utility.yul\":13694:13701   */\n      dup3\n        /* \"#utility.yul\":13691:13692   */\n      dup2\n        /* \"#utility.yul\":13688:13702   */\n      lt\n        /* \"#utility.yul\":13680:13888   */\n      iszero\n      tag_240\n      jumpi\n        /* \"#utility.yul\":13773:13782   */\n      dup5\n        /* \"#utility.yul\":13768:13771   */\n      dup10\n        /* \"#utility.yul\":13764:13783   */\n      add\n        /* \"#utility.yul\":13758:13784   */\n      mload\n        /* \"#utility.yul\":13750:13756   */\n      dup3\n        /* \"#utility.yul\":13743:13785   */\n      sstore\n        /* \"#utility.yul\":13824:13825   */\n      0x01\n        /* \"#utility.yul\":13816:13822   */\n      dup3\n        /* \"#utility.yul\":13812:13826   */\n      add\n        /* \"#utility.yul\":13802:13826   */\n      swap2\n      pop\n        /* \"#utility.yul\":13871:13873   */\n      0x20\n        /* \"#utility.yul\":13860:13869   */\n      dup6\n        /* \"#utility.yul\":13856:13874   */\n      add\n        /* \"#utility.yul\":13843:13874   */\n      swap5\n      pop\n        /* \"#utility.yul\":13717:13721   */\n      0x20\n        /* \"#utility.yul\":13714:13715   */\n      dup2\n        /* \"#utility.yul\":13710:13722   */\n      add\n        /* \"#utility.yul\":13705:13722   */\n      swap1\n      pop\n        /* \"#utility.yul\":13680:13888   */\n      jump(tag_238)\n    tag_240:\n        /* \"#utility.yul\":13916:13922   */\n      dup7\n        /* \"#utility.yul\":13907:13914   */\n      dup4\n        /* \"#utility.yul\":13904:13923   */\n      lt\n        /* \"#utility.yul\":13901:14080   */\n      iszero\n      tag_241\n      jumpi\n        /* \"#utility.yul\":13974:13983   */\n      dup5\n        /* \"#utility.yul\":13969:13972   */\n      dup10\n        /* \"#utility.yul\":13965:13984   */\n      add\n        /* \"#utility.yul\":13959:13985   */\n      mload\n        /* \"#utility.yul\":14017:14065   */\n      tag_242\n        /* \"#utility.yul\":14059:14063   */\n      0x1f\n        /* \"#utility.yul\":14051:14057   */\n      dup10\n        /* \"#utility.yul\":14047:14064   */\n      and\n        /* \"#utility.yul\":14036:14045   */\n      dup3\n        /* \"#utility.yul\":14017:14065   */\n      tag_83\n      jump\t// in\n    tag_242:\n        /* \"#utility.yul\":14009:14015   */\n      dup4\n        /* \"#utility.yul\":14002:14066   */\n      sstore\n        /* \"#utility.yul\":13924:14080   */\n      pop\n        /* \"#utility.yul\":13901:14080   */\n    tag_241:\n        /* \"#utility.yul\":14126:14127   */\n      0x01\n        /* \"#utility.yul\":14122:14123   */\n      0x02\n        /* \"#utility.yul\":14114:14120   */\n      dup9\n        /* \"#utility.yul\":14110:14124   */\n      mul\n        /* \"#utility.yul\":14106:14128   */\n      add\n        /* \"#utility.yul\":14100:14104   */\n      dup9\n        /* \"#utility.yul\":14093:14129   */\n      sstore\n        /* \"#utility.yul\":13528:14139   */\n      pop\n      pop\n      pop\n        /* \"#utility.yul\":13491:14378   */\n    tag_233:\n      pop\n        /* \"#utility.yul\":13081:14384   */\n      pop\n      pop\n      pop\n        /* \"#utility.yul\":12989:14384   */\n      pop\n      pop\n      jump\t// out\n        /* \"#utility.yul\":14390:14570   */\n    tag_85:\n        /* \"#utility.yul\":14438:14515   */\n      0x4e487b7100000000000000000000000000000000000000000000000000000000\n        /* \"#utility.yul\":14435:14436   */\n      0x00\n        /* \"#utility.yul\":14428:14516   */\n      mstore\n        /* \"#utility.yul\":14535:14539   */\n      0x11\n        /* \"#utility.yul\":14532:14533   */\n      0x04\n        /* \"#utility.yul\":14525:14540   */\n      mstore\n        /* \"#utility.yul\":14559:14563   */\n      0x24\n        /* \"#utility.yul\":14556:14557   */\n      0x00\n        /* \"#utility.yul\":14549:14564   */\n      revert\n        /* \"#utility.yul\":14576:14809   */\n    tag_38:\n        /* \"#utility.yul\":14615:14618   */\n      0x00\n        /* \"#utility.yul\":14638:14662   */\n      tag_245\n        /* \"#utility.yul\":14656:14661   */\n      dup3\n        /* \"#utility.yul\":14638:14662   */\n      tag_42\n      jump\t// in\n    tag_245:\n        /* \"#utility.yul\":14629:14662   */\n      swap2\n      pop\n        /* \"#utility.yul\":14684:14750   */\n      0xffffffffffffffffffffffffffffffffffffffffffffffffffffffffffffffff\n        /* \"#utility.yul\":14677:14682   */\n      dup3\n        /* \"#utility.yul\":14674:14751   */\n      sub\n        /* \"#utility.yul\":14671:14774   */\n      tag_246\n      jumpi\n        /* \"#utility.yul\":14754:14772   */\n      tag_247\n      tag_85\n      jump\t// in\n    tag_247:\n        /* \"#utility.yul\":14671:14774   */\n    tag_246:\n        /* \"#utility.yul\":14801:14802   */\n      0x01\n        /* \"#utility.yul\":14794:14799   */\n      dup3\n        /* \"#utility.yul\":14790:14803   */\n      add\n        /* \"#utility.yul\":14783:14803   */\n      swap1\n      pop\n        /* \"#utility.yul\":14576:14809   */\n      swap2\n      swap1\n      pop\n      jump\t// out\n\n    auxdata: 0xa26469706673582212206e705b4d3059964d124dbce6dac37078ab8ace3041312c53275a59c413d28aed64736f6c63430008110033\n}\n",
				"bytecode": {
					"linkReferences": {},
					"object": "608060405234801561001057600080fd5b50610bc8806100206000396000f3fe608060405234801561001057600080fd5b50600436106100415760003560e01c80630b79143014610046578063c55b9f9b1461007b578063e11bb64d14610097575b600080fd5b610060600480360381019061005b919061039d565b6100c7565b604051610072969594939291906104aa565b60405180910390f35b61009560048036038101906100909190610673565b6101ab565b005b6100b160048036038101906100ac919061070a565b61032e565b6040516100be919061074a565b60405180910390f35b60006020528060005260406000206000915090508060000160009054906101000a900473ffffffffffffffffffffffffffffffffffffffff169080600101805461011090610794565b80601f016020809104026020016040519081016040528092919081815260200182805461013c90610794565b80156101895780601f1061015e57610100808354040283529160200191610189565b820191906000526020600020905b81548152906001019060200180831161016c57829003601f168201915b5050505050908060020154908060030154908060040154908060050154905086565b4283116101ed576040517f08c379a00000000000000000000000000000000000000000000000000000000081526004016101e490610811565b60405180910390fd5b60008111610230576040517f08c379a00000000000000000000000000000000000000000000000000000000081526004016102279061087d565b60405180910390fd5b6040518060c001604052803373ffffffffffffffffffffffffffffffffffffffff16815260200185815260200184815260200183815260200182815260200182815250600080600254815260200190815260200160002060008201518160000160006101000a81548173ffffffffffffffffffffffffffffffffffffffff021916908373ffffffffffffffffffffffffffffffffffffffff16021790555060208201518160010190816102e39190610a49565b5060408201518160020155606082015181600301556080820151816004015560a082015181600501559050506002600081548092919061032290610b4a565b91905055505050505050565b6001602052816000526040600020602052806000526040600020600091509150505481565b6000604051905090565b600080fd5b600080fd5b6000819050919050565b61037a81610367565b811461038557600080fd5b50565b60008135905061039781610371565b92915050565b6000602082840312156103b3576103b261035d565b5b60006103c184828501610388565b91505092915050565b600073ffffffffffffffffffffffffffffffffffffffff82169050919050565b60006103f5826103ca565b9050919050565b610405816103ea565b82525050565b600081519050919050565b600082825260208201905092915050565b60005b8381101561044557808201518184015260208101905061042a565b60008484015250505050565b6000601f19601f8301169050919050565b600061046d8261040b565b6104778185610416565b9350610487818560208601610427565b61049081610451565b840191505092915050565b6104a481610367565b82525050565b600060c0820190506104bf60008301896103fc565b81810360208301526104d18188610462565b90506104e0604083018761049b565b6104ed606083018661049b565b6104fa608083018561049b565b61050760a083018461049b565b979650505050505050565b61051b816103ea565b811461052657600080fd5b50565b60008135905061053881610512565b92915050565b600080fd5b600080fd5b7f4e487b7100000000000000000000000000000000000000000000000000000000600052604160045260246000fd5b61058082610451565b810181811067ffffffffffffffff8211171561059f5761059e610548565b5b80604052505050565b60006105b2610353565b90506105be8282610577565b919050565b600067ffffffffffffffff8211156105de576105dd610548565b5b6105e782610451565b9050602081019050919050565b82818337600083830152505050565b6000610616610611846105c3565b6105a8565b90508281526020810184848401111561063257610631610543565b5b61063d8482856105f4565b509392505050565b600082601f83011261065a5761065961053e565b5b813561066a848260208601610603565b91505092915050565b600080600080600060a0868803121561068f5761068e61035d565b5b600061069d88828901610529565b955050602086013567ffffffffffffffff8111156106be576106bd610362565b5b6106ca88828901610645565b94505060406106db88828901610388565b93505060606106ec88828901610388565b92505060806106fd88828901610388565b9150509295509295909350565b600080604083850312156107215761072061035d565b5b600061072f85828601610529565b925050602061074085828601610388565b9150509250929050565b600060208201905061075f600083018461049b565b92915050565b7f4e487b7100000000000000000000000000000000000000000000000000000000600052602260045260246000fd5b600060028204905060018216806107ac57607f821691505b6020821081036107bf576107be610765565b5b50919050565b7f546865204576656e7420686173206f7665720000000000000000000000000000600082015250565b60006107fb601283610416565b9150610806826107c5565b602082019050919050565b6000602082019050818103600083015261082a816107ee565b9050919050565b7f796f752063616e2052756e20746865204576656e747300000000000000000000600082015250565b6000610867601683610416565b915061087282610831565b602082019050919050565b600060208201905081810360008301526108968161085a565b9050919050565b60008190508160005260206000209050919050565b60006020601f8301049050919050565b600082821b905092915050565b6000600883026108ff7fffffffffffffffffffffffffffffffffffffffffffffffffffffffffffffffff826108c2565b61090986836108c2565b95508019841693508086168417925050509392505050565b6000819050919050565b600061094661094161093c84610367565b610921565b610367565b9050919050565b6000819050919050565b6109608361092b565b61097461096c8261094d565b8484546108cf565b825550505050565b600090565b61098961097c565b610994818484610957565b505050565b5b818110156109b8576109ad600082610981565b60018101905061099a565b5050565b601f8211156109fd576109ce8161089d565b6109d7846108b2565b810160208510156109e6578190505b6109fa6109f2856108b2565b830182610999565b50505b505050565b600082821c905092915050565b6000610a2060001984600802610a02565b1980831691505092915050565b6000610a398383610a0f565b9150826002028217905092915050565b610a528261040b565b67ffffffffffffffff811115610a6b57610a6a610548565b5b610a758254610794565b610a808282856109bc565b600060209050601f831160018114610ab35760008415610aa1578287015190505b610aab8582610a2d565b865550610b13565b601f198416610ac18661089d565b60005b82811015610ae957848901518255600182019150602085019450602081019050610ac4565b86831015610b065784890151610b02601f891682610a0f565b8355505b6001600288020188555050505b505050505050565b7f4e487b7100000000000000000000000000000000000000000000000000000000600052601160045260246000fd5b6000610b5582610367565b91507fffffffffffffffffffffffffffffffffffffffffffffffffffffffffffffffff8203610b8757610b86610b1b565b5b60018201905091905056fea26469706673582212206e705b4d3059964d124dbce6dac37078ab8ace3041312c53275a59c413d28aed64736f6c63430008110033",
					"opcodes": "PUSH1 0x80 PUSH1 0x40 MSTORE CALLVALUE DUP1 ISZERO PUSH2 0x10 JUMPI PUSH1 0x0 DUP1 REVERT JUMPDEST POP PUSH2 0xBC8 DUP1 PUSH2 0x20 PUSH1 0x0 CODECOPY PUSH1 0x0 RETURN INVALID PUSH1 0x80 PUSH1 0x40 MSTORE CALLVALUE DUP1 ISZERO PUSH2 0x10 JUMPI PUSH1 0x0 DUP1 REVERT JUMPDEST POP PUSH1 0x4 CALLDATASIZE LT PUSH2 0x41 JUMPI PUSH1 0x0 CALLDATALOAD PUSH1 0xE0 SHR DUP1 PUSH4 0xB791430 EQ PUSH2 0x46 JUMPI DUP1 PUSH4 0xC55B9F9B EQ PUSH2 0x7B JUMPI DUP1 PUSH4 0xE11BB64D EQ PUSH2 0x97 JUMPI JUMPDEST PUSH1 0x0 DUP1 REVERT JUMPDEST PUSH2 0x60 PUSH1 0x4 DUP1 CALLDATASIZE SUB DUP2 ADD SWAP1 PUSH2 0x5B SWAP2 SWAP1 PUSH2 0x39D JUMP JUMPDEST PUSH2 0xC7 JUMP JUMPDEST PUSH1 0x40 MLOAD PUSH2 0x72 SWAP7 SWAP6 SWAP5 SWAP4 SWAP3 SWAP2 SWAP1 PUSH2 0x4AA JUMP JUMPDEST PUSH1 0x40 MLOAD DUP1 SWAP2 SUB SWAP1 RETURN JUMPDEST PUSH2 0x95 PUSH1 0x4 DUP1 CALLDATASIZE SUB DUP2 ADD SWAP1 PUSH2 0x90 SWAP2 SWAP1 PUSH2 0x673 JUMP JUMPDEST PUSH2 0x1AB JUMP JUMPDEST STOP JUMPDEST PUSH2 0xB1 PUSH1 0x4 DUP1 CALLDATASIZE SUB DUP2 ADD SWAP1 PUSH2 0xAC SWAP2 SWAP1 PUSH2 0x70A JUMP JUMPDEST PUSH2 0x32E JUMP JUMPDEST PUSH1 0x40 MLOAD PUSH2 0xBE SWAP2 SWAP1 PUSH2 0x74A JUMP JUMPDEST PUSH1 0x40 MLOAD DUP1 SWAP2 SUB SWAP1 RETURN JUMPDEST PUSH1 0x0 PUSH1 0x20 MSTORE DUP1 PUSH1 0x0 MSTORE PUSH1 0x40 PUSH1 0x0 KECCAK256 PUSH1 0x0 SWAP2 POP SWAP1 POP DUP1 PUSH1 0x0 ADD PUSH1 0x0 SWAP1 SLOAD SWAP1 PUSH2 0x100 EXP SWAP1 DIV PUSH20 0xFFFFFFFFFFFFFFFFFFFFFFFFFFFFFFFFFFFFFFFF AND SWAP1 DUP1 PUSH1 0x1 ADD DUP1 SLOAD PUSH2 0x110 SWAP1 PUSH2 0x794 JUMP JUMPDEST DUP1 PUSH1 0x1F ADD PUSH1 0x20 DUP1 SWAP2 DIV MUL PUSH1 0x20 ADD PUSH1 0x40 MLOAD SWAP1 DUP2 ADD PUSH1 0x40 MSTORE DUP1 SWAP3 SWAP2 SWAP1 DUP2 DUP2 MSTORE PUSH1 0x20 ADD DUP3 DUP1 SLOAD PUSH2 0x13C SWAP1 PUSH2 0x794 JUMP JUMPDEST DUP1 ISZERO PUSH2 0x189 JUMPI DUP1 PUSH1 0x1F LT PUSH2 0x15E JUMPI PUSH2 0x100 DUP1 DUP4 SLOAD DIV MUL DUP4 MSTORE SWAP2 PUSH1 0x20 ADD SWAP2 PUSH2 0x189 JUMP JUMPDEST DUP3 ADD SWAP2 SWAP1 PUSH1 0x0 MSTORE PUSH1 0x20 PUSH1 0x0 KECCAK256 SWAP1 JUMPDEST DUP2 SLOAD DUP2 MSTORE SWAP1 PUSH1 0x1 ADD SWAP1 PUSH1 0x20 ADD DUP1 DUP4 GT PUSH2 0x16C JUMPI DUP3 SWAP1 SUB PUSH1 0x1F AND DUP3 ADD SWAP2 JUMPDEST POP POP POP POP POP SWAP1 DUP1 PUSH1 0x2 ADD SLOAD SWAP1 DUP1 PUSH1 0x3 ADD SLOAD SWAP1 DUP1 PUSH1 0x4 ADD SLOAD SWAP1 DUP1 PUSH1 0x5 ADD SLOAD SWAP1 POP DUP7 JUMP JUMPDEST TIMESTAMP DUP4 GT PUSH2 0x1ED JUMPI PUSH1 0x40 MLOAD PUSH32 0x8C379A000000000000000000000000000000000000000000000000000000000 DUP2 MSTORE PUSH1 0x4 ADD PUSH2 0x1E4 SWAP1 PUSH2 0x811 JUMP JUMPDEST PUSH1 0x40 MLOAD DUP1 SWAP2 SUB SWAP1 REVERT JUMPDEST PUSH1 0x0 DUP2 GT PUSH2 0x230 JUMPI PUSH1 0x40 MLOAD PUSH32 0x8C379A000000000000000000000000000000000000000000000000000000000 DUP2 MSTORE PUSH1 0x4 ADD PUSH2 0x227 SWAP1 PUSH2 0x87D JUMP JUMPDEST PUSH1 0x40 MLOAD DUP1 SWAP2 SUB SWAP1 REVERT JUMPDEST PUSH1 0x40 MLOAD DUP1 PUSH1 0xC0 ADD PUSH1 0x40 MSTORE DUP1 CALLER PUSH20 0xFFFFFFFFFFFFFFFFFFFFFFFFFFFFFFFFFFFFFFFF AND DUP2 MSTORE PUSH1 0x20 ADD DUP6 DUP2 MSTORE PUSH1 0x20 ADD DUP5 DUP2 MSTORE PUSH1 0x20 ADD DUP4 DUP2 MSTORE PUSH1 0x20 ADD DUP3 DUP2 MSTORE PUSH1 0x20 ADD DUP3 DUP2 MSTORE POP PUSH1 0x0 DUP1 PUSH1 0x2 SLOAD DUP2 MSTORE PUSH1 0x20 ADD SWAP1 DUP2 MSTORE PUSH1 0x20 ADD PUSH1 0x0 KECCAK256 PUSH1 0x0 DUP3 ADD MLOAD DUP2 PUSH1 0x0 ADD PUSH1 0x0 PUSH2 0x100 EXP DUP2 SLOAD DUP2 PUSH20 0xFFFFFFFFFFFFFFFFFFFFFFFFFFFFFFFFFFFFFFFF MUL NOT AND SWAP1 DUP4 PUSH20 0xFFFFFFFFFFFFFFFFFFFFFFFFFFFFFFFFFFFFFFFF AND MUL OR SWAP1 SSTORE POP PUSH1 0x20 DUP3 ADD MLOAD DUP2 PUSH1 0x1 ADD SWAP1 DUP2 PUSH2 0x2E3 SWAP2 SWAP1 PUSH2 0xA49 JUMP JUMPDEST POP PUSH1 0x40 DUP3 ADD MLOAD DUP2 PUSH1 0x2 ADD SSTORE PUSH1 0x60 DUP3 ADD MLOAD DUP2 PUSH1 0x3 ADD SSTORE PUSH1 0x80 DUP3 ADD MLOAD DUP2 PUSH1 0x4 ADD SSTORE PUSH1 0xA0 DUP3 ADD MLOAD DUP2 PUSH1 0x5 ADD SSTORE SWAP1 POP POP PUSH1 0x2 PUSH1 0x0 DUP2 SLOAD DUP1 SWAP3 SWAP2 SWAP1 PUSH2 0x322 SWAP1 PUSH2 0xB4A JUMP JUMPDEST SWAP2 SWAP1 POP SSTORE POP POP POP POP POP POP JUMP JUMPDEST PUSH1 0x1 PUSH1 0x20 MSTORE DUP2 PUSH1 0x0 MSTORE PUSH1 0x40 PUSH1 0x0 KECCAK256 PUSH1 0x20 MSTORE DUP1 PUSH1 0x0 MSTORE PUSH1 0x40 PUSH1 0x0 KECCAK256 PUSH1 0x0 SWAP2 POP SWAP2 POP POP SLOAD DUP2 JUMP JUMPDEST PUSH1 0x0 PUSH1 0x40 MLOAD SWAP1 POP SWAP1 JUMP JUMPDEST PUSH1 0x0 DUP1 REVERT JUMPDEST PUSH1 0x0 DUP1 REVERT JUMPDEST PUSH1 0x0 DUP2 SWAP1 POP SWAP2 SWAP1 POP JUMP JUMPDEST PUSH2 0x37A DUP2 PUSH2 0x367 JUMP JUMPDEST DUP2 EQ PUSH2 0x385 JUMPI PUSH1 0x0 DUP1 REVERT JUMPDEST POP JUMP JUMPDEST PUSH1 0x0 DUP2 CALLDATALOAD SWAP1 POP PUSH2 0x397 DUP2 PUSH2 0x371 JUMP JUMPDEST SWAP3 SWAP2 POP POP JUMP JUMPDEST PUSH1 0x0 PUSH1 0x20 DUP3 DUP5 SUB SLT ISZERO PUSH2 0x3B3 JUMPI PUSH2 0x3B2 PUSH2 0x35D JUMP JUMPDEST JUMPDEST PUSH1 0x0 PUSH2 0x3C1 DUP5 DUP3 DUP6 ADD PUSH2 0x388 JUMP JUMPDEST SWAP2 POP POP SWAP3 SWAP2 POP POP JUMP JUMPDEST PUSH1 0x0 PUSH20 0xFFFFFFFFFFFFFFFFFFFFFFFFFFFFFFFFFFFFFFFF DUP3 AND SWAP1 POP SWAP2 SWAP1 POP JUMP JUMPDEST PUSH1 0x0 PUSH2 0x3F5 DUP3 PUSH2 0x3CA JUMP JUMPDEST SWAP1 POP SWAP2 SWAP1 POP JUMP JUMPDEST PUSH2 0x405 DUP2 PUSH2 0x3EA JUMP JUMPDEST DUP3 MSTORE POP POP JUMP JUMPDEST PUSH1 0x0 DUP2 MLOAD SWAP1 POP SWAP2 SWAP1 POP JUMP JUMPDEST PUSH1 0x0 DUP3 DUP3 MSTORE PUSH1 0x20 DUP3 ADD SWAP1 POP SWAP3 SWAP2 POP POP JUMP JUMPDEST PUSH1 0x0 JUMPDEST DUP4 DUP2 LT ISZERO PUSH2 0x445 JUMPI DUP1 DUP3 ADD MLOAD DUP2 DUP5 ADD MSTORE PUSH1 0x20 DUP2 ADD SWAP1 POP PUSH2 0x42A JUMP JUMPDEST PUSH1 0x0 DUP5 DUP5 ADD MSTORE POP POP POP POP JUMP JUMPDEST PUSH1 0x0 PUSH1 0x1F NOT PUSH1 0x1F DUP4 ADD AND SWAP1 POP SWAP2 SWAP1 POP JUMP JUMPDEST PUSH1 0x0 PUSH2 0x46D DUP3 PUSH2 0x40B JUMP JUMPDEST PUSH2 0x477 DUP2 DUP6 PUSH2 0x416 JUMP JUMPDEST SWAP4 POP PUSH2 0x487 DUP2 DUP6 PUSH1 0x20 DUP7 ADD PUSH2 0x427 JUMP JUMPDEST PUSH2 0x490 DUP2 PUSH2 0x451 JUMP JUMPDEST DUP5 ADD SWAP2 POP POP SWAP3 SWAP2 POP POP JUMP JUMPDEST PUSH2 0x4A4 DUP2 PUSH2 0x367 JUMP JUMPDEST DUP3 MSTORE POP POP JUMP JUMPDEST PUSH1 0x0 PUSH1 0xC0 DUP3 ADD SWAP1 POP PUSH2 0x4BF PUSH1 0x0 DUP4 ADD DUP10 PUSH2 0x3FC JUMP JUMPDEST DUP2 DUP2 SUB PUSH1 0x20 DUP4 ADD MSTORE PUSH2 0x4D1 DUP2 DUP9 PUSH2 0x462 JUMP JUMPDEST SWAP1 POP PUSH2 0x4E0 PUSH1 0x40 DUP4 ADD DUP8 PUSH2 0x49B JUMP JUMPDEST PUSH2 0x4ED PUSH1 0x60 DUP4 ADD DUP7 PUSH2 0x49B JUMP JUMPDEST PUSH2 0x4FA PUSH1 0x80 DUP4 ADD DUP6 PUSH2 0x49B JUMP JUMPDEST PUSH2 0x507 PUSH1 0xA0 DUP4 ADD DUP5 PUSH2 0x49B JUMP JUMPDEST SWAP8 SWAP7 POP POP POP POP POP POP POP JUMP JUMPDEST PUSH2 0x51B DUP2 PUSH2 0x3EA JUMP JUMPDEST DUP2 EQ PUSH2 0x526 JUMPI PUSH1 0x0 DUP1 REVERT JUMPDEST POP JUMP JUMPDEST PUSH1 0x0 DUP2 CALLDATALOAD SWAP1 POP PUSH2 0x538 DUP2 PUSH2 0x512 JUMP JUMPDEST SWAP3 SWAP2 POP POP JUMP JUMPDEST PUSH1 0x0 DUP1 REVERT JUMPDEST PUSH1 0x0 DUP1 REVERT JUMPDEST PUSH32 0x4E487B7100000000000000000000000000000000000000000000000000000000 PUSH1 0x0 MSTORE PUSH1 0x41 PUSH1 0x4 MSTORE PUSH1 0x24 PUSH1 0x0 REVERT JUMPDEST PUSH2 0x580 DUP3 PUSH2 0x451 JUMP JUMPDEST DUP2 ADD DUP2 DUP2 LT PUSH8 0xFFFFFFFFFFFFFFFF DUP3 GT OR ISZERO PUSH2 0x59F JUMPI PUSH2 0x59E PUSH2 0x548 JUMP JUMPDEST JUMPDEST DUP1 PUSH1 0x40 MSTORE POP POP POP JUMP JUMPDEST PUSH1 0x0 PUSH2 0x5B2 PUSH2 0x353 JUMP JUMPDEST SWAP1 POP PUSH2 0x5BE DUP3 DUP3 PUSH2 0x577 JUMP JUMPDEST SWAP2 SWAP1 POP JUMP JUMPDEST PUSH1 0x0 PUSH8 0xFFFFFFFFFFFFFFFF DUP3 GT ISZERO PUSH2 0x5DE JUMPI PUSH2 0x5DD PUSH2 0x548 JUMP JUMPDEST JUMPDEST PUSH2 0x5E7 DUP3 PUSH2 0x451 JUMP JUMPDEST SWAP1 POP PUSH1 0x20 DUP2 ADD SWAP1 POP SWAP2 SWAP1 POP JUMP JUMPDEST DUP3 DUP2 DUP4 CALLDATACOPY PUSH1 0x0 DUP4 DUP4 ADD MSTORE POP POP POP JUMP JUMPDEST PUSH1 0x0 PUSH2 0x616 PUSH2 0x611 DUP5 PUSH2 0x5C3 JUMP JUMPDEST PUSH2 0x5A8 JUMP JUMPDEST SWAP1 POP DUP3 DUP2 MSTORE PUSH1 0x20 DUP2 ADD DUP5 DUP5 DUP5 ADD GT ISZERO PUSH2 0x632 JUMPI PUSH2 0x631 PUSH2 0x543 JUMP JUMPDEST JUMPDEST PUSH2 0x63D DUP5 DUP3 DUP6 PUSH2 0x5F4 JUMP JUMPDEST POP SWAP4 SWAP3 POP POP POP JUMP JUMPDEST PUSH1 0x0 DUP3 PUSH1 0x1F DUP4 ADD SLT PUSH2 0x65A JUMPI PUSH2 0x659 PUSH2 0x53E JUMP JUMPDEST JUMPDEST DUP2 CALLDATALOAD PUSH2 0x66A DUP5 DUP3 PUSH1 0x20 DUP7 ADD PUSH2 0x603 JUMP JUMPDEST SWAP2 POP POP SWAP3 SWAP2 POP POP JUMP JUMPDEST PUSH1 0x0 DUP1 PUSH1 0x0 DUP1 PUSH1 0x0 PUSH1 0xA0 DUP7 DUP9 SUB SLT ISZERO PUSH2 0x68F JUMPI PUSH2 0x68E PUSH2 0x35D JUMP JUMPDEST JUMPDEST PUSH1 0x0 PUSH2 0x69D DUP9 DUP3 DUP10 ADD PUSH2 0x529 JUMP JUMPDEST SWAP6 POP POP PUSH1 0x20 DUP7 ADD CALLDATALOAD PUSH8 0xFFFFFFFFFFFFFFFF DUP2 GT ISZERO PUSH2 0x6BE JUMPI PUSH2 0x6BD PUSH2 0x362 JUMP JUMPDEST JUMPDEST PUSH2 0x6CA DUP9 DUP3 DUP10 ADD PUSH2 0x645 JUMP JUMPDEST SWAP5 POP POP PUSH1 0x40 PUSH2 0x6DB DUP9 DUP3 DUP10 ADD PUSH2 0x388 JUMP JUMPDEST SWAP4 POP POP PUSH1 0x60 PUSH2 0x6EC DUP9 DUP3 DUP10 ADD PUSH2 0x388 JUMP JUMPDEST SWAP3 POP POP PUSH1 0x80 PUSH2 0x6FD DUP9 DUP3 DUP10 ADD PUSH2 0x388 JUMP JUMPDEST SWAP2 POP POP SWAP3 SWAP6 POP SWAP3 SWAP6 SWAP1 SWAP4 POP JUMP JUMPDEST PUSH1 0x0 DUP1 PUSH1 0x40 DUP4 DUP6 SUB SLT ISZERO PUSH2 0x721 JUMPI PUSH2 0x720 PUSH2 0x35D JUMP JUMPDEST JUMPDEST PUSH1 0x0 PUSH2 0x72F DUP6 DUP3 DUP7 ADD PUSH2 0x529 JUMP JUMPDEST SWAP3 POP POP PUSH1 0x20 PUSH2 0x740 DUP6 DUP3 DUP7 ADD PUSH2 0x388 JUMP JUMPDEST SWAP2 POP POP SWAP3 POP SWAP3 SWAP1 POP JUMP JUMPDEST PUSH1 0x0 PUSH1 0x20 DUP3 ADD SWAP1 POP PUSH2 0x75F PUSH1 0x0 DUP4 ADD DUP5 PUSH2 0x49B JUMP JUMPDEST SWAP3 SWAP2 POP POP JUMP JUMPDEST PUSH32 0x4E487B7100000000000000000000000000000000000000000000000000000000 PUSH1 0x0 MSTORE PUSH1 0x22 PUSH1 0x4 MSTORE PUSH1 0x24 PUSH1 0x0 REVERT JUMPDEST PUSH1 0x0 PUSH1 0x2 DUP3 DIV SWAP1 POP PUSH1 0x1 DUP3 AND DUP1 PUSH2 0x7AC JUMPI PUSH1 0x7F DUP3 AND SWAP2 POP JUMPDEST PUSH1 0x20 DUP3 LT DUP2 SUB PUSH2 0x7BF JUMPI PUSH2 0x7BE PUSH2 0x765 JUMP JUMPDEST JUMPDEST POP SWAP2 SWAP1 POP JUMP JUMPDEST PUSH32 0x546865204576656E7420686173206F7665720000000000000000000000000000 PUSH1 0x0 DUP3 ADD MSTORE POP JUMP JUMPDEST PUSH1 0x0 PUSH2 0x7FB PUSH1 0x12 DUP4 PUSH2 0x416 JUMP JUMPDEST SWAP2 POP PUSH2 0x806 DUP3 PUSH2 0x7C5 JUMP JUMPDEST PUSH1 0x20 DUP3 ADD SWAP1 POP SWAP2 SWAP1 POP JUMP JUMPDEST PUSH1 0x0 PUSH1 0x20 DUP3 ADD SWAP1 POP DUP2 DUP2 SUB PUSH1 0x0 DUP4 ADD MSTORE PUSH2 0x82A DUP2 PUSH2 0x7EE JUMP JUMPDEST SWAP1 POP SWAP2 SWAP1 POP JUMP JUMPDEST PUSH32 0x796F752063616E2052756E20746865204576656E747300000000000000000000 PUSH1 0x0 DUP3 ADD MSTORE POP JUMP JUMPDEST PUSH1 0x0 PUSH2 0x867 PUSH1 0x16 DUP4 PUSH2 0x416 JUMP JUMPDEST SWAP2 POP PUSH2 0x872 DUP3 PUSH2 0x831 JUMP JUMPDEST PUSH1 0x20 DUP3 ADD SWAP1 POP SWAP2 SWAP1 POP JUMP JUMPDEST PUSH1 0x0 PUSH1 0x20 DUP3 ADD SWAP1 POP DUP2 DUP2 SUB PUSH1 0x0 DUP4 ADD MSTORE PUSH2 0x896 DUP2 PUSH2 0x85A JUMP JUMPDEST SWAP1 POP SWAP2 SWAP1 POP JUMP JUMPDEST PUSH1 0x0 DUP2 SWAP1 POP DUP2 PUSH1 0x0 MSTORE PUSH1 0x20 PUSH1 0x0 KECCAK256 SWAP1 POP SWAP2 SWAP1 POP JUMP JUMPDEST PUSH1 0x0 PUSH1 0x20 PUSH1 0x1F DUP4 ADD DIV SWAP1 POP SWAP2 SWAP1 POP JUMP JUMPDEST PUSH1 0x0 DUP3 DUP3 SHL SWAP1 POP SWAP3 SWAP2 POP POP JUMP JUMPDEST PUSH1 0x0 PUSH1 0x8 DUP4 MUL PUSH2 0x8FF PUSH32 0xFFFFFFFFFFFFFFFFFFFFFFFFFFFFFFFFFFFFFFFFFFFFFFFFFFFFFFFFFFFFFFFF DUP3 PUSH2 0x8C2 JUMP JUMPDEST PUSH2 0x909 DUP7 DUP4 PUSH2 0x8C2 JUMP JUMPDEST SWAP6 POP DUP1 NOT DUP5 AND SWAP4 POP DUP1 DUP7 AND DUP5 OR SWAP3 POP POP POP SWAP4 SWAP3 POP POP POP JUMP JUMPDEST PUSH1 0x0 DUP2 SWAP1 POP SWAP2 SWAP1 POP JUMP JUMPDEST PUSH1 0x0 PUSH2 0x946 PUSH2 0x941 PUSH2 0x93C DUP5 PUSH2 0x367 JUMP JUMPDEST PUSH2 0x921 JUMP JUMPDEST PUSH2 0x367 JUMP JUMPDEST SWAP1 POP SWAP2 SWAP1 POP JUMP JUMPDEST PUSH1 0x0 DUP2 SWAP1 POP SWAP2 SWAP1 POP JUMP JUMPDEST PUSH2 0x960 DUP4 PUSH2 0x92B JUMP JUMPDEST PUSH2 0x974 PUSH2 0x96C DUP3 PUSH2 0x94D JUMP JUMPDEST DUP5 DUP5 SLOAD PUSH2 0x8CF JUMP JUMPDEST DUP3 SSTORE POP POP POP POP JUMP JUMPDEST PUSH1 0x0 SWAP1 JUMP JUMPDEST PUSH2 0x989 PUSH2 0x97C JUMP JUMPDEST PUSH2 0x994 DUP2 DUP5 DUP5 PUSH2 0x957 JUMP JUMPDEST POP POP POP JUMP JUMPDEST JUMPDEST DUP2 DUP2 LT ISZERO PUSH2 0x9B8 JUMPI PUSH2 0x9AD PUSH1 0x0 DUP3 PUSH2 0x981 JUMP JUMPDEST PUSH1 0x1 DUP2 ADD SWAP1 POP PUSH2 0x99A JUMP JUMPDEST POP POP JUMP JUMPDEST PUSH1 0x1F DUP3 GT ISZERO PUSH2 0x9FD JUMPI PUSH2 0x9CE DUP2 PUSH2 0x89D JUMP JUMPDEST PUSH2 0x9D7 DUP5 PUSH2 0x8B2 JUMP JUMPDEST DUP2 ADD PUSH1 0x20 DUP6 LT ISZERO PUSH2 0x9E6 JUMPI DUP2 SWAP1 POP JUMPDEST PUSH2 0x9FA PUSH2 0x9F2 DUP6 PUSH2 0x8B2 JUMP JUMPDEST DUP4 ADD DUP3 PUSH2 0x999 JUMP JUMPDEST POP POP JUMPDEST POP POP POP JUMP JUMPDEST PUSH1 0x0 DUP3 DUP3 SHR SWAP1 POP SWAP3 SWAP2 POP POP JUMP JUMPDEST PUSH1 0x0 PUSH2 0xA20 PUSH1 0x0 NOT DUP5 PUSH1 0x8 MUL PUSH2 0xA02 JUMP JUMPDEST NOT DUP1 DUP4 AND SWAP2 POP POP SWAP3 SWAP2 POP POP JUMP JUMPDEST PUSH1 0x0 PUSH2 0xA39 DUP4 DUP4 PUSH2 0xA0F JUMP JUMPDEST SWAP2 POP DUP3 PUSH1 0x2 MUL DUP3 OR SWAP1 POP SWAP3 SWAP2 POP POP JUMP JUMPDEST PUSH2 0xA52 DUP3 PUSH2 0x40B JUMP JUMPDEST PUSH8 0xFFFFFFFFFFFFFFFF DUP2 GT ISZERO PUSH2 0xA6B JUMPI PUSH2 0xA6A PUSH2 0x548 JUMP JUMPDEST JUMPDEST PUSH2 0xA75 DUP3 SLOAD PUSH2 0x794 JUMP JUMPDEST PUSH2 0xA80 DUP3 DUP3 DUP6 PUSH2 0x9BC JUMP JUMPDEST PUSH1 0x0 PUSH1 0x20 SWAP1 POP PUSH1 0x1F DUP4 GT PUSH1 0x1 DUP2 EQ PUSH2 0xAB3 JUMPI PUSH1 0x0 DUP5 ISZERO PUSH2 0xAA1 JUMPI DUP3 DUP8 ADD MLOAD SWAP1 POP JUMPDEST PUSH2 0xAAB DUP6 DUP3 PUSH2 0xA2D JUMP JUMPDEST DUP7 SSTORE POP PUSH2 0xB13 JUMP JUMPDEST PUSH1 0x1F NOT DUP5 AND PUSH2 0xAC1 DUP7 PUSH2 0x89D JUMP JUMPDEST PUSH1 0x0 JUMPDEST DUP3 DUP2 LT ISZERO PUSH2 0xAE9 JUMPI DUP5 DUP10 ADD MLOAD DUP3 SSTORE PUSH1 0x1 DUP3 ADD SWAP2 POP PUSH1 0x20 DUP6 ADD SWAP5 POP PUSH1 0x20 DUP2 ADD SWAP1 POP PUSH2 0xAC4 JUMP JUMPDEST DUP7 DUP4 LT ISZERO PUSH2 0xB06 JUMPI DUP5 DUP10 ADD MLOAD PUSH2 0xB02 PUSH1 0x1F DUP10 AND DUP3 PUSH2 0xA0F JUMP JUMPDEST DUP4 SSTORE POP JUMPDEST PUSH1 0x1 PUSH1 0x2 DUP9 MUL ADD DUP9 SSTORE POP POP POP JUMPDEST POP POP POP POP POP POP JUMP JUMPDEST PUSH32 0x4E487B7100000000000000000000000000000000000000000000000000000000 PUSH1 0x0 MSTORE PUSH1 0x11 PUSH1 0x4 MSTORE PUSH1 0x24 PUSH1 0x0 REVERT JUMPDEST PUSH1 0x0 PUSH2 0xB55 DUP3 PUSH2 0x367 JUMP JUMPDEST SWAP2 POP PUSH32 0xFFFFFFFFFFFFFFFFFFFFFFFFFFFFFFFFFFFFFFFFFFFFFFFFFFFFFFFFFFFFFFFF DUP3 SUB PUSH2 0xB87 JUMPI PUSH2 0xB86 PUSH2 0xB1B JUMP JUMPDEST JUMPDEST PUSH1 0x1 DUP3 ADD SWAP1 POP SWAP2 SWAP1 POP JUMP INVALID LOG2 PUSH5 0x6970667358 0x22 SLT KECCAK256 PUSH15 0x705B4D3059964D124DBCE6DAC37078 0xAB DUP11 0xCE ADDRESS COINBASE BALANCE 0x2C MSTORE8 0x27 GAS MSIZE 0xC4 SGT 0xD2 DUP11 0xED PUSH5 0x736F6C6343 STOP ADDMOD GT STOP CALLER "
				},
				"gasEstimates": {
					"creation": {
						"codeDepositCost": "603200",
						"executionCost": "638",
						"totalCost": "603838"
					},
					"external": {
						"createEvent(address,string,uint256,uint256,uint256)": "infinite",
						"events(uint256)": "infinite",
						"ticket(address,uint256)": "infinite"
					}
				},
				"methodIdentifiers": {
					"createEvent(address,string,uint256,uint256,uint256)": "c55b9f9b",
					"events(uint256)": "0b791430",
					"ticket(address,uint256)": "e11bb64d"
				}
			},
			"storageLayout": {
				"storage": [
					{
						"astId": 19,
						"contract": "Event.sol:OrganizingEvent",
						"label": "events",
						"offset": 0,
						"slot": "0",
						"type": "t_mapping(t_uint256,t_struct(Event)14_storage)"
					},
					{
						"astId": 25,
						"contract": "Event.sol:OrganizingEvent",
						"label": "ticket",
						"offset": 0,
						"slot": "1",
						"type": "t_mapping(t_address,t_mapping(t_uint256,t_uint256))"
					},
					{
						"astId": 27,
						"contract": "Event.sol:OrganizingEvent",
						"label": "nextId",
						"offset": 0,
						"slot": "2",
						"type": "t_uint256"
					}
				],
				"types": {
					"t_address": {
						"encoding": "inplace",
						"label": "address",
						"numberOfBytes": "20"
					},
					"t_mapping(t_address,t_mapping(t_uint256,t_uint256))": {
						"encoding": "mapping",
						"key": "t_address",
						"label": "mapping(address => mapping(uint256 => uint256))",
						"numberOfBytes": "32",
						"value": "t_mapping(t_uint256,t_uint256)"
					},
					"t_mapping(t_uint256,t_struct(Event)14_storage)": {
						"encoding": "mapping",
						"key": "t_uint256",
						"label": "mapping(uint256 => struct OrganizingEvent.Event)",
						"numberOfBytes": "32",
						"value": "t_struct(Event)14_storage"
					},
					"t_mapping(t_uint256,t_uint256)": {
						"encoding": "mapping",
						"key": "t_uint256",
						"label": "mapping(uint256 => uint256)",
						"numberOfBytes": "32",
						"value": "t_uint256"
					},
					"t_string_storage": {
						"encoding": "bytes",
						"label": "string",
						"numberOfBytes": "32"
					},
					"t_struct(Event)14_storage": {
						"encoding": "inplace",
						"label": "struct OrganizingEvent.Event",
						"members": [
							{
								"astId": 3,
								"contract": "Event.sol:OrganizingEvent",
								"label": "organizer",
								"offset": 0,
								"slot": "0",
								"type": "t_address"
							},
							{
								"astId": 5,
								"contract": "Event.sol:OrganizingEvent",
								"label": "name",
								"offset": 0,
								"slot": "1",
								"type": "t_string_storage"
							},
							{
								"astId": 7,
								"contract": "Event.sol:OrganizingEvent",
								"label": "date",
								"offset": 0,
								"slot": "2",
								"type": "t_uint256"
							},
							{
								"astId": 9,
								"contract": "Event.sol:OrganizingEvent",
								"label": "price",
								"offset": 0,
								"slot": "3",
								"type": "t_uint256"
							},
							{
								"astId": 11,
								"contract": "Event.sol:OrganizingEvent",
								"label": "ticketOpen",
								"offset": 0,
								"slot": "4",
								"type": "t_uint256"
							},
							{
								"astId": 13,
								"contract": "Event.sol:OrganizingEvent",
								"label": "ticketRemain",
								"offset": 0,
								"slot": "5",
								"type": "t_uint256"
							}
						],
						"numberOfBytes": "192"
					},
					"t_uint256": {
						"encoding": "inplace",
						"label": "uint256",
						"numberOfBytes": "32"
					}
				}
			},
			"userdoc": {
				"kind": "user",
				"methods": {},
				"version": 1
			}
		}
	}
}