{
	"Vending_Machine.sol": {
		"Vender": {
			"abi": [
				{
					"inputs": [],
					"stateMutability": "nonpayable",
					"type": "constructor"
				},
				{
					"inputs": [
						{
							"internalType": "address",
							"name": "",
							"type": "address"
						}
					],
					"name": "donutsBalance",
					"outputs": [
						{
							"internalType": "uint256",
							"name": "",
							"type": "uint256"
						}
					],
					"stateMutability": "view",
					"type": "function"
				},
				{
					"inputs": [],
					"name": "getDonutBalance",
					"outputs": [
						{
							"internalType": "uint256",
							"name": "",
							"type": "uint256"
						}
					],
					"stateMutability": "view",
					"type": "function"
				},
				{
					"inputs": [],
					"name": "owner",
					"outputs": [
						{
							"internalType": "address",
							"name": "",
							"type": "address"
						}
					],
					"stateMutability": "view",
					"type": "function"
				},
				{
					"inputs": [
						{
							"internalType": "uint256",
							"name": "amount",
							"type": "uint256"
						}
					],
					"name": "purchace",
					"outputs": [],
					"stateMutability": "payable",
					"type": "function"
				},
				{
					"inputs": [
						{
							"internalType": "uint256",
							"name": "amount",
							"type": "uint256"
						}
					],
					"name": "restock",
					"outputs": [],
					"stateMutability": "nonpayable",
					"type": "function"
				}
			],
			"devdoc": {
				"kind": "dev",
				"methods": {},
				"version": 1
			},
			"evm": {
				"assembly": "    /* \"Vending_Machine.sol\":74:623  contract Vender{... */\n  mstore(0x40, 0x80)\n    /* \"Vending_Machine.sol\":177:269  constructor() {... */\n  callvalue\n  dup1\n  iszero\n  tag_1\n  jumpi\n  0x00\n  dup1\n  revert\ntag_1:\n  pop\n    /* \"Vending_Machine.sol\":208:218  msg.sender */\n  caller\n    /* \"Vending_Machine.sol\":202:207  owner */\n  0x00\n  dup1\n    /* \"Vending_Machine.sol\":202:218  owner=msg.sender */\n  0x0100\n  exp\n  dup2\n  sload\n  dup2\n  0xffffffffffffffffffffffffffffffffffffffff\n  mul\n  not\n  and\n  swap1\n  dup4\n  0xffffffffffffffffffffffffffffffffffffffff\n  and\n  mul\n  or\n  swap1\n  sstore\n  pop\n    /* \"Vending_Machine.sol\":258:261  100 */\n  0x64\n    /* \"Vending_Machine.sol\":229:242  donutsBalance */\n  0x01\n    /* \"Vending_Machine.sol\":229:257  donutsBalance[address(this)] */\n  0x00\n    /* \"Vending_Machine.sol\":251:255  this */\n  address\n    /* \"Vending_Machine.sol\":229:257  donutsBalance[address(this)] */\n  0xffffffffffffffffffffffffffffffffffffffff\n  and\n  0xffffffffffffffffffffffffffffffffffffffff\n  and\n  dup2\n  mstore\n  0x20\n  add\n  swap1\n  dup2\n  mstore\n  0x20\n  add\n  0x00\n  keccak256\n    /* \"Vending_Machine.sol\":229:261  donutsBalance[address(this)]=100 */\n  dup2\n  swap1\n  sstore\n  pop\n    /* \"Vending_Machine.sol\":74:623  contract Vender{... */\n  dataSize(sub_0)\n  dup1\n  dataOffset(sub_0)\n  0x00\n  codecopy\n  0x00\n  return\nstop\n\nsub_0: assembly {\n        /* \"Vending_Machine.sol\":74:623  contract Vender{... */\n      mstore(0x40, 0x80)\n      jumpi(tag_1, lt(calldatasize, 0x04))\n      shr(0xe0, calldataload(0x00))\n      dup1\n      0x6c92c921\n      eq\n      tag_2\n      jumpi\n      dup1\n      0x745407b5\n      eq\n      tag_3\n      jumpi\n      dup1\n      0x8da5cb5b\n      eq\n      tag_4\n      jumpi\n      dup1\n      0x9cae1fa4\n      eq\n      tag_5\n      jumpi\n      dup1\n      0xc21a702a\n      eq\n      tag_6\n      jumpi\n    tag_1:\n      0x00\n      dup1\n      revert\n        /* \"Vending_Machine.sol\":432:548  function getDonutBalance() public view returns(uint){        ... */\n    tag_2:\n      callvalue\n      dup1\n      iszero\n      tag_7\n      jumpi\n      0x00\n      dup1\n      revert\n    tag_7:\n      pop\n      tag_8\n      tag_9\n      jump\t// in\n    tag_8:\n      mload(0x40)\n      tag_10\n      swap2\n      swap1\n      tag_11\n      jump\t// in\n    tag_10:\n      mload(0x40)\n      dup1\n      swap2\n      sub\n      swap1\n      return\n        /* \"Vending_Machine.sol\":556:620  function purchace(uint amount) public payable {... */\n    tag_3:\n      tag_12\n      0x04\n      dup1\n      calldatasize\n      sub\n      dup2\n      add\n      swap1\n      tag_13\n      swap2\n      swap1\n      tag_14\n      jump\t// in\n    tag_13:\n      tag_15\n      jump\t// in\n    tag_12:\n      stop\n        /* \"Vending_Machine.sol\":98:118  address public owner */\n    tag_4:\n      callvalue\n      dup1\n      iszero\n      tag_16\n      jumpi\n      0x00\n      dup1\n      revert\n    tag_16:\n      pop\n      tag_17\n      tag_18\n      jump\t// in\n    tag_17:\n      mload(0x40)\n      tag_19\n      swap2\n      swap1\n      tag_20\n      jump\t// in\n    tag_19:\n      mload(0x40)\n      dup1\n      swap2\n      sub\n      swap1\n      return\n        /* \"Vending_Machine.sol\":125:168  mapping(address=>uint) public donutsBalance */\n    tag_5:\n      callvalue\n      dup1\n      iszero\n      tag_21\n      jumpi\n      0x00\n      dup1\n      revert\n    tag_21:\n      pop\n      tag_22\n      0x04\n      dup1\n      calldatasize\n      sub\n      dup2\n      add\n      swap1\n      tag_23\n      swap2\n      swap1\n      tag_24\n      jump\t// in\n    tag_23:\n      tag_25\n      jump\t// in\n    tag_22:\n      mload(0x40)\n      tag_26\n      swap2\n      swap1\n      tag_11\n      jump\t// in\n    tag_26:\n      mload(0x40)\n      dup1\n      swap2\n      sub\n      swap1\n      return\n        /* \"Vending_Machine.sol\":277:424  function restock(uint amount) public {... */\n    tag_6:\n      callvalue\n      dup1\n      iszero\n      tag_27\n      jumpi\n      0x00\n      dup1\n      revert\n    tag_27:\n      pop\n      tag_28\n      0x04\n      dup1\n      calldatasize\n      sub\n      dup2\n      add\n      swap1\n      tag_29\n      swap2\n      swap1\n      tag_14\n      jump\t// in\n    tag_29:\n      tag_30\n      jump\t// in\n    tag_28:\n      stop\n        /* \"Vending_Machine.sol\":432:548  function getDonutBalance() public view returns(uint){        ... */\n    tag_9:\n        /* \"Vending_Machine.sol\":479:483  uint */\n      0x00\n        /* \"Vending_Machine.sol\":510:523  donutsBalance */\n      0x01\n        /* \"Vending_Machine.sol\":510:538  donutsBalance[address(this)] */\n      0x00\n        /* \"Vending_Machine.sol\":532:536  this */\n      address\n        /* \"Vending_Machine.sol\":510:538  donutsBalance[address(this)] */\n      0xffffffffffffffffffffffffffffffffffffffff\n      and\n      0xffffffffffffffffffffffffffffffffffffffff\n      and\n      dup2\n      mstore\n      0x20\n      add\n      swap1\n      dup2\n      mstore\n      0x20\n      add\n      0x00\n      keccak256\n      sload\n        /* \"Vending_Machine.sol\":503:538  return donutsBalance[address(this)] */\n      swap1\n      pop\n        /* \"Vending_Machine.sol\":432:548  function getDonutBalance() public view returns(uint){        ... */\n      swap1\n      jump\t// out\n        /* \"Vending_Machine.sol\":556:620  function purchace(uint amount) public payable {... */\n    tag_15:\n      pop\n      jump\t// out\n        /* \"Vending_Machine.sol\":98:118  address public owner */\n    tag_18:\n      0x00\n      dup1\n      sload\n      swap1\n      0x0100\n      exp\n      swap1\n      div\n      0xffffffffffffffffffffffffffffffffffffffff\n      and\n      dup2\n      jump\t// out\n        /* \"Vending_Machine.sol\":125:168  mapping(address=>uint) public donutsBalance */\n    tag_25:\n      mstore(0x20, 0x01)\n      dup1\n      0x00\n      mstore\n      keccak256(0x00, 0x40)\n      0x00\n      swap2\n      pop\n      swap1\n      pop\n      sload\n      dup2\n      jump\t// out\n        /* \"Vending_Machine.sol\":277:424  function restock(uint amount) public {... */\n    tag_30:\n        /* \"Vending_Machine.sol\":345:350  owner */\n      0x00\n      dup1\n      sload\n      swap1\n      0x0100\n      exp\n      swap1\n      div\n      0xffffffffffffffffffffffffffffffffffffffff\n      and\n        /* \"Vending_Machine.sol\":333:350  msg.sender==owner */\n      0xffffffffffffffffffffffffffffffffffffffff\n      and\n        /* \"Vending_Machine.sol\":333:343  msg.sender */\n      caller\n        /* \"Vending_Machine.sol\":333:350  msg.sender==owner */\n      0xffffffffffffffffffffffffffffffffffffffff\n      and\n      eq\n        /* \"Vending_Machine.sol\":325:369  require(msg.sender==owner,\"Sorry the owner\") */\n      tag_34\n      jumpi\n      mload(0x40)\n      0x08c379a000000000000000000000000000000000000000000000000000000000\n      dup2\n      mstore\n      0x04\n      add\n      tag_35\n      swap1\n      tag_36\n      jump\t// in\n    tag_35:\n      mload(0x40)\n      dup1\n      swap2\n      sub\n      swap1\n      revert\n    tag_34:\n        /* \"Vending_Machine.sol\":410:416  amount */\n      dup1\n        /* \"Vending_Machine.sol\":380:393  donutsBalance */\n      0x01\n        /* \"Vending_Machine.sol\":380:408  donutsBalance[address(this)] */\n      0x00\n        /* \"Vending_Machine.sol\":402:406  this */\n      address\n        /* \"Vending_Machine.sol\":380:408  donutsBalance[address(this)] */\n      0xffffffffffffffffffffffffffffffffffffffff\n      and\n      0xffffffffffffffffffffffffffffffffffffffff\n      and\n      dup2\n      mstore\n      0x20\n      add\n      swap1\n      dup2\n      mstore\n      0x20\n      add\n      0x00\n      keccak256\n      0x00\n        /* \"Vending_Machine.sol\":380:416  donutsBalance[address(this)]+=amount */\n      dup3\n      dup3\n      sload\n      tag_37\n      swap2\n      swap1\n      tag_38\n      jump\t// in\n    tag_37:\n      swap3\n      pop\n      pop\n      dup2\n      swap1\n      sstore\n      pop\n        /* \"Vending_Machine.sol\":277:424  function restock(uint amount) public {... */\n      pop\n      jump\t// out\n        /* \"#utility.yul\":7:84   */\n    tag_39:\n        /* \"#utility.yul\":44:51   */\n      0x00\n        /* \"#utility.yul\":73:78   */\n      dup2\n        /* \"#utility.yul\":62:78   */\n      swap1\n      pop\n        /* \"#utility.yul\":7:84   */\n      swap2\n      swap1\n      pop\n      jump\t// out\n        /* \"#utility.yul\":90:208   */\n    tag_40:\n        /* \"#utility.yul\":177:201   */\n      tag_58\n        /* \"#utility.yul\":195:200   */\n      dup2\n        /* \"#utility.yul\":177:201   */\n      tag_39\n      jump\t// in\n    tag_58:\n        /* \"#utility.yul\":172:175   */\n      dup3\n        /* \"#utility.yul\":165:202   */\n      mstore\n        /* \"#utility.yul\":90:208   */\n      pop\n      pop\n      jump\t// out\n        /* \"#utility.yul\":214:436   */\n    tag_11:\n        /* \"#utility.yul\":307:311   */\n      0x00\n        /* \"#utility.yul\":345:347   */\n      0x20\n        /* \"#utility.yul\":334:343   */\n      dup3\n        /* \"#utility.yul\":330:348   */\n      add\n        /* \"#utility.yul\":322:348   */\n      swap1\n      pop\n        /* \"#utility.yul\":358:429   */\n      tag_60\n        /* \"#utility.yul\":426:427   */\n      0x00\n        /* \"#utility.yul\":415:424   */\n      dup4\n        /* \"#utility.yul\":411:428   */\n      add\n        /* \"#utility.yul\":402:408   */\n      dup5\n        /* \"#utility.yul\":358:429   */\n      tag_40\n      jump\t// in\n    tag_60:\n        /* \"#utility.yul\":214:436   */\n      swap3\n      swap2\n      pop\n      pop\n      jump\t// out\n        /* \"#utility.yul\":523:640   */\n    tag_42:\n        /* \"#utility.yul\":632:633   */\n      0x00\n        /* \"#utility.yul\":629:630   */\n      dup1\n        /* \"#utility.yul\":622:634   */\n      revert\n        /* \"#utility.yul\":769:891   */\n    tag_44:\n        /* \"#utility.yul\":842:866   */\n      tag_65\n        /* \"#utility.yul\":860:865   */\n      dup2\n        /* \"#utility.yul\":842:866   */\n      tag_39\n      jump\t// in\n    tag_65:\n        /* \"#utility.yul\":835:840   */\n      dup2\n        /* \"#utility.yul\":832:867   */\n      eq\n        /* \"#utility.yul\":822:885   */\n      tag_66\n      jumpi\n        /* \"#utility.yul\":881:882   */\n      0x00\n        /* \"#utility.yul\":878:879   */\n      dup1\n        /* \"#utility.yul\":871:883   */\n      revert\n        /* \"#utility.yul\":822:885   */\n    tag_66:\n        /* \"#utility.yul\":769:891   */\n      pop\n      jump\t// out\n        /* \"#utility.yul\":897:1036   */\n    tag_45:\n        /* \"#utility.yul\":943:948   */\n      0x00\n        /* \"#utility.yul\":981:987   */\n      dup2\n        /* \"#utility.yul\":968:988   */\n      calldataload\n        /* \"#utility.yul\":959:988   */\n      swap1\n      pop\n        /* \"#utility.yul\":997:1030   */\n      tag_68\n        /* \"#utility.yul\":1024:1029   */\n      dup2\n        /* \"#utility.yul\":997:1030   */\n      tag_44\n      jump\t// in\n    tag_68:\n        /* \"#utility.yul\":897:1036   */\n      swap3\n      swap2\n      pop\n      pop\n      jump\t// out\n        /* \"#utility.yul\":1042:1371   */\n    tag_14:\n        /* \"#utility.yul\":1101:1107   */\n      0x00\n        /* \"#utility.yul\":1150:1152   */\n      0x20\n        /* \"#utility.yul\":1138:1147   */\n      dup3\n        /* \"#utility.yul\":1129:1136   */\n      dup5\n        /* \"#utility.yul\":1125:1148   */\n      sub\n        /* \"#utility.yul\":1121:1153   */\n      slt\n        /* \"#utility.yul\":1118:1237   */\n      iszero\n      tag_70\n      jumpi\n        /* \"#utility.yul\":1156:1235   */\n      tag_71\n      tag_42\n      jump\t// in\n    tag_71:\n        /* \"#utility.yul\":1118:1237   */\n    tag_70:\n        /* \"#utility.yul\":1276:1277   */\n      0x00\n        /* \"#utility.yul\":1301:1354   */\n      tag_72\n        /* \"#utility.yul\":1346:1353   */\n      dup5\n        /* \"#utility.yul\":1337:1343   */\n      dup3\n        /* \"#utility.yul\":1326:1335   */\n      dup6\n        /* \"#utility.yul\":1322:1344   */\n      add\n        /* \"#utility.yul\":1301:1354   */\n      tag_45\n      jump\t// in\n    tag_72:\n        /* \"#utility.yul\":1291:1354   */\n      swap2\n      pop\n        /* \"#utility.yul\":1247:1364   */\n      pop\n        /* \"#utility.yul\":1042:1371   */\n      swap3\n      swap2\n      pop\n      pop\n      jump\t// out\n        /* \"#utility.yul\":1377:1503   */\n    tag_46:\n        /* \"#utility.yul\":1414:1421   */\n      0x00\n        /* \"#utility.yul\":1454:1496   */\n      0xffffffffffffffffffffffffffffffffffffffff\n        /* \"#utility.yul\":1447:1452   */\n      dup3\n        /* \"#utility.yul\":1443:1497   */\n      and\n        /* \"#utility.yul\":1432:1497   */\n      swap1\n      pop\n        /* \"#utility.yul\":1377:1503   */\n      swap2\n      swap1\n      pop\n      jump\t// out\n        /* \"#utility.yul\":1509:1605   */\n    tag_47:\n        /* \"#utility.yul\":1546:1553   */\n      0x00\n        /* \"#utility.yul\":1575:1599   */\n      tag_75\n        /* \"#utility.yul\":1593:1598   */\n      dup3\n        /* \"#utility.yul\":1575:1599   */\n      tag_46\n      jump\t// in\n    tag_75:\n        /* \"#utility.yul\":1564:1599   */\n      swap1\n      pop\n        /* \"#utility.yul\":1509:1605   */\n      swap2\n      swap1\n      pop\n      jump\t// out\n        /* \"#utility.yul\":1611:1729   */\n    tag_48:\n        /* \"#utility.yul\":1698:1722   */\n      tag_77\n        /* \"#utility.yul\":1716:1721   */\n      dup2\n        /* \"#utility.yul\":1698:1722   */\n      tag_47\n      jump\t// in\n    tag_77:\n        /* \"#utility.yul\":1693:1696   */\n      dup3\n        /* \"#utility.yul\":1686:1723   */\n      mstore\n        /* \"#utility.yul\":1611:1729   */\n      pop\n      pop\n      jump\t// out\n        /* \"#utility.yul\":1735:1957   */\n    tag_20:\n        /* \"#utility.yul\":1828:1832   */\n      0x00\n        /* \"#utility.yul\":1866:1868   */\n      0x20\n        /* \"#utility.yul\":1855:1864   */\n      dup3\n        /* \"#utility.yul\":1851:1869   */\n      add\n        /* \"#utility.yul\":1843:1869   */\n      swap1\n      pop\n        /* \"#utility.yul\":1879:1950   */\n      tag_79\n        /* \"#utility.yul\":1947:1948   */\n      0x00\n        /* \"#utility.yul\":1936:1945   */\n      dup4\n        /* \"#utility.yul\":1932:1949   */\n      add\n        /* \"#utility.yul\":1923:1929   */\n      dup5\n        /* \"#utility.yul\":1879:1950   */\n      tag_48\n      jump\t// in\n    tag_79:\n        /* \"#utility.yul\":1735:1957   */\n      swap3\n      swap2\n      pop\n      pop\n      jump\t// out\n        /* \"#utility.yul\":1963:2085   */\n    tag_49:\n        /* \"#utility.yul\":2036:2060   */\n      tag_81\n        /* \"#utility.yul\":2054:2059   */\n      dup2\n        /* \"#utility.yul\":2036:2060   */\n      tag_47\n      jump\t// in\n    tag_81:\n        /* \"#utility.yul\":2029:2034   */\n      dup2\n        /* \"#utility.yul\":2026:2061   */\n      eq\n        /* \"#utility.yul\":2016:2079   */\n      tag_82\n      jumpi\n        /* \"#utility.yul\":2075:2076   */\n      0x00\n        /* \"#utility.yul\":2072:2073   */\n      dup1\n        /* \"#utility.yul\":2065:2077   */\n      revert\n        /* \"#utility.yul\":2016:2079   */\n    tag_82:\n        /* \"#utility.yul\":1963:2085   */\n      pop\n      jump\t// out\n        /* \"#utility.yul\":2091:2230   */\n    tag_50:\n        /* \"#utility.yul\":2137:2142   */\n      0x00\n        /* \"#utility.yul\":2175:2181   */\n      dup2\n        /* \"#utility.yul\":2162:2182   */\n      calldataload\n        /* \"#utility.yul\":2153:2182   */\n      swap1\n      pop\n        /* \"#utility.yul\":2191:2224   */\n      tag_84\n        /* \"#utility.yul\":2218:2223   */\n      dup2\n        /* \"#utility.yul\":2191:2224   */\n      tag_49\n      jump\t// in\n    tag_84:\n        /* \"#utility.yul\":2091:2230   */\n      swap3\n      swap2\n      pop\n      pop\n      jump\t// out\n        /* \"#utility.yul\":2236:2565   */\n    tag_24:\n        /* \"#utility.yul\":2295:2301   */\n      0x00\n        /* \"#utility.yul\":2344:2346   */\n      0x20\n        /* \"#utility.yul\":2332:2341   */\n      dup3\n        /* \"#utility.yul\":2323:2330   */\n      dup5\n        /* \"#utility.yul\":2319:2342   */\n      sub\n        /* \"#utility.yul\":2315:2347   */\n      slt\n        /* \"#utility.yul\":2312:2431   */\n      iszero\n      tag_86\n      jumpi\n        /* \"#utility.yul\":2350:2429   */\n      tag_87\n      tag_42\n      jump\t// in\n    tag_87:\n        /* \"#utility.yul\":2312:2431   */\n    tag_86:\n        /* \"#utility.yul\":2470:2471   */\n      0x00\n        /* \"#utility.yul\":2495:2548   */\n      tag_88\n        /* \"#utility.yul\":2540:2547   */\n      dup5\n        /* \"#utility.yul\":2531:2537   */\n      dup3\n        /* \"#utility.yul\":2520:2529   */\n      dup6\n        /* \"#utility.yul\":2516:2538   */\n      add\n        /* \"#utility.yul\":2495:2548   */\n      tag_50\n      jump\t// in\n    tag_88:\n        /* \"#utility.yul\":2485:2548   */\n      swap2\n      pop\n        /* \"#utility.yul\":2441:2558   */\n      pop\n        /* \"#utility.yul\":2236:2565   */\n      swap3\n      swap2\n      pop\n      pop\n      jump\t// out\n        /* \"#utility.yul\":2571:2740   */\n    tag_51:\n        /* \"#utility.yul\":2655:2666   */\n      0x00\n        /* \"#utility.yul\":2689:2695   */\n      dup3\n        /* \"#utility.yul\":2684:2687   */\n      dup3\n        /* \"#utility.yul\":2677:2696   */\n      mstore\n        /* \"#utility.yul\":2729:2733   */\n      0x20\n        /* \"#utility.yul\":2724:2727   */\n      dup3\n        /* \"#utility.yul\":2720:2734   */\n      add\n        /* \"#utility.yul\":2705:2734   */\n      swap1\n      pop\n        /* \"#utility.yul\":2571:2740   */\n      swap3\n      swap2\n      pop\n      pop\n      jump\t// out\n        /* \"#utility.yul\":2746:2911   */\n    tag_52:\n        /* \"#utility.yul\":2886:2903   */\n      0x536f72727920746865206f776e65720000000000000000000000000000000000\n        /* \"#utility.yul\":2882:2883   */\n      0x00\n        /* \"#utility.yul\":2874:2880   */\n      dup3\n        /* \"#utility.yul\":2870:2884   */\n      add\n        /* \"#utility.yul\":2863:2904   */\n      mstore\n        /* \"#utility.yul\":2746:2911   */\n      pop\n      jump\t// out\n        /* \"#utility.yul\":2917:3283   */\n    tag_53:\n        /* \"#utility.yul\":3059:3062   */\n      0x00\n        /* \"#utility.yul\":3080:3147   */\n      tag_92\n        /* \"#utility.yul\":3144:3146   */\n      0x0f\n        /* \"#utility.yul\":3139:3142   */\n      dup4\n        /* \"#utility.yul\":3080:3147   */\n      tag_51\n      jump\t// in\n    tag_92:\n        /* \"#utility.yul\":3073:3147   */\n      swap2\n      pop\n        /* \"#utility.yul\":3156:3249   */\n      tag_93\n        /* \"#utility.yul\":3245:3248   */\n      dup3\n        /* \"#utility.yul\":3156:3249   */\n      tag_52\n      jump\t// in\n    tag_93:\n        /* \"#utility.yul\":3274:3276   */\n      0x20\n        /* \"#utility.yul\":3269:3272   */\n      dup3\n        /* \"#utility.yul\":3265:3277   */\n      add\n        /* \"#utility.yul\":3258:3277   */\n      swap1\n      pop\n        /* \"#utility.yul\":2917:3283   */\n      swap2\n      swap1\n      pop\n      jump\t// out\n        /* \"#utility.yul\":3289:3708   */\n    tag_36:\n        /* \"#utility.yul\":3455:3459   */\n      0x00\n        /* \"#utility.yul\":3493:3495   */\n      0x20\n        /* \"#utility.yul\":3482:3491   */\n      dup3\n        /* \"#utility.yul\":3478:3496   */\n      add\n        /* \"#utility.yul\":3470:3496   */\n      swap1\n      pop\n        /* \"#utility.yul\":3542:3551   */\n      dup2\n        /* \"#utility.yul\":3536:3540   */\n      dup2\n        /* \"#utility.yul\":3532:3552   */\n      sub\n        /* \"#utility.yul\":3528:3529   */\n      0x00\n        /* \"#utility.yul\":3517:3526   */\n      dup4\n        /* \"#utility.yul\":3513:3530   */\n      add\n        /* \"#utility.yul\":3506:3553   */\n      mstore\n        /* \"#utility.yul\":3570:3701   */\n      tag_95\n        /* \"#utility.yul\":3696:3700   */\n      dup2\n        /* \"#utility.yul\":3570:3701   */\n      tag_53\n      jump\t// in\n    tag_95:\n        /* \"#utility.yul\":3562:3701   */\n      swap1\n      pop\n        /* \"#utility.yul\":3289:3708   */\n      swap2\n      swap1\n      pop\n      jump\t// out\n        /* \"#utility.yul\":3714:3894   */\n    tag_54:\n        /* \"#utility.yul\":3762:3839   */\n      0x4e487b7100000000000000000000000000000000000000000000000000000000\n        /* \"#utility.yul\":3759:3760   */\n      0x00\n        /* \"#utility.yul\":3752:3840   */\n      mstore\n        /* \"#utility.yul\":3859:3863   */\n      0x11\n        /* \"#utility.yul\":3856:3857   */\n      0x04\n        /* \"#utility.yul\":3849:3864   */\n      mstore\n        /* \"#utility.yul\":3883:3887   */\n      0x24\n        /* \"#utility.yul\":3880:3881   */\n      0x00\n        /* \"#utility.yul\":3873:3888   */\n      revert\n        /* \"#utility.yul\":3900:4091   */\n    tag_38:\n        /* \"#utility.yul\":3940:3943   */\n      0x00\n        /* \"#utility.yul\":3959:3979   */\n      tag_98\n        /* \"#utility.yul\":3977:3978   */\n      dup3\n        /* \"#utility.yul\":3959:3979   */\n      tag_39\n      jump\t// in\n    tag_98:\n        /* \"#utility.yul\":3954:3979   */\n      swap2\n      pop\n        /* \"#utility.yul\":3993:4013   */\n      tag_99\n        /* \"#utility.yul\":4011:4012   */\n      dup4\n        /* \"#utility.yul\":3993:4013   */\n      tag_39\n      jump\t// in\n    tag_99:\n        /* \"#utility.yul\":3988:4013   */\n      swap3\n      pop\n        /* \"#utility.yul\":4036:4037   */\n      dup3\n        /* \"#utility.yul\":4033:4034   */\n      dup3\n        /* \"#utility.yul\":4029:4038   */\n      add\n        /* \"#utility.yul\":4022:4038   */\n      swap1\n      pop\n        /* \"#utility.yul\":4057:4060   */\n      dup1\n        /* \"#utility.yul\":4054:4055   */\n      dup3\n        /* \"#utility.yul\":4051:4061   */\n      gt\n        /* \"#utility.yul\":4048:4084   */\n      iszero\n      tag_100\n      jumpi\n        /* \"#utility.yul\":4064:4082   */\n      tag_101\n      tag_54\n      jump\t// in\n    tag_101:\n        /* \"#utility.yul\":4048:4084   */\n    tag_100:\n        /* \"#utility.yul\":3900:4091   */\n      swap3\n      swap2\n      pop\n      pop\n      jump\t// out\n\n    auxdata: 0xa264697066735822122091e7b31727bae14ffd5c2d7bf54e8822183b9fc7f78921bdda2a7697b9df6d2d64736f6c63430008110033\n}\n",
				"bytecode": {
					"linkReferences": {},
					"object": "608060405234801561001057600080fd5b50336000806101000a81548173ffffffffffffffffffffffffffffffffffffffff021916908373ffffffffffffffffffffffffffffffffffffffff1602179055506064600160003073ffffffffffffffffffffffffffffffffffffffff1673ffffffffffffffffffffffffffffffffffffffff168152602001908152602001600020819055506104f1806100a56000396000f3fe60806040526004361061004a5760003560e01c80636c92c9211461004f578063745407b51461007a5780638da5cb5b146100965780639cae1fa4146100c1578063c21a702a146100fe575b600080fd5b34801561005b57600080fd5b50610064610127565b60405161007191906102ad565b60405180910390f35b610094600480360381019061008f91906102f9565b61016e565b005b3480156100a257600080fd5b506100ab610171565b6040516100b89190610367565b60405180910390f35b3480156100cd57600080fd5b506100e860048036038101906100e391906103ae565b610195565b6040516100f591906102ad565b60405180910390f35b34801561010a57600080fd5b50610125600480360381019061012091906102f9565b6101ad565b005b6000600160003073ffffffffffffffffffffffffffffffffffffffff1673ffffffffffffffffffffffffffffffffffffffff16815260200190815260200160002054905090565b50565b60008054906101000a900473ffffffffffffffffffffffffffffffffffffffff1681565b60016020528060005260406000206000915090505481565b60008054906101000a900473ffffffffffffffffffffffffffffffffffffffff1673ffffffffffffffffffffffffffffffffffffffff163373ffffffffffffffffffffffffffffffffffffffff161461023b576040517f08c379a000000000000000000000000000000000000000000000000000000000815260040161023290610438565b60405180910390fd5b80600160003073ffffffffffffffffffffffffffffffffffffffff1673ffffffffffffffffffffffffffffffffffffffff168152602001908152602001600020600082825461028a9190610487565b9250508190555050565b6000819050919050565b6102a781610294565b82525050565b60006020820190506102c2600083018461029e565b92915050565b600080fd5b6102d681610294565b81146102e157600080fd5b50565b6000813590506102f3816102cd565b92915050565b60006020828403121561030f5761030e6102c8565b5b600061031d848285016102e4565b91505092915050565b600073ffffffffffffffffffffffffffffffffffffffff82169050919050565b600061035182610326565b9050919050565b61036181610346565b82525050565b600060208201905061037c6000830184610358565b92915050565b61038b81610346565b811461039657600080fd5b50565b6000813590506103a881610382565b92915050565b6000602082840312156103c4576103c36102c8565b5b60006103d284828501610399565b91505092915050565b600082825260208201905092915050565b7f536f72727920746865206f776e65720000000000000000000000000000000000600082015250565b6000610422600f836103db565b915061042d826103ec565b602082019050919050565b6000602082019050818103600083015261045181610415565b9050919050565b7f4e487b7100000000000000000000000000000000000000000000000000000000600052601160045260246000fd5b600061049282610294565b915061049d83610294565b92508282019050808211156104b5576104b4610458565b5b9291505056fea264697066735822122091e7b31727bae14ffd5c2d7bf54e8822183b9fc7f78921bdda2a7697b9df6d2d64736f6c63430008110033",
					"opcodes": "PUSH1 0x80 PUSH1 0x40 MSTORE CALLVALUE DUP1 ISZERO PUSH2 0x10 JUMPI PUSH1 0x0 DUP1 REVERT JUMPDEST POP CALLER PUSH1 0x0 DUP1 PUSH2 0x100 EXP DUP2 SLOAD DUP2 PUSH20 0xFFFFFFFFFFFFFFFFFFFFFFFFFFFFFFFFFFFFFFFF MUL NOT AND SWAP1 DUP4 PUSH20 0xFFFFFFFFFFFFFFFFFFFFFFFFFFFFFFFFFFFFFFFF AND MUL OR SWAP1 SSTORE POP PUSH1 0x64 PUSH1 0x1 PUSH1 0x0 ADDRESS PUSH20 0xFFFFFFFFFFFFFFFFFFFFFFFFFFFFFFFFFFFFFFFF AND PUSH20 0xFFFFFFFFFFFFFFFFFFFFFFFFFFFFFFFFFFFFFFFF AND DUP2 MSTORE PUSH1 0x20 ADD SWAP1 DUP2 MSTORE PUSH1 0x20 ADD PUSH1 0x0 KECCAK256 DUP2 SWAP1 SSTORE POP PUSH2 0x4F1 DUP1 PUSH2 0xA5 PUSH1 0x0 CODECOPY PUSH1 0x0 RETURN INVALID PUSH1 0x80 PUSH1 0x40 MSTORE PUSH1 0x4 CALLDATASIZE LT PUSH2 0x4A JUMPI PUSH1 0x0 CALLDATALOAD PUSH1 0xE0 SHR DUP1 PUSH4 0x6C92C921 EQ PUSH2 0x4F JUMPI DUP1 PUSH4 0x745407B5 EQ PUSH2 0x7A JUMPI DUP1 PUSH4 0x8DA5CB5B EQ PUSH2 0x96 JUMPI DUP1 PUSH4 0x9CAE1FA4 EQ PUSH2 0xC1 JUMPI DUP1 PUSH4 0xC21A702A EQ PUSH2 0xFE JUMPI JUMPDEST PUSH1 0x0 DUP1 REVERT JUMPDEST CALLVALUE DUP1 ISZERO PUSH2 0x5B JUMPI PUSH1 0x0 DUP1 REVERT JUMPDEST POP PUSH2 0x64 PUSH2 0x127 JUMP JUMPDEST PUSH1 0x40 MLOAD PUSH2 0x71 SWAP2 SWAP1 PUSH2 0x2AD JUMP JUMPDEST PUSH1 0x40 MLOAD DUP1 SWAP2 SUB SWAP1 RETURN JUMPDEST PUSH2 0x94 PUSH1 0x4 DUP1 CALLDATASIZE SUB DUP2 ADD SWAP1 PUSH2 0x8F SWAP2 SWAP1 PUSH2 0x2F9 JUMP JUMPDEST PUSH2 0x16E JUMP JUMPDEST STOP JUMPDEST CALLVALUE DUP1 ISZERO PUSH2 0xA2 JUMPI PUSH1 0x0 DUP1 REVERT JUMPDEST POP PUSH2 0xAB PUSH2 0x171 JUMP JUMPDEST PUSH1 0x40 MLOAD PUSH2 0xB8 SWAP2 SWAP1 PUSH2 0x367 JUMP JUMPDEST PUSH1 0x40 MLOAD DUP1 SWAP2 SUB SWAP1 RETURN JUMPDEST CALLVALUE DUP1 ISZERO PUSH2 0xCD JUMPI PUSH1 0x0 DUP1 REVERT JUMPDEST POP PUSH2 0xE8 PUSH1 0x4 DUP1 CALLDATASIZE SUB DUP2 ADD SWAP1 PUSH2 0xE3 SWAP2 SWAP1 PUSH2 0x3AE JUMP JUMPDEST PUSH2 0x195 JUMP JUMPDEST PUSH1 0x40 MLOAD PUSH2 0xF5 SWAP2 SWAP1 PUSH2 0x2AD JUMP JUMPDEST PUSH1 0x40 MLOAD DUP1 SWAP2 SUB SWAP1 RETURN JUMPDEST CALLVALUE DUP1 ISZERO PUSH2 0x10A JUMPI PUSH1 0x0 DUP1 REVERT JUMPDEST POP PUSH2 0x125 PUSH1 0x4 DUP1 CALLDATASIZE SUB DUP2 ADD SWAP1 PUSH2 0x120 SWAP2 SWAP1 PUSH2 0x2F9 JUMP JUMPDEST PUSH2 0x1AD JUMP JUMPDEST STOP JUMPDEST PUSH1 0x0 PUSH1 0x1 PUSH1 0x0 ADDRESS PUSH20 0xFFFFFFFFFFFFFFFFFFFFFFFFFFFFFFFFFFFFFFFF AND PUSH20 0xFFFFFFFFFFFFFFFFFFFFFFFFFFFFFFFFFFFFFFFF AND DUP2 MSTORE PUSH1 0x20 ADD SWAP1 DUP2 MSTORE PUSH1 0x20 ADD PUSH1 0x0 KECCAK256 SLOAD SWAP1 POP SWAP1 JUMP JUMPDEST POP JUMP JUMPDEST PUSH1 0x0 DUP1 SLOAD SWAP1 PUSH2 0x100 EXP SWAP1 DIV PUSH20 0xFFFFFFFFFFFFFFFFFFFFFFFFFFFFFFFFFFFFFFFF AND DUP2 JUMP JUMPDEST PUSH1 0x1 PUSH1 0x20 MSTORE DUP1 PUSH1 0x0 MSTORE PUSH1 0x40 PUSH1 0x0 KECCAK256 PUSH1 0x0 SWAP2 POP SWAP1 POP SLOAD DUP2 JUMP JUMPDEST PUSH1 0x0 DUP1 SLOAD SWAP1 PUSH2 0x100 EXP SWAP1 DIV PUSH20 0xFFFFFFFFFFFFFFFFFFFFFFFFFFFFFFFFFFFFFFFF AND PUSH20 0xFFFFFFFFFFFFFFFFFFFFFFFFFFFFFFFFFFFFFFFF AND CALLER PUSH20 0xFFFFFFFFFFFFFFFFFFFFFFFFFFFFFFFFFFFFFFFF AND EQ PUSH2 0x23B JUMPI PUSH1 0x40 MLOAD PUSH32 0x8C379A000000000000000000000000000000000000000000000000000000000 DUP2 MSTORE PUSH1 0x4 ADD PUSH2 0x232 SWAP1 PUSH2 0x438 JUMP JUMPDEST PUSH1 0x40 MLOAD DUP1 SWAP2 SUB SWAP1 REVERT JUMPDEST DUP1 PUSH1 0x1 PUSH1 0x0 ADDRESS PUSH20 0xFFFFFFFFFFFFFFFFFFFFFFFFFFFFFFFFFFFFFFFF AND PUSH20 0xFFFFFFFFFFFFFFFFFFFFFFFFFFFFFFFFFFFFFFFF AND DUP2 MSTORE PUSH1 0x20 ADD SWAP1 DUP2 MSTORE PUSH1 0x20 ADD PUSH1 0x0 KECCAK256 PUSH1 0x0 DUP3 DUP3 SLOAD PUSH2 0x28A SWAP2 SWAP1 PUSH2 0x487 JUMP JUMPDEST SWAP3 POP POP DUP2 SWAP1 SSTORE POP POP JUMP JUMPDEST PUSH1 0x0 DUP2 SWAP1 POP SWAP2 SWAP1 POP JUMP JUMPDEST PUSH2 0x2A7 DUP2 PUSH2 0x294 JUMP JUMPDEST DUP3 MSTORE POP POP JUMP JUMPDEST PUSH1 0x0 PUSH1 0x20 DUP3 ADD SWAP1 POP PUSH2 0x2C2 PUSH1 0x0 DUP4 ADD DUP5 PUSH2 0x29E JUMP JUMPDEST SWAP3 SWAP2 POP POP JUMP JUMPDEST PUSH1 0x0 DUP1 REVERT JUMPDEST PUSH2 0x2D6 DUP2 PUSH2 0x294 JUMP JUMPDEST DUP2 EQ PUSH2 0x2E1 JUMPI PUSH1 0x0 DUP1 REVERT JUMPDEST POP JUMP JUMPDEST PUSH1 0x0 DUP2 CALLDATALOAD SWAP1 POP PUSH2 0x2F3 DUP2 PUSH2 0x2CD JUMP JUMPDEST SWAP3 SWAP2 POP POP JUMP JUMPDEST PUSH1 0x0 PUSH1 0x20 DUP3 DUP5 SUB SLT ISZERO PUSH2 0x30F JUMPI PUSH2 0x30E PUSH2 0x2C8 JUMP JUMPDEST JUMPDEST PUSH1 0x0 PUSH2 0x31D DUP5 DUP3 DUP6 ADD PUSH2 0x2E4 JUMP JUMPDEST SWAP2 POP POP SWAP3 SWAP2 POP POP JUMP JUMPDEST PUSH1 0x0 PUSH20 0xFFFFFFFFFFFFFFFFFFFFFFFFFFFFFFFFFFFFFFFF DUP3 AND SWAP1 POP SWAP2 SWAP1 POP JUMP JUMPDEST PUSH1 0x0 PUSH2 0x351 DUP3 PUSH2 0x326 JUMP JUMPDEST SWAP1 POP SWAP2 SWAP1 POP JUMP JUMPDEST PUSH2 0x361 DUP2 PUSH2 0x346 JUMP JUMPDEST DUP3 MSTORE POP POP JUMP JUMPDEST PUSH1 0x0 PUSH1 0x20 DUP3 ADD SWAP1 POP PUSH2 0x37C PUSH1 0x0 DUP4 ADD DUP5 PUSH2 0x358 JUMP JUMPDEST SWAP3 SWAP2 POP POP JUMP JUMPDEST PUSH2 0x38B DUP2 PUSH2 0x346 JUMP JUMPDEST DUP2 EQ PUSH2 0x396 JUMPI PUSH1 0x0 DUP1 REVERT JUMPDEST POP JUMP JUMPDEST PUSH1 0x0 DUP2 CALLDATALOAD SWAP1 POP PUSH2 0x3A8 DUP2 PUSH2 0x382 JUMP JUMPDEST SWAP3 SWAP2 POP POP JUMP JUMPDEST PUSH1 0x0 PUSH1 0x20 DUP3 DUP5 SUB SLT ISZERO PUSH2 0x3C4 JUMPI PUSH2 0x3C3 PUSH2 0x2C8 JUMP JUMPDEST JUMPDEST PUSH1 0x0 PUSH2 0x3D2 DUP5 DUP3 DUP6 ADD PUSH2 0x399 JUMP JUMPDEST SWAP2 POP POP SWAP3 SWAP2 POP POP JUMP JUMPDEST PUSH1 0x0 DUP3 DUP3 MSTORE PUSH1 0x20 DUP3 ADD SWAP1 POP SWAP3 SWAP2 POP POP JUMP JUMPDEST PUSH32 0x536F72727920746865206F776E65720000000000000000000000000000000000 PUSH1 0x0 DUP3 ADD MSTORE POP JUMP JUMPDEST PUSH1 0x0 PUSH2 0x422 PUSH1 0xF DUP4 PUSH2 0x3DB JUMP JUMPDEST SWAP2 POP PUSH2 0x42D DUP3 PUSH2 0x3EC JUMP JUMPDEST PUSH1 0x20 DUP3 ADD SWAP1 POP SWAP2 SWAP1 POP JUMP JUMPDEST PUSH1 0x0 PUSH1 0x20 DUP3 ADD SWAP1 POP DUP2 DUP2 SUB PUSH1 0x0 DUP4 ADD MSTORE PUSH2 0x451 DUP2 PUSH2 0x415 JUMP JUMPDEST SWAP1 POP SWAP2 SWAP1 POP JUMP JUMPDEST PUSH32 0x4E487B7100000000000000000000000000000000000000000000000000000000 PUSH1 0x0 MSTORE PUSH1 0x11 PUSH1 0x4 MSTORE PUSH1 0x24 PUSH1 0x0 REVERT JUMPDEST PUSH1 0x0 PUSH2 0x492 DUP3 PUSH2 0x294 JUMP JUMPDEST SWAP2 POP PUSH2 0x49D DUP4 PUSH2 0x294 JUMP JUMPDEST SWAP3 POP DUP3 DUP3 ADD SWAP1 POP DUP1 DUP3 GT ISZERO PUSH2 0x4B5 JUMPI PUSH2 0x4B4 PUSH2 0x458 JUMP JUMPDEST JUMPDEST SWAP3 SWAP2 POP POP JUMP INVALID LOG2 PUSH5 0x6970667358 0x22 SLT KECCAK256 SWAP2 0xE7 0xB3 OR 0x27 0xBA 0xE1 0x4F REVERT 0x5C 0x2D PUSH28 0xF54E8822183B9FC7F78921BDDA2A7697B9DF6D2D64736F6C63430008 GT STOP CALLER "
				},
				"gasEstimates": {
					"creation": {
						"codeDepositCost": "253000",
						"executionCost": "46763",
						"totalCost": "299763"
					},
					"external": {
						"donutsBalance(address)": "2858",
						"getDonutBalance()": "2504",
						"owner()": "2533",
						"purchace(uint256)": "382",
						"restock(uint256)": "infinite"
					}
				},
				"methodIdentifiers": {
					"donutsBalance(address)": "9cae1fa4",
					"getDonutBalance()": "6c92c921",
					"owner()": "8da5cb5b",
					"purchace(uint256)": "745407b5",
					"restock(uint256)": "c21a702a"
				}
			},
			"storageLayout": {
				"storage": [
					{
						"astId": 3,
						"contract": "Vending_Machine.sol:Vender",
						"label": "owner",
						"offset": 0,
						"slot": "0",
						"type": "t_address"
					},
					{
						"astId": 7,
						"contract": "Vending_Machine.sol:Vender",
						"label": "donutsBalance",
						"offset": 0,
						"slot": "1",
						"type": "t_mapping(t_address,t_uint256)"
					}
				],
				"types": {
					"t_address": {
						"encoding": "inplace",
						"label": "address",
						"numberOfBytes": "20"
					},
					"t_mapping(t_address,t_uint256)": {
						"encoding": "mapping",
						"key": "t_address",
						"label": "mapping(address => uint256)",
						"numberOfBytes": "32",
						"value": "t_uint256"
					},
					"t_uint256": {
						"encoding": "inplace",
						"label": "uint256",
						"numberOfBytes": "32"
					}
				}
			},
			"userdoc": {
				"kind": "user",
				"methods": {},
				"version": 1
			}
		}
	}
}