{
	"Crowd.sol": {
		"crowdFunding": {
			"abi": [
				{
					"inputs": [
						{
							"internalType": "uint256",
							"name": "_target",
							"type": "uint256"
						},
						{
							"internalType": "uint256",
							"name": "_deadline",
							"type": "uint256"
						}
					],
					"stateMutability": "nonpayable",
					"type": "constructor"
				},
				{
					"inputs": [
						{
							"internalType": "address",
							"name": "",
							"type": "address"
						}
					],
					"name": "contributors",
					"outputs": [
						{
							"internalType": "uint256",
							"name": "",
							"type": "uint256"
						}
					],
					"stateMutability": "view",
					"type": "function"
				},
				{
					"inputs": [
						{
							"internalType": "string",
							"name": "_discription",
							"type": "string"
						},
						{
							"internalType": "address payable",
							"name": "_recipant",
							"type": "address"
						},
						{
							"internalType": "uint256",
							"name": "_value",
							"type": "uint256"
						}
					],
					"name": "createRequest",
					"outputs": [],
					"stateMutability": "nonpayable",
					"type": "function"
				},
				{
					"inputs": [],
					"name": "deadline",
					"outputs": [
						{
							"internalType": "uint256",
							"name": "",
							"type": "uint256"
						}
					],
					"stateMutability": "view",
					"type": "function"
				},
				{
					"inputs": [],
					"name": "getBalance",
					"outputs": [
						{
							"internalType": "uint256",
							"name": "",
							"type": "uint256"
						}
					],
					"stateMutability": "view",
					"type": "function"
				},
				{
					"inputs": [],
					"name": "manager",
					"outputs": [
						{
							"internalType": "address",
							"name": "",
							"type": "address"
						}
					],
					"stateMutability": "view",
					"type": "function"
				},
				{
					"inputs": [],
					"name": "miniContribution",
					"outputs": [
						{
							"internalType": "uint256",
							"name": "",
							"type": "uint256"
						}
					],
					"stateMutability": "view",
					"type": "function"
				},
				{
					"inputs": [],
					"name": "noOfContributor",
					"outputs": [
						{
							"internalType": "uint256",
							"name": "",
							"type": "uint256"
						}
					],
					"stateMutability": "view",
					"type": "function"
				},
				{
					"inputs": [],
					"name": "numRequest",
					"outputs": [
						{
							"internalType": "uint256",
							"name": "",
							"type": "uint256"
						}
					],
					"stateMutability": "view",
					"type": "function"
				},
				{
					"inputs": [],
					"name": "raisedAmount",
					"outputs": [
						{
							"internalType": "uint256",
							"name": "",
							"type": "uint256"
						}
					],
					"stateMutability": "view",
					"type": "function"
				},
				{
					"inputs": [],
					"name": "refund",
					"outputs": [],
					"stateMutability": "payable",
					"type": "function"
				},
				{
					"inputs": [
						{
							"internalType": "uint256",
							"name": "",
							"type": "uint256"
						}
					],
					"name": "request",
					"outputs": [
						{
							"internalType": "string",
							"name": "discription",
							"type": "string"
						},
						{
							"internalType": "address",
							"name": "recipant",
							"type": "address"
						},
						{
							"internalType": "uint256",
							"name": "value",
							"type": "uint256"
						},
						{
							"internalType": "bool",
							"name": "completed",
							"type": "bool"
						},
						{
							"internalType": "uint256",
							"name": "noOfVoters",
							"type": "uint256"
						}
					],
					"stateMutability": "view",
					"type": "function"
				},
				{
					"inputs": [],
					"name": "sendEth",
					"outputs": [],
					"stateMutability": "payable",
					"type": "function"
				},
				{
					"inputs": [],
					"name": "target",
					"outputs": [
						{
							"internalType": "uint256",
							"name": "",
							"type": "uint256"
						}
					],
					"stateMutability": "view",
					"type": "function"
				}
			],
			"devdoc": {
				"kind": "dev",
				"methods": {},
				"version": 1
			},
			"evm": {
				"assembly": "    /* \"Crowd.sol\":74:2092  contract crowdFunding... */\n  mstore(0x40, 0x80)\n    /* \"Crowd.sol\":612:801  constructor (uint _target,uint _deadline)... */\n  callvalue\n  dup1\n  iszero\n  tag_1\n  jumpi\n  0x00\n  dup1\n  revert\ntag_1:\n  pop\n  mload(0x40)\n  sub(codesize, bytecodeSize)\n  dup1\n  bytecodeSize\n  dup4\n  codecopy\n  dup2\n  dup2\n  add\n  0x40\n  mstore\n  dup2\n  add\n  swap1\n  tag_2\n  swap2\n  swap1\n  tag_3\n  jump\t// in\ntag_2:\n    /* \"Crowd.sol\":677:684  _target */\n  dup2\n    /* \"Crowd.sol\":670:676  target */\n  0x02\n    /* \"Crowd.sol\":670:684  target=_target */\n  dup2\n  swap1\n  sstore\n  pop\n    /* \"Crowd.sol\":720:729  _deadline */\n  dup1\n    /* \"Crowd.sol\":704:719  block.timestamp */\n  timestamp\n    /* \"Crowd.sol\":704:729  block.timestamp+_deadline */\n  tag_6\n  swap2\n  swap1\n  tag_7\n  jump\t// in\ntag_6:\n    /* \"Crowd.sol\":695:703  deadline */\n  0x04\n    /* \"Crowd.sol\":695:729  deadline=block.timestamp+_deadline */\n  dup2\n  swap1\n  sstore\n  pop\n    /* \"Crowd.sol\":757:764  100 wei */\n  0x64\n    /* \"Crowd.sol\":740:756  miniContribution */\n  0x03\n    /* \"Crowd.sol\":740:764  miniContribution=100 wei */\n  dup2\n  swap1\n  sstore\n  pop\n    /* \"Crowd.sol\":783:793  msg.sender */\n  caller\n    /* \"Crowd.sol\":775:782  manager */\n  0x01\n  0x00\n    /* \"Crowd.sol\":775:793  manager=msg.sender */\n  0x0100\n  exp\n  dup2\n  sload\n  dup2\n  0xffffffffffffffffffffffffffffffffffffffff\n  mul\n  not\n  and\n  swap1\n  dup4\n  0xffffffffffffffffffffffffffffffffffffffff\n  and\n  mul\n  or\n  swap1\n  sstore\n  pop\n    /* \"Crowd.sol\":612:801  constructor (uint _target,uint _deadline)... */\n  pop\n  pop\n    /* \"Crowd.sol\":74:2092  contract crowdFunding... */\n  jump(tag_8)\n    /* \"#utility.yul\":88:205   */\ntag_10:\n    /* \"#utility.yul\":197:198   */\n  0x00\n    /* \"#utility.yul\":194:195   */\n  dup1\n    /* \"#utility.yul\":187:199   */\n  revert\n    /* \"#utility.yul\":334:411   */\ntag_12:\n    /* \"#utility.yul\":371:378   */\n  0x00\n    /* \"#utility.yul\":400:405   */\n  dup2\n    /* \"#utility.yul\":389:405   */\n  swap1\n  pop\n    /* \"#utility.yul\":334:411   */\n  swap2\n  swap1\n  pop\n  jump\t// out\n    /* \"#utility.yul\":417:539   */\ntag_13:\n    /* \"#utility.yul\":490:514   */\n  tag_22\n    /* \"#utility.yul\":508:513   */\n  dup2\n    /* \"#utility.yul\":490:514   */\n  tag_12\n  jump\t// in\ntag_22:\n    /* \"#utility.yul\":483:488   */\n  dup2\n    /* \"#utility.yul\":480:515   */\n  eq\n    /* \"#utility.yul\":470:533   */\n  tag_23\n  jumpi\n    /* \"#utility.yul\":529:530   */\n  0x00\n    /* \"#utility.yul\":526:527   */\n  dup1\n    /* \"#utility.yul\":519:531   */\n  revert\n    /* \"#utility.yul\":470:533   */\ntag_23:\n    /* \"#utility.yul\":417:539   */\n  pop\n  jump\t// out\n    /* \"#utility.yul\":545:688   */\ntag_14:\n    /* \"#utility.yul\":602:607   */\n  0x00\n    /* \"#utility.yul\":633:639   */\n  dup2\n    /* \"#utility.yul\":627:640   */\n  mload\n    /* \"#utility.yul\":618:640   */\n  swap1\n  pop\n    /* \"#utility.yul\":649:682   */\n  tag_25\n    /* \"#utility.yul\":676:681   */\n  dup2\n    /* \"#utility.yul\":649:682   */\n  tag_13\n  jump\t// in\ntag_25:\n    /* \"#utility.yul\":545:688   */\n  swap3\n  swap2\n  pop\n  pop\n  jump\t// out\n    /* \"#utility.yul\":694:1201   */\ntag_3:\n    /* \"#utility.yul\":773:779   */\n  0x00\n    /* \"#utility.yul\":781:787   */\n  dup1\n    /* \"#utility.yul\":830:832   */\n  0x40\n    /* \"#utility.yul\":818:827   */\n  dup4\n    /* \"#utility.yul\":809:816   */\n  dup6\n    /* \"#utility.yul\":805:828   */\n  sub\n    /* \"#utility.yul\":801:833   */\n  slt\n    /* \"#utility.yul\":798:917   */\n  iszero\n  tag_27\n  jumpi\n    /* \"#utility.yul\":836:915   */\n  tag_28\n  tag_10\n  jump\t// in\ntag_28:\n    /* \"#utility.yul\":798:917   */\ntag_27:\n    /* \"#utility.yul\":956:957   */\n  0x00\n    /* \"#utility.yul\":981:1045   */\n  tag_29\n    /* \"#utility.yul\":1037:1044   */\n  dup6\n    /* \"#utility.yul\":1028:1034   */\n  dup3\n    /* \"#utility.yul\":1017:1026   */\n  dup7\n    /* \"#utility.yul\":1013:1035   */\n  add\n    /* \"#utility.yul\":981:1045   */\n  tag_14\n  jump\t// in\ntag_29:\n    /* \"#utility.yul\":971:1045   */\n  swap3\n  pop\n    /* \"#utility.yul\":927:1055   */\n  pop\n    /* \"#utility.yul\":1094:1096   */\n  0x20\n    /* \"#utility.yul\":1120:1184   */\n  tag_30\n    /* \"#utility.yul\":1176:1183   */\n  dup6\n    /* \"#utility.yul\":1167:1173   */\n  dup3\n    /* \"#utility.yul\":1156:1165   */\n  dup7\n    /* \"#utility.yul\":1152:1174   */\n  add\n    /* \"#utility.yul\":1120:1184   */\n  tag_14\n  jump\t// in\ntag_30:\n    /* \"#utility.yul\":1110:1184   */\n  swap2\n  pop\n    /* \"#utility.yul\":1065:1194   */\n  pop\n    /* \"#utility.yul\":694:1201   */\n  swap3\n  pop\n  swap3\n  swap1\n  pop\n  jump\t// out\n    /* \"#utility.yul\":1207:1387   */\ntag_15:\n    /* \"#utility.yul\":1255:1332   */\n  0x4e487b7100000000000000000000000000000000000000000000000000000000\n    /* \"#utility.yul\":1252:1253   */\n  0x00\n    /* \"#utility.yul\":1245:1333   */\n  mstore\n    /* \"#utility.yul\":1352:1356   */\n  0x11\n    /* \"#utility.yul\":1349:1350   */\n  0x04\n    /* \"#utility.yul\":1342:1357   */\n  mstore\n    /* \"#utility.yul\":1376:1380   */\n  0x24\n    /* \"#utility.yul\":1373:1374   */\n  0x00\n    /* \"#utility.yul\":1366:1381   */\n  revert\n    /* \"#utility.yul\":1393:1584   */\ntag_7:\n    /* \"#utility.yul\":1433:1436   */\n  0x00\n    /* \"#utility.yul\":1452:1472   */\n  tag_33\n    /* \"#utility.yul\":1470:1471   */\n  dup3\n    /* \"#utility.yul\":1452:1472   */\n  tag_12\n  jump\t// in\ntag_33:\n    /* \"#utility.yul\":1447:1472   */\n  swap2\n  pop\n    /* \"#utility.yul\":1486:1506   */\n  tag_34\n    /* \"#utility.yul\":1504:1505   */\n  dup4\n    /* \"#utility.yul\":1486:1506   */\n  tag_12\n  jump\t// in\ntag_34:\n    /* \"#utility.yul\":1481:1506   */\n  swap3\n  pop\n    /* \"#utility.yul\":1529:1530   */\n  dup3\n    /* \"#utility.yul\":1526:1527   */\n  dup3\n    /* \"#utility.yul\":1522:1531   */\n  add\n    /* \"#utility.yul\":1515:1531   */\n  swap1\n  pop\n    /* \"#utility.yul\":1550:1553   */\n  dup1\n    /* \"#utility.yul\":1547:1548   */\n  dup3\n    /* \"#utility.yul\":1544:1554   */\n  gt\n    /* \"#utility.yul\":1541:1577   */\n  iszero\n  tag_35\n  jumpi\n    /* \"#utility.yul\":1557:1575   */\n  tag_36\n  tag_15\n  jump\t// in\ntag_36:\n    /* \"#utility.yul\":1541:1577   */\ntag_35:\n    /* \"#utility.yul\":1393:1584   */\n  swap3\n  swap2\n  pop\n  pop\n  jump\t// out\n    /* \"Crowd.sol\":74:2092  contract crowdFunding... */\ntag_8:\n  dataSize(sub_0)\n  dup1\n  dataOffset(sub_0)\n  0x00\n  codecopy\n  0x00\n  return\nstop\n\nsub_0: assembly {\n        /* \"Crowd.sol\":74:2092  contract crowdFunding... */\n      mstore(0x40, 0x80)\n      jumpi(tag_1, lt(calldatasize, 0x04))\n      shr(0xe0, calldataload(0x00))\n      dup1\n      0x481c6a75\n      gt\n      tag_15\n      jumpi\n      dup1\n      0xb1b16431\n      gt\n      tag_16\n      jumpi\n      dup1\n      0xb1b16431\n      eq\n      tag_11\n      jumpi\n      dup1\n      0xc59ee1dc\n      eq\n      tag_12\n      jumpi\n      dup1\n      0xd4b83992\n      eq\n      tag_13\n      jumpi\n      dup1\n      0xd845a4b3\n      eq\n      tag_14\n      jumpi\n      jump(tag_1)\n    tag_16:\n      dup1\n      0x481c6a75\n      eq\n      tag_8\n      jumpi\n      dup1\n      0x590e1ae3\n      eq\n      tag_9\n      jumpi\n      dup1\n      0x8c9ffd40\n      eq\n      tag_10\n      jumpi\n      jump(tag_1)\n    tag_15:\n      dup1\n      0x05759b4d\n      eq\n      tag_2\n      jumpi\n      dup1\n      0x06e99fef\n      eq\n      tag_3\n      jumpi\n      dup1\n      0x12065fe0\n      eq\n      tag_4\n      jumpi\n      dup1\n      0x1b16bb5c\n      eq\n      tag_5\n      jumpi\n      dup1\n      0x1f6d4942\n      eq\n      tag_6\n      jumpi\n      dup1\n      0x29dcb0cf\n      eq\n      tag_7\n      jumpi\n    tag_1:\n      0x00\n      dup1\n      revert\n        /* \"Crowd.sol\":207:235  uint public miniContribution */\n    tag_2:\n      callvalue\n      dup1\n      iszero\n      tag_17\n      jumpi\n      0x00\n      dup1\n      revert\n    tag_17:\n      pop\n      tag_18\n      tag_19\n      jump\t// in\n    tag_18:\n      mload(0x40)\n      tag_20\n      swap2\n      swap1\n      tag_21\n      jump\t// in\n    tag_20:\n      mload(0x40)\n      dup1\n      swap2\n      sub\n      swap1\n      return\n        /* \"Crowd.sol\":809:1167  function sendEth() public payable ... */\n    tag_3:\n      tag_22\n      tag_23\n      jump\t// in\n    tag_22:\n      stop\n        /* \"Crowd.sol\":1175:1269  function getBalance() public view returns(uint){... */\n    tag_4:\n      callvalue\n      dup1\n      iszero\n      tag_24\n      jumpi\n      0x00\n      dup1\n      revert\n    tag_24:\n      pop\n      tag_25\n      tag_26\n      jump\t// in\n    tag_25:\n      mload(0x40)\n      tag_27\n      swap2\n      swap1\n      tag_21\n      jump\t// in\n    tag_27:\n      mload(0x40)\n      dup1\n      swap2\n      sub\n      swap1\n      return\n        /* \"Crowd.sol\":1735:2080  function createRequest(string memory _discription,address payable _recipant,uint _value) public... */\n    tag_5:\n      callvalue\n      dup1\n      iszero\n      tag_28\n      jumpi\n      0x00\n      dup1\n      revert\n    tag_28:\n      pop\n      tag_29\n      0x04\n      dup1\n      calldatasize\n      sub\n      dup2\n      add\n      swap1\n      tag_30\n      swap2\n      swap1\n      tag_31\n      jump\t// in\n    tag_30:\n      tag_32\n      jump\t// in\n    tag_29:\n      stop\n        /* \"Crowd.sol\":104:146  mapping(address=>uint) public contributors */\n    tag_6:\n      callvalue\n      dup1\n      iszero\n      tag_33\n      jumpi\n      0x00\n      dup1\n      revert\n    tag_33:\n      pop\n      tag_34\n      0x04\n      dup1\n      calldatasize\n      sub\n      dup2\n      add\n      swap1\n      tag_35\n      swap2\n      swap1\n      tag_36\n      jump\t// in\n    tag_35:\n      tag_37\n      jump\t// in\n    tag_34:\n      mload(0x40)\n      tag_38\n      swap2\n      swap1\n      tag_21\n      jump\t// in\n    tag_38:\n      mload(0x40)\n      dup1\n      swap2\n      sub\n      swap1\n      return\n        /* \"Crowd.sol\":242:262  uint public deadline */\n    tag_7:\n      callvalue\n      dup1\n      iszero\n      tag_39\n      jumpi\n      0x00\n      dup1\n      revert\n    tag_39:\n      pop\n      tag_40\n      tag_41\n      jump\t// in\n    tag_40:\n      mload(0x40)\n      tag_42\n      swap2\n      swap1\n      tag_21\n      jump\t// in\n    tag_42:\n      mload(0x40)\n      dup1\n      swap2\n      sub\n      swap1\n      return\n        /* \"Crowd.sol\":153:175  address public manager */\n    tag_8:\n      callvalue\n      dup1\n      iszero\n      tag_43\n      jumpi\n      0x00\n      dup1\n      revert\n    tag_43:\n      pop\n      tag_44\n      tag_45\n      jump\t// in\n    tag_44:\n      mload(0x40)\n      tag_46\n      swap2\n      swap1\n      tag_47\n      jump\t// in\n    tag_46:\n      mload(0x40)\n      dup1\n      swap2\n      sub\n      swap1\n      return\n        /* \"Crowd.sol\":1275:1606  function refund() public payable... */\n    tag_9:\n      tag_48\n      tag_49\n      jump\t// in\n    tag_48:\n      stop\n        /* \"Crowd.sol\":269:296  uint public noOfContributor */\n    tag_10:\n      callvalue\n      dup1\n      iszero\n      tag_50\n      jumpi\n      0x00\n      dup1\n      revert\n    tag_50:\n      pop\n      tag_51\n      tag_52\n      jump\t// in\n    tag_51:\n      mload(0x40)\n      tag_53\n      swap2\n      swap1\n      tag_21\n      jump\t// in\n    tag_53:\n      mload(0x40)\n      dup1\n      swap2\n      sub\n      swap1\n      return\n        /* \"Crowd.sol\":581:603  uint public numRequest */\n    tag_11:\n      callvalue\n      dup1\n      iszero\n      tag_54\n      jumpi\n      0x00\n      dup1\n      revert\n    tag_54:\n      pop\n      tag_55\n      tag_56\n      jump\t// in\n    tag_55:\n      mload(0x40)\n      tag_57\n      swap2\n      swap1\n      tag_21\n      jump\t// in\n    tag_57:\n      mload(0x40)\n      dup1\n      swap2\n      sub\n      swap1\n      return\n        /* \"Crowd.sol\":303:327  uint public raisedAmount */\n    tag_12:\n      callvalue\n      dup1\n      iszero\n      tag_58\n      jumpi\n      0x00\n      dup1\n      revert\n    tag_58:\n      pop\n      tag_59\n      tag_60\n      jump\t// in\n    tag_59:\n      mload(0x40)\n      tag_61\n      swap2\n      swap1\n      tag_21\n      jump\t// in\n    tag_61:\n      mload(0x40)\n      dup1\n      swap2\n      sub\n      swap1\n      return\n        /* \"Crowd.sol\":182:200  uint public target */\n    tag_13:\n      callvalue\n      dup1\n      iszero\n      tag_62\n      jumpi\n      0x00\n      dup1\n      revert\n    tag_62:\n      pop\n      tag_63\n      tag_64\n      jump\t// in\n    tag_63:\n      mload(0x40)\n      tag_65\n      swap2\n      swap1\n      tag_21\n      jump\t// in\n    tag_65:\n      mload(0x40)\n      dup1\n      swap2\n      sub\n      swap1\n      return\n        /* \"Crowd.sol\":537:574  mapping(uint=>Request) public request */\n    tag_14:\n      callvalue\n      dup1\n      iszero\n      tag_66\n      jumpi\n      0x00\n      dup1\n      revert\n    tag_66:\n      pop\n      tag_67\n      0x04\n      dup1\n      calldatasize\n      sub\n      dup2\n      add\n      swap1\n      tag_68\n      swap2\n      swap1\n      tag_69\n      jump\t// in\n    tag_68:\n      tag_70\n      jump\t// in\n    tag_67:\n      mload(0x40)\n      tag_71\n      swap6\n      swap5\n      swap4\n      swap3\n      swap2\n      swap1\n      tag_72\n      jump\t// in\n    tag_71:\n      mload(0x40)\n      dup1\n      swap2\n      sub\n      swap1\n      return\n        /* \"Crowd.sol\":207:235  uint public miniContribution */\n    tag_19:\n      sload(0x03)\n      dup2\n      jump\t// out\n        /* \"Crowd.sol\":809:1167  function sendEth() public payable ... */\n    tag_23:\n        /* \"Crowd.sol\":884:892  deadline */\n      sload(0x04)\n        /* \"Crowd.sol\":868:883  block.timestamp */\n      timestamp\n        /* \"Crowd.sol\":868:892  block.timestamp<deadline */\n      lt\n        /* \"Crowd.sol\":860:916  require(block.timestamp<deadline,\"Dealine were missing\") */\n      tag_74\n      jumpi\n      mload(0x40)\n      0x08c379a000000000000000000000000000000000000000000000000000000000\n      dup2\n      mstore\n      0x04\n      add\n      tag_75\n      swap1\n      tag_76\n      jump\t// in\n    tag_75:\n      mload(0x40)\n      dup1\n      swap2\n      sub\n      swap1\n      revert\n    tag_74:\n        /* \"Crowd.sol\":947:963  miniContribution */\n      sload(0x03)\n        /* \"Crowd.sol\":935:944  msg.value */\n      callvalue\n        /* \"Crowd.sol\":935:963  msg.value ==miniContribution */\n      eq\n        /* \"Crowd.sol\":927:991  require(msg.value ==miniContribution,\"You were not be eligible\") */\n      tag_77\n      jumpi\n      mload(0x40)\n      0x08c379a000000000000000000000000000000000000000000000000000000000\n      dup2\n      mstore\n      0x04\n      add\n      tag_78\n      swap1\n      tag_79\n      jump\t// in\n    tag_78:\n      mload(0x40)\n      dup1\n      swap2\n      sub\n      swap1\n      revert\n    tag_77:\n        /* \"Crowd.sol\":1034:1035  0 */\n      0x00\n        /* \"Crowd.sol\":1008:1020  contributors */\n      dup1\n        /* \"Crowd.sol\":1008:1032  contributors[msg.sender] */\n      0x00\n        /* \"Crowd.sol\":1021:1031  msg.sender */\n      caller\n        /* \"Crowd.sol\":1008:1032  contributors[msg.sender] */\n      0xffffffffffffffffffffffffffffffffffffffff\n      and\n      0xffffffffffffffffffffffffffffffffffffffff\n      and\n      dup2\n      mstore\n      0x20\n      add\n      swap1\n      dup2\n      mstore\n      0x20\n      add\n      0x00\n      keccak256\n      sload\n        /* \"Crowd.sol\":1008:1035  contributors[msg.sender]==0 */\n      sub\n        /* \"Crowd.sol\":1004:1080  if (contributors[msg.sender]==0){... */\n      tag_80\n      jumpi\n        /* \"Crowd.sol\":1051:1066  noOfContributor */\n      0x05\n      0x00\n        /* \"Crowd.sol\":1051:1068  noOfContributor++ */\n      dup2\n      sload\n      dup1\n      swap3\n      swap2\n      swap1\n      tag_81\n      swap1\n      tag_82\n      jump\t// in\n    tag_81:\n      swap2\n      swap1\n      pop\n      sstore\n      pop\n        /* \"Crowd.sol\":1004:1080  if (contributors[msg.sender]==0){... */\n    tag_80:\n        /* \"Crowd.sol\":1116:1125  msg.value */\n      callvalue\n        /* \"Crowd.sol\":1090:1102  contributors */\n      0x00\n        /* \"Crowd.sol\":1090:1114  contributors[msg.sender] */\n      dup1\n        /* \"Crowd.sol\":1103:1113  msg.sender */\n      caller\n        /* \"Crowd.sol\":1090:1114  contributors[msg.sender] */\n      0xffffffffffffffffffffffffffffffffffffffff\n      and\n      0xffffffffffffffffffffffffffffffffffffffff\n      and\n      dup2\n      mstore\n      0x20\n      add\n      swap1\n      dup2\n      mstore\n      0x20\n      add\n      0x00\n      keccak256\n      0x00\n        /* \"Crowd.sol\":1090:1125  contributors[msg.sender]+=msg.value */\n      dup3\n      dup3\n      sload\n      tag_83\n      swap2\n      swap1\n      tag_84\n      jump\t// in\n    tag_83:\n      swap3\n      pop\n      pop\n      dup2\n      swap1\n      sstore\n      pop\n        /* \"Crowd.sol\":1150:1159  msg.value */\n      callvalue\n        /* \"Crowd.sol\":1136:1148  raisedAmount */\n      0x06\n      0x00\n        /* \"Crowd.sol\":1136:1159  raisedAmount+=msg.value */\n      dup3\n      dup3\n      sload\n      tag_85\n      swap2\n      swap1\n      tag_84\n      jump\t// in\n    tag_85:\n      swap3\n      pop\n      pop\n      dup2\n      swap1\n      sstore\n      pop\n        /* \"Crowd.sol\":809:1167  function sendEth() public payable ... */\n      jump\t// out\n        /* \"Crowd.sol\":1175:1269  function getBalance() public view returns(uint){... */\n    tag_26:\n        /* \"Crowd.sol\":1217:1221  uint */\n      0x00\n        /* \"Crowd.sol\":1240:1261  address(this).balance */\n      selfbalance\n        /* \"Crowd.sol\":1233:1261  return address(this).balance */\n      swap1\n      pop\n        /* \"Crowd.sol\":1175:1269  function getBalance() public view returns(uint){... */\n      swap1\n      jump\t// out\n        /* \"Crowd.sol\":1735:2080  function createRequest(string memory _discription,address payable _recipant,uint _value) public... */\n    tag_32:\n        /* \"Crowd.sol\":1847:1873  Request storage newRequest */\n      0x00\n        /* \"Crowd.sol\":1874:1881  request */\n      0x07\n        /* \"Crowd.sol\":1874:1893  request[numRequest] */\n      0x00\n        /* \"Crowd.sol\":1882:1892  numRequest */\n      sload(0x08)\n        /* \"Crowd.sol\":1874:1893  request[numRequest] */\n      dup2\n      mstore\n      0x20\n      add\n      swap1\n      dup2\n      mstore\n      0x20\n      add\n      0x00\n      keccak256\n        /* \"Crowd.sol\":1847:1893  Request storage newRequest=request[numRequest] */\n      swap1\n      pop\n        /* \"Crowd.sol\":1904:1914  numRequest */\n      0x08\n      0x00\n        /* \"Crowd.sol\":1904:1916  numRequest++ */\n      dup2\n      sload\n      dup1\n      swap3\n      swap2\n      swap1\n      tag_88\n      swap1\n      tag_82\n      jump\t// in\n    tag_88:\n      swap2\n      swap1\n      pop\n      sstore\n      pop\n        /* \"Crowd.sol\":1950:1962  _discription */\n      dup4\n        /* \"Crowd.sol\":1927:1937  newRequest */\n      dup2\n        /* \"Crowd.sol\":1927:1949  newRequest.discription */\n      0x00\n      add\n        /* \"Crowd.sol\":1927:1962  newRequest.discription=_discription */\n      swap1\n      dup2\n      tag_89\n      swap2\n      swap1\n      tag_90\n      jump\t// in\n    tag_89:\n      pop\n        /* \"Crowd.sol\":1993:2002  _recipant */\n      dup3\n        /* \"Crowd.sol\":1973:1983  newRequest */\n      dup2\n        /* \"Crowd.sol\":1973:1992  newRequest.recipant */\n      0x01\n      add\n      0x00\n        /* \"Crowd.sol\":1973:2002  newRequest.recipant=_recipant */\n      0x0100\n      exp\n      dup2\n      sload\n      dup2\n      0xffffffffffffffffffffffffffffffffffffffff\n      mul\n      not\n      and\n      swap1\n      dup4\n      0xffffffffffffffffffffffffffffffffffffffff\n      and\n      mul\n      or\n      swap1\n      sstore\n      pop\n        /* \"Crowd.sol\":2030:2036  _value */\n      dup2\n        /* \"Crowd.sol\":2013:2023  newRequest */\n      dup2\n        /* \"Crowd.sol\":2013:2029  newRequest.value */\n      0x02\n      add\n        /* \"Crowd.sol\":2013:2036  newRequest.value=_value */\n      dup2\n      swap1\n      sstore\n      pop\n        /* \"Crowd.sol\":2068:2072  true */\n      0x01\n        /* \"Crowd.sol\":2047:2057  newRequest */\n      dup2\n        /* \"Crowd.sol\":2047:2067  newRequest.completed */\n      0x03\n      add\n      0x00\n        /* \"Crowd.sol\":2047:2072  newRequest.completed=true */\n      0x0100\n      exp\n      dup2\n      sload\n      dup2\n      0xff\n      mul\n      not\n      and\n      swap1\n      dup4\n      iszero\n      iszero\n      mul\n      or\n      swap1\n      sstore\n      pop\n        /* \"Crowd.sol\":1836:2080  {... */\n      pop\n        /* \"Crowd.sol\":1735:2080  function createRequest(string memory _discription,address payable _recipant,uint _value) public... */\n      pop\n      pop\n      pop\n      jump\t// out\n        /* \"Crowd.sol\":104:146  mapping(address=>uint) public contributors */\n    tag_37:\n      mstore(0x20, 0x00)\n      dup1\n      0x00\n      mstore\n      keccak256(0x00, 0x40)\n      0x00\n      swap2\n      pop\n      swap1\n      pop\n      sload\n      dup2\n      jump\t// out\n        /* \"Crowd.sol\":242:262  uint public deadline */\n    tag_41:\n      sload(0x04)\n      dup2\n      jump\t// out\n        /* \"Crowd.sol\":153:175  address public manager */\n    tag_45:\n      0x01\n      0x00\n      swap1\n      sload\n      swap1\n      0x0100\n      exp\n      swap1\n      div\n      0xffffffffffffffffffffffffffffffffffffffff\n      and\n      dup2\n      jump\t// out\n        /* \"Crowd.sol\":1275:1606  function refund() public payable... */\n    tag_49:\n        /* \"Crowd.sol\":1345:1351  target */\n      sload(0x02)\n        /* \"Crowd.sol\":1332:1344  raisedAmount */\n      sload(0x06)\n        /* \"Crowd.sol\":1332:1351  raisedAmount<target */\n      lt\n        /* \"Crowd.sol\":1332:1379  raisedAmount<target && block.timestamp>deadline */\n      dup1\n      iszero\n      tag_92\n      jumpi\n      pop\n        /* \"Crowd.sol\":1371:1379  deadline */\n      sload(0x04)\n        /* \"Crowd.sol\":1355:1370  block.timestamp */\n      timestamp\n        /* \"Crowd.sol\":1355:1379  block.timestamp>deadline */\n      gt\n        /* \"Crowd.sol\":1332:1379  raisedAmount<target && block.timestamp>deadline */\n    tag_92:\n        /* \"Crowd.sol\":1324:1380  require(raisedAmount<target && block.timestamp>deadline) */\n      tag_93\n      jumpi\n      0x00\n      dup1\n      revert\n    tag_93:\n        /* \"Crowd.sol\":1424:1425  0 */\n      0x00\n        /* \"Crowd.sol\":1399:1411  contributors */\n      dup1\n        /* \"Crowd.sol\":1399:1423  contributors[msg.sender] */\n      0x00\n        /* \"Crowd.sol\":1412:1422  msg.sender */\n      caller\n        /* \"Crowd.sol\":1399:1423  contributors[msg.sender] */\n      0xffffffffffffffffffffffffffffffffffffffff\n      and\n      0xffffffffffffffffffffffffffffffffffffffff\n      and\n      dup2\n      mstore\n      0x20\n      add\n      swap1\n      dup2\n      mstore\n      0x20\n      add\n      0x00\n      keccak256\n      sload\n        /* \"Crowd.sol\":1399:1425  contributors[msg.sender]<0 */\n      lt\n        /* \"Crowd.sol\":1391:1460  require(contributors[msg.sender]<0,\"You were Not elgible in Funding\") */\n      tag_94\n      jumpi\n      mload(0x40)\n      0x08c379a000000000000000000000000000000000000000000000000000000000\n      dup2\n      mstore\n      0x04\n      add\n      tag_95\n      swap1\n      tag_96\n      jump\t// in\n    tag_95:\n      mload(0x40)\n      dup1\n      swap2\n      sub\n      swap1\n      revert\n    tag_94:\n        /* \"Crowd.sol\":1471:1491  address payable user */\n      0x00\n        /* \"Crowd.sol\":1500:1510  msg.sender */\n      caller\n        /* \"Crowd.sol\":1471:1511  address payable user=payable(msg.sender) */\n      swap1\n      pop\n        /* \"Crowd.sol\":1522:1526  user */\n      dup1\n        /* \"Crowd.sol\":1522:1535  user.transfer */\n      0xffffffffffffffffffffffffffffffffffffffff\n      and\n        /* \"Crowd.sol\":1522:1561  user.transfer(contributors[msg.sender]) */\n      0x08fc\n        /* \"Crowd.sol\":1536:1548  contributors */\n      0x00\n        /* \"Crowd.sol\":1536:1560  contributors[msg.sender] */\n      dup1\n        /* \"Crowd.sol\":1549:1559  msg.sender */\n      caller\n        /* \"Crowd.sol\":1536:1560  contributors[msg.sender] */\n      0xffffffffffffffffffffffffffffffffffffffff\n      and\n      0xffffffffffffffffffffffffffffffffffffffff\n      and\n      dup2\n      mstore\n      0x20\n      add\n      swap1\n      dup2\n      mstore\n      0x20\n      add\n      0x00\n      keccak256\n      sload\n        /* \"Crowd.sol\":1522:1561  user.transfer(contributors[msg.sender]) */\n      swap1\n      dup2\n      iszero\n      mul\n      swap1\n      mload(0x40)\n      0x00\n      mload(0x40)\n      dup1\n      dup4\n      sub\n      dup2\n      dup6\n      dup9\n      dup9\n      call\n      swap4\n      pop\n      pop\n      pop\n      pop\n      iszero\n      dup1\n      iszero\n      tag_98\n      jumpi\n      returndatasize\n      0x00\n      dup1\n      returndatacopy\n      revert(0x00, returndatasize)\n    tag_98:\n      pop\n        /* \"Crowd.sol\":1597:1598  0 */\n      0x00\n        /* \"Crowd.sol\":1572:1584  contributors */\n      dup1\n        /* \"Crowd.sol\":1572:1596  contributors[msg.sender] */\n      0x00\n        /* \"Crowd.sol\":1585:1595  msg.sender */\n      caller\n        /* \"Crowd.sol\":1572:1596  contributors[msg.sender] */\n      0xffffffffffffffffffffffffffffffffffffffff\n      and\n      0xffffffffffffffffffffffffffffffffffffffff\n      and\n      dup2\n      mstore\n      0x20\n      add\n      swap1\n      dup2\n      mstore\n      0x20\n      add\n      0x00\n      keccak256\n        /* \"Crowd.sol\":1572:1598  contributors[msg.sender]=0 */\n      dup2\n      swap1\n      sstore\n      pop\n        /* \"Crowd.sol\":1313:1606  {... */\n      pop\n        /* \"Crowd.sol\":1275:1606  function refund() public payable... */\n      jump\t// out\n        /* \"Crowd.sol\":269:296  uint public noOfContributor */\n    tag_52:\n      sload(0x05)\n      dup2\n      jump\t// out\n        /* \"Crowd.sol\":581:603  uint public numRequest */\n    tag_56:\n      sload(0x08)\n      dup2\n      jump\t// out\n        /* \"Crowd.sol\":303:327  uint public raisedAmount */\n    tag_60:\n      sload(0x06)\n      dup2\n      jump\t// out\n        /* \"Crowd.sol\":182:200  uint public target */\n    tag_64:\n      sload(0x02)\n      dup2\n      jump\t// out\n        /* \"Crowd.sol\":537:574  mapping(uint=>Request) public request */\n    tag_70:\n      mstore(0x20, 0x07)\n      dup1\n      0x00\n      mstore\n      keccak256(0x00, 0x40)\n      0x00\n      swap2\n      pop\n      swap1\n      pop\n      dup1\n      0x00\n      add\n      dup1\n      sload\n      tag_99\n      swap1\n      tag_100\n      jump\t// in\n    tag_99:\n      dup1\n      0x1f\n      add\n      0x20\n      dup1\n      swap2\n      div\n      mul\n      0x20\n      add\n      mload(0x40)\n      swap1\n      dup2\n      add\n      0x40\n      mstore\n      dup1\n      swap3\n      swap2\n      swap1\n      dup2\n      dup2\n      mstore\n      0x20\n      add\n      dup3\n      dup1\n      sload\n      tag_101\n      swap1\n      tag_100\n      jump\t// in\n    tag_101:\n      dup1\n      iszero\n      tag_102\n      jumpi\n      dup1\n      0x1f\n      lt\n      tag_103\n      jumpi\n      0x0100\n      dup1\n      dup4\n      sload\n      div\n      mul\n      dup4\n      mstore\n      swap2\n      0x20\n      add\n      swap2\n      jump(tag_102)\n    tag_103:\n      dup3\n      add\n      swap2\n      swap1\n      0x00\n      mstore\n      keccak256(0x00, 0x20)\n      swap1\n    tag_104:\n      dup2\n      sload\n      dup2\n      mstore\n      swap1\n      0x01\n      add\n      swap1\n      0x20\n      add\n      dup1\n      dup4\n      gt\n      tag_104\n      jumpi\n      dup3\n      swap1\n      sub\n      0x1f\n      and\n      dup3\n      add\n      swap2\n    tag_102:\n      pop\n      pop\n      pop\n      pop\n      pop\n      swap1\n      dup1\n      0x01\n      add\n      0x00\n      swap1\n      sload\n      swap1\n      0x0100\n      exp\n      swap1\n      div\n      0xffffffffffffffffffffffffffffffffffffffff\n      and\n      swap1\n      dup1\n      0x02\n      add\n      sload\n      swap1\n      dup1\n      0x03\n      add\n      0x00\n      swap1\n      sload\n      swap1\n      0x0100\n      exp\n      swap1\n      div\n      0xff\n      and\n      swap1\n      dup1\n      0x04\n      add\n      sload\n      swap1\n      pop\n      dup6\n      jump\t// out\n        /* \"#utility.yul\":7:84   */\n    tag_105:\n        /* \"#utility.yul\":44:51   */\n      0x00\n        /* \"#utility.yul\":73:78   */\n      dup2\n        /* \"#utility.yul\":62:78   */\n      swap1\n      pop\n        /* \"#utility.yul\":7:84   */\n      swap2\n      swap1\n      pop\n      jump\t// out\n        /* \"#utility.yul\":90:208   */\n    tag_106:\n        /* \"#utility.yul\":177:201   */\n      tag_162\n        /* \"#utility.yul\":195:200   */\n      dup2\n        /* \"#utility.yul\":177:201   */\n      tag_105\n      jump\t// in\n    tag_162:\n        /* \"#utility.yul\":172:175   */\n      dup3\n        /* \"#utility.yul\":165:202   */\n      mstore\n        /* \"#utility.yul\":90:208   */\n      pop\n      pop\n      jump\t// out\n        /* \"#utility.yul\":214:436   */\n    tag_21:\n        /* \"#utility.yul\":307:311   */\n      0x00\n        /* \"#utility.yul\":345:347   */\n      0x20\n        /* \"#utility.yul\":334:343   */\n      dup3\n        /* \"#utility.yul\":330:348   */\n      add\n        /* \"#utility.yul\":322:348   */\n      swap1\n      pop\n        /* \"#utility.yul\":358:429   */\n      tag_164\n        /* \"#utility.yul\":426:427   */\n      0x00\n        /* \"#utility.yul\":415:424   */\n      dup4\n        /* \"#utility.yul\":411:428   */\n      add\n        /* \"#utility.yul\":402:408   */\n      dup5\n        /* \"#utility.yul\":358:429   */\n      tag_106\n      jump\t// in\n    tag_164:\n        /* \"#utility.yul\":214:436   */\n      swap3\n      swap2\n      pop\n      pop\n      jump\t// out\n        /* \"#utility.yul\":442:517   */\n    tag_107:\n        /* \"#utility.yul\":475:481   */\n      0x00\n        /* \"#utility.yul\":508:510   */\n      0x40\n        /* \"#utility.yul\":502:511   */\n      mload\n        /* \"#utility.yul\":492:511   */\n      swap1\n      pop\n        /* \"#utility.yul\":442:517   */\n      swap1\n      jump\t// out\n        /* \"#utility.yul\":523:640   */\n    tag_108:\n        /* \"#utility.yul\":632:633   */\n      0x00\n        /* \"#utility.yul\":629:630   */\n      dup1\n        /* \"#utility.yul\":622:634   */\n      revert\n        /* \"#utility.yul\":646:763   */\n    tag_109:\n        /* \"#utility.yul\":755:756   */\n      0x00\n        /* \"#utility.yul\":752:753   */\n      dup1\n        /* \"#utility.yul\":745:757   */\n      revert\n        /* \"#utility.yul\":769:886   */\n    tag_110:\n        /* \"#utility.yul\":878:879   */\n      0x00\n        /* \"#utility.yul\":875:876   */\n      dup1\n        /* \"#utility.yul\":868:880   */\n      revert\n        /* \"#utility.yul\":892:1009   */\n    tag_111:\n        /* \"#utility.yul\":1001:1002   */\n      0x00\n        /* \"#utility.yul\":998:999   */\n      dup1\n        /* \"#utility.yul\":991:1003   */\n      revert\n        /* \"#utility.yul\":1015:1117   */\n    tag_112:\n        /* \"#utility.yul\":1056:1062   */\n      0x00\n        /* \"#utility.yul\":1107:1109   */\n      0x1f\n        /* \"#utility.yul\":1103:1110   */\n      not\n        /* \"#utility.yul\":1098:1100   */\n      0x1f\n        /* \"#utility.yul\":1091:1096   */\n      dup4\n        /* \"#utility.yul\":1087:1101   */\n      add\n        /* \"#utility.yul\":1083:1111   */\n      and\n        /* \"#utility.yul\":1073:1111   */\n      swap1\n      pop\n        /* \"#utility.yul\":1015:1117   */\n      swap2\n      swap1\n      pop\n      jump\t// out\n        /* \"#utility.yul\":1123:1303   */\n    tag_113:\n        /* \"#utility.yul\":1171:1248   */\n      0x4e487b7100000000000000000000000000000000000000000000000000000000\n        /* \"#utility.yul\":1168:1169   */\n      0x00\n        /* \"#utility.yul\":1161:1249   */\n      mstore\n        /* \"#utility.yul\":1268:1272   */\n      0x41\n        /* \"#utility.yul\":1265:1266   */\n      0x04\n        /* \"#utility.yul\":1258:1273   */\n      mstore\n        /* \"#utility.yul\":1292:1296   */\n      0x24\n        /* \"#utility.yul\":1289:1290   */\n      0x00\n        /* \"#utility.yul\":1282:1297   */\n      revert\n        /* \"#utility.yul\":1309:1590   */\n    tag_114:\n        /* \"#utility.yul\":1392:1419   */\n      tag_173\n        /* \"#utility.yul\":1414:1418   */\n      dup3\n        /* \"#utility.yul\":1392:1419   */\n      tag_112\n      jump\t// in\n    tag_173:\n        /* \"#utility.yul\":1384:1390   */\n      dup2\n        /* \"#utility.yul\":1380:1420   */\n      add\n        /* \"#utility.yul\":1522:1528   */\n      dup2\n        /* \"#utility.yul\":1510:1520   */\n      dup2\n        /* \"#utility.yul\":1507:1529   */\n      lt\n        /* \"#utility.yul\":1486:1504   */\n      0xffffffffffffffff\n        /* \"#utility.yul\":1474:1484   */\n      dup3\n        /* \"#utility.yul\":1471:1505   */\n      gt\n        /* \"#utility.yul\":1468:1530   */\n      or\n        /* \"#utility.yul\":1465:1553   */\n      iszero\n      tag_174\n      jumpi\n        /* \"#utility.yul\":1533:1551   */\n      tag_175\n      tag_113\n      jump\t// in\n    tag_175:\n        /* \"#utility.yul\":1465:1553   */\n    tag_174:\n        /* \"#utility.yul\":1573:1583   */\n      dup1\n        /* \"#utility.yul\":1569:1571   */\n      0x40\n        /* \"#utility.yul\":1562:1584   */\n      mstore\n        /* \"#utility.yul\":1352:1590   */\n      pop\n        /* \"#utility.yul\":1309:1590   */\n      pop\n      pop\n      jump\t// out\n        /* \"#utility.yul\":1596:1725   */\n    tag_115:\n        /* \"#utility.yul\":1630:1636   */\n      0x00\n        /* \"#utility.yul\":1657:1677   */\n      tag_177\n      tag_107\n      jump\t// in\n    tag_177:\n        /* \"#utility.yul\":1647:1677   */\n      swap1\n      pop\n        /* \"#utility.yul\":1686:1719   */\n      tag_178\n        /* \"#utility.yul\":1714:1718   */\n      dup3\n        /* \"#utility.yul\":1706:1712   */\n      dup3\n        /* \"#utility.yul\":1686:1719   */\n      tag_114\n      jump\t// in\n    tag_178:\n        /* \"#utility.yul\":1596:1725   */\n      swap2\n      swap1\n      pop\n      jump\t// out\n        /* \"#utility.yul\":1731:2039   */\n    tag_116:\n        /* \"#utility.yul\":1793:1797   */\n      0x00\n        /* \"#utility.yul\":1883:1901   */\n      0xffffffffffffffff\n        /* \"#utility.yul\":1875:1881   */\n      dup3\n        /* \"#utility.yul\":1872:1902   */\n      gt\n        /* \"#utility.yul\":1869:1925   */\n      iszero\n      tag_180\n      jumpi\n        /* \"#utility.yul\":1905:1923   */\n      tag_181\n      tag_113\n      jump\t// in\n    tag_181:\n        /* \"#utility.yul\":1869:1925   */\n    tag_180:\n        /* \"#utility.yul\":1943:1972   */\n      tag_182\n        /* \"#utility.yul\":1965:1971   */\n      dup3\n        /* \"#utility.yul\":1943:1972   */\n      tag_112\n      jump\t// in\n    tag_182:\n        /* \"#utility.yul\":1935:1972   */\n      swap1\n      pop\n        /* \"#utility.yul\":2027:2031   */\n      0x20\n        /* \"#utility.yul\":2021:2025   */\n      dup2\n        /* \"#utility.yul\":2017:2032   */\n      add\n        /* \"#utility.yul\":2009:2032   */\n      swap1\n      pop\n        /* \"#utility.yul\":1731:2039   */\n      swap2\n      swap1\n      pop\n      jump\t// out\n        /* \"#utility.yul\":2045:2191   */\n    tag_117:\n        /* \"#utility.yul\":2142:2148   */\n      dup3\n        /* \"#utility.yul\":2137:2140   */\n      dup2\n        /* \"#utility.yul\":2132:2135   */\n      dup4\n        /* \"#utility.yul\":2119:2149   */\n      calldatacopy\n        /* \"#utility.yul\":2183:2184   */\n      0x00\n        /* \"#utility.yul\":2174:2180   */\n      dup4\n        /* \"#utility.yul\":2169:2172   */\n      dup4\n        /* \"#utility.yul\":2165:2181   */\n      add\n        /* \"#utility.yul\":2158:2185   */\n      mstore\n        /* \"#utility.yul\":2045:2191   */\n      pop\n      pop\n      pop\n      jump\t// out\n        /* \"#utility.yul\":2197:2622   */\n    tag_118:\n        /* \"#utility.yul\":2275:2280   */\n      0x00\n        /* \"#utility.yul\":2300:2366   */\n      tag_185\n        /* \"#utility.yul\":2316:2365   */\n      tag_186\n        /* \"#utility.yul\":2358:2364   */\n      dup5\n        /* \"#utility.yul\":2316:2365   */\n      tag_116\n      jump\t// in\n    tag_186:\n        /* \"#utility.yul\":2300:2366   */\n      tag_115\n      jump\t// in\n    tag_185:\n        /* \"#utility.yul\":2291:2366   */\n      swap1\n      pop\n        /* \"#utility.yul\":2389:2395   */\n      dup3\n        /* \"#utility.yul\":2382:2387   */\n      dup2\n        /* \"#utility.yul\":2375:2396   */\n      mstore\n        /* \"#utility.yul\":2427:2431   */\n      0x20\n        /* \"#utility.yul\":2420:2425   */\n      dup2\n        /* \"#utility.yul\":2416:2432   */\n      add\n        /* \"#utility.yul\":2465:2468   */\n      dup5\n        /* \"#utility.yul\":2456:2462   */\n      dup5\n        /* \"#utility.yul\":2451:2454   */\n      dup5\n        /* \"#utility.yul\":2447:2463   */\n      add\n        /* \"#utility.yul\":2444:2469   */\n      gt\n        /* \"#utility.yul\":2441:2553   */\n      iszero\n      tag_187\n      jumpi\n        /* \"#utility.yul\":2472:2551   */\n      tag_188\n      tag_111\n      jump\t// in\n    tag_188:\n        /* \"#utility.yul\":2441:2553   */\n    tag_187:\n        /* \"#utility.yul\":2562:2616   */\n      tag_189\n        /* \"#utility.yul\":2609:2615   */\n      dup5\n        /* \"#utility.yul\":2604:2607   */\n      dup3\n        /* \"#utility.yul\":2599:2602   */\n      dup6\n        /* \"#utility.yul\":2562:2616   */\n      tag_117\n      jump\t// in\n    tag_189:\n        /* \"#utility.yul\":2281:2622   */\n      pop\n        /* \"#utility.yul\":2197:2622   */\n      swap4\n      swap3\n      pop\n      pop\n      pop\n      jump\t// out\n        /* \"#utility.yul\":2642:2982   */\n    tag_119:\n        /* \"#utility.yul\":2698:2703   */\n      0x00\n        /* \"#utility.yul\":2747:2750   */\n      dup3\n        /* \"#utility.yul\":2740:2744   */\n      0x1f\n        /* \"#utility.yul\":2732:2738   */\n      dup4\n        /* \"#utility.yul\":2728:2745   */\n      add\n        /* \"#utility.yul\":2724:2751   */\n      slt\n        /* \"#utility.yul\":2714:2836   */\n      tag_191\n      jumpi\n        /* \"#utility.yul\":2755:2834   */\n      tag_192\n      tag_110\n      jump\t// in\n    tag_192:\n        /* \"#utility.yul\":2714:2836   */\n    tag_191:\n        /* \"#utility.yul\":2872:2878   */\n      dup2\n        /* \"#utility.yul\":2859:2879   */\n      calldataload\n        /* \"#utility.yul\":2897:2976   */\n      tag_193\n        /* \"#utility.yul\":2972:2975   */\n      dup5\n        /* \"#utility.yul\":2964:2970   */\n      dup3\n        /* \"#utility.yul\":2957:2961   */\n      0x20\n        /* \"#utility.yul\":2949:2955   */\n      dup7\n        /* \"#utility.yul\":2945:2962   */\n      add\n        /* \"#utility.yul\":2897:2976   */\n      tag_118\n      jump\t// in\n    tag_193:\n        /* \"#utility.yul\":2888:2976   */\n      swap2\n      pop\n        /* \"#utility.yul\":2704:2982   */\n      pop\n        /* \"#utility.yul\":2642:2982   */\n      swap3\n      swap2\n      pop\n      pop\n      jump\t// out\n        /* \"#utility.yul\":2988:3114   */\n    tag_120:\n        /* \"#utility.yul\":3025:3032   */\n      0x00\n        /* \"#utility.yul\":3065:3107   */\n      0xffffffffffffffffffffffffffffffffffffffff\n        /* \"#utility.yul\":3058:3063   */\n      dup3\n        /* \"#utility.yul\":3054:3108   */\n      and\n        /* \"#utility.yul\":3043:3108   */\n      swap1\n      pop\n        /* \"#utility.yul\":2988:3114   */\n      swap2\n      swap1\n      pop\n      jump\t// out\n        /* \"#utility.yul\":3120:3224   */\n    tag_121:\n        /* \"#utility.yul\":3165:3172   */\n      0x00\n        /* \"#utility.yul\":3194:3218   */\n      tag_196\n        /* \"#utility.yul\":3212:3217   */\n      dup3\n        /* \"#utility.yul\":3194:3218   */\n      tag_120\n      jump\t// in\n    tag_196:\n        /* \"#utility.yul\":3183:3218   */\n      swap1\n      pop\n        /* \"#utility.yul\":3120:3224   */\n      swap2\n      swap1\n      pop\n      jump\t// out\n        /* \"#utility.yul\":3230:3368   */\n    tag_122:\n        /* \"#utility.yul\":3311:3343   */\n      tag_198\n        /* \"#utility.yul\":3337:3342   */\n      dup2\n        /* \"#utility.yul\":3311:3343   */\n      tag_121\n      jump\t// in\n    tag_198:\n        /* \"#utility.yul\":3304:3309   */\n      dup2\n        /* \"#utility.yul\":3301:3344   */\n      eq\n        /* \"#utility.yul\":3291:3362   */\n      tag_199\n      jumpi\n        /* \"#utility.yul\":3358:3359   */\n      0x00\n        /* \"#utility.yul\":3355:3356   */\n      dup1\n        /* \"#utility.yul\":3348:3360   */\n      revert\n        /* \"#utility.yul\":3291:3362   */\n    tag_199:\n        /* \"#utility.yul\":3230:3368   */\n      pop\n      jump\t// out\n        /* \"#utility.yul\":3374:3529   */\n    tag_123:\n        /* \"#utility.yul\":3428:3433   */\n      0x00\n        /* \"#utility.yul\":3466:3472   */\n      dup2\n        /* \"#utility.yul\":3453:3473   */\n      calldataload\n        /* \"#utility.yul\":3444:3473   */\n      swap1\n      pop\n        /* \"#utility.yul\":3482:3523   */\n      tag_201\n        /* \"#utility.yul\":3517:3522   */\n      dup2\n        /* \"#utility.yul\":3482:3523   */\n      tag_122\n      jump\t// in\n    tag_201:\n        /* \"#utility.yul\":3374:3529   */\n      swap3\n      swap2\n      pop\n      pop\n      jump\t// out\n        /* \"#utility.yul\":3535:3657   */\n    tag_124:\n        /* \"#utility.yul\":3608:3632   */\n      tag_203\n        /* \"#utility.yul\":3626:3631   */\n      dup2\n        /* \"#utility.yul\":3608:3632   */\n      tag_105\n      jump\t// in\n    tag_203:\n        /* \"#utility.yul\":3601:3606   */\n      dup2\n        /* \"#utility.yul\":3598:3633   */\n      eq\n        /* \"#utility.yul\":3588:3651   */\n      tag_204\n      jumpi\n        /* \"#utility.yul\":3647:3648   */\n      0x00\n        /* \"#utility.yul\":3644:3645   */\n      dup1\n        /* \"#utility.yul\":3637:3649   */\n      revert\n        /* \"#utility.yul\":3588:3651   */\n    tag_204:\n        /* \"#utility.yul\":3535:3657   */\n      pop\n      jump\t// out\n        /* \"#utility.yul\":3663:3802   */\n    tag_125:\n        /* \"#utility.yul\":3709:3714   */\n      0x00\n        /* \"#utility.yul\":3747:3753   */\n      dup2\n        /* \"#utility.yul\":3734:3754   */\n      calldataload\n        /* \"#utility.yul\":3725:3754   */\n      swap1\n      pop\n        /* \"#utility.yul\":3763:3796   */\n      tag_206\n        /* \"#utility.yul\":3790:3795   */\n      dup2\n        /* \"#utility.yul\":3763:3796   */\n      tag_124\n      jump\t// in\n    tag_206:\n        /* \"#utility.yul\":3663:3802   */\n      swap3\n      swap2\n      pop\n      pop\n      jump\t// out\n        /* \"#utility.yul\":3808:4623   */\n    tag_31:\n        /* \"#utility.yul\":3903:3909   */\n      0x00\n        /* \"#utility.yul\":3911:3917   */\n      dup1\n        /* \"#utility.yul\":3919:3925   */\n      0x00\n        /* \"#utility.yul\":3968:3970   */\n      0x60\n        /* \"#utility.yul\":3956:3965   */\n      dup5\n        /* \"#utility.yul\":3947:3954   */\n      dup7\n        /* \"#utility.yul\":3943:3966   */\n      sub\n        /* \"#utility.yul\":3939:3971   */\n      slt\n        /* \"#utility.yul\":3936:4055   */\n      iszero\n      tag_208\n      jumpi\n        /* \"#utility.yul\":3974:4053   */\n      tag_209\n      tag_108\n      jump\t// in\n    tag_209:\n        /* \"#utility.yul\":3936:4055   */\n    tag_208:\n        /* \"#utility.yul\":4122:4123   */\n      0x00\n        /* \"#utility.yul\":4111:4120   */\n      dup5\n        /* \"#utility.yul\":4107:4124   */\n      add\n        /* \"#utility.yul\":4094:4125   */\n      calldataload\n        /* \"#utility.yul\":4152:4170   */\n      0xffffffffffffffff\n        /* \"#utility.yul\":4144:4150   */\n      dup2\n        /* \"#utility.yul\":4141:4171   */\n      gt\n        /* \"#utility.yul\":4138:4255   */\n      iszero\n      tag_210\n      jumpi\n        /* \"#utility.yul\":4174:4253   */\n      tag_211\n      tag_109\n      jump\t// in\n    tag_211:\n        /* \"#utility.yul\":4138:4255   */\n    tag_210:\n        /* \"#utility.yul\":4279:4342   */\n      tag_212\n        /* \"#utility.yul\":4334:4341   */\n      dup7\n        /* \"#utility.yul\":4325:4331   */\n      dup3\n        /* \"#utility.yul\":4314:4323   */\n      dup8\n        /* \"#utility.yul\":4310:4332   */\n      add\n        /* \"#utility.yul\":4279:4342   */\n      tag_119\n      jump\t// in\n    tag_212:\n        /* \"#utility.yul\":4269:4342   */\n      swap4\n      pop\n        /* \"#utility.yul\":4065:4352   */\n      pop\n        /* \"#utility.yul\":4391:4393   */\n      0x20\n        /* \"#utility.yul\":4417:4478   */\n      tag_213\n        /* \"#utility.yul\":4470:4477   */\n      dup7\n        /* \"#utility.yul\":4461:4467   */\n      dup3\n        /* \"#utility.yul\":4450:4459   */\n      dup8\n        /* \"#utility.yul\":4446:4468   */\n      add\n        /* \"#utility.yul\":4417:4478   */\n      tag_123\n      jump\t// in\n    tag_213:\n        /* \"#utility.yul\":4407:4478   */\n      swap3\n      pop\n        /* \"#utility.yul\":4362:4488   */\n      pop\n        /* \"#utility.yul\":4527:4529   */\n      0x40\n        /* \"#utility.yul\":4553:4606   */\n      tag_214\n        /* \"#utility.yul\":4598:4605   */\n      dup7\n        /* \"#utility.yul\":4589:4595   */\n      dup3\n        /* \"#utility.yul\":4578:4587   */\n      dup8\n        /* \"#utility.yul\":4574:4596   */\n      add\n        /* \"#utility.yul\":4553:4606   */\n      tag_125\n      jump\t// in\n    tag_214:\n        /* \"#utility.yul\":4543:4606   */\n      swap2\n      pop\n        /* \"#utility.yul\":4498:4616   */\n      pop\n        /* \"#utility.yul\":3808:4623   */\n      swap3\n      pop\n      swap3\n      pop\n      swap3\n      jump\t// out\n        /* \"#utility.yul\":4629:4725   */\n    tag_126:\n        /* \"#utility.yul\":4666:4673   */\n      0x00\n        /* \"#utility.yul\":4695:4719   */\n      tag_216\n        /* \"#utility.yul\":4713:4718   */\n      dup3\n        /* \"#utility.yul\":4695:4719   */\n      tag_120\n      jump\t// in\n    tag_216:\n        /* \"#utility.yul\":4684:4719   */\n      swap1\n      pop\n        /* \"#utility.yul\":4629:4725   */\n      swap2\n      swap1\n      pop\n      jump\t// out\n        /* \"#utility.yul\":4731:4853   */\n    tag_127:\n        /* \"#utility.yul\":4804:4828   */\n      tag_218\n        /* \"#utility.yul\":4822:4827   */\n      dup2\n        /* \"#utility.yul\":4804:4828   */\n      tag_126\n      jump\t// in\n    tag_218:\n        /* \"#utility.yul\":4797:4802   */\n      dup2\n        /* \"#utility.yul\":4794:4829   */\n      eq\n        /* \"#utility.yul\":4784:4847   */\n      tag_219\n      jumpi\n        /* \"#utility.yul\":4843:4844   */\n      0x00\n        /* \"#utility.yul\":4840:4841   */\n      dup1\n        /* \"#utility.yul\":4833:4845   */\n      revert\n        /* \"#utility.yul\":4784:4847   */\n    tag_219:\n        /* \"#utility.yul\":4731:4853   */\n      pop\n      jump\t// out\n        /* \"#utility.yul\":4859:4998   */\n    tag_128:\n        /* \"#utility.yul\":4905:4910   */\n      0x00\n        /* \"#utility.yul\":4943:4949   */\n      dup2\n        /* \"#utility.yul\":4930:4950   */\n      calldataload\n        /* \"#utility.yul\":4921:4950   */\n      swap1\n      pop\n        /* \"#utility.yul\":4959:4992   */\n      tag_221\n        /* \"#utility.yul\":4986:4991   */\n      dup2\n        /* \"#utility.yul\":4959:4992   */\n      tag_127\n      jump\t// in\n    tag_221:\n        /* \"#utility.yul\":4859:4998   */\n      swap3\n      swap2\n      pop\n      pop\n      jump\t// out\n        /* \"#utility.yul\":5004:5333   */\n    tag_36:\n        /* \"#utility.yul\":5063:5069   */\n      0x00\n        /* \"#utility.yul\":5112:5114   */\n      0x20\n        /* \"#utility.yul\":5100:5109   */\n      dup3\n        /* \"#utility.yul\":5091:5098   */\n      dup5\n        /* \"#utility.yul\":5087:5110   */\n      sub\n        /* \"#utility.yul\":5083:5115   */\n      slt\n        /* \"#utility.yul\":5080:5199   */\n      iszero\n      tag_223\n      jumpi\n        /* \"#utility.yul\":5118:5197   */\n      tag_224\n      tag_108\n      jump\t// in\n    tag_224:\n        /* \"#utility.yul\":5080:5199   */\n    tag_223:\n        /* \"#utility.yul\":5238:5239   */\n      0x00\n        /* \"#utility.yul\":5263:5316   */\n      tag_225\n        /* \"#utility.yul\":5308:5315   */\n      dup5\n        /* \"#utility.yul\":5299:5305   */\n      dup3\n        /* \"#utility.yul\":5288:5297   */\n      dup6\n        /* \"#utility.yul\":5284:5306   */\n      add\n        /* \"#utility.yul\":5263:5316   */\n      tag_128\n      jump\t// in\n    tag_225:\n        /* \"#utility.yul\":5253:5316   */\n      swap2\n      pop\n        /* \"#utility.yul\":5209:5326   */\n      pop\n        /* \"#utility.yul\":5004:5333   */\n      swap3\n      swap2\n      pop\n      pop\n      jump\t// out\n        /* \"#utility.yul\":5339:5457   */\n    tag_129:\n        /* \"#utility.yul\":5426:5450   */\n      tag_227\n        /* \"#utility.yul\":5444:5449   */\n      dup2\n        /* \"#utility.yul\":5426:5450   */\n      tag_126\n      jump\t// in\n    tag_227:\n        /* \"#utility.yul\":5421:5424   */\n      dup3\n        /* \"#utility.yul\":5414:5451   */\n      mstore\n        /* \"#utility.yul\":5339:5457   */\n      pop\n      pop\n      jump\t// out\n        /* \"#utility.yul\":5463:5685   */\n    tag_47:\n        /* \"#utility.yul\":5556:5560   */\n      0x00\n        /* \"#utility.yul\":5594:5596   */\n      0x20\n        /* \"#utility.yul\":5583:5592   */\n      dup3\n        /* \"#utility.yul\":5579:5597   */\n      add\n        /* \"#utility.yul\":5571:5597   */\n      swap1\n      pop\n        /* \"#utility.yul\":5607:5678   */\n      tag_229\n        /* \"#utility.yul\":5675:5676   */\n      0x00\n        /* \"#utility.yul\":5664:5673   */\n      dup4\n        /* \"#utility.yul\":5660:5677   */\n      add\n        /* \"#utility.yul\":5651:5657   */\n      dup5\n        /* \"#utility.yul\":5607:5678   */\n      tag_129\n      jump\t// in\n    tag_229:\n        /* \"#utility.yul\":5463:5685   */\n      swap3\n      swap2\n      pop\n      pop\n      jump\t// out\n        /* \"#utility.yul\":5691:6020   */\n    tag_69:\n        /* \"#utility.yul\":5750:5756   */\n      0x00\n        /* \"#utility.yul\":5799:5801   */\n      0x20\n        /* \"#utility.yul\":5787:5796   */\n      dup3\n        /* \"#utility.yul\":5778:5785   */\n      dup5\n        /* \"#utility.yul\":5774:5797   */\n      sub\n        /* \"#utility.yul\":5770:5802   */\n      slt\n        /* \"#utility.yul\":5767:5886   */\n      iszero\n      tag_231\n      jumpi\n        /* \"#utility.yul\":5805:5884   */\n      tag_232\n      tag_108\n      jump\t// in\n    tag_232:\n        /* \"#utility.yul\":5767:5886   */\n    tag_231:\n        /* \"#utility.yul\":5925:5926   */\n      0x00\n        /* \"#utility.yul\":5950:6003   */\n      tag_233\n        /* \"#utility.yul\":5995:6002   */\n      dup5\n        /* \"#utility.yul\":5986:5992   */\n      dup3\n        /* \"#utility.yul\":5975:5984   */\n      dup6\n        /* \"#utility.yul\":5971:5993   */\n      add\n        /* \"#utility.yul\":5950:6003   */\n      tag_125\n      jump\t// in\n    tag_233:\n        /* \"#utility.yul\":5940:6003   */\n      swap2\n      pop\n        /* \"#utility.yul\":5896:6013   */\n      pop\n        /* \"#utility.yul\":5691:6020   */\n      swap3\n      swap2\n      pop\n      pop\n      jump\t// out\n        /* \"#utility.yul\":6026:6125   */\n    tag_130:\n        /* \"#utility.yul\":6078:6084   */\n      0x00\n        /* \"#utility.yul\":6112:6117   */\n      dup2\n        /* \"#utility.yul\":6106:6118   */\n      mload\n        /* \"#utility.yul\":6096:6118   */\n      swap1\n      pop\n        /* \"#utility.yul\":6026:6125   */\n      swap2\n      swap1\n      pop\n      jump\t// out\n        /* \"#utility.yul\":6131:6300   */\n    tag_131:\n        /* \"#utility.yul\":6215:6226   */\n      0x00\n        /* \"#utility.yul\":6249:6255   */\n      dup3\n        /* \"#utility.yul\":6244:6247   */\n      dup3\n        /* \"#utility.yul\":6237:6256   */\n      mstore\n        /* \"#utility.yul\":6289:6293   */\n      0x20\n        /* \"#utility.yul\":6284:6287   */\n      dup3\n        /* \"#utility.yul\":6280:6294   */\n      add\n        /* \"#utility.yul\":6265:6294   */\n      swap1\n      pop\n        /* \"#utility.yul\":6131:6300   */\n      swap3\n      swap2\n      pop\n      pop\n      jump\t// out\n        /* \"#utility.yul\":6306:6552   */\n    tag_132:\n        /* \"#utility.yul\":6387:6388   */\n      0x00\n        /* \"#utility.yul\":6397:6510   */\n    tag_237:\n        /* \"#utility.yul\":6411:6417   */\n      dup4\n        /* \"#utility.yul\":6408:6409   */\n      dup2\n        /* \"#utility.yul\":6405:6418   */\n      lt\n        /* \"#utility.yul\":6397:6510   */\n      iszero\n      tag_239\n      jumpi\n        /* \"#utility.yul\":6496:6497   */\n      dup1\n        /* \"#utility.yul\":6491:6494   */\n      dup3\n        /* \"#utility.yul\":6487:6498   */\n      add\n        /* \"#utility.yul\":6481:6499   */\n      mload\n        /* \"#utility.yul\":6477:6478   */\n      dup2\n        /* \"#utility.yul\":6472:6475   */\n      dup5\n        /* \"#utility.yul\":6468:6479   */\n      add\n        /* \"#utility.yul\":6461:6500   */\n      mstore\n        /* \"#utility.yul\":6433:6435   */\n      0x20\n        /* \"#utility.yul\":6430:6431   */\n      dup2\n        /* \"#utility.yul\":6426:6436   */\n      add\n        /* \"#utility.yul\":6421:6436   */\n      swap1\n      pop\n        /* \"#utility.yul\":6397:6510   */\n      jump(tag_237)\n    tag_239:\n        /* \"#utility.yul\":6544:6545   */\n      0x00\n        /* \"#utility.yul\":6535:6541   */\n      dup5\n        /* \"#utility.yul\":6530:6533   */\n      dup5\n        /* \"#utility.yul\":6526:6542   */\n      add\n        /* \"#utility.yul\":6519:6546   */\n      mstore\n        /* \"#utility.yul\":6368:6552   */\n      pop\n        /* \"#utility.yul\":6306:6552   */\n      pop\n      pop\n      pop\n      jump\t// out\n        /* \"#utility.yul\":6558:6935   */\n    tag_133:\n        /* \"#utility.yul\":6646:6649   */\n      0x00\n        /* \"#utility.yul\":6674:6713   */\n      tag_241\n        /* \"#utility.yul\":6707:6712   */\n      dup3\n        /* \"#utility.yul\":6674:6713   */\n      tag_130\n      jump\t// in\n    tag_241:\n        /* \"#utility.yul\":6729:6800   */\n      tag_242\n        /* \"#utility.yul\":6793:6799   */\n      dup2\n        /* \"#utility.yul\":6788:6791   */\n      dup6\n        /* \"#utility.yul\":6729:6800   */\n      tag_131\n      jump\t// in\n    tag_242:\n        /* \"#utility.yul\":6722:6800   */\n      swap4\n      pop\n        /* \"#utility.yul\":6809:6874   */\n      tag_243\n        /* \"#utility.yul\":6867:6873   */\n      dup2\n        /* \"#utility.yul\":6862:6865   */\n      dup6\n        /* \"#utility.yul\":6855:6859   */\n      0x20\n        /* \"#utility.yul\":6848:6853   */\n      dup7\n        /* \"#utility.yul\":6844:6860   */\n      add\n        /* \"#utility.yul\":6809:6874   */\n      tag_132\n      jump\t// in\n    tag_243:\n        /* \"#utility.yul\":6899:6928   */\n      tag_244\n        /* \"#utility.yul\":6921:6927   */\n      dup2\n        /* \"#utility.yul\":6899:6928   */\n      tag_112\n      jump\t// in\n    tag_244:\n        /* \"#utility.yul\":6894:6897   */\n      dup5\n        /* \"#utility.yul\":6890:6929   */\n      add\n        /* \"#utility.yul\":6883:6929   */\n      swap2\n      pop\n        /* \"#utility.yul\":6650:6935   */\n      pop\n        /* \"#utility.yul\":6558:6935   */\n      swap3\n      swap2\n      pop\n      pop\n      jump\t// out\n        /* \"#utility.yul\":6941:7031   */\n    tag_134:\n        /* \"#utility.yul\":6975:6982   */\n      0x00\n        /* \"#utility.yul\":7018:7023   */\n      dup2\n        /* \"#utility.yul\":7011:7024   */\n      iszero\n        /* \"#utility.yul\":7004:7025   */\n      iszero\n        /* \"#utility.yul\":6993:7025   */\n      swap1\n      pop\n        /* \"#utility.yul\":6941:7031   */\n      swap2\n      swap1\n      pop\n      jump\t// out\n        /* \"#utility.yul\":7037:7146   */\n    tag_135:\n        /* \"#utility.yul\":7118:7139   */\n      tag_247\n        /* \"#utility.yul\":7133:7138   */\n      dup2\n        /* \"#utility.yul\":7118:7139   */\n      tag_134\n      jump\t// in\n    tag_247:\n        /* \"#utility.yul\":7113:7116   */\n      dup3\n        /* \"#utility.yul\":7106:7140   */\n      mstore\n        /* \"#utility.yul\":7037:7146   */\n      pop\n      pop\n      jump\t// out\n        /* \"#utility.yul\":7152:7895   */\n    tag_72:\n        /* \"#utility.yul\":7371:7375   */\n      0x00\n        /* \"#utility.yul\":7409:7412   */\n      0xa0\n        /* \"#utility.yul\":7398:7407   */\n      dup3\n        /* \"#utility.yul\":7394:7413   */\n      add\n        /* \"#utility.yul\":7386:7413   */\n      swap1\n      pop\n        /* \"#utility.yul\":7459:7468   */\n      dup2\n        /* \"#utility.yul\":7453:7457   */\n      dup2\n        /* \"#utility.yul\":7449:7469   */\n      sub\n        /* \"#utility.yul\":7445:7446   */\n      0x00\n        /* \"#utility.yul\":7434:7443   */\n      dup4\n        /* \"#utility.yul\":7430:7447   */\n      add\n        /* \"#utility.yul\":7423:7470   */\n      mstore\n        /* \"#utility.yul\":7487:7565   */\n      tag_249\n        /* \"#utility.yul\":7560:7564   */\n      dup2\n        /* \"#utility.yul\":7551:7557   */\n      dup9\n        /* \"#utility.yul\":7487:7565   */\n      tag_133\n      jump\t// in\n    tag_249:\n        /* \"#utility.yul\":7479:7565   */\n      swap1\n      pop\n        /* \"#utility.yul\":7575:7647   */\n      tag_250\n        /* \"#utility.yul\":7643:7645   */\n      0x20\n        /* \"#utility.yul\":7632:7641   */\n      dup4\n        /* \"#utility.yul\":7628:7646   */\n      add\n        /* \"#utility.yul\":7619:7625   */\n      dup8\n        /* \"#utility.yul\":7575:7647   */\n      tag_129\n      jump\t// in\n    tag_250:\n        /* \"#utility.yul\":7657:7729   */\n      tag_251\n        /* \"#utility.yul\":7725:7727   */\n      0x40\n        /* \"#utility.yul\":7714:7723   */\n      dup4\n        /* \"#utility.yul\":7710:7728   */\n      add\n        /* \"#utility.yul\":7701:7707   */\n      dup7\n        /* \"#utility.yul\":7657:7729   */\n      tag_106\n      jump\t// in\n    tag_251:\n        /* \"#utility.yul\":7739:7805   */\n      tag_252\n        /* \"#utility.yul\":7801:7803   */\n      0x60\n        /* \"#utility.yul\":7790:7799   */\n      dup4\n        /* \"#utility.yul\":7786:7804   */\n      add\n        /* \"#utility.yul\":7777:7783   */\n      dup6\n        /* \"#utility.yul\":7739:7805   */\n      tag_135\n      jump\t// in\n    tag_252:\n        /* \"#utility.yul\":7815:7888   */\n      tag_253\n        /* \"#utility.yul\":7883:7886   */\n      0x80\n        /* \"#utility.yul\":7872:7881   */\n      dup4\n        /* \"#utility.yul\":7868:7887   */\n      add\n        /* \"#utility.yul\":7859:7865   */\n      dup5\n        /* \"#utility.yul\":7815:7888   */\n      tag_106\n      jump\t// in\n    tag_253:\n        /* \"#utility.yul\":7152:7895   */\n      swap7\n      swap6\n      pop\n      pop\n      pop\n      pop\n      pop\n      pop\n      jump\t// out\n        /* \"#utility.yul\":7901:8071   */\n    tag_136:\n        /* \"#utility.yul\":8041:8063   */\n      0x4465616c696e652077657265206d697373696e67000000000000000000000000\n        /* \"#utility.yul\":8037:8038   */\n      0x00\n        /* \"#utility.yul\":8029:8035   */\n      dup3\n        /* \"#utility.yul\":8025:8039   */\n      add\n        /* \"#utility.yul\":8018:8064   */\n      mstore\n        /* \"#utility.yul\":7901:8071   */\n      pop\n      jump\t// out\n        /* \"#utility.yul\":8077:8443   */\n    tag_137:\n        /* \"#utility.yul\":8219:8222   */\n      0x00\n        /* \"#utility.yul\":8240:8307   */\n      tag_256\n        /* \"#utility.yul\":8304:8306   */\n      0x14\n        /* \"#utility.yul\":8299:8302   */\n      dup4\n        /* \"#utility.yul\":8240:8307   */\n      tag_131\n      jump\t// in\n    tag_256:\n        /* \"#utility.yul\":8233:8307   */\n      swap2\n      pop\n        /* \"#utility.yul\":8316:8409   */\n      tag_257\n        /* \"#utility.yul\":8405:8408   */\n      dup3\n        /* \"#utility.yul\":8316:8409   */\n      tag_136\n      jump\t// in\n    tag_257:\n        /* \"#utility.yul\":8434:8436   */\n      0x20\n        /* \"#utility.yul\":8429:8432   */\n      dup3\n        /* \"#utility.yul\":8425:8437   */\n      add\n        /* \"#utility.yul\":8418:8437   */\n      swap1\n      pop\n        /* \"#utility.yul\":8077:8443   */\n      swap2\n      swap1\n      pop\n      jump\t// out\n        /* \"#utility.yul\":8449:8868   */\n    tag_76:\n        /* \"#utility.yul\":8615:8619   */\n      0x00\n        /* \"#utility.yul\":8653:8655   */\n      0x20\n        /* \"#utility.yul\":8642:8651   */\n      dup3\n        /* \"#utility.yul\":8638:8656   */\n      add\n        /* \"#utility.yul\":8630:8656   */\n      swap1\n      pop\n        /* \"#utility.yul\":8702:8711   */\n      dup2\n        /* \"#utility.yul\":8696:8700   */\n      dup2\n        /* \"#utility.yul\":8692:8712   */\n      sub\n        /* \"#utility.yul\":8688:8689   */\n      0x00\n        /* \"#utility.yul\":8677:8686   */\n      dup4\n        /* \"#utility.yul\":8673:8690   */\n      add\n        /* \"#utility.yul\":8666:8713   */\n      mstore\n        /* \"#utility.yul\":8730:8861   */\n      tag_259\n        /* \"#utility.yul\":8856:8860   */\n      dup2\n        /* \"#utility.yul\":8730:8861   */\n      tag_137\n      jump\t// in\n    tag_259:\n        /* \"#utility.yul\":8722:8861   */\n      swap1\n      pop\n        /* \"#utility.yul\":8449:8868   */\n      swap2\n      swap1\n      pop\n      jump\t// out\n        /* \"#utility.yul\":8874:9048   */\n    tag_138:\n        /* \"#utility.yul\":9014:9040   */\n      0x596f752077657265206e6f7420626520656c696769626c650000000000000000\n        /* \"#utility.yul\":9010:9011   */\n      0x00\n        /* \"#utility.yul\":9002:9008   */\n      dup3\n        /* \"#utility.yul\":8998:9012   */\n      add\n        /* \"#utility.yul\":8991:9041   */\n      mstore\n        /* \"#utility.yul\":8874:9048   */\n      pop\n      jump\t// out\n        /* \"#utility.yul\":9054:9420   */\n    tag_139:\n        /* \"#utility.yul\":9196:9199   */\n      0x00\n        /* \"#utility.yul\":9217:9284   */\n      tag_262\n        /* \"#utility.yul\":9281:9283   */\n      0x18\n        /* \"#utility.yul\":9276:9279   */\n      dup4\n        /* \"#utility.yul\":9217:9284   */\n      tag_131\n      jump\t// in\n    tag_262:\n        /* \"#utility.yul\":9210:9284   */\n      swap2\n      pop\n        /* \"#utility.yul\":9293:9386   */\n      tag_263\n        /* \"#utility.yul\":9382:9385   */\n      dup3\n        /* \"#utility.yul\":9293:9386   */\n      tag_138\n      jump\t// in\n    tag_263:\n        /* \"#utility.yul\":9411:9413   */\n      0x20\n        /* \"#utility.yul\":9406:9409   */\n      dup3\n        /* \"#utility.yul\":9402:9414   */\n      add\n        /* \"#utility.yul\":9395:9414   */\n      swap1\n      pop\n        /* \"#utility.yul\":9054:9420   */\n      swap2\n      swap1\n      pop\n      jump\t// out\n        /* \"#utility.yul\":9426:9845   */\n    tag_79:\n        /* \"#utility.yul\":9592:9596   */\n      0x00\n        /* \"#utility.yul\":9630:9632   */\n      0x20\n        /* \"#utility.yul\":9619:9628   */\n      dup3\n        /* \"#utility.yul\":9615:9633   */\n      add\n        /* \"#utility.yul\":9607:9633   */\n      swap1\n      pop\n        /* \"#utility.yul\":9679:9688   */\n      dup2\n        /* \"#utility.yul\":9673:9677   */\n      dup2\n        /* \"#utility.yul\":9669:9689   */\n      sub\n        /* \"#utility.yul\":9665:9666   */\n      0x00\n        /* \"#utility.yul\":9654:9663   */\n      dup4\n        /* \"#utility.yul\":9650:9667   */\n      add\n        /* \"#utility.yul\":9643:9690   */\n      mstore\n        /* \"#utility.yul\":9707:9838   */\n      tag_265\n        /* \"#utility.yul\":9833:9837   */\n      dup2\n        /* \"#utility.yul\":9707:9838   */\n      tag_139\n      jump\t// in\n    tag_265:\n        /* \"#utility.yul\":9699:9838   */\n      swap1\n      pop\n        /* \"#utility.yul\":9426:9845   */\n      swap2\n      swap1\n      pop\n      jump\t// out\n        /* \"#utility.yul\":9851:10031   */\n    tag_140:\n        /* \"#utility.yul\":9899:9976   */\n      0x4e487b7100000000000000000000000000000000000000000000000000000000\n        /* \"#utility.yul\":9896:9897   */\n      0x00\n        /* \"#utility.yul\":9889:9977   */\n      mstore\n        /* \"#utility.yul\":9996:10000   */\n      0x11\n        /* \"#utility.yul\":9993:9994   */\n      0x04\n        /* \"#utility.yul\":9986:10001   */\n      mstore\n        /* \"#utility.yul\":10020:10024   */\n      0x24\n        /* \"#utility.yul\":10017:10018   */\n      0x00\n        /* \"#utility.yul\":10010:10025   */\n      revert\n        /* \"#utility.yul\":10037:10270   */\n    tag_82:\n        /* \"#utility.yul\":10076:10079   */\n      0x00\n        /* \"#utility.yul\":10099:10123   */\n      tag_268\n        /* \"#utility.yul\":10117:10122   */\n      dup3\n        /* \"#utility.yul\":10099:10123   */\n      tag_105\n      jump\t// in\n    tag_268:\n        /* \"#utility.yul\":10090:10123   */\n      swap2\n      pop\n        /* \"#utility.yul\":10145:10211   */\n      0xffffffffffffffffffffffffffffffffffffffffffffffffffffffffffffffff\n        /* \"#utility.yul\":10138:10143   */\n      dup3\n        /* \"#utility.yul\":10135:10212   */\n      sub\n        /* \"#utility.yul\":10132:10235   */\n      tag_269\n      jumpi\n        /* \"#utility.yul\":10215:10233   */\n      tag_270\n      tag_140\n      jump\t// in\n    tag_270:\n        /* \"#utility.yul\":10132:10235   */\n    tag_269:\n        /* \"#utility.yul\":10262:10263   */\n      0x01\n        /* \"#utility.yul\":10255:10260   */\n      dup3\n        /* \"#utility.yul\":10251:10264   */\n      add\n        /* \"#utility.yul\":10244:10264   */\n      swap1\n      pop\n        /* \"#utility.yul\":10037:10270   */\n      swap2\n      swap1\n      pop\n      jump\t// out\n        /* \"#utility.yul\":10276:10467   */\n    tag_84:\n        /* \"#utility.yul\":10316:10319   */\n      0x00\n        /* \"#utility.yul\":10335:10355   */\n      tag_272\n        /* \"#utility.yul\":10353:10354   */\n      dup3\n        /* \"#utility.yul\":10335:10355   */\n      tag_105\n      jump\t// in\n    tag_272:\n        /* \"#utility.yul\":10330:10355   */\n      swap2\n      pop\n        /* \"#utility.yul\":10369:10389   */\n      tag_273\n        /* \"#utility.yul\":10387:10388   */\n      dup4\n        /* \"#utility.yul\":10369:10389   */\n      tag_105\n      jump\t// in\n    tag_273:\n        /* \"#utility.yul\":10364:10389   */\n      swap3\n      pop\n        /* \"#utility.yul\":10412:10413   */\n      dup3\n        /* \"#utility.yul\":10409:10410   */\n      dup3\n        /* \"#utility.yul\":10405:10414   */\n      add\n        /* \"#utility.yul\":10398:10414   */\n      swap1\n      pop\n        /* \"#utility.yul\":10433:10436   */\n      dup1\n        /* \"#utility.yul\":10430:10431   */\n      dup3\n        /* \"#utility.yul\":10427:10437   */\n      gt\n        /* \"#utility.yul\":10424:10460   */\n      iszero\n      tag_274\n      jumpi\n        /* \"#utility.yul\":10440:10458   */\n      tag_275\n      tag_140\n      jump\t// in\n    tag_275:\n        /* \"#utility.yul\":10424:10460   */\n    tag_274:\n        /* \"#utility.yul\":10276:10467   */\n      swap3\n      swap2\n      pop\n      pop\n      jump\t// out\n        /* \"#utility.yul\":10473:10653   */\n    tag_141:\n        /* \"#utility.yul\":10521:10598   */\n      0x4e487b7100000000000000000000000000000000000000000000000000000000\n        /* \"#utility.yul\":10518:10519   */\n      0x00\n        /* \"#utility.yul\":10511:10599   */\n      mstore\n        /* \"#utility.yul\":10618:10622   */\n      0x22\n        /* \"#utility.yul\":10615:10616   */\n      0x04\n        /* \"#utility.yul\":10608:10623   */\n      mstore\n        /* \"#utility.yul\":10642:10646   */\n      0x24\n        /* \"#utility.yul\":10639:10640   */\n      0x00\n        /* \"#utility.yul\":10632:10647   */\n      revert\n        /* \"#utility.yul\":10659:10979   */\n    tag_100:\n        /* \"#utility.yul\":10703:10709   */\n      0x00\n        /* \"#utility.yul\":10740:10741   */\n      0x02\n        /* \"#utility.yul\":10734:10738   */\n      dup3\n        /* \"#utility.yul\":10730:10742   */\n      div\n        /* \"#utility.yul\":10720:10742   */\n      swap1\n      pop\n        /* \"#utility.yul\":10787:10788   */\n      0x01\n        /* \"#utility.yul\":10781:10785   */\n      dup3\n        /* \"#utility.yul\":10777:10789   */\n      and\n        /* \"#utility.yul\":10808:10826   */\n      dup1\n        /* \"#utility.yul\":10798:10879   */\n      tag_278\n      jumpi\n        /* \"#utility.yul\":10864:10868   */\n      0x7f\n        /* \"#utility.yul\":10856:10862   */\n      dup3\n        /* \"#utility.yul\":10852:10869   */\n      and\n        /* \"#utility.yul\":10842:10869   */\n      swap2\n      pop\n        /* \"#utility.yul\":10798:10879   */\n    tag_278:\n        /* \"#utility.yul\":10926:10928   */\n      0x20\n        /* \"#utility.yul\":10918:10924   */\n      dup3\n        /* \"#utility.yul\":10915:10929   */\n      lt\n        /* \"#utility.yul\":10895:10913   */\n      dup2\n        /* \"#utility.yul\":10892:10930   */\n      sub\n        /* \"#utility.yul\":10889:10973   */\n      tag_279\n      jumpi\n        /* \"#utility.yul\":10945:10963   */\n      tag_280\n      tag_141\n      jump\t// in\n    tag_280:\n        /* \"#utility.yul\":10889:10973   */\n    tag_279:\n        /* \"#utility.yul\":10710:10979   */\n      pop\n        /* \"#utility.yul\":10659:10979   */\n      swap2\n      swap1\n      pop\n      jump\t// out\n        /* \"#utility.yul\":10985:11126   */\n    tag_142:\n        /* \"#utility.yul\":11034:11038   */\n      0x00\n        /* \"#utility.yul\":11057:11060   */\n      dup2\n        /* \"#utility.yul\":11049:11060   */\n      swap1\n      pop\n        /* \"#utility.yul\":11080:11083   */\n      dup2\n        /* \"#utility.yul\":11077:11078   */\n      0x00\n        /* \"#utility.yul\":11070:11084   */\n      mstore\n        /* \"#utility.yul\":11114:11118   */\n      0x20\n        /* \"#utility.yul\":11111:11112   */\n      0x00\n        /* \"#utility.yul\":11101:11119   */\n      keccak256\n        /* \"#utility.yul\":11093:11119   */\n      swap1\n      pop\n        /* \"#utility.yul\":10985:11126   */\n      swap2\n      swap1\n      pop\n      jump\t// out\n        /* \"#utility.yul\":11132:11225   */\n    tag_143:\n        /* \"#utility.yul\":11169:11175   */\n      0x00\n        /* \"#utility.yul\":11216:11218   */\n      0x20\n        /* \"#utility.yul\":11211:11213   */\n      0x1f\n        /* \"#utility.yul\":11204:11209   */\n      dup4\n        /* \"#utility.yul\":11200:11214   */\n      add\n        /* \"#utility.yul\":11196:11219   */\n      div\n        /* \"#utility.yul\":11186:11219   */\n      swap1\n      pop\n        /* \"#utility.yul\":11132:11225   */\n      swap2\n      swap1\n      pop\n      jump\t// out\n        /* \"#utility.yul\":11231:11338   */\n    tag_144:\n        /* \"#utility.yul\":11275:11283   */\n      0x00\n        /* \"#utility.yul\":11325:11330   */\n      dup3\n        /* \"#utility.yul\":11319:11323   */\n      dup3\n        /* \"#utility.yul\":11315:11331   */\n      shl\n        /* \"#utility.yul\":11294:11331   */\n      swap1\n      pop\n        /* \"#utility.yul\":11231:11338   */\n      swap3\n      swap2\n      pop\n      pop\n      jump\t// out\n        /* \"#utility.yul\":11344:11737   */\n    tag_145:\n        /* \"#utility.yul\":11413:11419   */\n      0x00\n        /* \"#utility.yul\":11463:11464   */\n      0x08\n        /* \"#utility.yul\":11451:11461   */\n      dup4\n        /* \"#utility.yul\":11447:11465   */\n      mul\n        /* \"#utility.yul\":11486:11583   */\n      tag_285\n        /* \"#utility.yul\":11516:11582   */\n      0xffffffffffffffffffffffffffffffffffffffffffffffffffffffffffffffff\n        /* \"#utility.yul\":11505:11514   */\n      dup3\n        /* \"#utility.yul\":11486:11583   */\n      tag_144\n      jump\t// in\n    tag_285:\n        /* \"#utility.yul\":11604:11643   */\n      tag_286\n        /* \"#utility.yul\":11634:11642   */\n      dup7\n        /* \"#utility.yul\":11623:11632   */\n      dup4\n        /* \"#utility.yul\":11604:11643   */\n      tag_144\n      jump\t// in\n    tag_286:\n        /* \"#utility.yul\":11592:11643   */\n      swap6\n      pop\n        /* \"#utility.yul\":11676:11680   */\n      dup1\n        /* \"#utility.yul\":11672:11681   */\n      not\n        /* \"#utility.yul\":11665:11670   */\n      dup5\n        /* \"#utility.yul\":11661:11682   */\n      and\n        /* \"#utility.yul\":11652:11682   */\n      swap4\n      pop\n        /* \"#utility.yul\":11725:11729   */\n      dup1\n        /* \"#utility.yul\":11715:11723   */\n      dup7\n        /* \"#utility.yul\":11711:11730   */\n      and\n        /* \"#utility.yul\":11704:11709   */\n      dup5\n        /* \"#utility.yul\":11701:11731   */\n      or\n        /* \"#utility.yul\":11691:11731   */\n      swap3\n      pop\n        /* \"#utility.yul\":11420:11737   */\n      pop\n      pop\n        /* \"#utility.yul\":11344:11737   */\n      swap4\n      swap3\n      pop\n      pop\n      pop\n      jump\t// out\n        /* \"#utility.yul\":11743:11803   */\n    tag_146:\n        /* \"#utility.yul\":11771:11774   */\n      0x00\n        /* \"#utility.yul\":11792:11797   */\n      dup2\n        /* \"#utility.yul\":11785:11797   */\n      swap1\n      pop\n        /* \"#utility.yul\":11743:11803   */\n      swap2\n      swap1\n      pop\n      jump\t// out\n        /* \"#utility.yul\":11809:11951   */\n    tag_147:\n        /* \"#utility.yul\":11859:11868   */\n      0x00\n        /* \"#utility.yul\":11892:11945   */\n      tag_289\n        /* \"#utility.yul\":11910:11944   */\n      tag_290\n        /* \"#utility.yul\":11919:11943   */\n      tag_291\n        /* \"#utility.yul\":11937:11942   */\n      dup5\n        /* \"#utility.yul\":11919:11943   */\n      tag_105\n      jump\t// in\n    tag_291:\n        /* \"#utility.yul\":11910:11944   */\n      tag_146\n      jump\t// in\n    tag_290:\n        /* \"#utility.yul\":11892:11945   */\n      tag_105\n      jump\t// in\n    tag_289:\n        /* \"#utility.yul\":11879:11945   */\n      swap1\n      pop\n        /* \"#utility.yul\":11809:11951   */\n      swap2\n      swap1\n      pop\n      jump\t// out\n        /* \"#utility.yul\":11957:12032   */\n    tag_148:\n        /* \"#utility.yul\":12000:12003   */\n      0x00\n        /* \"#utility.yul\":12021:12026   */\n      dup2\n        /* \"#utility.yul\":12014:12026   */\n      swap1\n      pop\n        /* \"#utility.yul\":11957:12032   */\n      swap2\n      swap1\n      pop\n      jump\t// out\n        /* \"#utility.yul\":12038:12307   */\n    tag_149:\n        /* \"#utility.yul\":12148:12187   */\n      tag_294\n        /* \"#utility.yul\":12179:12186   */\n      dup4\n        /* \"#utility.yul\":12148:12187   */\n      tag_147\n      jump\t// in\n    tag_294:\n        /* \"#utility.yul\":12209:12300   */\n      tag_295\n        /* \"#utility.yul\":12258:12299   */\n      tag_296\n        /* \"#utility.yul\":12282:12298   */\n      dup3\n        /* \"#utility.yul\":12258:12299   */\n      tag_148\n      jump\t// in\n    tag_296:\n        /* \"#utility.yul\":12250:12256   */\n      dup5\n        /* \"#utility.yul\":12243:12247   */\n      dup5\n        /* \"#utility.yul\":12237:12248   */\n      sload\n        /* \"#utility.yul\":12209:12300   */\n      tag_145\n      jump\t// in\n    tag_295:\n        /* \"#utility.yul\":12203:12207   */\n      dup3\n        /* \"#utility.yul\":12196:12301   */\n      sstore\n        /* \"#utility.yul\":12114:12307   */\n      pop\n        /* \"#utility.yul\":12038:12307   */\n      pop\n      pop\n      pop\n      jump\t// out\n        /* \"#utility.yul\":12313:12386   */\n    tag_150:\n        /* \"#utility.yul\":12358:12361   */\n      0x00\n        /* \"#utility.yul\":12313:12386   */\n      swap1\n      jump\t// out\n        /* \"#utility.yul\":12392:12581   */\n    tag_151:\n        /* \"#utility.yul\":12469:12501   */\n      tag_299\n      tag_150\n      jump\t// in\n    tag_299:\n        /* \"#utility.yul\":12510:12575   */\n      tag_300\n        /* \"#utility.yul\":12568:12574   */\n      dup2\n        /* \"#utility.yul\":12560:12566   */\n      dup5\n        /* \"#utility.yul\":12554:12558   */\n      dup5\n        /* \"#utility.yul\":12510:12575   */\n      tag_149\n      jump\t// in\n    tag_300:\n        /* \"#utility.yul\":12445:12581   */\n      pop\n        /* \"#utility.yul\":12392:12581   */\n      pop\n      pop\n      jump\t// out\n        /* \"#utility.yul\":12587:12773   */\n    tag_152:\n        /* \"#utility.yul\":12647:12767   */\n    tag_302:\n        /* \"#utility.yul\":12664:12667   */\n      dup2\n        /* \"#utility.yul\":12657:12662   */\n      dup2\n        /* \"#utility.yul\":12654:12668   */\n      lt\n        /* \"#utility.yul\":12647:12767   */\n      iszero\n      tag_304\n      jumpi\n        /* \"#utility.yul\":12718:12757   */\n      tag_305\n        /* \"#utility.yul\":12755:12756   */\n      0x00\n        /* \"#utility.yul\":12748:12753   */\n      dup3\n        /* \"#utility.yul\":12718:12757   */\n      tag_151\n      jump\t// in\n    tag_305:\n        /* \"#utility.yul\":12691:12692   */\n      0x01\n        /* \"#utility.yul\":12684:12689   */\n      dup2\n        /* \"#utility.yul\":12680:12693   */\n      add\n        /* \"#utility.yul\":12671:12693   */\n      swap1\n      pop\n        /* \"#utility.yul\":12647:12767   */\n      jump(tag_302)\n    tag_304:\n        /* \"#utility.yul\":12587:12773   */\n      pop\n      pop\n      jump\t// out\n        /* \"#utility.yul\":12779:13322   */\n    tag_153:\n        /* \"#utility.yul\":12880:12882   */\n      0x1f\n        /* \"#utility.yul\":12875:12878   */\n      dup3\n        /* \"#utility.yul\":12872:12883   */\n      gt\n        /* \"#utility.yul\":12869:13315   */\n      iszero\n      tag_307\n      jumpi\n        /* \"#utility.yul\":12914:12952   */\n      tag_308\n        /* \"#utility.yul\":12946:12951   */\n      dup2\n        /* \"#utility.yul\":12914:12952   */\n      tag_142\n      jump\t// in\n    tag_308:\n        /* \"#utility.yul\":12998:13027   */\n      tag_309\n        /* \"#utility.yul\":13016:13026   */\n      dup5\n        /* \"#utility.yul\":12998:13027   */\n      tag_143\n      jump\t// in\n    tag_309:\n        /* \"#utility.yul\":12988:12996   */\n      dup2\n        /* \"#utility.yul\":12984:13028   */\n      add\n        /* \"#utility.yul\":13181:13183   */\n      0x20\n        /* \"#utility.yul\":13169:13179   */\n      dup6\n        /* \"#utility.yul\":13166:13184   */\n      lt\n        /* \"#utility.yul\":13163:13212   */\n      iszero\n      tag_310\n      jumpi\n        /* \"#utility.yul\":13202:13210   */\n      dup2\n        /* \"#utility.yul\":13187:13210   */\n      swap1\n      pop\n        /* \"#utility.yul\":13163:13212   */\n    tag_310:\n        /* \"#utility.yul\":13225:13305   */\n      tag_311\n        /* \"#utility.yul\":13281:13303   */\n      tag_312\n        /* \"#utility.yul\":13299:13302   */\n      dup6\n        /* \"#utility.yul\":13281:13303   */\n      tag_143\n      jump\t// in\n    tag_312:\n        /* \"#utility.yul\":13271:13279   */\n      dup4\n        /* \"#utility.yul\":13267:13304   */\n      add\n        /* \"#utility.yul\":13254:13265   */\n      dup3\n        /* \"#utility.yul\":13225:13305   */\n      tag_152\n      jump\t// in\n    tag_311:\n        /* \"#utility.yul\":12884:13315   */\n      pop\n      pop\n        /* \"#utility.yul\":12869:13315   */\n    tag_307:\n        /* \"#utility.yul\":12779:13322   */\n      pop\n      pop\n      pop\n      jump\t// out\n        /* \"#utility.yul\":13328:13445   */\n    tag_154:\n        /* \"#utility.yul\":13382:13390   */\n      0x00\n        /* \"#utility.yul\":13432:13437   */\n      dup3\n        /* \"#utility.yul\":13426:13430   */\n      dup3\n        /* \"#utility.yul\":13422:13438   */\n      shr\n        /* \"#utility.yul\":13401:13438   */\n      swap1\n      pop\n        /* \"#utility.yul\":13328:13445   */\n      swap3\n      swap2\n      pop\n      pop\n      jump\t// out\n        /* \"#utility.yul\":13451:13620   */\n    tag_155:\n        /* \"#utility.yul\":13495:13501   */\n      0x00\n        /* \"#utility.yul\":13528:13579   */\n      tag_315\n        /* \"#utility.yul\":13576:13577   */\n      0x00\n        /* \"#utility.yul\":13572:13578   */\n      not\n        /* \"#utility.yul\":13564:13569   */\n      dup5\n        /* \"#utility.yul\":13561:13562   */\n      0x08\n        /* \"#utility.yul\":13557:13570   */\n      mul\n        /* \"#utility.yul\":13528:13579   */\n      tag_154\n      jump\t// in\n    tag_315:\n        /* \"#utility.yul\":13524:13580   */\n      not\n        /* \"#utility.yul\":13609:13613   */\n      dup1\n        /* \"#utility.yul\":13603:13607   */\n      dup4\n        /* \"#utility.yul\":13599:13614   */\n      and\n        /* \"#utility.yul\":13589:13614   */\n      swap2\n      pop\n        /* \"#utility.yul\":13502:13620   */\n      pop\n        /* \"#utility.yul\":13451:13620   */\n      swap3\n      swap2\n      pop\n      pop\n      jump\t// out\n        /* \"#utility.yul\":13625:13920   */\n    tag_156:\n        /* \"#utility.yul\":13701:13705   */\n      0x00\n        /* \"#utility.yul\":13847:13876   */\n      tag_317\n        /* \"#utility.yul\":13872:13875   */\n      dup4\n        /* \"#utility.yul\":13866:13870   */\n      dup4\n        /* \"#utility.yul\":13847:13876   */\n      tag_155\n      jump\t// in\n    tag_317:\n        /* \"#utility.yul\":13839:13876   */\n      swap2\n      pop\n        /* \"#utility.yul\":13909:13912   */\n      dup3\n        /* \"#utility.yul\":13906:13907   */\n      0x02\n        /* \"#utility.yul\":13902:13913   */\n      mul\n        /* \"#utility.yul\":13896:13900   */\n      dup3\n        /* \"#utility.yul\":13893:13914   */\n      or\n        /* \"#utility.yul\":13885:13914   */\n      swap1\n      pop\n        /* \"#utility.yul\":13625:13920   */\n      swap3\n      swap2\n      pop\n      pop\n      jump\t// out\n        /* \"#utility.yul\":13925:15320   */\n    tag_90:\n        /* \"#utility.yul\":14042:14079   */\n      tag_319\n        /* \"#utility.yul\":14075:14078   */\n      dup3\n        /* \"#utility.yul\":14042:14079   */\n      tag_130\n      jump\t// in\n    tag_319:\n        /* \"#utility.yul\":14144:14162   */\n      0xffffffffffffffff\n        /* \"#utility.yul\":14136:14142   */\n      dup2\n        /* \"#utility.yul\":14133:14163   */\n      gt\n        /* \"#utility.yul\":14130:14186   */\n      iszero\n      tag_320\n      jumpi\n        /* \"#utility.yul\":14166:14184   */\n      tag_321\n      tag_113\n      jump\t// in\n    tag_321:\n        /* \"#utility.yul\":14130:14186   */\n    tag_320:\n        /* \"#utility.yul\":14210:14248   */\n      tag_322\n        /* \"#utility.yul\":14242:14246   */\n      dup3\n        /* \"#utility.yul\":14236:14247   */\n      sload\n        /* \"#utility.yul\":14210:14248   */\n      tag_100\n      jump\t// in\n    tag_322:\n        /* \"#utility.yul\":14295:14362   */\n      tag_323\n        /* \"#utility.yul\":14355:14361   */\n      dup3\n        /* \"#utility.yul\":14347:14353   */\n      dup3\n        /* \"#utility.yul\":14341:14345   */\n      dup6\n        /* \"#utility.yul\":14295:14362   */\n      tag_153\n      jump\t// in\n    tag_323:\n        /* \"#utility.yul\":14389:14390   */\n      0x00\n        /* \"#utility.yul\":14413:14417   */\n      0x20\n        /* \"#utility.yul\":14400:14417   */\n      swap1\n      pop\n        /* \"#utility.yul\":14445:14447   */\n      0x1f\n        /* \"#utility.yul\":14437:14443   */\n      dup4\n        /* \"#utility.yul\":14434:14448   */\n      gt\n        /* \"#utility.yul\":14462:14463   */\n      0x01\n        /* \"#utility.yul\":14457:15075   */\n      dup2\n      eq\n      tag_325\n      jumpi\n        /* \"#utility.yul\":15119:15120   */\n      0x00\n        /* \"#utility.yul\":15136:15142   */\n      dup5\n        /* \"#utility.yul\":15133:15210   */\n      iszero\n      tag_326\n      jumpi\n        /* \"#utility.yul\":15185:15194   */\n      dup3\n        /* \"#utility.yul\":15180:15183   */\n      dup8\n        /* \"#utility.yul\":15176:15195   */\n      add\n        /* \"#utility.yul\":15170:15196   */\n      mload\n        /* \"#utility.yul\":15161:15196   */\n      swap1\n      pop\n        /* \"#utility.yul\":15133:15210   */\n    tag_326:\n        /* \"#utility.yul\":15236:15303   */\n      tag_327\n        /* \"#utility.yul\":15296:15302   */\n      dup6\n        /* \"#utility.yul\":15289:15294   */\n      dup3\n        /* \"#utility.yul\":15236:15303   */\n      tag_156\n      jump\t// in\n    tag_327:\n        /* \"#utility.yul\":15230:15234   */\n      dup7\n        /* \"#utility.yul\":15223:15304   */\n      sstore\n        /* \"#utility.yul\":15092:15314   */\n      pop\n        /* \"#utility.yul\":14427:15314   */\n      jump(tag_324)\n        /* \"#utility.yul\":14457:15075   */\n    tag_325:\n        /* \"#utility.yul\":14509:14513   */\n      0x1f\n        /* \"#utility.yul\":14505:14514   */\n      not\n        /* \"#utility.yul\":14497:14503   */\n      dup5\n        /* \"#utility.yul\":14493:14515   */\n      and\n        /* \"#utility.yul\":14543:14580   */\n      tag_328\n        /* \"#utility.yul\":14575:14579   */\n      dup7\n        /* \"#utility.yul\":14543:14580   */\n      tag_142\n      jump\t// in\n    tag_328:\n        /* \"#utility.yul\":14602:14603   */\n      0x00\n        /* \"#utility.yul\":14616:14824   */\n    tag_329:\n        /* \"#utility.yul\":14630:14637   */\n      dup3\n        /* \"#utility.yul\":14627:14628   */\n      dup2\n        /* \"#utility.yul\":14624:14638   */\n      lt\n        /* \"#utility.yul\":14616:14824   */\n      iszero\n      tag_331\n      jumpi\n        /* \"#utility.yul\":14709:14718   */\n      dup5\n        /* \"#utility.yul\":14704:14707   */\n      dup10\n        /* \"#utility.yul\":14700:14719   */\n      add\n        /* \"#utility.yul\":14694:14720   */\n      mload\n        /* \"#utility.yul\":14686:14692   */\n      dup3\n        /* \"#utility.yul\":14679:14721   */\n      sstore\n        /* \"#utility.yul\":14760:14761   */\n      0x01\n        /* \"#utility.yul\":14752:14758   */\n      dup3\n        /* \"#utility.yul\":14748:14762   */\n      add\n        /* \"#utility.yul\":14738:14762   */\n      swap2\n      pop\n        /* \"#utility.yul\":14807:14809   */\n      0x20\n        /* \"#utility.yul\":14796:14805   */\n      dup6\n        /* \"#utility.yul\":14792:14810   */\n      add\n        /* \"#utility.yul\":14779:14810   */\n      swap5\n      pop\n        /* \"#utility.yul\":14653:14657   */\n      0x20\n        /* \"#utility.yul\":14650:14651   */\n      dup2\n        /* \"#utility.yul\":14646:14658   */\n      add\n        /* \"#utility.yul\":14641:14658   */\n      swap1\n      pop\n        /* \"#utility.yul\":14616:14824   */\n      jump(tag_329)\n    tag_331:\n        /* \"#utility.yul\":14852:14858   */\n      dup7\n        /* \"#utility.yul\":14843:14850   */\n      dup4\n        /* \"#utility.yul\":14840:14859   */\n      lt\n        /* \"#utility.yul\":14837:15016   */\n      iszero\n      tag_332\n      jumpi\n        /* \"#utility.yul\":14910:14919   */\n      dup5\n        /* \"#utility.yul\":14905:14908   */\n      dup10\n        /* \"#utility.yul\":14901:14920   */\n      add\n        /* \"#utility.yul\":14895:14921   */\n      mload\n        /* \"#utility.yul\":14953:15001   */\n      tag_333\n        /* \"#utility.yul\":14995:14999   */\n      0x1f\n        /* \"#utility.yul\":14987:14993   */\n      dup10\n        /* \"#utility.yul\":14983:15000   */\n      and\n        /* \"#utility.yul\":14972:14981   */\n      dup3\n        /* \"#utility.yul\":14953:15001   */\n      tag_155\n      jump\t// in\n    tag_333:\n        /* \"#utility.yul\":14945:14951   */\n      dup4\n        /* \"#utility.yul\":14938:15002   */\n      sstore\n        /* \"#utility.yul\":14860:15016   */\n      pop\n        /* \"#utility.yul\":14837:15016   */\n    tag_332:\n        /* \"#utility.yul\":15062:15063   */\n      0x01\n        /* \"#utility.yul\":15058:15059   */\n      0x02\n        /* \"#utility.yul\":15050:15056   */\n      dup9\n        /* \"#utility.yul\":15046:15060   */\n      mul\n        /* \"#utility.yul\":15042:15064   */\n      add\n        /* \"#utility.yul\":15036:15040   */\n      dup9\n        /* \"#utility.yul\":15029:15065   */\n      sstore\n        /* \"#utility.yul\":14464:15075   */\n      pop\n      pop\n      pop\n        /* \"#utility.yul\":14427:15314   */\n    tag_324:\n      pop\n        /* \"#utility.yul\":14017:15320   */\n      pop\n      pop\n      pop\n        /* \"#utility.yul\":13925:15320   */\n      pop\n      pop\n      jump\t// out\n        /* \"#utility.yul\":15326:15507   */\n    tag_157:\n        /* \"#utility.yul\":15466:15499   */\n      0x596f752077657265204e6f7420656c6769626c6520696e2046756e64696e6700\n        /* \"#utility.yul\":15462:15463   */\n      0x00\n        /* \"#utility.yul\":15454:15460   */\n      dup3\n        /* \"#utility.yul\":15450:15464   */\n      add\n        /* \"#utility.yul\":15443:15500   */\n      mstore\n        /* \"#utility.yul\":15326:15507   */\n      pop\n      jump\t// out\n        /* \"#utility.yul\":15513:15879   */\n    tag_158:\n        /* \"#utility.yul\":15655:15658   */\n      0x00\n        /* \"#utility.yul\":15676:15743   */\n      tag_336\n        /* \"#utility.yul\":15740:15742   */\n      0x1f\n        /* \"#utility.yul\":15735:15738   */\n      dup4\n        /* \"#utility.yul\":15676:15743   */\n      tag_131\n      jump\t// in\n    tag_336:\n        /* \"#utility.yul\":15669:15743   */\n      swap2\n      pop\n        /* \"#utility.yul\":15752:15845   */\n      tag_337\n        /* \"#utility.yul\":15841:15844   */\n      dup3\n        /* \"#utility.yul\":15752:15845   */\n      tag_157\n      jump\t// in\n    tag_337:\n        /* \"#utility.yul\":15870:15872   */\n      0x20\n        /* \"#utility.yul\":15865:15868   */\n      dup3\n        /* \"#utility.yul\":15861:15873   */\n      add\n        /* \"#utility.yul\":15854:15873   */\n      swap1\n      pop\n        /* \"#utility.yul\":15513:15879   */\n      swap2\n      swap1\n      pop\n      jump\t// out\n        /* \"#utility.yul\":15885:16304   */\n    tag_96:\n        /* \"#utility.yul\":16051:16055   */\n      0x00\n        /* \"#utility.yul\":16089:16091   */\n      0x20\n        /* \"#utility.yul\":16078:16087   */\n      dup3\n        /* \"#utility.yul\":16074:16092   */\n      add\n        /* \"#utility.yul\":16066:16092   */\n      swap1\n      pop\n        /* \"#utility.yul\":16138:16147   */\n      dup2\n        /* \"#utility.yul\":16132:16136   */\n      dup2\n        /* \"#utility.yul\":16128:16148   */\n      sub\n        /* \"#utility.yul\":16124:16125   */\n      0x00\n        /* \"#utility.yul\":16113:16122   */\n      dup4\n        /* \"#utility.yul\":16109:16126   */\n      add\n        /* \"#utility.yul\":16102:16149   */\n      mstore\n        /* \"#utility.yul\":16166:16297   */\n      tag_339\n        /* \"#utility.yul\":16292:16296   */\n      dup2\n        /* \"#utility.yul\":16166:16297   */\n      tag_158\n      jump\t// in\n    tag_339:\n        /* \"#utility.yul\":16158:16297   */\n      swap1\n      pop\n        /* \"#utility.yul\":15885:16304   */\n      swap2\n      swap1\n      pop\n      jump\t// out\n\n    auxdata: 0xa2646970667358221220f4abbb68705a9fef1b27f6592b47f3500214576c974bb72d3f368290491d21c064736f6c63430008110033\n}\n",
				"bytecode": {
					"linkReferences": {},
					"object": "60806040523480156200001157600080fd5b506040516200128b3803806200128b8339818101604052810190620000379190620000e3565b8160028190555080426200004c919062000159565b600481905550606460038190555033600160006101000a81548173ffffffffffffffffffffffffffffffffffffffff021916908373ffffffffffffffffffffffffffffffffffffffff160217905550505062000194565b600080fd5b6000819050919050565b620000bd81620000a8565b8114620000c957600080fd5b50565b600081519050620000dd81620000b2565b92915050565b60008060408385031215620000fd57620000fc620000a3565b5b60006200010d85828601620000cc565b92505060206200012085828601620000cc565b9150509250929050565b7f4e487b7100000000000000000000000000000000000000000000000000000000600052601160045260246000fd5b60006200016682620000a8565b91506200017383620000a8565b92508282019050808211156200018e576200018d6200012a565b5b92915050565b6110e780620001a46000396000f3fe6080604052600436106100c25760003560e01c8063481c6a751161007f578063b1b1643111610059578063b1b1643114610218578063c59ee1dc14610243578063d4b839921461026e578063d845a4b314610299576100c2565b8063481c6a75146101b8578063590e1ae3146101e35780638c9ffd40146101ed576100c2565b806305759b4d146100c757806306e99fef146100f257806312065fe0146100fc5780631b16bb5c146101275780631f6d49421461015057806329dcb0cf1461018d575b600080fd5b3480156100d357600080fd5b506100dc6102da565b6040516100e991906107c0565b60405180910390f35b6100fa6102e0565b005b34801561010857600080fd5b50610111610437565b60405161011e91906107c0565b60405180910390f35b34801561013357600080fd5b5061014e600480360381019061014991906109bf565b61043f565b005b34801561015c57600080fd5b5061017760048036038101906101729190610a6c565b6104f1565b60405161018491906107c0565b60405180910390f35b34801561019957600080fd5b506101a2610509565b6040516101af91906107c0565b60405180910390f35b3480156101c457600080fd5b506101cd61050f565b6040516101da9190610aa8565b60405180910390f35b6101eb610535565b005b3480156101f957600080fd5b506102026106a4565b60405161020f91906107c0565b60405180910390f35b34801561022457600080fd5b5061022d6106aa565b60405161023a91906107c0565b60405180910390f35b34801561024f57600080fd5b506102586106b0565b60405161026591906107c0565b60405180910390f35b34801561027a57600080fd5b506102836106b6565b60405161029091906107c0565b60405180910390f35b3480156102a557600080fd5b506102c060048036038101906102bb9190610ac3565b6106bc565b6040516102d1959493929190610b8a565b60405180910390f35b60035481565b6004544210610324576040517f08c379a000000000000000000000000000000000000000000000000000000000815260040161031b90610c30565b60405180910390fd5b6003543414610368576040517f08c379a000000000000000000000000000000000000000000000000000000000815260040161035f90610c9c565b60405180910390fd5b60008060003373ffffffffffffffffffffffffffffffffffffffff1673ffffffffffffffffffffffffffffffffffffffff16815260200190815260200160002054036103c757600560008154809291906103c190610ceb565b91905055505b346000803373ffffffffffffffffffffffffffffffffffffffff1673ffffffffffffffffffffffffffffffffffffffff16815260200190815260200160002060008282546104159190610d33565b92505081905550346006600082825461042e9190610d33565b92505081905550565b600047905090565b600060076000600854815260200190815260200160002090506008600081548092919061046b90610ceb565b9190505550838160000190816104819190610f73565b50828160010160006101000a81548173ffffffffffffffffffffffffffffffffffffffff021916908373ffffffffffffffffffffffffffffffffffffffff16021790555081816002018190555060018160030160006101000a81548160ff02191690831515021790555050505050565b60006020528060005260406000206000915090505481565b60045481565b600160009054906101000a900473ffffffffffffffffffffffffffffffffffffffff1681565b600254600654108015610549575060045442115b61055257600080fd5b60008060003373ffffffffffffffffffffffffffffffffffffffff1673ffffffffffffffffffffffffffffffffffffffff16815260200190815260200160002054106105d3576040517f08c379a00000000000000000000000000000000000000000000000000000000081526004016105ca90611091565b60405180910390fd5b60003390508073ffffffffffffffffffffffffffffffffffffffff166108fc6000803373ffffffffffffffffffffffffffffffffffffffff1673ffffffffffffffffffffffffffffffffffffffff168152602001908152602001600020549081150290604051600060405180830381858888f1935050505015801561065c573d6000803e3d6000fd5b5060008060003373ffffffffffffffffffffffffffffffffffffffff1673ffffffffffffffffffffffffffffffffffffffff1681526020019081526020016000208190555050565b60055481565b60085481565b60065481565b60025481565b60076020528060005260406000206000915090508060000180546106df90610d96565b80601f016020809104026020016040519081016040528092919081815260200182805461070b90610d96565b80156107585780601f1061072d57610100808354040283529160200191610758565b820191906000526020600020905b81548152906001019060200180831161073b57829003601f168201915b5050505050908060010160009054906101000a900473ffffffffffffffffffffffffffffffffffffffff16908060020154908060030160009054906101000a900460ff16908060040154905085565b6000819050919050565b6107ba816107a7565b82525050565b60006020820190506107d560008301846107b1565b92915050565b6000604051905090565b600080fd5b600080fd5b600080fd5b600080fd5b6000601f19601f8301169050919050565b7f4e487b7100000000000000000000000000000000000000000000000000000000600052604160045260246000fd5b610842826107f9565b810181811067ffffffffffffffff821117156108615761086061080a565b5b80604052505050565b60006108746107db565b90506108808282610839565b919050565b600067ffffffffffffffff8211156108a05761089f61080a565b5b6108a9826107f9565b9050602081019050919050565b82818337600083830152505050565b60006108d86108d384610885565b61086a565b9050828152602081018484840111156108f4576108f36107f4565b5b6108ff8482856108b6565b509392505050565b600082601f83011261091c5761091b6107ef565b5b813561092c8482602086016108c5565b91505092915050565b600073ffffffffffffffffffffffffffffffffffffffff82169050919050565b600061096082610935565b9050919050565b61097081610955565b811461097b57600080fd5b50565b60008135905061098d81610967565b92915050565b61099c816107a7565b81146109a757600080fd5b50565b6000813590506109b981610993565b92915050565b6000806000606084860312156109d8576109d76107e5565b5b600084013567ffffffffffffffff8111156109f6576109f56107ea565b5b610a0286828701610907565b9350506020610a138682870161097e565b9250506040610a24868287016109aa565b9150509250925092565b6000610a3982610935565b9050919050565b610a4981610a2e565b8114610a5457600080fd5b50565b600081359050610a6681610a40565b92915050565b600060208284031215610a8257610a816107e5565b5b6000610a9084828501610a57565b91505092915050565b610aa281610a2e565b82525050565b6000602082019050610abd6000830184610a99565b92915050565b600060208284031215610ad957610ad86107e5565b5b6000610ae7848285016109aa565b91505092915050565b600081519050919050565b600082825260208201905092915050565b60005b83811015610b2a578082015181840152602081019050610b0f565b60008484015250505050565b6000610b4182610af0565b610b4b8185610afb565b9350610b5b818560208601610b0c565b610b64816107f9565b840191505092915050565b60008115159050919050565b610b8481610b6f565b82525050565b600060a0820190508181036000830152610ba48188610b36565b9050610bb36020830187610a99565b610bc060408301866107b1565b610bcd6060830185610b7b565b610bda60808301846107b1565b9695505050505050565b7f4465616c696e652077657265206d697373696e67000000000000000000000000600082015250565b6000610c1a601483610afb565b9150610c2582610be4565b602082019050919050565b60006020820190508181036000830152610c4981610c0d565b9050919050565b7f596f752077657265206e6f7420626520656c696769626c650000000000000000600082015250565b6000610c86601883610afb565b9150610c9182610c50565b602082019050919050565b60006020820190508181036000830152610cb581610c79565b9050919050565b7f4e487b7100000000000000000000000000000000000000000000000000000000600052601160045260246000fd5b6000610cf6826107a7565b91507fffffffffffffffffffffffffffffffffffffffffffffffffffffffffffffffff8203610d2857610d27610cbc565b5b600182019050919050565b6000610d3e826107a7565b9150610d49836107a7565b9250828201905080821115610d6157610d60610cbc565b5b92915050565b7f4e487b7100000000000000000000000000000000000000000000000000000000600052602260045260246000fd5b60006002820490506001821680610dae57607f821691505b602082108103610dc157610dc0610d67565b5b50919050565b60008190508160005260206000209050919050565b60006020601f8301049050919050565b600082821b905092915050565b600060088302610e297fffffffffffffffffffffffffffffffffffffffffffffffffffffffffffffffff82610dec565b610e338683610dec565b95508019841693508086168417925050509392505050565b6000819050919050565b6000610e70610e6b610e66846107a7565b610e4b565b6107a7565b9050919050565b6000819050919050565b610e8a83610e55565b610e9e610e9682610e77565b848454610df9565b825550505050565b600090565b610eb3610ea6565b610ebe818484610e81565b505050565b5b81811015610ee257610ed7600082610eab565b600181019050610ec4565b5050565b601f821115610f2757610ef881610dc7565b610f0184610ddc565b81016020851015610f10578190505b610f24610f1c85610ddc565b830182610ec3565b50505b505050565b600082821c905092915050565b6000610f4a60001984600802610f2c565b1980831691505092915050565b6000610f638383610f39565b9150826002028217905092915050565b610f7c82610af0565b67ffffffffffffffff811115610f9557610f9461080a565b5b610f9f8254610d96565b610faa828285610ee6565b600060209050601f831160018114610fdd5760008415610fcb578287015190505b610fd58582610f57565b86555061103d565b601f198416610feb86610dc7565b60005b8281101561101357848901518255600182019150602085019450602081019050610fee565b86831015611030578489015161102c601f891682610f39565b8355505b6001600288020188555050505b505050505050565b7f596f752077657265204e6f7420656c6769626c6520696e2046756e64696e6700600082015250565b600061107b601f83610afb565b915061108682611045565b602082019050919050565b600060208201905081810360008301526110aa8161106e565b905091905056fea2646970667358221220f4abbb68705a9fef1b27f6592b47f3500214576c974bb72d3f368290491d21c064736f6c63430008110033",
					"opcodes": "PUSH1 0x80 PUSH1 0x40 MSTORE CALLVALUE DUP1 ISZERO PUSH3 0x11 JUMPI PUSH1 0x0 DUP1 REVERT JUMPDEST POP PUSH1 0x40 MLOAD PUSH3 0x128B CODESIZE SUB DUP1 PUSH3 0x128B DUP4 CODECOPY DUP2 DUP2 ADD PUSH1 0x40 MSTORE DUP2 ADD SWAP1 PUSH3 0x37 SWAP2 SWAP1 PUSH3 0xE3 JUMP JUMPDEST DUP2 PUSH1 0x2 DUP2 SWAP1 SSTORE POP DUP1 TIMESTAMP PUSH3 0x4C SWAP2 SWAP1 PUSH3 0x159 JUMP JUMPDEST PUSH1 0x4 DUP2 SWAP1 SSTORE POP PUSH1 0x64 PUSH1 0x3 DUP2 SWAP1 SSTORE POP CALLER PUSH1 0x1 PUSH1 0x0 PUSH2 0x100 EXP DUP2 SLOAD DUP2 PUSH20 0xFFFFFFFFFFFFFFFFFFFFFFFFFFFFFFFFFFFFFFFF MUL NOT AND SWAP1 DUP4 PUSH20 0xFFFFFFFFFFFFFFFFFFFFFFFFFFFFFFFFFFFFFFFF AND MUL OR SWAP1 SSTORE POP POP POP PUSH3 0x194 JUMP JUMPDEST PUSH1 0x0 DUP1 REVERT JUMPDEST PUSH1 0x0 DUP2 SWAP1 POP SWAP2 SWAP1 POP JUMP JUMPDEST PUSH3 0xBD DUP2 PUSH3 0xA8 JUMP JUMPDEST DUP2 EQ PUSH3 0xC9 JUMPI PUSH1 0x0 DUP1 REVERT JUMPDEST POP JUMP JUMPDEST PUSH1 0x0 DUP2 MLOAD SWAP1 POP PUSH3 0xDD DUP2 PUSH3 0xB2 JUMP JUMPDEST SWAP3 SWAP2 POP POP JUMP JUMPDEST PUSH1 0x0 DUP1 PUSH1 0x40 DUP4 DUP6 SUB SLT ISZERO PUSH3 0xFD JUMPI PUSH3 0xFC PUSH3 0xA3 JUMP JUMPDEST JUMPDEST PUSH1 0x0 PUSH3 0x10D DUP6 DUP3 DUP7 ADD PUSH3 0xCC JUMP JUMPDEST SWAP3 POP POP PUSH1 0x20 PUSH3 0x120 DUP6 DUP3 DUP7 ADD PUSH3 0xCC JUMP JUMPDEST SWAP2 POP POP SWAP3 POP SWAP3 SWAP1 POP JUMP JUMPDEST PUSH32 0x4E487B7100000000000000000000000000000000000000000000000000000000 PUSH1 0x0 MSTORE PUSH1 0x11 PUSH1 0x4 MSTORE PUSH1 0x24 PUSH1 0x0 REVERT JUMPDEST PUSH1 0x0 PUSH3 0x166 DUP3 PUSH3 0xA8 JUMP JUMPDEST SWAP2 POP PUSH3 0x173 DUP4 PUSH3 0xA8 JUMP JUMPDEST SWAP3 POP DUP3 DUP3 ADD SWAP1 POP DUP1 DUP3 GT ISZERO PUSH3 0x18E JUMPI PUSH3 0x18D PUSH3 0x12A JUMP JUMPDEST JUMPDEST SWAP3 SWAP2 POP POP JUMP JUMPDEST PUSH2 0x10E7 DUP1 PUSH3 0x1A4 PUSH1 0x0 CODECOPY PUSH1 0x0 RETURN INVALID PUSH1 0x80 PUSH1 0x40 MSTORE PUSH1 0x4 CALLDATASIZE LT PUSH2 0xC2 JUMPI PUSH1 0x0 CALLDATALOAD PUSH1 0xE0 SHR DUP1 PUSH4 0x481C6A75 GT PUSH2 0x7F JUMPI DUP1 PUSH4 0xB1B16431 GT PUSH2 0x59 JUMPI DUP1 PUSH4 0xB1B16431 EQ PUSH2 0x218 JUMPI DUP1 PUSH4 0xC59EE1DC EQ PUSH2 0x243 JUMPI DUP1 PUSH4 0xD4B83992 EQ PUSH2 0x26E JUMPI DUP1 PUSH4 0xD845A4B3 EQ PUSH2 0x299 JUMPI PUSH2 0xC2 JUMP JUMPDEST DUP1 PUSH4 0x481C6A75 EQ PUSH2 0x1B8 JUMPI DUP1 PUSH4 0x590E1AE3 EQ PUSH2 0x1E3 JUMPI DUP1 PUSH4 0x8C9FFD40 EQ PUSH2 0x1ED JUMPI PUSH2 0xC2 JUMP JUMPDEST DUP1 PUSH4 0x5759B4D EQ PUSH2 0xC7 JUMPI DUP1 PUSH4 0x6E99FEF EQ PUSH2 0xF2 JUMPI DUP1 PUSH4 0x12065FE0 EQ PUSH2 0xFC JUMPI DUP1 PUSH4 0x1B16BB5C EQ PUSH2 0x127 JUMPI DUP1 PUSH4 0x1F6D4942 EQ PUSH2 0x150 JUMPI DUP1 PUSH4 0x29DCB0CF EQ PUSH2 0x18D JUMPI JUMPDEST PUSH1 0x0 DUP1 REVERT JUMPDEST CALLVALUE DUP1 ISZERO PUSH2 0xD3 JUMPI PUSH1 0x0 DUP1 REVERT JUMPDEST POP PUSH2 0xDC PUSH2 0x2DA JUMP JUMPDEST PUSH1 0x40 MLOAD PUSH2 0xE9 SWAP2 SWAP1 PUSH2 0x7C0 JUMP JUMPDEST PUSH1 0x40 MLOAD DUP1 SWAP2 SUB SWAP1 RETURN JUMPDEST PUSH2 0xFA PUSH2 0x2E0 JUMP JUMPDEST STOP JUMPDEST CALLVALUE DUP1 ISZERO PUSH2 0x108 JUMPI PUSH1 0x0 DUP1 REVERT JUMPDEST POP PUSH2 0x111 PUSH2 0x437 JUMP JUMPDEST PUSH1 0x40 MLOAD PUSH2 0x11E SWAP2 SWAP1 PUSH2 0x7C0 JUMP JUMPDEST PUSH1 0x40 MLOAD DUP1 SWAP2 SUB SWAP1 RETURN JUMPDEST CALLVALUE DUP1 ISZERO PUSH2 0x133 JUMPI PUSH1 0x0 DUP1 REVERT JUMPDEST POP PUSH2 0x14E PUSH1 0x4 DUP1 CALLDATASIZE SUB DUP2 ADD SWAP1 PUSH2 0x149 SWAP2 SWAP1 PUSH2 0x9BF JUMP JUMPDEST PUSH2 0x43F JUMP JUMPDEST STOP JUMPDEST CALLVALUE DUP1 ISZERO PUSH2 0x15C JUMPI PUSH1 0x0 DUP1 REVERT JUMPDEST POP PUSH2 0x177 PUSH1 0x4 DUP1 CALLDATASIZE SUB DUP2 ADD SWAP1 PUSH2 0x172 SWAP2 SWAP1 PUSH2 0xA6C JUMP JUMPDEST PUSH2 0x4F1 JUMP JUMPDEST PUSH1 0x40 MLOAD PUSH2 0x184 SWAP2 SWAP1 PUSH2 0x7C0 JUMP JUMPDEST PUSH1 0x40 MLOAD DUP1 SWAP2 SUB SWAP1 RETURN JUMPDEST CALLVALUE DUP1 ISZERO PUSH2 0x199 JUMPI PUSH1 0x0 DUP1 REVERT JUMPDEST POP PUSH2 0x1A2 PUSH2 0x509 JUMP JUMPDEST PUSH1 0x40 MLOAD PUSH2 0x1AF SWAP2 SWAP1 PUSH2 0x7C0 JUMP JUMPDEST PUSH1 0x40 MLOAD DUP1 SWAP2 SUB SWAP1 RETURN JUMPDEST CALLVALUE DUP1 ISZERO PUSH2 0x1C4 JUMPI PUSH1 0x0 DUP1 REVERT JUMPDEST POP PUSH2 0x1CD PUSH2 0x50F JUMP JUMPDEST PUSH1 0x40 MLOAD PUSH2 0x1DA SWAP2 SWAP1 PUSH2 0xAA8 JUMP JUMPDEST PUSH1 0x40 MLOAD DUP1 SWAP2 SUB SWAP1 RETURN JUMPDEST PUSH2 0x1EB PUSH2 0x535 JUMP JUMPDEST STOP JUMPDEST CALLVALUE DUP1 ISZERO PUSH2 0x1F9 JUMPI PUSH1 0x0 DUP1 REVERT JUMPDEST POP PUSH2 0x202 PUSH2 0x6A4 JUMP JUMPDEST PUSH1 0x40 MLOAD PUSH2 0x20F SWAP2 SWAP1 PUSH2 0x7C0 JUMP JUMPDEST PUSH1 0x40 MLOAD DUP1 SWAP2 SUB SWAP1 RETURN JUMPDEST CALLVALUE DUP1 ISZERO PUSH2 0x224 JUMPI PUSH1 0x0 DUP1 REVERT JUMPDEST POP PUSH2 0x22D PUSH2 0x6AA JUMP JUMPDEST PUSH1 0x40 MLOAD PUSH2 0x23A SWAP2 SWAP1 PUSH2 0x7C0 JUMP JUMPDEST PUSH1 0x40 MLOAD DUP1 SWAP2 SUB SWAP1 RETURN JUMPDEST CALLVALUE DUP1 ISZERO PUSH2 0x24F JUMPI PUSH1 0x0 DUP1 REVERT JUMPDEST POP PUSH2 0x258 PUSH2 0x6B0 JUMP JUMPDEST PUSH1 0x40 MLOAD PUSH2 0x265 SWAP2 SWAP1 PUSH2 0x7C0 JUMP JUMPDEST PUSH1 0x40 MLOAD DUP1 SWAP2 SUB SWAP1 RETURN JUMPDEST CALLVALUE DUP1 ISZERO PUSH2 0x27A JUMPI PUSH1 0x0 DUP1 REVERT JUMPDEST POP PUSH2 0x283 PUSH2 0x6B6 JUMP JUMPDEST PUSH1 0x40 MLOAD PUSH2 0x290 SWAP2 SWAP1 PUSH2 0x7C0 JUMP JUMPDEST PUSH1 0x40 MLOAD DUP1 SWAP2 SUB SWAP1 RETURN JUMPDEST CALLVALUE DUP1 ISZERO PUSH2 0x2A5 JUMPI PUSH1 0x0 DUP1 REVERT JUMPDEST POP PUSH2 0x2C0 PUSH1 0x4 DUP1 CALLDATASIZE SUB DUP2 ADD SWAP1 PUSH2 0x2BB SWAP2 SWAP1 PUSH2 0xAC3 JUMP JUMPDEST PUSH2 0x6BC JUMP JUMPDEST PUSH1 0x40 MLOAD PUSH2 0x2D1 SWAP6 SWAP5 SWAP4 SWAP3 SWAP2 SWAP1 PUSH2 0xB8A JUMP JUMPDEST PUSH1 0x40 MLOAD DUP1 SWAP2 SUB SWAP1 RETURN JUMPDEST PUSH1 0x3 SLOAD DUP2 JUMP JUMPDEST PUSH1 0x4 SLOAD TIMESTAMP LT PUSH2 0x324 JUMPI PUSH1 0x40 MLOAD PUSH32 0x8C379A000000000000000000000000000000000000000000000000000000000 DUP2 MSTORE PUSH1 0x4 ADD PUSH2 0x31B SWAP1 PUSH2 0xC30 JUMP JUMPDEST PUSH1 0x40 MLOAD DUP1 SWAP2 SUB SWAP1 REVERT JUMPDEST PUSH1 0x3 SLOAD CALLVALUE EQ PUSH2 0x368 JUMPI PUSH1 0x40 MLOAD PUSH32 0x8C379A000000000000000000000000000000000000000000000000000000000 DUP2 MSTORE PUSH1 0x4 ADD PUSH2 0x35F SWAP1 PUSH2 0xC9C JUMP JUMPDEST PUSH1 0x40 MLOAD DUP1 SWAP2 SUB SWAP1 REVERT JUMPDEST PUSH1 0x0 DUP1 PUSH1 0x0 CALLER PUSH20 0xFFFFFFFFFFFFFFFFFFFFFFFFFFFFFFFFFFFFFFFF AND PUSH20 0xFFFFFFFFFFFFFFFFFFFFFFFFFFFFFFFFFFFFFFFF AND DUP2 MSTORE PUSH1 0x20 ADD SWAP1 DUP2 MSTORE PUSH1 0x20 ADD PUSH1 0x0 KECCAK256 SLOAD SUB PUSH2 0x3C7 JUMPI PUSH1 0x5 PUSH1 0x0 DUP2 SLOAD DUP1 SWAP3 SWAP2 SWAP1 PUSH2 0x3C1 SWAP1 PUSH2 0xCEB JUMP JUMPDEST SWAP2 SWAP1 POP SSTORE POP JUMPDEST CALLVALUE PUSH1 0x0 DUP1 CALLER PUSH20 0xFFFFFFFFFFFFFFFFFFFFFFFFFFFFFFFFFFFFFFFF AND PUSH20 0xFFFFFFFFFFFFFFFFFFFFFFFFFFFFFFFFFFFFFFFF AND DUP2 MSTORE PUSH1 0x20 ADD SWAP1 DUP2 MSTORE PUSH1 0x20 ADD PUSH1 0x0 KECCAK256 PUSH1 0x0 DUP3 DUP3 SLOAD PUSH2 0x415 SWAP2 SWAP1 PUSH2 0xD33 JUMP JUMPDEST SWAP3 POP POP DUP2 SWAP1 SSTORE POP CALLVALUE PUSH1 0x6 PUSH1 0x0 DUP3 DUP3 SLOAD PUSH2 0x42E SWAP2 SWAP1 PUSH2 0xD33 JUMP JUMPDEST SWAP3 POP POP DUP2 SWAP1 SSTORE POP JUMP JUMPDEST PUSH1 0x0 SELFBALANCE SWAP1 POP SWAP1 JUMP JUMPDEST PUSH1 0x0 PUSH1 0x7 PUSH1 0x0 PUSH1 0x8 SLOAD DUP2 MSTORE PUSH1 0x20 ADD SWAP1 DUP2 MSTORE PUSH1 0x20 ADD PUSH1 0x0 KECCAK256 SWAP1 POP PUSH1 0x8 PUSH1 0x0 DUP2 SLOAD DUP1 SWAP3 SWAP2 SWAP1 PUSH2 0x46B SWAP1 PUSH2 0xCEB JUMP JUMPDEST SWAP2 SWAP1 POP SSTORE POP DUP4 DUP2 PUSH1 0x0 ADD SWAP1 DUP2 PUSH2 0x481 SWAP2 SWAP1 PUSH2 0xF73 JUMP JUMPDEST POP DUP3 DUP2 PUSH1 0x1 ADD PUSH1 0x0 PUSH2 0x100 EXP DUP2 SLOAD DUP2 PUSH20 0xFFFFFFFFFFFFFFFFFFFFFFFFFFFFFFFFFFFFFFFF MUL NOT AND SWAP1 DUP4 PUSH20 0xFFFFFFFFFFFFFFFFFFFFFFFFFFFFFFFFFFFFFFFF AND MUL OR SWAP1 SSTORE POP DUP2 DUP2 PUSH1 0x2 ADD DUP2 SWAP1 SSTORE POP PUSH1 0x1 DUP2 PUSH1 0x3 ADD PUSH1 0x0 PUSH2 0x100 EXP DUP2 SLOAD DUP2 PUSH1 0xFF MUL NOT AND SWAP1 DUP4 ISZERO ISZERO MUL OR SWAP1 SSTORE POP POP POP POP POP JUMP JUMPDEST PUSH1 0x0 PUSH1 0x20 MSTORE DUP1 PUSH1 0x0 MSTORE PUSH1 0x40 PUSH1 0x0 KECCAK256 PUSH1 0x0 SWAP2 POP SWAP1 POP SLOAD DUP2 JUMP JUMPDEST PUSH1 0x4 SLOAD DUP2 JUMP JUMPDEST PUSH1 0x1 PUSH1 0x0 SWAP1 SLOAD SWAP1 PUSH2 0x100 EXP SWAP1 DIV PUSH20 0xFFFFFFFFFFFFFFFFFFFFFFFFFFFFFFFFFFFFFFFF AND DUP2 JUMP JUMPDEST PUSH1 0x2 SLOAD PUSH1 0x6 SLOAD LT DUP1 ISZERO PUSH2 0x549 JUMPI POP PUSH1 0x4 SLOAD TIMESTAMP GT JUMPDEST PUSH2 0x552 JUMPI PUSH1 0x0 DUP1 REVERT JUMPDEST PUSH1 0x0 DUP1 PUSH1 0x0 CALLER PUSH20 0xFFFFFFFFFFFFFFFFFFFFFFFFFFFFFFFFFFFFFFFF AND PUSH20 0xFFFFFFFFFFFFFFFFFFFFFFFFFFFFFFFFFFFFFFFF AND DUP2 MSTORE PUSH1 0x20 ADD SWAP1 DUP2 MSTORE PUSH1 0x20 ADD PUSH1 0x0 KECCAK256 SLOAD LT PUSH2 0x5D3 JUMPI PUSH1 0x40 MLOAD PUSH32 0x8C379A000000000000000000000000000000000000000000000000000000000 DUP2 MSTORE PUSH1 0x4 ADD PUSH2 0x5CA SWAP1 PUSH2 0x1091 JUMP JUMPDEST PUSH1 0x40 MLOAD DUP1 SWAP2 SUB SWAP1 REVERT JUMPDEST PUSH1 0x0 CALLER SWAP1 POP DUP1 PUSH20 0xFFFFFFFFFFFFFFFFFFFFFFFFFFFFFFFFFFFFFFFF AND PUSH2 0x8FC PUSH1 0x0 DUP1 CALLER PUSH20 0xFFFFFFFFFFFFFFFFFFFFFFFFFFFFFFFFFFFFFFFF AND PUSH20 0xFFFFFFFFFFFFFFFFFFFFFFFFFFFFFFFFFFFFFFFF AND DUP2 MSTORE PUSH1 0x20 ADD SWAP1 DUP2 MSTORE PUSH1 0x20 ADD PUSH1 0x0 KECCAK256 SLOAD SWAP1 DUP2 ISZERO MUL SWAP1 PUSH1 0x40 MLOAD PUSH1 0x0 PUSH1 0x40 MLOAD DUP1 DUP4 SUB DUP2 DUP6 DUP9 DUP9 CALL SWAP4 POP POP POP POP ISZERO DUP1 ISZERO PUSH2 0x65C JUMPI RETURNDATASIZE PUSH1 0x0 DUP1 RETURNDATACOPY RETURNDATASIZE PUSH1 0x0 REVERT JUMPDEST POP PUSH1 0x0 DUP1 PUSH1 0x0 CALLER PUSH20 0xFFFFFFFFFFFFFFFFFFFFFFFFFFFFFFFFFFFFFFFF AND PUSH20 0xFFFFFFFFFFFFFFFFFFFFFFFFFFFFFFFFFFFFFFFF AND DUP2 MSTORE PUSH1 0x20 ADD SWAP1 DUP2 MSTORE PUSH1 0x20 ADD PUSH1 0x0 KECCAK256 DUP2 SWAP1 SSTORE POP POP JUMP JUMPDEST PUSH1 0x5 SLOAD DUP2 JUMP JUMPDEST PUSH1 0x8 SLOAD DUP2 JUMP JUMPDEST PUSH1 0x6 SLOAD DUP2 JUMP JUMPDEST PUSH1 0x2 SLOAD DUP2 JUMP JUMPDEST PUSH1 0x7 PUSH1 0x20 MSTORE DUP1 PUSH1 0x0 MSTORE PUSH1 0x40 PUSH1 0x0 KECCAK256 PUSH1 0x0 SWAP2 POP SWAP1 POP DUP1 PUSH1 0x0 ADD DUP1 SLOAD PUSH2 0x6DF SWAP1 PUSH2 0xD96 JUMP JUMPDEST DUP1 PUSH1 0x1F ADD PUSH1 0x20 DUP1 SWAP2 DIV MUL PUSH1 0x20 ADD PUSH1 0x40 MLOAD SWAP1 DUP2 ADD PUSH1 0x40 MSTORE DUP1 SWAP3 SWAP2 SWAP1 DUP2 DUP2 MSTORE PUSH1 0x20 ADD DUP3 DUP1 SLOAD PUSH2 0x70B SWAP1 PUSH2 0xD96 JUMP JUMPDEST DUP1 ISZERO PUSH2 0x758 JUMPI DUP1 PUSH1 0x1F LT PUSH2 0x72D JUMPI PUSH2 0x100 DUP1 DUP4 SLOAD DIV MUL DUP4 MSTORE SWAP2 PUSH1 0x20 ADD SWAP2 PUSH2 0x758 JUMP JUMPDEST DUP3 ADD SWAP2 SWAP1 PUSH1 0x0 MSTORE PUSH1 0x20 PUSH1 0x0 KECCAK256 SWAP1 JUMPDEST DUP2 SLOAD DUP2 MSTORE SWAP1 PUSH1 0x1 ADD SWAP1 PUSH1 0x20 ADD DUP1 DUP4 GT PUSH2 0x73B JUMPI DUP3 SWAP1 SUB PUSH1 0x1F AND DUP3 ADD SWAP2 JUMPDEST POP POP POP POP POP SWAP1 DUP1 PUSH1 0x1 ADD PUSH1 0x0 SWAP1 SLOAD SWAP1 PUSH2 0x100 EXP SWAP1 DIV PUSH20 0xFFFFFFFFFFFFFFFFFFFFFFFFFFFFFFFFFFFFFFFF AND SWAP1 DUP1 PUSH1 0x2 ADD SLOAD SWAP1 DUP1 PUSH1 0x3 ADD PUSH1 0x0 SWAP1 SLOAD SWAP1 PUSH2 0x100 EXP SWAP1 DIV PUSH1 0xFF AND SWAP1 DUP1 PUSH1 0x4 ADD SLOAD SWAP1 POP DUP6 JUMP JUMPDEST PUSH1 0x0 DUP2 SWAP1 POP SWAP2 SWAP1 POP JUMP JUMPDEST PUSH2 0x7BA DUP2 PUSH2 0x7A7 JUMP JUMPDEST DUP3 MSTORE POP POP JUMP JUMPDEST PUSH1 0x0 PUSH1 0x20 DUP3 ADD SWAP1 POP PUSH2 0x7D5 PUSH1 0x0 DUP4 ADD DUP5 PUSH2 0x7B1 JUMP JUMPDEST SWAP3 SWAP2 POP POP JUMP JUMPDEST PUSH1 0x0 PUSH1 0x40 MLOAD SWAP1 POP SWAP1 JUMP JUMPDEST PUSH1 0x0 DUP1 REVERT JUMPDEST PUSH1 0x0 DUP1 REVERT JUMPDEST PUSH1 0x0 DUP1 REVERT JUMPDEST PUSH1 0x0 DUP1 REVERT JUMPDEST PUSH1 0x0 PUSH1 0x1F NOT PUSH1 0x1F DUP4 ADD AND SWAP1 POP SWAP2 SWAP1 POP JUMP JUMPDEST PUSH32 0x4E487B7100000000000000000000000000000000000000000000000000000000 PUSH1 0x0 MSTORE PUSH1 0x41 PUSH1 0x4 MSTORE PUSH1 0x24 PUSH1 0x0 REVERT JUMPDEST PUSH2 0x842 DUP3 PUSH2 0x7F9 JUMP JUMPDEST DUP2 ADD DUP2 DUP2 LT PUSH8 0xFFFFFFFFFFFFFFFF DUP3 GT OR ISZERO PUSH2 0x861 JUMPI PUSH2 0x860 PUSH2 0x80A JUMP JUMPDEST JUMPDEST DUP1 PUSH1 0x40 MSTORE POP POP POP JUMP JUMPDEST PUSH1 0x0 PUSH2 0x874 PUSH2 0x7DB JUMP JUMPDEST SWAP1 POP PUSH2 0x880 DUP3 DUP3 PUSH2 0x839 JUMP JUMPDEST SWAP2 SWAP1 POP JUMP JUMPDEST PUSH1 0x0 PUSH8 0xFFFFFFFFFFFFFFFF DUP3 GT ISZERO PUSH2 0x8A0 JUMPI PUSH2 0x89F PUSH2 0x80A JUMP JUMPDEST JUMPDEST PUSH2 0x8A9 DUP3 PUSH2 0x7F9 JUMP JUMPDEST SWAP1 POP PUSH1 0x20 DUP2 ADD SWAP1 POP SWAP2 SWAP1 POP JUMP JUMPDEST DUP3 DUP2 DUP4 CALLDATACOPY PUSH1 0x0 DUP4 DUP4 ADD MSTORE POP POP POP JUMP JUMPDEST PUSH1 0x0 PUSH2 0x8D8 PUSH2 0x8D3 DUP5 PUSH2 0x885 JUMP JUMPDEST PUSH2 0x86A JUMP JUMPDEST SWAP1 POP DUP3 DUP2 MSTORE PUSH1 0x20 DUP2 ADD DUP5 DUP5 DUP5 ADD GT ISZERO PUSH2 0x8F4 JUMPI PUSH2 0x8F3 PUSH2 0x7F4 JUMP JUMPDEST JUMPDEST PUSH2 0x8FF DUP5 DUP3 DUP6 PUSH2 0x8B6 JUMP JUMPDEST POP SWAP4 SWAP3 POP POP POP JUMP JUMPDEST PUSH1 0x0 DUP3 PUSH1 0x1F DUP4 ADD SLT PUSH2 0x91C JUMPI PUSH2 0x91B PUSH2 0x7EF JUMP JUMPDEST JUMPDEST DUP2 CALLDATALOAD PUSH2 0x92C DUP5 DUP3 PUSH1 0x20 DUP7 ADD PUSH2 0x8C5 JUMP JUMPDEST SWAP2 POP POP SWAP3 SWAP2 POP POP JUMP JUMPDEST PUSH1 0x0 PUSH20 0xFFFFFFFFFFFFFFFFFFFFFFFFFFFFFFFFFFFFFFFF DUP3 AND SWAP1 POP SWAP2 SWAP1 POP JUMP JUMPDEST PUSH1 0x0 PUSH2 0x960 DUP3 PUSH2 0x935 JUMP JUMPDEST SWAP1 POP SWAP2 SWAP1 POP JUMP JUMPDEST PUSH2 0x970 DUP2 PUSH2 0x955 JUMP JUMPDEST DUP2 EQ PUSH2 0x97B JUMPI PUSH1 0x0 DUP1 REVERT JUMPDEST POP JUMP JUMPDEST PUSH1 0x0 DUP2 CALLDATALOAD SWAP1 POP PUSH2 0x98D DUP2 PUSH2 0x967 JUMP JUMPDEST SWAP3 SWAP2 POP POP JUMP JUMPDEST PUSH2 0x99C DUP2 PUSH2 0x7A7 JUMP JUMPDEST DUP2 EQ PUSH2 0x9A7 JUMPI PUSH1 0x0 DUP1 REVERT JUMPDEST POP JUMP JUMPDEST PUSH1 0x0 DUP2 CALLDATALOAD SWAP1 POP PUSH2 0x9B9 DUP2 PUSH2 0x993 JUMP JUMPDEST SWAP3 SWAP2 POP POP JUMP JUMPDEST PUSH1 0x0 DUP1 PUSH1 0x0 PUSH1 0x60 DUP5 DUP7 SUB SLT ISZERO PUSH2 0x9D8 JUMPI PUSH2 0x9D7 PUSH2 0x7E5 JUMP JUMPDEST JUMPDEST PUSH1 0x0 DUP5 ADD CALLDATALOAD PUSH8 0xFFFFFFFFFFFFFFFF DUP2 GT ISZERO PUSH2 0x9F6 JUMPI PUSH2 0x9F5 PUSH2 0x7EA JUMP JUMPDEST JUMPDEST PUSH2 0xA02 DUP7 DUP3 DUP8 ADD PUSH2 0x907 JUMP JUMPDEST SWAP4 POP POP PUSH1 0x20 PUSH2 0xA13 DUP7 DUP3 DUP8 ADD PUSH2 0x97E JUMP JUMPDEST SWAP3 POP POP PUSH1 0x40 PUSH2 0xA24 DUP7 DUP3 DUP8 ADD PUSH2 0x9AA JUMP JUMPDEST SWAP2 POP POP SWAP3 POP SWAP3 POP SWAP3 JUMP JUMPDEST PUSH1 0x0 PUSH2 0xA39 DUP3 PUSH2 0x935 JUMP JUMPDEST SWAP1 POP SWAP2 SWAP1 POP JUMP JUMPDEST PUSH2 0xA49 DUP2 PUSH2 0xA2E JUMP JUMPDEST DUP2 EQ PUSH2 0xA54 JUMPI PUSH1 0x0 DUP1 REVERT JUMPDEST POP JUMP JUMPDEST PUSH1 0x0 DUP2 CALLDATALOAD SWAP1 POP PUSH2 0xA66 DUP2 PUSH2 0xA40 JUMP JUMPDEST SWAP3 SWAP2 POP POP JUMP JUMPDEST PUSH1 0x0 PUSH1 0x20 DUP3 DUP5 SUB SLT ISZERO PUSH2 0xA82 JUMPI PUSH2 0xA81 PUSH2 0x7E5 JUMP JUMPDEST JUMPDEST PUSH1 0x0 PUSH2 0xA90 DUP5 DUP3 DUP6 ADD PUSH2 0xA57 JUMP JUMPDEST SWAP2 POP POP SWAP3 SWAP2 POP POP JUMP JUMPDEST PUSH2 0xAA2 DUP2 PUSH2 0xA2E JUMP JUMPDEST DUP3 MSTORE POP POP JUMP JUMPDEST PUSH1 0x0 PUSH1 0x20 DUP3 ADD SWAP1 POP PUSH2 0xABD PUSH1 0x0 DUP4 ADD DUP5 PUSH2 0xA99 JUMP JUMPDEST SWAP3 SWAP2 POP POP JUMP JUMPDEST PUSH1 0x0 PUSH1 0x20 DUP3 DUP5 SUB SLT ISZERO PUSH2 0xAD9 JUMPI PUSH2 0xAD8 PUSH2 0x7E5 JUMP JUMPDEST JUMPDEST PUSH1 0x0 PUSH2 0xAE7 DUP5 DUP3 DUP6 ADD PUSH2 0x9AA JUMP JUMPDEST SWAP2 POP POP SWAP3 SWAP2 POP POP JUMP JUMPDEST PUSH1 0x0 DUP2 MLOAD SWAP1 POP SWAP2 SWAP1 POP JUMP JUMPDEST PUSH1 0x0 DUP3 DUP3 MSTORE PUSH1 0x20 DUP3 ADD SWAP1 POP SWAP3 SWAP2 POP POP JUMP JUMPDEST PUSH1 0x0 JUMPDEST DUP4 DUP2 LT ISZERO PUSH2 0xB2A JUMPI DUP1 DUP3 ADD MLOAD DUP2 DUP5 ADD MSTORE PUSH1 0x20 DUP2 ADD SWAP1 POP PUSH2 0xB0F JUMP JUMPDEST PUSH1 0x0 DUP5 DUP5 ADD MSTORE POP POP POP POP JUMP JUMPDEST PUSH1 0x0 PUSH2 0xB41 DUP3 PUSH2 0xAF0 JUMP JUMPDEST PUSH2 0xB4B DUP2 DUP6 PUSH2 0xAFB JUMP JUMPDEST SWAP4 POP PUSH2 0xB5B DUP2 DUP6 PUSH1 0x20 DUP7 ADD PUSH2 0xB0C JUMP JUMPDEST PUSH2 0xB64 DUP2 PUSH2 0x7F9 JUMP JUMPDEST DUP5 ADD SWAP2 POP POP SWAP3 SWAP2 POP POP JUMP JUMPDEST PUSH1 0x0 DUP2 ISZERO ISZERO SWAP1 POP SWAP2 SWAP1 POP JUMP JUMPDEST PUSH2 0xB84 DUP2 PUSH2 0xB6F JUMP JUMPDEST DUP3 MSTORE POP POP JUMP JUMPDEST PUSH1 0x0 PUSH1 0xA0 DUP3 ADD SWAP1 POP DUP2 DUP2 SUB PUSH1 0x0 DUP4 ADD MSTORE PUSH2 0xBA4 DUP2 DUP9 PUSH2 0xB36 JUMP JUMPDEST SWAP1 POP PUSH2 0xBB3 PUSH1 0x20 DUP4 ADD DUP8 PUSH2 0xA99 JUMP JUMPDEST PUSH2 0xBC0 PUSH1 0x40 DUP4 ADD DUP7 PUSH2 0x7B1 JUMP JUMPDEST PUSH2 0xBCD PUSH1 0x60 DUP4 ADD DUP6 PUSH2 0xB7B JUMP JUMPDEST PUSH2 0xBDA PUSH1 0x80 DUP4 ADD DUP5 PUSH2 0x7B1 JUMP JUMPDEST SWAP7 SWAP6 POP POP POP POP POP POP JUMP JUMPDEST PUSH32 0x4465616C696E652077657265206D697373696E67000000000000000000000000 PUSH1 0x0 DUP3 ADD MSTORE POP JUMP JUMPDEST PUSH1 0x0 PUSH2 0xC1A PUSH1 0x14 DUP4 PUSH2 0xAFB JUMP JUMPDEST SWAP2 POP PUSH2 0xC25 DUP3 PUSH2 0xBE4 JUMP JUMPDEST PUSH1 0x20 DUP3 ADD SWAP1 POP SWAP2 SWAP1 POP JUMP JUMPDEST PUSH1 0x0 PUSH1 0x20 DUP3 ADD SWAP1 POP DUP2 DUP2 SUB PUSH1 0x0 DUP4 ADD MSTORE PUSH2 0xC49 DUP2 PUSH2 0xC0D JUMP JUMPDEST SWAP1 POP SWAP2 SWAP1 POP JUMP JUMPDEST PUSH32 0x596F752077657265206E6F7420626520656C696769626C650000000000000000 PUSH1 0x0 DUP3 ADD MSTORE POP JUMP JUMPDEST PUSH1 0x0 PUSH2 0xC86 PUSH1 0x18 DUP4 PUSH2 0xAFB JUMP JUMPDEST SWAP2 POP PUSH2 0xC91 DUP3 PUSH2 0xC50 JUMP JUMPDEST PUSH1 0x20 DUP3 ADD SWAP1 POP SWAP2 SWAP1 POP JUMP JUMPDEST PUSH1 0x0 PUSH1 0x20 DUP3 ADD SWAP1 POP DUP2 DUP2 SUB PUSH1 0x0 DUP4 ADD MSTORE PUSH2 0xCB5 DUP2 PUSH2 0xC79 JUMP JUMPDEST SWAP1 POP SWAP2 SWAP1 POP JUMP JUMPDEST PUSH32 0x4E487B7100000000000000000000000000000000000000000000000000000000 PUSH1 0x0 MSTORE PUSH1 0x11 PUSH1 0x4 MSTORE PUSH1 0x24 PUSH1 0x0 REVERT JUMPDEST PUSH1 0x0 PUSH2 0xCF6 DUP3 PUSH2 0x7A7 JUMP JUMPDEST SWAP2 POP PUSH32 0xFFFFFFFFFFFFFFFFFFFFFFFFFFFFFFFFFFFFFFFFFFFFFFFFFFFFFFFFFFFFFFFF DUP3 SUB PUSH2 0xD28 JUMPI PUSH2 0xD27 PUSH2 0xCBC JUMP JUMPDEST JUMPDEST PUSH1 0x1 DUP3 ADD SWAP1 POP SWAP2 SWAP1 POP JUMP JUMPDEST PUSH1 0x0 PUSH2 0xD3E DUP3 PUSH2 0x7A7 JUMP JUMPDEST SWAP2 POP PUSH2 0xD49 DUP4 PUSH2 0x7A7 JUMP JUMPDEST SWAP3 POP DUP3 DUP3 ADD SWAP1 POP DUP1 DUP3 GT ISZERO PUSH2 0xD61 JUMPI PUSH2 0xD60 PUSH2 0xCBC JUMP JUMPDEST JUMPDEST SWAP3 SWAP2 POP POP JUMP JUMPDEST PUSH32 0x4E487B7100000000000000000000000000000000000000000000000000000000 PUSH1 0x0 MSTORE PUSH1 0x22 PUSH1 0x4 MSTORE PUSH1 0x24 PUSH1 0x0 REVERT JUMPDEST PUSH1 0x0 PUSH1 0x2 DUP3 DIV SWAP1 POP PUSH1 0x1 DUP3 AND DUP1 PUSH2 0xDAE JUMPI PUSH1 0x7F DUP3 AND SWAP2 POP JUMPDEST PUSH1 0x20 DUP3 LT DUP2 SUB PUSH2 0xDC1 JUMPI PUSH2 0xDC0 PUSH2 0xD67 JUMP JUMPDEST JUMPDEST POP SWAP2 SWAP1 POP JUMP JUMPDEST PUSH1 0x0 DUP2 SWAP1 POP DUP2 PUSH1 0x0 MSTORE PUSH1 0x20 PUSH1 0x0 KECCAK256 SWAP1 POP SWAP2 SWAP1 POP JUMP JUMPDEST PUSH1 0x0 PUSH1 0x20 PUSH1 0x1F DUP4 ADD DIV SWAP1 POP SWAP2 SWAP1 POP JUMP JUMPDEST PUSH1 0x0 DUP3 DUP3 SHL SWAP1 POP SWAP3 SWAP2 POP POP JUMP JUMPDEST PUSH1 0x0 PUSH1 0x8 DUP4 MUL PUSH2 0xE29 PUSH32 0xFFFFFFFFFFFFFFFFFFFFFFFFFFFFFFFFFFFFFFFFFFFFFFFFFFFFFFFFFFFFFFFF DUP3 PUSH2 0xDEC JUMP JUMPDEST PUSH2 0xE33 DUP7 DUP4 PUSH2 0xDEC JUMP JUMPDEST SWAP6 POP DUP1 NOT DUP5 AND SWAP4 POP DUP1 DUP7 AND DUP5 OR SWAP3 POP POP POP SWAP4 SWAP3 POP POP POP JUMP JUMPDEST PUSH1 0x0 DUP2 SWAP1 POP SWAP2 SWAP1 POP JUMP JUMPDEST PUSH1 0x0 PUSH2 0xE70 PUSH2 0xE6B PUSH2 0xE66 DUP5 PUSH2 0x7A7 JUMP JUMPDEST PUSH2 0xE4B JUMP JUMPDEST PUSH2 0x7A7 JUMP JUMPDEST SWAP1 POP SWAP2 SWAP1 POP JUMP JUMPDEST PUSH1 0x0 DUP2 SWAP1 POP SWAP2 SWAP1 POP JUMP JUMPDEST PUSH2 0xE8A DUP4 PUSH2 0xE55 JUMP JUMPDEST PUSH2 0xE9E PUSH2 0xE96 DUP3 PUSH2 0xE77 JUMP JUMPDEST DUP5 DUP5 SLOAD PUSH2 0xDF9 JUMP JUMPDEST DUP3 SSTORE POP POP POP POP JUMP JUMPDEST PUSH1 0x0 SWAP1 JUMP JUMPDEST PUSH2 0xEB3 PUSH2 0xEA6 JUMP JUMPDEST PUSH2 0xEBE DUP2 DUP5 DUP5 PUSH2 0xE81 JUMP JUMPDEST POP POP POP JUMP JUMPDEST JUMPDEST DUP2 DUP2 LT ISZERO PUSH2 0xEE2 JUMPI PUSH2 0xED7 PUSH1 0x0 DUP3 PUSH2 0xEAB JUMP JUMPDEST PUSH1 0x1 DUP2 ADD SWAP1 POP PUSH2 0xEC4 JUMP JUMPDEST POP POP JUMP JUMPDEST PUSH1 0x1F DUP3 GT ISZERO PUSH2 0xF27 JUMPI PUSH2 0xEF8 DUP2 PUSH2 0xDC7 JUMP JUMPDEST PUSH2 0xF01 DUP5 PUSH2 0xDDC JUMP JUMPDEST DUP2 ADD PUSH1 0x20 DUP6 LT ISZERO PUSH2 0xF10 JUMPI DUP2 SWAP1 POP JUMPDEST PUSH2 0xF24 PUSH2 0xF1C DUP6 PUSH2 0xDDC JUMP JUMPDEST DUP4 ADD DUP3 PUSH2 0xEC3 JUMP JUMPDEST POP POP JUMPDEST POP POP POP JUMP JUMPDEST PUSH1 0x0 DUP3 DUP3 SHR SWAP1 POP SWAP3 SWAP2 POP POP JUMP JUMPDEST PUSH1 0x0 PUSH2 0xF4A PUSH1 0x0 NOT DUP5 PUSH1 0x8 MUL PUSH2 0xF2C JUMP JUMPDEST NOT DUP1 DUP4 AND SWAP2 POP POP SWAP3 SWAP2 POP POP JUMP JUMPDEST PUSH1 0x0 PUSH2 0xF63 DUP4 DUP4 PUSH2 0xF39 JUMP JUMPDEST SWAP2 POP DUP3 PUSH1 0x2 MUL DUP3 OR SWAP1 POP SWAP3 SWAP2 POP POP JUMP JUMPDEST PUSH2 0xF7C DUP3 PUSH2 0xAF0 JUMP JUMPDEST PUSH8 0xFFFFFFFFFFFFFFFF DUP2 GT ISZERO PUSH2 0xF95 JUMPI PUSH2 0xF94 PUSH2 0x80A JUMP JUMPDEST JUMPDEST PUSH2 0xF9F DUP3 SLOAD PUSH2 0xD96 JUMP JUMPDEST PUSH2 0xFAA DUP3 DUP3 DUP6 PUSH2 0xEE6 JUMP JUMPDEST PUSH1 0x0 PUSH1 0x20 SWAP1 POP PUSH1 0x1F DUP4 GT PUSH1 0x1 DUP2 EQ PUSH2 0xFDD JUMPI PUSH1 0x0 DUP5 ISZERO PUSH2 0xFCB JUMPI DUP3 DUP8 ADD MLOAD SWAP1 POP JUMPDEST PUSH2 0xFD5 DUP6 DUP3 PUSH2 0xF57 JUMP JUMPDEST DUP7 SSTORE POP PUSH2 0x103D JUMP JUMPDEST PUSH1 0x1F NOT DUP5 AND PUSH2 0xFEB DUP7 PUSH2 0xDC7 JUMP JUMPDEST PUSH1 0x0 JUMPDEST DUP3 DUP2 LT ISZERO PUSH2 0x1013 JUMPI DUP5 DUP10 ADD MLOAD DUP3 SSTORE PUSH1 0x1 DUP3 ADD SWAP2 POP PUSH1 0x20 DUP6 ADD SWAP5 POP PUSH1 0x20 DUP2 ADD SWAP1 POP PUSH2 0xFEE JUMP JUMPDEST DUP7 DUP4 LT ISZERO PUSH2 0x1030 JUMPI DUP5 DUP10 ADD MLOAD PUSH2 0x102C PUSH1 0x1F DUP10 AND DUP3 PUSH2 0xF39 JUMP JUMPDEST DUP4 SSTORE POP JUMPDEST PUSH1 0x1 PUSH1 0x2 DUP9 MUL ADD DUP9 SSTORE POP POP POP JUMPDEST POP POP POP POP POP POP JUMP JUMPDEST PUSH32 0x596F752077657265204E6F7420656C6769626C6520696E2046756E64696E6700 PUSH1 0x0 DUP3 ADD MSTORE POP JUMP JUMPDEST PUSH1 0x0 PUSH2 0x107B PUSH1 0x1F DUP4 PUSH2 0xAFB JUMP JUMPDEST SWAP2 POP PUSH2 0x1086 DUP3 PUSH2 0x1045 JUMP JUMPDEST PUSH1 0x20 DUP3 ADD SWAP1 POP SWAP2 SWAP1 POP JUMP JUMPDEST PUSH1 0x0 PUSH1 0x20 DUP3 ADD SWAP1 POP DUP2 DUP2 SUB PUSH1 0x0 DUP4 ADD MSTORE PUSH2 0x10AA DUP2 PUSH2 0x106E JUMP JUMPDEST SWAP1 POP SWAP2 SWAP1 POP JUMP INVALID LOG2 PUSH5 0x6970667358 0x22 SLT KECCAK256 DELEGATECALL 0xAB 0xBB PUSH9 0x705A9FEF1B27F6592B SELFBALANCE RETURN POP MUL EQ JUMPI PUSH13 0x974BB72D3F368290491D21C064 PUSH20 0x6F6C634300081100330000000000000000000000 "
				},
				"gasEstimates": {
					"creation": {
						"codeDepositCost": "865400",
						"executionCost": "infinite",
						"totalCost": "infinite"
					},
					"external": {
						"contributors(address)": "2903",
						"createRequest(string,address,uint256)": "infinite",
						"deadline()": "2540",
						"getBalance()": "384",
						"manager()": "2537",
						"miniContribution()": "2430",
						"noOfContributor()": "2496",
						"numRequest()": "2451",
						"raisedAmount()": "2473",
						"refund()": "9019",
						"request(uint256)": "infinite",
						"sendEth()": "infinite",
						"target()": "2495"
					}
				},
				"methodIdentifiers": {
					"contributors(address)": "1f6d4942",
					"createRequest(string,address,uint256)": "1b16bb5c",
					"deadline()": "29dcb0cf",
					"getBalance()": "12065fe0",
					"manager()": "481c6a75",
					"miniContribution()": "05759b4d",
					"noOfContributor()": "8c9ffd40",
					"numRequest()": "b1b16431",
					"raisedAmount()": "c59ee1dc",
					"refund()": "590e1ae3",
					"request(uint256)": "d845a4b3",
					"sendEth()": "06e99fef",
					"target()": "d4b83992"
				}
			},
			"storageLayout": {
				"storage": [
					{
						"astId": 5,
						"contract": "Crowd.sol:crowdFunding",
						"label": "contributors",
						"offset": 0,
						"slot": "0",
						"type": "t_mapping(t_address,t_uint256)"
					},
					{
						"astId": 7,
						"contract": "Crowd.sol:crowdFunding",
						"label": "manager",
						"offset": 0,
						"slot": "1",
						"type": "t_address"
					},
					{
						"astId": 9,
						"contract": "Crowd.sol:crowdFunding",
						"label": "target",
						"offset": 0,
						"slot": "2",
						"type": "t_uint256"
					},
					{
						"astId": 11,
						"contract": "Crowd.sol:crowdFunding",
						"label": "miniContribution",
						"offset": 0,
						"slot": "3",
						"type": "t_uint256"
					},
					{
						"astId": 13,
						"contract": "Crowd.sol:crowdFunding",
						"label": "deadline",
						"offset": 0,
						"slot": "4",
						"type": "t_uint256"
					},
					{
						"astId": 15,
						"contract": "Crowd.sol:crowdFunding",
						"label": "noOfContributor",
						"offset": 0,
						"slot": "5",
						"type": "t_uint256"
					},
					{
						"astId": 17,
						"contract": "Crowd.sol:crowdFunding",
						"label": "raisedAmount",
						"offset": 0,
						"slot": "6",
						"type": "t_uint256"
					},
					{
						"astId": 37,
						"contract": "Crowd.sol:crowdFunding",
						"label": "request",
						"offset": 0,
						"slot": "7",
						"type": "t_mapping(t_uint256,t_struct(Request)32_storage)"
					},
					{
						"astId": 39,
						"contract": "Crowd.sol:crowdFunding",
						"label": "numRequest",
						"offset": 0,
						"slot": "8",
						"type": "t_uint256"
					}
				],
				"types": {
					"t_address": {
						"encoding": "inplace",
						"label": "address",
						"numberOfBytes": "20"
					},
					"t_bool": {
						"encoding": "inplace",
						"label": "bool",
						"numberOfBytes": "1"
					},
					"t_mapping(t_address,t_bool)": {
						"encoding": "mapping",
						"key": "t_address",
						"label": "mapping(address => bool)",
						"numberOfBytes": "32",
						"value": "t_bool"
					},
					"t_mapping(t_address,t_uint256)": {
						"encoding": "mapping",
						"key": "t_address",
						"label": "mapping(address => uint256)",
						"numberOfBytes": "32",
						"value": "t_uint256"
					},
					"t_mapping(t_uint256,t_struct(Request)32_storage)": {
						"encoding": "mapping",
						"key": "t_uint256",
						"label": "mapping(uint256 => struct crowdFunding.Request)",
						"numberOfBytes": "32",
						"value": "t_struct(Request)32_storage"
					},
					"t_string_storage": {
						"encoding": "bytes",
						"label": "string",
						"numberOfBytes": "32"
					},
					"t_struct(Request)32_storage": {
						"encoding": "inplace",
						"label": "struct crowdFunding.Request",
						"members": [
							{
								"astId": 19,
								"contract": "Crowd.sol:crowdFunding",
								"label": "discription",
								"offset": 0,
								"slot": "0",
								"type": "t_string_storage"
							},
							{
								"astId": 21,
								"contract": "Crowd.sol:crowdFunding",
								"label": "recipant",
								"offset": 0,
								"slot": "1",
								"type": "t_address"
							},
							{
								"astId": 23,
								"contract": "Crowd.sol:crowdFunding",
								"label": "value",
								"offset": 0,
								"slot": "2",
								"type": "t_uint256"
							},
							{
								"astId": 25,
								"contract": "Crowd.sol:crowdFunding",
								"label": "completed",
								"offset": 0,
								"slot": "3",
								"type": "t_bool"
							},
							{
								"astId": 27,
								"contract": "Crowd.sol:crowdFunding",
								"label": "noOfVoters",
								"offset": 0,
								"slot": "4",
								"type": "t_uint256"
							},
							{
								"astId": 31,
								"contract": "Crowd.sol:crowdFunding",
								"label": "voter",
								"offset": 0,
								"slot": "5",
								"type": "t_mapping(t_address,t_bool)"
							}
						],
						"numberOfBytes": "192"
					},
					"t_uint256": {
						"encoding": "inplace",
						"label": "uint256",
						"numberOfBytes": "32"
					}
				}
			},
			"userdoc": {
				"kind": "user",
				"methods": {},
				"version": 1
			}
		}
	}
}