{
	"data": {
		"bytecode": {
			"linkReferences": {},
			"object": "608060405234801561001057600080fd5b5061138b806100206000396000f3fe60806040526004361061004a5760003560e01c80630374ab0b1461004f5780630b79143014610078578063298ec208146100ba578063e11bb64d146100d6578063f086a09b14610113575b600080fd5b34801561005b57600080fd5b5061007660048036038101906100719190610961565b61013c565b005b34801561008457600080fd5b5061009f600480360381019061009a91906109e4565b6102be565b6040516100b196959493929190610ae0565b60405180910390f35b6100d460048036038101906100cf9190610b48565b6103a2565b005b3480156100e257600080fd5b506100fd60048036038101906100f89190610bb4565b610597565b60405161010a9190610bf4565b60405180910390f35b34801561011f57600080fd5b5061013a60048036038101906101359190610c0f565b6105bc565b005b42831161017e576040517f08c379a000000000000000000000000000000000000000000000000000000000815260040161017590610cae565b60405180910390fd5b600081116101c1576040517f08c379a00000000000000000000000000000000000000000000000000000000081526004016101b890610d1a565b60405180910390fd5b6040518060c001604052803373ffffffffffffffffffffffffffffffffffffffff16815260200185815260200184815260200183815260200182815260200182815250600080600254815260200190815260200160002060008201518160000160006101000a81548173ffffffffffffffffffffffffffffffffffffffff021916908373ffffffffffffffffffffffffffffffffffffffff16021790555060208201518160010190816102749190610f46565b5060408201518160020155606082015181600301556080820151816004015560a08201518160050155905050600260008154809291906102b390611047565b919050555050505050565b60006020528060005260406000206000915090508060000160009054906101000a900473ffffffffffffffffffffffffffffffffffffffff169080600101805461030790610d69565b80601f016020809104026020016040519081016040528092919081815260200182805461033390610d69565b80156103805780601f1061035557610100808354040283529160200191610380565b820191906000526020600020905b81548152906001019060200180831161036357829003601f168201915b5050505050908060020154908060030154908060040154908060050154905086565b4260008084815260200190815260200160002060020154116103f9576040517f08c379a00000000000000000000000000000000000000000000000000000000081526004016103f0906110db565b60405180910390fd5b60008060008481526020019081526020016000206002015403610451576040517f08c379a000000000000000000000000000000000000000000000000000000000815260040161044890611147565b60405180910390fd5b600080600084815260200190815260200160002090508181600301546104779190611167565b34146104b8576040517f08c379a00000000000000000000000000000000000000000000000000000000081526004016104af906111f5565b60405180910390fd5b81600080858152602001908152602001600020600501541015610510576040517f08c379a000000000000000000000000000000000000000000000000000000000815260040161050790611261565b60405180910390fd5b818160050160008282546105249190611281565b9250508190555081600160003373ffffffffffffffffffffffffffffffffffffffff1673ffffffffffffffffffffffffffffffffffffffff1681526020019081526020016000206000858152602001908152602001600020600082825461058b91906112b5565b92505081905550505050565b6001602052816000526040600020602052806000526040600020600091509150505481565b426000808581526020019081526020016000206002015411610613576040517f08c379a000000000000000000000000000000000000000000000000000000000815260040161060a906110db565b60405180910390fd5b6000806000858152602001908152602001600020600201540361066b576040517f08c379a000000000000000000000000000000000000000000000000000000000815260040161066290611147565b60405180910390fd5b81600160003373ffffffffffffffffffffffffffffffffffffffff1673ffffffffffffffffffffffffffffffffffffffff16815260200190815260200160002060008581526020019081526020016000205410156106fe576040517f08c379a00000000000000000000000000000000000000000000000000000000081526004016106f590611335565b60405180910390fd5b81600160003373ffffffffffffffffffffffffffffffffffffffff1673ffffffffffffffffffffffffffffffffffffffff1681526020019081526020016000206000858152602001908152602001600020600082825461075e9190611281565b9250508190555081600160008373ffffffffffffffffffffffffffffffffffffffff1673ffffffffffffffffffffffffffffffffffffffff168152602001908152602001600020600085815260200190815260200160002060008282546107c591906112b5565b92505081905550505050565b6000604051905090565b600080fd5b600080fd5b600080fd5b600080fd5b6000601f19601f8301169050919050565b7f4e487b7100000000000000000000000000000000000000000000000000000000600052604160045260246000fd5b610838826107ef565b810181811067ffffffffffffffff8211171561085757610856610800565b5b80604052505050565b600061086a6107d1565b9050610876828261082f565b919050565b600067ffffffffffffffff82111561089657610895610800565b5b61089f826107ef565b9050602081019050919050565b82818337600083830152505050565b60006108ce6108c98461087b565b610860565b9050828152602081018484840111156108ea576108e96107ea565b5b6108f58482856108ac565b509392505050565b600082601f830112610912576109116107e5565b5b81356109228482602086016108bb565b91505092915050565b6000819050919050565b61093e8161092b565b811461094957600080fd5b50565b60008135905061095b81610935565b92915050565b6000806000806080858703121561097b5761097a6107db565b5b600085013567ffffffffffffffff811115610999576109986107e0565b5b6109a5878288016108fd565b94505060206109b68782880161094c565b93505060406109c78782880161094c565b92505060606109d88782880161094c565b91505092959194509250565b6000602082840312156109fa576109f96107db565b5b6000610a088482850161094c565b91505092915050565b600073ffffffffffffffffffffffffffffffffffffffff82169050919050565b6000610a3c82610a11565b9050919050565b610a4c81610a31565b82525050565b600081519050919050565b600082825260208201905092915050565b60005b83811015610a8c578082015181840152602081019050610a71565b60008484015250505050565b6000610aa382610a52565b610aad8185610a5d565b9350610abd818560208601610a6e565b610ac6816107ef565b840191505092915050565b610ada8161092b565b82525050565b600060c082019050610af56000830189610a43565b8181036020830152610b078188610a98565b9050610b166040830187610ad1565b610b236060830186610ad1565b610b306080830185610ad1565b610b3d60a0830184610ad1565b979650505050505050565b60008060408385031215610b5f57610b5e6107db565b5b6000610b6d8582860161094c565b9250506020610b7e8582860161094c565b9150509250929050565b610b9181610a31565b8114610b9c57600080fd5b50565b600081359050610bae81610b88565b92915050565b60008060408385031215610bcb57610bca6107db565b5b6000610bd985828601610b9f565b9250506020610bea8582860161094c565b9150509250929050565b6000602082019050610c096000830184610ad1565b92915050565b600080600060608486031215610c2857610c276107db565b5b6000610c368682870161094c565b9350506020610c478682870161094c565b9250506040610c5886828701610b9f565b9150509250925092565b7f546865204576656e7420686173206f7665720000000000000000000000000000600082015250565b6000610c98601283610a5d565b9150610ca382610c62565b602082019050919050565b60006020820190508181036000830152610cc781610c8b565b9050919050565b7f796f752063616e2052756e20746865204576656e747300000000000000000000600082015250565b6000610d04601683610a5d565b9150610d0f82610cce565b602082019050919050565b60006020820190508181036000830152610d3381610cf7565b9050919050565b7f4e487b7100000000000000000000000000000000000000000000000000000000600052602260045260246000fd5b60006002820490506001821680610d8157607f821691505b602082108103610d9457610d93610d3a565b5b50919050565b60008190508160005260206000209050919050565b60006020601f8301049050919050565b600082821b905092915050565b600060088302610dfc7fffffffffffffffffffffffffffffffffffffffffffffffffffffffffffffffff82610dbf565b610e068683610dbf565b95508019841693508086168417925050509392505050565b6000819050919050565b6000610e43610e3e610e398461092b565b610e1e565b61092b565b9050919050565b6000819050919050565b610e5d83610e28565b610e71610e6982610e4a565b848454610dcc565b825550505050565b600090565b610e86610e79565b610e91818484610e54565b505050565b5b81811015610eb557610eaa600082610e7e565b600181019050610e97565b5050565b601f821115610efa57610ecb81610d9a565b610ed484610daf565b81016020851015610ee3578190505b610ef7610eef85610daf565b830182610e96565b50505b505050565b600082821c905092915050565b6000610f1d60001984600802610eff565b1980831691505092915050565b6000610f368383610f0c565b9150826002028217905092915050565b610f4f82610a52565b67ffffffffffffffff811115610f6857610f67610800565b5b610f728254610d69565b610f7d828285610eb9565b600060209050601f831160018114610fb05760008415610f9e578287015190505b610fa88582610f2a565b865550611010565b601f198416610fbe86610d9a565b60005b82811015610fe657848901518255600182019150602085019450602081019050610fc1565b868310156110035784890151610fff601f891682610f0c565b8355505b6001600288020188555050505b505050505050565b7f4e487b7100000000000000000000000000000000000000000000000000000000600052601160045260246000fd5b60006110528261092b565b91507fffffffffffffffffffffffffffffffffffffffffffffffffffffffffffffffff820361108457611083611018565b5b600182019050919050565b7f5468652074696d6520686173206c6f7373000000000000000000000000000000600082015250565b60006110c5601183610a5d565b91506110d08261108f565b602082019050919050565b600060208201905081810360008301526110f4816110b8565b9050919050565b7f746865207469636b657420686173206c6f737300000000000000000000000000600082015250565b6000611131601383610a5d565b915061113c826110fb565b602082019050919050565b6000602082019050818103600083015261116081611124565b9050919050565b60006111728261092b565b915061117d8361092b565b925082820261118b8161092b565b915082820484148315176111a2576111a1611018565b5b5092915050565b7f596f7572206e6f74206162626c6520746f206163636573730000000000000000600082015250565b60006111df601883610a5d565b91506111ea826111a9565b602082019050919050565b6000602082019050818103600083015261120e816111d2565b9050919050565b7f4e6f7468696e6700000000000000000000000000000000000000000000000000600082015250565b600061124b600783610a5d565b915061125682611215565b602082019050919050565b6000602082019050818103600083015261127a8161123e565b9050919050565b600061128c8261092b565b91506112978361092b565b92508282039050818111156112af576112ae611018565b5b92915050565b60006112c08261092b565b91506112cb8361092b565b92508282019050808211156112e3576112e2611018565b5b92915050565b7f596f7572206e6f7420656e6f756768207469636b657473000000000000000000600082015250565b600061131f601783610a5d565b915061132a826112e9565b602082019050919050565b6000602082019050818103600083015261134e81611312565b905091905056fea2646970667358221220423e1da2d97d5f791012081709694d985125c36da2be221f059e672a25046b9564736f6c63430008110033",
			"opcodes": "PUSH1 0x80 PUSH1 0x40 MSTORE CALLVALUE DUP1 ISZERO PUSH2 0x10 JUMPI PUSH1 0x0 DUP1 REVERT JUMPDEST POP PUSH2 0x138B DUP1 PUSH2 0x20 PUSH1 0x0 CODECOPY PUSH1 0x0 RETURN INVALID PUSH1 0x80 PUSH1 0x40 MSTORE PUSH1 0x4 CALLDATASIZE LT PUSH2 0x4A JUMPI PUSH1 0x0 CALLDATALOAD PUSH1 0xE0 SHR DUP1 PUSH4 0x374AB0B EQ PUSH2 0x4F JUMPI DUP1 PUSH4 0xB791430 EQ PUSH2 0x78 JUMPI DUP1 PUSH4 0x298EC208 EQ PUSH2 0xBA JUMPI DUP1 PUSH4 0xE11BB64D EQ PUSH2 0xD6 JUMPI DUP1 PUSH4 0xF086A09B EQ PUSH2 0x113 JUMPI JUMPDEST PUSH1 0x0 DUP1 REVERT JUMPDEST CALLVALUE DUP1 ISZERO PUSH2 0x5B JUMPI PUSH1 0x0 DUP1 REVERT JUMPDEST POP PUSH2 0x76 PUSH1 0x4 DUP1 CALLDATASIZE SUB DUP2 ADD SWAP1 PUSH2 0x71 SWAP2 SWAP1 PUSH2 0x961 JUMP JUMPDEST PUSH2 0x13C JUMP JUMPDEST STOP JUMPDEST CALLVALUE DUP1 ISZERO PUSH2 0x84 JUMPI PUSH1 0x0 DUP1 REVERT JUMPDEST POP PUSH2 0x9F PUSH1 0x4 DUP1 CALLDATASIZE SUB DUP2 ADD SWAP1 PUSH2 0x9A SWAP2 SWAP1 PUSH2 0x9E4 JUMP JUMPDEST PUSH2 0x2BE JUMP JUMPDEST PUSH1 0x40 MLOAD PUSH2 0xB1 SWAP7 SWAP6 SWAP5 SWAP4 SWAP3 SWAP2 SWAP1 PUSH2 0xAE0 JUMP JUMPDEST PUSH1 0x40 MLOAD DUP1 SWAP2 SUB SWAP1 RETURN JUMPDEST PUSH2 0xD4 PUSH1 0x4 DUP1 CALLDATASIZE SUB DUP2 ADD SWAP1 PUSH2 0xCF SWAP2 SWAP1 PUSH2 0xB48 JUMP JUMPDEST PUSH2 0x3A2 JUMP JUMPDEST STOP JUMPDEST CALLVALUE DUP1 ISZERO PUSH2 0xE2 JUMPI PUSH1 0x0 DUP1 REVERT JUMPDEST POP PUSH2 0xFD PUSH1 0x4 DUP1 CALLDATASIZE SUB DUP2 ADD SWAP1 PUSH2 0xF8 SWAP2 SWAP1 PUSH2 0xBB4 JUMP JUMPDEST PUSH2 0x597 JUMP JUMPDEST PUSH1 0x40 MLOAD PUSH2 0x10A SWAP2 SWAP1 PUSH2 0xBF4 JUMP JUMPDEST PUSH1 0x40 MLOAD DUP1 SWAP2 SUB SWAP1 RETURN JUMPDEST CALLVALUE DUP1 ISZERO PUSH2 0x11F JUMPI PUSH1 0x0 DUP1 REVERT JUMPDEST POP PUSH2 0x13A PUSH1 0x4 DUP1 CALLDATASIZE SUB DUP2 ADD SWAP1 PUSH2 0x135 SWAP2 SWAP1 PUSH2 0xC0F JUMP JUMPDEST PUSH2 0x5BC JUMP JUMPDEST STOP JUMPDEST TIMESTAMP DUP4 GT PUSH2 0x17E JUMPI PUSH1 0x40 MLOAD PUSH32 0x8C379A000000000000000000000000000000000000000000000000000000000 DUP2 MSTORE PUSH1 0x4 ADD PUSH2 0x175 SWAP1 PUSH2 0xCAE JUMP JUMPDEST PUSH1 0x40 MLOAD DUP1 SWAP2 SUB SWAP1 REVERT JUMPDEST PUSH1 0x0 DUP2 GT PUSH2 0x1C1 JUMPI PUSH1 0x40 MLOAD PUSH32 0x8C379A000000000000000000000000000000000000000000000000000000000 DUP2 MSTORE PUSH1 0x4 ADD PUSH2 0x1B8 SWAP1 PUSH2 0xD1A JUMP JUMPDEST PUSH1 0x40 MLOAD DUP1 SWAP2 SUB SWAP1 REVERT JUMPDEST PUSH1 0x40 MLOAD DUP1 PUSH1 0xC0 ADD PUSH1 0x40 MSTORE DUP1 CALLER PUSH20 0xFFFFFFFFFFFFFFFFFFFFFFFFFFFFFFFFFFFFFFFF AND DUP2 MSTORE PUSH1 0x20 ADD DUP6 DUP2 MSTORE PUSH1 0x20 ADD DUP5 DUP2 MSTORE PUSH1 0x20 ADD DUP4 DUP2 MSTORE PUSH1 0x20 ADD DUP3 DUP2 MSTORE PUSH1 0x20 ADD DUP3 DUP2 MSTORE POP PUSH1 0x0 DUP1 PUSH1 0x2 SLOAD DUP2 MSTORE PUSH1 0x20 ADD SWAP1 DUP2 MSTORE PUSH1 0x20 ADD PUSH1 0x0 KECCAK256 PUSH1 0x0 DUP3 ADD MLOAD DUP2 PUSH1 0x0 ADD PUSH1 0x0 PUSH2 0x100 EXP DUP2 SLOAD DUP2 PUSH20 0xFFFFFFFFFFFFFFFFFFFFFFFFFFFFFFFFFFFFFFFF MUL NOT AND SWAP1 DUP4 PUSH20 0xFFFFFFFFFFFFFFFFFFFFFFFFFFFFFFFFFFFFFFFF AND MUL OR SWAP1 SSTORE POP PUSH1 0x20 DUP3 ADD MLOAD DUP2 PUSH1 0x1 ADD SWAP1 DUP2 PUSH2 0x274 SWAP2 SWAP1 PUSH2 0xF46 JUMP JUMPDEST POP PUSH1 0x40 DUP3 ADD MLOAD DUP2 PUSH1 0x2 ADD SSTORE PUSH1 0x60 DUP3 ADD MLOAD DUP2 PUSH1 0x3 ADD SSTORE PUSH1 0x80 DUP3 ADD MLOAD DUP2 PUSH1 0x4 ADD SSTORE PUSH1 0xA0 DUP3 ADD MLOAD DUP2 PUSH1 0x5 ADD SSTORE SWAP1 POP POP PUSH1 0x2 PUSH1 0x0 DUP2 SLOAD DUP1 SWAP3 SWAP2 SWAP1 PUSH2 0x2B3 SWAP1 PUSH2 0x1047 JUMP JUMPDEST SWAP2 SWAP1 POP SSTORE POP POP POP POP POP JUMP JUMPDEST PUSH1 0x0 PUSH1 0x20 MSTORE DUP1 PUSH1 0x0 MSTORE PUSH1 0x40 PUSH1 0x0 KECCAK256 PUSH1 0x0 SWAP2 POP SWAP1 POP DUP1 PUSH1 0x0 ADD PUSH1 0x0 SWAP1 SLOAD SWAP1 PUSH2 0x100 EXP SWAP1 DIV PUSH20 0xFFFFFFFFFFFFFFFFFFFFFFFFFFFFFFFFFFFFFFFF AND SWAP1 DUP1 PUSH1 0x1 ADD DUP1 SLOAD PUSH2 0x307 SWAP1 PUSH2 0xD69 JUMP JUMPDEST DUP1 PUSH1 0x1F ADD PUSH1 0x20 DUP1 SWAP2 DIV MUL PUSH1 0x20 ADD PUSH1 0x40 MLOAD SWAP1 DUP2 ADD PUSH1 0x40 MSTORE DUP1 SWAP3 SWAP2 SWAP1 DUP2 DUP2 MSTORE PUSH1 0x20 ADD DUP3 DUP1 SLOAD PUSH2 0x333 SWAP1 PUSH2 0xD69 JUMP JUMPDEST DUP1 ISZERO PUSH2 0x380 JUMPI DUP1 PUSH1 0x1F LT PUSH2 0x355 JUMPI PUSH2 0x100 DUP1 DUP4 SLOAD DIV MUL DUP4 MSTORE SWAP2 PUSH1 0x20 ADD SWAP2 PUSH2 0x380 JUMP JUMPDEST DUP3 ADD SWAP2 SWAP1 PUSH1 0x0 MSTORE PUSH1 0x20 PUSH1 0x0 KECCAK256 SWAP1 JUMPDEST DUP2 SLOAD DUP2 MSTORE SWAP1 PUSH1 0x1 ADD SWAP1 PUSH1 0x20 ADD DUP1 DUP4 GT PUSH2 0x363 JUMPI DUP3 SWAP1 SUB PUSH1 0x1F AND DUP3 ADD SWAP2 JUMPDEST POP POP POP POP POP SWAP1 DUP1 PUSH1 0x2 ADD SLOAD SWAP1 DUP1 PUSH1 0x3 ADD SLOAD SWAP1 DUP1 PUSH1 0x4 ADD SLOAD SWAP1 DUP1 PUSH1 0x5 ADD SLOAD SWAP1 POP DUP7 JUMP JUMPDEST TIMESTAMP PUSH1 0x0 DUP1 DUP5 DUP2 MSTORE PUSH1 0x20 ADD SWAP1 DUP2 MSTORE PUSH1 0x20 ADD PUSH1 0x0 KECCAK256 PUSH1 0x2 ADD SLOAD GT PUSH2 0x3F9 JUMPI PUSH1 0x40 MLOAD PUSH32 0x8C379A000000000000000000000000000000000000000000000000000000000 DUP2 MSTORE PUSH1 0x4 ADD PUSH2 0x3F0 SWAP1 PUSH2 0x10DB JUMP JUMPDEST PUSH1 0x40 MLOAD DUP1 SWAP2 SUB SWAP1 REVERT JUMPDEST PUSH1 0x0 DUP1 PUSH1 0x0 DUP5 DUP2 MSTORE PUSH1 0x20 ADD SWAP1 DUP2 MSTORE PUSH1 0x20 ADD PUSH1 0x0 KECCAK256 PUSH1 0x2 ADD SLOAD SUB PUSH2 0x451 JUMPI PUSH1 0x40 MLOAD PUSH32 0x8C379A000000000000000000000000000000000000000000000000000000000 DUP2 MSTORE PUSH1 0x4 ADD PUSH2 0x448 SWAP1 PUSH2 0x1147 JUMP JUMPDEST PUSH1 0x40 MLOAD DUP1 SWAP2 SUB SWAP1 REVERT JUMPDEST PUSH1 0x0 DUP1 PUSH1 0x0 DUP5 DUP2 MSTORE PUSH1 0x20 ADD SWAP1 DUP2 MSTORE PUSH1 0x20 ADD PUSH1 0x0 KECCAK256 SWAP1 POP DUP2 DUP2 PUSH1 0x3 ADD SLOAD PUSH2 0x477 SWAP2 SWAP1 PUSH2 0x1167 JUMP JUMPDEST CALLVALUE EQ PUSH2 0x4B8 JUMPI PUSH1 0x40 MLOAD PUSH32 0x8C379A000000000000000000000000000000000000000000000000000000000 DUP2 MSTORE PUSH1 0x4 ADD PUSH2 0x4AF SWAP1 PUSH2 0x11F5 JUMP JUMPDEST PUSH1 0x40 MLOAD DUP1 SWAP2 SUB SWAP1 REVERT JUMPDEST DUP2 PUSH1 0x0 DUP1 DUP6 DUP2 MSTORE PUSH1 0x20 ADD SWAP1 DUP2 MSTORE PUSH1 0x20 ADD PUSH1 0x0 KECCAK256 PUSH1 0x5 ADD SLOAD LT ISZERO PUSH2 0x510 JUMPI PUSH1 0x40 MLOAD PUSH32 0x8C379A000000000000000000000000000000000000000000000000000000000 DUP2 MSTORE PUSH1 0x4 ADD PUSH2 0x507 SWAP1 PUSH2 0x1261 JUMP JUMPDEST PUSH1 0x40 MLOAD DUP1 SWAP2 SUB SWAP1 REVERT JUMPDEST DUP2 DUP2 PUSH1 0x5 ADD PUSH1 0x0 DUP3 DUP3 SLOAD PUSH2 0x524 SWAP2 SWAP1 PUSH2 0x1281 JUMP JUMPDEST SWAP3 POP POP DUP2 SWAP1 SSTORE POP DUP2 PUSH1 0x1 PUSH1 0x0 CALLER PUSH20 0xFFFFFFFFFFFFFFFFFFFFFFFFFFFFFFFFFFFFFFFF AND PUSH20 0xFFFFFFFFFFFFFFFFFFFFFFFFFFFFFFFFFFFFFFFF AND DUP2 MSTORE PUSH1 0x20 ADD SWAP1 DUP2 MSTORE PUSH1 0x20 ADD PUSH1 0x0 KECCAK256 PUSH1 0x0 DUP6 DUP2 MSTORE PUSH1 0x20 ADD SWAP1 DUP2 MSTORE PUSH1 0x20 ADD PUSH1 0x0 KECCAK256 PUSH1 0x0 DUP3 DUP3 SLOAD PUSH2 0x58B SWAP2 SWAP1 PUSH2 0x12B5 JUMP JUMPDEST SWAP3 POP POP DUP2 SWAP1 SSTORE POP POP POP POP JUMP JUMPDEST PUSH1 0x1 PUSH1 0x20 MSTORE DUP2 PUSH1 0x0 MSTORE PUSH1 0x40 PUSH1 0x0 KECCAK256 PUSH1 0x20 MSTORE DUP1 PUSH1 0x0 MSTORE PUSH1 0x40 PUSH1 0x0 KECCAK256 PUSH1 0x0 SWAP2 POP SWAP2 POP POP SLOAD DUP2 JUMP JUMPDEST TIMESTAMP PUSH1 0x0 DUP1 DUP6 DUP2 MSTORE PUSH1 0x20 ADD SWAP1 DUP2 MSTORE PUSH1 0x20 ADD PUSH1 0x0 KECCAK256 PUSH1 0x2 ADD SLOAD GT PUSH2 0x613 JUMPI PUSH1 0x40 MLOAD PUSH32 0x8C379A000000000000000000000000000000000000000000000000000000000 DUP2 MSTORE PUSH1 0x4 ADD PUSH2 0x60A SWAP1 PUSH2 0x10DB JUMP JUMPDEST PUSH1 0x40 MLOAD DUP1 SWAP2 SUB SWAP1 REVERT JUMPDEST PUSH1 0x0 DUP1 PUSH1 0x0 DUP6 DUP2 MSTORE PUSH1 0x20 ADD SWAP1 DUP2 MSTORE PUSH1 0x20 ADD PUSH1 0x0 KECCAK256 PUSH1 0x2 ADD SLOAD SUB PUSH2 0x66B JUMPI PUSH1 0x40 MLOAD PUSH32 0x8C379A000000000000000000000000000000000000000000000000000000000 DUP2 MSTORE PUSH1 0x4 ADD PUSH2 0x662 SWAP1 PUSH2 0x1147 JUMP JUMPDEST PUSH1 0x40 MLOAD DUP1 SWAP2 SUB SWAP1 REVERT JUMPDEST DUP2 PUSH1 0x1 PUSH1 0x0 CALLER PUSH20 0xFFFFFFFFFFFFFFFFFFFFFFFFFFFFFFFFFFFFFFFF AND PUSH20 0xFFFFFFFFFFFFFFFFFFFFFFFFFFFFFFFFFFFFFFFF AND DUP2 MSTORE PUSH1 0x20 ADD SWAP1 DUP2 MSTORE PUSH1 0x20 ADD PUSH1 0x0 KECCAK256 PUSH1 0x0 DUP6 DUP2 MSTORE PUSH1 0x20 ADD SWAP1 DUP2 MSTORE PUSH1 0x20 ADD PUSH1 0x0 KECCAK256 SLOAD LT ISZERO PUSH2 0x6FE JUMPI PUSH1 0x40 MLOAD PUSH32 0x8C379A000000000000000000000000000000000000000000000000000000000 DUP2 MSTORE PUSH1 0x4 ADD PUSH2 0x6F5 SWAP1 PUSH2 0x1335 JUMP JUMPDEST PUSH1 0x40 MLOAD DUP1 SWAP2 SUB SWAP1 REVERT JUMPDEST DUP2 PUSH1 0x1 PUSH1 0x0 CALLER PUSH20 0xFFFFFFFFFFFFFFFFFFFFFFFFFFFFFFFFFFFFFFFF AND PUSH20 0xFFFFFFFFFFFFFFFFFFFFFFFFFFFFFFFFFFFFFFFF AND DUP2 MSTORE PUSH1 0x20 ADD SWAP1 DUP2 MSTORE PUSH1 0x20 ADD PUSH1 0x0 KECCAK256 PUSH1 0x0 DUP6 DUP2 MSTORE PUSH1 0x20 ADD SWAP1 DUP2 MSTORE PUSH1 0x20 ADD PUSH1 0x0 KECCAK256 PUSH1 0x0 DUP3 DUP3 SLOAD PUSH2 0x75E SWAP2 SWAP1 PUSH2 0x1281 JUMP JUMPDEST SWAP3 POP POP DUP2 SWAP1 SSTORE POP DUP2 PUSH1 0x1 PUSH1 0x0 DUP4 PUSH20 0xFFFFFFFFFFFFFFFFFFFFFFFFFFFFFFFFFFFFFFFF AND PUSH20 0xFFFFFFFFFFFFFFFFFFFFFFFFFFFFFFFFFFFFFFFF AND DUP2 MSTORE PUSH1 0x20 ADD SWAP1 DUP2 MSTORE PUSH1 0x20 ADD PUSH1 0x0 KECCAK256 PUSH1 0x0 DUP6 DUP2 MSTORE PUSH1 0x20 ADD SWAP1 DUP2 MSTORE PUSH1 0x20 ADD PUSH1 0x0 KECCAK256 PUSH1 0x0 DUP3 DUP3 SLOAD PUSH2 0x7C5 SWAP2 SWAP1 PUSH2 0x12B5 JUMP JUMPDEST SWAP3 POP POP DUP2 SWAP1 SSTORE POP POP POP POP JUMP JUMPDEST PUSH1 0x0 PUSH1 0x40 MLOAD SWAP1 POP SWAP1 JUMP JUMPDEST PUSH1 0x0 DUP1 REVERT JUMPDEST PUSH1 0x0 DUP1 REVERT JUMPDEST PUSH1 0x0 DUP1 REVERT JUMPDEST PUSH1 0x0 DUP1 REVERT JUMPDEST PUSH1 0x0 PUSH1 0x1F NOT PUSH1 0x1F DUP4 ADD AND SWAP1 POP SWAP2 SWAP1 POP JUMP JUMPDEST PUSH32 0x4E487B7100000000000000000000000000000000000000000000000000000000 PUSH1 0x0 MSTORE PUSH1 0x41 PUSH1 0x4 MSTORE PUSH1 0x24 PUSH1 0x0 REVERT JUMPDEST PUSH2 0x838 DUP3 PUSH2 0x7EF JUMP JUMPDEST DUP2 ADD DUP2 DUP2 LT PUSH8 0xFFFFFFFFFFFFFFFF DUP3 GT OR ISZERO PUSH2 0x857 JUMPI PUSH2 0x856 PUSH2 0x800 JUMP JUMPDEST JUMPDEST DUP1 PUSH1 0x40 MSTORE POP POP POP JUMP JUMPDEST PUSH1 0x0 PUSH2 0x86A PUSH2 0x7D1 JUMP JUMPDEST SWAP1 POP PUSH2 0x876 DUP3 DUP3 PUSH2 0x82F JUMP JUMPDEST SWAP2 SWAP1 POP JUMP JUMPDEST PUSH1 0x0 PUSH8 0xFFFFFFFFFFFFFFFF DUP3 GT ISZERO PUSH2 0x896 JUMPI PUSH2 0x895 PUSH2 0x800 JUMP JUMPDEST JUMPDEST PUSH2 0x89F DUP3 PUSH2 0x7EF JUMP JUMPDEST SWAP1 POP PUSH1 0x20 DUP2 ADD SWAP1 POP SWAP2 SWAP1 POP JUMP JUMPDEST DUP3 DUP2 DUP4 CALLDATACOPY PUSH1 0x0 DUP4 DUP4 ADD MSTORE POP POP POP JUMP JUMPDEST PUSH1 0x0 PUSH2 0x8CE PUSH2 0x8C9 DUP5 PUSH2 0x87B JUMP JUMPDEST PUSH2 0x860 JUMP JUMPDEST SWAP1 POP DUP3 DUP2 MSTORE PUSH1 0x20 DUP2 ADD DUP5 DUP5 DUP5 ADD GT ISZERO PUSH2 0x8EA JUMPI PUSH2 0x8E9 PUSH2 0x7EA JUMP JUMPDEST JUMPDEST PUSH2 0x8F5 DUP5 DUP3 DUP6 PUSH2 0x8AC JUMP JUMPDEST POP SWAP4 SWAP3 POP POP POP JUMP JUMPDEST PUSH1 0x0 DUP3 PUSH1 0x1F DUP4 ADD SLT PUSH2 0x912 JUMPI PUSH2 0x911 PUSH2 0x7E5 JUMP JUMPDEST JUMPDEST DUP2 CALLDATALOAD PUSH2 0x922 DUP5 DUP3 PUSH1 0x20 DUP7 ADD PUSH2 0x8BB JUMP JUMPDEST SWAP2 POP POP SWAP3 SWAP2 POP POP JUMP JUMPDEST PUSH1 0x0 DUP2 SWAP1 POP SWAP2 SWAP1 POP JUMP JUMPDEST PUSH2 0x93E DUP2 PUSH2 0x92B JUMP JUMPDEST DUP2 EQ PUSH2 0x949 JUMPI PUSH1 0x0 DUP1 REVERT JUMPDEST POP JUMP JUMPDEST PUSH1 0x0 DUP2 CALLDATALOAD SWAP1 POP PUSH2 0x95B DUP2 PUSH2 0x935 JUMP JUMPDEST SWAP3 SWAP2 POP POP JUMP JUMPDEST PUSH1 0x0 DUP1 PUSH1 0x0 DUP1 PUSH1 0x80 DUP6 DUP8 SUB SLT ISZERO PUSH2 0x97B JUMPI PUSH2 0x97A PUSH2 0x7DB JUMP JUMPDEST JUMPDEST PUSH1 0x0 DUP6 ADD CALLDATALOAD PUSH8 0xFFFFFFFFFFFFFFFF DUP2 GT ISZERO PUSH2 0x999 JUMPI PUSH2 0x998 PUSH2 0x7E0 JUMP JUMPDEST JUMPDEST PUSH2 0x9A5 DUP8 DUP3 DUP9 ADD PUSH2 0x8FD JUMP JUMPDEST SWAP5 POP POP PUSH1 0x20 PUSH2 0x9B6 DUP8 DUP3 DUP9 ADD PUSH2 0x94C JUMP JUMPDEST SWAP4 POP POP PUSH1 0x40 PUSH2 0x9C7 DUP8 DUP3 DUP9 ADD PUSH2 0x94C JUMP JUMPDEST SWAP3 POP POP PUSH1 0x60 PUSH2 0x9D8 DUP8 DUP3 DUP9 ADD PUSH2 0x94C JUMP JUMPDEST SWAP2 POP POP SWAP3 SWAP6 SWAP2 SWAP5 POP SWAP3 POP JUMP JUMPDEST PUSH1 0x0 PUSH1 0x20 DUP3 DUP5 SUB SLT ISZERO PUSH2 0x9FA JUMPI PUSH2 0x9F9 PUSH2 0x7DB JUMP JUMPDEST JUMPDEST PUSH1 0x0 PUSH2 0xA08 DUP5 DUP3 DUP6 ADD PUSH2 0x94C JUMP JUMPDEST SWAP2 POP POP SWAP3 SWAP2 POP POP JUMP JUMPDEST PUSH1 0x0 PUSH20 0xFFFFFFFFFFFFFFFFFFFFFFFFFFFFFFFFFFFFFFFF DUP3 AND SWAP1 POP SWAP2 SWAP1 POP JUMP JUMPDEST PUSH1 0x0 PUSH2 0xA3C DUP3 PUSH2 0xA11 JUMP JUMPDEST SWAP1 POP SWAP2 SWAP1 POP JUMP JUMPDEST PUSH2 0xA4C DUP2 PUSH2 0xA31 JUMP JUMPDEST DUP3 MSTORE POP POP JUMP JUMPDEST PUSH1 0x0 DUP2 MLOAD SWAP1 POP SWAP2 SWAP1 POP JUMP JUMPDEST PUSH1 0x0 DUP3 DUP3 MSTORE PUSH1 0x20 DUP3 ADD SWAP1 POP SWAP3 SWAP2 POP POP JUMP JUMPDEST PUSH1 0x0 JUMPDEST DUP4 DUP2 LT ISZERO PUSH2 0xA8C JUMPI DUP1 DUP3 ADD MLOAD DUP2 DUP5 ADD MSTORE PUSH1 0x20 DUP2 ADD SWAP1 POP PUSH2 0xA71 JUMP JUMPDEST PUSH1 0x0 DUP5 DUP5 ADD MSTORE POP POP POP POP JUMP JUMPDEST PUSH1 0x0 PUSH2 0xAA3 DUP3 PUSH2 0xA52 JUMP JUMPDEST PUSH2 0xAAD DUP2 DUP6 PUSH2 0xA5D JUMP JUMPDEST SWAP4 POP PUSH2 0xABD DUP2 DUP6 PUSH1 0x20 DUP7 ADD PUSH2 0xA6E JUMP JUMPDEST PUSH2 0xAC6 DUP2 PUSH2 0x7EF JUMP JUMPDEST DUP5 ADD SWAP2 POP POP SWAP3 SWAP2 POP POP JUMP JUMPDEST PUSH2 0xADA DUP2 PUSH2 0x92B JUMP JUMPDEST DUP3 MSTORE POP POP JUMP JUMPDEST PUSH1 0x0 PUSH1 0xC0 DUP3 ADD SWAP1 POP PUSH2 0xAF5 PUSH1 0x0 DUP4 ADD DUP10 PUSH2 0xA43 JUMP JUMPDEST DUP2 DUP2 SUB PUSH1 0x20 DUP4 ADD MSTORE PUSH2 0xB07 DUP2 DUP9 PUSH2 0xA98 JUMP JUMPDEST SWAP1 POP PUSH2 0xB16 PUSH1 0x40 DUP4 ADD DUP8 PUSH2 0xAD1 JUMP JUMPDEST PUSH2 0xB23 PUSH1 0x60 DUP4 ADD DUP7 PUSH2 0xAD1 JUMP JUMPDEST PUSH2 0xB30 PUSH1 0x80 DUP4 ADD DUP6 PUSH2 0xAD1 JUMP JUMPDEST PUSH2 0xB3D PUSH1 0xA0 DUP4 ADD DUP5 PUSH2 0xAD1 JUMP JUMPDEST SWAP8 SWAP7 POP POP POP POP POP POP POP JUMP JUMPDEST PUSH1 0x0 DUP1 PUSH1 0x40 DUP4 DUP6 SUB SLT ISZERO PUSH2 0xB5F JUMPI PUSH2 0xB5E PUSH2 0x7DB JUMP JUMPDEST JUMPDEST PUSH1 0x0 PUSH2 0xB6D DUP6 DUP3 DUP7 ADD PUSH2 0x94C JUMP JUMPDEST SWAP3 POP POP PUSH1 0x20 PUSH2 0xB7E DUP6 DUP3 DUP7 ADD PUSH2 0x94C JUMP JUMPDEST SWAP2 POP POP SWAP3 POP SWAP3 SWAP1 POP JUMP JUMPDEST PUSH2 0xB91 DUP2 PUSH2 0xA31 JUMP JUMPDEST DUP2 EQ PUSH2 0xB9C JUMPI PUSH1 0x0 DUP1 REVERT JUMPDEST POP JUMP JUMPDEST PUSH1 0x0 DUP2 CALLDATALOAD SWAP1 POP PUSH2 0xBAE DUP2 PUSH2 0xB88 JUMP JUMPDEST SWAP3 SWAP2 POP POP JUMP JUMPDEST PUSH1 0x0 DUP1 PUSH1 0x40 DUP4 DUP6 SUB SLT ISZERO PUSH2 0xBCB JUMPI PUSH2 0xBCA PUSH2 0x7DB JUMP JUMPDEST JUMPDEST PUSH1 0x0 PUSH2 0xBD9 DUP6 DUP3 DUP7 ADD PUSH2 0xB9F JUMP JUMPDEST SWAP3 POP POP PUSH1 0x20 PUSH2 0xBEA DUP6 DUP3 DUP7 ADD PUSH2 0x94C JUMP JUMPDEST SWAP2 POP POP SWAP3 POP SWAP3 SWAP1 POP JUMP JUMPDEST PUSH1 0x0 PUSH1 0x20 DUP3 ADD SWAP1 POP PUSH2 0xC09 PUSH1 0x0 DUP4 ADD DUP5 PUSH2 0xAD1 JUMP JUMPDEST SWAP3 SWAP2 POP POP JUMP JUMPDEST PUSH1 0x0 DUP1 PUSH1 0x0 PUSH1 0x60 DUP5 DUP7 SUB SLT ISZERO PUSH2 0xC28 JUMPI PUSH2 0xC27 PUSH2 0x7DB JUMP JUMPDEST JUMPDEST PUSH1 0x0 PUSH2 0xC36 DUP7 DUP3 DUP8 ADD PUSH2 0x94C JUMP JUMPDEST SWAP4 POP POP PUSH1 0x20 PUSH2 0xC47 DUP7 DUP3 DUP8 ADD PUSH2 0x94C JUMP JUMPDEST SWAP3 POP POP PUSH1 0x40 PUSH2 0xC58 DUP7 DUP3 DUP8 ADD PUSH2 0xB9F JUMP JUMPDEST SWAP2 POP POP SWAP3 POP SWAP3 POP SWAP3 JUMP JUMPDEST PUSH32 0x546865204576656E7420686173206F7665720000000000000000000000000000 PUSH1 0x0 DUP3 ADD MSTORE POP JUMP JUMPDEST PUSH1 0x0 PUSH2 0xC98 PUSH1 0x12 DUP4 PUSH2 0xA5D JUMP JUMPDEST SWAP2 POP PUSH2 0xCA3 DUP3 PUSH2 0xC62 JUMP JUMPDEST PUSH1 0x20 DUP3 ADD SWAP1 POP SWAP2 SWAP1 POP JUMP JUMPDEST PUSH1 0x0 PUSH1 0x20 DUP3 ADD SWAP1 POP DUP2 DUP2 SUB PUSH1 0x0 DUP4 ADD MSTORE PUSH2 0xCC7 DUP2 PUSH2 0xC8B JUMP JUMPDEST SWAP1 POP SWAP2 SWAP1 POP JUMP JUMPDEST PUSH32 0x796F752063616E2052756E20746865204576656E747300000000000000000000 PUSH1 0x0 DUP3 ADD MSTORE POP JUMP JUMPDEST PUSH1 0x0 PUSH2 0xD04 PUSH1 0x16 DUP4 PUSH2 0xA5D JUMP JUMPDEST SWAP2 POP PUSH2 0xD0F DUP3 PUSH2 0xCCE JUMP JUMPDEST PUSH1 0x20 DUP3 ADD SWAP1 POP SWAP2 SWAP1 POP JUMP JUMPDEST PUSH1 0x0 PUSH1 0x20 DUP3 ADD SWAP1 POP DUP2 DUP2 SUB PUSH1 0x0 DUP4 ADD MSTORE PUSH2 0xD33 DUP2 PUSH2 0xCF7 JUMP JUMPDEST SWAP1 POP SWAP2 SWAP1 POP JUMP JUMPDEST PUSH32 0x4E487B7100000000000000000000000000000000000000000000000000000000 PUSH1 0x0 MSTORE PUSH1 0x22 PUSH1 0x4 MSTORE PUSH1 0x24 PUSH1 0x0 REVERT JUMPDEST PUSH1 0x0 PUSH1 0x2 DUP3 DIV SWAP1 POP PUSH1 0x1 DUP3 AND DUP1 PUSH2 0xD81 JUMPI PUSH1 0x7F DUP3 AND SWAP2 POP JUMPDEST PUSH1 0x20 DUP3 LT DUP2 SUB PUSH2 0xD94 JUMPI PUSH2 0xD93 PUSH2 0xD3A JUMP JUMPDEST JUMPDEST POP SWAP2 SWAP1 POP JUMP JUMPDEST PUSH1 0x0 DUP2 SWAP1 POP DUP2 PUSH1 0x0 MSTORE PUSH1 0x20 PUSH1 0x0 KECCAK256 SWAP1 POP SWAP2 SWAP1 POP JUMP JUMPDEST PUSH1 0x0 PUSH1 0x20 PUSH1 0x1F DUP4 ADD DIV SWAP1 POP SWAP2 SWAP1 POP JUMP JUMPDEST PUSH1 0x0 DUP3 DUP3 SHL SWAP1 POP SWAP3 SWAP2 POP POP JUMP JUMPDEST PUSH1 0x0 PUSH1 0x8 DUP4 MUL PUSH2 0xDFC PUSH32 0xFFFFFFFFFFFFFFFFFFFFFFFFFFFFFFFFFFFFFFFFFFFFFFFFFFFFFFFFFFFFFFFF DUP3 PUSH2 0xDBF JUMP JUMPDEST PUSH2 0xE06 DUP7 DUP4 PUSH2 0xDBF JUMP JUMPDEST SWAP6 POP DUP1 NOT DUP5 AND SWAP4 POP DUP1 DUP7 AND DUP5 OR SWAP3 POP POP POP SWAP4 SWAP3 POP POP POP JUMP JUMPDEST PUSH1 0x0 DUP2 SWAP1 POP SWAP2 SWAP1 POP JUMP JUMPDEST PUSH1 0x0 PUSH2 0xE43 PUSH2 0xE3E PUSH2 0xE39 DUP5 PUSH2 0x92B JUMP JUMPDEST PUSH2 0xE1E JUMP JUMPDEST PUSH2 0x92B JUMP JUMPDEST SWAP1 POP SWAP2 SWAP1 POP JUMP JUMPDEST PUSH1 0x0 DUP2 SWAP1 POP SWAP2 SWAP1 POP JUMP JUMPDEST PUSH2 0xE5D DUP4 PUSH2 0xE28 JUMP JUMPDEST PUSH2 0xE71 PUSH2 0xE69 DUP3 PUSH2 0xE4A JUMP JUMPDEST DUP5 DUP5 SLOAD PUSH2 0xDCC JUMP JUMPDEST DUP3 SSTORE POP POP POP POP JUMP JUMPDEST PUSH1 0x0 SWAP1 JUMP JUMPDEST PUSH2 0xE86 PUSH2 0xE79 JUMP JUMPDEST PUSH2 0xE91 DUP2 DUP5 DUP5 PUSH2 0xE54 JUMP JUMPDEST POP POP POP JUMP JUMPDEST JUMPDEST DUP2 DUP2 LT ISZERO PUSH2 0xEB5 JUMPI PUSH2 0xEAA PUSH1 0x0 DUP3 PUSH2 0xE7E JUMP JUMPDEST PUSH1 0x1 DUP2 ADD SWAP1 POP PUSH2 0xE97 JUMP JUMPDEST POP POP JUMP JUMPDEST PUSH1 0x1F DUP3 GT ISZERO PUSH2 0xEFA JUMPI PUSH2 0xECB DUP2 PUSH2 0xD9A JUMP JUMPDEST PUSH2 0xED4 DUP5 PUSH2 0xDAF JUMP JUMPDEST DUP2 ADD PUSH1 0x20 DUP6 LT ISZERO PUSH2 0xEE3 JUMPI DUP2 SWAP1 POP JUMPDEST PUSH2 0xEF7 PUSH2 0xEEF DUP6 PUSH2 0xDAF JUMP JUMPDEST DUP4 ADD DUP3 PUSH2 0xE96 JUMP JUMPDEST POP POP JUMPDEST POP POP POP JUMP JUMPDEST PUSH1 0x0 DUP3 DUP3 SHR SWAP1 POP SWAP3 SWAP2 POP POP JUMP JUMPDEST PUSH1 0x0 PUSH2 0xF1D PUSH1 0x0 NOT DUP5 PUSH1 0x8 MUL PUSH2 0xEFF JUMP JUMPDEST NOT DUP1 DUP4 AND SWAP2 POP POP SWAP3 SWAP2 POP POP JUMP JUMPDEST PUSH1 0x0 PUSH2 0xF36 DUP4 DUP4 PUSH2 0xF0C JUMP JUMPDEST SWAP2 POP DUP3 PUSH1 0x2 MUL DUP3 OR SWAP1 POP SWAP3 SWAP2 POP POP JUMP JUMPDEST PUSH2 0xF4F DUP3 PUSH2 0xA52 JUMP JUMPDEST PUSH8 0xFFFFFFFFFFFFFFFF DUP2 GT ISZERO PUSH2 0xF68 JUMPI PUSH2 0xF67 PUSH2 0x800 JUMP JUMPDEST JUMPDEST PUSH2 0xF72 DUP3 SLOAD PUSH2 0xD69 JUMP JUMPDEST PUSH2 0xF7D DUP3 DUP3 DUP6 PUSH2 0xEB9 JUMP JUMPDEST PUSH1 0x0 PUSH1 0x20 SWAP1 POP PUSH1 0x1F DUP4 GT PUSH1 0x1 DUP2 EQ PUSH2 0xFB0 JUMPI PUSH1 0x0 DUP5 ISZERO PUSH2 0xF9E JUMPI DUP3 DUP8 ADD MLOAD SWAP1 POP JUMPDEST PUSH2 0xFA8 DUP6 DUP3 PUSH2 0xF2A JUMP JUMPDEST DUP7 SSTORE POP PUSH2 0x1010 JUMP JUMPDEST PUSH1 0x1F NOT DUP5 AND PUSH2 0xFBE DUP7 PUSH2 0xD9A JUMP JUMPDEST PUSH1 0x0 JUMPDEST DUP3 DUP2 LT ISZERO PUSH2 0xFE6 JUMPI DUP5 DUP10 ADD MLOAD DUP3 SSTORE PUSH1 0x1 DUP3 ADD SWAP2 POP PUSH1 0x20 DUP6 ADD SWAP5 POP PUSH1 0x20 DUP2 ADD SWAP1 POP PUSH2 0xFC1 JUMP JUMPDEST DUP7 DUP4 LT ISZERO PUSH2 0x1003 JUMPI DUP5 DUP10 ADD MLOAD PUSH2 0xFFF PUSH1 0x1F DUP10 AND DUP3 PUSH2 0xF0C JUMP JUMPDEST DUP4 SSTORE POP JUMPDEST PUSH1 0x1 PUSH1 0x2 DUP9 MUL ADD DUP9 SSTORE POP POP POP JUMPDEST POP POP POP POP POP POP JUMP JUMPDEST PUSH32 0x4E487B7100000000000000000000000000000000000000000000000000000000 PUSH1 0x0 MSTORE PUSH1 0x11 PUSH1 0x4 MSTORE PUSH1 0x24 PUSH1 0x0 REVERT JUMPDEST PUSH1 0x0 PUSH2 0x1052 DUP3 PUSH2 0x92B JUMP JUMPDEST SWAP2 POP PUSH32 0xFFFFFFFFFFFFFFFFFFFFFFFFFFFFFFFFFFFFFFFFFFFFFFFFFFFFFFFFFFFFFFFF DUP3 SUB PUSH2 0x1084 JUMPI PUSH2 0x1083 PUSH2 0x1018 JUMP JUMPDEST JUMPDEST PUSH1 0x1 DUP3 ADD SWAP1 POP SWAP2 SWAP1 POP JUMP JUMPDEST PUSH32 0x5468652074696D6520686173206C6F7373000000000000000000000000000000 PUSH1 0x0 DUP3 ADD MSTORE POP JUMP JUMPDEST PUSH1 0x0 PUSH2 0x10C5 PUSH1 0x11 DUP4 PUSH2 0xA5D JUMP JUMPDEST SWAP2 POP PUSH2 0x10D0 DUP3 PUSH2 0x108F JUMP JUMPDEST PUSH1 0x20 DUP3 ADD SWAP1 POP SWAP2 SWAP1 POP JUMP JUMPDEST PUSH1 0x0 PUSH1 0x20 DUP3 ADD SWAP1 POP DUP2 DUP2 SUB PUSH1 0x0 DUP4 ADD MSTORE PUSH2 0x10F4 DUP2 PUSH2 0x10B8 JUMP JUMPDEST SWAP1 POP SWAP2 SWAP1 POP JUMP JUMPDEST PUSH32 0x746865207469636B657420686173206C6F737300000000000000000000000000 PUSH1 0x0 DUP3 ADD MSTORE POP JUMP JUMPDEST PUSH1 0x0 PUSH2 0x1131 PUSH1 0x13 DUP4 PUSH2 0xA5D JUMP JUMPDEST SWAP2 POP PUSH2 0x113C DUP3 PUSH2 0x10FB JUMP JUMPDEST PUSH1 0x20 DUP3 ADD SWAP1 POP SWAP2 SWAP1 POP JUMP JUMPDEST PUSH1 0x0 PUSH1 0x20 DUP3 ADD SWAP1 POP DUP2 DUP2 SUB PUSH1 0x0 DUP4 ADD MSTORE PUSH2 0x1160 DUP2 PUSH2 0x1124 JUMP JUMPDEST SWAP1 POP SWAP2 SWAP1 POP JUMP JUMPDEST PUSH1 0x0 PUSH2 0x1172 DUP3 PUSH2 0x92B JUMP JUMPDEST SWAP2 POP PUSH2 0x117D DUP4 PUSH2 0x92B JUMP JUMPDEST SWAP3 POP DUP3 DUP3 MUL PUSH2 0x118B DUP2 PUSH2 0x92B JUMP JUMPDEST SWAP2 POP DUP3 DUP3 DIV DUP5 EQ DUP4 ISZERO OR PUSH2 0x11A2 JUMPI PUSH2 0x11A1 PUSH2 0x1018 JUMP JUMPDEST JUMPDEST POP SWAP3 SWAP2 POP POP JUMP JUMPDEST PUSH32 0x596F7572206E6F74206162626C6520746F206163636573730000000000000000 PUSH1 0x0 DUP3 ADD MSTORE POP JUMP JUMPDEST PUSH1 0x0 PUSH2 0x11DF PUSH1 0x18 DUP4 PUSH2 0xA5D JUMP JUMPDEST SWAP2 POP PUSH2 0x11EA DUP3 PUSH2 0x11A9 JUMP JUMPDEST PUSH1 0x20 DUP3 ADD SWAP1 POP SWAP2 SWAP1 POP JUMP JUMPDEST PUSH1 0x0 PUSH1 0x20 DUP3 ADD SWAP1 POP DUP2 DUP2 SUB PUSH1 0x0 DUP4 ADD MSTORE PUSH2 0x120E DUP2 PUSH2 0x11D2 JUMP JUMPDEST SWAP1 POP SWAP2 SWAP1 POP JUMP JUMPDEST PUSH32 0x4E6F7468696E6700000000000000000000000000000000000000000000000000 PUSH1 0x0 DUP3 ADD MSTORE POP JUMP JUMPDEST PUSH1 0x0 PUSH2 0x124B PUSH1 0x7 DUP4 PUSH2 0xA5D JUMP JUMPDEST SWAP2 POP PUSH2 0x1256 DUP3 PUSH2 0x1215 JUMP JUMPDEST PUSH1 0x20 DUP3 ADD SWAP1 POP SWAP2 SWAP1 POP JUMP JUMPDEST PUSH1 0x0 PUSH1 0x20 DUP3 ADD SWAP1 POP DUP2 DUP2 SUB PUSH1 0x0 DUP4 ADD MSTORE PUSH2 0x127A DUP2 PUSH2 0x123E JUMP JUMPDEST SWAP1 POP SWAP2 SWAP1 POP JUMP JUMPDEST PUSH1 0x0 PUSH2 0x128C DUP3 PUSH2 0x92B JUMP JUMPDEST SWAP2 POP PUSH2 0x1297 DUP4 PUSH2 0x92B JUMP JUMPDEST SWAP3 POP DUP3 DUP3 SUB SWAP1 POP DUP2 DUP2 GT ISZERO PUSH2 0x12AF JUMPI PUSH2 0x12AE PUSH2 0x1018 JUMP JUMPDEST JUMPDEST SWAP3 SWAP2 POP POP JUMP JUMPDEST PUSH1 0x0 PUSH2 0x12C0 DUP3 PUSH2 0x92B JUMP JUMPDEST SWAP2 POP PUSH2 0x12CB DUP4 PUSH2 0x92B JUMP JUMPDEST SWAP3 POP DUP3 DUP3 ADD SWAP1 POP DUP1 DUP3 GT ISZERO PUSH2 0x12E3 JUMPI PUSH2 0x12E2 PUSH2 0x1018 JUMP JUMPDEST JUMPDEST SWAP3 SWAP2 POP POP JUMP JUMPDEST PUSH32 0x596F7572206E6F7420656E6F756768207469636B657473000000000000000000 PUSH1 0x0 DUP3 ADD MSTORE POP JUMP JUMPDEST PUSH1 0x0 PUSH2 0x131F PUSH1 0x17 DUP4 PUSH2 0xA5D JUMP JUMPDEST SWAP2 POP PUSH2 0x132A DUP3 PUSH2 0x12E9 JUMP JUMPDEST PUSH1 0x20 DUP3 ADD SWAP1 POP SWAP2 SWAP1 POP JUMP JUMPDEST PUSH1 0x0 PUSH1 0x20 DUP3 ADD SWAP1 POP DUP2 DUP2 SUB PUSH1 0x0 DUP4 ADD MSTORE PUSH2 0x134E DUP2 PUSH2 0x1312 JUMP JUMPDEST SWAP1 POP SWAP2 SWAP1 POP JUMP INVALID LOG2 PUSH5 0x6970667358 0x22 SLT KECCAK256 TIMESTAMP RETURNDATACOPY SAR LOG2 0xD9 PUSH30 0x5F791012081709694D985125C36DA2BE221F059E672A25046B9564736F6C PUSH4 0x43000811 STOP CALLER "
		},
		"gasEstimates": {
			"creation": {
				"codeDepositCost": "1000600",
				"executionCost": "1041",
				"totalCost": "1001641"
			},
			"external": {
				"buyTicket(uint256,uint256)": "infinite",
				"createEvent(string,uint256,uint256,uint256)": "infinite",
				"events(uint256)": "infinite",
				"ticket(address,uint256)": "infinite",
				"transferTicket(uint256,uint256,address)": "infinite"
			}
		},
		"methodIdentifiers": {
			"buyTicket(uint256,uint256)": "298ec208",
			"createEvent(string,uint256,uint256,uint256)": "0374ab0b",
			"events(uint256)": "0b791430",
			"ticket(address,uint256)": "e11bb64d",
			"transferTicket(uint256,uint256,address)": "f086a09b"
		}
	},
	"abi": [
		{
			"inputs": [
				{
					"internalType": "uint256",
					"name": "id",
					"type": "uint256"
				},
				{
					"internalType": "uint256",
					"name": "quantity",
					"type": "uint256"
				}
			],
			"name": "buyTicket",
			"outputs": [],
			"stateMutability": "payable",
			"type": "function"
		},
		{
			"inputs": [
				{
					"internalType": "string",
					"name": "_name",
					"type": "string"
				},
				{
					"internalType": "uint256",
					"name": "_date",
					"type": "uint256"
				},
				{
					"internalType": "uint256",
					"name": "_price",
					"type": "uint256"
				},
				{
					"internalType": "uint256",
					"name": "_ticketOpen",
					"type": "uint256"
				}
			],
			"name": "createEvent",
			"outputs": [],
			"stateMutability": "nonpayable",
			"type": "function"
		},
		{
			"inputs": [
				{
					"internalType": "uint256",
					"name": "",
					"type": "uint256"
				}
			],
			"name": "events",
			"outputs": [
				{
					"internalType": "address",
					"name": "organizer",
					"type": "address"
				},
				{
					"internalType": "string",
					"name": "name",
					"type": "string"
				},
				{
					"internalType": "uint256",
					"name": "date",
					"type": "uint256"
				},
				{
					"internalType": "uint256",
					"name": "price",
					"type": "uint256"
				},
				{
					"internalType": "uint256",
					"name": "ticketOpen",
					"type": "uint256"
				},
				{
					"internalType": "uint256",
					"name": "ticketRemain",
					"type": "uint256"
				}
			],
			"stateMutability": "view",
			"type": "function"
		},
		{
			"inputs": [
				{
					"internalType": "address",
					"name": "",
					"type": "address"
				},
				{
					"internalType": "uint256",
					"name": "",
					"type": "uint256"
				}
			],
			"name": "ticket",
			"outputs": [
				{
					"internalType": "uint256",
					"name": "",
					"type": "uint256"
				}
			],
			"stateMutability": "view",
			"type": "function"
		},
		{
			"inputs": [
				{
					"internalType": "uint256",
					"name": "id",
					"type": "uint256"
				},
				{
					"internalType": "uint256",
					"name": "quantity",
					"type": "uint256"
				},
				{
					"internalType": "address",
					"name": "to",
					"type": "address"
				}
			],
			"name": "transferTicket",
			"outputs": [],
			"stateMutability": "nonpayable",
			"type": "function"
		}
	]
}